{
  "address": "0x04aBEb82f41b318eAecbe0A46152F089DcB9Cfa4",
  "abi": [
    {
      "anonymous": false,
      "inputs": [
        {
          "indexed": false,
          "internalType": "string",
          "name": "asset",
          "type": "string"
        },
        {
          "indexed": true,
          "internalType": "bytes32",
          "name": "selectorHash",
          "type": "bytes32"
        }
      ],
      "name": "LogAssetUpdated",
      "type": "event"
    },
    {
      "anonymous": false,
      "inputs": [
        {
          "indexed": false,
          "internalType": "bytes",
          "name": "to",
          "type": "bytes"
        },
        {
          "indexed": false,
          "internalType": "uint256",
          "name": "amount",
          "type": "uint256"
        },
        {
          "indexed": true,
          "internalType": "uint256",
          "name": "burnNonce",
          "type": "uint256"
        },
        {
          "indexed": true,
          "internalType": "bytes",
          "name": "indexedTo",
          "type": "bytes"
        }
      ],
      "name": "LogBurn",
      "type": "event"
    },
    {
      "anonymous": false,
      "inputs": [
        {
          "indexed": false,
          "internalType": "string",
          "name": "recipientAddress",
          "type": "string"
        },
        {
          "indexed": false,
          "internalType": "string",
          "name": "recipientChain",
          "type": "string"
        },
        {
          "indexed": false,
          "internalType": "bytes",
          "name": "recipientPayload",
          "type": "bytes"
        },
        {
          "indexed": false,
          "internalType": "uint256",
          "name": "amount",
          "type": "uint256"
        },
        {
          "indexed": true,
          "internalType": "uint256",
          "name": "burnNonce",
          "type": "uint256"
        },
        {
          "indexed": true,
          "internalType": "string",
          "name": "recipientAddressIndexed",
          "type": "string"
        },
        {
          "indexed": true,
          "internalType": "string",
          "name": "recipientChainIndexed",
          "type": "string"
        }
      ],
      "name": "LogBurnToChain",
      "type": "event"
    },
    {
      "anonymous": false,
      "inputs": [
        {
          "indexed": true,
          "internalType": "address",
          "name": "to",
          "type": "address"
        },
        {
          "indexed": false,
          "internalType": "uint256",
          "name": "amount",
          "type": "uint256"
        },
        {
          "indexed": true,
          "internalType": "uint256",
          "name": "sigHash",
          "type": "uint256"
        },
        {
          "indexed": true,
          "internalType": "bytes32",
          "name": "nHash",
          "type": "bytes32"
        }
      ],
      "name": "LogMint",
      "type": "event"
    },
    {
      "anonymous": false,
      "inputs": [
        {
          "indexed": true,
          "internalType": "address",
          "name": "oldPreviousGateway",
          "type": "address"
        },
        {
          "indexed": true,
          "internalType": "address",
          "name": "newPreviousGateway",
          "type": "address"
        }
      ],
      "name": "LogPreviousGatewayUpdated",
      "type": "event"
    },
    {
      "anonymous": false,
      "inputs": [
        {
          "indexed": true,
          "internalType": "address",
          "name": "oldSignatureVerifier",
          "type": "address"
        },
        {
          "indexed": true,
          "internalType": "address",
          "name": "newSignatureVerifier",
          "type": "address"
        }
      ],
      "name": "LogSignatureVerifierUpdated",
      "type": "event"
    },
    {
      "anonymous": false,
      "inputs": [
        {
          "indexed": true,
          "internalType": "address",
          "name": "token",
          "type": "address"
        }
      ],
      "name": "LogTokenUpdated",
      "type": "event"
    },
    {
      "anonymous": false,
      "inputs": [
        {
          "indexed": true,
          "internalType": "address",
          "name": "tokenAddress",
          "type": "address"
        },
        {
          "indexed": true,
          "internalType": "address",
          "name": "nextTokenOwner",
          "type": "address"
        }
      ],
      "name": "TokenOwnershipTransferred",
      "type": "event"
    },
    {
      "inputs": [],
      "name": "NAME",
      "outputs": [
        {
          "internalType": "string",
          "name": "",
          "type": "string"
        }
      ],
      "stateMutability": "view",
      "type": "function"
    },
    {
      "inputs": [
        {
          "internalType": "string",
          "name": "asset_",
          "type": "string"
        },
        {
          "internalType": "address",
          "name": "signatureVerifier_",
          "type": "address"
        },
        {
          "internalType": "address",
          "name": "token_",
          "type": "address"
        }
      ],
      "name": "__GatewayStateManager_init",
      "outputs": [],
      "stateMutability": "nonpayable",
      "type": "function"
    },
    {
      "inputs": [
        {
          "internalType": "string",
          "name": "asset_",
          "type": "string"
        },
        {
          "internalType": "address",
          "name": "signatureVerifier_",
          "type": "address"
        },
        {
          "internalType": "address",
          "name": "token_",
          "type": "address"
        }
      ],
      "name": "__MintGateway_init",
      "outputs": [],
      "stateMutability": "nonpayable",
      "type": "function"
    },
    {
      "inputs": [
        {
          "internalType": "string",
          "name": "recipientAddress",
          "type": "string"
        },
        {
          "internalType": "string",
          "name": "recipientChain",
          "type": "string"
        },
        {
          "internalType": "bytes",
          "name": "recipientPayload",
          "type": "bytes"
        },
        {
          "internalType": "uint256",
          "name": "amount",
          "type": "uint256"
        },
        {
          "internalType": "address",
          "name": "caller",
          "type": "address"
        }
      ],
      "name": "_burnFromPreviousGateway",
      "outputs": [
        {
          "internalType": "uint256",
          "name": "",
          "type": "uint256"
        }
      ],
      "stateMutability": "nonpayable",
      "type": "function"
    },
    {
      "inputs": [
        {
          "internalType": "bytes32",
          "name": "pHash",
          "type": "bytes32"
        },
        {
          "internalType": "uint256",
          "name": "amount",
          "type": "uint256"
        },
        {
          "internalType": "bytes32",
          "name": "nHash",
          "type": "bytes32"
        },
        {
          "internalType": "bytes",
          "name": "sig",
          "type": "bytes"
        },
        {
          "internalType": "address",
          "name": "caller",
          "type": "address"
        }
      ],
      "name": "_mintFromPreviousGateway",
      "outputs": [
        {
          "internalType": "uint256",
          "name": "",
          "type": "uint256"
        }
      ],
      "stateMutability": "nonpayable",
      "type": "function"
    },
    {
      "inputs": [
        {
          "internalType": "bytes",
          "name": "recipient",
          "type": "bytes"
        },
        {
          "internalType": "uint256",
          "name": "amount",
          "type": "uint256"
        }
      ],
      "name": "burn",
      "outputs": [
        {
          "internalType": "uint256",
          "name": "",
          "type": "uint256"
        }
      ],
      "stateMutability": "nonpayable",
      "type": "function"
    },
    {
      "inputs": [
        {
          "internalType": "string",
          "name": "recipient",
          "type": "string"
        },
        {
          "internalType": "uint256",
          "name": "amount",
          "type": "uint256"
        }
      ],
      "name": "burn",
      "outputs": [
        {
          "internalType": "uint256",
          "name": "",
          "type": "uint256"
        }
      ],
      "stateMutability": "nonpayable",
      "type": "function"
    },
    {
      "inputs": [
        {
          "internalType": "string",
          "name": "recipientAddress",
          "type": "string"
        },
        {
          "internalType": "string",
          "name": "recipientChain",
          "type": "string"
        },
        {
          "internalType": "bytes",
          "name": "recipientPayload",
          "type": "bytes"
        },
        {
          "internalType": "uint256",
          "name": "amount",
          "type": "uint256"
        }
      ],
      "name": "burnWithPayload",
      "outputs": [
        {
          "internalType": "uint256",
          "name": "",
          "type": "uint256"
        }
      ],
      "stateMutability": "nonpayable",
      "type": "function"
    },
    {
      "inputs": [],
      "name": "getAsset",
      "outputs": [
        {
          "internalType": "string",
          "name": "",
          "type": "string"
        }
      ],
      "stateMutability": "view",
      "type": "function"
    },
    {
      "inputs": [],
      "name": "getEventNonce",
      "outputs": [
        {
          "internalType": "uint256",
          "name": "",
          "type": "uint256"
        }
      ],
      "stateMutability": "view",
      "type": "function"
    },
    {
      "inputs": [],
      "name": "getPreviousGateway",
      "outputs": [
        {
          "internalType": "address",
          "name": "",
          "type": "address"
        }
      ],
      "stateMutability": "view",
      "type": "function"
    },
    {
      "inputs": [],
      "name": "getSelectorHash",
      "outputs": [
        {
          "internalType": "bytes32",
          "name": "",
          "type": "bytes32"
        }
      ],
      "stateMutability": "view",
      "type": "function"
    },
    {
      "inputs": [],
      "name": "getSignatureVerifier",
      "outputs": [
        {
          "internalType": "contract IRenVMSignatureVerifier",
          "name": "",
          "type": "address"
        }
      ],
      "stateMutability": "view",
      "type": "function"
    },
    {
      "inputs": [],
      "name": "getToken",
      "outputs": [
        {
          "internalType": "address",
          "name": "",
          "type": "address"
        }
      ],
      "stateMutability": "view",
      "type": "function"
    },
    {
      "inputs": [
        {
          "internalType": "bytes32",
          "name": "pHash",
          "type": "bytes32"
        },
        {
          "internalType": "uint256",
          "name": "amount",
          "type": "uint256"
        },
        {
          "internalType": "bytes32",
          "name": "nHash",
          "type": "bytes32"
        },
        {
          "internalType": "bytes",
          "name": "sig",
          "type": "bytes"
        }
      ],
      "name": "mint",
      "outputs": [
        {
          "internalType": "uint256",
          "name": "",
          "type": "uint256"
        }
      ],
      "stateMutability": "nonpayable",
      "type": "function"
    },
    {
      "inputs": [],
      "name": "owner",
      "outputs": [
        {
          "internalType": "address",
          "name": "",
          "type": "address"
        }
      ],
      "stateMutability": "view",
      "type": "function"
    },
    {
      "inputs": [
        {
          "internalType": "bytes32",
          "name": "hash",
          "type": "bytes32"
        }
      ],
      "name": "status",
      "outputs": [
        {
          "internalType": "bool",
          "name": "",
          "type": "bool"
        }
      ],
      "stateMutability": "view",
      "type": "function"
    },
    {
      "inputs": [],
      "name": "token",
      "outputs": [
        {
          "internalType": "address",
          "name": "",
          "type": "address"
        }
      ],
      "stateMutability": "view",
      "type": "function"
    },
    {
      "inputs": [
        {
          "internalType": "address",
          "name": "nextTokenOwner",
          "type": "address"
        }
      ],
      "name": "transferTokenOwnership",
      "outputs": [],
      "stateMutability": "nonpayable",
      "type": "function"
    },
    {
      "inputs": [
        {
          "internalType": "string",
          "name": "nextAsset",
          "type": "string"
        }
      ],
      "name": "updateAsset",
      "outputs": [],
      "stateMutability": "nonpayable",
      "type": "function"
    },
    {
      "inputs": [
        {
          "internalType": "address",
          "name": "newPreviousGateway",
          "type": "address"
        }
      ],
      "name": "updatePreviousGateway",
      "outputs": [],
      "stateMutability": "nonpayable",
      "type": "function"
    },
    {
      "inputs": [
        {
          "internalType": "address",
          "name": "newSignatureVerifier",
          "type": "address"
        }
      ],
      "name": "updateSignatureVerifier",
      "outputs": [],
      "stateMutability": "nonpayable",
      "type": "function"
    },
    {
      "inputs": [
        {
          "internalType": "address",
          "name": "newToken",
          "type": "address"
        }
      ],
      "name": "updateToken",
      "outputs": [],
      "stateMutability": "nonpayable",
      "type": "function"
    }
  ],
  "transactionHash": "0x1f62ac6a2854f5a11dd21ef7a7ed6941015805b909eda83ccfae57c50025df68",
  "args": [],
  "solcInputHash": "66ae8ec2e3a53ed5763d125bba9ba96a",
  "bytecode": "0x608060405234801561001057600080fd5b50612369806100206000396000f3fe608060405234801561001057600080fd5b506004361061014d5760003560e01c806352ad0d5e116100c3578063a3f4df7e1161007c578063a3f4df7e146102b4578063aed92d35146102de578063b48272cc146101ef578063c54216b4146102e6578063dbb82bd8146102f9578063fc0c546a1461030c57600080fd5b806352ad0d5e1461023b5780635667981b1461025e5780635c222bad146102715780637ad3def2146102865780638da5cb5b14610299578063976e7a3e146102a157600080fd5b80632e21384d116101155780632e21384d146101d6578063345763ad146101de57806338463cff146101ef5780633f1264ef14610202578063512e2718146102155780635266ba0c1461022857600080fd5b806309698130146101525780630cadbde01461017c578063159ab14d1461019157806321df0da7146101b257806321e6b53d146101c3575b600080fd5b6038546001600160a01b03165b6040516001600160a01b0390911681526020015b60405180910390f35b61018f61018a366004611c74565b610314565b005b6101a461019f366004611ae8565b6103a1565b604051908152602001610173565b6036546001600160a01b031661015f565b61018f6101d1366004611a73565b6103f8565b6039546101a4565b6037546001600160a01b031661015f565b6101a46101fd366004611be6565b6105b0565b6101a4610210366004611b49565b61061b565b6101a4610223366004611d7f565b61072a565b61018f610236366004611a73565b6108a2565b61024e610249366004611acf565b610979565b6040519015158152602001610173565b61018f61026c366004611a73565b610a45565b610279610a80565b60405161017391906120d2565b61018f610294366004611a73565b610b12565b61015f610b4a565b6101a46102af366004611cdc565b610bd3565b6102796040518060400160405280600b81526020016a4d696e744761746577617960a81b81525081565b6101a4610c82565b61018f6102f4366004611c32565b610cdb565b61018f610307366004611c74565b610d18565b61015f610d93565b600054610100900460ff168061032d575060005460ff16155b6103525760405162461bcd60e51b815260040161034990612165565b60405180910390fd5b600054610100900460ff16158015610374576000805461ffff19166101011790555b61037c610da7565b61038885858585610d18565b801561039a576000805461ff00191690555b5050505050565b60006103ee86868686868080601f0160208091040260200160405190810160405280939291908181526020018383808284376000920191909152506103e99250610e1a915050565b610e1e565b9695505050505050565b33610401610b4a565b6001600160a01b0316146104275760405162461bcd60e51b815260040161034990612130565b803b61048e5760405162461bcd60e51b815260206004820152603060248201527f4d696e74476174657761793a206e65787420746f6b656e206f776e6572206d7560448201526f1cdd08189948184818dbdb9d1c9858dd60821b6064820152608401610349565b6001600160a01b0381166104f25760405162461bcd60e51b815260206004820152602560248201527f4d696e74476174657761793a20696e76616c6964206e65787420746f6b656e2060448201526437bbb732b960d91b6064820152608401610349565b60006105066036546001600160a01b031690565b60405163f2fde38b60e01b81526001600160a01b0384811660048301529192509082169063f2fde38b90602401600060405180830381600087803b15801561054d57600080fd5b505af1158015610561573d6000803e3d6000fd5b50506040516001600160a01b038086169350841691507f0670e929e0da48f4446360abae5c94415b26a39a98993d2a69f1864d5130186c90600090a35050565b6037546001600160a01b031690565b600061061384848080601f0160208091040260200160405190810160405280939291908181526020018383808284376000920182905250604080516020808201835283825282519081019092529181529093509150869050336110e5565b6110e5565b949350505050565b6000806106306038546001600160a01b031690565b90506001600160a01b0381166106885760405162461bcd60e51b815260206004820152601c60248201527f476174657761793a206e6f2070726576696f75732067617465776179000000006044820152606401610349565b336001600160a01b038216146106da5760405162461bcd60e51b815260206004820152601760248201527611d85d195dd85e4e881b9bdd08185d5d1a1bdc9a5e9959604a1b6044820152606401610349565b61071e88888888888080601f0160208091040260200160405190810160405280939291908181526020018383808284376000920191909152508a9250610e1e915050565b98975050505050505050565b60008061073f6038546001600160a01b031690565b90506001600160a01b0381166107975760405162461bcd60e51b815260206004820152601c60248201527f476174657761793a206e6f2070726576696f75732067617465776179000000006044820152606401610349565b336001600160a01b038216146107e95760405162461bcd60e51b815260206004820152601760248201527611d85d195dd85e4e881b9bdd08185d5d1a1bdc9a5e9959604a1b6044820152606401610349565b6108948a8a8080601f01602080910402602001604051908101604052809392919081815260200183838082843760009201919091525050604080516020601f8e018190048102820181019092528c815292508c91508b908190840183828082843760009201919091525050604080516020601f8d018190048102820181019092528b815292508b91508a90819084018382808284376000920191909152508a92508991506110e59050565b9a9950505050505050505050565b336108ab610b4a565b6001600160a01b0316146108d15760405162461bcd60e51b815260040161034990612130565b6001600160a01b0381166109275760405162461bcd60e51b815260206004820152601860248201527f476174657761793a20696e76616c6964206164647265737300000000000000006044820152606401610349565b603880546001600160a01b038381166001600160a01b0319831681179093556040519116919082907fd420320c6286dfd203f890abd5a2bbf75c64ef636ed72e192259fa1d133cd55b90600090a35050565b60008181526035602052604081205460ff161561099857506001919050565b60006109ac6038546001600160a01b031690565b90506001600160a01b03811615610a3c5760405163295686af60e11b8152600481018490526001600160a01b038216906352ad0d5e9060240160206040518083038186803b1580156109fd57600080fd5b505afa158015610a11573d6000803e3d6000fd5b505050506040513d601f19601f82011682018060405250810190610a359190611aad565b9392505050565b50600092915050565b33610a4e610b4a565b6001600160a01b031614610a745760405162461bcd60e51b815260040161034990612130565b610a7d816112ae565b50565b606060338054610a8f9061225c565b80601f0160208091040260200160405190810160405280929190818152602001828054610abb9061225c565b8015610b085780601f10610add57610100808354040283529160200191610b08565b820191906000526020600020905b815481529060010190602001808311610aeb57829003601f168201915b5050505050905090565b33610b1b610b4a565b6001600160a01b031614610b415760405162461bcd60e51b815260040161034990612130565b610a7d81611362565b6000610b5e6037546001600160a01b031690565b6001600160a01b0316638da5cb5b6040518163ffffffff1660e01b815260040160206040518083038186803b158015610b9657600080fd5b505afa158015610baa573d6000803e3d6000fd5b505050506040513d601f19601f82011682018060405250810190610bce9190611a90565b905090565b600061071e88888080601f01602080910402602001604051908101604052809392919081815260200183838082843760009201919091525050604080516020601f8c018190048102820181019092528a815292508a915089908190840183828082843760009201919091525050604080516020601f8b01819004810282018101909252898152925089915088908190840183828082843760009201919091525088925061060e9150610e1a9050565b603454600090610cd45760405162461bcd60e51b815260206004820152601860248201527f476174657761793a206e6f7420696e697469616c697a656400000000000000006044820152606401610349565b5060345490565b33610ce4610b4a565b6001600160a01b031614610d0a5760405162461bcd60e51b815260040161034990612130565b610d1482826113fb565b5050565b600054610100900460ff1680610d31575060005460ff16155b610d4d5760405162461bcd60e51b815260040161034990612165565b600054610100900460ff16158015610d6f576000805461ffff19166101011790555b610d77610da7565b610d80836112ae565b610d8a85856113fb565b61038882611362565b6000610bce6036546001600160a01b031690565b600054610100900460ff1680610dc0575060005460ff16155b610ddc5760405162461bcd60e51b815260040161034990612165565b600054610100900460ff16158015610dfe576000805461ffff19166101011790555b610e06611592565b8015610a7d576000805461ff001916905550565b3390565b600080610e7a8787610e2e610c82565b604080516020808201959095528082019390935260608301919091526001600160a01b038716608083015260a08083018a90528151808403909101815260c09092019052805191012090565b9050610e8581610979565b15610ede5760405162461bcd60e51b8152602060048201526024808201527f4d696e74476174657761793a207369676e617475726520616c726561647920736044820152631c195b9d60e21b6064820152608401610349565b630b135d3f60e11b610ef86037546001600160a01b031690565b6001600160a01b0316631626ba7e83876040518363ffffffff1660e01b8152600401610f25929190612068565b60206040518083038186803b158015610f3d57600080fd5b505afa158015610f51573d6000803e3d6000fd5b505050506040513d601f19601f82011682018060405250810190610f759190611bbc565b6001600160e01b0319161461100357610f8f8760206115fc565b610f9887611798565b610faa610fa3610c82565b60206115fc565b610fbe866001600160a01b031660146115fc565b610fc98960206115fc565b604051602001610fdd959493929190611f69565b60408051601f198184030181529082905262461bcd60e51b8252610349916004016120d2565b6000818152603560205260409020805460ff1916600117905561102e6036546001600160a01b031690565b6040516340c10f1960e01b81526001600160a01b0385811660048301526024820189905291909116906340c10f1990604401600060405180830381600087803b15801561107a57600080fd5b505af115801561108e573d6000803e3d6000fd5b50505050848160001c846001600160a01b03167fa58ba939eb08dab7eaf8ad09c16e7405ee88e5153e15da62d5481296a9f727fa896040516110d291815260200190565b60405180910390a4509395945050505050565b60006110f18651151590565b61113d5760405162461bcd60e51b815260206004820181905260248201527f4d696e74476174657761793a20746f206164647265737320697320656d7074796044820152606401610349565b6036546001600160a01b0316604051632770a7eb60e21b81526001600160a01b038481166004830152602482018690529190911690639dc29fac90604401600060405180830381600087803b15801561119557600080fd5b505af11580156111a9573d6000803e3d6000fd5b5050505060006111b860395490565b90506111c48651151590565b806111d0575060008551115b1561124457856040516111e39190611f0f565b6040518091039020876040516111f99190611f0f565b6040518091039020827ff1e98bc6e5ee93b47362bddb133886a2b471c968633a462b824f57cdb4b36c528a8a8a8a60405161123794939291906120e5565b60405180910390a4611295565b866040516112529190611f0f565b6040518091039020817f1619fc95050ffb8c94c9077c82b3e1ebbf8d571b6234241c55ba0aaf40da019e898760405161128c929190612081565b60405180910390a35b6112a08160016121b3565b603955509195945050505050565b6001600160a01b0381166113105760405162461bcd60e51b815260206004820152602360248201527f476174657761793a20696e76616c6964207369676e617475726520766572696660448201526234b2b960e91b6064820152608401610349565b603780546001600160a01b038381166001600160a01b0319831681179093556040519116919082907ff7dbe6f0a40adabc688e64fce7060ca2f466fbf846227fb5e4e05305553bae5e90600090a35050565b6001600160a01b0381166113b15760405162461bcd60e51b815260206004820152601660248201527523b0ba32bbb0bc9d1034b73b30b634b2103a37b5b2b760511b6044820152606401610349565b603680546001600160a01b0319166001600160a01b0383169081179091556040517f02dec22a3d1e8f9cdc0c7cd17ecee187f635788c40755be0a72dcd86a05e564d90600090a250565b61143a82828080601f01602080910402602001604051908101604052809392919081815260200183838082843760009201919091525061189692505050565b61147f5760405162461bcd60e51b815260206004820152601660248201527511d85d195dd85e4e881a5b9d985b1a5908185cdcd95d60521b6044820152606401610349565b61148b60338383611991565b50600061154a83838080601f0160208091040260200160405190810160405280939291908181526020018383808284376000920191909152506114d192506105a1915050565b6001600160a01b03166332e21ae76040518163ffffffff1660e01b815260040160006040518083038186803b15801561150957600080fd5b505afa15801561151d573d6000803e3d6000fd5b505050506040513d6000823e601f3d908101601f191682016040526115459190810190611e36565b6118b8565b905080603481905550807f2e7c1f9bcc3b09d8e05594ab5d17b6c9b15b24cd506c5212f051f22990d0813184846040516115859291906120a3565b60405180910390a2505050565b600054610100900460ff16806115ab575060005460ff16155b6115c75760405162461bcd60e51b815260040161034990612165565b600054610100900460ff16158015610e06576000805461ffff19166101011790558015610a7d576000805461ff001916905550565b6060600061160b8360026121df565b6116169060026121b3565b67ffffffffffffffff81111561162e5761162e612308565b6040519080825280601f01601f191660200182016040528015611658576020820181803683370190505b509050600360fc1b81600081518110611673576116736122f2565b60200101906001600160f81b031916908160001a905350600f60fb1b816001815181106116a2576116a26122f2565b60200101906001600160f81b031916908160001a90535060006116c68460026121df565b6116d19060016121b3565b90505b6001811115611749576f181899199a1a9b1b9c1cb0b131b232b360811b85600f1660108110611705576117056122f2565b1a60f81b82828151811061171b5761171b6122f2565b60200101906001600160f81b031916908160001a90535060049490941c9361174281612245565b90506116d4565b508315610a355760405162461bcd60e51b815260206004820181905260248201527f537472696e67733a20686578206c656e67746820696e73756666696369656e746044820152606401610349565b6060816117bc5750506040805180820190915260018152600360fc1b602082015290565b8160005b81156117e657806117d081612297565b91506117df9050600a836121cb565b91506117c0565b60008167ffffffffffffffff81111561180157611801612308565b6040519080825280601f01601f19166020018201604052801561182b576020820181803683370190505b5090505b8415610613576118406001836121fe565b915061184d600a866122b2565b6118589060306121b3565b60f81b81838151811061186d5761186d6122f2565b60200101906001600160f81b031916908160001a90535061188f600a866121cb565b945061182f565b60006118a28251151590565b80156118b257506118b2826118eb565b92915050565b600082826040516020016118cd929190611f2b565b60405160208183030381529060405280519060200120905092915050565b6000805b825181101561198857600083828151811061190c5761190c6122f2565b016020015160f81c90506041811080159061192b5750605a8160ff1611155b80611949575060618160ff16101580156119495750607a8160ff1611155b80611967575060308160ff1610158015611967575060398160ff1611155b611975575060009392505050565b508061198081612297565b9150506118ef565b50600192915050565b82805461199d9061225c565b90600052602060002090601f0160209004810192826119bf5760008555611a05565b82601f106119d85782800160ff19823516178555611a05565b82800160010185558215611a05579182015b82811115611a055782358255916020019190600101906119ea565b50611a11929150611a15565b5090565b5b80821115611a115760008155600101611a16565b60008083601f840112611a3c57600080fd5b50813567ffffffffffffffff811115611a5457600080fd5b602083019150836020828501011115611a6c57600080fd5b9250929050565b600060208284031215611a8557600080fd5b8135610a358161231e565b600060208284031215611aa257600080fd5b8151610a358161231e565b600060208284031215611abf57600080fd5b81518015158114610a3557600080fd5b600060208284031215611ae157600080fd5b5035919050565b600080600080600060808688031215611b0057600080fd5b853594506020860135935060408601359250606086013567ffffffffffffffff811115611b2c57600080fd5b611b3888828901611a2a565b969995985093965092949392505050565b60008060008060008060a08789031215611b6257600080fd5b863595506020870135945060408701359350606087013567ffffffffffffffff811115611b8e57600080fd5b611b9a89828a01611a2a565b9094509250506080870135611bae8161231e565b809150509295509295509295565b600060208284031215611bce57600080fd5b81516001600160e01b031981168114610a3557600080fd5b600080600060408486031215611bfb57600080fd5b833567ffffffffffffffff811115611c1257600080fd5b611c1e86828701611a2a565b909790965060209590950135949350505050565b60008060208385031215611c4557600080fd5b823567ffffffffffffffff811115611c5c57600080fd5b611c6885828601611a2a565b90969095509350505050565b60008060008060608587031215611c8a57600080fd5b843567ffffffffffffffff811115611ca157600080fd5b611cad87828801611a2a565b9095509350506020850135611cc18161231e565b91506040850135611cd18161231e565b939692955090935050565b60008060008060008060006080888a031215611cf757600080fd5b873567ffffffffffffffff80821115611d0f57600080fd5b611d1b8b838c01611a2a565b909950975060208a0135915080821115611d3457600080fd5b611d408b838c01611a2a565b909750955060408a0135915080821115611d5957600080fd5b50611d668a828b01611a2a565b989b979a50959894979596606090950135949350505050565b60008060008060008060008060a0898b031215611d9b57600080fd5b883567ffffffffffffffff80821115611db357600080fd5b611dbf8c838d01611a2a565b909a50985060208b0135915080821115611dd857600080fd5b611de48c838d01611a2a565b909850965060408b0135915080821115611dfd57600080fd5b50611e0a8b828c01611a2a565b909550935050606089013591506080890135611e258161231e565b809150509295985092959890939650565b600060208284031215611e4857600080fd5b815167ffffffffffffffff80821115611e6057600080fd5b818401915084601f830112611e7457600080fd5b815181811115611e8657611e86612308565b604051601f8201601f19908116603f01168101908382118183101715611eae57611eae612308565b81604052828152876020848701011115611ec757600080fd5b611ed8836020830160208801612215565b979650505050505050565b60008151808452611efb816020860160208601612215565b601f01601f19169290920160200192915050565b60008251611f21818460208701612215565b9190910192915050565b60008351611f3d818460208801612215565b622f746f60e81b9083019081528351611f5d816003840160208801612215565b01600301949350505050565b7f4d696e74476174657761793a20696e76616c6964207369676e61747572652e20815260006020660383430b9b41d160cd1b818401528751611fb18160278601848c01612215565b690161030b6b7bab73a1d160b51b6027918501918201528751611fda8160318401858c01612215565b6605840e6d0c2e6d60cb1b6031929091019182015286516120018160388401858b01612215565b6d0161036b9b39739b2b73232b91d160951b60389290910191820152855161202f8160468401858a01612215565b6801610373430b9b41d160bd1b60469290910191820152845161205881604f8401858901612215565b01604f0198975050505050505050565b8281526040602082015260006106136040830184611ee3565b6040815260006120946040830185611ee3565b90508260208301529392505050565b60208152816020820152818360408301376000818301604090810191909152601f909201601f19160101919050565b602081526000610a356020830184611ee3565b6080815260006120f86080830187611ee3565b828103602084015261210a8187611ee3565b9050828103604084015261211e8186611ee3565b91505082606083015295945050505050565b6020808252818101527f476174657761793a2063616c6c6572206973206e6f7420746865206f776e6572604082015260600190565b6020808252602e908201527f496e697469616c697a61626c653a20636f6e747261637420697320616c72656160408201526d191e481a5b9a5d1a585b1a5e995960921b606082015260800190565b600082198211156121c6576121c66122c6565b500190565b6000826121da576121da6122dc565b500490565b60008160001904831182151516156121f9576121f96122c6565b500290565b600082821015612210576122106122c6565b500390565b60005b83811015612230578181015183820152602001612218565b8381111561223f576000848401525b50505050565b600081612254576122546122c6565b506000190190565b600181811c9082168061227057607f821691505b6020821081141561229157634e487b7160e01b600052602260045260246000fd5b50919050565b60006000198214156122ab576122ab6122c6565b5060010190565b6000826122c1576122c16122dc565b500690565b634e487b7160e01b600052601160045260246000fd5b634e487b7160e01b600052601260045260246000fd5b634e487b7160e01b600052603260045260246000fd5b634e487b7160e01b600052604160045260246000fd5b6001600160a01b0381168114610a7d57600080fdfea26469706673582212207266372ca8245243097a37b4e3bb400d8c508815047586742d3d7600e561153b64736f6c63430008070033",
  "devdoc": {
    "kind": "dev",
    "methods": {
      "burnWithPayload(string,string,bytes,uint256)": {
        "params": {
          "amount": "The amount of the token being locked, in the asset's        smallest unit. (e.g. satoshis for BTC)",
          "recipientAddress": "The address to which the locked assets will be        minted to. The address should be a plain-text address, without        decoding to bytes first.",
          "recipientChain": "The target chain to which the assets are being        moved to.",
          "recipientPayload": "An optional payload to be passed to the        recipient chain along with the address."
        }
      },
      "mint(bytes32,uint256,bytes32,bytes)": {
        "params": {
          "amount": "The amount of the token being minted, in its smallest        value. (e.g. satoshis for BTC).",
          "nHash": "(nonce hash) The hash of the nonce, amount and pHash.",
          "pHash": "(payload hash) The hash of the payload associated with the        mint.",
          "sig": "The signature of the hash of the following values:        (pHash, amount, recipient, nHash), signed by the mintAuthority."
        }
      },
      "updateAsset(string)": {
        "params": {
          "nextAsset": "The new asset."
        }
      },
      "updatePreviousGateway(address)": {
        "params": {
          "newPreviousGateway": "The new gateway contract's address."
        }
      },
      "updateSignatureVerifier(address)": {
        "params": {
          "newSignatureVerifier": "The new verifier contract address."
        }
      },
      "updateToken(address)": {
        "params": {
          "newToken": "The new ERC20 token contract's address."
        }
      }
    },
    "version": 1
  },
  "userdoc": {
    "kind": "user",
    "methods": {
      "burn(bytes,uint256)": {
        "notice": "Same as `burn` with the recipient parameter being `bytes` instead of a `string`. For backwards compatibility with the MintGatewayV2."
      },
      "burn(string,uint256)": {
        "notice": "burn is a convenience function that is equivalent to calling         `burnWithPayload` with an empty payload and chain, releasing         the asset to the native chain."
      },
      "burnWithPayload(string,string,bytes,uint256)": {
        "notice": "burnWithPayload allows minted assets to be released to their         native chain, or to another chain as specified by the chain and         payload parameters.         WARNING: Burning with invalid parameters can cause the funds to         become unrecoverable."
      },
      "mint(bytes32,uint256,bytes32,bytes)": {
        "notice": "mint verifies a mint approval signature from RenVM and creates         tokens after taking a fee for the `_feeRecipient`."
      },
      "owner()": {
        "notice": "The Gateway is controlled by the owner of the SignatureVerifier. This allows for the owner of every Gateway to be updated with a single update to the SignatureVerifier contract."
      },
      "transferTokenOwnership(address)": {
        "notice": "Allow the owner to update the owner of the RenERC20 token."
      },
      "updateAsset(string)": {
        "notice": "Allow the owner to update the asset."
      },
      "updatePreviousGateway(address)": {
        "notice": "Allow the owner to update the previous gateway used for backwards compatibility."
      },
      "updateSignatureVerifier(address)": {
        "notice": "Allow the owner to update the signature verifier contract."
      },
      "updateToken(address)": {
        "notice": "Allow the owner to update the ERC20 token contract."
      }
    },
    "notice": "MintGateway handles verifying mint and burn requests. A mintAuthority approves new assets to be minted by providing a digital signature. An owner of an asset can request for it to be burnt.",
    "version": 1
  },
  "storageLayout": {
    "storage": [
      {
        "astId": 773,
        "contract": "src/Gateways/MintGateway.sol:MintGatewayV3",
        "label": "_initialized",
        "offset": 0,
        "slot": "0",
        "type": "t_bool"
      },
      {
        "astId": 776,
        "contract": "src/Gateways/MintGateway.sol:MintGatewayV3",
        "label": "_initializing",
        "offset": 1,
        "slot": "0",
        "type": "t_bool"
      },
      {
        "astId": 2463,
        "contract": "src/Gateways/MintGateway.sol:MintGatewayV3",
        "label": "__gap",
        "offset": 0,
        "slot": "1",
        "type": "t_array(t_uint256)50_storage"
      },
      {
        "astId": 11387,
        "contract": "src/Gateways/MintGateway.sol:MintGatewayV3",
        "label": "_asset",
        "offset": 0,
        "slot": "51",
        "type": "t_string_storage"
      },
      {
        "astId": 11389,
        "contract": "src/Gateways/MintGateway.sol:MintGatewayV3",
        "label": "_selectorHash",
        "offset": 0,
        "slot": "52",
        "type": "t_bytes32"
      },
      {
        "astId": 11394,
        "contract": "src/Gateways/MintGateway.sol:MintGatewayV3",
        "label": "_status",
        "offset": 0,
        "slot": "53",
        "type": "t_mapping(t_bytes32,t_bool)"
      },
      {
        "astId": 11397,
        "contract": "src/Gateways/MintGateway.sol:MintGatewayV3",
        "label": "_token",
        "offset": 0,
        "slot": "54",
        "type": "t_address"
      },
      {
        "astId": 11400,
        "contract": "src/Gateways/MintGateway.sol:MintGatewayV3",
        "label": "_signatureVerifier",
        "offset": 0,
        "slot": "55",
        "type": "t_contract(IRenVMSignatureVerifier)11174"
      },
      {
        "astId": 11402,
        "contract": "src/Gateways/MintGateway.sol:MintGatewayV3",
        "label": "_previousGateway",
        "offset": 0,
        "slot": "56",
        "type": "t_address"
      },
      {
        "astId": 11404,
        "contract": "src/Gateways/MintGateway.sol:MintGatewayV3",
        "label": "_eventNonce",
        "offset": 0,
        "slot": "57",
        "type": "t_uint256"
      },
      {
        "astId": 11408,
        "contract": "src/Gateways/MintGateway.sol:MintGatewayV3",
        "label": "__gap",
        "offset": 0,
        "slot": "58",
        "type": "t_array(t_uint256)43_storage"
      }
    ],
    "types": {
      "t_address": {
        "encoding": "inplace",
        "label": "address",
        "numberOfBytes": "20"
      },
      "t_array(t_uint256)43_storage": {
        "base": "t_uint256",
        "encoding": "inplace",
        "label": "uint256[43]",
        "numberOfBytes": "1376"
      },
      "t_array(t_uint256)50_storage": {
        "base": "t_uint256",
        "encoding": "inplace",
        "label": "uint256[50]",
        "numberOfBytes": "1600"
      },
      "t_bool": {
        "encoding": "inplace",
        "label": "bool",
        "numberOfBytes": "1"
      },
      "t_bytes32": {
        "encoding": "inplace",
        "label": "bytes32",
        "numberOfBytes": "32"
      },
      "t_contract(IRenVMSignatureVerifier)11174": {
        "encoding": "inplace",
        "label": "contract IRenVMSignatureVerifier",
        "numberOfBytes": "20"
      },
      "t_mapping(t_bytes32,t_bool)": {
        "encoding": "mapping",
        "key": "t_bytes32",
        "label": "mapping(bytes32 => bool)",
        "numberOfBytes": "32",
        "value": "t_bool"
      },
      "t_string_storage": {
        "encoding": "bytes",
        "label": "string",
        "numberOfBytes": "32"
      },
      "t_uint256": {
        "encoding": "inplace",
        "label": "uint256",
        "numberOfBytes": "32"
      }
    }
  }
}