{
  "address": "0xcb6bD6B6c7D7415C0157e393Bb2B6Def7555d518",
  "abi": [
    {
      "inputs": [
        {
          "internalType": "contract IGatewayRegistry",
          "name": "_registry",
          "type": "address"
        }
      ],
      "stateMutability": "nonpayable",
      "type": "constructor"
    },
    {
      "inputs": [],
      "name": "NAME",
      "outputs": [
        {
          "internalType": "string",
          "name": "",
          "type": "string"
        }
      ],
      "stateMutability": "view",
      "type": "function"
    },
    {
      "inputs": [
        {
          "internalType": "string",
          "name": "symbol",
          "type": "string"
        },
        {
          "internalType": "string",
          "name": "recipient",
          "type": "string"
        },
        {
          "internalType": "uint256",
          "name": "amount",
          "type": "uint256"
        }
      ],
      "name": "burn",
      "outputs": [],
      "stateMutability": "nonpayable",
      "type": "function"
    },
    {
      "inputs": [
        {
          "internalType": "string",
          "name": "symbol",
          "type": "string"
        },
        {
          "internalType": "string",
          "name": "recipientAddress",
          "type": "string"
        },
        {
          "internalType": "string",
          "name": "recipientChain",
          "type": "string"
        },
        {
          "internalType": "bytes",
          "name": "recipientPayload",
          "type": "bytes"
        },
        {
          "internalType": "uint256",
          "name": "amount",
          "type": "uint256"
        }
      ],
      "name": "lock",
      "outputs": [],
      "stateMutability": "nonpayable",
      "type": "function"
    },
    {
      "inputs": [
        {
          "internalType": "string",
          "name": "symbol",
          "type": "string"
        },
        {
          "internalType": "address",
          "name": "recipient",
          "type": "address"
        },
        {
          "internalType": "uint256",
          "name": "amount",
          "type": "uint256"
        },
        {
          "internalType": "bytes32",
          "name": "nHash",
          "type": "bytes32"
        },
        {
          "internalType": "bytes",
          "name": "sig",
          "type": "bytes"
        }
      ],
      "name": "mint",
      "outputs": [],
      "stateMutability": "nonpayable",
      "type": "function"
    },
    {
      "inputs": [],
      "name": "registry",
      "outputs": [
        {
          "internalType": "contract IGatewayRegistry",
          "name": "",
          "type": "address"
        }
      ],
      "stateMutability": "view",
      "type": "function"
    },
    {
      "inputs": [
        {
          "internalType": "string",
          "name": "symbol",
          "type": "string"
        },
        {
          "internalType": "address",
          "name": "recipient",
          "type": "address"
        },
        {
          "internalType": "uint256",
          "name": "amount",
          "type": "uint256"
        },
        {
          "internalType": "bytes32",
          "name": "nHash",
          "type": "bytes32"
        },
        {
          "internalType": "bytes",
          "name": "sig",
          "type": "bytes"
        }
      ],
      "name": "release",
      "outputs": [],
      "stateMutability": "nonpayable",
      "type": "function"
    }
  ],
  "transactionHash": "0x4fbee98f436709b09969f1c6ba31819b01dd254929fb2c72dced53465cd97925",
  "args": [
    "0x5076a1F237531fa4dC8ad99bb68024aB6e1Ff701"
  ],
  "solcInputHash": "66ae8ec2e3a53ed5763d125bba9ba96a",
  "bytecode": "0x608060405234801561001057600080fd5b506040516112ca3803806112ca83398101604081905261002f91610054565b600080546001600160a01b0319166001600160a01b0392909216919091179055610084565b60006020828403121561006657600080fd5b81516001600160a01b038116811461007d57600080fd5b9392505050565b611237806100936000396000f3fe608060405234801561001057600080fd5b50600436106100625760003560e01c806377f61403146100675780637b1039991461007c57806380a3c633146100ac578063a3f4df7e146100bf578063bc7fac7d146100f6578063cc3107a014610109575b600080fd5b61007a610075366004610e1a565b61011c565b005b60005461008f906001600160a01b031681565b6040516001600160a01b0390911681526020015b60405180910390f35b61007a6100ba366004610f7e565b610384565b6100e96040518060400160405280600b81526020016a426173696342726964676560a81b81525081565b6040516100a39190611164565b61007a610104366004610eb2565b610607565b61007a610117366004610e1a565b61081b565b60008054604051633ce39d3d60e11b81526001600160a01b03909116906379c73a7a9061014f908b908b906004016110af565b60206040518083038186803b15801561016757600080fd5b505afa15801561017b573d6000803e3d6000fd5b505050506040513d601f19601f8201168201806040525081019061019f9190610dfd565b60008054604051637b5c884f60e01b815292935090916001600160a01b0390911690637b5c884f906101d7908c908c906004016110af565b60206040518083038186803b1580156101ef57600080fd5b505afa158015610203573d6000803e3d6000fd5b505050506040513d601f19601f820116820180604052508101906102279190610dfd565b90506001600160a01b03821661027957888860405160200161024a929190611050565b60408051601f198184030181529082905262461bcd60e51b825261027091600401611164565b60405180910390fd5b6001600160a01b038116156102aa57888860405160200161029b929190611050565b60408051601f19818403019052525b60008989896040516020016102c1939291906110c3565b6040516020818303038152906040528051906020012090506000826001600160a01b031663159ab14d838a8a8a8a6040518663ffffffff1660e01b815260040161030f959493929190611089565b602060405180830381600087803b15801561032957600080fd5b505af115801561033d573d6000803e3d6000fd5b505050506040513d601f19601f820116820180604052508101906103619190610ff2565b90506103776001600160a01b0385168a836109df565b5050505050505050505050565b60008054604051633ce39d3d60e11b81526001600160a01b03909116906379c73a7a906103b790899089906004016110af565b60206040518083038186803b1580156103cf57600080fd5b505afa1580156103e3573d6000803e3d6000fd5b505050506040513d601f19601f820116820180604052508101906104079190610dfd565b60008054604051637b5c884f60e01b815292935090916001600160a01b0390911690637b5c884f9061043f908a908a906004016110af565b60206040518083038186803b15801561045757600080fd5b505afa15801561046b573d6000803e3d6000fd5b505050506040513d601f19601f8201168201806040525081019061048f9190610dfd565b90506001600160a01b0382166104b257868660405160200161024a929190611050565b6001600160a01b038116156104e35786866040516020016104d4929190611050565b60408051601f19818403019052525b6104fa335b6001600160a01b038416903086610a47565b600054604051637b5c884f60e01b81526001600160a01b0390911690637b5c884f9061052c908a908a906004016110af565b60206040518083038186803b15801561054457600080fd5b505afa158015610558573d6000803e3d6000fd5b505050506040513d601f19601f8201168201806040525081019061057c9190610dfd565b6001600160a01b031663b48272cc8686866040518463ffffffff1660e01b81526004016105ab93929190611140565b602060405180830381600087803b1580156105c557600080fd5b505af11580156105d9573d6000803e3d6000fd5b505050506040513d601f19601f820116820180604052508101906105fd9190610ff2565b5050505050505050565b6000805460405163138f137760e31b81526001600160a01b0390911690639c789bb89061063a908d908d906004016110af565b60206040518083038186803b15801561065257600080fd5b505afa158015610666573d6000803e3d6000fd5b505050506040513d601f19601f8201168201806040525081019061068a9190610dfd565b60008054604051633922d13960e01b815292935090916001600160a01b0390911690633922d139906106c2908e908e906004016110af565b60206040518083038186803b1580156106da57600080fd5b505afa1580156106ee573d6000803e3d6000fd5b505050506040513d601f19601f820116820180604052508101906107129190610dfd565b90506001600160a01b038216610735578a8a60405160200161024a929190611050565b6001600160a01b03811615610766578a8a604051602001610757929190611050565b60408051601f19818403019052525b61076f336104e8565b6107836001600160a01b0383168285610a85565b60405163654eca9960e11b81526001600160a01b0382169063ca9d9532906107bb908c908c908c908c908c908c908c906004016110ef565b602060405180830381600087803b1580156107d557600080fd5b505af11580156107e9573d6000803e3d6000fd5b505050506040513d601f19601f8201168201806040525081019061080d9190610ff2565b505050505050505050505050565b6000805460405163138f137760e31b81526001600160a01b0390911690639c789bb89061084e908b908b906004016110af565b60206040518083038186803b15801561086657600080fd5b505afa15801561087a573d6000803e3d6000fd5b505050506040513d601f19601f8201168201806040525081019061089e9190610dfd565b60008054604051633922d13960e01b815292935090916001600160a01b0390911690633922d139906108d6908c908c906004016110af565b60206040518083038186803b1580156108ee57600080fd5b505afa158015610902573d6000803e3d6000fd5b505050506040513d601f19601f820116820180604052508101906109269190610dfd565b90506001600160a01b03821661094957888860405160200161024a929190611050565b6001600160a01b0381161561097a57888860405160200161096b929190611050565b60408051601f19818403019052525b6000898989604051602001610991939291906110c3565b6040516020818303038152906040528051906020012090506000826001600160a01b0316639cffc715838a8a8a8a6040518663ffffffff1660e01b815260040161030f959493929190611089565b6040516001600160a01b038316602482015260448101829052610a4290849063a9059cbb60e01b906064015b60408051601f198184030181529190526020810180516001600160e01b03166001600160e01b031990931692909217909152610b46565b505050565b6040516001600160a01b0380851660248301528316604482015260648101829052610a7f9085906323b872dd60e01b90608401610a0b565b50505050565b604051636eb1769f60e11b81523060048201526001600160a01b038381166024830152600091839186169063dd62ed3e9060440160206040518083038186803b158015610ad157600080fd5b505afa158015610ae5573d6000803e3d6000fd5b505050506040513d601f19601f82011682018060405250810190610b099190610ff2565b610b139190611197565b6040516001600160a01b038516602482015260448101829052909150610a7f90859063095ea7b360e01b90606401610a0b565b6000610b9b826040518060400160405280602081526020017f5361666545524332303a206c6f772d6c6576656c2063616c6c206661696c6564815250856001600160a01b0316610c189092919063ffffffff16565b805190915015610a425780806020019051810190610bb99190610ddb565b610a425760405162461bcd60e51b815260206004820152602a60248201527f5361666545524332303a204552433230206f7065726174696f6e20646964206e6044820152691bdd081cdd58d8d9595960b21b6064820152608401610270565b6060610c278484600085610c31565b90505b9392505050565b606082471015610c925760405162461bcd60e51b815260206004820152602660248201527f416464726573733a20696e73756666696369656e742062616c616e636520666f6044820152651c8818d85b1b60d21b6064820152608401610270565b843b610ce05760405162461bcd60e51b815260206004820152601d60248201527f416464726573733a2063616c6c20746f206e6f6e2d636f6e74726163740000006044820152606401610270565b600080866001600160a01b03168587604051610cfc9190611034565b60006040518083038185875af1925050503d8060008114610d39576040519150601f19603f3d011682016040523d82523d6000602084013e610d3e565b606091505b5091509150610d4e828286610d59565b979650505050505050565b60608315610d68575081610c2a565b825115610d785782518084602001fd5b8160405162461bcd60e51b81526004016102709190611164565b60008083601f840112610da457600080fd5b50813567ffffffffffffffff811115610dbc57600080fd5b602083019150836020828501011115610dd457600080fd5b9250929050565b600060208284031215610ded57600080fd5b81518015158114610c2a57600080fd5b600060208284031215610e0f57600080fd5b8151610c2a816111e9565b600080600080600080600060a0888a031215610e3557600080fd5b873567ffffffffffffffff80821115610e4d57600080fd5b610e598b838c01610d92565b909950975060208a01359150610e6e826111e9565b909550604089013594506060890135935060808901359080821115610e9257600080fd5b50610e9f8a828b01610d92565b989b979a50959850939692959293505050565b600080600080600080600080600060a08a8c031215610ed057600080fd5b893567ffffffffffffffff80821115610ee857600080fd5b610ef48d838e01610d92565b909b50995060208c0135915080821115610f0d57600080fd5b610f198d838e01610d92565b909950975060408c0135915080821115610f3257600080fd5b610f3e8d838e01610d92565b909750955060608c0135915080821115610f5757600080fd5b50610f648c828d01610d92565b9a9d999c50979a9699959894979660800135949350505050565b600080600080600060608688031215610f9657600080fd5b853567ffffffffffffffff80821115610fae57600080fd5b610fba89838a01610d92565b90975095506020880135915080821115610fd357600080fd5b50610fe088828901610d92565b96999598509660400135949350505050565b60006020828403121561100457600080fd5b5051919050565b81835281816020850137506000828201602090810191909152601f909101601f19169091010190565b600082516110468184602087016111bd565b9190910192915050565b7f42617369634272696467653a20756e6b6e6f776e20617373657420000000000081528183601b83013760009101601b01908152919050565b858152846020820152836040820152608060608201526000610d4e60808301848661100b565b602081526000610c2760208301848661100b565b6040815260006110d760408301858761100b565b905060018060a01b0383166020830152949350505050565b60808152600061110360808301898b61100b565b828103602084015261111681888a61100b565b9050828103604084015261112b81868861100b565b91505082606083015298975050505050505050565b60408152600061115460408301858761100b565b9050826020830152949350505050565b60208152600082518060208401526111838160408501602087016111bd565b601f01601f19169190910160400192915050565b600082198211156111b857634e487b7160e01b600052601160045260246000fd5b500190565b60005b838110156111d85781810151838201526020016111c0565b83811115610a7f5750506000910152565b6001600160a01b03811681146111fe57600080fd5b5056fea2646970667358221220ca63ba88fb3f75b7d02c5eabc7bbefae8a646745ed4cfc9bd7611fea58835da664736f6c63430008070033",
  "devdoc": {
    "kind": "dev",
    "methods": {},
    "version": 1
  },
  "userdoc": {
    "kind": "user",
    "methods": {},
    "version": 1
  },
  "storageLayout": {
    "storage": [
      {
        "astId": 8297,
        "contract": "src/BasicBridge.sol:BasicBridge",
        "label": "registry",
        "offset": 0,
        "slot": "0",
        "type": "t_contract(IGatewayRegistry)10419"
      }
    ],
    "types": {
      "t_contract(IGatewayRegistry)10419": {
        "encoding": "inplace",
        "label": "contract IGatewayRegistry",
        "numberOfBytes": "20"
      }
    }
  }
}