{
  "address": "0x6b8D5Eb94d0ADa7e58d72234c75A4b1f151213eF",
  "abi": [
    {
      "inputs": [
        {
          "internalType": "address",
          "name": "implementation_",
          "type": "address"
        },
        {
          "internalType": "address",
          "name": "adminAddress_",
          "type": "address"
        }
      ],
      "stateMutability": "nonpayable",
      "type": "constructor"
    },
    {
      "anonymous": false,
      "inputs": [
        {
          "indexed": true,
          "internalType": "address",
          "name": "previousOwner",
          "type": "address"
        },
        {
          "indexed": true,
          "internalType": "address",
          "name": "newOwner",
          "type": "address"
        }
      ],
      "name": "OwnershipTransferred",
      "type": "event"
    },
    {
      "anonymous": false,
      "inputs": [
        {
          "indexed": true,
          "internalType": "bytes32",
          "name": "role",
          "type": "bytes32"
        },
        {
          "indexed": true,
          "internalType": "bytes32",
          "name": "previousAdminRole",
          "type": "bytes32"
        },
        {
          "indexed": true,
          "internalType": "bytes32",
          "name": "newAdminRole",
          "type": "bytes32"
        }
      ],
      "name": "RoleAdminChanged",
      "type": "event"
    },
    {
      "anonymous": false,
      "inputs": [
        {
          "indexed": true,
          "internalType": "bytes32",
          "name": "role",
          "type": "bytes32"
        },
        {
          "indexed": true,
          "internalType": "address",
          "name": "account",
          "type": "address"
        },
        {
          "indexed": true,
          "internalType": "address",
          "name": "sender",
          "type": "address"
        }
      ],
      "name": "RoleGranted",
      "type": "event"
    },
    {
      "anonymous": false,
      "inputs": [
        {
          "indexed": true,
          "internalType": "bytes32",
          "name": "role",
          "type": "bytes32"
        },
        {
          "indexed": true,
          "internalType": "address",
          "name": "account",
          "type": "address"
        },
        {
          "indexed": true,
          "internalType": "address",
          "name": "sender",
          "type": "address"
        }
      ],
      "name": "RoleRevoked",
      "type": "event"
    },
    {
      "anonymous": false,
      "inputs": [
        {
          "indexed": true,
          "internalType": "address",
          "name": "implementation",
          "type": "address"
        }
      ],
      "name": "Upgraded",
      "type": "event"
    },
    {
      "inputs": [],
      "name": "DEFAULT_ADMIN_ROLE",
      "outputs": [
        {
          "internalType": "bytes32",
          "name": "",
          "type": "bytes32"
        }
      ],
      "stateMutability": "view",
      "type": "function"
    },
    {
      "inputs": [],
      "name": "PROXY_DEPLOYER",
      "outputs": [
        {
          "internalType": "bytes32",
          "name": "",
          "type": "bytes32"
        }
      ],
      "stateMutability": "view",
      "type": "function"
    },
    {
      "inputs": [
        {
          "internalType": "bytes32",
          "name": "create2Salt",
          "type": "bytes32"
        },
        {
          "internalType": "bytes",
          "name": "encodedParameters",
          "type": "bytes"
        }
      ],
      "name": "deployProxy",
      "outputs": [
        {
          "internalType": "address",
          "name": "",
          "type": "address"
        }
      ],
      "stateMutability": "nonpayable",
      "type": "function"
    },
    {
      "inputs": [
        {
          "internalType": "bytes32",
          "name": "role",
          "type": "bytes32"
        }
      ],
      "name": "getRoleAdmin",
      "outputs": [
        {
          "internalType": "bytes32",
          "name": "",
          "type": "bytes32"
        }
      ],
      "stateMutability": "view",
      "type": "function"
    },
    {
      "inputs": [
        {
          "internalType": "bytes32",
          "name": "role",
          "type": "bytes32"
        },
        {
          "internalType": "address",
          "name": "account",
          "type": "address"
        }
      ],
      "name": "grantRole",
      "outputs": [],
      "stateMutability": "nonpayable",
      "type": "function"
    },
    {
      "inputs": [
        {
          "internalType": "bytes32",
          "name": "role",
          "type": "bytes32"
        },
        {
          "internalType": "address",
          "name": "account",
          "type": "address"
        }
      ],
      "name": "hasRole",
      "outputs": [
        {
          "internalType": "bool",
          "name": "",
          "type": "bool"
        }
      ],
      "stateMutability": "view",
      "type": "function"
    },
    {
      "inputs": [],
      "name": "implementation",
      "outputs": [
        {
          "internalType": "address",
          "name": "",
          "type": "address"
        }
      ],
      "stateMutability": "view",
      "type": "function"
    },
    {
      "inputs": [],
      "name": "owner",
      "outputs": [
        {
          "internalType": "address",
          "name": "",
          "type": "address"
        }
      ],
      "stateMutability": "view",
      "type": "function"
    },
    {
      "inputs": [],
      "name": "renounceOwnership",
      "outputs": [],
      "stateMutability": "nonpayable",
      "type": "function"
    },
    {
      "inputs": [
        {
          "internalType": "bytes32",
          "name": "role",
          "type": "bytes32"
        },
        {
          "internalType": "address",
          "name": "account",
          "type": "address"
        }
      ],
      "name": "renounceRole",
      "outputs": [],
      "stateMutability": "nonpayable",
      "type": "function"
    },
    {
      "inputs": [
        {
          "internalType": "bytes32",
          "name": "role",
          "type": "bytes32"
        },
        {
          "internalType": "address",
          "name": "account",
          "type": "address"
        }
      ],
      "name": "revokeRole",
      "outputs": [],
      "stateMutability": "nonpayable",
      "type": "function"
    },
    {
      "inputs": [
        {
          "internalType": "bytes4",
          "name": "interfaceId",
          "type": "bytes4"
        }
      ],
      "name": "supportsInterface",
      "outputs": [
        {
          "internalType": "bool",
          "name": "",
          "type": "bool"
        }
      ],
      "stateMutability": "view",
      "type": "function"
    },
    {
      "inputs": [
        {
          "internalType": "address",
          "name": "newOwner",
          "type": "address"
        }
      ],
      "name": "transferOwnership",
      "outputs": [],
      "stateMutability": "nonpayable",
      "type": "function"
    },
    {
      "inputs": [
        {
          "internalType": "address",
          "name": "newImplementation",
          "type": "address"
        }
      ],
      "name": "upgradeTo",
      "outputs": [],
      "stateMutability": "nonpayable",
      "type": "function"
    }
  ],
  "transactionHash": "0x95851c745c9c55017c3825cfa65ee94f1c3a91d94b415b44130f7eb1a50770e3",
  "args": [
    "0x0fC247b5Ba573f71e3530dB01E0456771e6593c6",
    "0xD5B5b26521665Cb37623DCA0E49c553b41dbF076"
  ],
  "solcInputHash": "cd16daf0061bcc045fc96aa81722133b",
  "bytecode": "0x60806040523480156200001157600080fd5b50604051620032d9380380620032d9833981810160405281019062000037919062000395565b8181816200005a6200004e6200009060201b60201c565b6200009860201b60201c565b6200006b816200015e60201b60201c565b50620000866000801b82620001fa60201b620009311760201c565b50505050620004d8565b600033905090565b6000600160009054906101000a900473ffffffffffffffffffffffffffffffffffffffff16905081600160006101000a81548173ffffffffffffffffffffffffffffffffffffffff021916908373ffffffffffffffffffffffffffffffffffffffff1602179055508173ffffffffffffffffffffffffffffffffffffffff168173ffffffffffffffffffffffffffffffffffffffff167f8be0079c531659141344cd1fd0a4f28419497f9722a3daafe3b4186f6b6457e060405160405180910390a35050565b62000174816200021060201b620009411760201c565b620001b6576040517f08c379a0000000000000000000000000000000000000000000000000000000008152600401620001ad9062000403565b60405180910390fd5b80600260006101000a81548173ffffffffffffffffffffffffffffffffffffffff021916908373ffffffffffffffffffffffffffffffffffffffff16021790555050565b6200020c82826200022360201b60201c565b5050565b600080823b905060008111915050919050565b6200023582826200031460201b60201c565b6200031057600160008084815260200190815260200160002060000160008373ffffffffffffffffffffffffffffffffffffffff1673ffffffffffffffffffffffffffffffffffffffff16815260200190815260200160002060006101000a81548160ff021916908315150217905550620002b56200009060201b60201c565b73ffffffffffffffffffffffffffffffffffffffff168173ffffffffffffffffffffffffffffffffffffffff16837f2f8788117e7eff1d82e926ec794901d17c78024a50270940304540a733656f0d60405160405180910390a45b5050565b600080600084815260200190815260200160002060000160008373ffffffffffffffffffffffffffffffffffffffff1673ffffffffffffffffffffffffffffffffffffffff16815260200190815260200160002060009054906101000a900460ff16905092915050565b6000815190506200038f81620004be565b92915050565b60008060408385031215620003af57620003ae6200046a565b5b6000620003bf858286016200037e565b9250506020620003d2858286016200037e565b9150509250929050565b6000620003eb60338362000425565b9150620003f8826200046f565b604082019050919050565b600060208201905081810360008301526200041e81620003dc565b9050919050565b600082825260208201905092915050565b600062000443826200044a565b9050919050565b600073ffffffffffffffffffffffffffffffffffffffff82169050919050565b600080fd5b7f5570677261646561626c65426561636f6e3a20696d706c656d656e746174696f60008201527f6e206973206e6f74206120636f6e747261637400000000000000000000000000602082015250565b620004c98162000436565b8114620004d557600080fd5b50565b612df180620004e86000396000f3fe60806040523480156200001157600080fd5b5060043610620001005760003560e01c80638da5cb5b1162000099578063a217fddf116200006f578063a217fddf1462000279578063d547741f146200029b578063ec54d72f14620002bb578063f2fde38b14620002f15762000100565b80638da5cb5b14620001ff57806391ac1cfa146200022157806391d1485414620002435762000100565b806336568abe11620000db57806336568abe14620001915780633659cfe614620001b15780635c60da1b14620001d1578063715018a614620001f35762000100565b806301ffc9a71462000105578063248a9ca3146200013b5780632f2ff15d1462000171575b600080fd5b6200012360048036038101906200011d9190620013a6565b62000311565b604051620001329190620016ea565b60405180910390f35b620001596004803603810190620001539190620012c3565b6200038e565b60405162000168919062001707565b60405180910390f35b6200018f6004803603810190620001899190620012f5565b620003ad565b005b620001af6004803603810190620001a99190620012f5565b620003de565b005b620001cf6004803603810190620001c9919062001291565b62000468565b005b620001db6200053c565b604051620001ea91906200169b565b60405180910390f35b620001fd62000566565b005b62000209620005f7565b6040516200021891906200169b565b60405180910390f35b6200022b62000621565b6040516200023a919062001707565b60405180910390f35b6200026160048036038101906200025b9190620012f5565b62000645565b604051620002709190620016ea565b60405180910390f35b62000283620006af565b60405162000292919062001707565b60405180910390f35b620002b96004803603810190620002b39190620012f5565b620006b6565b005b620002d96004803603810190620002d391906200133c565b620006e7565b604051620002e891906200169b565b60405180910390f35b6200030f600480360381019062000309919062001291565b6200082d565b005b60007f7965db0b000000000000000000000000000000000000000000000000000000007bffffffffffffffffffffffffffffffffffffffffffffffffffffffff1916827bffffffffffffffffffffffffffffffffffffffffffffffffffffffff19161480620003875750620003868262000954565b5b9050919050565b6000806000838152602001908152602001600020600101549050919050565b620003b8826200038e565b620003cd81620003c7620009be565b620009c6565b620003d9838362000a6e565b505050565b620003e8620009be565b73ffffffffffffffffffffffffffffffffffffffff168173ffffffffffffffffffffffffffffffffffffffff161462000458576040517f08c379a00000000000000000000000000000000000000000000000000000000081526004016200044f9062001814565b60405180910390fd5b62000464828262000b53565b5050565b62000472620009be565b73ffffffffffffffffffffffffffffffffffffffff1662000492620005f7565b73ffffffffffffffffffffffffffffffffffffffff1614620004eb576040517f08c379a0000000000000000000000000000000000000000000000000000000008152600401620004e290620017d0565b60405180910390fd5b620004f68162000c39565b8073ffffffffffffffffffffffffffffffffffffffff167fbc7cd75a20ee27fd9adebab32041f755214dbc6bffa90cc0225b39da2e5c2d3b60405160405180910390a250565b6000600260009054906101000a900473ffffffffffffffffffffffffffffffffffffffff16905090565b62000570620009be565b73ffffffffffffffffffffffffffffffffffffffff1662000590620005f7565b73ffffffffffffffffffffffffffffffffffffffff1614620005e9576040517f08c379a0000000000000000000000000000000000000000000000000000000008152600401620005e090620017d0565b60405180910390fd5b620005f5600062000cca565b565b6000600160009054906101000a900473ffffffffffffffffffffffffffffffffffffffff16905090565b7fe4b9bf66af7fd0bace973a56500c9576d96d5545b1e8bd5e6f9ce051f6b5142381565b600080600084815260200190815260200160002060000160008373ffffffffffffffffffffffffffffffffffffffff1673ffffffffffffffffffffffffffffffffffffffff16815260200190815260200160002060009054906101000a900460ff16905092915050565b6000801b81565b620006c1826200038e565b620006d681620006d0620009be565b620009c6565b620006e2838362000b53565b505050565b60007fe4b9bf66af7fd0bace973a56500c9576d96d5545b1e8bd5e6f9ce051f6b514236200071f8162000719620009be565b620009c6565b600085306040516200073190620011df565b6200073d9190620016b8565b8190604051809103906000f59050801580156200075e573d6000803e3d6000fd5b509050620007b18186868080601f016020809104026020016040519081016040528093929190818152602001838380828437600081840152601f19601f8201169050808301925050505050505062000d90565b508073ffffffffffffffffffffffffffffffffffffffff1663f2fde38b336040518263ffffffff1660e01b8152600401620007ed91906200169b565b600060405180830381600087803b1580156200080857600080fd5b505af11580156200081d573d6000803e3d6000fd5b5050505080925050509392505050565b62000837620009be565b73ffffffffffffffffffffffffffffffffffffffff1662000857620005f7565b73ffffffffffffffffffffffffffffffffffffffff1614620008b0576040517f08c379a0000000000000000000000000000000000000000000000000000000008152600401620008a790620017d0565b60405180910390fd5b600073ffffffffffffffffffffffffffffffffffffffff168173ffffffffffffffffffffffffffffffffffffffff16141562000923576040517f08c379a00000000000000000000000000000000000000000000000000000000081526004016200091a906200176a565b60405180910390fd5b6200092e8162000cca565b50565b6200093d828262000a6e565b5050565b600080823b905060008111915050919050565b60007f01ffc9a7000000000000000000000000000000000000000000000000000000007bffffffffffffffffffffffffffffffffffffffffffffffffffffffff1916827bffffffffffffffffffffffffffffffffffffffffffffffffffffffff1916149050919050565b600033905090565b620009d2828262000645565b62000a6a57620009fa8173ffffffffffffffffffffffffffffffffffffffff16601462000ddc565b62000a0a8360001c602062000ddc565b60405160200162000a1d92919062001659565b6040516020818303038152906040526040517f08c379a000000000000000000000000000000000000000000000000000000000815260040162000a61919062001724565b60405180910390fd5b5050565b62000a7a828262000645565b62000b4f57600160008084815260200190815260200160002060000160008373ffffffffffffffffffffffffffffffffffffffff1673ffffffffffffffffffffffffffffffffffffffff16815260200190815260200160002060006101000a81548160ff02191690831515021790555062000af4620009be565b73ffffffffffffffffffffffffffffffffffffffff168173ffffffffffffffffffffffffffffffffffffffff16837f2f8788117e7eff1d82e926ec794901d17c78024a50270940304540a733656f0d60405160405180910390a45b5050565b62000b5f828262000645565b1562000c3557600080600084815260200190815260200160002060000160008373ffffffffffffffffffffffffffffffffffffffff1673ffffffffffffffffffffffffffffffffffffffff16815260200190815260200160002060006101000a81548160ff02191690831515021790555062000bda620009be565b73ffffffffffffffffffffffffffffffffffffffff168173ffffffffffffffffffffffffffffffffffffffff16837ff6391f5c32d9c69d2a47ea670b442974b53935d1edc7fd64eb21e047a839171b60405160405180910390a45b5050565b62000c448162000941565b62000c86576040517f08c379a000000000000000000000000000000000000000000000000000000000815260040162000c7d90620017ae565b60405180910390fd5b80600260006101000a81548173ffffffffffffffffffffffffffffffffffffffff021916908373ffffffffffffffffffffffffffffffffffffffff16021790555050565b6000600160009054906101000a900473ffffffffffffffffffffffffffffffffffffffff16905081600160006101000a81548173ffffffffffffffffffffffffffffffffffffffff021916908373ffffffffffffffffffffffffffffffffffffffff1602179055508173ffffffffffffffffffffffffffffffffffffffff168173ffffffffffffffffffffffffffffffffffffffff167f8be0079c531659141344cd1fd0a4f28419497f9722a3daafe3b4186f6b6457e060405160405180910390a35050565b606062000dd483836040518060400160405280601e81526020017f416464726573733a206c6f772d6c6576656c2063616c6c206661696c6564000081525062001037565b905092915050565b60606000600283600262000df19190620018e1565b62000dfd919062001884565b67ffffffffffffffff81111562000e195762000e1862001a85565b5b6040519080825280601f01601f19166020018201604052801562000e4c5781602001600182028036833780820191505090505b5090507f30000000000000000000000000000000000000000000000000000000000000008160008151811062000e875762000e8662001a56565b5b60200101907effffffffffffffffffffffffffffffffffffffffffffffffffffffffffffff1916908160001a9053507f78000000000000000000000000000000000000000000000000000000000000008160018151811062000eee5762000eed62001a56565b5b60200101907effffffffffffffffffffffffffffffffffffffffffffffffffffffffffffff1916908160001a9053506000600184600262000f309190620018e1565b62000f3c919062001884565b90505b600181111562000fe6577f3031323334353637383961626364656600000000000000000000000000000000600f86166010811062000f825762000f8162001a56565b5b1a60f81b82828151811062000f9c5762000f9b62001a56565b5b60200101907effffffffffffffffffffffffffffffffffffffffffffffffffffffffffffff1916908160001a905350600485901c94508062000fde90620019f8565b905062000f3f565b50600084146200102d576040517f08c379a0000000000000000000000000000000000000000000000000000000008152600401620010249062001748565b60405180910390fd5b8091505092915050565b606062001048848460008562001051565b90509392505050565b60608247101562001099576040517f08c379a000000000000000000000000000000000000000000000000000000000815260040162001090906200178c565b60405180910390fd5b620010a48562000941565b620010e6576040517f08c379a0000000000000000000000000000000000000000000000000000000008152600401620010dd90620017f2565b60405180910390fd5b6000808673ffffffffffffffffffffffffffffffffffffffff16858760405162001111919062001640565b60006040518083038185875af1925050503d806000811462001150576040519150601f19603f3d011682016040523d82523d6000602084013e62001155565b606091505b50915091506200116782828662001173565b92505050949350505050565b606083156200118557829050620011d8565b600083511115620011995782518084602001fd5b816040517f08c379a0000000000000000000000000000000000000000000000000000000008152600401620011cf919062001724565b60405180910390fd5b9392505050565b6110838062001d3983390190565b600081359050620011fe8162001cea565b92915050565b600081359050620012158162001d04565b92915050565b6000813590506200122c8162001d1e565b92915050565b60008083601f8401126200124b576200124a62001ab9565b5b8235905067ffffffffffffffff8111156200126b576200126a62001ab4565b5b6020830191508360018202830111156200128a576200128962001abe565b5b9250929050565b600060208284031215620012aa57620012a962001ac8565b5b6000620012ba84828501620011ed565b91505092915050565b600060208284031215620012dc57620012db62001ac8565b5b6000620012ec8482850162001204565b91505092915050565b600080604083850312156200130f576200130e62001ac8565b5b60006200131f8582860162001204565b92505060206200133285828601620011ed565b9150509250929050565b60008060006040848603121562001358576200135762001ac8565b5b6000620013688682870162001204565b935050602084013567ffffffffffffffff8111156200138c576200138b62001ac3565b5b6200139a8682870162001232565b92509250509250925092565b600060208284031215620013bf57620013be62001ac8565b5b6000620013cf848285016200121b565b91505092915050565b620013e38162001942565b82525050565b620013f48162001956565b82525050565b620014058162001962565b82525050565b6000620014188262001836565b6200142481856200185d565b935062001436818560208601620019c2565b80840191505092915050565b60006200144f8262001841565b6200145b818562001868565b93506200146d818560208601620019c2565b620014788162001acd565b840191505092915050565b6000620014908262001841565b6200149c818562001879565b9350620014ae818560208601620019c2565b80840191505092915050565b6000620014c960208362001868565b9150620014d68262001ade565b602082019050919050565b6000620014f060268362001868565b9150620014fd8262001b07565b604082019050919050565b60006200151760268362001868565b9150620015248262001b56565b604082019050919050565b60006200153e60338362001868565b91506200154b8262001ba5565b604082019050919050565b60006200156560208362001868565b9150620015728262001bf4565b602082019050919050565b60006200158c6000836200184c565b9150620015998262001c1d565b600082019050919050565b6000620015b3601d8362001868565b9150620015c08262001c20565b602082019050919050565b6000620015da60178362001879565b9150620015e78262001c49565b601782019050919050565b60006200160160118362001879565b91506200160e8262001c72565b601182019050919050565b600062001628602f8362001868565b9150620016358262001c9b565b604082019050919050565b60006200164e82846200140b565b915081905092915050565b60006200166682620015cb565b915062001674828562001483565b91506200168182620015f2565b91506200168f828462001483565b91508190509392505050565b6000602082019050620016b26000830184620013d8565b92915050565b6000604082019050620016cf6000830184620013d8565b8181036020830152620016e2816200157d565b905092915050565b6000602082019050620017016000830184620013e9565b92915050565b60006020820190506200171e6000830184620013fa565b92915050565b6000602082019050818103600083015262001740818462001442565b905092915050565b600060208201905081810360008301526200176381620014ba565b9050919050565b600060208201905081810360008301526200178581620014e1565b9050919050565b60006020820190508181036000830152620017a78162001508565b9050919050565b60006020820190508181036000830152620017c9816200152f565b9050919050565b60006020820190508181036000830152620017eb8162001556565b9050919050565b600060208201905081810360008301526200180d81620015a4565b9050919050565b600060208201905081810360008301526200182f8162001619565b9050919050565b600081519050919050565b600081519050919050565b600082825260208201905092915050565b600081905092915050565b600082825260208201905092915050565b600081905092915050565b60006200189182620019b8565b91506200189e83620019b8565b9250827fffffffffffffffffffffffffffffffffffffffffffffffffffffffffffffffff03821115620018d657620018d562001a27565b5b828201905092915050565b6000620018ee82620019b8565b9150620018fb83620019b8565b9250817fffffffffffffffffffffffffffffffffffffffffffffffffffffffffffffffff048311821515161562001937576200193662001a27565b5b828202905092915050565b60006200194f8262001998565b9050919050565b60008115159050919050565b6000819050919050565b60007fffffffff0000000000000000000000000000000000000000000000000000000082169050919050565b600073ffffffffffffffffffffffffffffffffffffffff82169050919050565b6000819050919050565b60005b83811015620019e2578082015181840152602081019050620019c5565b83811115620019f2576000848401525b50505050565b600062001a0582620019b8565b9150600082141562001a1c5762001a1b62001a27565b5b600182039050919050565b7f4e487b7100000000000000000000000000000000000000000000000000000000600052601160045260246000fd5b7f4e487b7100000000000000000000000000000000000000000000000000000000600052603260045260246000fd5b7f4e487b7100000000000000000000000000000000000000000000000000000000600052604160045260246000fd5b600080fd5b600080fd5b600080fd5b600080fd5b600080fd5b6000601f19601f8301169050919050565b7f537472696e67733a20686578206c656e67746820696e73756666696369656e74600082015250565b7f4f776e61626c653a206e6577206f776e657220697320746865207a65726f206160008201527f6464726573730000000000000000000000000000000000000000000000000000602082015250565b7f416464726573733a20696e73756666696369656e742062616c616e636520666f60008201527f722063616c6c0000000000000000000000000000000000000000000000000000602082015250565b7f5570677261646561626c65426561636f6e3a20696d706c656d656e746174696f60008201527f6e206973206e6f74206120636f6e747261637400000000000000000000000000602082015250565b7f4f776e61626c653a2063616c6c6572206973206e6f7420746865206f776e6572600082015250565b50565b7f416464726573733a2063616c6c20746f206e6f6e2d636f6e7472616374000000600082015250565b7f416363657373436f6e74726f6c3a206163636f756e7420000000000000000000600082015250565b7f206973206d697373696e6720726f6c6520000000000000000000000000000000600082015250565b7f416363657373436f6e74726f6c3a2063616e206f6e6c792072656e6f756e636560008201527f20726f6c657320666f722073656c660000000000000000000000000000000000602082015250565b62001cf58162001942565b811462001d0157600080fd5b50565b62001d0f8162001962565b811462001d1b57600080fd5b50565b62001d29816200196c565b811462001d3557600080fd5b5056fe608060405260405162001083380380620010838339818101604052810190620000299190620005cf565b60017fa3f0ad74e5423aebfd80d3ef4346578335a9a72aeaee59ff6cb3582b35133d5160001c6200005b919062000856565b60001b7fa3f0ad74e5423aebfd80d3ef4346578335a9a72aeaee59ff6cb3582b35133d5060001b146200009357620000926200093b565b5b620000a782826000620000af60201b60201c565b505062000af4565b620000c083620001b660201b60201c565b8273ffffffffffffffffffffffffffffffffffffffff167f1cf3b03a6cf19fa2baba4df148e9dcabedea7f8a5c07840e207e5c089be95d3e60405160405180910390a2600082511180620001115750805b15620001b157620001af8373ffffffffffffffffffffffffffffffffffffffff16635c60da1b6040518163ffffffff1660e01b815260040160206040518083038186803b1580156200016257600080fd5b505afa15801562000177573d6000803e3d6000fd5b505050506040513d601f19601f820116820180604052508101906200019d91906200059d565b836200036560201b620000371760201c565b505b505050565b620001cc816200039b60201b620000641760201c565b6200020e576040517f08c379a000000000000000000000000000000000000000000000000000000000815260040162000205906200075f565b60405180910390fd5b620002a58173ffffffffffffffffffffffffffffffffffffffff16635c60da1b6040518163ffffffff1660e01b815260040160206040518083038186803b1580156200025957600080fd5b505afa1580156200026e573d6000803e3d6000fd5b505050506040513d601f19601f820116820180604052508101906200029491906200059d565b6200039b60201b620000641760201c565b620002e7576040517f08c379a0000000000000000000000000000000000000000000000000000000008152600401620002de90620007a3565b60405180910390fd5b80620003217fa3f0ad74e5423aebfd80d3ef4346578335a9a72aeaee59ff6cb3582b35133d5060001b620003ae60201b620000771760201c565b60000160006101000a81548173ffffffffffffffffffffffffffffffffffffffff021916908373ffffffffffffffffffffffffffffffffffffffff16021790555050565b60606200039383836040518060600160405280602781526020016200105c60279139620003b860201b60201c565b905092915050565b600080823b905060008111915050919050565b6000819050919050565b6060620003cb846200039b60201b60201c565b6200040d576040517f08c379a0000000000000000000000000000000000000000000000000000000008152600401620004049062000781565b60405180910390fd5b6000808573ffffffffffffffffffffffffffffffffffffffff168560405162000437919062000722565b600060405180830381855af49150503d806000811462000474576040519150601f19603f3d011682016040523d82523d6000602084013e62000479565b606091505b5091509150620004918282866200049c60201b60201c565b925050509392505050565b60608315620004ae5782905062000501565b600083511115620004c25782518084602001fd5b816040517f08c379a0000000000000000000000000000000000000000000000000000000008152600401620004f891906200073b565b60405180910390fd5b9392505050565b60006200051f6200051984620007ee565b620007c5565b9050828152602081018484840111156200053e576200053d620009cd565b5b6200054b848285620008cf565b509392505050565b600081519050620005648162000ada565b92915050565b600082601f830112620005825762000581620009c8565b5b81516200059484826020860162000508565b91505092915050565b600060208284031215620005b657620005b5620009d7565b5b6000620005c68482850162000553565b91505092915050565b60008060408385031215620005e957620005e8620009d7565b5b6000620005f98582860162000553565b925050602083015167ffffffffffffffff8111156200061d576200061c620009d2565b5b6200062b858286016200056a565b9150509250929050565b6000620006428262000824565b6200064e81856200083a565b935062000660818560208601620008cf565b80840191505092915050565b600062000679826200082f565b62000685818562000845565b935062000697818560208601620008cf565b620006a281620009dc565b840191505092915050565b6000620006bc60258362000845565b9150620006c982620009ed565b604082019050919050565b6000620006e360268362000845565b9150620006f08262000a3c565b604082019050919050565b60006200070a60308362000845565b9150620007178262000a8b565b604082019050919050565b600062000730828462000635565b915081905092915050565b600060208201905081810360008301526200075781846200066c565b905092915050565b600060208201905081810360008301526200077a81620006ad565b9050919050565b600060208201905081810360008301526200079c81620006d4565b9050919050565b60006020820190508181036000830152620007be81620006fb565b9050919050565b6000620007d1620007e4565b9050620007df828262000905565b919050565b6000604051905090565b600067ffffffffffffffff8211156200080c576200080b62000999565b5b6200081782620009dc565b9050602081019050919050565b600081519050919050565b600081519050919050565b600081905092915050565b600082825260208201905092915050565b60006200086382620008c5565b91506200087083620008c5565b9250828210156200088657620008856200096a565b5b828203905092915050565b60006200089e82620008a5565b9050919050565b600073ffffffffffffffffffffffffffffffffffffffff82169050919050565b6000819050919050565b60005b83811015620008ef578082015181840152602081019050620008d2565b83811115620008ff576000848401525b50505050565b6200091082620009dc565b810181811067ffffffffffffffff8211171562000932576200093162000999565b5b80604052505050565b7f4e487b7100000000000000000000000000000000000000000000000000000000600052600160045260246000fd5b7f4e487b7100000000000000000000000000000000000000000000000000000000600052601160045260246000fd5b7f4e487b7100000000000000000000000000000000000000000000000000000000600052604160045260246000fd5b600080fd5b600080fd5b600080fd5b600080fd5b6000601f19601f8301169050919050565b7f455243313936373a206e657720626561636f6e206973206e6f74206120636f6e60008201527f7472616374000000000000000000000000000000000000000000000000000000602082015250565b7f416464726573733a2064656c65676174652063616c6c20746f206e6f6e2d636f60008201527f6e74726163740000000000000000000000000000000000000000000000000000602082015250565b7f455243313936373a20626561636f6e20696d706c656d656e746174696f6e206960008201527f73206e6f74206120636f6e747261637400000000000000000000000000000000602082015250565b62000ae58162000891565b811462000af157600080fd5b50565b6105588062000b046000396000f3fe6080604052366100135761001161001d565b005b61001b61001d565b005b610025610081565b610035610030610083565b61010f565b565b606061005c83836040518060600160405280602781526020016104fc60279139610135565b905092915050565b600080823b905060008111915050919050565b6000819050919050565b565b600061008d610202565b73ffffffffffffffffffffffffffffffffffffffff16635c60da1b6040518163ffffffff1660e01b815260040160206040518083038186803b1580156100d257600080fd5b505afa1580156100e6573d6000803e3d6000fd5b505050506040513d601f19601f8201168201806040525081019061010a91906102d5565b905090565b3660008037600080366000845af43d6000803e8060008114610130573d6000f35b3d6000fd5b606061014084610064565b61017f576040517f08c379a0000000000000000000000000000000000000000000000000000000008152600401610176906103c8565b60405180910390fd5b6000808573ffffffffffffffffffffffffffffffffffffffff16856040516101a7919061038f565b600060405180830381855af49150503d80600081146101e2576040519150601f19603f3d011682016040523d82523d6000602084013e6101e7565b606091505b50915091506101f7828286610259565b925050509392505050565b60006102307fa3f0ad74e5423aebfd80d3ef4346578335a9a72aeaee59ff6cb3582b35133d5060001b610077565b60000160009054906101000a900473ffffffffffffffffffffffffffffffffffffffff16905090565b60608315610269578290506102b9565b60008351111561027c5782518084602001fd5b816040517f08c379a00000000000000000000000000000000000000000000000000000000081526004016102b091906103a6565b60405180910390fd5b9392505050565b6000815190506102cf816104e4565b92915050565b6000602082840312156102eb576102ea61047f565b5b60006102f9848285016102c0565b91505092915050565b600061030d826103e8565b61031781856103fe565b935061032781856020860161044c565b80840191505092915050565b600061033e826103f3565b6103488185610409565b935061035881856020860161044c565b61036181610484565b840191505092915050565b6000610379602683610409565b915061038482610495565b604082019050919050565b600061039b8284610302565b915081905092915050565b600060208201905081810360008301526103c08184610333565b905092915050565b600060208201905081810360008301526103e18161036c565b9050919050565b600081519050919050565b600081519050919050565b600081905092915050565b600082825260208201905092915050565b60006104258261042c565b9050919050565b600073ffffffffffffffffffffffffffffffffffffffff82169050919050565b60005b8381101561046a57808201518184015260208101905061044f565b83811115610479576000848401525b50505050565b600080fd5b6000601f19601f8301169050919050565b7f416464726573733a2064656c65676174652063616c6c20746f206e6f6e2d636f60008201527f6e74726163740000000000000000000000000000000000000000000000000000602082015250565b6104ed8161041a565b81146104f857600080fd5b5056fe416464726573733a206c6f772d6c6576656c2064656c65676174652063616c6c206661696c6564a264697066735822122007dbc3b47ace2288d356097e94d945f471efd040dbcddd1b587b39659424fd5064736f6c63430008070033416464726573733a206c6f772d6c6576656c2064656c65676174652063616c6c206661696c6564a2646970667358221220cd2ab4e917249b276d9d6799a4e164d4114a76b67a6dd97601cd56f80dab47b664736f6c63430008070033",
  "devdoc": {
    "kind": "dev",
    "methods": {
      "getRoleAdmin(bytes32)": {
        "details": "Returns the admin role that controls `role`. See {grantRole} and {revokeRole}. To change a role's admin, use {_setRoleAdmin}."
      },
      "grantRole(bytes32,address)": {
        "details": "Grants `role` to `account`. If `account` had not been already granted `role`, emits a {RoleGranted} event. Requirements: - the caller must have ``role``'s admin role."
      },
      "hasRole(bytes32,address)": {
        "details": "Returns `true` if `account` has been granted `role`."
      },
      "implementation()": {
        "details": "Returns the current implementation address."
      },
      "owner()": {
        "details": "Returns the address of the current owner."
      },
      "renounceOwnership()": {
        "details": "Leaves the contract without owner. It will not be possible to call `onlyOwner` functions anymore. Can only be called by the current owner. NOTE: Renouncing ownership will leave the contract without an owner, thereby removing any functionality that is only available to the owner."
      },
      "renounceRole(bytes32,address)": {
        "details": "Revokes `role` from the calling account. Roles are often managed via {grantRole} and {revokeRole}: this function's purpose is to provide a mechanism for accounts to lose their privileges if they are compromised (such as when a trusted device is misplaced). If the calling account had been granted `role`, emits a {RoleRevoked} event. Requirements: - the caller must be `account`."
      },
      "revokeRole(bytes32,address)": {
        "details": "Revokes `role` from `account`. If `account` had been granted `role`, emits a {RoleRevoked} event. Requirements: - the caller must have ``role``'s admin role."
      },
      "supportsInterface(bytes4)": {
        "details": "See {IERC165-supportsInterface}."
      },
      "transferOwnership(address)": {
        "details": "Transfers ownership of the contract to a new account (`newOwner`). Can only be called by the current owner."
      },
      "upgradeTo(address)": {
        "details": "Upgrades the beacon to a new implementation. Emits an {Upgraded} event. Requirements: - msg.sender must be the owner of the contract. - `newImplementation` must be a contract."
      }
    },
    "version": 1
  },
  "userdoc": {
    "kind": "user",
    "methods": {},
    "version": 1
  },
  "storageLayout": {
    "storage": [
      {
        "astId": 2880,
        "contract": "src/GatewayRegistry/ProxyBeacon.sol:RenAssetProxyBeaconV1",
        "label": "_roles",
        "offset": 0,
        "slot": "0",
        "type": "t_mapping(t_bytes32,t_struct(RoleData)2875_storage)"
      },
      {
        "astId": 3243,
        "contract": "src/GatewayRegistry/ProxyBeacon.sol:RenAssetProxyBeaconV1",
        "label": "_owner",
        "offset": 0,
        "slot": "1",
        "type": "t_address"
      },
      {
        "astId": 3897,
        "contract": "src/GatewayRegistry/ProxyBeacon.sol:RenAssetProxyBeaconV1",
        "label": "_implementation",
        "offset": 0,
        "slot": "2",
        "type": "t_address"
      }
    ],
    "types": {
      "t_address": {
        "encoding": "inplace",
        "label": "address",
        "numberOfBytes": "20"
      },
      "t_bool": {
        "encoding": "inplace",
        "label": "bool",
        "numberOfBytes": "1"
      },
      "t_bytes32": {
        "encoding": "inplace",
        "label": "bytes32",
        "numberOfBytes": "32"
      },
      "t_mapping(t_address,t_bool)": {
        "encoding": "mapping",
        "key": "t_address",
        "label": "mapping(address => bool)",
        "numberOfBytes": "32",
        "value": "t_bool"
      },
      "t_mapping(t_bytes32,t_struct(RoleData)2875_storage)": {
        "encoding": "mapping",
        "key": "t_bytes32",
        "label": "mapping(bytes32 => struct AccessControl.RoleData)",
        "numberOfBytes": "32",
        "value": "t_struct(RoleData)2875_storage"
      },
      "t_struct(RoleData)2875_storage": {
        "encoding": "inplace",
        "label": "struct AccessControl.RoleData",
        "members": [
          {
            "astId": 2872,
            "contract": "src/GatewayRegistry/ProxyBeacon.sol:RenAssetProxyBeaconV1",
            "label": "members",
            "offset": 0,
            "slot": "0",
            "type": "t_mapping(t_address,t_bool)"
          },
          {
            "astId": 2874,
            "contract": "src/GatewayRegistry/ProxyBeacon.sol:RenAssetProxyBeaconV1",
            "label": "adminRole",
            "offset": 0,
            "slot": "1",
            "type": "t_bytes32"
          }
        ],
        "numberOfBytes": "64"
      }
    }
  }
}