{
  "address": "0x2c95013e6F3396b27B97d310B2267AD79c3C9941",
  "abi": [
    {
      "anonymous": false,
      "inputs": [
        {
          "indexed": false,
          "internalType": "string",
          "name": "symbol",
          "type": "string"
        },
        {
          "indexed": true,
          "internalType": "string",
          "name": "indexedSymbol",
          "type": "string"
        }
      ],
      "name": "LogLockGatewayDeleted",
      "type": "event"
    },
    {
      "anonymous": false,
      "inputs": [
        {
          "indexed": false,
          "internalType": "string",
          "name": "symbol",
          "type": "string"
        },
        {
          "indexed": true,
          "internalType": "string",
          "name": "indexedSymbol",
          "type": "string"
        },
        {
          "indexed": true,
          "internalType": "address",
          "name": "token",
          "type": "address"
        },
        {
          "indexed": true,
          "internalType": "address",
          "name": "gatewayContract",
          "type": "address"
        }
      ],
      "name": "LogLockGatewayUpdated",
      "type": "event"
    },
    {
      "anonymous": false,
      "inputs": [
        {
          "indexed": false,
          "internalType": "string",
          "name": "symbol",
          "type": "string"
        },
        {
          "indexed": true,
          "internalType": "string",
          "name": "indexedSymbol",
          "type": "string"
        }
      ],
      "name": "LogMintGatewayDeleted",
      "type": "event"
    },
    {
      "anonymous": false,
      "inputs": [
        {
          "indexed": false,
          "internalType": "string",
          "name": "symbol",
          "type": "string"
        },
        {
          "indexed": true,
          "internalType": "string",
          "name": "indexedSymbol",
          "type": "string"
        },
        {
          "indexed": true,
          "internalType": "address",
          "name": "token",
          "type": "address"
        },
        {
          "indexed": true,
          "internalType": "address",
          "name": "gatewayContract",
          "type": "address"
        }
      ],
      "name": "LogMintGatewayUpdated",
      "type": "event"
    },
    {
      "anonymous": false,
      "inputs": [
        {
          "indexed": true,
          "internalType": "address",
          "name": "newSignatureVerifier",
          "type": "address"
        }
      ],
      "name": "LogSignatureVerifierUpdated",
      "type": "event"
    },
    {
      "anonymous": false,
      "inputs": [
        {
          "indexed": true,
          "internalType": "bytes32",
          "name": "role",
          "type": "bytes32"
        },
        {
          "indexed": true,
          "internalType": "bytes32",
          "name": "previousAdminRole",
          "type": "bytes32"
        },
        {
          "indexed": true,
          "internalType": "bytes32",
          "name": "newAdminRole",
          "type": "bytes32"
        }
      ],
      "name": "RoleAdminChanged",
      "type": "event"
    },
    {
      "anonymous": false,
      "inputs": [
        {
          "indexed": true,
          "internalType": "bytes32",
          "name": "role",
          "type": "bytes32"
        },
        {
          "indexed": true,
          "internalType": "address",
          "name": "account",
          "type": "address"
        },
        {
          "indexed": true,
          "internalType": "address",
          "name": "sender",
          "type": "address"
        }
      ],
      "name": "RoleGranted",
      "type": "event"
    },
    {
      "anonymous": false,
      "inputs": [
        {
          "indexed": true,
          "internalType": "bytes32",
          "name": "role",
          "type": "bytes32"
        },
        {
          "indexed": true,
          "internalType": "address",
          "name": "account",
          "type": "address"
        },
        {
          "indexed": true,
          "internalType": "address",
          "name": "sender",
          "type": "address"
        }
      ],
      "name": "RoleRevoked",
      "type": "event"
    },
    {
      "inputs": [],
      "name": "CAN_ADD_GATEWAYS",
      "outputs": [
        {
          "internalType": "bytes32",
          "name": "",
          "type": "bytes32"
        }
      ],
      "stateMutability": "view",
      "type": "function"
    },
    {
      "inputs": [],
      "name": "CAN_UPDATE_GATEWAYS",
      "outputs": [
        {
          "internalType": "bytes32",
          "name": "",
          "type": "bytes32"
        }
      ],
      "stateMutability": "view",
      "type": "function"
    },
    {
      "inputs": [],
      "name": "DEFAULT_ADMIN_ROLE",
      "outputs": [
        {
          "internalType": "bytes32",
          "name": "",
          "type": "bytes32"
        }
      ],
      "stateMutability": "view",
      "type": "function"
    },
    {
      "inputs": [
        {
          "internalType": "string",
          "name": "chainName_",
          "type": "string"
        },
        {
          "internalType": "uint256",
          "name": "chainId_",
          "type": "uint256"
        },
        {
          "internalType": "address",
          "name": "renAssetProxyBeacon_",
          "type": "address"
        },
        {
          "internalType": "address",
          "name": "mintGatewayProxyBeacon_",
          "type": "address"
        },
        {
          "internalType": "address",
          "name": "lockGatewayProxyBeacon_",
          "type": "address"
        },
        {
          "internalType": "address",
          "name": "adminAddress",
          "type": "address"
        }
      ],
      "name": "__GatewayRegistry_init",
      "outputs": [],
      "stateMutability": "nonpayable",
      "type": "function"
    },
    {
      "inputs": [
        {
          "internalType": "address",
          "name": "renAssetProxyBeacon_",
          "type": "address"
        },
        {
          "internalType": "address",
          "name": "mintGatewayProxyBeacon_",
          "type": "address"
        },
        {
          "internalType": "address",
          "name": "lockGatewayProxyBeacon_",
          "type": "address"
        }
      ],
      "name": "__RenAssetFactory_init",
      "outputs": [],
      "stateMutability": "nonpayable",
      "type": "function"
    },
    {
      "inputs": [
        {
          "internalType": "string",
          "name": "symbol",
          "type": "string"
        },
        {
          "internalType": "address",
          "name": "lockAsset",
          "type": "address"
        },
        {
          "internalType": "address",
          "name": "lockGateway",
          "type": "address"
        }
      ],
      "name": "addLockGateway",
      "outputs": [],
      "stateMutability": "nonpayable",
      "type": "function"
    },
    {
      "inputs": [
        {
          "internalType": "string",
          "name": "symbol",
          "type": "string"
        },
        {
          "internalType": "address",
          "name": "renAsset",
          "type": "address"
        },
        {
          "internalType": "address",
          "name": "mintGateway",
          "type": "address"
        }
      ],
      "name": "addMintGateway",
      "outputs": [],
      "stateMutability": "nonpayable",
      "type": "function"
    },
    {
      "inputs": [],
      "name": "chainId",
      "outputs": [
        {
          "internalType": "uint256",
          "name": "",
          "type": "uint256"
        }
      ],
      "stateMutability": "view",
      "type": "function"
    },
    {
      "inputs": [],
      "name": "chainName",
      "outputs": [
        {
          "internalType": "string",
          "name": "",
          "type": "string"
        }
      ],
      "stateMutability": "view",
      "type": "function"
    },
    {
      "inputs": [
        {
          "internalType": "string",
          "name": "symbol",
          "type": "string"
        },
        {
          "internalType": "address",
          "name": "lockToken",
          "type": "address"
        },
        {
          "internalType": "string",
          "name": "version",
          "type": "string"
        }
      ],
      "name": "deployLockGateway",
      "outputs": [],
      "stateMutability": "nonpayable",
      "type": "function"
    },
    {
      "inputs": [
        {
          "internalType": "string",
          "name": "symbol",
          "type": "string"
        },
        {
          "internalType": "address",
          "name": "renAsset",
          "type": "address"
        },
        {
          "internalType": "string",
          "name": "version",
          "type": "string"
        }
      ],
      "name": "deployMintGateway",
      "outputs": [],
      "stateMutability": "nonpayable",
      "type": "function"
    },
    {
      "inputs": [
        {
          "internalType": "string",
          "name": "symbol",
          "type": "string"
        },
        {
          "internalType": "string",
          "name": "erc20Name",
          "type": "string"
        },
        {
          "internalType": "string",
          "name": "erc20Symbol",
          "type": "string"
        },
        {
          "internalType": "uint8",
          "name": "erc20Decimals",
          "type": "uint8"
        },
        {
          "internalType": "string",
          "name": "version",
          "type": "string"
        }
      ],
      "name": "deployMintGatewayAndRenAsset",
      "outputs": [],
      "stateMutability": "nonpayable",
      "type": "function"
    },
    {
      "inputs": [
        {
          "internalType": "string",
          "name": "tokenSymbol",
          "type": "string"
        }
      ],
      "name": "getGatewayBySymbol",
      "outputs": [
        {
          "internalType": "contract IMintGateway",
          "name": "",
          "type": "address"
        }
      ],
      "stateMutability": "view",
      "type": "function"
    },
    {
      "inputs": [
        {
          "internalType": "address",
          "name": "token",
          "type": "address"
        }
      ],
      "name": "getGatewayByToken",
      "outputs": [
        {
          "internalType": "contract IMintGateway",
          "name": "",
          "type": "address"
        }
      ],
      "stateMutability": "view",
      "type": "function"
    },
    {
      "inputs": [
        {
          "internalType": "string",
          "name": "tokenSymbol",
          "type": "string"
        }
      ],
      "name": "getLockAssetBySymbol",
      "outputs": [
        {
          "internalType": "contract IERC20",
          "name": "",
          "type": "address"
        }
      ],
      "stateMutability": "view",
      "type": "function"
    },
    {
      "inputs": [
        {
          "internalType": "string",
          "name": "tokenSymbol",
          "type": "string"
        }
      ],
      "name": "getLockGatewayBySymbol",
      "outputs": [
        {
          "internalType": "contract ILockGateway",
          "name": "",
          "type": "address"
        }
      ],
      "stateMutability": "view",
      "type": "function"
    },
    {
      "inputs": [
        {
          "internalType": "address",
          "name": "token_",
          "type": "address"
        }
      ],
      "name": "getLockGatewayByToken",
      "outputs": [
        {
          "internalType": "contract ILockGateway",
          "name": "",
          "type": "address"
        }
      ],
      "stateMutability": "view",
      "type": "function"
    },
    {
      "inputs": [
        {
          "internalType": "uint256",
          "name": "from",
          "type": "uint256"
        },
        {
          "internalType": "uint256",
          "name": "count",
          "type": "uint256"
        }
      ],
      "name": "getLockGatewaySymbols",
      "outputs": [
        {
          "internalType": "string[]",
          "name": "",
          "type": "string[]"
        }
      ],
      "stateMutability": "view",
      "type": "function"
    },
    {
      "inputs": [
        {
          "internalType": "string",
          "name": "tokenSymbol",
          "type": "string"
        }
      ],
      "name": "getMintGatewayBySymbol",
      "outputs": [
        {
          "internalType": "contract IMintGateway",
          "name": "",
          "type": "address"
        }
      ],
      "stateMutability": "view",
      "type": "function"
    },
    {
      "inputs": [
        {
          "internalType": "address",
          "name": "token",
          "type": "address"
        }
      ],
      "name": "getMintGatewayByToken",
      "outputs": [
        {
          "internalType": "contract IMintGateway",
          "name": "",
          "type": "address"
        }
      ],
      "stateMutability": "view",
      "type": "function"
    },
    {
      "inputs": [
        {
          "internalType": "uint256",
          "name": "from",
          "type": "uint256"
        },
        {
          "internalType": "uint256",
          "name": "count",
          "type": "uint256"
        }
      ],
      "name": "getMintGatewaySymbols",
      "outputs": [
        {
          "internalType": "string[]",
          "name": "",
          "type": "string[]"
        }
      ],
      "stateMutability": "view",
      "type": "function"
    },
    {
      "inputs": [
        {
          "internalType": "string",
          "name": "tokenSymbol",
          "type": "string"
        }
      ],
      "name": "getRenAssetBySymbol",
      "outputs": [
        {
          "internalType": "contract IERC20",
          "name": "",
          "type": "address"
        }
      ],
      "stateMutability": "view",
      "type": "function"
    },
    {
      "inputs": [
        {
          "internalType": "bytes32",
          "name": "role",
          "type": "bytes32"
        }
      ],
      "name": "getRoleAdmin",
      "outputs": [
        {
          "internalType": "bytes32",
          "name": "",
          "type": "bytes32"
        }
      ],
      "stateMutability": "view",
      "type": "function"
    },
    {
      "inputs": [
        {
          "internalType": "bytes32",
          "name": "role",
          "type": "bytes32"
        },
        {
          "internalType": "uint256",
          "name": "index",
          "type": "uint256"
        }
      ],
      "name": "getRoleMember",
      "outputs": [
        {
          "internalType": "address",
          "name": "",
          "type": "address"
        }
      ],
      "stateMutability": "view",
      "type": "function"
    },
    {
      "inputs": [
        {
          "internalType": "bytes32",
          "name": "role",
          "type": "bytes32"
        }
      ],
      "name": "getRoleMemberCount",
      "outputs": [
        {
          "internalType": "uint256",
          "name": "",
          "type": "uint256"
        }
      ],
      "stateMutability": "view",
      "type": "function"
    },
    {
      "inputs": [
        {
          "internalType": "string",
          "name": "tokenSymbol",
          "type": "string"
        }
      ],
      "name": "getTokenBySymbol",
      "outputs": [
        {
          "internalType": "contract IERC20",
          "name": "",
          "type": "address"
        }
      ],
      "stateMutability": "view",
      "type": "function"
    },
    {
      "inputs": [
        {
          "internalType": "bytes32",
          "name": "role",
          "type": "bytes32"
        },
        {
          "internalType": "address",
          "name": "account",
          "type": "address"
        }
      ],
      "name": "grantRole",
      "outputs": [],
      "stateMutability": "nonpayable",
      "type": "function"
    },
    {
      "inputs": [
        {
          "internalType": "bytes32",
          "name": "role",
          "type": "bytes32"
        },
        {
          "internalType": "address",
          "name": "account",
          "type": "address"
        }
      ],
      "name": "hasRole",
      "outputs": [
        {
          "internalType": "bool",
          "name": "",
          "type": "bool"
        }
      ],
      "stateMutability": "view",
      "type": "function"
    },
    {
      "inputs": [],
      "name": "lockGatewayProxyBeacon",
      "outputs": [
        {
          "internalType": "contract LockGatewayProxyBeaconV1",
          "name": "",
          "type": "address"
        }
      ],
      "stateMutability": "view",
      "type": "function"
    },
    {
      "inputs": [],
      "name": "mintGatewayProxyBeacon",
      "outputs": [
        {
          "internalType": "contract MintGatewayProxyBeaconV1",
          "name": "",
          "type": "address"
        }
      ],
      "stateMutability": "view",
      "type": "function"
    },
    {
      "inputs": [
        {
          "internalType": "string",
          "name": "symbol",
          "type": "string"
        }
      ],
      "name": "removeLockGateway",
      "outputs": [],
      "stateMutability": "nonpayable",
      "type": "function"
    },
    {
      "inputs": [
        {
          "internalType": "string",
          "name": "symbol",
          "type": "string"
        }
      ],
      "name": "removeMintGateway",
      "outputs": [],
      "stateMutability": "nonpayable",
      "type": "function"
    },
    {
      "inputs": [],
      "name": "renAssetProxyBeacon",
      "outputs": [
        {
          "internalType": "contract RenAssetProxyBeaconV1",
          "name": "",
          "type": "address"
        }
      ],
      "stateMutability": "view",
      "type": "function"
    },
    {
      "inputs": [
        {
          "internalType": "bytes32",
          "name": "role",
          "type": "bytes32"
        },
        {
          "internalType": "address",
          "name": "account",
          "type": "address"
        }
      ],
      "name": "renounceRole",
      "outputs": [],
      "stateMutability": "nonpayable",
      "type": "function"
    },
    {
      "inputs": [
        {
          "internalType": "bytes32",
          "name": "role",
          "type": "bytes32"
        },
        {
          "internalType": "address",
          "name": "account",
          "type": "address"
        }
      ],
      "name": "revokeRole",
      "outputs": [],
      "stateMutability": "nonpayable",
      "type": "function"
    },
    {
      "inputs": [],
      "name": "signatureVerifier",
      "outputs": [
        {
          "internalType": "address",
          "name": "",
          "type": "address"
        }
      ],
      "stateMutability": "view",
      "type": "function"
    },
    {
      "inputs": [
        {
          "internalType": "bytes4",
          "name": "interfaceId",
          "type": "bytes4"
        }
      ],
      "name": "supportsInterface",
      "outputs": [
        {
          "internalType": "bool",
          "name": "",
          "type": "bool"
        }
      ],
      "stateMutability": "view",
      "type": "function"
    },
    {
      "inputs": [
        {
          "internalType": "address",
          "name": "nextSignatureVerifier",
          "type": "address"
        }
      ],
      "name": "updateSignatureVerifier",
      "outputs": [],
      "stateMutability": "nonpayable",
      "type": "function"
    }
  ],
  "transactionHash": "0xbdfc0653ae2fb5e1f2b8f94fd83eda1c03cda60765895c6909e9e6853169da09",
  "args": [],
  "solcInputHash": "36922df05e61a0a4bbd1c1b7b8949521",
  "bytecode": "0x608060405234801561001057600080fd5b5061559380620000216000396000f3fe608060405234801561001057600080fd5b50600436106102325760003560e01c80635667981b11610130578063a217fddf116100b8578063d2b05fb91161007c578063d2b05fb9146106fb578063d547741f14610717578063efa74f1f14610733578063fc3212c014610763578063fde919f61461079357610232565b8063a217fddf14610643578063a30c50ba14610661578063aa1ab9e314610691578063aa883642146106af578063ca15c873146106cb57610232565b8063868b3541116100ff578063868b3541146105655780639010d07c1461059557806391d14854146105c55780639a8a0592146105f55780639c789bb81461061357610232565b80635667981b146104b957806364936b1e146104d557806379c73a7a146105055780637b5c884f1461053557610232565b80632d05ba14116101be5780633922d139116101825780633922d1391461041957806340dffc6f14610449578063462b8ed114610465578063475400ba146104815780634cb391771461049d57610232565b80632d05ba14146103895780632d2798ca146103a75780632f2ff15d146103c357806333a40ccd146103df57806336568abe146103fd57610232565b80631b95e305116102055780631b95e305146102bf5780631c93b03a146102ef5780631f179f6e1461030d578063248a9ca3146103295780632949c6151461035957610232565b806301ffc9a7146102375780630b8e0b3814610267578063114fe9de1461028557806315267d97146102a3575b600080fd5b610251600480360381019061024c9190613f3c565b6107b1565b60405161025e91906148e4565b60405180910390f35b61026f61082b565b60405161027c91906148ff565b60405180910390f35b61028d61084f565b60405161029a919061499b565b60405180910390f35b6102bd60048036038101906102b89190613fb6565b610879565b005b6102d960048036038101906102d49190613de2565b610dc4565b6040516102e69190614980565b60405180910390f35b6102f7610dd6565b6040516103049190614a10565b60405180910390f35b61032760048036038101906103229190613e3c565b610e68565b005b610343600480360381019061033e9190613e8f565b611007565b60405161035091906148ff565b60405180910390f35b610373600480360381019061036e9190613de2565b611027565b6040516103809190614980565b60405180910390f35b6103916110b0565b60405161039e91906149d1565b60405180910390f35b6103c160048036038101906103bc9190613f69565b6110da565b005b6103dd60048036038101906103d89190613ebc565b611373565b005b6103e76113a7565b6040516103f491906149b6565b60405180910390f35b61041760048036038101906104129190613ebc565b6113d1565b005b610433600480360381019061042e9190613f69565b611405565b6040516104409190614965565b60405180910390f35b610463600480360381019061045e91906141a8565b611453565b005b61047f600480360381019061047a919061402a565b611648565b005b61049b60048036038101906104969190613fb6565b611787565b005b6104b760048036038101906104b29190613f69565b611cd2565b005b6104d360048036038101906104ce9190613de2565b611f4f565b005b6104ef60048036038101906104ea9190613f69565b612176565b6040516104fc9190614980565b60405180910390f35b61051f600480360381019061051a9190613f69565b61218a565b60405161052c919061494a565b60405180910390f35b61054f600480360381019061054a9190613f69565b6121d8565b60405161055c9190614980565b60405180910390f35b61057f600480360381019061057a9190614257565b612226565b60405161058c91906148c2565b60405180910390f35b6105af60048036038101906105aa9190613efc565b61223c565b6040516105bc91906148a7565b60405180910390f35b6105df60048036038101906105da9190613ebc565b61226b565b6040516105ec91906148e4565b60405180910390f35b6105fd6122d6565b60405161060a9190614ba7565b60405180910390f35b61062d60048036038101906106289190613f69565b6122e0565b60405161063a919061494a565b60405180910390f35b61064b61232e565b60405161065891906148ff565b60405180910390f35b61067b60048036038101906106769190614257565b612335565b60405161068891906148c2565b60405180910390f35b61069961234b565b6040516106a691906148ff565b60405180910390f35b6106c960048036038101906106c491906140ba565b61236f565b005b6106e560048036038101906106e09190613e8f565b612562565b6040516106f29190614ba7565b60405180910390f35b6107156004803603810190610710919061402a565b612586565b005b610731600480360381019061072c9190613ebc565b6126c5565b005b61074d60048036038101906107489190613f69565b6126f9565b60405161075a919061494a565b60405180910390f35b61077d60048036038101906107789190613de2565b61270d565b60405161078a9190614965565b60405180910390f35b61079b612796565b6040516107a891906148a7565b60405180910390f35b60007f5a05180f000000000000000000000000000000000000000000000000000000007bffffffffffffffffffffffffffffffffffffffffffffffffffffffff1916827bffffffffffffffffffffffffffffffffffffffffffffffffffffffff191614806108245750610823826127c0565b5b9050919050565b7fffddc8bfa55e17b4d21e6c83e86327dfded4d7c9dd051c00ab7b11c8a387c14a81565b600060cb60009054906101000a900473ffffffffffffffffffffffffffffffffffffffff16905090565b83836108c882828080601f016020809104026020016040519081016040528093929190818152602001838380828437600081840152601f19601f8201169050808301925050505050505061283a565b610907576040517f08c379a00000000000000000000000000000000000000000000000000000000081526004016108fe90614ae7565b60405180910390fd5b7f906a1b6d8666ab930891bffd6f4ca7e6fa437b6e3a66b10e0206c563ed50772b7fffddc8bfa55e17b4d21e6c83e86327dfded4d7c9dd051c00ab7b11c8a387c14a600061095361285d565b905061095f838261226b565b1580156109735750610971828261226b565b155b15610a12576109998173ffffffffffffffffffffffffffffffffffffffff166014612865565b6109a78460001c6020612865565b6109b58460001c6020612865565b6040516020016109c79392919061481b565b6040516020818303038152906040526040517f08c379a0000000000000000000000000000000000000000000000000000000008152600401610a099190614a10565b60405180910390fd5b610a6a89898080601f016020809104026020016040519081016040528093929190818152602001838380828437600081840152601f19601f8201169050808301925050505050505060cc612aa190919063ffffffff16565b15610a7a57610a7989896110da565b5b610ad289898080601f016020809104026020016040519081016040528093929190818152602001838380828437600081840152601f19601f8201169050808301925050505050505060cc612aa190919063ffffffff16565b15610b12576040517f08c379a0000000000000000000000000000000000000000000000000000000008152600401610b0990614b47565b60405180910390fd5b600060d060008973ffffffffffffffffffffffffffffffffffffffff1673ffffffffffffffffffffffffffffffffffffffff1681526020019081526020016000208054610b5e90614f8d565b905014610ba0576040517f08c379a0000000000000000000000000000000000000000000000000000000008152600401610b9790614b07565b60405180910390fd5b610bf889898080601f016020809104026020016040519081016040528093929190818152602001838380828437600081840152601f19601f8201169050808301925050505050505060cc612acf90919063ffffffff16565b5060405180604001604052808773ffffffffffffffffffffffffffffffffffffffff1681526020018873ffffffffffffffffffffffffffffffffffffffff1681525060d18a8a604051610c4c92919061477f565b908152602001604051809103902060008201518160000160006101000a81548173ffffffffffffffffffffffffffffffffffffffff021916908373ffffffffffffffffffffffffffffffffffffffff16021790555060208201518160010160006101000a81548173ffffffffffffffffffffffffffffffffffffffff021916908373ffffffffffffffffffffffffffffffffffffffff160217905550905050888860d060008a73ffffffffffffffffffffffffffffffffffffffff1673ffffffffffffffffffffffffffffffffffffffff1681526020019081526020016000209190610d39929190613b35565b508573ffffffffffffffffffffffffffffffffffffffff168773ffffffffffffffffffffffffffffffffffffffff168a8a604051610d7892919061477f565b60405180910390207f4682b5e1653a49766b0abf114d3911a5c27599ae3a9e11f390ce9bf06cff0a128c8c604051610db19291906149ec565b60405180910390a4505050505050505050565b6000610dcf82611027565b9050919050565b606060d68054610de590614f8d565b80601f0160208091040260200160405190810160405280929190818152602001828054610e1190614f8d565b8015610e5e5780601f10610e3357610100808354040283529160200191610e5e565b820191906000526020600020905b815481529060010190602001808311610e4157829003601f168201915b5050505050905090565b600060019054906101000a900460ff1680610e8e575060008054906101000a900460ff16155b610ecd576040517f08c379a0000000000000000000000000000000000000000000000000000000008152600401610ec490614ac7565b60405180910390fd5b60008060019054906101000a900460ff161590508015610f1d576001600060016101000a81548160ff02191690831515021790555060016000806101000a81548160ff0219169083151502179055505b8360c960006101000a81548173ffffffffffffffffffffffffffffffffffffffff021916908373ffffffffffffffffffffffffffffffffffffffff1602179055508260ca60006101000a81548173ffffffffffffffffffffffffffffffffffffffff021916908373ffffffffffffffffffffffffffffffffffffffff1602179055508160cb60006101000a81548173ffffffffffffffffffffffffffffffffffffffff021916908373ffffffffffffffffffffffffffffffffffffffff16021790555080156110015760008060016101000a81548160ff0219169083151502179055505b50505050565b600060656000838152602001908152602001600020600101549050919050565b600060d160d060008473ffffffffffffffffffffffffffffffffffffffff1673ffffffffffffffffffffffffffffffffffffffff16815260200190815260200160002060405161107791906147d5565b908152602001604051809103902060000160009054906101000a900473ffffffffffffffffffffffffffffffffffffffff169050919050565b600060c960009054906101000a900473ffffffffffffffffffffffffffffffffffffffff16905090565b7fffddc8bfa55e17b4d21e6c83e86327dfded4d7c9dd051c00ab7b11c8a387c14a61110c8161110761285d565b612b5d565b600073ffffffffffffffffffffffffffffffffffffffff1660d1848460405161113692919061477f565b908152602001604051809103902060010160009054906101000a900473ffffffffffffffffffffffffffffffffffffffff1673ffffffffffffffffffffffffffffffffffffffff1614156111bf576040517f08c379a00000000000000000000000000000000000000000000000000000000081526004016111b690614aa7565b60405180910390fd5b600060d184846040516111d392919061477f565b908152602001604051809103902060010160009054906101000a900473ffffffffffffffffffffffffffffffffffffffff16905060d060008273ffffffffffffffffffffffffffffffffffffffff1673ffffffffffffffffffffffffffffffffffffffff16815260200190815260200160002060006112529190613bbb565b60d1848460405161126492919061477f565b9081526020016040518091039020600080820160006101000a81549073ffffffffffffffffffffffffffffffffffffffff02191690556001820160006101000a81549073ffffffffffffffffffffffffffffffffffffffff0219169055505061131b84848080601f016020809104026020016040519081016040528093929190818152602001838380828437600081840152601f19601f8201169050808301925050505050505060cc612bfa90919063ffffffff16565b50838360405161132c92919061477f565b60405180910390207f5c6bce771f0acc024cb1447391030e98a8f38e5cb550e1c5bda96e12aa3044bf85856040516113659291906149ec565b60405180910390a250505050565b61137d8282612dcf565b6113a28160976000858152602001908152602001600020612df890919063ffffffff16565b505050565b600060ca60009054906101000a900473ffffffffffffffffffffffffffffffffffffffff16905090565b6113db8282612e28565b6114008160976000858152602001908152602001600020612eab90919063ffffffff16565b505050565b600060d3838360405161141992919061477f565b908152602001604051809103902060000160009054906101000a900473ffffffffffffffffffffffffffffffffffffffff16905092915050565b600060019054906101000a900460ff1680611479575060008054906101000a900460ff16155b6114b8576040517f08c379a00000000000000000000000000000000000000000000000000000000081526004016114af90614ac7565b60405180910390fd5b60008060019054906101000a900460ff161590508015611508576001600060016101000a81548160ff02191690831515021790555060016000806101000a81548160ff0219169083151502179055505b878761155782828080601f016020809104026020016040519081016040528093929190818152602001838380828437600081840152601f19601f8201169050808301925050505050505061283a565b611596576040517f08c379a000000000000000000000000000000000000000000000000000000000815260040161158d90614ae7565b60405180910390fd5b6115a1878787610e68565b898960d691906115b2929190613b35565b508760d5819055506115c76000801b85612edb565b6115f17fffddc8bfa55e17b4d21e6c83e86327dfded4d7c9dd051c00ab7b11c8a387c14a85612edb565b61161b7f906a1b6d8666ab930891bffd6f4ca7e6fa437b6e3a66b10e0206c563ed50772b85612edb565b5050801561163e5760008060016101000a81548160ff0219169083151502179055505b5050505050505050565b7f906a1b6d8666ab930891bffd6f4ca7e6fa437b6e3a66b10e0206c563ed50772b61167a8161167561285d565b612b5d565b6000611684610dd6565b905060008151116116ca576040517f08c379a00000000000000000000000000000000000000000000000000000000081526004016116c190614b27565b60405180910390fd5b61172286868080601f016020809104026020016040519081016040528093929190818152602001838380828437600081840152601f19601f8201169050808301925050505050505060ce612aa190919063ffffffff16565b15611759576117587fffddc8bfa55e17b4d21e6c83e86327dfded4d7c9dd051c00ab7b11c8a387c14a61175361285d565b612b5d565b5b6000611770828888611769612796565b8989612f0f565b905061177e87878784610879565b50505050505050565b83836117d682828080601f016020809104026020016040519081016040528093929190818152602001838380828437600081840152601f19601f8201169050808301925050505050505061283a565b611815576040517f08c379a000000000000000000000000000000000000000000000000000000000815260040161180c90614ae7565b60405180910390fd5b7f906a1b6d8666ab930891bffd6f4ca7e6fa437b6e3a66b10e0206c563ed50772b7fffddc8bfa55e17b4d21e6c83e86327dfded4d7c9dd051c00ab7b11c8a387c14a600061186161285d565b905061186d838261226b565b158015611881575061187f828261226b565b155b15611920576118a78173ffffffffffffffffffffffffffffffffffffffff166014612865565b6118b58460001c6020612865565b6118c38460001c6020612865565b6040516020016118d59392919061481b565b6040516020818303038152906040526040517f08c379a00000000000000000000000000000000000000000000000000000000081526004016119179190614a10565b60405180910390fd5b61197889898080601f016020809104026020016040519081016040528093929190818152602001838380828437600081840152601f19601f8201169050808301925050505050505060ce612aa190919063ffffffff16565b15611988576119878989611cd2565b5b6119e089898080601f016020809104026020016040519081016040528093929190818152602001838380828437600081840152601f19601f8201169050808301925050505050505060ce612aa190919063ffffffff16565b15611a20576040517f08c379a0000000000000000000000000000000000000000000000000000000008152600401611a1790614b47565b60405180910390fd5b600060d260008973ffffffffffffffffffffffffffffffffffffffff1673ffffffffffffffffffffffffffffffffffffffff1681526020019081526020016000208054611a6c90614f8d565b905014611aae576040517f08c379a0000000000000000000000000000000000000000000000000000000008152600401611aa590614b07565b60405180910390fd5b611b0689898080601f016020809104026020016040519081016040528093929190818152602001838380828437600081840152601f19601f8201169050808301925050505050505060ce612acf90919063ffffffff16565b5060405180604001604052808773ffffffffffffffffffffffffffffffffffffffff1681526020018873ffffffffffffffffffffffffffffffffffffffff1681525060d38a8a604051611b5a92919061477f565b908152602001604051809103902060008201518160000160006101000a81548173ffffffffffffffffffffffffffffffffffffffff021916908373ffffffffffffffffffffffffffffffffffffffff16021790555060208201518160010160006101000a81548173ffffffffffffffffffffffffffffffffffffffff021916908373ffffffffffffffffffffffffffffffffffffffff160217905550905050888860d260008a73ffffffffffffffffffffffffffffffffffffffff1673ffffffffffffffffffffffffffffffffffffffff1681526020019081526020016000209190611c47929190613b35565b508573ffffffffffffffffffffffffffffffffffffffff168773ffffffffffffffffffffffffffffffffffffffff168a8a604051611c8692919061477f565b60405180910390207f0c15c0d5e06df8261d683f33bfdb70d77eca8530b1b3b7d229ead531867be8188c8c604051611cbf9291906149ec565b60405180910390a4505050505050505050565b7fffddc8bfa55e17b4d21e6c83e86327dfded4d7c9dd051c00ab7b11c8a387c14a611d0481611cff61285d565b612b5d565b611d5c83838080601f016020809104026020016040519081016040528093929190818152602001838380828437600081840152601f19601f8201169050808301925050505050505060ce612aa190919063ffffffff16565b611d9b576040517f08c379a0000000000000000000000000000000000000000000000000000000008152600401611d9290614aa7565b60405180910390fd5b600060d38484604051611daf92919061477f565b908152602001604051809103902060010160009054906101000a900473ffffffffffffffffffffffffffffffffffffffff16905060d260008273ffffffffffffffffffffffffffffffffffffffff1673ffffffffffffffffffffffffffffffffffffffff1681526020019081526020016000206000611e2e9190613bbb565b60d38484604051611e4092919061477f565b9081526020016040518091039020600080820160006101000a81549073ffffffffffffffffffffffffffffffffffffffff02191690556001820160006101000a81549073ffffffffffffffffffffffffffffffffffffffff02191690555050611ef784848080601f016020809104026020016040519081016040528093929190818152602001838380828437600081840152601f19601f8201169050808301925050505050505060ce612bfa90919063ffffffff16565b508383604051611f0892919061477f565b60405180910390207f5e9082f22098a5a5184b5dffbe6c696b966b83bb250951a12f38f4609c7726328585604051611f419291906149ec565b60405180910390a250505050565b7f906a1b6d8666ab930891bffd6f4ca7e6fa437b6e3a66b10e0206c563ed50772b7fffddc8bfa55e17b4d21e6c83e86327dfded4d7c9dd051c00ab7b11c8a387c14a6000611f9b61285d565b9050611fa7838261226b565b158015611fbb5750611fb9828261226b565b155b1561205a57611fe18173ffffffffffffffffffffffffffffffffffffffff166014612865565b611fef8460001c6020612865565b611ffd8460001c6020612865565b60405160200161200f9392919061481b565b6040516020818303038152906040526040517f08c379a00000000000000000000000000000000000000000000000000000000081526004016120519190614a10565b60405180910390fd5b600073ffffffffffffffffffffffffffffffffffffffff168473ffffffffffffffffffffffffffffffffffffffff1614156120ca576040517f08c379a00000000000000000000000000000000000000000000000000000000081526004016120c190614b67565b60405180910390fd5b8360d460006101000a81548173ffffffffffffffffffffffffffffffffffffffff021916908373ffffffffffffffffffffffffffffffffffffffff16021790555060d460009054906101000a900473ffffffffffffffffffffffffffffffffffffffff1673ffffffffffffffffffffffffffffffffffffffff167fb57359628f7b44e9842ff204fb5700f84d8c4f9c3fc9dae13e7a1aab8ed164f760405160405180910390a250505050565b600061218283836121d8565b905092915050565b600060d1838360405161219e92919061477f565b908152602001604051809103902060010160009054906101000a900473ffffffffffffffffffffffffffffffffffffffff16905092915050565b600060d183836040516121ec92919061477f565b908152602001604051809103902060000160009054906101000a900473ffffffffffffffffffffffffffffffffffffffff16905092915050565b606061223460cc84846130ec565b905092915050565b600061226382609760008681526020019081526020016000206131e490919063ffffffff16565b905092915050565b60006065600084815260200190815260200160002060000160008373ffffffffffffffffffffffffffffffffffffffff1673ffffffffffffffffffffffffffffffffffffffff16815260200190815260200160002060009054906101000a900460ff16905092915050565b600060d554905090565b600060d383836040516122f492919061477f565b908152602001604051809103902060010160009054906101000a900473ffffffffffffffffffffffffffffffffffffffff16905092915050565b6000801b81565b606061234360ce84846130ec565b905092915050565b7f906a1b6d8666ab930891bffd6f4ca7e6fa437b6e3a66b10e0206c563ed50772b81565b7f906a1b6d8666ab930891bffd6f4ca7e6fa437b6e3a66b10e0206c563ed50772b6123a18161239c61285d565b612b5d565b60006123ab610dd6565b905060008151116123f1576040517f08c379a00000000000000000000000000000000000000000000000000000000081526004016123e890614b27565b60405180910390fd5b61244988888080601f016020809104026020016040519081016040528093929190818152602001838380828437600081840152601f19601f8201169050808301925050505050505060ce612aa190919063ffffffff16565b156124ac5787876040516020016124619291906147ec565b6040516020818303038152906040526040517f08c379a00000000000000000000000000000000000000000000000000000000081526004016124a39190614a10565b60405180910390fd5b60006124c46124b96122d6565b8a8a8a8a8a8a6131fe565b905060006124dd838b8b6124d6612796565b868a612f0f565b90508173ffffffffffffffffffffffffffffffffffffffff1663f2fde38b826040518263ffffffff1660e01b815260040161251891906148a7565b600060405180830381600087803b15801561253257600080fd5b505af1158015612546573d6000803e3d6000fd5b505050506125568a8a8484610879565b50505050505050505050565b600061257f60976000848152602001908152602001600020613371565b9050919050565b7f906a1b6d8666ab930891bffd6f4ca7e6fa437b6e3a66b10e0206c563ed50772b6125b8816125b361285d565b612b5d565b60006125c2610dd6565b90506000815111612608576040517f08c379a00000000000000000000000000000000000000000000000000000000081526004016125ff90614b27565b60405180910390fd5b61266086868080601f016020809104026020016040519081016040528093929190818152602001838380828437600081840152601f19601f8201169050808301925050505050505060ce612aa190919063ffffffff16565b15612697576126967fffddc8bfa55e17b4d21e6c83e86327dfded4d7c9dd051c00ab7b11c8a387c14a61269161285d565b612b5d565b5b60006126ae8288886126a7612796565b8989613386565b90506126bc87878784611787565b50505050505050565b6126cf8282613563565b6126f48160976000858152602001908152602001600020612eab90919063ffffffff16565b505050565b6000612705838361218a565b905092915050565b600060d360d260008473ffffffffffffffffffffffffffffffffffffffff1673ffffffffffffffffffffffffffffffffffffffff16815260200190815260200160002060405161275d91906147d5565b908152602001604051809103902060000160009054906101000a900473ffffffffffffffffffffffffffffffffffffffff169050919050565b600060d460009054906101000a900473ffffffffffffffffffffffffffffffffffffffff16905090565b60007f7965db0b000000000000000000000000000000000000000000000000000000007bffffffffffffffffffffffffffffffffffffffffffffffffffffffff1916827bffffffffffffffffffffffffffffffffffffffffffffffffffffffff1916148061283357506128328261358c565b5b9050919050565b6000612845826135f6565b80156128565750612855826136b0565b5b9050919050565b600033905090565b6060600060028360026128789190614d78565b6128829190614d22565b67ffffffffffffffff81111561289b5761289a6150f5565b5b6040519080825280601f01601f1916602001820160405280156128cd5781602001600182028036833780820191505090505b5090507f300000000000000000000000000000000000000000000000000000000000000081600081518110612905576129046150c6565b5b60200101907effffffffffffffffffffffffffffffffffffffffffffffffffffffffffffff1916908160001a9053507f780000000000000000000000000000000000000000000000000000000000000081600181518110612969576129686150c6565b5b60200101907effffffffffffffffffffffffffffffffffffffffffffffffffffffffffffff1916908160001a905350600060018460026129a99190614d78565b6129b39190614d22565b90505b6001811115612a53577f3031323334353637383961626364656600000000000000000000000000000000600f8616601081106129f5576129f46150c6565b5b1a60f81b828281518110612a0c57612a0b6150c6565b5b60200101907effffffffffffffffffffffffffffffffffffffffffffffffffffffffffffff1916908160001a905350600485901c945080612a4c90614f63565b90506129b6565b5060008414612a97576040517f08c379a0000000000000000000000000000000000000000000000000000000008152600401612a8e90614a87565b60405180910390fd5b8091505092915050565b6000808360010183604051612ab691906147be565b9081526020016040518091039020541415905092915050565b6000612adb8383612aa1565b612b52578260000182908060018154018082558091505060019003906000526020600020016000909190919091509080519060200190612b1c929190613bfb565b5082600001805490508360010183604051612b3791906147be565b90815260200160405180910390208190555060019050612b57565b600090505b92915050565b612b67828261226b565b612bf657612b8c8173ffffffffffffffffffffffffffffffffffffffff166014612865565b612b9a8360001c6020612865565b604051602001612bab92919061486d565b6040516020818303038152906040526040517f08c379a0000000000000000000000000000000000000000000000000000000008152600401612bed9190614a10565b60405180910390fd5b5050565b6000808360010183604051612c0f91906147be565b908152602001604051809103902054905060008114612dc3576000600182612c379190614dd2565b9050600060018660000180549050612c4f9190614dd2565b9050818114612d61576000866000018281548110612c7057612c6f6150c6565b5b906000526020600020018054612c8590614f8d565b80601f0160208091040260200160405190810160405280929190818152602001828054612cb190614f8d565b8015612cfe5780601f10612cd357610100808354040283529160200191612cfe565b820191906000526020600020905b815481529060010190602001808311612ce157829003601f168201915b5050505050905080876000018481548110612d1c57612d1b6150c6565b5b906000526020600020019080519060200190612d39929190613bfb565b50838760010182604051612d4d91906147be565b908152602001604051809103902081905550505b85600001805480612d7557612d74615097565b5b600190038181906000526020600020016000612d919190613bbb565b90558560010185604051612da591906147be565b90815260200160405180910390206000905560019350505050612dc9565b60009150505b92915050565b612dd882611007565b612de981612de461285d565b612b5d565b612df383836136bd565b505050565b6000612e20836000018373ffffffffffffffffffffffffffffffffffffffff1660001b61379e565b905092915050565b612e3061285d565b73ffffffffffffffffffffffffffffffffffffffff168173ffffffffffffffffffffffffffffffffffffffff1614612e9d576040517f08c379a0000000000000000000000000000000000000000000000000000000008152600401612e9490614b87565b60405180910390fd5b612ea7828261380e565b5050565b6000612ed3836000018373ffffffffffffffffffffffffffffffffffffffff1660001b6138f0565b905092915050565b612ee58282613a04565b612f0a8160976000858152602001908152602001600020612df890919063ffffffff16565b505050565b6000808787878787604051602401612f2b959493929190614a32565b6040516020818303038152906040527f4a5bca8a000000000000000000000000000000000000000000000000000000007bffffffffffffffffffffffffffffffffffffffffffffffffffffffff19166020820180517bffffffffffffffffffffffffffffffffffffffffffffffffffffffff838183161783525050505090506000878785604051602001612fc193929190614798565b6040516020818303038152906040528051906020012090506000612fe36113a7565b73ffffffffffffffffffffffffffffffffffffffff1663ec54d72f83856040518363ffffffff1660e01b815260040161301d92919061491a565b602060405180830381600087803b15801561303757600080fd5b505af115801561304b573d6000803e3d6000fd5b505050506040513d601f19601f8201168201806040525081019061306f9190613e0f565b90508073ffffffffffffffffffffffffffffffffffffffff1663f2fde38b336040518263ffffffff1660e01b81526004016130aa91906148a7565b600060405180830381600087803b1580156130c457600080fd5b505af11580156130d8573d6000803e3d6000fd5b505050508093505050509695505050505050565b606060006130f985613a12565b9050600083148061311457508083856131129190614d22565b115b156131285783816131259190614dd2565b92505b60008367ffffffffffffffff811115613144576131436150f5565b5b60405190808252806020026020018201604052801561317757816020015b60608152602001906001900390816131625790505b50905060008590505b848661318c9190614d22565b8110156131d7576131a68188613a2390919063ffffffff16565b8282815181106131b9576131b86150c6565b5b602002602001018190525080806131cf90614ff0565b915050613180565b5080925050509392505050565b60006131f38360000183613ad6565b60001c905092915050565b600080888387878760405160240161321a959493929190614bc2565b6040516020818303038152906040527fb1a64a2d000000000000000000000000000000000000000000000000000000007bffffffffffffffffffffffffffffffffffffffffffffffffffffffff19166020820180517bffffffffffffffffffffffffffffffffffffffffffffffffffffffff8381831617835250505050905060008888856040516020016132b093929190614798565b60405160208183030381529060405280519060200120905060006132d26110b0565b73ffffffffffffffffffffffffffffffffffffffff1663ec54d72f83856040518363ffffffff1660e01b815260040161330c92919061491a565b602060405180830381600087803b15801561332657600080fd5b505af115801561333a573d6000803e3d6000fd5b505050506040513d601f19601f8201168201806040525081019061335e9190613e0f565b9050809350505050979650505050505050565b600061337f82600001613b01565b9050919050565b60008087878787876040516024016133a2959493929190614a32565b6040516020818303038152906040527fb2f2be9b000000000000000000000000000000000000000000000000000000007bffffffffffffffffffffffffffffffffffffffffffffffffffffffff19166020820180517bffffffffffffffffffffffffffffffffffffffffffffffffffffffff83818316178352505050509050600087878560405160200161343893929190614798565b604051602081830303815290604052805190602001209050600061345a61084f565b73ffffffffffffffffffffffffffffffffffffffff1663ec54d72f83856040518363ffffffff1660e01b815260040161349492919061491a565b602060405180830381600087803b1580156134ae57600080fd5b505af11580156134c2573d6000803e3d6000fd5b505050506040513d601f19601f820116820180604052508101906134e69190613e0f565b90508073ffffffffffffffffffffffffffffffffffffffff1663f2fde38b336040518263ffffffff1660e01b815260040161352191906148a7565b600060405180830381600087803b15801561353b57600080fd5b505af115801561354f573d6000803e3d6000fd5b505050508093505050509695505050505050565b61356c82611007565b61357d8161357861285d565b612b5d565b613587838361380e565b505050565b60007f01ffc9a7000000000000000000000000000000000000000000000000000000007bffffffffffffffffffffffffffffffffffffffffffffffffffffffff1916827bffffffffffffffffffffffffffffffffffffffffffffffffffffffff1916149050919050565b600080600090505b82518110156136a557600083828151811061361c5761361b6150c6565b5b602001015160f81c60f81b60f81c905060418160ff16101580156136445750605a8160ff1611155b80613663575060618160ff16101580156136625750607a8160ff1611155b5b80613682575060308160ff1610158015613681575060398160ff1611155b5b613691576000925050506136ab565b50808061369d90614ff0565b9150506135fe565b50600190505b919050565b6000808251119050919050565b6136c7828261226b565b61379a5760016065600084815260200190815260200160002060000160008373ffffffffffffffffffffffffffffffffffffffff1673ffffffffffffffffffffffffffffffffffffffff16815260200190815260200160002060006101000a81548160ff02191690831515021790555061373f61285d565b73ffffffffffffffffffffffffffffffffffffffff168173ffffffffffffffffffffffffffffffffffffffff16837f2f8788117e7eff1d82e926ec794901d17c78024a50270940304540a733656f0d60405160405180910390a45b5050565b60006137aa8383613b12565b613803578260000182908060018154018082558091505060019003906000526020600020016000909190919091505582600001805490508360010160008481526020019081526020016000208190555060019050613808565b600090505b92915050565b613818828261226b565b156138ec5760006065600084815260200190815260200160002060000160008373ffffffffffffffffffffffffffffffffffffffff1673ffffffffffffffffffffffffffffffffffffffff16815260200190815260200160002060006101000a81548160ff02191690831515021790555061389161285d565b73ffffffffffffffffffffffffffffffffffffffff168173ffffffffffffffffffffffffffffffffffffffff16837ff6391f5c32d9c69d2a47ea670b442974b53935d1edc7fd64eb21e047a839171b60405160405180910390a45b5050565b600080836001016000848152602001908152602001600020549050600081146139f85760006001826139229190614dd2565b905060006001866000018054905061393a9190614dd2565b90508181146139a957600086600001828154811061395b5761395a6150c6565b5b906000526020600020015490508087600001848154811061397f5761397e6150c6565b5b90600052602060002001819055508387600101600083815260200190815260200160002081905550505b856000018054806139bd576139bc615097565b5b6001900381819060005260206000200160009055905585600101600086815260200190815260200160002060009055600193505050506139fe565b60009150505b92915050565b613a0e82826136bd565b5050565b600081600001805490509050919050565b6060826000018281548110613a3b57613a3a6150c6565b5b906000526020600020018054613a5090614f8d565b80601f0160208091040260200160405190810160405280929190818152602001828054613a7c90614f8d565b8015613ac95780601f10613a9e57610100808354040283529160200191613ac9565b820191906000526020600020905b815481529060010190602001808311613aac57829003601f168201915b5050505050905092915050565b6000826000018281548110613aee57613aed6150c6565b5b9060005260206000200154905092915050565b600081600001805490509050919050565b600080836001016000848152602001908152602001600020541415905092915050565b828054613b4190614f8d565b90600052602060002090601f016020900481019282613b635760008555613baa565b82601f10613b7c57803560ff1916838001178555613baa565b82800160010185558215613baa579182015b82811115613ba9578235825591602001919060010190613b8e565b5b509050613bb79190613c81565b5090565b508054613bc790614f8d565b6000825580601f10613bd95750613bf8565b601f016020900490600052602060002090810190613bf79190613c81565b5b50565b828054613c0790614f8d565b90600052602060002090601f016020900481019282613c295760008555613c70565b82601f10613c4257805160ff1916838001178555613c70565b82800160010185558215613c70579182015b82811115613c6f578251825591602001919060010190613c54565b5b509050613c7d9190613c81565b5090565b5b80821115613c9a576000816000905550600101613c82565b5090565b6000613cb1613cac84614c4f565b614c2a565b905082815260208101848484011115613ccd57613ccc615133565b5b613cd8848285614f21565b509392505050565b600081359050613cef816154ea565b92915050565b600081519050613d04816154ea565b92915050565b600081359050613d1981615501565b92915050565b600081359050613d2e81615518565b92915050565b60008083601f840112613d4a57613d49615129565b5b8235905067ffffffffffffffff811115613d6757613d66615124565b5b602083019150836001820283011115613d8357613d8261512e565b5b9250929050565b600082601f830112613d9f57613d9e615129565b5b8135613daf848260208601613c9e565b91505092915050565b600081359050613dc78161552f565b92915050565b600081359050613ddc81615546565b92915050565b600060208284031215613df857613df761513d565b5b6000613e0684828501613ce0565b91505092915050565b600060208284031215613e2557613e2461513d565b5b6000613e3384828501613cf5565b91505092915050565b600080600060608486031215613e5557613e5461513d565b5b6000613e6386828701613ce0565b9350506020613e7486828701613ce0565b9250506040613e8586828701613ce0565b9150509250925092565b600060208284031215613ea557613ea461513d565b5b6000613eb384828501613d0a565b91505092915050565b60008060408385031215613ed357613ed261513d565b5b6000613ee185828601613d0a565b9250506020613ef285828601613ce0565b9150509250929050565b60008060408385031215613f1357613f1261513d565b5b6000613f2185828601613d0a565b9250506020613f3285828601613db8565b9150509250929050565b600060208284031215613f5257613f5161513d565b5b6000613f6084828501613d1f565b91505092915050565b60008060208385031215613f8057613f7f61513d565b5b600083013567ffffffffffffffff811115613f9e57613f9d615138565b5b613faa85828601613d34565b92509250509250929050565b60008060008060608587031215613fd057613fcf61513d565b5b600085013567ffffffffffffffff811115613fee57613fed615138565b5b613ffa87828801613d34565b9450945050602061400d87828801613ce0565b925050604061401e87828801613ce0565b91505092959194509250565b600080600080606085870312156140445761404361513d565b5b600085013567ffffffffffffffff81111561406257614061615138565b5b61406e87828801613d34565b9450945050602061408187828801613ce0565b925050604085013567ffffffffffffffff8111156140a2576140a1615138565b5b6140ae87828801613d8a565b91505092959194509250565b60008060008060008060a087890312156140d7576140d661513d565b5b600087013567ffffffffffffffff8111156140f5576140f4615138565b5b61410189828a01613d34565b9650965050602087013567ffffffffffffffff81111561412457614123615138565b5b61413089828a01613d8a565b945050604087013567ffffffffffffffff81111561415157614150615138565b5b61415d89828a01613d8a565b935050606061416e89828a01613dcd565b925050608087013567ffffffffffffffff81111561418f5761418e615138565b5b61419b89828a01613d8a565b9150509295509295509295565b600080600080600080600060c0888a0312156141c7576141c661513d565b5b600088013567ffffffffffffffff8111156141e5576141e4615138565b5b6141f18a828b01613d34565b975097505060206142048a828b01613db8565b95505060406142158a828b01613ce0565b94505060606142268a828b01613ce0565b93505060806142378a828b01613ce0565b92505060a06142488a828b01613ce0565b91505092959891949750929550565b6000806040838503121561426e5761426d61513d565b5b600061427c85828601613db8565b925050602061428d85828601613db8565b9150509250929050565b60006142a38383614432565b905092915050565b6142b481614e06565b82525050565b60006142c582614ca5565b6142cf8185614cd3565b9350836020820285016142e185614c80565b8060005b8581101561431d57848403895281516142fe8582614297565b945061430983614cc6565b925060208a019950506001810190506142e5565b50829750879550505050505092915050565b61433881614e18565b82525050565b61434781614e24565b82525050565b600061435882614cb0565b6143628185614ce4565b9350614372818560208601614f30565b61437b81615142565b840191505092915050565b61438f81614e91565b82525050565b61439e81614ea3565b82525050565b6143ad81614eb5565b82525050565b6143bc81614ec7565b82525050565b6143cb81614ed9565b82525050565b6143da81614eeb565b82525050565b60006143ec8385614d06565b93506143f9838584614f21565b61440283615142565b840190509392505050565b60006144198385614d17565b9350614426838584614f21565b82840190509392505050565b600061443d82614cbb565b6144478185614cf5565b9350614457818560208601614f30565b61446081615142565b840191505092915050565b600061447682614cbb565b6144808185614d06565b9350614490818560208601614f30565b61449981615142565b840191505092915050565b60006144af82614cbb565b6144b98185614d17565b93506144c9818560208601614f30565b80840191505092915050565b600081546144e281614f8d565b6144ec8186614d17565b9450600182166000811461450757600181146145185761454b565b60ff1983168652818601935061454b565b61452185614c90565b60005b8381101561454357815481890152600182019150602081019050614524565b838801955050505b50505092915050565b6000614561601283614d17565b915061456c82615153565b601282019050919050565b6000614584602083614d06565b915061458f8261517c565b602082019050919050565b60006145a7602783614d06565b91506145b2826151a5565b604082019050919050565b60006145ca601183614d17565b91506145d5826151f4565b601182019050919050565b60006145ed600483614d17565b91506145f88261521d565b600482019050919050565b6000614610602e83614d06565b915061461b82615246565b604082019050919050565b6000614633602e83614d06565b915061463e82615295565b604082019050919050565b6000614656602983614d06565b9150614661826152e4565b604082019050919050565b6000614679602083614d17565b915061468482615333565b602082019050919050565b600061469c602683614d06565b91506146a78261535c565b604082019050919050565b60006146bf601783614d17565b91506146ca826153ab565b601782019050919050565b60006146e2602a83614d06565b91506146ed826153d4565b604082019050919050565b6000614705602383614d06565b915061471082615423565b604082019050919050565b6000614728601183614d17565b915061473382615472565b601182019050919050565b600061474b602f83614d06565b91506147568261549b565b604082019050919050565b61476a81614e7a565b82525050565b61477981614e84565b82525050565b600061478c82848661440d565b91508190509392505050565b60006147a582858761440d565b91506147b182846144a4565b9150819050949350505050565b60006147ca82846144a4565b915081905092915050565b60006147e182846144d5565b915081905092915050565b60006147f7826145bd565b915061480482848661440d565b915061480f8261466c565b91508190509392505050565b6000614826826146b2565b915061483282866144a4565b915061483d82614554565b915061484982856144a4565b9150614854826145e0565b915061486082846144a4565b9150819050949350505050565b6000614878826146b2565b915061488482856144a4565b915061488f8261471b565b915061489b82846144a4565b91508190509392505050565b60006020820190506148bc60008301846142ab565b92915050565b600060208201905081810360008301526148dc81846142ba565b905092915050565b60006020820190506148f9600083018461432f565b92915050565b6000602082019050614914600083018461433e565b92915050565b600060408201905061492f600083018561433e565b8181036020830152614941818461434d565b90509392505050565b600060208201905061495f6000830184614386565b92915050565b600060208201905061497a6000830184614395565b92915050565b600060208201905061499560008301846143a4565b92915050565b60006020820190506149b060008301846143b3565b92915050565b60006020820190506149cb60008301846143c2565b92915050565b60006020820190506149e660008301846143d1565b92915050565b60006020820190508181036000830152614a078184866143e0565b90509392505050565b60006020820190508181036000830152614a2a818461446b565b905092915050565b60006080820190508181036000830152614a4c818861446b565b90508181036020830152614a618186886143e0565b9050614a7060408301856142ab565b614a7d60608301846142ab565b9695505050505050565b60006020820190508181036000830152614aa081614577565b9050919050565b60006020820190508181036000830152614ac08161459a565b9050919050565b60006020820190508181036000830152614ae081614603565b9050919050565b60006020820190508181036000830152614b0081614626565b9050919050565b60006020820190508181036000830152614b2081614649565b9050919050565b60006020820190508181036000830152614b408161468f565b9050919050565b60006020820190508181036000830152614b60816146d5565b9050919050565b60006020820190508181036000830152614b80816146f8565b9050919050565b60006020820190508181036000830152614ba08161473e565b9050919050565b6000602082019050614bbc6000830184614761565b92915050565b600060a082019050614bd76000830188614761565b8181036020830152614be9818761446b565b90508181036040830152614bfd818661446b565b90508181036060830152614c11818561446b565b9050614c206080830184614770565b9695505050505050565b6000614c34614c45565b9050614c408282614fbf565b919050565b6000604051905090565b600067ffffffffffffffff821115614c6a57614c696150f5565b5b614c7382615142565b9050602081019050919050565b6000819050602082019050919050565b60008190508160005260206000209050919050565b600081519050919050565b600081519050919050565b600081519050919050565b6000602082019050919050565b600082825260208201905092915050565b600082825260208201905092915050565b600082825260208201905092915050565b600082825260208201905092915050565b600081905092915050565b6000614d2d82614e7a565b9150614d3883614e7a565b9250827fffffffffffffffffffffffffffffffffffffffffffffffffffffffffffffffff03821115614d6d57614d6c615039565b5b828201905092915050565b6000614d8382614e7a565b9150614d8e83614e7a565b9250817fffffffffffffffffffffffffffffffffffffffffffffffffffffffffffffffff0483118215151615614dc757614dc6615039565b5b828202905092915050565b6000614ddd82614e7a565b9150614de883614e7a565b925082821015614dfb57614dfa615039565b5b828203905092915050565b6000614e1182614e5a565b9050919050565b60008115159050919050565b6000819050919050565b60007fffffffff0000000000000000000000000000000000000000000000000000000082169050919050565b600073ffffffffffffffffffffffffffffffffffffffff82169050919050565b6000819050919050565b600060ff82169050919050565b6000614e9c82614efd565b9050919050565b6000614eae82614efd565b9050919050565b6000614ec082614efd565b9050919050565b6000614ed282614efd565b9050919050565b6000614ee482614efd565b9050919050565b6000614ef682614efd565b9050919050565b6000614f0882614f0f565b9050919050565b6000614f1a82614e5a565b9050919050565b82818337600083830152505050565b60005b83811015614f4e578082015181840152602081019050614f33565b83811115614f5d576000848401525b50505050565b6000614f6e82614e7a565b91506000821415614f8257614f81615039565b5b600182039050919050565b60006002820490506001821680614fa557607f821691505b60208210811415614fb957614fb8615068565b5b50919050565b614fc882615142565b810181811067ffffffffffffffff82111715614fe757614fe66150f5565b5b80604052505050565b6000614ffb82614e7a565b91507fffffffffffffffffffffffffffffffffffffffffffffffffffffffffffffffff82141561502e5761502d615039565b5b600182019050919050565b7f4e487b7100000000000000000000000000000000000000000000000000000000600052601160045260246000fd5b7f4e487b7100000000000000000000000000000000000000000000000000000000600052602260045260246000fd5b7f4e487b7100000000000000000000000000000000000000000000000000000000600052603160045260246000fd5b7f4e487b7100000000000000000000000000000000000000000000000000000000600052603260045260246000fd5b7f4e487b7100000000000000000000000000000000000000000000000000000000600052604160045260246000fd5b600080fd5b600080fd5b600080fd5b600080fd5b600080fd5b600080fd5b6000601f19601f8301169050919050565b7f206973206d697373696e6720726f6c6573200000000000000000000000000000600082015250565b7f537472696e67733a20686578206c656e67746820696e73756666696369656e74600082015250565b7f4761746577617952656769737472793a2067617465776179206e6f742072656760008201527f6973746572656400000000000000000000000000000000000000000000000000602082015250565b7f4761746577617952656769737472793a20000000000000000000000000000000600082015250565b7f206f722000000000000000000000000000000000000000000000000000000000600082015250565b7f496e697469616c697a61626c653a20636f6e747261637420697320616c72656160008201527f647920696e697469616c697a6564000000000000000000000000000000000000602082015250565b7f4761746577617952656769737472793a20656d707479206f7220696e76616c6960008201527f6420737472696e6720696e707574000000000000000000000000000000000000602082015250565b7f4761746577617952656769737472793a20746f6b656e20616c7265616479207260008201527f6567697374657265640000000000000000000000000000000000000000000000602082015250565b7f206d696e74206761746577617920616c72656164792072656769737465726564600082015250565b7f4761746577617952656769737472793a20636861696e2064657461696c73206e60008201527f6f74207365740000000000000000000000000000000000000000000000000000602082015250565b7f416363657373436f6e74726f6c3a206163636f756e7420000000000000000000600082015250565b7f4761746577617952656769737472793a2073796d626f6c20616c72656164792060008201527f7265676973746572656400000000000000000000000000000000000000000000602082015250565b7f476174657761793a20696e76616c6964207369676e617475726520766572696660008201527f6965720000000000000000000000000000000000000000000000000000000000602082015250565b7f206973206d697373696e6720726f6c6520000000000000000000000000000000600082015250565b7f416363657373436f6e74726f6c3a2063616e206f6e6c792072656e6f756e636560008201527f20726f6c657320666f722073656c660000000000000000000000000000000000602082015250565b6154f381614e06565b81146154fe57600080fd5b50565b61550a81614e24565b811461551557600080fd5b50565b61552181614e2e565b811461552c57600080fd5b50565b61553881614e7a565b811461554357600080fd5b50565b61554f81614e84565b811461555a57600080fd5b5056fea26469706673582212206271b98c3b31678fb53cfde975bdb3cc0cb99ed54f6aff2c7903b614aa00bb1e64736f6c63430008070033",
  "devdoc": {
    "events": {
      "LogMintGatewayUpdated(string,string,address,address)": {
        "details": "The symbol is included twice because strings have to be hashed first in order to be used as a log index/topic."
      }
    },
    "kind": "dev",
    "methods": {
      "addLockGateway(string,address,address)": {
        "params": {
          "lockAsset": "The address of the RenERC20 token contract.",
          "lockGateway": "The address of the Gateway contract.",
          "symbol": "A string that identifies the token and gateway pair."
        }
      },
      "addMintGateway(string,address,address)": {
        "params": {
          "mintGateway": "The address of the Gateway contract.",
          "renAsset": "The address of the RenERC20 token contract.",
          "symbol": "A string that identifies the token and gateway pair."
        }
      },
      "getLockGatewaySymbols(uint256,uint256)": {
        "details": "To get all the registered tokens set count to `0`."
      },
      "getMintGatewayBySymbol(string)": {
        "params": {
          "tokenSymbol": "The symbol of the RenERC20 token contract."
        }
      },
      "getMintGatewayByToken(address)": {
        "params": {
          "token": "The address of the RenERC20 token contract."
        }
      },
      "getMintGatewaySymbols(uint256,uint256)": {
        "details": "To get all the registered Gateway contracts set count to `0`."
      },
      "getRenAssetBySymbol(string)": {
        "params": {
          "tokenSymbol": "The symbol of the RenERC20 token contract to        lookup."
        }
      },
      "getRoleAdmin(bytes32)": {
        "details": "Returns the admin role that controls `role`. See {grantRole} and {revokeRole}. To change a role's admin, use {_setRoleAdmin}."
      },
      "getRoleMember(bytes32,uint256)": {
        "details": "Returns one of the accounts that have `role`. `index` must be a value between 0 and {getRoleMemberCount}, non-inclusive. Role bearers are not sorted in any particular way, and their ordering may change at any point. WARNING: When using {getRoleMember} and {getRoleMemberCount}, make sure you perform all queries on the same block. See the following https://forum.openzeppelin.com/t/iterating-over-elements-on-enumerableset-in-openzeppelin-contracts/2296[forum post] for more information."
      },
      "getRoleMemberCount(bytes32)": {
        "details": "Returns the number of accounts that have `role`. Can be used together with {getRoleMember} to enumerate all bearers of a role."
      },
      "grantRole(bytes32,address)": {
        "details": "Overload {grantRole} to track enumerable memberships"
      },
      "hasRole(bytes32,address)": {
        "details": "Returns `true` if `account` has been granted `role`."
      },
      "removeLockGateway(string)": {
        "params": {
          "symbol": "The symbol of the token to deregister."
        }
      },
      "removeMintGateway(string)": {
        "params": {
          "symbol": "The symbol of the token to deregister."
        }
      },
      "renounceRole(bytes32,address)": {
        "details": "Overload {renounceRole} to track enumerable memberships"
      },
      "revokeRole(bytes32,address)": {
        "details": "Overload {revokeRole} to track enumerable memberships"
      },
      "supportsInterface(bytes4)": {
        "details": "See {IERC165-supportsInterface}."
      },
      "updateSignatureVerifier(address)": {
        "params": {
          "nextSignatureVerifier": "The new verifier contract address."
        }
      }
    },
    "version": 1
  },
  "userdoc": {
    "kind": "user",
    "methods": {
      "addLockGateway(string,address,address)": {
        "notice": "Allow the owner to set the Gateway contract for a given         RenERC20 token contract."
      },
      "addMintGateway(string,address,address)": {
        "notice": "Allow the owner to set the Gateway contract for a given         RenERC20 token contract."
      },
      "getGatewayBySymbol(string)": {
        "notice": "Deprecated in favour of getMintGatewayBySymbol."
      },
      "getGatewayByToken(address)": {
        "notice": "Deprecated in favour of getMintGatewayByToken."
      },
      "getMintGatewayBySymbol(string)": {
        "notice": "Returns the Gateway contract for the given RenERC20 token         symbol."
      },
      "getMintGatewayByToken(address)": {
        "notice": "Returns the Gateway contract for the given RenERC20 token         address."
      },
      "getRenAssetBySymbol(string)": {
        "notice": "Returns the RenERC20 address for the given token symbol."
      },
      "getTokenBySymbol(string)": {
        "notice": "Deprecated in favour of getRenAssetBySymbol."
      },
      "removeLockGateway(string)": {
        "notice": "Allows the owner to remove the Gateway contract for a given         asset contract."
      },
      "removeMintGateway(string)": {
        "notice": "Allows the owner to remove the Gateway contract for a given         RenERC20 contract."
      },
      "updateSignatureVerifier(address)": {
        "notice": "Allow the owner to update the signature verifier contract."
      }
    },
    "notice": "GatewayRegistry is a mapping from assets to their associated RenERC20 and Gateway contracts.",
    "version": 1
  },
  "storageLayout": {
    "storage": [
      {
        "astId": 773,
        "contract": "src/GatewayRegistry/GatewayRegistry.sol:GatewayRegistryV2",
        "label": "_initialized",
        "offset": 0,
        "slot": "0",
        "type": "t_bool"
      },
      {
        "astId": 776,
        "contract": "src/GatewayRegistry/GatewayRegistry.sol:GatewayRegistryV2",
        "label": "_initializing",
        "offset": 1,
        "slot": "0",
        "type": "t_bool"
      },
      {
        "astId": 1994,
        "contract": "src/GatewayRegistry/GatewayRegistry.sol:GatewayRegistryV2",
        "label": "__gap",
        "offset": 0,
        "slot": "1",
        "type": "t_array(t_uint256)50_storage"
      },
      {
        "astId": 2243,
        "contract": "src/GatewayRegistry/GatewayRegistry.sol:GatewayRegistryV2",
        "label": "__gap",
        "offset": 0,
        "slot": "51",
        "type": "t_array(t_uint256)50_storage"
      },
      {
        "astId": 258,
        "contract": "src/GatewayRegistry/GatewayRegistry.sol:GatewayRegistryV2",
        "label": "_roles",
        "offset": 0,
        "slot": "101",
        "type": "t_mapping(t_bytes32,t_struct(RoleData)253_storage)"
      },
      {
        "astId": 543,
        "contract": "src/GatewayRegistry/GatewayRegistry.sol:GatewayRegistryV2",
        "label": "__gap",
        "offset": 0,
        "slot": "102",
        "type": "t_array(t_uint256)49_storage"
      },
      {
        "astId": 45,
        "contract": "src/GatewayRegistry/GatewayRegistry.sol:GatewayRegistryV2",
        "label": "_roleMembers",
        "offset": 0,
        "slot": "151",
        "type": "t_mapping(t_bytes32,t_struct(AddressSet)2568_storage)"
      },
      {
        "astId": 208,
        "contract": "src/GatewayRegistry/GatewayRegistry.sol:GatewayRegistryV2",
        "label": "__gap",
        "offset": 0,
        "slot": "152",
        "type": "t_array(t_uint256)49_storage"
      },
      {
        "astId": 7564,
        "contract": "src/GatewayRegistry/GatewayRegistry.sol:GatewayRegistryV2",
        "label": "_renAssetProxyBeacon",
        "offset": 0,
        "slot": "201",
        "type": "t_contract(RenAssetProxyBeaconV1)7513"
      },
      {
        "astId": 7567,
        "contract": "src/GatewayRegistry/GatewayRegistry.sol:GatewayRegistryV2",
        "label": "_mintGatewayProxyBeacon",
        "offset": 0,
        "slot": "202",
        "type": "t_contract(MintGatewayProxyBeaconV1)7528"
      },
      {
        "astId": 7570,
        "contract": "src/GatewayRegistry/GatewayRegistry.sol:GatewayRegistryV2",
        "label": "_lockGatewayProxyBeacon",
        "offset": 0,
        "slot": "203",
        "type": "t_contract(LockGatewayProxyBeaconV1)7543"
      },
      {
        "astId": 6378,
        "contract": "src/GatewayRegistry/GatewayRegistry.sol:GatewayRegistryV2",
        "label": "mintGatewaySymbols",
        "offset": 0,
        "slot": "204",
        "type": "t_struct(Set)7815_storage"
      },
      {
        "astId": 6381,
        "contract": "src/GatewayRegistry/GatewayRegistry.sol:GatewayRegistryV2",
        "label": "lockGatewaySymbols",
        "offset": 0,
        "slot": "206",
        "type": "t_struct(Set)7815_storage"
      },
      {
        "astId": 6385,
        "contract": "src/GatewayRegistry/GatewayRegistry.sol:GatewayRegistryV2",
        "label": "mintSymbolByToken",
        "offset": 0,
        "slot": "208",
        "type": "t_mapping(t_address,t_string_storage)"
      },
      {
        "astId": 6390,
        "contract": "src/GatewayRegistry/GatewayRegistry.sol:GatewayRegistryV2",
        "label": "mintGatewayDetailsBySymbol",
        "offset": 0,
        "slot": "209",
        "type": "t_mapping(t_string_memory_ptr,t_struct(GatewayDetails)6375_storage)"
      },
      {
        "astId": 6394,
        "contract": "src/GatewayRegistry/GatewayRegistry.sol:GatewayRegistryV2",
        "label": "lockSymbolByToken",
        "offset": 0,
        "slot": "210",
        "type": "t_mapping(t_address,t_string_storage)"
      },
      {
        "astId": 6399,
        "contract": "src/GatewayRegistry/GatewayRegistry.sol:GatewayRegistryV2",
        "label": "lockGatewayDetailsBySymbol",
        "offset": 0,
        "slot": "211",
        "type": "t_mapping(t_string_memory_ptr,t_struct(GatewayDetails)6375_storage)"
      },
      {
        "astId": 6401,
        "contract": "src/GatewayRegistry/GatewayRegistry.sol:GatewayRegistryV2",
        "label": "_signatureVerifier",
        "offset": 0,
        "slot": "212",
        "type": "t_address"
      },
      {
        "astId": 6403,
        "contract": "src/GatewayRegistry/GatewayRegistry.sol:GatewayRegistryV2",
        "label": "_chainId",
        "offset": 0,
        "slot": "213",
        "type": "t_uint256"
      },
      {
        "astId": 6405,
        "contract": "src/GatewayRegistry/GatewayRegistry.sol:GatewayRegistryV2",
        "label": "_chainName",
        "offset": 0,
        "slot": "214",
        "type": "t_string_storage"
      }
    ],
    "types": {
      "t_address": {
        "encoding": "inplace",
        "label": "address",
        "numberOfBytes": "20"
      },
      "t_array(t_bytes32)dyn_storage": {
        "base": "t_bytes32",
        "encoding": "dynamic_array",
        "label": "bytes32[]",
        "numberOfBytes": "32"
      },
      "t_array(t_string_storage)dyn_storage": {
        "base": "t_string_storage",
        "encoding": "dynamic_array",
        "label": "string[]",
        "numberOfBytes": "32"
      },
      "t_array(t_uint256)49_storage": {
        "base": "t_uint256",
        "encoding": "inplace",
        "label": "uint256[49]",
        "numberOfBytes": "1568"
      },
      "t_array(t_uint256)50_storage": {
        "base": "t_uint256",
        "encoding": "inplace",
        "label": "uint256[50]",
        "numberOfBytes": "1600"
      },
      "t_bool": {
        "encoding": "inplace",
        "label": "bool",
        "numberOfBytes": "1"
      },
      "t_bytes32": {
        "encoding": "inplace",
        "label": "bytes32",
        "numberOfBytes": "32"
      },
      "t_contract(LockGatewayProxyBeaconV1)7543": {
        "encoding": "inplace",
        "label": "contract LockGatewayProxyBeaconV1",
        "numberOfBytes": "20"
      },
      "t_contract(MintGatewayProxyBeaconV1)7528": {
        "encoding": "inplace",
        "label": "contract MintGatewayProxyBeaconV1",
        "numberOfBytes": "20"
      },
      "t_contract(RenAssetProxyBeaconV1)7513": {
        "encoding": "inplace",
        "label": "contract RenAssetProxyBeaconV1",
        "numberOfBytes": "20"
      },
      "t_mapping(t_address,t_bool)": {
        "encoding": "mapping",
        "key": "t_address",
        "label": "mapping(address => bool)",
        "numberOfBytes": "32",
        "value": "t_bool"
      },
      "t_mapping(t_address,t_string_storage)": {
        "encoding": "mapping",
        "key": "t_address",
        "label": "mapping(address => string)",
        "numberOfBytes": "32",
        "value": "t_string_storage"
      },
      "t_mapping(t_bytes32,t_struct(AddressSet)2568_storage)": {
        "encoding": "mapping",
        "key": "t_bytes32",
        "label": "mapping(bytes32 => struct EnumerableSetUpgradeable.AddressSet)",
        "numberOfBytes": "32",
        "value": "t_struct(AddressSet)2568_storage"
      },
      "t_mapping(t_bytes32,t_struct(RoleData)253_storage)": {
        "encoding": "mapping",
        "key": "t_bytes32",
        "label": "mapping(bytes32 => struct AccessControlUpgradeable.RoleData)",
        "numberOfBytes": "32",
        "value": "t_struct(RoleData)253_storage"
      },
      "t_mapping(t_bytes32,t_uint256)": {
        "encoding": "mapping",
        "key": "t_bytes32",
        "label": "mapping(bytes32 => uint256)",
        "numberOfBytes": "32",
        "value": "t_uint256"
      },
      "t_mapping(t_string_memory_ptr,t_struct(GatewayDetails)6375_storage)": {
        "encoding": "mapping",
        "key": "t_string_memory_ptr",
        "label": "mapping(string => struct GatewayRegistryStateV2.GatewayDetails)",
        "numberOfBytes": "32",
        "value": "t_struct(GatewayDetails)6375_storage"
      },
      "t_mapping(t_string_memory_ptr,t_uint256)": {
        "encoding": "mapping",
        "key": "t_string_memory_ptr",
        "label": "mapping(string => uint256)",
        "numberOfBytes": "32",
        "value": "t_uint256"
      },
      "t_string_memory_ptr": {
        "encoding": "bytes",
        "label": "string",
        "numberOfBytes": "32"
      },
      "t_string_storage": {
        "encoding": "bytes",
        "label": "string",
        "numberOfBytes": "32"
      },
      "t_struct(AddressSet)2568_storage": {
        "encoding": "inplace",
        "label": "struct EnumerableSetUpgradeable.AddressSet",
        "members": [
          {
            "astId": 2567,
            "contract": "src/GatewayRegistry/GatewayRegistry.sol:GatewayRegistryV2",
            "label": "_inner",
            "offset": 0,
            "slot": "0",
            "type": "t_struct(Set)2267_storage"
          }
        ],
        "numberOfBytes": "64"
      },
      "t_struct(GatewayDetails)6375_storage": {
        "encoding": "inplace",
        "label": "struct GatewayRegistryStateV2.GatewayDetails",
        "members": [
          {
            "astId": 6372,
            "contract": "src/GatewayRegistry/GatewayRegistry.sol:GatewayRegistryV2",
            "label": "gateway",
            "offset": 0,
            "slot": "0",
            "type": "t_address"
          },
          {
            "astId": 6374,
            "contract": "src/GatewayRegistry/GatewayRegistry.sol:GatewayRegistryV2",
            "label": "token",
            "offset": 0,
            "slot": "1",
            "type": "t_address"
          }
        ],
        "numberOfBytes": "64"
      },
      "t_struct(RoleData)253_storage": {
        "encoding": "inplace",
        "label": "struct AccessControlUpgradeable.RoleData",
        "members": [
          {
            "astId": 250,
            "contract": "src/GatewayRegistry/GatewayRegistry.sol:GatewayRegistryV2",
            "label": "members",
            "offset": 0,
            "slot": "0",
            "type": "t_mapping(t_address,t_bool)"
          },
          {
            "astId": 252,
            "contract": "src/GatewayRegistry/GatewayRegistry.sol:GatewayRegistryV2",
            "label": "adminRole",
            "offset": 0,
            "slot": "1",
            "type": "t_bytes32"
          }
        ],
        "numberOfBytes": "64"
      },
      "t_struct(Set)2267_storage": {
        "encoding": "inplace",
        "label": "struct EnumerableSetUpgradeable.Set",
        "members": [
          {
            "astId": 2262,
            "contract": "src/GatewayRegistry/GatewayRegistry.sol:GatewayRegistryV2",
            "label": "_values",
            "offset": 0,
            "slot": "0",
            "type": "t_array(t_bytes32)dyn_storage"
          },
          {
            "astId": 2266,
            "contract": "src/GatewayRegistry/GatewayRegistry.sol:GatewayRegistryV2",
            "label": "_indexes",
            "offset": 0,
            "slot": "1",
            "type": "t_mapping(t_bytes32,t_uint256)"
          }
        ],
        "numberOfBytes": "64"
      },
      "t_struct(Set)7815_storage": {
        "encoding": "inplace",
        "label": "struct StringSet.Set",
        "members": [
          {
            "astId": 7810,
            "contract": "src/GatewayRegistry/GatewayRegistry.sol:GatewayRegistryV2",
            "label": "_values",
            "offset": 0,
            "slot": "0",
            "type": "t_array(t_string_storage)dyn_storage"
          },
          {
            "astId": 7814,
            "contract": "src/GatewayRegistry/GatewayRegistry.sol:GatewayRegistryV2",
            "label": "_indexes",
            "offset": 0,
            "slot": "1",
            "type": "t_mapping(t_string_memory_ptr,t_uint256)"
          }
        ],
        "numberOfBytes": "64"
      },
      "t_uint256": {
        "encoding": "inplace",
        "label": "uint256",
        "numberOfBytes": "32"
      }
    }
  }
}