{
  "address": "0x3cCCbc9Fc0fa2B58861Ccf0294a9aBe550C0618D",
  "abi": [
    {
      "anonymous": false,
      "inputs": [
        {
          "indexed": false,
          "internalType": "string",
          "name": "symbol",
          "type": "string"
        },
        {
          "indexed": true,
          "internalType": "string",
          "name": "indexedSymbol",
          "type": "string"
        }
      ],
      "name": "LogLockGatewayDeleted",
      "type": "event"
    },
    {
      "anonymous": false,
      "inputs": [
        {
          "indexed": false,
          "internalType": "string",
          "name": "symbol",
          "type": "string"
        },
        {
          "indexed": true,
          "internalType": "string",
          "name": "indexedSymbol",
          "type": "string"
        },
        {
          "indexed": true,
          "internalType": "address",
          "name": "token",
          "type": "address"
        },
        {
          "indexed": true,
          "internalType": "address",
          "name": "gatewayContract",
          "type": "address"
        }
      ],
      "name": "LogLockGatewayUpdated",
      "type": "event"
    },
    {
      "anonymous": false,
      "inputs": [
        {
          "indexed": false,
          "internalType": "string",
          "name": "symbol",
          "type": "string"
        },
        {
          "indexed": true,
          "internalType": "string",
          "name": "indexedSymbol",
          "type": "string"
        }
      ],
      "name": "LogMintGatewayDeleted",
      "type": "event"
    },
    {
      "anonymous": false,
      "inputs": [
        {
          "indexed": false,
          "internalType": "string",
          "name": "symbol",
          "type": "string"
        },
        {
          "indexed": true,
          "internalType": "string",
          "name": "indexedSymbol",
          "type": "string"
        },
        {
          "indexed": true,
          "internalType": "address",
          "name": "token",
          "type": "address"
        },
        {
          "indexed": true,
          "internalType": "address",
          "name": "gatewayContract",
          "type": "address"
        }
      ],
      "name": "LogMintGatewayUpdated",
      "type": "event"
    },
    {
      "anonymous": false,
      "inputs": [
        {
          "indexed": true,
          "internalType": "address",
          "name": "newSignatureVerifier",
          "type": "address"
        }
      ],
      "name": "LogSignatureVerifierUpdated",
      "type": "event"
    },
    {
      "anonymous": false,
      "inputs": [
        {
          "indexed": true,
          "internalType": "address",
          "name": "newTransferWithLog",
          "type": "address"
        }
      ],
      "name": "LogTransferWithLogUpdated",
      "type": "event"
    },
    {
      "anonymous": false,
      "inputs": [
        {
          "indexed": true,
          "internalType": "bytes32",
          "name": "role",
          "type": "bytes32"
        },
        {
          "indexed": true,
          "internalType": "bytes32",
          "name": "previousAdminRole",
          "type": "bytes32"
        },
        {
          "indexed": true,
          "internalType": "bytes32",
          "name": "newAdminRole",
          "type": "bytes32"
        }
      ],
      "name": "RoleAdminChanged",
      "type": "event"
    },
    {
      "anonymous": false,
      "inputs": [
        {
          "indexed": true,
          "internalType": "bytes32",
          "name": "role",
          "type": "bytes32"
        },
        {
          "indexed": true,
          "internalType": "address",
          "name": "account",
          "type": "address"
        },
        {
          "indexed": true,
          "internalType": "address",
          "name": "sender",
          "type": "address"
        }
      ],
      "name": "RoleGranted",
      "type": "event"
    },
    {
      "anonymous": false,
      "inputs": [
        {
          "indexed": true,
          "internalType": "bytes32",
          "name": "role",
          "type": "bytes32"
        },
        {
          "indexed": true,
          "internalType": "address",
          "name": "account",
          "type": "address"
        },
        {
          "indexed": true,
          "internalType": "address",
          "name": "sender",
          "type": "address"
        }
      ],
      "name": "RoleRevoked",
      "type": "event"
    },
    {
      "inputs": [],
      "name": "CAN_ADD_GATEWAYS",
      "outputs": [
        {
          "internalType": "bytes32",
          "name": "",
          "type": "bytes32"
        }
      ],
      "stateMutability": "view",
      "type": "function"
    },
    {
      "inputs": [],
      "name": "CAN_UPDATE_GATEWAYS",
      "outputs": [
        {
          "internalType": "bytes32",
          "name": "",
          "type": "bytes32"
        }
      ],
      "stateMutability": "view",
      "type": "function"
    },
    {
      "inputs": [],
      "name": "DEFAULT_ADMIN_ROLE",
      "outputs": [
        {
          "internalType": "bytes32",
          "name": "",
          "type": "bytes32"
        }
      ],
      "stateMutability": "view",
      "type": "function"
    },
    {
      "inputs": [
        {
          "internalType": "string",
          "name": "chainName_",
          "type": "string"
        },
        {
          "internalType": "uint256",
          "name": "chainId_",
          "type": "uint256"
        },
        {
          "internalType": "address",
          "name": "renAssetProxyBeacon_",
          "type": "address"
        },
        {
          "internalType": "address",
          "name": "mintGatewayProxyBeacon_",
          "type": "address"
        },
        {
          "internalType": "address",
          "name": "lockGatewayProxyBeacon_",
          "type": "address"
        },
        {
          "internalType": "address",
          "name": "adminAddress",
          "type": "address"
        },
        {
          "internalType": "address",
          "name": "transferWithLog",
          "type": "address"
        }
      ],
      "name": "__GatewayRegistry_init",
      "outputs": [],
      "stateMutability": "nonpayable",
      "type": "function"
    },
    {
      "inputs": [
        {
          "internalType": "address",
          "name": "renAssetProxyBeacon_",
          "type": "address"
        },
        {
          "internalType": "address",
          "name": "mintGatewayProxyBeacon_",
          "type": "address"
        },
        {
          "internalType": "address",
          "name": "lockGatewayProxyBeacon_",
          "type": "address"
        }
      ],
      "name": "__RenAssetFactory_init",
      "outputs": [],
      "stateMutability": "nonpayable",
      "type": "function"
    },
    {
      "inputs": [
        {
          "internalType": "string",
          "name": "symbol",
          "type": "string"
        },
        {
          "internalType": "address",
          "name": "lockAsset",
          "type": "address"
        },
        {
          "internalType": "address",
          "name": "lockGateway",
          "type": "address"
        }
      ],
      "name": "addLockGateway",
      "outputs": [],
      "stateMutability": "nonpayable",
      "type": "function"
    },
    {
      "inputs": [
        {
          "internalType": "string",
          "name": "symbol",
          "type": "string"
        },
        {
          "internalType": "address",
          "name": "renAsset",
          "type": "address"
        },
        {
          "internalType": "address",
          "name": "mintGateway",
          "type": "address"
        }
      ],
      "name": "addMintGateway",
      "outputs": [],
      "stateMutability": "nonpayable",
      "type": "function"
    },
    {
      "inputs": [],
      "name": "chainId",
      "outputs": [
        {
          "internalType": "uint256",
          "name": "",
          "type": "uint256"
        }
      ],
      "stateMutability": "view",
      "type": "function"
    },
    {
      "inputs": [],
      "name": "chainName",
      "outputs": [
        {
          "internalType": "string",
          "name": "",
          "type": "string"
        }
      ],
      "stateMutability": "view",
      "type": "function"
    },
    {
      "inputs": [
        {
          "internalType": "string",
          "name": "symbol",
          "type": "string"
        },
        {
          "internalType": "address",
          "name": "lockToken",
          "type": "address"
        },
        {
          "internalType": "string",
          "name": "version",
          "type": "string"
        }
      ],
      "name": "deployLockGateway",
      "outputs": [],
      "stateMutability": "nonpayable",
      "type": "function"
    },
    {
      "inputs": [
        {
          "internalType": "string",
          "name": "symbol",
          "type": "string"
        },
        {
          "internalType": "address",
          "name": "renAsset",
          "type": "address"
        },
        {
          "internalType": "string",
          "name": "version",
          "type": "string"
        }
      ],
      "name": "deployMintGateway",
      "outputs": [],
      "stateMutability": "nonpayable",
      "type": "function"
    },
    {
      "inputs": [
        {
          "internalType": "string",
          "name": "symbol",
          "type": "string"
        },
        {
          "internalType": "string",
          "name": "erc20Name",
          "type": "string"
        },
        {
          "internalType": "string",
          "name": "erc20Symbol",
          "type": "string"
        },
        {
          "internalType": "uint8",
          "name": "erc20Decimals",
          "type": "uint8"
        },
        {
          "internalType": "string",
          "name": "version",
          "type": "string"
        }
      ],
      "name": "deployMintGatewayAndRenAsset",
      "outputs": [],
      "stateMutability": "nonpayable",
      "type": "function"
    },
    {
      "inputs": [
        {
          "internalType": "string",
          "name": "tokenSymbol",
          "type": "string"
        }
      ],
      "name": "getGatewayBySymbol",
      "outputs": [
        {
          "internalType": "contract IMintGateway",
          "name": "",
          "type": "address"
        }
      ],
      "stateMutability": "view",
      "type": "function"
    },
    {
      "inputs": [
        {
          "internalType": "address",
          "name": "token",
          "type": "address"
        }
      ],
      "name": "getGatewayByToken",
      "outputs": [
        {
          "internalType": "contract IMintGateway",
          "name": "",
          "type": "address"
        }
      ],
      "stateMutability": "view",
      "type": "function"
    },
    {
      "inputs": [
        {
          "internalType": "string",
          "name": "tokenSymbol",
          "type": "string"
        }
      ],
      "name": "getLockAssetBySymbol",
      "outputs": [
        {
          "internalType": "contract IERC20",
          "name": "",
          "type": "address"
        }
      ],
      "stateMutability": "view",
      "type": "function"
    },
    {
      "inputs": [
        {
          "internalType": "string",
          "name": "tokenSymbol",
          "type": "string"
        }
      ],
      "name": "getLockGatewayBySymbol",
      "outputs": [
        {
          "internalType": "contract ILockGateway",
          "name": "",
          "type": "address"
        }
      ],
      "stateMutability": "view",
      "type": "function"
    },
    {
      "inputs": [
        {
          "internalType": "address",
          "name": "token_",
          "type": "address"
        }
      ],
      "name": "getLockGatewayByToken",
      "outputs": [
        {
          "internalType": "contract ILockGateway",
          "name": "",
          "type": "address"
        }
      ],
      "stateMutability": "view",
      "type": "function"
    },
    {
      "inputs": [
        {
          "internalType": "uint256",
          "name": "from",
          "type": "uint256"
        },
        {
          "internalType": "uint256",
          "name": "count",
          "type": "uint256"
        }
      ],
      "name": "getLockGatewaySymbols",
      "outputs": [
        {
          "internalType": "string[]",
          "name": "",
          "type": "string[]"
        }
      ],
      "stateMutability": "view",
      "type": "function"
    },
    {
      "inputs": [
        {
          "internalType": "string",
          "name": "tokenSymbol",
          "type": "string"
        }
      ],
      "name": "getMintGatewayBySymbol",
      "outputs": [
        {
          "internalType": "contract IMintGateway",
          "name": "",
          "type": "address"
        }
      ],
      "stateMutability": "view",
      "type": "function"
    },
    {
      "inputs": [
        {
          "internalType": "address",
          "name": "token",
          "type": "address"
        }
      ],
      "name": "getMintGatewayByToken",
      "outputs": [
        {
          "internalType": "contract IMintGateway",
          "name": "",
          "type": "address"
        }
      ],
      "stateMutability": "view",
      "type": "function"
    },
    {
      "inputs": [
        {
          "internalType": "uint256",
          "name": "from",
          "type": "uint256"
        },
        {
          "internalType": "uint256",
          "name": "count",
          "type": "uint256"
        }
      ],
      "name": "getMintGatewaySymbols",
      "outputs": [
        {
          "internalType": "string[]",
          "name": "",
          "type": "string[]"
        }
      ],
      "stateMutability": "view",
      "type": "function"
    },
    {
      "inputs": [
        {
          "internalType": "string",
          "name": "tokenSymbol",
          "type": "string"
        }
      ],
      "name": "getRenAssetBySymbol",
      "outputs": [
        {
          "internalType": "contract IERC20",
          "name": "",
          "type": "address"
        }
      ],
      "stateMutability": "view",
      "type": "function"
    },
    {
      "inputs": [
        {
          "internalType": "bytes32",
          "name": "role",
          "type": "bytes32"
        }
      ],
      "name": "getRoleAdmin",
      "outputs": [
        {
          "internalType": "bytes32",
          "name": "",
          "type": "bytes32"
        }
      ],
      "stateMutability": "view",
      "type": "function"
    },
    {
      "inputs": [
        {
          "internalType": "bytes32",
          "name": "role",
          "type": "bytes32"
        },
        {
          "internalType": "uint256",
          "name": "index",
          "type": "uint256"
        }
      ],
      "name": "getRoleMember",
      "outputs": [
        {
          "internalType": "address",
          "name": "",
          "type": "address"
        }
      ],
      "stateMutability": "view",
      "type": "function"
    },
    {
      "inputs": [
        {
          "internalType": "bytes32",
          "name": "role",
          "type": "bytes32"
        }
      ],
      "name": "getRoleMemberCount",
      "outputs": [
        {
          "internalType": "uint256",
          "name": "",
          "type": "uint256"
        }
      ],
      "stateMutability": "view",
      "type": "function"
    },
    {
      "inputs": [],
      "name": "getSignatureVerifier",
      "outputs": [
        {
          "internalType": "address",
          "name": "",
          "type": "address"
        }
      ],
      "stateMutability": "view",
      "type": "function"
    },
    {
      "inputs": [
        {
          "internalType": "string",
          "name": "tokenSymbol",
          "type": "string"
        }
      ],
      "name": "getTokenBySymbol",
      "outputs": [
        {
          "internalType": "contract IERC20",
          "name": "",
          "type": "address"
        }
      ],
      "stateMutability": "view",
      "type": "function"
    },
    {
      "inputs": [],
      "name": "getTransferWithLog",
      "outputs": [
        {
          "internalType": "address",
          "name": "",
          "type": "address"
        }
      ],
      "stateMutability": "view",
      "type": "function"
    },
    {
      "inputs": [
        {
          "internalType": "bytes32",
          "name": "role",
          "type": "bytes32"
        },
        {
          "internalType": "address",
          "name": "account",
          "type": "address"
        }
      ],
      "name": "grantRole",
      "outputs": [],
      "stateMutability": "nonpayable",
      "type": "function"
    },
    {
      "inputs": [
        {
          "internalType": "bytes32",
          "name": "role",
          "type": "bytes32"
        },
        {
          "internalType": "address",
          "name": "account",
          "type": "address"
        }
      ],
      "name": "hasRole",
      "outputs": [
        {
          "internalType": "bool",
          "name": "",
          "type": "bool"
        }
      ],
      "stateMutability": "view",
      "type": "function"
    },
    {
      "inputs": [],
      "name": "lockGatewayProxyBeacon",
      "outputs": [
        {
          "internalType": "contract LockGatewayProxyBeaconV1",
          "name": "",
          "type": "address"
        }
      ],
      "stateMutability": "view",
      "type": "function"
    },
    {
      "inputs": [],
      "name": "mintGatewayProxyBeacon",
      "outputs": [
        {
          "internalType": "contract MintGatewayProxyBeaconV1",
          "name": "",
          "type": "address"
        }
      ],
      "stateMutability": "view",
      "type": "function"
    },
    {
      "inputs": [
        {
          "internalType": "string",
          "name": "symbol",
          "type": "string"
        }
      ],
      "name": "removeLockGateway",
      "outputs": [],
      "stateMutability": "nonpayable",
      "type": "function"
    },
    {
      "inputs": [
        {
          "internalType": "string",
          "name": "symbol",
          "type": "string"
        }
      ],
      "name": "removeMintGateway",
      "outputs": [],
      "stateMutability": "nonpayable",
      "type": "function"
    },
    {
      "inputs": [],
      "name": "renAssetProxyBeacon",
      "outputs": [
        {
          "internalType": "contract RenAssetProxyBeaconV1",
          "name": "",
          "type": "address"
        }
      ],
      "stateMutability": "view",
      "type": "function"
    },
    {
      "inputs": [
        {
          "internalType": "bytes32",
          "name": "role",
          "type": "bytes32"
        },
        {
          "internalType": "address",
          "name": "account",
          "type": "address"
        }
      ],
      "name": "renounceRole",
      "outputs": [],
      "stateMutability": "nonpayable",
      "type": "function"
    },
    {
      "inputs": [
        {
          "internalType": "bytes32",
          "name": "role",
          "type": "bytes32"
        },
        {
          "internalType": "address",
          "name": "account",
          "type": "address"
        }
      ],
      "name": "revokeRole",
      "outputs": [],
      "stateMutability": "nonpayable",
      "type": "function"
    },
    {
      "inputs": [
        {
          "internalType": "bytes4",
          "name": "interfaceId",
          "type": "bytes4"
        }
      ],
      "name": "supportsInterface",
      "outputs": [
        {
          "internalType": "bool",
          "name": "",
          "type": "bool"
        }
      ],
      "stateMutability": "view",
      "type": "function"
    },
    {
      "inputs": [
        {
          "internalType": "address",
          "name": "nextSignatureVerifier",
          "type": "address"
        }
      ],
      "name": "updateSignatureVerifier",
      "outputs": [],
      "stateMutability": "nonpayable",
      "type": "function"
    },
    {
      "inputs": [
        {
          "internalType": "address",
          "name": "nextTransferWithLog",
          "type": "address"
        }
      ],
      "name": "updateTransferWithLog",
      "outputs": [],
      "stateMutability": "nonpayable",
      "type": "function"
    }
  ],
  "transactionHash": "0x4d2d8a066d1cf874e96aac00c5f669a55e2785c2a7a00c129b72fed95d571c29",
  "args": [],
  "solcInputHash": "34e5de9b4927ab4d559ad54463d3faef",
  "bytecode": "0x608060405234801561001057600080fd5b5061576580620000216000396000f3fe608060405234801561001057600080fd5b50600436106102485760003560e01c80635667981b1161013b578063a30c50ba116100b8578063d2b05fb91161007c578063d2b05fb91461074b578063d547741f14610767578063efa74f1f14610783578063f858cb9a146107b3578063fc3212c0146107d157610248565b8063a30c50ba14610695578063aa1ab9e3146106c5578063aa883642146106e3578063beae82ae146106ff578063ca15c8731461071b57610248565b80639010d07c116100ff5780639010d07c146105c957806391d14854146105f95780639a8a0592146106295780639c789bb814610647578063a217fddf1461067757610248565b80635667981b146104ed57806364936b1e1461050957806379c73a7a146105395780637b5c884f14610569578063868b35411461059957610248565b80632d05ba14116101c957806336568abe1161018d57806336568abe1461044d5780633922d13914610469578063462b8ed114610499578063475400ba146104b55780634cb39177146104d157610248565b80632d05ba14146103bb5780632d2798ca146103d95780632f2ff15d146103f557806333a40ccd14610411578063345763ad1461042f57610248565b80631b95e305116102105780631b95e305146102f15780631c93b03a146103215780631f179f6e1461033f578063248a9ca31461035b5780632949c6151461038b57610248565b806301ffc9a71461024d578063058d56781461027d5780630b8e0b3814610299578063114fe9de146102b757806315267d97146102d5575b600080fd5b61026760048036038101906102629190614069565b610801565b6040516102749190614a47565b60405180910390f35b610297600480360381019061029291906142d5565b61087b565b005b6102a1610ab2565b6040516102ae9190614a62565b60405180910390f35b6102bf610ad6565b6040516102cc9190614afe565b60405180910390f35b6102ef60048036038101906102ea91906140e3565b610b00565b005b61030b60048036038101906103069190613f0f565b61104b565b6040516103189190614ae3565b60405180910390f35b61032961105d565b6040516103369190614b73565b60405180910390f35b61035960048036038101906103549190613f69565b6110ef565b005b61037560048036038101906103709190613fbc565b61128e565b6040516103829190614a62565b60405180910390f35b6103a560048036038101906103a09190613f0f565b6112ae565b6040516103b29190614ae3565b60405180910390f35b6103c3611337565b6040516103d09190614b34565b60405180910390f35b6103f360048036038101906103ee9190614096565b611361565b005b61040f600480360381019061040a9190613fe9565b6115fa565b005b61041961162e565b6040516104269190614b19565b60405180910390f35b610437611658565b6040516104449190614a0a565b60405180910390f35b61046760048036038101906104629190613fe9565b611682565b005b610483600480360381019061047e9190614096565b6116b6565b6040516104909190614ac8565b60405180910390f35b6104b360048036038101906104ae9190614157565b611704565b005b6104cf60048036038101906104ca91906140e3565b611843565b005b6104eb60048036038101906104e69190614096565b611d8e565b005b61050760048036038101906105029190613f0f565b61200b565b005b610523600480360381019061051e9190614096565b612157565b6040516105309190614ae3565b60405180910390f35b610553600480360381019061054e9190614096565b61216b565b6040516105609190614aad565b60405180910390f35b610583600480360381019061057e9190614096565b6121b9565b6040516105909190614ae3565b60405180910390f35b6105b360048036038101906105ae9190614397565b612207565b6040516105c09190614a25565b60405180910390f35b6105e360048036038101906105de9190614029565b61221d565b6040516105f09190614a0a565b60405180910390f35b610613600480360381019061060e9190613fe9565b61224c565b6040516106209190614a47565b60405180910390f35b6106316122b7565b60405161063e9190614d2a565b60405180910390f35b610661600480360381019061065c9190614096565b6122c1565b60405161066e9190614aad565b60405180910390f35b61067f61230f565b60405161068c9190614a62565b60405180910390f35b6106af60048036038101906106aa9190614397565b612316565b6040516106bc9190614a25565b60405180910390f35b6106cd61232c565b6040516106da9190614a62565b60405180910390f35b6106fd60048036038101906106f891906141e7565b612350565b005b61071960048036038101906107149190613f0f565b612543565b005b61073560048036038101906107309190613fbc565b61268f565b6040516107429190614d2a565b60405180910390f35b61076560048036038101906107609190614157565b6126b3565b005b610781600480360381019061077c9190613fe9565b6127f2565b005b61079d60048036038101906107989190614096565b612826565b6040516107aa9190614aad565b60405180910390f35b6107bb61283a565b6040516107c89190614a0a565b60405180910390f35b6107eb60048036038101906107e69190613f0f565b612864565b6040516107f89190614ac8565b60405180910390f35b60007f5a05180f000000000000000000000000000000000000000000000000000000007bffffffffffffffffffffffffffffffffffffffffffffffffffffffff1916827bffffffffffffffffffffffffffffffffffffffffffffffffffffffff191614806108745750610873826128ed565b5b9050919050565b600060019054906101000a900460ff16806108a1575060008054906101000a900460ff16155b6108e0576040517f08c379a00000000000000000000000000000000000000000000000000000000081526004016108d790614c2a565b60405180910390fd5b60008060019054906101000a900460ff161590508015610930576001600060016101000a81548160ff02191690831515021790555060016000806101000a81548160ff0219169083151502179055505b888861097f82828080601f016020809104026020016040519081016040528093929190818152602001838380828437600081840152601f19601f82011690508083019250505050505050612967565b6109be576040517f08c379a00000000000000000000000000000000000000000000000000000000081526004016109b590614c4a565b60405180910390fd5b6109c98888886110ef565b8a8a60d691906109da929190613c62565b508860d5819055506109ef6000801b8661298a565b610a197fffddc8bfa55e17b4d21e6c83e86327dfded4d7c9dd051c00ab7b11c8a387c14a8661298a565b610a437f906a1b6d8666ab930891bffd6f4ca7e6fa437b6e3a66b10e0206c563ed50772b8661298a565b8360d760006101000a81548173ffffffffffffffffffffffffffffffffffffffff021916908373ffffffffffffffffffffffffffffffffffffffff16021790555050508015610aa75760008060016101000a81548160ff0219169083151502179055505b505050505050505050565b7fffddc8bfa55e17b4d21e6c83e86327dfded4d7c9dd051c00ab7b11c8a387c14a81565b600060cb60009054906101000a900473ffffffffffffffffffffffffffffffffffffffff16905090565b8383610b4f82828080601f016020809104026020016040519081016040528093929190818152602001838380828437600081840152601f19601f82011690508083019250505050505050612967565b610b8e576040517f08c379a0000000000000000000000000000000000000000000000000000000008152600401610b8590614c4a565b60405180910390fd5b7f906a1b6d8666ab930891bffd6f4ca7e6fa437b6e3a66b10e0206c563ed50772b7fffddc8bfa55e17b4d21e6c83e86327dfded4d7c9dd051c00ab7b11c8a387c14a6000610bda6129be565b9050610be6838261224c565b158015610bfa5750610bf8828261224c565b155b15610c9957610c208173ffffffffffffffffffffffffffffffffffffffff1660146129c6565b610c2e8460001c60206129c6565b610c3c8460001c60206129c6565b604051602001610c4e9392919061497e565b6040516020818303038152906040526040517f08c379a0000000000000000000000000000000000000000000000000000000008152600401610c909190614b73565b60405180910390fd5b610cf189898080601f016020809104026020016040519081016040528093929190818152602001838380828437600081840152601f19601f8201169050808301925050505050505060cc612c0290919063ffffffff16565b15610d0157610d008989611361565b5b610d5989898080601f016020809104026020016040519081016040528093929190818152602001838380828437600081840152601f19601f8201169050808301925050505050505060cc612c0290919063ffffffff16565b15610d99576040517f08c379a0000000000000000000000000000000000000000000000000000000008152600401610d9090614cca565b60405180910390fd5b600060d060008973ffffffffffffffffffffffffffffffffffffffff1673ffffffffffffffffffffffffffffffffffffffff1681526020019081526020016000208054610de590615110565b905014610e27576040517f08c379a0000000000000000000000000000000000000000000000000000000008152600401610e1e90614c6a565b60405180910390fd5b610e7f89898080601f016020809104026020016040519081016040528093929190818152602001838380828437600081840152601f19601f8201169050808301925050505050505060cc612c3090919063ffffffff16565b5060405180604001604052808773ffffffffffffffffffffffffffffffffffffffff1681526020018873ffffffffffffffffffffffffffffffffffffffff1681525060d18a8a604051610ed39291906148e2565b908152602001604051809103902060008201518160000160006101000a81548173ffffffffffffffffffffffffffffffffffffffff021916908373ffffffffffffffffffffffffffffffffffffffff16021790555060208201518160010160006101000a81548173ffffffffffffffffffffffffffffffffffffffff021916908373ffffffffffffffffffffffffffffffffffffffff160217905550905050888860d060008a73ffffffffffffffffffffffffffffffffffffffff1673ffffffffffffffffffffffffffffffffffffffff1681526020019081526020016000209190610fc0929190613c62565b508573ffffffffffffffffffffffffffffffffffffffff168773ffffffffffffffffffffffffffffffffffffffff168a8a604051610fff9291906148e2565b60405180910390207f4682b5e1653a49766b0abf114d3911a5c27599ae3a9e11f390ce9bf06cff0a128c8c604051611038929190614b4f565b60405180910390a4505050505050505050565b6000611056826112ae565b9050919050565b606060d6805461106c90615110565b80601f016020809104026020016040519081016040528092919081815260200182805461109890615110565b80156110e55780601f106110ba576101008083540402835291602001916110e5565b820191906000526020600020905b8154815290600101906020018083116110c857829003601f168201915b5050505050905090565b600060019054906101000a900460ff1680611115575060008054906101000a900460ff16155b611154576040517f08c379a000000000000000000000000000000000000000000000000000000000815260040161114b90614c2a565b60405180910390fd5b60008060019054906101000a900460ff1615905080156111a4576001600060016101000a81548160ff02191690831515021790555060016000806101000a81548160ff0219169083151502179055505b8360c960006101000a81548173ffffffffffffffffffffffffffffffffffffffff021916908373ffffffffffffffffffffffffffffffffffffffff1602179055508260ca60006101000a81548173ffffffffffffffffffffffffffffffffffffffff021916908373ffffffffffffffffffffffffffffffffffffffff1602179055508160cb60006101000a81548173ffffffffffffffffffffffffffffffffffffffff021916908373ffffffffffffffffffffffffffffffffffffffff16021790555080156112885760008060016101000a81548160ff0219169083151502179055505b50505050565b600060656000838152602001908152602001600020600101549050919050565b600060d160d060008473ffffffffffffffffffffffffffffffffffffffff1673ffffffffffffffffffffffffffffffffffffffff1681526020019081526020016000206040516112fe9190614938565b908152602001604051809103902060000160009054906101000a900473ffffffffffffffffffffffffffffffffffffffff169050919050565b600060c960009054906101000a900473ffffffffffffffffffffffffffffffffffffffff16905090565b7fffddc8bfa55e17b4d21e6c83e86327dfded4d7c9dd051c00ab7b11c8a387c14a6113938161138e6129be565b612cbe565b600073ffffffffffffffffffffffffffffffffffffffff1660d184846040516113bd9291906148e2565b908152602001604051809103902060010160009054906101000a900473ffffffffffffffffffffffffffffffffffffffff1673ffffffffffffffffffffffffffffffffffffffff161415611446576040517f08c379a000000000000000000000000000000000000000000000000000000000815260040161143d90614c0a565b60405180910390fd5b600060d1848460405161145a9291906148e2565b908152602001604051809103902060010160009054906101000a900473ffffffffffffffffffffffffffffffffffffffff16905060d060008273ffffffffffffffffffffffffffffffffffffffff1673ffffffffffffffffffffffffffffffffffffffff16815260200190815260200160002060006114d99190613ce8565b60d184846040516114eb9291906148e2565b9081526020016040518091039020600080820160006101000a81549073ffffffffffffffffffffffffffffffffffffffff02191690556001820160006101000a81549073ffffffffffffffffffffffffffffffffffffffff021916905550506115a284848080601f016020809104026020016040519081016040528093929190818152602001838380828437600081840152601f19601f8201169050808301925050505050505060cc612d5b90919063ffffffff16565b5083836040516115b39291906148e2565b60405180910390207f5c6bce771f0acc024cb1447391030e98a8f38e5cb550e1c5bda96e12aa3044bf85856040516115ec929190614b4f565b60405180910390a250505050565b6116048282612f30565b6116298160976000858152602001908152602001600020612f5990919063ffffffff16565b505050565b600060ca60009054906101000a900473ffffffffffffffffffffffffffffffffffffffff16905090565b600060d460009054906101000a900473ffffffffffffffffffffffffffffffffffffffff16905090565b61168c8282612f89565b6116b1816097600085815260200190815260200160002061300c90919063ffffffff16565b505050565b600060d383836040516116ca9291906148e2565b908152602001604051809103902060000160009054906101000a900473ffffffffffffffffffffffffffffffffffffffff16905092915050565b7f906a1b6d8666ab930891bffd6f4ca7e6fa437b6e3a66b10e0206c563ed50772b611736816117316129be565b612cbe565b600061174061105d565b90506000815111611786576040517f08c379a000000000000000000000000000000000000000000000000000000000815260040161177d90614c8a565b60405180910390fd5b6117de86868080601f016020809104026020016040519081016040528093929190818152602001838380828437600081840152601f19601f8201169050808301925050505050505060cc612c0290919063ffffffff16565b15611815576118147fffddc8bfa55e17b4d21e6c83e86327dfded4d7c9dd051c00ab7b11c8a387c14a61180f6129be565b612cbe565b5b600061182c828888611825611658565b898961303c565b905061183a87878784610b00565b50505050505050565b838361189282828080601f016020809104026020016040519081016040528093929190818152602001838380828437600081840152601f19601f82011690508083019250505050505050612967565b6118d1576040517f08c379a00000000000000000000000000000000000000000000000000000000081526004016118c890614c4a565b60405180910390fd5b7f906a1b6d8666ab930891bffd6f4ca7e6fa437b6e3a66b10e0206c563ed50772b7fffddc8bfa55e17b4d21e6c83e86327dfded4d7c9dd051c00ab7b11c8a387c14a600061191d6129be565b9050611929838261224c565b15801561193d575061193b828261224c565b155b156119dc576119638173ffffffffffffffffffffffffffffffffffffffff1660146129c6565b6119718460001c60206129c6565b61197f8460001c60206129c6565b6040516020016119919392919061497e565b6040516020818303038152906040526040517f08c379a00000000000000000000000000000000000000000000000000000000081526004016119d39190614b73565b60405180910390fd5b611a3489898080601f016020809104026020016040519081016040528093929190818152602001838380828437600081840152601f19601f8201169050808301925050505050505060ce612c0290919063ffffffff16565b15611a4457611a438989611d8e565b5b611a9c89898080601f016020809104026020016040519081016040528093929190818152602001838380828437600081840152601f19601f8201169050808301925050505050505060ce612c0290919063ffffffff16565b15611adc576040517f08c379a0000000000000000000000000000000000000000000000000000000008152600401611ad390614cca565b60405180910390fd5b600060d260008973ffffffffffffffffffffffffffffffffffffffff1673ffffffffffffffffffffffffffffffffffffffff1681526020019081526020016000208054611b2890615110565b905014611b6a576040517f08c379a0000000000000000000000000000000000000000000000000000000008152600401611b6190614c6a565b60405180910390fd5b611bc289898080601f016020809104026020016040519081016040528093929190818152602001838380828437600081840152601f19601f8201169050808301925050505050505060ce612c3090919063ffffffff16565b5060405180604001604052808773ffffffffffffffffffffffffffffffffffffffff1681526020018873ffffffffffffffffffffffffffffffffffffffff1681525060d38a8a604051611c169291906148e2565b908152602001604051809103902060008201518160000160006101000a81548173ffffffffffffffffffffffffffffffffffffffff021916908373ffffffffffffffffffffffffffffffffffffffff16021790555060208201518160010160006101000a81548173ffffffffffffffffffffffffffffffffffffffff021916908373ffffffffffffffffffffffffffffffffffffffff160217905550905050888860d260008a73ffffffffffffffffffffffffffffffffffffffff1673ffffffffffffffffffffffffffffffffffffffff1681526020019081526020016000209190611d03929190613c62565b508573ffffffffffffffffffffffffffffffffffffffff168773ffffffffffffffffffffffffffffffffffffffff168a8a604051611d429291906148e2565b60405180910390207f0c15c0d5e06df8261d683f33bfdb70d77eca8530b1b3b7d229ead531867be8188c8c604051611d7b929190614b4f565b60405180910390a4505050505050505050565b7fffddc8bfa55e17b4d21e6c83e86327dfded4d7c9dd051c00ab7b11c8a387c14a611dc081611dbb6129be565b612cbe565b611e1883838080601f016020809104026020016040519081016040528093929190818152602001838380828437600081840152601f19601f8201169050808301925050505050505060ce612c0290919063ffffffff16565b611e57576040517f08c379a0000000000000000000000000000000000000000000000000000000008152600401611e4e90614c0a565b60405180910390fd5b600060d38484604051611e6b9291906148e2565b908152602001604051809103902060010160009054906101000a900473ffffffffffffffffffffffffffffffffffffffff16905060d260008273ffffffffffffffffffffffffffffffffffffffff1673ffffffffffffffffffffffffffffffffffffffff1681526020019081526020016000206000611eea9190613ce8565b60d38484604051611efc9291906148e2565b9081526020016040518091039020600080820160006101000a81549073ffffffffffffffffffffffffffffffffffffffff02191690556001820160006101000a81549073ffffffffffffffffffffffffffffffffffffffff02191690555050611fb384848080601f016020809104026020016040519081016040528093929190818152602001838380828437600081840152601f19601f8201169050808301925050505050505060ce612d5b90919063ffffffff16565b508383604051611fc49291906148e2565b60405180910390207f5e9082f22098a5a5184b5dffbe6c696b966b83bb250951a12f38f4609c7726328585604051611ffd929190614b4f565b60405180910390a250505050565b7f906a1b6d8666ab930891bffd6f4ca7e6fa437b6e3a66b10e0206c563ed50772b61203d816120386129be565b612cbe565b600073ffffffffffffffffffffffffffffffffffffffff168273ffffffffffffffffffffffffffffffffffffffff1614156120ad576040517f08c379a00000000000000000000000000000000000000000000000000000000081526004016120a490614cea565b60405180910390fd5b8160d460006101000a81548173ffffffffffffffffffffffffffffffffffffffff021916908373ffffffffffffffffffffffffffffffffffffffff16021790555060d460009054906101000a900473ffffffffffffffffffffffffffffffffffffffff1673ffffffffffffffffffffffffffffffffffffffff167fb57359628f7b44e9842ff204fb5700f84d8c4f9c3fc9dae13e7a1aab8ed164f760405160405180910390a25050565b600061216383836121b9565b905092915050565b600060d1838360405161217f9291906148e2565b908152602001604051809103902060010160009054906101000a900473ffffffffffffffffffffffffffffffffffffffff16905092915050565b600060d183836040516121cd9291906148e2565b908152602001604051809103902060000160009054906101000a900473ffffffffffffffffffffffffffffffffffffffff16905092915050565b606061221560cc8484613219565b905092915050565b6000612244826097600086815260200190815260200160002061331190919063ffffffff16565b905092915050565b60006065600084815260200190815260200160002060000160008373ffffffffffffffffffffffffffffffffffffffff1673ffffffffffffffffffffffffffffffffffffffff16815260200190815260200160002060009054906101000a900460ff16905092915050565b600060d554905090565b600060d383836040516122d59291906148e2565b908152602001604051809103902060010160009054906101000a900473ffffffffffffffffffffffffffffffffffffffff16905092915050565b6000801b81565b606061232460ce8484613219565b905092915050565b7f906a1b6d8666ab930891bffd6f4ca7e6fa437b6e3a66b10e0206c563ed50772b81565b7f906a1b6d8666ab930891bffd6f4ca7e6fa437b6e3a66b10e0206c563ed50772b6123828161237d6129be565b612cbe565b600061238c61105d565b905060008151116123d2576040517f08c379a00000000000000000000000000000000000000000000000000000000081526004016123c990614c8a565b60405180910390fd5b61242a88888080601f016020809104026020016040519081016040528093929190818152602001838380828437600081840152601f19601f8201169050808301925050505050505060cc612c0290919063ffffffff16565b1561248d57878760405160200161244292919061494f565b6040516020818303038152906040526040517f08c379a00000000000000000000000000000000000000000000000000000000081526004016124849190614b73565b60405180910390fd5b60006124a561249a6122b7565b8a8a8a8a8a8a61332b565b905060006124be838b8b6124b7611658565b868a61303c565b90508173ffffffffffffffffffffffffffffffffffffffff1663f2fde38b826040518263ffffffff1660e01b81526004016124f99190614a0a565b600060405180830381600087803b15801561251357600080fd5b505af1158015612527573d6000803e3d6000fd5b505050506125378a8a8484610b00565b50505050505050505050565b7f906a1b6d8666ab930891bffd6f4ca7e6fa437b6e3a66b10e0206c563ed50772b612575816125706129be565b612cbe565b600073ffffffffffffffffffffffffffffffffffffffff168273ffffffffffffffffffffffffffffffffffffffff1614156125e5576040517f08c379a00000000000000000000000000000000000000000000000000000000081526004016125dc90614caa565b60405180910390fd5b8160d760006101000a81548173ffffffffffffffffffffffffffffffffffffffff021916908373ffffffffffffffffffffffffffffffffffffffff16021790555060d760009054906101000a900473ffffffffffffffffffffffffffffffffffffffff1673ffffffffffffffffffffffffffffffffffffffff167f9d4a9b40a70dfeae2699f8c14847af6f424f5653ad0b765676b2b7bf124f92ec60405160405180910390a25050565b60006126ac6097600084815260200190815260200160002061349e565b9050919050565b7f906a1b6d8666ab930891bffd6f4ca7e6fa437b6e3a66b10e0206c563ed50772b6126e5816126e06129be565b612cbe565b60006126ef61105d565b90506000815111612735576040517f08c379a000000000000000000000000000000000000000000000000000000000815260040161272c90614c8a565b60405180910390fd5b61278d86868080601f016020809104026020016040519081016040528093929190818152602001838380828437600081840152601f19601f8201169050808301925050505050505060ce612c0290919063ffffffff16565b156127c4576127c37fffddc8bfa55e17b4d21e6c83e86327dfded4d7c9dd051c00ab7b11c8a387c14a6127be6129be565b612cbe565b5b60006127db8288886127d4611658565b89896134b3565b90506127e987878784611843565b50505050505050565b6127fc8282613690565b612821816097600085815260200190815260200160002061300c90919063ffffffff16565b505050565b6000612832838361216b565b905092915050565b600060d760009054906101000a900473ffffffffffffffffffffffffffffffffffffffff16905090565b600060d360d260008473ffffffffffffffffffffffffffffffffffffffff1673ffffffffffffffffffffffffffffffffffffffff1681526020019081526020016000206040516128b49190614938565b908152602001604051809103902060000160009054906101000a900473ffffffffffffffffffffffffffffffffffffffff169050919050565b60007f7965db0b000000000000000000000000000000000000000000000000000000007bffffffffffffffffffffffffffffffffffffffffffffffffffffffff1916827bffffffffffffffffffffffffffffffffffffffffffffffffffffffff19161480612960575061295f826136b9565b5b9050919050565b600061297282613723565b80156129835750612982826137dd565b5b9050919050565b61299482826137ea565b6129b98160976000858152602001908152602001600020612f5990919063ffffffff16565b505050565b600033905090565b6060600060028360026129d99190614efb565b6129e39190614ea5565b67ffffffffffffffff8111156129fc576129fb615278565b5b6040519080825280601f01601f191660200182016040528015612a2e5781602001600182028036833780820191505090505b5090507f300000000000000000000000000000000000000000000000000000000000000081600081518110612a6657612a65615249565b5b60200101907effffffffffffffffffffffffffffffffffffffffffffffffffffffffffffff1916908160001a9053507f780000000000000000000000000000000000000000000000000000000000000081600181518110612aca57612ac9615249565b5b60200101907effffffffffffffffffffffffffffffffffffffffffffffffffffffffffffff1916908160001a90535060006001846002612b0a9190614efb565b612b149190614ea5565b90505b6001811115612bb4577f3031323334353637383961626364656600000000000000000000000000000000600f861660108110612b5657612b55615249565b5b1a60f81b828281518110612b6d57612b6c615249565b5b60200101907effffffffffffffffffffffffffffffffffffffffffffffffffffffffffffff1916908160001a905350600485901c945080612bad906150e6565b9050612b17565b5060008414612bf8576040517f08c379a0000000000000000000000000000000000000000000000000000000008152600401612bef90614bea565b60405180910390fd5b8091505092915050565b6000808360010183604051612c179190614921565b9081526020016040518091039020541415905092915050565b6000612c3c8383612c02565b612cb3578260000182908060018154018082558091505060019003906000526020600020016000909190919091509080519060200190612c7d929190613d28565b5082600001805490508360010183604051612c989190614921565b90815260200160405180910390208190555060019050612cb8565b600090505b92915050565b612cc8828261224c565b612d5757612ced8173ffffffffffffffffffffffffffffffffffffffff1660146129c6565b612cfb8360001c60206129c6565b604051602001612d0c9291906149d0565b6040516020818303038152906040526040517f08c379a0000000000000000000000000000000000000000000000000000000008152600401612d4e9190614b73565b60405180910390fd5b5050565b6000808360010183604051612d709190614921565b908152602001604051809103902054905060008114612f24576000600182612d989190614f55565b9050600060018660000180549050612db09190614f55565b9050818114612ec2576000866000018281548110612dd157612dd0615249565b5b906000526020600020018054612de690615110565b80601f0160208091040260200160405190810160405280929190818152602001828054612e1290615110565b8015612e5f5780601f10612e3457610100808354040283529160200191612e5f565b820191906000526020600020905b815481529060010190602001808311612e4257829003601f168201915b5050505050905080876000018481548110612e7d57612e7c615249565b5b906000526020600020019080519060200190612e9a929190613d28565b50838760010182604051612eae9190614921565b908152602001604051809103902081905550505b85600001805480612ed657612ed561521a565b5b600190038181906000526020600020016000612ef29190613ce8565b90558560010185604051612f069190614921565b90815260200160405180910390206000905560019350505050612f2a565b60009150505b92915050565b612f398261128e565b612f4a81612f456129be565b612cbe565b612f5483836137f8565b505050565b6000612f81836000018373ffffffffffffffffffffffffffffffffffffffff1660001b6138d9565b905092915050565b612f916129be565b73ffffffffffffffffffffffffffffffffffffffff168173ffffffffffffffffffffffffffffffffffffffff1614612ffe576040517f08c379a0000000000000000000000000000000000000000000000000000000008152600401612ff590614d0a565b60405180910390fd5b6130088282613949565b5050565b6000613034836000018373ffffffffffffffffffffffffffffffffffffffff1660001b613a2b565b905092915050565b6000808787878787604051602401613058959493929190614b95565b6040516020818303038152906040527f4a5bca8a000000000000000000000000000000000000000000000000000000007bffffffffffffffffffffffffffffffffffffffffffffffffffffffff19166020820180517bffffffffffffffffffffffffffffffffffffffffffffffffffffffff8381831617835250505050905060008787856040516020016130ee939291906148fb565b604051602081830303815290604052805190602001209050600061311061162e565b73ffffffffffffffffffffffffffffffffffffffff1663ec54d72f83856040518363ffffffff1660e01b815260040161314a929190614a7d565b602060405180830381600087803b15801561316457600080fd5b505af1158015613178573d6000803e3d6000fd5b505050506040513d601f19601f8201168201806040525081019061319c9190613f3c565b90508073ffffffffffffffffffffffffffffffffffffffff1663f2fde38b336040518263ffffffff1660e01b81526004016131d79190614a0a565b600060405180830381600087803b1580156131f157600080fd5b505af1158015613205573d6000803e3d6000fd5b505050508093505050509695505050505050565b6060600061322685613b3f565b90506000831480613241575080838561323f9190614ea5565b115b156132555783816132529190614f55565b92505b60008367ffffffffffffffff81111561327157613270615278565b5b6040519080825280602002602001820160405280156132a457816020015b606081526020019060019003908161328f5790505b50905060008590505b84866132b99190614ea5565b811015613304576132d38188613b5090919063ffffffff16565b8282815181106132e6576132e5615249565b5b602002602001018190525080806132fc90615173565b9150506132ad565b5080925050509392505050565b60006133208360000183613c03565b60001c905092915050565b6000808883878787604051602401613347959493929190614d45565b6040516020818303038152906040527fb1a64a2d000000000000000000000000000000000000000000000000000000007bffffffffffffffffffffffffffffffffffffffffffffffffffffffff19166020820180517bffffffffffffffffffffffffffffffffffffffffffffffffffffffff8381831617835250505050905060008888856040516020016133dd939291906148fb565b60405160208183030381529060405280519060200120905060006133ff611337565b73ffffffffffffffffffffffffffffffffffffffff1663ec54d72f83856040518363ffffffff1660e01b8152600401613439929190614a7d565b602060405180830381600087803b15801561345357600080fd5b505af1158015613467573d6000803e3d6000fd5b505050506040513d601f19601f8201168201806040525081019061348b9190613f3c565b9050809350505050979650505050505050565b60006134ac82600001613c2e565b9050919050565b60008087878787876040516024016134cf959493929190614b95565b6040516020818303038152906040527fb2f2be9b000000000000000000000000000000000000000000000000000000007bffffffffffffffffffffffffffffffffffffffffffffffffffffffff19166020820180517bffffffffffffffffffffffffffffffffffffffffffffffffffffffff838183161783525050505090506000878785604051602001613565939291906148fb565b6040516020818303038152906040528051906020012090506000613587610ad6565b73ffffffffffffffffffffffffffffffffffffffff1663ec54d72f83856040518363ffffffff1660e01b81526004016135c1929190614a7d565b602060405180830381600087803b1580156135db57600080fd5b505af11580156135ef573d6000803e3d6000fd5b505050506040513d601f19601f820116820180604052508101906136139190613f3c565b90508073ffffffffffffffffffffffffffffffffffffffff1663f2fde38b336040518263ffffffff1660e01b815260040161364e9190614a0a565b600060405180830381600087803b15801561366857600080fd5b505af115801561367c573d6000803e3d6000fd5b505050508093505050509695505050505050565b6136998261128e565b6136aa816136a56129be565b612cbe565b6136b48383613949565b505050565b60007f01ffc9a7000000000000000000000000000000000000000000000000000000007bffffffffffffffffffffffffffffffffffffffffffffffffffffffff1916827bffffffffffffffffffffffffffffffffffffffffffffffffffffffff1916149050919050565b600080600090505b82518110156137d257600083828151811061374957613748615249565b5b602001015160f81c60f81b60f81c905060418160ff16101580156137715750605a8160ff1611155b80613790575060618160ff161015801561378f5750607a8160ff1611155b5b806137af575060308160ff16101580156137ae575060398160ff1611155b5b6137be576000925050506137d8565b5080806137ca90615173565b91505061372b565b50600190505b919050565b6000808251119050919050565b6137f482826137f8565b5050565b613802828261224c565b6138d55760016065600084815260200190815260200160002060000160008373ffffffffffffffffffffffffffffffffffffffff1673ffffffffffffffffffffffffffffffffffffffff16815260200190815260200160002060006101000a81548160ff02191690831515021790555061387a6129be565b73ffffffffffffffffffffffffffffffffffffffff168173ffffffffffffffffffffffffffffffffffffffff16837f2f8788117e7eff1d82e926ec794901d17c78024a50270940304540a733656f0d60405160405180910390a45b5050565b60006138e58383613c3f565b61393e578260000182908060018154018082558091505060019003906000526020600020016000909190919091505582600001805490508360010160008481526020019081526020016000208190555060019050613943565b600090505b92915050565b613953828261224c565b15613a275760006065600084815260200190815260200160002060000160008373ffffffffffffffffffffffffffffffffffffffff1673ffffffffffffffffffffffffffffffffffffffff16815260200190815260200160002060006101000a81548160ff0219169083151502179055506139cc6129be565b73ffffffffffffffffffffffffffffffffffffffff168173ffffffffffffffffffffffffffffffffffffffff16837ff6391f5c32d9c69d2a47ea670b442974b53935d1edc7fd64eb21e047a839171b60405160405180910390a45b5050565b60008083600101600084815260200190815260200160002054905060008114613b33576000600182613a5d9190614f55565b9050600060018660000180549050613a759190614f55565b9050818114613ae4576000866000018281548110613a9657613a95615249565b5b9060005260206000200154905080876000018481548110613aba57613ab9615249565b5b90600052602060002001819055508387600101600083815260200190815260200160002081905550505b85600001805480613af857613af761521a565b5b600190038181906000526020600020016000905590558560010160008681526020019081526020016000206000905560019350505050613b39565b60009150505b92915050565b600081600001805490509050919050565b6060826000018281548110613b6857613b67615249565b5b906000526020600020018054613b7d90615110565b80601f0160208091040260200160405190810160405280929190818152602001828054613ba990615110565b8015613bf65780601f10613bcb57610100808354040283529160200191613bf6565b820191906000526020600020905b815481529060010190602001808311613bd957829003601f168201915b5050505050905092915050565b6000826000018281548110613c1b57613c1a615249565b5b9060005260206000200154905092915050565b600081600001805490509050919050565b600080836001016000848152602001908152602001600020541415905092915050565b828054613c6e90615110565b90600052602060002090601f016020900481019282613c905760008555613cd7565b82601f10613ca957803560ff1916838001178555613cd7565b82800160010185558215613cd7579182015b82811115613cd6578235825591602001919060010190613cbb565b5b509050613ce49190613dae565b5090565b508054613cf490615110565b6000825580601f10613d065750613d25565b601f016020900490600052602060002090810190613d249190613dae565b5b50565b828054613d3490615110565b90600052602060002090601f016020900481019282613d565760008555613d9d565b82601f10613d6f57805160ff1916838001178555613d9d565b82800160010185558215613d9d579182015b82811115613d9c578251825591602001919060010190613d81565b5b509050613daa9190613dae565b5090565b5b80821115613dc7576000816000905550600101613daf565b5090565b6000613dde613dd984614dd2565b614dad565b905082815260208101848484011115613dfa57613df96152b6565b5b613e058482856150a4565b509392505050565b600081359050613e1c816156bc565b92915050565b600081519050613e31816156bc565b92915050565b600081359050613e46816156d3565b92915050565b600081359050613e5b816156ea565b92915050565b60008083601f840112613e7757613e766152ac565b5b8235905067ffffffffffffffff811115613e9457613e936152a7565b5b602083019150836001820283011115613eb057613eaf6152b1565b5b9250929050565b600082601f830112613ecc57613ecb6152ac565b5b8135613edc848260208601613dcb565b91505092915050565b600081359050613ef481615701565b92915050565b600081359050613f0981615718565b92915050565b600060208284031215613f2557613f246152c0565b5b6000613f3384828501613e0d565b91505092915050565b600060208284031215613f5257613f516152c0565b5b6000613f6084828501613e22565b91505092915050565b600080600060608486031215613f8257613f816152c0565b5b6000613f9086828701613e0d565b9350506020613fa186828701613e0d565b9250506040613fb286828701613e0d565b9150509250925092565b600060208284031215613fd257613fd16152c0565b5b6000613fe084828501613e37565b91505092915050565b6000806040838503121561400057613fff6152c0565b5b600061400e85828601613e37565b925050602061401f85828601613e0d565b9150509250929050565b600080604083850312156140405761403f6152c0565b5b600061404e85828601613e37565b925050602061405f85828601613ee5565b9150509250929050565b60006020828403121561407f5761407e6152c0565b5b600061408d84828501613e4c565b91505092915050565b600080602083850312156140ad576140ac6152c0565b5b600083013567ffffffffffffffff8111156140cb576140ca6152bb565b5b6140d785828601613e61565b92509250509250929050565b600080600080606085870312156140fd576140fc6152c0565b5b600085013567ffffffffffffffff81111561411b5761411a6152bb565b5b61412787828801613e61565b9450945050602061413a87828801613e0d565b925050604061414b87828801613e0d565b91505092959194509250565b60008060008060608587031215614171576141706152c0565b5b600085013567ffffffffffffffff81111561418f5761418e6152bb565b5b61419b87828801613e61565b945094505060206141ae87828801613e0d565b925050604085013567ffffffffffffffff8111156141cf576141ce6152bb565b5b6141db87828801613eb7565b91505092959194509250565b60008060008060008060a08789031215614204576142036152c0565b5b600087013567ffffffffffffffff811115614222576142216152bb565b5b61422e89828a01613e61565b9650965050602087013567ffffffffffffffff811115614251576142506152bb565b5b61425d89828a01613eb7565b945050604087013567ffffffffffffffff81111561427e5761427d6152bb565b5b61428a89828a01613eb7565b935050606061429b89828a01613efa565b925050608087013567ffffffffffffffff8111156142bc576142bb6152bb565b5b6142c889828a01613eb7565b9150509295509295509295565b60008060008060008060008060e0898b0312156142f5576142f46152c0565b5b600089013567ffffffffffffffff811115614313576143126152bb565b5b61431f8b828c01613e61565b985098505060206143328b828c01613ee5565b96505060406143438b828c01613e0d565b95505060606143548b828c01613e0d565b94505060806143658b828c01613e0d565b93505060a06143768b828c01613e0d565b92505060c06143878b828c01613e0d565b9150509295985092959890939650565b600080604083850312156143ae576143ad6152c0565b5b60006143bc85828601613ee5565b92505060206143cd85828601613ee5565b9150509250929050565b60006143e38383614572565b905092915050565b6143f481614f89565b82525050565b600061440582614e28565b61440f8185614e56565b93508360208202850161442185614e03565b8060005b8581101561445d578484038952815161443e85826143d7565b945061444983614e49565b925060208a01995050600181019050614425565b50829750879550505050505092915050565b61447881614f9b565b82525050565b61448781614fa7565b82525050565b600061449882614e33565b6144a28185614e67565b93506144b28185602086016150b3565b6144bb816152c5565b840191505092915050565b6144cf81615014565b82525050565b6144de81615026565b82525050565b6144ed81615038565b82525050565b6144fc8161504a565b82525050565b61450b8161505c565b82525050565b61451a8161506e565b82525050565b600061452c8385614e89565b93506145398385846150a4565b614542836152c5565b840190509392505050565b60006145598385614e9a565b93506145668385846150a4565b82840190509392505050565b600061457d82614e3e565b6145878185614e78565b93506145978185602086016150b3565b6145a0816152c5565b840191505092915050565b60006145b682614e3e565b6145c08185614e89565b93506145d08185602086016150b3565b6145d9816152c5565b840191505092915050565b60006145ef82614e3e565b6145f98185614e9a565b93506146098185602086016150b3565b80840191505092915050565b6000815461462281615110565b61462c8186614e9a565b9450600182166000811461464757600181146146585761468b565b60ff1983168652818601935061468b565b61466185614e13565b60005b8381101561468357815481890152600182019150602081019050614664565b838801955050505b50505092915050565b60006146a1601283614e9a565b91506146ac826152d6565b601282019050919050565b60006146c4602083614e89565b91506146cf826152ff565b602082019050919050565b60006146e7602783614e89565b91506146f282615328565b604082019050919050565b600061470a601183614e9a565b915061471582615377565b601182019050919050565b600061472d600483614e9a565b9150614738826153a0565b600482019050919050565b6000614750602e83614e89565b915061475b826153c9565b604082019050919050565b6000614773602e83614e89565b915061477e82615418565b604082019050919050565b6000614796602983614e89565b91506147a182615467565b604082019050919050565b60006147b9602083614e9a565b91506147c4826154b6565b602082019050919050565b60006147dc602683614e89565b91506147e7826154df565b604082019050919050565b60006147ff601783614e9a565b915061480a8261552e565b601782019050919050565b6000614822602283614e89565b915061482d82615557565b604082019050919050565b6000614845602a83614e89565b9150614850826155a6565b604082019050919050565b6000614868602383614e89565b9150614873826155f5565b604082019050919050565b600061488b601183614e9a565b915061489682615644565b601182019050919050565b60006148ae602f83614e89565b91506148b98261566d565b604082019050919050565b6148cd81614ffd565b82525050565b6148dc81615007565b82525050565b60006148ef82848661454d565b91508190509392505050565b600061490882858761454d565b915061491482846145e4565b9150819050949350505050565b600061492d82846145e4565b915081905092915050565b60006149448284614615565b915081905092915050565b600061495a826146fd565b915061496782848661454d565b9150614972826147ac565b91508190509392505050565b6000614989826147f2565b915061499582866145e4565b91506149a082614694565b91506149ac82856145e4565b91506149b782614720565b91506149c382846145e4565b9150819050949350505050565b60006149db826147f2565b91506149e782856145e4565b91506149f28261487e565b91506149fe82846145e4565b91508190509392505050565b6000602082019050614a1f60008301846143eb565b92915050565b60006020820190508181036000830152614a3f81846143fa565b905092915050565b6000602082019050614a5c600083018461446f565b92915050565b6000602082019050614a77600083018461447e565b92915050565b6000604082019050614a92600083018561447e565b8181036020830152614aa4818461448d565b90509392505050565b6000602082019050614ac260008301846144c6565b92915050565b6000602082019050614add60008301846144d5565b92915050565b6000602082019050614af860008301846144e4565b92915050565b6000602082019050614b1360008301846144f3565b92915050565b6000602082019050614b2e6000830184614502565b92915050565b6000602082019050614b496000830184614511565b92915050565b60006020820190508181036000830152614b6a818486614520565b90509392505050565b60006020820190508181036000830152614b8d81846145ab565b905092915050565b60006080820190508181036000830152614baf81886145ab565b90508181036020830152614bc4818688614520565b9050614bd360408301856143eb565b614be060608301846143eb565b9695505050505050565b60006020820190508181036000830152614c03816146b7565b9050919050565b60006020820190508181036000830152614c23816146da565b9050919050565b60006020820190508181036000830152614c4381614743565b9050919050565b60006020820190508181036000830152614c6381614766565b9050919050565b60006020820190508181036000830152614c8381614789565b9050919050565b60006020820190508181036000830152614ca3816147cf565b9050919050565b60006020820190508181036000830152614cc381614815565b9050919050565b60006020820190508181036000830152614ce381614838565b9050919050565b60006020820190508181036000830152614d038161485b565b9050919050565b60006020820190508181036000830152614d23816148a1565b9050919050565b6000602082019050614d3f60008301846148c4565b92915050565b600060a082019050614d5a60008301886148c4565b8181036020830152614d6c81876145ab565b90508181036040830152614d8081866145ab565b90508181036060830152614d9481856145ab565b9050614da360808301846148d3565b9695505050505050565b6000614db7614dc8565b9050614dc38282615142565b919050565b6000604051905090565b600067ffffffffffffffff821115614ded57614dec615278565b5b614df6826152c5565b9050602081019050919050565b6000819050602082019050919050565b60008190508160005260206000209050919050565b600081519050919050565b600081519050919050565b600081519050919050565b6000602082019050919050565b600082825260208201905092915050565b600082825260208201905092915050565b600082825260208201905092915050565b600082825260208201905092915050565b600081905092915050565b6000614eb082614ffd565b9150614ebb83614ffd565b9250827fffffffffffffffffffffffffffffffffffffffffffffffffffffffffffffffff03821115614ef057614eef6151bc565b5b828201905092915050565b6000614f0682614ffd565b9150614f1183614ffd565b9250817fffffffffffffffffffffffffffffffffffffffffffffffffffffffffffffffff0483118215151615614f4a57614f496151bc565b5b828202905092915050565b6000614f6082614ffd565b9150614f6b83614ffd565b925082821015614f7e57614f7d6151bc565b5b828203905092915050565b6000614f9482614fdd565b9050919050565b60008115159050919050565b6000819050919050565b60007fffffffff0000000000000000000000000000000000000000000000000000000082169050919050565b600073ffffffffffffffffffffffffffffffffffffffff82169050919050565b6000819050919050565b600060ff82169050919050565b600061501f82615080565b9050919050565b600061503182615080565b9050919050565b600061504382615080565b9050919050565b600061505582615080565b9050919050565b600061506782615080565b9050919050565b600061507982615080565b9050919050565b600061508b82615092565b9050919050565b600061509d82614fdd565b9050919050565b82818337600083830152505050565b60005b838110156150d15780820151818401526020810190506150b6565b838111156150e0576000848401525b50505050565b60006150f182614ffd565b91506000821415615105576151046151bc565b5b600182039050919050565b6000600282049050600182168061512857607f821691505b6020821081141561513c5761513b6151eb565b5b50919050565b61514b826152c5565b810181811067ffffffffffffffff8211171561516a57615169615278565b5b80604052505050565b600061517e82614ffd565b91507fffffffffffffffffffffffffffffffffffffffffffffffffffffffffffffffff8214156151b1576151b06151bc565b5b600182019050919050565b7f4e487b7100000000000000000000000000000000000000000000000000000000600052601160045260246000fd5b7f4e487b7100000000000000000000000000000000000000000000000000000000600052602260045260246000fd5b7f4e487b7100000000000000000000000000000000000000000000000000000000600052603160045260246000fd5b7f4e487b7100000000000000000000000000000000000000000000000000000000600052603260045260246000fd5b7f4e487b7100000000000000000000000000000000000000000000000000000000600052604160045260246000fd5b600080fd5b600080fd5b600080fd5b600080fd5b600080fd5b600080fd5b6000601f19601f8301169050919050565b7f206973206d697373696e6720726f6c6573200000000000000000000000000000600082015250565b7f537472696e67733a20686578206c656e67746820696e73756666696369656e74600082015250565b7f4761746577617952656769737472793a2067617465776179206e6f742072656760008201527f6973746572656400000000000000000000000000000000000000000000000000602082015250565b7f4761746577617952656769737472793a20000000000000000000000000000000600082015250565b7f206f722000000000000000000000000000000000000000000000000000000000600082015250565b7f496e697469616c697a61626c653a20636f6e747261637420697320616c72656160008201527f647920696e697469616c697a6564000000000000000000000000000000000000602082015250565b7f4761746577617952656769737472793a20656d707479206f7220696e76616c6960008201527f6420737472696e6720696e707574000000000000000000000000000000000000602082015250565b7f4761746577617952656769737472793a20746f6b656e20616c7265616479207260008201527f6567697374657265640000000000000000000000000000000000000000000000602082015250565b7f206d696e74206761746577617920616c72656164792072656769737465726564600082015250565b7f4761746577617952656769737472793a20636861696e2064657461696c73206e60008201527f6f74207365740000000000000000000000000000000000000000000000000000602082015250565b7f416363657373436f6e74726f6c3a206163636f756e7420000000000000000000600082015250565b7f476174657761793a20696e76616c6964207472616e736665722077697468206c60008201527f6f67000000000000000000000000000000000000000000000000000000000000602082015250565b7f4761746577617952656769737472793a2073796d626f6c20616c72656164792060008201527f7265676973746572656400000000000000000000000000000000000000000000602082015250565b7f476174657761793a20696e76616c6964207369676e617475726520766572696660008201527f6965720000000000000000000000000000000000000000000000000000000000602082015250565b7f206973206d697373696e6720726f6c6520000000000000000000000000000000600082015250565b7f416363657373436f6e74726f6c3a2063616e206f6e6c792072656e6f756e636560008201527f20726f6c657320666f722073656c660000000000000000000000000000000000602082015250565b6156c581614f89565b81146156d057600080fd5b50565b6156dc81614fa7565b81146156e757600080fd5b50565b6156f381614fb1565b81146156fe57600080fd5b50565b61570a81614ffd565b811461571557600080fd5b50565b61572181615007565b811461572c57600080fd5b5056fea2646970667358221220045cf96ec38b722f4e5d90bb102d3c7bd48486b08b9e41d31ef4a3c667e1332a64736f6c63430008070033",
  "devdoc": {
    "events": {
      "LogMintGatewayUpdated(string,string,address,address)": {
        "details": "The symbol is included twice because strings have to be hashed first in order to be used as a log index/topic."
      }
    },
    "kind": "dev",
    "methods": {
      "addLockGateway(string,address,address)": {
        "params": {
          "lockAsset": "The address of the RenERC20 token contract.",
          "lockGateway": "The address of the Gateway contract.",
          "symbol": "A string that identifies the token and gateway pair."
        }
      },
      "addMintGateway(string,address,address)": {
        "params": {
          "mintGateway": "The address of the Gateway contract.",
          "renAsset": "The address of the RenERC20 token contract.",
          "symbol": "A string that identifies the token and gateway pair."
        }
      },
      "getLockGatewaySymbols(uint256,uint256)": {
        "details": "To get all the registered tokens set count to `0`."
      },
      "getMintGatewayBySymbol(string)": {
        "params": {
          "tokenSymbol": "The symbol of the RenERC20 token contract."
        }
      },
      "getMintGatewayByToken(address)": {
        "params": {
          "token": "The address of the RenERC20 token contract."
        }
      },
      "getMintGatewaySymbols(uint256,uint256)": {
        "details": "To get all the registered Gateway contracts set count to `0`."
      },
      "getRenAssetBySymbol(string)": {
        "params": {
          "tokenSymbol": "The symbol of the RenERC20 token contract to        lookup."
        }
      },
      "getRoleAdmin(bytes32)": {
        "details": "Returns the admin role that controls `role`. See {grantRole} and {revokeRole}. To change a role's admin, use {_setRoleAdmin}."
      },
      "getRoleMember(bytes32,uint256)": {
        "details": "Returns one of the accounts that have `role`. `index` must be a value between 0 and {getRoleMemberCount}, non-inclusive. Role bearers are not sorted in any particular way, and their ordering may change at any point. WARNING: When using {getRoleMember} and {getRoleMemberCount}, make sure you perform all queries on the same block. See the following https://forum.openzeppelin.com/t/iterating-over-elements-on-enumerableset-in-openzeppelin-contracts/2296[forum post] for more information."
      },
      "getRoleMemberCount(bytes32)": {
        "details": "Returns the number of accounts that have `role`. Can be used together with {getRoleMember} to enumerate all bearers of a role."
      },
      "grantRole(bytes32,address)": {
        "details": "Overload {grantRole} to track enumerable memberships"
      },
      "hasRole(bytes32,address)": {
        "details": "Returns `true` if `account` has been granted `role`."
      },
      "removeLockGateway(string)": {
        "params": {
          "symbol": "The symbol of the token to deregister."
        }
      },
      "removeMintGateway(string)": {
        "params": {
          "symbol": "The symbol of the token to deregister."
        }
      },
      "renounceRole(bytes32,address)": {
        "details": "Overload {renounceRole} to track enumerable memberships"
      },
      "revokeRole(bytes32,address)": {
        "details": "Overload {revokeRole} to track enumerable memberships"
      },
      "supportsInterface(bytes4)": {
        "details": "See {IERC165-supportsInterface}."
      },
      "updateSignatureVerifier(address)": {
        "params": {
          "nextSignatureVerifier": "The new verifier contract address."
        }
      },
      "updateTransferWithLog(address)": {
        "params": {
          "nextTransferWithLog": "The new TransferWithLog contract address."
        }
      }
    },
    "version": 1
  },
  "userdoc": {
    "kind": "user",
    "methods": {
      "addLockGateway(string,address,address)": {
        "notice": "Allow the owner to set the Gateway contract for a given         RenERC20 token contract."
      },
      "addMintGateway(string,address,address)": {
        "notice": "Allow the owner to set the Gateway contract for a given         RenERC20 token contract."
      },
      "getGatewayBySymbol(string)": {
        "notice": "Deprecated in favour of getMintGatewayBySymbol."
      },
      "getGatewayByToken(address)": {
        "notice": "Deprecated in favour of getMintGatewayByToken."
      },
      "getMintGatewayBySymbol(string)": {
        "notice": "Returns the Gateway contract for the given RenERC20 token         symbol."
      },
      "getMintGatewayByToken(address)": {
        "notice": "Returns the Gateway contract for the given RenERC20 token         address."
      },
      "getRenAssetBySymbol(string)": {
        "notice": "Returns the RenERC20 address for the given token symbol."
      },
      "getTokenBySymbol(string)": {
        "notice": "Deprecated in favour of getRenAssetBySymbol."
      },
      "removeLockGateway(string)": {
        "notice": "Allows the owner to remove the Gateway contract for a given         asset contract."
      },
      "removeMintGateway(string)": {
        "notice": "Allows the owner to remove the Gateway contract for a given         RenERC20 contract."
      },
      "updateSignatureVerifier(address)": {
        "notice": "Allow the owner to update the signature verifier contract."
      },
      "updateTransferWithLog(address)": {
        "notice": "Allow the owner to update the TransferWithLog contract."
      }
    },
    "notice": "GatewayRegistry is a mapping from assets to their associated RenERC20 and Gateway contracts.",
    "version": 1
  },
  "storageLayout": {
    "storage": [
      {
        "astId": 773,
        "contract": "src/GatewayRegistry/GatewayRegistry.sol:GatewayRegistryV2",
        "label": "_initialized",
        "offset": 0,
        "slot": "0",
        "type": "t_bool"
      },
      {
        "astId": 776,
        "contract": "src/GatewayRegistry/GatewayRegistry.sol:GatewayRegistryV2",
        "label": "_initializing",
        "offset": 1,
        "slot": "0",
        "type": "t_bool"
      },
      {
        "astId": 1994,
        "contract": "src/GatewayRegistry/GatewayRegistry.sol:GatewayRegistryV2",
        "label": "__gap",
        "offset": 0,
        "slot": "1",
        "type": "t_array(t_uint256)50_storage"
      },
      {
        "astId": 2243,
        "contract": "src/GatewayRegistry/GatewayRegistry.sol:GatewayRegistryV2",
        "label": "__gap",
        "offset": 0,
        "slot": "51",
        "type": "t_array(t_uint256)50_storage"
      },
      {
        "astId": 258,
        "contract": "src/GatewayRegistry/GatewayRegistry.sol:GatewayRegistryV2",
        "label": "_roles",
        "offset": 0,
        "slot": "101",
        "type": "t_mapping(t_bytes32,t_struct(RoleData)253_storage)"
      },
      {
        "astId": 543,
        "contract": "src/GatewayRegistry/GatewayRegistry.sol:GatewayRegistryV2",
        "label": "__gap",
        "offset": 0,
        "slot": "102",
        "type": "t_array(t_uint256)49_storage"
      },
      {
        "astId": 45,
        "contract": "src/GatewayRegistry/GatewayRegistry.sol:GatewayRegistryV2",
        "label": "_roleMembers",
        "offset": 0,
        "slot": "151",
        "type": "t_mapping(t_bytes32,t_struct(AddressSet)2568_storage)"
      },
      {
        "astId": 208,
        "contract": "src/GatewayRegistry/GatewayRegistry.sol:GatewayRegistryV2",
        "label": "__gap",
        "offset": 0,
        "slot": "152",
        "type": "t_array(t_uint256)49_storage"
      },
      {
        "astId": 7774,
        "contract": "src/GatewayRegistry/GatewayRegistry.sol:GatewayRegistryV2",
        "label": "_renAssetProxyBeacon",
        "offset": 0,
        "slot": "201",
        "type": "t_contract(RenAssetProxyBeaconV1)7723"
      },
      {
        "astId": 7777,
        "contract": "src/GatewayRegistry/GatewayRegistry.sol:GatewayRegistryV2",
        "label": "_mintGatewayProxyBeacon",
        "offset": 0,
        "slot": "202",
        "type": "t_contract(MintGatewayProxyBeaconV1)7738"
      },
      {
        "astId": 7780,
        "contract": "src/GatewayRegistry/GatewayRegistry.sol:GatewayRegistryV2",
        "label": "_lockGatewayProxyBeacon",
        "offset": 0,
        "slot": "203",
        "type": "t_contract(LockGatewayProxyBeaconV1)7753"
      },
      {
        "astId": 6538,
        "contract": "src/GatewayRegistry/GatewayRegistry.sol:GatewayRegistryV2",
        "label": "mintGatewaySymbols",
        "offset": 0,
        "slot": "204",
        "type": "t_struct(Set)10069_storage"
      },
      {
        "astId": 6541,
        "contract": "src/GatewayRegistry/GatewayRegistry.sol:GatewayRegistryV2",
        "label": "lockGatewaySymbols",
        "offset": 0,
        "slot": "206",
        "type": "t_struct(Set)10069_storage"
      },
      {
        "astId": 6545,
        "contract": "src/GatewayRegistry/GatewayRegistry.sol:GatewayRegistryV2",
        "label": "mintSymbolByToken",
        "offset": 0,
        "slot": "208",
        "type": "t_mapping(t_address,t_string_storage)"
      },
      {
        "astId": 6550,
        "contract": "src/GatewayRegistry/GatewayRegistry.sol:GatewayRegistryV2",
        "label": "mintGatewayDetailsBySymbol",
        "offset": 0,
        "slot": "209",
        "type": "t_mapping(t_string_memory_ptr,t_struct(GatewayDetails)6535_storage)"
      },
      {
        "astId": 6554,
        "contract": "src/GatewayRegistry/GatewayRegistry.sol:GatewayRegistryV2",
        "label": "lockSymbolByToken",
        "offset": 0,
        "slot": "210",
        "type": "t_mapping(t_address,t_string_storage)"
      },
      {
        "astId": 6559,
        "contract": "src/GatewayRegistry/GatewayRegistry.sol:GatewayRegistryV2",
        "label": "lockGatewayDetailsBySymbol",
        "offset": 0,
        "slot": "211",
        "type": "t_mapping(t_string_memory_ptr,t_struct(GatewayDetails)6535_storage)"
      },
      {
        "astId": 6561,
        "contract": "src/GatewayRegistry/GatewayRegistry.sol:GatewayRegistryV2",
        "label": "_signatureVerifier",
        "offset": 0,
        "slot": "212",
        "type": "t_address"
      },
      {
        "astId": 6563,
        "contract": "src/GatewayRegistry/GatewayRegistry.sol:GatewayRegistryV2",
        "label": "_chainId",
        "offset": 0,
        "slot": "213",
        "type": "t_uint256"
      },
      {
        "astId": 6565,
        "contract": "src/GatewayRegistry/GatewayRegistry.sol:GatewayRegistryV2",
        "label": "_chainName",
        "offset": 0,
        "slot": "214",
        "type": "t_string_storage"
      },
      {
        "astId": 6567,
        "contract": "src/GatewayRegistry/GatewayRegistry.sol:GatewayRegistryV2",
        "label": "_transferWithLog",
        "offset": 0,
        "slot": "215",
        "type": "t_address"
      }
    ],
    "types": {
      "t_address": {
        "encoding": "inplace",
        "label": "address",
        "numberOfBytes": "20"
      },
      "t_array(t_bytes32)dyn_storage": {
        "base": "t_bytes32",
        "encoding": "dynamic_array",
        "label": "bytes32[]",
        "numberOfBytes": "32"
      },
      "t_array(t_string_storage)dyn_storage": {
        "base": "t_string_storage",
        "encoding": "dynamic_array",
        "label": "string[]",
        "numberOfBytes": "32"
      },
      "t_array(t_uint256)49_storage": {
        "base": "t_uint256",
        "encoding": "inplace",
        "label": "uint256[49]",
        "numberOfBytes": "1568"
      },
      "t_array(t_uint256)50_storage": {
        "base": "t_uint256",
        "encoding": "inplace",
        "label": "uint256[50]",
        "numberOfBytes": "1600"
      },
      "t_bool": {
        "encoding": "inplace",
        "label": "bool",
        "numberOfBytes": "1"
      },
      "t_bytes32": {
        "encoding": "inplace",
        "label": "bytes32",
        "numberOfBytes": "32"
      },
      "t_contract(LockGatewayProxyBeaconV1)7753": {
        "encoding": "inplace",
        "label": "contract LockGatewayProxyBeaconV1",
        "numberOfBytes": "20"
      },
      "t_contract(MintGatewayProxyBeaconV1)7738": {
        "encoding": "inplace",
        "label": "contract MintGatewayProxyBeaconV1",
        "numberOfBytes": "20"
      },
      "t_contract(RenAssetProxyBeaconV1)7723": {
        "encoding": "inplace",
        "label": "contract RenAssetProxyBeaconV1",
        "numberOfBytes": "20"
      },
      "t_mapping(t_address,t_bool)": {
        "encoding": "mapping",
        "key": "t_address",
        "label": "mapping(address => bool)",
        "numberOfBytes": "32",
        "value": "t_bool"
      },
      "t_mapping(t_address,t_string_storage)": {
        "encoding": "mapping",
        "key": "t_address",
        "label": "mapping(address => string)",
        "numberOfBytes": "32",
        "value": "t_string_storage"
      },
      "t_mapping(t_bytes32,t_struct(AddressSet)2568_storage)": {
        "encoding": "mapping",
        "key": "t_bytes32",
        "label": "mapping(bytes32 => struct EnumerableSetUpgradeable.AddressSet)",
        "numberOfBytes": "32",
        "value": "t_struct(AddressSet)2568_storage"
      },
      "t_mapping(t_bytes32,t_struct(RoleData)253_storage)": {
        "encoding": "mapping",
        "key": "t_bytes32",
        "label": "mapping(bytes32 => struct AccessControlUpgradeable.RoleData)",
        "numberOfBytes": "32",
        "value": "t_struct(RoleData)253_storage"
      },
      "t_mapping(t_bytes32,t_uint256)": {
        "encoding": "mapping",
        "key": "t_bytes32",
        "label": "mapping(bytes32 => uint256)",
        "numberOfBytes": "32",
        "value": "t_uint256"
      },
      "t_mapping(t_string_memory_ptr,t_struct(GatewayDetails)6535_storage)": {
        "encoding": "mapping",
        "key": "t_string_memory_ptr",
        "label": "mapping(string => struct GatewayRegistryStateV2.GatewayDetails)",
        "numberOfBytes": "32",
        "value": "t_struct(GatewayDetails)6535_storage"
      },
      "t_mapping(t_string_memory_ptr,t_uint256)": {
        "encoding": "mapping",
        "key": "t_string_memory_ptr",
        "label": "mapping(string => uint256)",
        "numberOfBytes": "32",
        "value": "t_uint256"
      },
      "t_string_memory_ptr": {
        "encoding": "bytes",
        "label": "string",
        "numberOfBytes": "32"
      },
      "t_string_storage": {
        "encoding": "bytes",
        "label": "string",
        "numberOfBytes": "32"
      },
      "t_struct(AddressSet)2568_storage": {
        "encoding": "inplace",
        "label": "struct EnumerableSetUpgradeable.AddressSet",
        "members": [
          {
            "astId": 2567,
            "contract": "src/GatewayRegistry/GatewayRegistry.sol:GatewayRegistryV2",
            "label": "_inner",
            "offset": 0,
            "slot": "0",
            "type": "t_struct(Set)2267_storage"
          }
        ],
        "numberOfBytes": "64"
      },
      "t_struct(GatewayDetails)6535_storage": {
        "encoding": "inplace",
        "label": "struct GatewayRegistryStateV2.GatewayDetails",
        "members": [
          {
            "astId": 6532,
            "contract": "src/GatewayRegistry/GatewayRegistry.sol:GatewayRegistryV2",
            "label": "gateway",
            "offset": 0,
            "slot": "0",
            "type": "t_address"
          },
          {
            "astId": 6534,
            "contract": "src/GatewayRegistry/GatewayRegistry.sol:GatewayRegistryV2",
            "label": "token",
            "offset": 0,
            "slot": "1",
            "type": "t_address"
          }
        ],
        "numberOfBytes": "64"
      },
      "t_struct(RoleData)253_storage": {
        "encoding": "inplace",
        "label": "struct AccessControlUpgradeable.RoleData",
        "members": [
          {
            "astId": 250,
            "contract": "src/GatewayRegistry/GatewayRegistry.sol:GatewayRegistryV2",
            "label": "members",
            "offset": 0,
            "slot": "0",
            "type": "t_mapping(t_address,t_bool)"
          },
          {
            "astId": 252,
            "contract": "src/GatewayRegistry/GatewayRegistry.sol:GatewayRegistryV2",
            "label": "adminRole",
            "offset": 0,
            "slot": "1",
            "type": "t_bytes32"
          }
        ],
        "numberOfBytes": "64"
      },
      "t_struct(Set)10069_storage": {
        "encoding": "inplace",
        "label": "struct StringSet.Set",
        "members": [
          {
            "astId": 10064,
            "contract": "src/GatewayRegistry/GatewayRegistry.sol:GatewayRegistryV2",
            "label": "_values",
            "offset": 0,
            "slot": "0",
            "type": "t_array(t_string_storage)dyn_storage"
          },
          {
            "astId": 10068,
            "contract": "src/GatewayRegistry/GatewayRegistry.sol:GatewayRegistryV2",
            "label": "_indexes",
            "offset": 0,
            "slot": "1",
            "type": "t_mapping(t_string_memory_ptr,t_uint256)"
          }
        ],
        "numberOfBytes": "64"
      },
      "t_struct(Set)2267_storage": {
        "encoding": "inplace",
        "label": "struct EnumerableSetUpgradeable.Set",
        "members": [
          {
            "astId": 2262,
            "contract": "src/GatewayRegistry/GatewayRegistry.sol:GatewayRegistryV2",
            "label": "_values",
            "offset": 0,
            "slot": "0",
            "type": "t_array(t_bytes32)dyn_storage"
          },
          {
            "astId": 2266,
            "contract": "src/GatewayRegistry/GatewayRegistry.sol:GatewayRegistryV2",
            "label": "_indexes",
            "offset": 0,
            "slot": "1",
            "type": "t_mapping(t_bytes32,t_uint256)"
          }
        ],
        "numberOfBytes": "64"
      },
      "t_uint256": {
        "encoding": "inplace",
        "label": "uint256",
        "numberOfBytes": "32"
      }
    }
  }
}