{
  "address": "0x5812e402827e432A9366a1A6A42C2f63B2886FdA",
  "abi": [
    {
      "inputs": [
        {
          "internalType": "contract IGatewayRegistry",
          "name": "_registry",
          "type": "address"
        }
      ],
      "stateMutability": "nonpayable",
      "type": "constructor"
    },
    {
      "inputs": [
        {
          "internalType": "string",
          "name": "symbol_",
          "type": "string"
        },
        {
          "internalType": "string",
          "name": "to_",
          "type": "string"
        },
        {
          "internalType": "uint256",
          "name": "amount_",
          "type": "uint256"
        }
      ],
      "name": "burn",
      "outputs": [],
      "stateMutability": "nonpayable",
      "type": "function"
    },
    {
      "inputs": [
        {
          "internalType": "string",
          "name": "symbol_",
          "type": "string"
        },
        {
          "internalType": "string",
          "name": "recipientAddress_",
          "type": "string"
        },
        {
          "internalType": "string",
          "name": "recipientChain_",
          "type": "string"
        },
        {
          "internalType": "bytes",
          "name": "recipientPayload_",
          "type": "bytes"
        },
        {
          "internalType": "uint256",
          "name": "amount_",
          "type": "uint256"
        }
      ],
      "name": "lock",
      "outputs": [],
      "stateMutability": "nonpayable",
      "type": "function"
    },
    {
      "inputs": [
        {
          "internalType": "string",
          "name": "symbol_",
          "type": "string"
        },
        {
          "internalType": "address",
          "name": "recipient_",
          "type": "address"
        },
        {
          "internalType": "uint256",
          "name": "amount_",
          "type": "uint256"
        },
        {
          "internalType": "bytes32",
          "name": "nHash_",
          "type": "bytes32"
        },
        {
          "internalType": "bytes",
          "name": "sig_",
          "type": "bytes"
        }
      ],
      "name": "mint",
      "outputs": [],
      "stateMutability": "nonpayable",
      "type": "function"
    },
    {
      "inputs": [
        {
          "internalType": "string",
          "name": "symbol_",
          "type": "string"
        },
        {
          "internalType": "address",
          "name": "recipient_",
          "type": "address"
        },
        {
          "internalType": "uint256",
          "name": "amount_",
          "type": "uint256"
        },
        {
          "internalType": "bytes32",
          "name": "nHash_",
          "type": "bytes32"
        },
        {
          "internalType": "bytes",
          "name": "sig_",
          "type": "bytes"
        }
      ],
      "name": "release",
      "outputs": [],
      "stateMutability": "nonpayable",
      "type": "function"
    }
  ],
  "transactionHash": "0xed92ae73e5405d0f65a28d8f9fd65ea67959fa7396607b8846f70516e9372042",
  "args": [
    "0xC6F3D96D176E8978a57b1106132EF81eA80391F8"
  ],
  "solcInputHash": "76fa59ebf624e1102e0a1e0d6d97546b",
  "bytecode": "0x60806040523480156200001157600080fd5b50604051620018b0380380620018b0833981810160405281019062000037919062000095565b806000806101000a81548173ffffffffffffffffffffffffffffffffffffffff021916908373ffffffffffffffffffffffffffffffffffffffff160217905550506200012e565b6000815190506200008f8162000114565b92915050565b600060208284031215620000ae57620000ad6200010f565b5b6000620000be848285016200007e565b91505092915050565b6000620000d482620000ef565b9050919050565b6000620000e882620000c7565b9050919050565b600073ffffffffffffffffffffffffffffffffffffffff82169050919050565b600080fd5b6200011f81620000db565b81146200012b57600080fd5b50565b611772806200013e6000396000f3fe608060405234801561001057600080fd5b506004361061004c5760003560e01c806377f614031461005157806380a3c6331461006d578063bc7fac7d14610089578063cc3107a0146100a5575b600080fd5b61006b60048036038101906100669190610f22565b6100c1565b005b61008760048036038101906100829190610fde565b610375565b005b6100a3600480360381019061009e9190611073565b61062e565b005b6100bf60048036038101906100ba9190610f22565b610986565b005b60008787876040516020016100d8939291906113ae565b60405160208183030381529060405280519060200120905060008060009054906101000a900473ffffffffffffffffffffffffffffffffffffffff1673ffffffffffffffffffffffffffffffffffffffff16637b5c884f8a8a6040518363ffffffff1660e01b815260040161014e92919061138a565b60206040518083038186803b15801561016657600080fd5b505afa15801561017a573d6000803e3d6000fd5b505050506040513d601f19601f8201168201806040525081019061019e9190610ef5565b73ffffffffffffffffffffffffffffffffffffffff1663159ab14d83888888886040518663ffffffff1660e01b81526004016101de95949392919061130a565b602060405180830381600087803b1580156101f857600080fd5b505af115801561020c573d6000803e3d6000fd5b505050506040513d601f19601f820116820180604052508101906102309190611161565b905060008054906101000a900473ffffffffffffffffffffffffffffffffffffffff1673ffffffffffffffffffffffffffffffffffffffff166379c73a7a8a8a6040518363ffffffff1660e01b815260040161028d92919061138a565b60206040518083038186803b1580156102a557600080fd5b505afa1580156102b9573d6000803e3d6000fd5b505050506040513d601f19601f820116820180604052508101906102dd9190610e9b565b73ffffffffffffffffffffffffffffffffffffffff1663a9059cbb88836040518363ffffffff1660e01b81526004016103179291906112e1565b602060405180830381600087803b15801561033157600080fd5b505af1158015610345573d6000803e3d6000fd5b505050506040513d601f19601f820116820180604052508101906103699190610e6e565b50505050505050505050565b60008054906101000a900473ffffffffffffffffffffffffffffffffffffffff1673ffffffffffffffffffffffffffffffffffffffff166379c73a7a86866040518363ffffffff1660e01b81526004016103d092919061138a565b60206040518083038186803b1580156103e857600080fd5b505afa1580156103fc573d6000803e3d6000fd5b505050506040513d601f19601f820116820180604052508101906104209190610e9b565b73ffffffffffffffffffffffffffffffffffffffff166323b872dd3330846040518463ffffffff1660e01b815260040161045c939291906112aa565b602060405180830381600087803b15801561047657600080fd5b505af115801561048a573d6000803e3d6000fd5b505050506040513d601f19601f820116820180604052508101906104ae9190610e6e565b6104ed576040517f08c379a00000000000000000000000000000000000000000000000000000000081526004016104e49061143a565b60405180910390fd5b60008054906101000a900473ffffffffffffffffffffffffffffffffffffffff1673ffffffffffffffffffffffffffffffffffffffff16637b5c884f86866040518363ffffffff1660e01b815260040161054892919061138a565b60206040518083038186803b15801561056057600080fd5b505afa158015610574573d6000803e3d6000fd5b505050506040513d601f19601f820116820180604052508101906105989190610ef5565b73ffffffffffffffffffffffffffffffffffffffff166338463cff8484846040518463ffffffff1660e01b81526004016105d493929190611358565b602060405180830381600087803b1580156105ee57600080fd5b505af1158015610602573d6000803e3d6000fd5b505050506040513d601f19601f820116820180604052508101906106269190611161565b505050505050565b60008060009054906101000a900473ffffffffffffffffffffffffffffffffffffffff1673ffffffffffffffffffffffffffffffffffffffff16639c789bb888886040518363ffffffff1660e01b815260040161068c92919061138a565b60206040518083038186803b1580156106a457600080fd5b505afa1580156106b8573d6000803e3d6000fd5b505050506040513d601f19601f820116820180604052508101906106dc9190610e9b565b905060008060009054906101000a900473ffffffffffffffffffffffffffffffffffffffff1673ffffffffffffffffffffffffffffffffffffffff16633922d13989896040518363ffffffff1660e01b815260040161073c92919061138a565b60206040518083038186803b15801561075457600080fd5b505afa158015610768573d6000803e3d6000fd5b505050506040513d601f19601f8201168201806040525081019061078c9190610ec8565b90508173ffffffffffffffffffffffffffffffffffffffff166323b872dd3330866040518463ffffffff1660e01b81526004016107cb939291906112aa565b602060405180830381600087803b1580156107e557600080fd5b505af11580156107f9573d6000803e3d6000fd5b505050506040513d601f19601f8201168201806040525081019061081d9190610e6e565b61085c576040517f08c379a00000000000000000000000000000000000000000000000000000000081526004016108539061143a565b60405180910390fd5b8173ffffffffffffffffffffffffffffffffffffffff1663095ea7b382856040518363ffffffff1660e01b81526004016108979291906112e1565b602060405180830381600087803b1580156108b157600080fd5b505af11580156108c5573d6000803e3d6000fd5b505050506040513d601f19601f820116820180604052508101906108e99190610e6e565b508073ffffffffffffffffffffffffffffffffffffffff1663ca9d9532878787876040518563ffffffff1660e01b815260040161092994939291906113e0565b602060405180830381600087803b15801561094357600080fd5b505af1158015610957573d6000803e3d6000fd5b505050506040513d601f19601f8201168201806040525081019061097b9190611161565b505050505050505050565b600087878760405160200161099d939291906113ae565b60405160208183030381529060405280519060200120905060008060009054906101000a900473ffffffffffffffffffffffffffffffffffffffff1673ffffffffffffffffffffffffffffffffffffffff16633922d1398a8a6040518363ffffffff1660e01b8152600401610a1392919061138a565b60206040518083038186803b158015610a2b57600080fd5b505afa158015610a3f573d6000803e3d6000fd5b505050506040513d601f19601f82011682018060405250810190610a639190610ec8565b73ffffffffffffffffffffffffffffffffffffffff16639cffc71583888888886040518663ffffffff1660e01b8152600401610aa395949392919061130a565b602060405180830381600087803b158015610abd57600080fd5b505af1158015610ad1573d6000803e3d6000fd5b505050506040513d601f19601f82011682018060405250810190610af59190611161565b905060008054906101000a900473ffffffffffffffffffffffffffffffffffffffff1673ffffffffffffffffffffffffffffffffffffffff166379c73a7a8a8a6040518363ffffffff1660e01b8152600401610b5292919061138a565b60206040518083038186803b158015610b6a57600080fd5b505afa158015610b7e573d6000803e3d6000fd5b505050506040513d601f19601f82011682018060405250810190610ba29190610e9b565b73ffffffffffffffffffffffffffffffffffffffff1663a9059cbb88836040518363ffffffff1660e01b8152600401610bdc9291906112e1565b602060405180830381600087803b158015610bf657600080fd5b505af1158015610c0a573d6000803e3d6000fd5b505050506040513d601f19601f82011682018060405250810190610c2e9190610e6e565b50505050505050505050565b6000610c4d610c488461147f565b61145a565b905082815260208101848484011115610c6957610c68611652565b5b610c748482856115a1565b509392505050565b6000610c8f610c8a846114b0565b61145a565b905082815260208101848484011115610cab57610caa611652565b5b610cb68482856115a1565b509392505050565b600081359050610ccd8161169b565b92915050565b600081519050610ce2816116b2565b92915050565b600081359050610cf7816116c9565b92915050565b60008083601f840112610d1357610d12611648565b5b8235905067ffffffffffffffff811115610d3057610d2f611643565b5b602083019150836001820283011115610d4c57610d4b61164d565b5b9250929050565b600082601f830112610d6857610d67611648565b5b8135610d78848260208601610c3a565b91505092915050565b600081519050610d90816116e0565b92915050565b600081519050610da5816116f7565b92915050565b600081519050610dba8161170e565b92915050565b60008083601f840112610dd657610dd5611648565b5b8235905067ffffffffffffffff811115610df357610df2611643565b5b602083019150836001820283011115610e0f57610e0e61164d565b5b9250929050565b600082601f830112610e2b57610e2a611648565b5b8135610e3b848260208601610c7c565b91505092915050565b600081359050610e5381611725565b92915050565b600081519050610e6881611725565b92915050565b600060208284031215610e8457610e8361165c565b5b6000610e9284828501610cd3565b91505092915050565b600060208284031215610eb157610eb061165c565b5b6000610ebf84828501610d81565b91505092915050565b600060208284031215610ede57610edd61165c565b5b6000610eec84828501610d96565b91505092915050565b600060208284031215610f0b57610f0a61165c565b5b6000610f1984828501610dab565b91505092915050565b600080600080600080600060a0888a031215610f4157610f4061165c565b5b600088013567ffffffffffffffff811115610f5f57610f5e611657565b5b610f6b8a828b01610dc0565b97509750506020610f7e8a828b01610cbe565b9550506040610f8f8a828b01610e44565b9450506060610fa08a828b01610ce8565b935050608088013567ffffffffffffffff811115610fc157610fc0611657565b5b610fcd8a828b01610cfd565b925092505092959891949750929550565b600080600080600060608688031215610ffa57610ff961165c565b5b600086013567ffffffffffffffff81111561101857611017611657565b5b61102488828901610dc0565b9550955050602086013567ffffffffffffffff81111561104757611046611657565b5b61105388828901610dc0565b9350935050604061106688828901610e44565b9150509295509295909350565b60008060008060008060a087890312156110905761108f61165c565b5b600087013567ffffffffffffffff8111156110ae576110ad611657565b5b6110ba89828a01610dc0565b9650965050602087013567ffffffffffffffff8111156110dd576110dc611657565b5b6110e989828a01610e16565b945050604087013567ffffffffffffffff81111561110a57611109611657565b5b61111689828a01610e16565b935050606087013567ffffffffffffffff81111561113757611136611657565b5b61114389828a01610d53565b925050608061115489828a01610e44565b9150509295509295509295565b6000602082840312156111775761117661165c565b5b600061118584828501610e59565b91505092915050565b61119781611519565b82525050565b6111a681611537565b82525050565b60006111b883856114f7565b93506111c58385846115a1565b6111ce83611661565b840190509392505050565b60006111e4826114e1565b6111ee81856114f7565b93506111fe8185602086016115b0565b61120781611661565b840191505092915050565b600061121e8385611508565b935061122b8385846115a1565b61123483611661565b840190509392505050565b600061124a826114ec565b6112548185611508565b93506112648185602086016115b0565b61126d81611661565b840191505092915050565b6000611285601583611508565b915061129082611672565b602082019050919050565b6112a481611597565b82525050565b60006060820190506112bf600083018661118e565b6112cc602083018561118e565b6112d9604083018461129b565b949350505050565b60006040820190506112f6600083018561118e565b611303602083018461129b565b9392505050565b600060808201905061131f600083018861119d565b61132c602083018761129b565b611339604083018661119d565b818103606083015261134c8184866111ac565b90509695505050505050565b600060408201905081810360008301526113738185876111ac565b9050611382602083018461129b565b949350505050565b600060208201905081810360008301526113a5818486611212565b90509392505050565b600060408201905081810360008301526113c9818587611212565b90506113d8602083018461118e565b949350505050565b600060808201905081810360008301526113fa818761123f565b9050818103602083015261140e818661123f565b9050818103604083015261142281856111d9565b9050611431606083018461129b565b95945050505050565b6000602082019050818103600083015261145381611278565b9050919050565b6000611464611475565b905061147082826115e3565b919050565b6000604051905090565b600067ffffffffffffffff82111561149a57611499611614565b5b6114a382611661565b9050602081019050919050565b600067ffffffffffffffff8211156114cb576114ca611614565b5b6114d482611661565b9050602081019050919050565b600081519050919050565b600081519050919050565b600082825260208201905092915050565b600082825260208201905092915050565b600061152482611577565b9050919050565b60008115159050919050565b6000819050919050565b600061154c82611519565b9050919050565b600061155e82611519565b9050919050565b600061157082611519565b9050919050565b600073ffffffffffffffffffffffffffffffffffffffff82169050919050565b6000819050919050565b82818337600083830152505050565b60005b838110156115ce5780820151818401526020810190506115b3565b838111156115dd576000848401525b50505050565b6115ec82611661565b810181811067ffffffffffffffff8211171561160b5761160a611614565b5b80604052505050565b7f4e487b7100000000000000000000000000000000000000000000000000000000600052604160045260246000fd5b600080fd5b600080fd5b600080fd5b600080fd5b600080fd5b600080fd5b6000601f19601f8301169050919050565b7f746f6b656e207472616e73666572206661696c65640000000000000000000000600082015250565b6116a481611519565b81146116af57600080fd5b50565b6116bb8161152b565b81146116c657600080fd5b50565b6116d281611537565b81146116dd57600080fd5b50565b6116e981611541565b81146116f457600080fd5b50565b61170081611553565b811461170b57600080fd5b50565b61171781611565565b811461172257600080fd5b50565b61172e81611597565b811461173957600080fd5b5056fea26469706673582212205011afc44dbf525fecca98ac75550964c86e4d85485bc8666ac7feda4931e93464736f6c63430008070033",
  "devdoc": {
    "kind": "dev",
    "methods": {},
    "version": 1
  },
  "userdoc": {
    "kind": "user",
    "methods": {},
    "version": 1
  },
  "storageLayout": {
    "storage": [
      {
        "astId": 3352,
        "contract": "src/BasicBridge.sol:BasicBridge",
        "label": "registry",
        "offset": 0,
        "slot": "0",
        "type": "t_contract(IGatewayRegistry)4019"
      }
    ],
    "types": {
      "t_contract(IGatewayRegistry)4019": {
        "encoding": "inplace",
        "label": "contract IGatewayRegistry",
        "numberOfBytes": "20"
      }
    }
  }
}