{
  "address": "0x7EE6243E6fe738AC46d0B2727e39dc59dC057379",
  "abi": [
    {
      "anonymous": false,
      "inputs": [
        {
          "indexed": false,
          "internalType": "uint8",
          "name": "version",
          "type": "uint8"
        }
      ],
      "name": "Initialized",
      "type": "event"
    },
    {
      "anonymous": false,
      "inputs": [
        {
          "indexed": false,
          "internalType": "string",
          "name": "asset",
          "type": "string"
        },
        {
          "indexed": true,
          "internalType": "bytes32",
          "name": "selectorHash",
          "type": "bytes32"
        }
      ],
      "name": "LogAssetUpdated",
      "type": "event"
    },
    {
      "anonymous": false,
      "inputs": [
        {
          "indexed": false,
          "internalType": "bytes",
          "name": "to",
          "type": "bytes"
        },
        {
          "indexed": false,
          "internalType": "uint256",
          "name": "amount",
          "type": "uint256"
        },
        {
          "indexed": true,
          "internalType": "uint256",
          "name": "burnNonce",
          "type": "uint256"
        },
        {
          "indexed": true,
          "internalType": "bytes",
          "name": "indexedTo",
          "type": "bytes"
        }
      ],
      "name": "LogBurn",
      "type": "event"
    },
    {
      "anonymous": false,
      "inputs": [
        {
          "indexed": false,
          "internalType": "string",
          "name": "recipientAddress",
          "type": "string"
        },
        {
          "indexed": false,
          "internalType": "string",
          "name": "recipientChain",
          "type": "string"
        },
        {
          "indexed": false,
          "internalType": "bytes",
          "name": "recipientPayload",
          "type": "bytes"
        },
        {
          "indexed": false,
          "internalType": "uint256",
          "name": "amount",
          "type": "uint256"
        },
        {
          "indexed": true,
          "internalType": "uint256",
          "name": "burnNonce",
          "type": "uint256"
        },
        {
          "indexed": true,
          "internalType": "string",
          "name": "recipientAddressIndexed",
          "type": "string"
        },
        {
          "indexed": true,
          "internalType": "string",
          "name": "recipientChainIndexed",
          "type": "string"
        }
      ],
      "name": "LogBurnToChain",
      "type": "event"
    },
    {
      "anonymous": false,
      "inputs": [
        {
          "indexed": true,
          "internalType": "address",
          "name": "to",
          "type": "address"
        },
        {
          "indexed": false,
          "internalType": "uint256",
          "name": "amount",
          "type": "uint256"
        },
        {
          "indexed": true,
          "internalType": "uint256",
          "name": "sigHash",
          "type": "uint256"
        },
        {
          "indexed": true,
          "internalType": "bytes32",
          "name": "nHash",
          "type": "bytes32"
        }
      ],
      "name": "LogMint",
      "type": "event"
    },
    {
      "anonymous": false,
      "inputs": [
        {
          "indexed": true,
          "internalType": "address",
          "name": "oldPreviousGateway",
          "type": "address"
        },
        {
          "indexed": true,
          "internalType": "address",
          "name": "newPreviousGateway",
          "type": "address"
        }
      ],
      "name": "LogPreviousGatewayUpdated",
      "type": "event"
    },
    {
      "anonymous": false,
      "inputs": [
        {
          "indexed": true,
          "internalType": "address",
          "name": "oldSignatureVerifier",
          "type": "address"
        },
        {
          "indexed": true,
          "internalType": "address",
          "name": "newSignatureVerifier",
          "type": "address"
        }
      ],
      "name": "LogSignatureVerifierUpdated",
      "type": "event"
    },
    {
      "anonymous": false,
      "inputs": [
        {
          "indexed": true,
          "internalType": "address",
          "name": "token",
          "type": "address"
        }
      ],
      "name": "LogTokenUpdated",
      "type": "event"
    },
    {
      "anonymous": false,
      "inputs": [
        {
          "indexed": true,
          "internalType": "address",
          "name": "tokenAddress",
          "type": "address"
        },
        {
          "indexed": true,
          "internalType": "address",
          "name": "nextTokenOwner",
          "type": "address"
        }
      ],
      "name": "TokenOwnershipTransferred",
      "type": "event"
    },
    {
      "inputs": [],
      "name": "NAME",
      "outputs": [
        {
          "internalType": "string",
          "name": "",
          "type": "string"
        }
      ],
      "stateMutability": "view",
      "type": "function"
    },
    {
      "inputs": [
        {
          "internalType": "string",
          "name": "asset_",
          "type": "string"
        },
        {
          "internalType": "address",
          "name": "signatureVerifier_",
          "type": "address"
        },
        {
          "internalType": "address",
          "name": "token_",
          "type": "address"
        },
        {
          "internalType": "bool",
          "name": "isNFT_",
          "type": "bool"
        }
      ],
      "name": "__GatewayStateManager_init",
      "outputs": [],
      "stateMutability": "nonpayable",
      "type": "function"
    },
    {
      "inputs": [
        {
          "internalType": "string",
          "name": "asset_",
          "type": "string"
        },
        {
          "internalType": "address",
          "name": "signatureVerifier_",
          "type": "address"
        },
        {
          "internalType": "address",
          "name": "token_",
          "type": "address"
        },
        {
          "internalType": "bool",
          "name": "isNFT_",
          "type": "bool"
        }
      ],
      "name": "__MintGateway_init",
      "outputs": [],
      "stateMutability": "nonpayable",
      "type": "function"
    },
    {
      "inputs": [
        {
          "internalType": "string",
          "name": "recipientAddress",
          "type": "string"
        },
        {
          "internalType": "string",
          "name": "recipientChain",
          "type": "string"
        },
        {
          "internalType": "bytes",
          "name": "recipientPayload",
          "type": "bytes"
        },
        {
          "internalType": "uint256",
          "name": "amountOrTokenId",
          "type": "uint256"
        },
        {
          "internalType": "address",
          "name": "caller",
          "type": "address"
        }
      ],
      "name": "_burnFromPreviousGateway",
      "outputs": [
        {
          "internalType": "uint256",
          "name": "",
          "type": "uint256"
        }
      ],
      "stateMutability": "nonpayable",
      "type": "function"
    },
    {
      "inputs": [
        {
          "internalType": "bytes32",
          "name": "pHash",
          "type": "bytes32"
        },
        {
          "internalType": "uint256",
          "name": "amountOrTokenId",
          "type": "uint256"
        },
        {
          "internalType": "bytes32",
          "name": "nHash",
          "type": "bytes32"
        },
        {
          "internalType": "bytes",
          "name": "sig",
          "type": "bytes"
        },
        {
          "internalType": "address",
          "name": "caller",
          "type": "address"
        }
      ],
      "name": "_mintFromPreviousGateway",
      "outputs": [
        {
          "internalType": "uint256",
          "name": "",
          "type": "uint256"
        }
      ],
      "stateMutability": "nonpayable",
      "type": "function"
    },
    {
      "inputs": [
        {
          "internalType": "bytes",
          "name": "recipient",
          "type": "bytes"
        },
        {
          "internalType": "uint256",
          "name": "amountOrTokenId",
          "type": "uint256"
        }
      ],
      "name": "burn",
      "outputs": [
        {
          "internalType": "uint256",
          "name": "",
          "type": "uint256"
        }
      ],
      "stateMutability": "nonpayable",
      "type": "function"
    },
    {
      "inputs": [
        {
          "internalType": "string",
          "name": "recipient",
          "type": "string"
        },
        {
          "internalType": "uint256",
          "name": "amountOrTokenId",
          "type": "uint256"
        }
      ],
      "name": "burn",
      "outputs": [
        {
          "internalType": "uint256",
          "name": "",
          "type": "uint256"
        }
      ],
      "stateMutability": "nonpayable",
      "type": "function"
    },
    {
      "inputs": [
        {
          "internalType": "string",
          "name": "recipientAddress",
          "type": "string"
        },
        {
          "internalType": "string",
          "name": "recipientChain",
          "type": "string"
        },
        {
          "internalType": "bytes",
          "name": "recipientPayload",
          "type": "bytes"
        },
        {
          "internalType": "uint256",
          "name": "amountOrTokenId",
          "type": "uint256"
        }
      ],
      "name": "burnWithPayload",
      "outputs": [
        {
          "internalType": "uint256",
          "name": "",
          "type": "uint256"
        }
      ],
      "stateMutability": "nonpayable",
      "type": "function"
    },
    {
      "inputs": [],
      "name": "getAsset",
      "outputs": [
        {
          "internalType": "string",
          "name": "",
          "type": "string"
        }
      ],
      "stateMutability": "view",
      "type": "function"
    },
    {
      "inputs": [],
      "name": "getEventNonce",
      "outputs": [
        {
          "internalType": "uint256",
          "name": "",
          "type": "uint256"
        }
      ],
      "stateMutability": "view",
      "type": "function"
    },
    {
      "inputs": [],
      "name": "getPreviousGateway",
      "outputs": [
        {
          "internalType": "address",
          "name": "",
          "type": "address"
        }
      ],
      "stateMutability": "view",
      "type": "function"
    },
    {
      "inputs": [],
      "name": "getSelectorHash",
      "outputs": [
        {
          "internalType": "bytes32",
          "name": "",
          "type": "bytes32"
        }
      ],
      "stateMutability": "view",
      "type": "function"
    },
    {
      "inputs": [],
      "name": "getSignatureVerifier",
      "outputs": [
        {
          "internalType": "contract IRenVMSignatureVerifier",
          "name": "",
          "type": "address"
        }
      ],
      "stateMutability": "view",
      "type": "function"
    },
    {
      "inputs": [],
      "name": "getToken",
      "outputs": [
        {
          "internalType": "address",
          "name": "",
          "type": "address"
        }
      ],
      "stateMutability": "view",
      "type": "function"
    },
    {
      "inputs": [
        {
          "internalType": "bytes32",
          "name": "pHash",
          "type": "bytes32"
        },
        {
          "internalType": "uint256",
          "name": "amountOrTokenId",
          "type": "uint256"
        },
        {
          "internalType": "bytes32",
          "name": "nHash",
          "type": "bytes32"
        },
        {
          "internalType": "bytes",
          "name": "sig",
          "type": "bytes"
        }
      ],
      "name": "mint",
      "outputs": [
        {
          "internalType": "uint256",
          "name": "",
          "type": "uint256"
        }
      ],
      "stateMutability": "nonpayable",
      "type": "function"
    },
    {
      "inputs": [],
      "name": "owner",
      "outputs": [
        {
          "internalType": "address",
          "name": "",
          "type": "address"
        }
      ],
      "stateMutability": "view",
      "type": "function"
    },
    {
      "inputs": [
        {
          "internalType": "bytes32",
          "name": "hash",
          "type": "bytes32"
        }
      ],
      "name": "status",
      "outputs": [
        {
          "internalType": "bool",
          "name": "",
          "type": "bool"
        }
      ],
      "stateMutability": "view",
      "type": "function"
    },
    {
      "inputs": [],
      "name": "token",
      "outputs": [
        {
          "internalType": "address",
          "name": "",
          "type": "address"
        }
      ],
      "stateMutability": "view",
      "type": "function"
    },
    {
      "inputs": [
        {
          "internalType": "address",
          "name": "nextTokenOwner",
          "type": "address"
        }
      ],
      "name": "transferTokenOwnership",
      "outputs": [],
      "stateMutability": "nonpayable",
      "type": "function"
    },
    {
      "inputs": [
        {
          "internalType": "string",
          "name": "nextAsset",
          "type": "string"
        }
      ],
      "name": "updateAsset",
      "outputs": [],
      "stateMutability": "nonpayable",
      "type": "function"
    },
    {
      "inputs": [
        {
          "internalType": "address",
          "name": "newPreviousGateway",
          "type": "address"
        }
      ],
      "name": "updatePreviousGateway",
      "outputs": [],
      "stateMutability": "nonpayable",
      "type": "function"
    },
    {
      "inputs": [
        {
          "internalType": "address",
          "name": "newSignatureVerifier",
          "type": "address"
        }
      ],
      "name": "updateSignatureVerifier",
      "outputs": [],
      "stateMutability": "nonpayable",
      "type": "function"
    },
    {
      "inputs": [
        {
          "internalType": "address",
          "name": "newToken",
          "type": "address"
        }
      ],
      "name": "updateToken",
      "outputs": [],
      "stateMutability": "nonpayable",
      "type": "function"
    }
  ],
  "transactionHash": "0x8416cc66a8f2fdae4479f99a2a22a746d45cde016052d71609faf84d67707e1f",
  "args": [],
  "numDeployments": 1,
  "solcInputHash": "1fc24ec92d75e781452354b8332143e5",
  "bytecode": "0x608060405234801561001057600080fd5b50612366806100206000396000f3fe608060405234801561001057600080fd5b506004361061014d5760003560e01c80635667981b116100c3578063a3f4df7e1161007c578063a3f4df7e146102b4578063aed92d35146102de578063b48272cc146101dc578063c54216b4146102e6578063cd0df36a146102f9578063fc0c546a1461030c57600080fd5b80635667981b1461024b5780635c222bad1461025e5780637ad3def2146102735780638da5cb5b1461028657806392919ad71461028e578063976e7a3e146102a157600080fd5b8063345763ad11610115578063345763ad146101cb57806338463cff146101dc5780633f1264ef146101ef578063512e2718146102025780635266ba0c1461021557806352ad0d5e1461022857600080fd5b80630969813014610152578063159ab14d1461017c57806321df0da71461019d57806321e6b53d146101ae5780632e21384d146101c3575b600080fd5b6038546001600160a01b03165b6040516001600160a01b0390911681526020015b60405180910390f35b61018f61018a366004611abc565b610314565b604051908152602001610173565b6036546001600160a01b031661015f565b6101c16101bc366004611a4c565b61036b565b005b60395461018f565b6037546001600160a01b031661015f565b61018f6101ea366004611bba565b610535565b61018f6101fd366004611b1d565b6105a0565b61018f610210366004611d68565b6106af565b6101c1610223366004611a4c565b610827565b61023b610236366004611aa3565b6108fe565b6040519015158152602001610173565b6101c1610259366004611a4c565b6109ca565b610266610a05565b60405161017391906120c4565b6101c1610281366004611a4c565b610a97565b61015f610acf565b6101c161029c366004611c48565b610b58565b61018f6102af366004611cc5565b610c7b565b6102666040518060400160405280600b81526020016a4d696e744761746577617960a81b81525081565b61018f610d2a565b6101c16102f4366004611c06565b610d83565b6101c1610307366004611c48565b610dc0565b61015f610e20565b600061036186868686868080601f01602080910402602001604051908101604052809392919081815260200183838082843760009201919091525061035c9250610e34915050565b610e38565b9695505050505050565b33610374610acf565b6001600160a01b0316146103a35760405162461bcd60e51b815260040161039a90612122565b60405180910390fd5b6001600160a01b0381163b6104135760405162461bcd60e51b815260206004820152603060248201527f4d696e74476174657761793a206e65787420746f6b656e206f776e6572206d7560448201526f1cdd08189948184818dbdb9d1c9858dd60821b606482015260840161039a565b6001600160a01b0381166104775760405162461bcd60e51b815260206004820152602560248201527f4d696e74476174657761793a20696e76616c6964206e65787420746f6b656e2060448201526437bbb732b960d91b606482015260840161039a565b600061048b6036546001600160a01b031690565b60405163f2fde38b60e01b81526001600160a01b0384811660048301529192509082169063f2fde38b90602401600060405180830381600087803b1580156104d257600080fd5b505af11580156104e6573d6000803e3d6000fd5b50506040516001600160a01b038086169350841691507f0670e929e0da48f4446360abae5c94415b26a39a98993d2a69f1864d5130186c90600090a35050565b6037546001600160a01b031690565b600061059884848080601f0160208091040260200160405190810160405280939291908181526020018383808284376000920182905250604080516020808201835283825282519081019092529181529093509150869050336110ff565b6110ff565b949350505050565b6000806105b56038546001600160a01b031690565b90506001600160a01b03811661060d5760405162461bcd60e51b815260206004820152601c60248201527f476174657761793a206e6f2070726576696f7573206761746577617900000000604482015260640161039a565b336001600160a01b0382161461065f5760405162461bcd60e51b815260206004820152601760248201527611d85d195dd85e4e881b9bdd08185d5d1a1bdc9a5e9959604a1b604482015260640161039a565b6106a388888888888080601f0160208091040260200160405190810160405280939291908181526020018383808284376000920191909152508a9250610e38915050565b98975050505050505050565b6000806106c46038546001600160a01b031690565b90506001600160a01b03811661071c5760405162461bcd60e51b815260206004820152601c60248201527f476174657761793a206e6f2070726576696f7573206761746577617900000000604482015260640161039a565b336001600160a01b0382161461076e5760405162461bcd60e51b815260206004820152601760248201527611d85d195dd85e4e881b9bdd08185d5d1a1bdc9a5e9959604a1b604482015260640161039a565b6108198a8a8080601f01602080910402602001604051908101604052809392919081815260200183838082843760009201919091525050604080516020601f8e018190048102820181019092528c815292508c91508b908190840183828082843760009201919091525050604080516020601f8d018190048102820181019092528b815292508b91508a90819084018382808284376000920191909152508a92508991506110ff9050565b9a9950505050505050505050565b33610830610acf565b6001600160a01b0316146108565760405162461bcd60e51b815260040161039a90612122565b6001600160a01b0381166108ac5760405162461bcd60e51b815260206004820152601860248201527f476174657761793a20696e76616c696420616464726573730000000000000000604482015260640161039a565b603880546001600160a01b038381166001600160a01b0319831681179093556040519116919082907fd420320c6286dfd203f890abd5a2bbf75c64ef636ed72e192259fa1d133cd55b90600090a35050565b60008181526035602052604081205460ff161561091d57506001919050565b60006109316038546001600160a01b031690565b90506001600160a01b038116156109c15760405163295686af60e11b8152600481018490526001600160a01b038216906352ad0d5e9060240160206040518083038186803b15801561098257600080fd5b505afa158015610996573d6000803e3d6000fd5b505050506040513d601f19601f820116820180604052508101906109ba9190611a86565b9392505050565b50600092915050565b336109d3610acf565b6001600160a01b0316146109f95760405162461bcd60e51b815260040161039a90612122565b610a02816112c8565b50565b606060338054610a149061224b565b80601f0160208091040260200160405190810160405280929190818152602001828054610a409061224b565b8015610a8d5780601f10610a6257610100808354040283529160200191610a8d565b820191906000526020600020905b815481529060010190602001808311610a7057829003601f168201915b5050505050905090565b33610aa0610acf565b6001600160a01b031614610ac65760405162461bcd60e51b815260040161039a90612122565b610a028161137c565b6000610ae36037546001600160a01b031690565b6001600160a01b0316638da5cb5b6040518163ffffffff1660e01b815260040160206040518083038186803b158015610b1b57600080fd5b505afa158015610b2f573d6000803e3d6000fd5b505050506040513d601f19601f82011682018060405250810190610b539190611a69565b905090565b600054610100900460ff1615808015610b785750600054600160ff909116105b80610b925750303b158015610b92575060005460ff166001145b610bf55760405162461bcd60e51b815260206004820152602e60248201527f496e697469616c697a61626c653a20636f6e747261637420697320616c72656160448201526d191e481a5b9a5d1a585b1a5e995960921b606482015260840161039a565b6000805460ff191660011790558015610c18576000805461ff0019166101001790555b610c20611415565b610c2d8686868686610dc0565b8015610c73576000805461ff0019169055604051600181527f7f26b83ff96e1f2b6a682f133852f6798a09c465da95921460cefb38474024989060200160405180910390a15b505050505050565b60006106a388888080601f01602080910402602001604051908101604052809392919081815260200183838082843760009201919091525050604080516020601f8c018190048102820181019092528a815292508a915089908190840183828082843760009201919091525050604080516020601f8b0181900481028201810190925289815292508991508890819084018382808284376000920191909152508892506105939150610e349050565b603454600090610d7c5760405162461bcd60e51b815260206004820152601860248201527f476174657761793a206e6f7420696e697469616c697a65640000000000000000604482015260640161039a565b5060345490565b33610d8c610acf565b6001600160a01b031614610db25760405162461bcd60e51b815260040161039a90612122565b610dbc828261143e565b5050565b600054610100900460ff16610de75760405162461bcd60e51b815260040161039a90612157565b603a805460ff1916821515179055610dfd611415565b610e06836112c8565b610e10858561143e565b610e198261137c565b5050505050565b6000610b536036546001600160a01b031690565b3390565b600080610e948787610e48610d2a565b604080516020808201959095528082019390935260608301919091526001600160a01b038716608083015260a08083018a90528151808403909101815260c09092019052805191012090565b9050610e9f816108fe565b15610ef85760405162461bcd60e51b8152602060048201526024808201527f4d696e74476174657761793a207369676e617475726520616c726561647920736044820152631c195b9d60e21b606482015260840161039a565b630b135d3f60e11b610f126037546001600160a01b031690565b6001600160a01b0316631626ba7e83876040518363ffffffff1660e01b8152600401610f3f92919061205a565b60206040518083038186803b158015610f5757600080fd5b505afa158015610f6b573d6000803e3d6000fd5b505050506040513d601f19601f82011682018060405250810190610f8f9190611b90565b6001600160e01b0319161461101d57610fa98760206115d5565b610fb287611771565b610fc4610fbd610d2a565b60206115d5565b610fd8866001600160a01b031660146115d5565b610fe38960206115d5565b604051602001610ff7959493929190611f52565b60408051601f198184030181529082905262461bcd60e51b825261039a916004016120c4565b6000818152603560205260409020805460ff191660011790556110486036546001600160a01b031690565b6040516340c10f1960e01b81526001600160a01b0385811660048301526024820189905291909116906340c10f1990604401600060405180830381600087803b15801561109457600080fd5b505af11580156110a8573d6000803e3d6000fd5b50505050848160001c846001600160a01b03167fa58ba939eb08dab7eaf8ad09c16e7405ee88e5153e15da62d5481296a9f727fa896040516110ec91815260200190565b60405180910390a4509395945050505050565b600061110b8651151590565b6111575760405162461bcd60e51b815260206004820181905260248201527f4d696e74476174657761793a20746f206164647265737320697320656d707479604482015260640161039a565b6036546001600160a01b0316604051632770a7eb60e21b81526001600160a01b038481166004830152602482018690529190911690639dc29fac90604401600060405180830381600087803b1580156111af57600080fd5b505af11580156111c3573d6000803e3d6000fd5b5050505060006111d260395490565b90506111de8651151590565b806111ea575060008551115b1561125e57856040516111fd9190611ef8565b6040518091039020876040516112139190611ef8565b6040518091039020827ff1e98bc6e5ee93b47362bddb133886a2b471c968633a462b824f57cdb4b36c528a8a8a8a60405161125194939291906120d7565b60405180910390a46112af565b8660405161126c9190611ef8565b6040518091039020817f1619fc95050ffb8c94c9077c82b3e1ebbf8d571b6234241c55ba0aaf40da019e89876040516112a6929190612073565b60405180910390a35b6112ba8160016121a2565b603955509195945050505050565b6001600160a01b03811661132a5760405162461bcd60e51b815260206004820152602360248201527f476174657761793a20696e76616c6964207369676e617475726520766572696660448201526234b2b960e91b606482015260840161039a565b603780546001600160a01b038381166001600160a01b0319831681179093556040519116919082907ff7dbe6f0a40adabc688e64fce7060ca2f466fbf846227fb5e4e05305553bae5e90600090a35050565b6001600160a01b0381166113cb5760405162461bcd60e51b815260206004820152601660248201527523b0ba32bbb0bc9d1034b73b30b634b2103a37b5b2b760511b604482015260640161039a565b603680546001600160a01b0319166001600160a01b0383169081179091556040517f02dec22a3d1e8f9cdc0c7cd17ecee187f635788c40755be0a72dcd86a05e564d90600090a250565b600054610100900460ff1661143c5760405162461bcd60e51b815260040161039a90612157565b565b61147d82828080601f01602080910402602001604051908101604052809392919081815260200183838082843760009201919091525061186f92505050565b6114c25760405162461bcd60e51b815260206004820152601660248201527511d85d195dd85e4e881a5b9d985b1a5908185cdcd95d60521b604482015260640161039a565b6114ce6033838361196a565b50600061158d83838080601f0160208091040260200160405190810160405280939291908181526020018383808284376000920191909152506115149250610526915050565b6001600160a01b03166332e21ae76040518163ffffffff1660e01b815260040160006040518083038186803b15801561154c57600080fd5b505afa158015611560573d6000803e3d6000fd5b505050506040513d6000823e601f3d908101601f191682016040526115889190810190611e1f565b611891565b905080603481905550807f2e7c1f9bcc3b09d8e05594ab5d17b6c9b15b24cd506c5212f051f22990d0813184846040516115c8929190612095565b60405180910390a2505050565b606060006115e48360026121ce565b6115ef9060026121a2565b67ffffffffffffffff811115611607576116076122f7565b6040519080825280601f01601f191660200182016040528015611631576020820181803683370190505b509050600360fc1b8160008151811061164c5761164c6122e1565b60200101906001600160f81b031916908160001a905350600f60fb1b8160018151811061167b5761167b6122e1565b60200101906001600160f81b031916908160001a905350600061169f8460026121ce565b6116aa9060016121a2565b90505b6001811115611722576f181899199a1a9b1b9c1cb0b131b232b360811b85600f16601081106116de576116de6122e1565b1a60f81b8282815181106116f4576116f46122e1565b60200101906001600160f81b031916908160001a90535060049490941c9361171b81612234565b90506116ad565b5083156109ba5760405162461bcd60e51b815260206004820181905260248201527f537472696e67733a20686578206c656e67746820696e73756666696369656e74604482015260640161039a565b6060816117955750506040805180820190915260018152600360fc1b602082015290565b8160005b81156117bf57806117a981612286565b91506117b89050600a836121ba565b9150611799565b60008167ffffffffffffffff8111156117da576117da6122f7565b6040519080825280601f01601f191660200182016040528015611804576020820181803683370190505b5090505b8415610598576118196001836121ed565b9150611826600a866122a1565b6118319060306121a2565b60f81b818381518110611846576118466122e1565b60200101906001600160f81b031916908160001a905350611868600a866121ba565b9450611808565b600061187b8251151590565b801561188b575061188b826118c4565b92915050565b600082826040516020016118a6929190611f14565b60405160208183030381529060405280519060200120905092915050565b6000805b82518110156119615760008382815181106118e5576118e56122e1565b016020015160f81c9050604181108015906119045750605a8160ff1611155b80611922575060618160ff16101580156119225750607a8160ff1611155b80611940575060308160ff1610158015611940575060398160ff1611155b61194e575060009392505050565b508061195981612286565b9150506118c8565b50600192915050565b8280546119769061224b565b90600052602060002090601f01602090048101928261199857600085556119de565b82601f106119b15782800160ff198235161785556119de565b828001600101855582156119de579182015b828111156119de5782358255916020019190600101906119c3565b506119ea9291506119ee565b5090565b5b808211156119ea57600081556001016119ef565b60008083601f840112611a1557600080fd5b50813567ffffffffffffffff811115611a2d57600080fd5b602083019150836020828501011115611a4557600080fd5b9250929050565b600060208284031215611a5e57600080fd5b81356109ba8161230d565b600060208284031215611a7b57600080fd5b81516109ba8161230d565b600060208284031215611a9857600080fd5b81516109ba81612322565b600060208284031215611ab557600080fd5b5035919050565b600080600080600060808688031215611ad457600080fd5b853594506020860135935060408601359250606086013567ffffffffffffffff811115611b0057600080fd5b611b0c88828901611a03565b969995985093965092949392505050565b60008060008060008060a08789031215611b3657600080fd5b863595506020870135945060408701359350606087013567ffffffffffffffff811115611b6257600080fd5b611b6e89828a01611a03565b9094509250506080870135611b828161230d565b809150509295509295509295565b600060208284031215611ba257600080fd5b81516001600160e01b0319811681146109ba57600080fd5b600080600060408486031215611bcf57600080fd5b833567ffffffffffffffff811115611be657600080fd5b611bf286828701611a03565b909790965060209590950135949350505050565b60008060208385031215611c1957600080fd5b823567ffffffffffffffff811115611c3057600080fd5b611c3c85828601611a03565b90969095509350505050565b600080600080600060808688031215611c6057600080fd5b853567ffffffffffffffff811115611c7757600080fd5b611c8388828901611a03565b9096509450506020860135611c978161230d565b92506040860135611ca78161230d565b91506060860135611cb781612322565b809150509295509295909350565b60008060008060008060006080888a031215611ce057600080fd5b873567ffffffffffffffff80821115611cf857600080fd5b611d048b838c01611a03565b909950975060208a0135915080821115611d1d57600080fd5b611d298b838c01611a03565b909750955060408a0135915080821115611d4257600080fd5b50611d4f8a828b01611a03565b989b979a50959894979596606090950135949350505050565b60008060008060008060008060a0898b031215611d8457600080fd5b883567ffffffffffffffff80821115611d9c57600080fd5b611da88c838d01611a03565b909a50985060208b0135915080821115611dc157600080fd5b611dcd8c838d01611a03565b909850965060408b0135915080821115611de657600080fd5b50611df38b828c01611a03565b909550935050606089013591506080890135611e0e8161230d565b809150509295985092959890939650565b600060208284031215611e3157600080fd5b815167ffffffffffffffff80821115611e4957600080fd5b818401915084601f830112611e5d57600080fd5b815181811115611e6f57611e6f6122f7565b604051601f8201601f19908116603f01168101908382118183101715611e9757611e976122f7565b81604052828152876020848701011115611eb057600080fd5b611ec1836020830160208801612204565b979650505050505050565b60008151808452611ee4816020860160208601612204565b601f01601f19169290920160200192915050565b60008251611f0a818460208701612204565b9190910192915050565b60008351611f26818460208801612204565b622f746f60e81b9083019081528351611f46816003840160208801612204565b01600301949350505050565b7f4d696e74476174657761793a20696e76616c6964207369676e61747572652e20815260006020660383430b9b41d160cd1b818401528751611f9a8160278601848c01612204565b720161030b6b7bab73a27b92a37b5b2b724b21d1606d1b6027918501918201528751611fcc81603a8401858c01612204565b6605840e6d0c2e6d60cb1b603a92909101918201528651611ff38160418401858b01612204565b6d0161036b9b39739b2b73232b91d160951b60419290910191820152855161202181604f8401858a01612204565b6801610373430b9b41d160bd1b604f9290910191820152845161204a8160588401858901612204565b0160580198975050505050505050565b8281526040602082015260006105986040830184611ecc565b6040815260006120866040830185611ecc565b90508260208301529392505050565b60208152816020820152818360408301376000818301604090810191909152601f909201601f19160101919050565b6020815260006109ba6020830184611ecc565b6080815260006120ea6080830187611ecc565b82810360208401526120fc8187611ecc565b905082810360408401526121108186611ecc565b91505082606083015295945050505050565b6020808252818101527f476174657761793a2063616c6c6572206973206e6f7420746865206f776e6572604082015260600190565b6020808252602b908201527f496e697469616c697a61626c653a20636f6e7472616374206973206e6f74206960408201526a6e697469616c697a696e6760a81b606082015260800190565b600082198211156121b5576121b56122b5565b500190565b6000826121c9576121c96122cb565b500490565b60008160001904831182151516156121e8576121e86122b5565b500290565b6000828210156121ff576121ff6122b5565b500390565b60005b8381101561221f578181015183820152602001612207565b8381111561222e576000848401525b50505050565b600081612243576122436122b5565b506000190190565b600181811c9082168061225f57607f821691505b6020821081141561228057634e487b7160e01b600052602260045260246000fd5b50919050565b600060001982141561229a5761229a6122b5565b5060010190565b6000826122b0576122b06122cb565b500690565b634e487b7160e01b600052601160045260246000fd5b634e487b7160e01b600052601260045260246000fd5b634e487b7160e01b600052603260045260246000fd5b634e487b7160e01b600052604160045260246000fd5b6001600160a01b0381168114610a0257600080fd5b8015158114610a0257600080fdfea26469706673582212200490a899dcd6adf10c82c8768e545dabe3453470c5f0141b9f92c8c8f118034864736f6c63430008070033",
  "devdoc": {
    "kind": "dev",
    "methods": {
      "burnWithPayload(string,string,bytes,uint256)": {
        "params": {
          "amountOrTokenId": "The amount of the token being minted, in its smallest        value (e.g. satoshis for BTC) or the tokenID of the NFT.",
          "recipientAddress": "The address to which the locked assets will be        minted to. The address should be a plain-text address, without        decoding to bytes first.",
          "recipientChain": "The target chain to which the assets are being        moved to.",
          "recipientPayload": "An optional payload to be passed to the        recipient chain along with the address."
        }
      },
      "mint(bytes32,uint256,bytes32,bytes)": {
        "params": {
          "amountOrTokenId": "The amount of the token being minted, in its smallest        value (e.g. satoshis for BTC) or the tokenID of the NFT.",
          "nHash": "(nonce hash) The hash of the nonce, amountOrTokenId and pHash.",
          "pHash": "(payload hash) The hash of the payload associated with the        mint.",
          "sig": "The signature of the hash of the following values:        (pHash, amountOrTokenId, recipient, nHash), signed by the mintAuthority."
        }
      },
      "updateAsset(string)": {
        "params": {
          "nextAsset": "The new asset."
        }
      },
      "updatePreviousGateway(address)": {
        "params": {
          "newPreviousGateway": "The new gateway contract's address."
        }
      },
      "updateSignatureVerifier(address)": {
        "params": {
          "newSignatureVerifier": "The new verifier contract address."
        }
      },
      "updateToken(address)": {
        "params": {
          "newToken": "The new ERC20 token contract's address."
        }
      }
    },
    "version": 1
  },
  "userdoc": {
    "kind": "user",
    "methods": {
      "burn(bytes,uint256)": {
        "notice": "Same as `burn` with the recipient parameter being `bytes` instead of a `string`. For backwards compatibility with the MintGatewayV2."
      },
      "burn(string,uint256)": {
        "notice": "burn is a convenience function that is equivalent to calling         `burnWithPayload` with an empty payload and chain, releasing         the asset to the native chain."
      },
      "burnWithPayload(string,string,bytes,uint256)": {
        "notice": "burnWithPayload allows minted assets to be released to their         native chain, or to another chain as specified by the chain and         payload parameters.         WARNING: Burning with invalid parameters can cause the funds to         become unrecoverable."
      },
      "mint(bytes32,uint256,bytes32,bytes)": {
        "notice": "mint verifies a mint approval signature from RenVM and creates         tokens after taking a fee for the `_feeRecipient`."
      },
      "owner()": {
        "notice": "The Gateway is controlled by the owner of the SignatureVerifier. This allows for the owner of every Gateway to be updated with a single update to the SignatureVerifier contract."
      },
      "transferTokenOwnership(address)": {
        "notice": "Allow the owner to update the owner of the RenERC20 token."
      },
      "updateAsset(string)": {
        "notice": "Allow the owner to update the asset."
      },
      "updatePreviousGateway(address)": {
        "notice": "Allow the owner to update the previous gateway used for backwards compatibility."
      },
      "updateSignatureVerifier(address)": {
        "notice": "Allow the owner to update the signature verifier contract."
      },
      "updateToken(address)": {
        "notice": "Allow the owner to update the ERC20 token contract."
      }
    },
    "notice": "MintGateway handles verifying mint and burn requests. A mintAuthority approves new assets to be minted by providing a digital signature. An owner of an asset can request for it to be burnt.",
    "version": 1
  },
  "storageLayout": {
    "storage": [
      {
        "astId": 721,
        "contract": "src/Gateways/MintGateway.sol:MintGatewayV4",
        "label": "_initialized",
        "offset": 0,
        "slot": "0",
        "type": "t_uint8"
      },
      {
        "astId": 724,
        "contract": "src/Gateways/MintGateway.sol:MintGatewayV4",
        "label": "_initializing",
        "offset": 1,
        "slot": "0",
        "type": "t_bool"
      },
      {
        "astId": 3664,
        "contract": "src/Gateways/MintGateway.sol:MintGatewayV4",
        "label": "__gap",
        "offset": 0,
        "slot": "1",
        "type": "t_array(t_uint256)50_storage"
      },
      {
        "astId": 21549,
        "contract": "src/Gateways/MintGateway.sol:MintGatewayV4",
        "label": "_asset",
        "offset": 0,
        "slot": "51",
        "type": "t_string_storage"
      },
      {
        "astId": 21551,
        "contract": "src/Gateways/MintGateway.sol:MintGatewayV4",
        "label": "_selectorHash",
        "offset": 0,
        "slot": "52",
        "type": "t_bytes32"
      },
      {
        "astId": 21556,
        "contract": "src/Gateways/MintGateway.sol:MintGatewayV4",
        "label": "_status",
        "offset": 0,
        "slot": "53",
        "type": "t_mapping(t_bytes32,t_bool)"
      },
      {
        "astId": 21559,
        "contract": "src/Gateways/MintGateway.sol:MintGatewayV4",
        "label": "_token",
        "offset": 0,
        "slot": "54",
        "type": "t_address"
      },
      {
        "astId": 21562,
        "contract": "src/Gateways/MintGateway.sol:MintGatewayV4",
        "label": "_signatureVerifier",
        "offset": 0,
        "slot": "55",
        "type": "t_contract(IRenVMSignatureVerifier)21338"
      },
      {
        "astId": 21564,
        "contract": "src/Gateways/MintGateway.sol:MintGatewayV4",
        "label": "_previousGateway",
        "offset": 0,
        "slot": "56",
        "type": "t_address"
      },
      {
        "astId": 21566,
        "contract": "src/Gateways/MintGateway.sol:MintGatewayV4",
        "label": "_eventNonce",
        "offset": 0,
        "slot": "57",
        "type": "t_uint256"
      },
      {
        "astId": 21568,
        "contract": "src/Gateways/MintGateway.sol:MintGatewayV4",
        "label": "_isNFT",
        "offset": 0,
        "slot": "58",
        "type": "t_bool"
      },
      {
        "astId": 21572,
        "contract": "src/Gateways/MintGateway.sol:MintGatewayV4",
        "label": "__gap",
        "offset": 0,
        "slot": "59",
        "type": "t_array(t_uint256)42_storage"
      }
    ],
    "types": {
      "t_address": {
        "encoding": "inplace",
        "label": "address",
        "numberOfBytes": "20"
      },
      "t_array(t_uint256)42_storage": {
        "base": "t_uint256",
        "encoding": "inplace",
        "label": "uint256[42]",
        "numberOfBytes": "1344"
      },
      "t_array(t_uint256)50_storage": {
        "base": "t_uint256",
        "encoding": "inplace",
        "label": "uint256[50]",
        "numberOfBytes": "1600"
      },
      "t_bool": {
        "encoding": "inplace",
        "label": "bool",
        "numberOfBytes": "1"
      },
      "t_bytes32": {
        "encoding": "inplace",
        "label": "bytes32",
        "numberOfBytes": "32"
      },
      "t_contract(IRenVMSignatureVerifier)21338": {
        "encoding": "inplace",
        "label": "contract IRenVMSignatureVerifier",
        "numberOfBytes": "20"
      },
      "t_mapping(t_bytes32,t_bool)": {
        "encoding": "mapping",
        "key": "t_bytes32",
        "label": "mapping(bytes32 => bool)",
        "numberOfBytes": "32",
        "value": "t_bool"
      },
      "t_string_storage": {
        "encoding": "bytes",
        "label": "string",
        "numberOfBytes": "32"
      },
      "t_uint256": {
        "encoding": "inplace",
        "label": "uint256",
        "numberOfBytes": "32"
      },
      "t_uint8": {
        "encoding": "inplace",
        "label": "uint8",
        "numberOfBytes": "1"
      }
    }
  }
}