{
  "address": "0x567A3f90b28f9273796ca6f0545BBA5701F4C4dD",
  "abi": [
    {
      "anonymous": false,
      "inputs": [
        {
          "indexed": false,
          "internalType": "string",
          "name": "_asset",
          "type": "string"
        },
        {
          "indexed": false,
          "internalType": "bytes32",
          "name": "_selectorHash",
          "type": "bytes32"
        }
      ],
      "name": "LogAssetUpdated",
      "type": "event"
    },
    {
      "anonymous": false,
      "inputs": [
        {
          "indexed": false,
          "internalType": "bytes",
          "name": "to",
          "type": "bytes"
        },
        {
          "indexed": false,
          "internalType": "uint256",
          "name": "amount",
          "type": "uint256"
        },
        {
          "indexed": true,
          "internalType": "uint256",
          "name": "burnNonce",
          "type": "uint256"
        },
        {
          "indexed": true,
          "internalType": "bytes",
          "name": "indexedTo",
          "type": "bytes"
        }
      ],
      "name": "LogBurn",
      "type": "event"
    },
    {
      "anonymous": false,
      "inputs": [
        {
          "indexed": false,
          "internalType": "string",
          "name": "recipientAddress",
          "type": "string"
        },
        {
          "indexed": false,
          "internalType": "string",
          "name": "recipientChain",
          "type": "string"
        },
        {
          "indexed": false,
          "internalType": "bytes",
          "name": "recipientPayload",
          "type": "bytes"
        },
        {
          "indexed": false,
          "internalType": "uint256",
          "name": "amount",
          "type": "uint256"
        },
        {
          "indexed": true,
          "internalType": "uint256",
          "name": "burnNonce",
          "type": "uint256"
        },
        {
          "indexed": true,
          "internalType": "string",
          "name": "recipientAddressIndexed",
          "type": "string"
        },
        {
          "indexed": true,
          "internalType": "string",
          "name": "recipientChainIndexed",
          "type": "string"
        }
      ],
      "name": "LogBurnToChain",
      "type": "event"
    },
    {
      "anonymous": false,
      "inputs": [
        {
          "indexed": false,
          "internalType": "string",
          "name": "_chain",
          "type": "string"
        },
        {
          "indexed": false,
          "internalType": "bytes32",
          "name": "_selectorHash",
          "type": "bytes32"
        }
      ],
      "name": "LogChainUpdated",
      "type": "event"
    },
    {
      "anonymous": false,
      "inputs": [
        {
          "indexed": true,
          "internalType": "address",
          "name": "to",
          "type": "address"
        },
        {
          "indexed": false,
          "internalType": "uint256",
          "name": "amount",
          "type": "uint256"
        },
        {
          "indexed": true,
          "internalType": "uint256",
          "name": "sigHash",
          "type": "uint256"
        },
        {
          "indexed": true,
          "internalType": "bytes32",
          "name": "nHash",
          "type": "bytes32"
        }
      ],
      "name": "LogMint",
      "type": "event"
    },
    {
      "anonymous": false,
      "inputs": [
        {
          "indexed": true,
          "internalType": "address",
          "name": "_newPreviousGateway",
          "type": "address"
        }
      ],
      "name": "LogPreviousGatewayUpdated",
      "type": "event"
    },
    {
      "anonymous": false,
      "inputs": [
        {
          "indexed": true,
          "internalType": "contract ISignatureVerifier",
          "name": "_newSignatureVerifier",
          "type": "address"
        }
      ],
      "name": "LogSignatureVerifierUpdated",
      "type": "event"
    },
    {
      "anonymous": false,
      "inputs": [
        {
          "indexed": true,
          "internalType": "address",
          "name": "_newToken",
          "type": "address"
        }
      ],
      "name": "LogTokenUpdated",
      "type": "event"
    },
    {
      "anonymous": false,
      "inputs": [
        {
          "indexed": true,
          "internalType": "address",
          "name": "previousOwner",
          "type": "address"
        },
        {
          "indexed": true,
          "internalType": "address",
          "name": "newOwner",
          "type": "address"
        }
      ],
      "name": "OwnershipTransferred",
      "type": "event"
    },
    {
      "inputs": [
        {
          "internalType": "string",
          "name": "chain_",
          "type": "string"
        },
        {
          "internalType": "string",
          "name": "asset_",
          "type": "string"
        },
        {
          "internalType": "address",
          "name": "signatureVerifier_",
          "type": "address"
        },
        {
          "internalType": "address",
          "name": "token_",
          "type": "address"
        }
      ],
      "name": "__GatewayStateManager_init",
      "outputs": [],
      "stateMutability": "nonpayable",
      "type": "function"
    },
    {
      "inputs": [
        {
          "internalType": "string",
          "name": "chain_",
          "type": "string"
        },
        {
          "internalType": "string",
          "name": "asset_",
          "type": "string"
        },
        {
          "internalType": "address",
          "name": "signatureVerifier_",
          "type": "address"
        },
        {
          "internalType": "address",
          "name": "token",
          "type": "address"
        }
      ],
      "name": "__MintGateway_init",
      "outputs": [],
      "stateMutability": "nonpayable",
      "type": "function"
    },
    {
      "inputs": [
        {
          "internalType": "bytes",
          "name": "recipient_",
          "type": "bytes"
        },
        {
          "internalType": "uint256",
          "name": "amount_",
          "type": "uint256"
        },
        {
          "internalType": "address",
          "name": "caller_",
          "type": "address"
        }
      ],
      "name": "_burnFromPreviousGateway",
      "outputs": [
        {
          "internalType": "uint256",
          "name": "",
          "type": "uint256"
        }
      ],
      "stateMutability": "nonpayable",
      "type": "function"
    },
    {
      "inputs": [
        {
          "internalType": "bytes32",
          "name": "pHash_",
          "type": "bytes32"
        },
        {
          "internalType": "uint256",
          "name": "amount_",
          "type": "uint256"
        },
        {
          "internalType": "bytes32",
          "name": "nHash_",
          "type": "bytes32"
        },
        {
          "internalType": "bytes",
          "name": "sig_",
          "type": "bytes"
        },
        {
          "internalType": "address",
          "name": "caller_",
          "type": "address"
        }
      ],
      "name": "_mintFromPreviousGateway",
      "outputs": [
        {
          "internalType": "uint256",
          "name": "",
          "type": "uint256"
        }
      ],
      "stateMutability": "nonpayable",
      "type": "function"
    },
    {
      "inputs": [
        {
          "internalType": "bytes32",
          "name": "",
          "type": "bytes32"
        }
      ],
      "name": "_status",
      "outputs": [
        {
          "internalType": "bool",
          "name": "",
          "type": "bool"
        }
      ],
      "stateMutability": "view",
      "type": "function"
    },
    {
      "inputs": [],
      "name": "asset",
      "outputs": [
        {
          "internalType": "string",
          "name": "",
          "type": "string"
        }
      ],
      "stateMutability": "view",
      "type": "function"
    },
    {
      "inputs": [
        {
          "internalType": "bytes",
          "name": "recipient_",
          "type": "bytes"
        },
        {
          "internalType": "uint256",
          "name": "amount_",
          "type": "uint256"
        }
      ],
      "name": "burn",
      "outputs": [
        {
          "internalType": "uint256",
          "name": "",
          "type": "uint256"
        }
      ],
      "stateMutability": "nonpayable",
      "type": "function"
    },
    {
      "inputs": [
        {
          "internalType": "string",
          "name": "recipient_",
          "type": "string"
        },
        {
          "internalType": "uint256",
          "name": "amount_",
          "type": "uint256"
        }
      ],
      "name": "burn",
      "outputs": [
        {
          "internalType": "uint256",
          "name": "",
          "type": "uint256"
        }
      ],
      "stateMutability": "nonpayable",
      "type": "function"
    },
    {
      "inputs": [
        {
          "internalType": "string",
          "name": "recipientAddress_",
          "type": "string"
        },
        {
          "internalType": "string",
          "name": "recipientChain_",
          "type": "string"
        },
        {
          "internalType": "bytes",
          "name": "recipientPayload_",
          "type": "bytes"
        },
        {
          "internalType": "uint256",
          "name": "amount_",
          "type": "uint256"
        }
      ],
      "name": "burnWithPayload",
      "outputs": [
        {
          "internalType": "uint256",
          "name": "",
          "type": "uint256"
        }
      ],
      "stateMutability": "nonpayable",
      "type": "function"
    },
    {
      "inputs": [],
      "name": "chain",
      "outputs": [
        {
          "internalType": "string",
          "name": "",
          "type": "string"
        }
      ],
      "stateMutability": "view",
      "type": "function"
    },
    {
      "inputs": [
        {
          "internalType": "bytes32",
          "name": "pHash_",
          "type": "bytes32"
        },
        {
          "internalType": "uint256",
          "name": "amount_",
          "type": "uint256"
        },
        {
          "internalType": "bytes32",
          "name": "nHash_",
          "type": "bytes32"
        },
        {
          "internalType": "bytes",
          "name": "sig_",
          "type": "bytes"
        }
      ],
      "name": "mint",
      "outputs": [
        {
          "internalType": "uint256",
          "name": "",
          "type": "uint256"
        }
      ],
      "stateMutability": "nonpayable",
      "type": "function"
    },
    {
      "inputs": [],
      "name": "nextN",
      "outputs": [
        {
          "internalType": "uint256",
          "name": "",
          "type": "uint256"
        }
      ],
      "stateMutability": "view",
      "type": "function"
    },
    {
      "inputs": [],
      "name": "owner",
      "outputs": [
        {
          "internalType": "address",
          "name": "",
          "type": "address"
        }
      ],
      "stateMutability": "view",
      "type": "function"
    },
    {
      "inputs": [],
      "name": "previousGateway",
      "outputs": [
        {
          "internalType": "address",
          "name": "",
          "type": "address"
        }
      ],
      "stateMutability": "view",
      "type": "function"
    },
    {
      "inputs": [],
      "name": "renounceOwnership",
      "outputs": [],
      "stateMutability": "nonpayable",
      "type": "function"
    },
    {
      "inputs": [],
      "name": "selectorHash",
      "outputs": [
        {
          "internalType": "bytes32",
          "name": "",
          "type": "bytes32"
        }
      ],
      "stateMutability": "view",
      "type": "function"
    },
    {
      "inputs": [],
      "name": "signatureVerifier",
      "outputs": [
        {
          "internalType": "contract ISignatureVerifier",
          "name": "",
          "type": "address"
        }
      ],
      "stateMutability": "view",
      "type": "function"
    },
    {
      "inputs": [
        {
          "internalType": "bytes32",
          "name": "hash_",
          "type": "bytes32"
        }
      ],
      "name": "status",
      "outputs": [
        {
          "internalType": "bool",
          "name": "",
          "type": "bool"
        }
      ],
      "stateMutability": "view",
      "type": "function"
    },
    {
      "inputs": [],
      "name": "token",
      "outputs": [
        {
          "internalType": "address",
          "name": "",
          "type": "address"
        }
      ],
      "stateMutability": "view",
      "type": "function"
    },
    {
      "inputs": [
        {
          "internalType": "address",
          "name": "newOwner",
          "type": "address"
        }
      ],
      "name": "transferOwnership",
      "outputs": [],
      "stateMutability": "nonpayable",
      "type": "function"
    },
    {
      "inputs": [
        {
          "internalType": "address",
          "name": "nextTokenOwner_",
          "type": "address"
        }
      ],
      "name": "transferTokenOwnership",
      "outputs": [],
      "stateMutability": "nonpayable",
      "type": "function"
    },
    {
      "inputs": [
        {
          "internalType": "string",
          "name": "nextAsset_",
          "type": "string"
        }
      ],
      "name": "updateAsset",
      "outputs": [],
      "stateMutability": "nonpayable",
      "type": "function"
    },
    {
      "inputs": [
        {
          "internalType": "string",
          "name": "nextChain_",
          "type": "string"
        }
      ],
      "name": "updateChain",
      "outputs": [],
      "stateMutability": "nonpayable",
      "type": "function"
    },
    {
      "inputs": [
        {
          "internalType": "address",
          "name": "nextPreviousGateway_",
          "type": "address"
        }
      ],
      "name": "updatePreviousGateway",
      "outputs": [],
      "stateMutability": "nonpayable",
      "type": "function"
    },
    {
      "inputs": [
        {
          "internalType": "contract ISignatureVerifier",
          "name": "nextSignatureVerifier_",
          "type": "address"
        }
      ],
      "name": "updateSignatureVerifier",
      "outputs": [],
      "stateMutability": "nonpayable",
      "type": "function"
    },
    {
      "inputs": [
        {
          "internalType": "address",
          "name": "nextToken_",
          "type": "address"
        }
      ],
      "name": "updateToken",
      "outputs": [],
      "stateMutability": "nonpayable",
      "type": "function"
    }
  ],
  "transactionHash": "0x41e683dd59e3ac4bb781347a39b4f8e3a647592d0fda9b2e7acc599c4e603565",
  "args": [],
  "solcInputHash": "cd16daf0061bcc045fc96aa81722133b",
  "bytecode": "0x608060405234801561001057600080fd5b506139f5806100206000396000f3fe608060405234801561001057600080fd5b506004361061018e5760003560e01c80637ad3def2116100de578063b48272cc11610097578063d489dc6c11610071578063d489dc6c14610493578063f2fde38b146104b1578063fc0c546a146104cd578063fde919f6146104eb5761018e565b8063b48272cc14610429578063c54216b414610459578063c763e5a1146104755761018e565b80637ad3def21461035557806385e1fd34146103715780638da5cb5b146103a1578063976e7a3e146103bf578063aa4df9ad146103ef578063aae8fdf01461040d5761018e565b80633f1264ef1161014b57806352ad0d5e1161012557806352ad0d5e146102cf5780635667981b146102ff5780635f4e23951461031b578063715018a61461034b5761018e565b80633f1264ef146102675780634a5bca8a146102975780635266ba0c146102b35761018e565b8063159ab14d1461019357806320506642146101c357806321e6b53d146101df57806329762976146101fb57806338463cff1461021957806338d52e0f14610249575b600080fd5b6101ad60048036038101906101a8919061267f565b610509565b6040516101ba9190613259565b60405180910390f35b6101dd60048036038101906101d891906128de565b610529565b005b6101f960048036038101906101f491906125f8565b610636565b005b610203610742565b6040516102109190612f04565b60405180910390f35b610233600480360381019061022e9190612799565b610748565b6040516102409190613259565b60405180910390f35b610251610784565b60405161025e9190612fed565b60405180910390f35b610281600480360381019061027c9190612702565b610812565b60405161028e9190613259565b60405180910390f35b6102b160048036038101906102ac91906128de565b610954565b005b6102cd60048036038101906102c891906125f8565b610a49565b005b6102e960048036038101906102e49190612652565b610bbc565b6040516102f69190612ee9565b60405180910390f35b61031960048036038101906103149190612864565b610cff565b005b610335600480360381019061033091906127f5565b610e72565b6040516103429190613259565b60405180910390f35b610353610fd0565b005b61036f600480360381019061036a91906125f8565b611058565b005b61038b60048036038101906103869190612652565b6111cb565b6040516103989190612ee9565b60405180910390f35b6103a96111eb565b6040516103b69190612ea5565b60405180910390f35b6103d960048036038101906103d49190612985565b611215565b6040516103e69190613259565b60405180910390f35b6103f7611235565b6040516104049190613259565b60405180910390f35b61042760048036038101906104229190612891565b61123f565b005b610443600480360381019061043e9190612a40565b611549565b6040516104509190613259565b60405180910390f35b610473600480360381019061046e9190612891565b611585565b005b61047d61188f565b60405161048a9190612fed565b60405180910390f35b61049b61191d565b6040516104a89190612ea5565b60405180910390f35b6104cb60048036038101906104c691906125f8565b611943565b005b6104d5611a3b565b6040516104e29190612ea5565b60405180910390f35b6104f3611a61565b6040516105009190612fd2565b60405180910390f35b600061051f8585858561051a611a87565b611a8f565b9050949350505050565b600060019054906101000a900460ff168061054f575060008054906101000a900460ff16155b61058e576040517f08c379a000000000000000000000000000000000000000000000000000000000815260040161058590613179565b60405180910390fd5b60008060019054906101000a900460ff1615905080156105de576001600060016101000a81548160ff02191690831515021790555060016000806101000a81548160ff0219169083151502179055505b6105e6611d3d565b6105f0878761123f565b6105fa8585611585565b61060383610cff565b61060c82611058565b801561062d5760008060016101000a81548160ff0219169083151502179055505b50505050505050565b61063e611a87565b73ffffffffffffffffffffffffffffffffffffffff1661065c6111eb565b73ffffffffffffffffffffffffffffffffffffffff16146106b2576040517f08c379a00000000000000000000000000000000000000000000000000000000081526004016106a9906131b9565b60405180910390fd5b606960009054906101000a900473ffffffffffffffffffffffffffffffffffffffff1673ffffffffffffffffffffffffffffffffffffffff1663f2fde38b826040518263ffffffff1660e01b815260040161070d9190612ea5565b600060405180830381600087803b15801561072757600080fd5b505af115801561073b573d6000803e3d6000fd5b5050505050565b60675481565b600061077c83604051806020016040528060008152506040518060200160405280600081525085610777611a87565b611e26565b905092915050565b6066805461079190613490565b80601f01602080910402602001604051908101604052809291908181526020018280546107bd90613490565b801561080a5780601f106107df5761010080835404028352916020019161080a565b820191906000526020600020905b8154815290600101906020018083116107ed57829003601f168201915b505050505081565b60008073ffffffffffffffffffffffffffffffffffffffff16606b60009054906101000a900473ffffffffffffffffffffffffffffffffffffffff1673ffffffffffffffffffffffffffffffffffffffff1614156108a5576040517f08c379a000000000000000000000000000000000000000000000000000000000815260040161089c906130f9565b60405180910390fd5b606b60009054906101000a900473ffffffffffffffffffffffffffffffffffffffff1673ffffffffffffffffffffffffffffffffffffffff166108e6611a87565b73ffffffffffffffffffffffffffffffffffffffff161461093c576040517f08c379a0000000000000000000000000000000000000000000000000000000008152600401610933906131d9565b60405180910390fd5b6109498686868686611a8f565b905095945050505050565b600060019054906101000a900460ff168061097a575060008054906101000a900460ff16155b6109b9576040517f08c379a00000000000000000000000000000000000000000000000000000000081526004016109b090613179565b60405180910390fd5b60008060019054906101000a900460ff161590508015610a09576001600060016101000a81548160ff02191690831515021790555060016000806101000a81548160ff0219169083151502179055505b610a11611d3d565b610a1f878787878787610529565b8015610a405760008060016101000a81548160ff0219169083151502179055505b50505050505050565b610a51611a87565b73ffffffffffffffffffffffffffffffffffffffff16610a6f6111eb565b73ffffffffffffffffffffffffffffffffffffffff1614610ac5576040517f08c379a0000000000000000000000000000000000000000000000000000000008152600401610abc906131b9565b60405180910390fd5b600073ffffffffffffffffffffffffffffffffffffffff168173ffffffffffffffffffffffffffffffffffffffff161415610b35576040517f08c379a0000000000000000000000000000000000000000000000000000000008152600401610b2c90613159565b60405180910390fd5b80606b60006101000a81548173ffffffffffffffffffffffffffffffffffffffff021916908373ffffffffffffffffffffffffffffffffffffffff1602179055508073ffffffffffffffffffffffffffffffffffffffff167f092a7f3d3a91b47e57583d808f4454c082a9c49b2582f836f5a301e982a2d04d60405160405180910390a250565b60006068600083815260200190815260200160002060009054906101000a900460ff1615610bed5760019050610cfa565b600073ffffffffffffffffffffffffffffffffffffffff16606b60009054906101000a900473ffffffffffffffffffffffffffffffffffffffff1673ffffffffffffffffffffffffffffffffffffffff1614610cf557606b60009054906101000a900473ffffffffffffffffffffffffffffffffffffffff1673ffffffffffffffffffffffffffffffffffffffff166385e1fd34836040518263ffffffff1660e01b8152600401610c9e9190612f04565b60206040518083038186803b158015610cb657600080fd5b505afa158015610cca573d6000803e3d6000fd5b505050506040513d601f19601f82011682018060405250810190610cee9190612625565b9050610cfa565b600090505b919050565b610d07611a87565b73ffffffffffffffffffffffffffffffffffffffff16610d256111eb565b73ffffffffffffffffffffffffffffffffffffffff1614610d7b576040517f08c379a0000000000000000000000000000000000000000000000000000000008152600401610d72906131b9565b60405180910390fd5b600073ffffffffffffffffffffffffffffffffffffffff168173ffffffffffffffffffffffffffffffffffffffff161415610deb576040517f08c379a0000000000000000000000000000000000000000000000000000000008152600401610de290613239565b60405180910390fd5b80606a60006101000a81548173ffffffffffffffffffffffffffffffffffffffff021916908373ffffffffffffffffffffffffffffffffffffffff1602179055508073ffffffffffffffffffffffffffffffffffffffff167fb57359628f7b44e9842ff204fb5700f84d8c4f9c3fc9dae13e7a1aab8ed164f760405160405180910390a250565b60008073ffffffffffffffffffffffffffffffffffffffff16606b60009054906101000a900473ffffffffffffffffffffffffffffffffffffffff1673ffffffffffffffffffffffffffffffffffffffff161415610f05576040517f08c379a0000000000000000000000000000000000000000000000000000000008152600401610efc906130f9565b60405180910390fd5b606b60009054906101000a900473ffffffffffffffffffffffffffffffffffffffff1673ffffffffffffffffffffffffffffffffffffffff16610f46611a87565b73ffffffffffffffffffffffffffffffffffffffff1614610f9c576040517f08c379a0000000000000000000000000000000000000000000000000000000008152600401610f93906131d9565b60405180910390fd5b610fc78460405180602001604052806000815250604051806020016040528060008152508686611e26565b90509392505050565b610fd8611a87565b73ffffffffffffffffffffffffffffffffffffffff16610ff66111eb565b73ffffffffffffffffffffffffffffffffffffffff161461104c576040517f08c379a0000000000000000000000000000000000000000000000000000000008152600401611043906131b9565b60405180910390fd5b6110566000611ff8565b565b611060611a87565b73ffffffffffffffffffffffffffffffffffffffff1661107e6111eb565b73ffffffffffffffffffffffffffffffffffffffff16146110d4576040517f08c379a00000000000000000000000000000000000000000000000000000000081526004016110cb906131b9565b60405180910390fd5b600073ffffffffffffffffffffffffffffffffffffffff168173ffffffffffffffffffffffffffffffffffffffff161415611144576040517f08c379a000000000000000000000000000000000000000000000000000000000815260040161113b90613139565b60405180910390fd5b80606960006101000a81548173ffffffffffffffffffffffffffffffffffffffff021916908373ffffffffffffffffffffffffffffffffffffffff1602179055508073ffffffffffffffffffffffffffffffffffffffff167f02dec22a3d1e8f9cdc0c7cd17ecee187f635788c40755be0a72dcd86a05e564d60405160405180910390a250565b60686020528060005260406000206000915054906101000a900460ff1681565b6000603360009054906101000a900473ffffffffffffffffffffffffffffffffffffffff16905090565b600061122b85858585611226611a87565b611e26565b9050949350505050565b6000606c54905090565b611247611a87565b73ffffffffffffffffffffffffffffffffffffffff166112656111eb565b73ffffffffffffffffffffffffffffffffffffffff16146112bb576040517f08c379a00000000000000000000000000000000000000000000000000000000081526004016112b2906131b9565b60405180910390fd5b61130882828080601f016020809104026020016040519081016040528093929190818152602001838380828437600081840152601f19601f820116905080830192505050505050506120be565b611347576040517f08c379a000000000000000000000000000000000000000000000000000000000815260040161133e90613219565b60405180910390fd5b61139482828080601f016020809104026020016040519081016040528093929190818152602001838380828437600081840152601f19601f820116905080830192505050505050506120cb565b6113d3576040517f08c379a00000000000000000000000000000000000000000000000000000000081526004016113ca906130b9565b60405180910390fd5b8181606591906113e49291906123b6565b50611503606680546113f590613490565b80601f016020809104026020016040519081016040528092919081815260200182805461142190613490565b801561146e5780601f106114435761010080835404028352916020019161146e565b820191906000526020600020905b81548152906001019060200180831161145157829003601f168201915b50505050506065805461148090613490565b80601f01602080910402602001604051908101604052809291908181526020018280546114ac90613490565b80156114f95780601f106114ce576101008083540402835291602001916114f9565b820191906000526020600020905b8154815290600101906020018083116114dc57829003601f168201915b5050505050612185565b6067819055507f4dc1740772ca26480ca22d412de18818650c980e3aef84a3ca49cbe4fa4ed880606560675460405161153d929190613069565b60405180910390a15050565b600061157d83604051806020016040528060008152506040518060200160405280600081525085611578611a87565b611e26565b905092915050565b61158d611a87565b73ffffffffffffffffffffffffffffffffffffffff166115ab6111eb565b73ffffffffffffffffffffffffffffffffffffffff1614611601576040517f08c379a00000000000000000000000000000000000000000000000000000000081526004016115f8906131b9565b60405180910390fd5b61164e82828080601f016020809104026020016040519081016040528093929190818152602001838380828437600081840152601f19601f820116905080830192505050505050506120be565b61168d576040517f08c379a000000000000000000000000000000000000000000000000000000000815260040161168490613119565b60405180910390fd5b6116da82828080601f016020809104026020016040519081016040528093929190818152602001838380828437600081840152601f19601f820116905080830192505050505050506120cb565b611719576040517f08c379a0000000000000000000000000000000000000000000000000000000008152600401611710906130b9565b60405180910390fd5b81816066919061172a9291906123b6565b506118496066805461173b90613490565b80601f016020809104026020016040519081016040528092919081815260200182805461176790613490565b80156117b45780601f10611789576101008083540402835291602001916117b4565b820191906000526020600020905b81548152906001019060200180831161179757829003601f168201915b5050505050606580546117c690613490565b80601f01602080910402602001604051908101604052809291908181526020018280546117f290613490565b801561183f5780601f106118145761010080835404028352916020019161183f565b820191906000526020600020905b81548152906001019060200180831161182257829003601f168201915b5050505050612185565b6067819055507f2e7c1f9bcc3b09d8e05594ab5d17b6c9b15b24cd506c5212f051f22990d081316066606754604051611883929190613069565b60405180910390a15050565b6065805461189c90613490565b80601f01602080910402602001604051908101604052809291908181526020018280546118c890613490565b80156119155780601f106118ea57610100808354040283529160200191611915565b820191906000526020600020905b8154815290600101906020018083116118f857829003601f168201915b505050505081565b606b60009054906101000a900473ffffffffffffffffffffffffffffffffffffffff1681565b61194b611a87565b73ffffffffffffffffffffffffffffffffffffffff166119696111eb565b73ffffffffffffffffffffffffffffffffffffffff16146119bf576040517f08c379a00000000000000000000000000000000000000000000000000000000081526004016119b6906131b9565b60405180910390fd5b600073ffffffffffffffffffffffffffffffffffffffff168173ffffffffffffffffffffffffffffffffffffffff161415611a2f576040517f08c379a0000000000000000000000000000000000000000000000000000000008152600401611a26906130d9565b60405180910390fd5b611a3881611ff8565b50565b606960009054906101000a900473ffffffffffffffffffffffffffffffffffffffff1681565b606a60009054906101000a900473ffffffffffffffffffffffffffffffffffffffff1681565b600033905090565b600080611aa1878760675486896121b8565b905060001515611ab082610bbc565b1515148015611acb575060001515611ac786610bbc565b1515145b611b0a576040517f08c379a0000000000000000000000000000000000000000000000000000000008152600401611b01906131f9565b60405180910390fd5b606a60009054906101000a900473ffffffffffffffffffffffffffffffffffffffff1673ffffffffffffffffffffffffffffffffffffffff1663daca6f7882866040518363ffffffff1660e01b8152600401611b67929190612f1f565b60206040518083038186803b158015611b7f57600080fd5b505afa158015611b93573d6000803e3d6000fd5b505050506040513d601f19601f82011682018060405250810190611bb79190612625565b611bf6576040517f08c379a0000000000000000000000000000000000000000000000000000000008152600401611bed90613199565b60405180910390fd5b60016068600083815260200190815260200160002060006101000a81548160ff02191690831515021790555060016068600087815260200190815260200160002060006101000a81548160ff021916908315150217905550606960009054906101000a900473ffffffffffffffffffffffffffffffffffffffff1673ffffffffffffffffffffffffffffffffffffffff166340c10f1984886040518363ffffffff1660e01b8152600401611cab929190612ec0565b600060405180830381600087803b158015611cc557600080fd5b505af1158015611cd9573d6000803e3d6000fd5b50505050848160001c8473ffffffffffffffffffffffffffffffffffffffff167fa58ba939eb08dab7eaf8ad09c16e7405ee88e5153e15da62d5481296a9f727fa89604051611d289190613259565b60405180910390a48591505095945050505050565b600060019054906101000a900460ff1680611d63575060008054906101000a900460ff16155b611da2576040517f08c379a0000000000000000000000000000000000000000000000000000000008152600401611d9990613179565b60405180910390fd5b60008060019054906101000a900460ff161590508015611df2576001600060016101000a81548160ff02191690831515021790555060016000806101000a81548160ff0219169083151502179055505b611dfa6121f4565b611e026122cd565b8015611e235760008060016101000a81548160ff0219169083151502179055505b50565b60008086511415611e6c576040517f08c379a0000000000000000000000000000000000000000000000000000000008152600401611e6390613099565b60405180910390fd5b606960009054906101000a900473ffffffffffffffffffffffffffffffffffffffff1673ffffffffffffffffffffffffffffffffffffffff16639dc29fac83856040518363ffffffff1660e01b8152600401611ec9929190612ec0565b600060405180830381600087803b158015611ee357600080fd5b505af1158015611ef7573d6000803e3d6000fd5b505050506000606c549050600086511180611f13575060008551115b15611f875785604051611f269190612e5f565b604051809103902087604051611f3c9190612e5f565b6040518091039020827ff1e98bc6e5ee93b47362bddb133886a2b471c968633a462b824f57cdb4b36c528a8a8a8a604051611f7a949392919061300f565b60405180910390a4611fd8565b86604051611f959190612e48565b6040518091039020817f1619fc95050ffb8c94c9077c82b3e1ebbf8d571b6234241c55ba0aaf40da019e8987604051611fcf929190612fa2565b60405180910390a35b600181611fe5919061335e565b606c819055508391505095945050505050565b6000603360009054906101000a900473ffffffffffffffffffffffffffffffffffffffff16905081603360006101000a81548173ffffffffffffffffffffffffffffffffffffffff021916908373ffffffffffffffffffffffffffffffffffffffff1602179055508173ffffffffffffffffffffffffffffffffffffffff168173ffffffffffffffffffffffffffffffffffffffff167f8be0079c531659141344cd1fd0a4f28419497f9722a3daafe3b4186f6b6457e060405160405180910390a35050565b6000808251119050919050565b600080600090505b825181101561217a5760008382815181106120f1576120f061359a565b5b602001015160f81c60f81b60f81c905060418160ff16101580156121195750605a8160ff1611155b80612138575060618160ff16101580156121375750607a8160ff1611155b5b80612157575060308160ff1610158015612156575060398160ff1611155b5b61216657600092505050612180565b508080612172906134f3565b9150506120d3565b50600190505b919050565b6000828260405160200161219a929190612e76565b60405160208183030381529060405280519060200120905092915050565b600085858585856040516020016121d3959493929190612f4f565b60405160208183030381529060405280519060200120905095945050505050565b600060019054906101000a900460ff168061221a575060008054906101000a900460ff16155b612259576040517f08c379a000000000000000000000000000000000000000000000000000000000815260040161225090613179565b60405180910390fd5b60008060019054906101000a900460ff1615905080156122a9576001600060016101000a81548160ff02191690831515021790555060016000806101000a81548160ff0219169083151502179055505b80156122ca5760008060016101000a81548160ff0219169083151502179055505b50565b600060019054906101000a900460ff16806122f3575060008054906101000a900460ff16155b612332576040517f08c379a000000000000000000000000000000000000000000000000000000000815260040161232990613179565b60405180910390fd5b60008060019054906101000a900460ff161590508015612382576001600060016101000a81548160ff02191690831515021790555060016000806101000a81548160ff0219169083151502179055505b61239261238d611a87565b611ff8565b80156123b35760008060016101000a81548160ff0219169083151502179055505b50565b8280546123c290613490565b90600052602060002090601f0160209004810192826123e4576000855561242b565b82601f106123fd57803560ff191683800117855561242b565b8280016001018555821561242b579182015b8281111561242a57823582559160200191906001019061240f565b5b509050612438919061243c565b5090565b5b8082111561245557600081600090555060010161243d565b5090565b600061246c61246784613299565b613274565b90508281526020810184848401111561248857612487613607565b5b61249384828561344e565b509392505050565b60006124ae6124a9846132ca565b613274565b9050828152602081018484840111156124ca576124c9613607565b5b6124d584828561344e565b509392505050565b6000813590506124ec8161394c565b92915050565b60008151905061250181613963565b92915050565b6000813590506125168161397a565b92915050565b600082601f830112612531576125306135fd565b5b8135612541848260208601612459565b91505092915050565b60008135905061255981613991565b92915050565b60008083601f840112612575576125746135fd565b5b8235905067ffffffffffffffff811115612592576125916135f8565b5b6020830191508360018202830111156125ae576125ad613602565b5b9250929050565b600082601f8301126125ca576125c96135fd565b5b81356125da84826020860161249b565b91505092915050565b6000813590506125f2816139a8565b92915050565b60006020828403121561260e5761260d613611565b5b600061261c848285016124dd565b91505092915050565b60006020828403121561263b5761263a613611565b5b6000612649848285016124f2565b91505092915050565b60006020828403121561266857612667613611565b5b600061267684828501612507565b91505092915050565b6000806000806080858703121561269957612698613611565b5b60006126a787828801612507565b94505060206126b8878288016125e3565b93505060406126c987828801612507565b925050606085013567ffffffffffffffff8111156126ea576126e961360c565b5b6126f68782880161251c565b91505092959194509250565b600080600080600060a0868803121561271e5761271d613611565b5b600061272c88828901612507565b955050602061273d888289016125e3565b945050604061274e88828901612507565b935050606086013567ffffffffffffffff81111561276f5761276e61360c565b5b61277b8882890161251c565b925050608061278c888289016124dd565b9150509295509295909350565b600080604083850312156127b0576127af613611565b5b600083013567ffffffffffffffff8111156127ce576127cd61360c565b5b6127da8582860161251c565b92505060206127eb858286016125e3565b9150509250929050565b60008060006060848603121561280e5761280d613611565b5b600084013567ffffffffffffffff81111561282c5761282b61360c565b5b6128388682870161251c565b9350506020612849868287016125e3565b925050604061285a868287016124dd565b9150509250925092565b60006020828403121561287a57612879613611565b5b60006128888482850161254a565b91505092915050565b600080602083850312156128a8576128a7613611565b5b600083013567ffffffffffffffff8111156128c6576128c561360c565b5b6128d28582860161255f565b92509250509250929050565b600080600080600080608087890312156128fb576128fa613611565b5b600087013567ffffffffffffffff8111156129195761291861360c565b5b61292589828a0161255f565b9650965050602087013567ffffffffffffffff8111156129485761294761360c565b5b61295489828a0161255f565b9450945050604061296789828a016124dd565b925050606061297889828a016124dd565b9150509295509295509295565b6000806000806080858703121561299f5761299e613611565b5b600085013567ffffffffffffffff8111156129bd576129bc61360c565b5b6129c9878288016125b5565b945050602085013567ffffffffffffffff8111156129ea576129e961360c565b5b6129f6878288016125b5565b935050604085013567ffffffffffffffff811115612a1757612a1661360c565b5b612a238782880161251c565b9250506060612a34878288016125e3565b91505092959194509250565b60008060408385031215612a5757612a56613611565b5b600083013567ffffffffffffffff811115612a7557612a7461360c565b5b612a81858286016125b5565b9250506020612a92858286016125e3565b9150509250929050565b612aa5816133b4565b82525050565b612ab4816133c6565b82525050565b612ac3816133d2565b82525050565b6000612ad482613310565b612ade8185613326565b9350612aee81856020860161345d565b612af781613616565b840191505092915050565b6000612b0d82613310565b612b178185613337565b9350612b2781856020860161345d565b80840191505092915050565b612b3c81613418565b82525050565b6000612b4d8261331b565b612b578185613342565b9350612b6781856020860161345d565b612b7081613616565b840191505092915050565b6000612b868261331b565b612b908185613353565b9350612ba081856020860161345d565b80840191505092915050565b60008154612bb981613490565b612bc38186613342565b94506001821660008114612bde5760018114612bf057612c23565b60ff1983168652602086019350612c23565b612bf9856132fb565b60005b83811015612c1b57815481890152600182019150602081019050612bfc565b808801955050505b50505092915050565b6000612c39602083613342565b9150612c4482613627565b602082019050919050565b6000612c5c602483613342565b9150612c6782613650565b604082019050919050565b6000612c7f602683613342565b9150612c8a8261369f565b604082019050919050565b6000612ca2601c83613342565b9150612cad826136ee565b602082019050919050565b6000612cc5601d83613342565b9150612cd082613717565b602082019050919050565b6000612ce8601683613342565b9150612cf382613740565b602082019050919050565b6000612d0b601883613342565b9150612d1682613769565b602082019050919050565b6000612d2e602e83613342565b9150612d3982613792565b604082019050919050565b6000612d51601e83613342565b9150612d5c826137e1565b602082019050919050565b6000612d74602083613342565b9150612d7f8261380a565b602082019050919050565b6000612d97601783613342565b9150612da282613833565b602082019050919050565b6000612dba602483613342565b9150612dc58261385c565b604082019050919050565b6000612ddd600383613353565b9150612de8826138ab565b600382019050919050565b6000612e00601d83613342565b9150612e0b826138d4565b602082019050919050565b6000612e23602383613342565b9150612e2e826138fd565b604082019050919050565b612e428161340e565b82525050565b6000612e548284612b02565b915081905092915050565b6000612e6b8284612b7b565b915081905092915050565b6000612e828285612b7b565b9150612e8d82612dd0565b9150612e998284612b7b565b91508190509392505050565b6000602082019050612eba6000830184612a9c565b92915050565b6000604082019050612ed56000830185612a9c565b612ee26020830184612e39565b9392505050565b6000602082019050612efe6000830184612aab565b92915050565b6000602082019050612f196000830184612aba565b92915050565b6000604082019050612f346000830185612aba565b8181036020830152612f468184612ac9565b90509392505050565b600060a082019050612f646000830188612aba565b612f716020830187612e39565b612f7e6040830186612aba565b612f8b6060830185612a9c565b612f986080830184612aba565b9695505050505050565b60006040820190508181036000830152612fbc8185612ac9565b9050612fcb6020830184612e39565b9392505050565b6000602082019050612fe76000830184612b33565b92915050565b600060208201905081810360008301526130078184612b42565b905092915050565b600060808201905081810360008301526130298187612b42565b9050818103602083015261303d8186612b42565b905081810360408301526130518185612ac9565b90506130606060830184612e39565b95945050505050565b600060408201905081810360008301526130838185612bac565b90506130926020830184612aba565b9392505050565b600060208201905081810360008301526130b281612c2c565b9050919050565b600060208201905081810360008301526130d281612c4f565b9050919050565b600060208201905081810360008301526130f281612c72565b9050919050565b6000602082019050818103600083015261311281612c95565b9050919050565b6000602082019050818103600083015261313281612cb8565b9050919050565b6000602082019050818103600083015261315281612cdb565b9050919050565b6000602082019050818103600083015261317281612cfe565b9050919050565b6000602082019050818103600083015261319281612d21565b9050919050565b600060208201905081810360008301526131b281612d44565b9050919050565b600060208201905081810360008301526131d281612d67565b9050919050565b600060208201905081810360008301526131f281612d8a565b9050919050565b6000602082019050818103600083015261321281612dad565b9050919050565b6000602082019050818103600083015261323281612df3565b9050919050565b6000602082019050818103600083015261325281612e16565b9050919050565b600060208201905061326e6000830184612e39565b92915050565b600061327e61328f565b905061328a82826134c2565b919050565b6000604051905090565b600067ffffffffffffffff8211156132b4576132b36135c9565b5b6132bd82613616565b9050602081019050919050565b600067ffffffffffffffff8211156132e5576132e46135c9565b5b6132ee82613616565b9050602081019050919050565b60008190508160005260206000209050919050565b600081519050919050565b600081519050919050565b600082825260208201905092915050565b600081905092915050565b600082825260208201905092915050565b600081905092915050565b60006133698261340e565b91506133748361340e565b9250827fffffffffffffffffffffffffffffffffffffffffffffffffffffffffffffffff038211156133a9576133a861353c565b5b828201905092915050565b60006133bf826133ee565b9050919050565b60008115159050919050565b6000819050919050565b60006133e7826133b4565b9050919050565b600073ffffffffffffffffffffffffffffffffffffffff82169050919050565b6000819050919050565b60006134238261342a565b9050919050565b60006134358261343c565b9050919050565b6000613447826133ee565b9050919050565b82818337600083830152505050565b60005b8381101561347b578082015181840152602081019050613460565b8381111561348a576000848401525b50505050565b600060028204905060018216806134a857607f821691505b602082108114156134bc576134bb61356b565b5b50919050565b6134cb82613616565b810181811067ffffffffffffffff821117156134ea576134e96135c9565b5b80604052505050565b60006134fe8261340e565b91507fffffffffffffffffffffffffffffffffffffffffffffffffffffffffffffffff8214156135315761353061353c565b5b600182019050919050565b7f4e487b7100000000000000000000000000000000000000000000000000000000600052601160045260246000fd5b7f4e487b7100000000000000000000000000000000000000000000000000000000600052602260045260246000fd5b7f4e487b7100000000000000000000000000000000000000000000000000000000600052603260045260246000fd5b7f4e487b7100000000000000000000000000000000000000000000000000000000600052604160045260246000fd5b600080fd5b600080fd5b600080fd5b600080fd5b600080fd5b600080fd5b6000601f19601f8301169050919050565b7f4d696e74476174657761793a20746f206164647265737320697320656d707479600082015250565b7f476174657761793a2073796d626f6c206d75737420626520616c7068616e756d60008201527f6572696300000000000000000000000000000000000000000000000000000000602082015250565b7f4f776e61626c653a206e6577206f776e657220697320746865207a65726f206160008201527f6464726573730000000000000000000000000000000000000000000000000000602082015250565b7f476174657761793a206e6f2070726576696f7573206761746577617900000000600082015250565b7f476174657761793a2061737365742063616e277420626520656d707479000000600082015250565b7f476174657761793a20696e76616c696420746f6b656e00000000000000000000600082015250565b7f476174657761793a20696e76616c696420616464726573730000000000000000600082015250565b7f496e697469616c697a61626c653a20636f6e747261637420697320616c72656160008201527f647920696e697469616c697a6564000000000000000000000000000000000000602082015250565b7f4d696e74476174657761793a20696e76616c6964207369676e61747572650000600082015250565b7f4f776e61626c653a2063616c6c6572206973206e6f7420746865206f776e6572600082015250565b7f476174657761793a206e6f7420617574686f72697a6564000000000000000000600082015250565b7f4d696e74476174657761793a207369676e617475726520616c7265616479207360008201527f70656e7400000000000000000000000000000000000000000000000000000000602082015250565b7f2f746f0000000000000000000000000000000000000000000000000000000000600082015250565b7f476174657761793a20636861696e2063616e277420626520656d707479000000600082015250565b7f476174657761793a20696e76616c6964207369676e617475726520766572696660008201527f6965720000000000000000000000000000000000000000000000000000000000602082015250565b613955816133b4565b811461396057600080fd5b50565b61396c816133c6565b811461397757600080fd5b50565b613983816133d2565b811461398e57600080fd5b50565b61399a816133dc565b81146139a557600080fd5b50565b6139b18161340e565b81146139bc57600080fd5b5056fea26469706673582212200e9a154539b1243732d9a622b9fddce70344d816a28864a8ab084b9395b23ffa64736f6c63430008070033",
  "devdoc": {
    "events": {
      "LogBurn(bytes,uint256,uint256,bytes)": {
        "details": "Once `LogBurnToChain` is enabled on mainnet, LogBurn may be replaced by LogBurnToChain with empty payload and chain fields.For backwards compatibility, `to` is bytes instead of a string."
      },
      "LogMint(address,uint256,uint256,bytes32)": {
        "details": "For backwards compatiblity reasons, the sigHash is cast to a uint256."
      }
    },
    "kind": "dev",
    "methods": {
      "burnWithPayload(string,string,bytes,uint256)": {
        "params": {
          "amount_": "The amount of the token being locked, in the asset's        smallest unit. (e.g. satoshis for BTC)",
          "recipientAddress_": "The address to which the locked assets will be        minted to. The address should be a plain-text address, without        decoding to bytes first.",
          "recipientChain_": "The target chain to which the assets are being        moved to.",
          "recipientPayload_": "An optional payload to be passed to the        recipient chain along with the address."
        }
      },
      "mint(bytes32,uint256,bytes32,bytes)": {
        "params": {
          "amount_": "The amount of the token being minted, in its smallest        value. (e.g. satoshis for BTC).",
          "nHash_": "(nonce hash) The hash of the nonce, amount and pHash.",
          "pHash_": "(payload hash) The hash of the payload associated with the        mint.",
          "sig_": "The signature of the hash of the following values:        (pHash, amount, msg.sender, nHash), signed by the mintAuthority."
        }
      },
      "owner()": {
        "details": "Returns the address of the current owner."
      },
      "renounceOwnership()": {
        "details": "Leaves the contract without owner. It will not be possible to call `onlyOwner` functions anymore. Can only be called by the current owner. NOTE: Renouncing ownership will leave the contract without an owner, thereby removing any functionality that is only available to the owner."
      },
      "transferOwnership(address)": {
        "details": "Transfers ownership of the contract to a new account (`newOwner`). Can only be called by the current owner."
      },
      "updateAsset(string)": {
        "params": {
          "nextAsset_": "The new asset."
        }
      },
      "updateChain(string)": {
        "params": {
          "nextChain_": "The new chain."
        }
      },
      "updatePreviousGateway(address)": {
        "params": {
          "nextPreviousGateway_": "The new gateway contract's address."
        }
      },
      "updateSignatureVerifier(address)": {
        "params": {
          "nextSignatureVerifier_": "The new verifier contract address."
        }
      },
      "updateToken(address)": {
        "params": {
          "nextToken_": "The new ERC20 token contract's address."
        }
      }
    },
    "version": 1
  },
  "userdoc": {
    "kind": "user",
    "methods": {
      "_status(bytes32)": {
        "notice": "Each signature can only be seen once."
      },
      "burn(bytes,uint256)": {
        "notice": "Same as `burn` with the recipient parameter being `bytes` instead of a `string`. For backwards compatibility with the MintGatewayV2."
      },
      "burn(string,uint256)": {
        "notice": "burn is a convenience function that is equivalent to calling         `burnWithPayload` with an empty payload and chain, releasing         the asset to the native chain."
      },
      "burnWithPayload(string,string,bytes,uint256)": {
        "notice": "burnWithPayload allows minted assets to be released to their         native chain, or to another chain as specified by the chain and         payload parameters.         WARNING: Burning with invalid parameters can cause the funds to         become unrecoverable."
      },
      "mint(bytes32,uint256,bytes32,bytes)": {
        "notice": "mint verifies a mint approval signature from RenVM and creates         tokens after taking a fee for the `_feeRecipient`."
      },
      "token()": {
        "notice": "Each Gateway is tied to a specific asset."
      },
      "transferTokenOwnership(address)": {
        "notice": "Allow the owner to update the owner of the RenERC20 token."
      },
      "updateAsset(string)": {
        "notice": "Allow the owner to update the asset."
      },
      "updateChain(string)": {
        "notice": "Allow the owner to update the chain."
      },
      "updatePreviousGateway(address)": {
        "notice": "Allow the owner to update the previous gateway used for backwards compatibility."
      },
      "updateSignatureVerifier(address)": {
        "notice": "Allow the owner to update the signature verifier contract."
      },
      "updateToken(address)": {
        "notice": "Allow the owner to update the ERC20 token contract."
      }
    },
    "notice": "Gateway handles verifying mint and burn requests. A mintAuthority approves new assets to be minted by providing a digital signature. An owner of an asset can request for it to be burnt.",
    "version": 1
  },
  "storageLayout": {
    "storage": [
      {
        "astId": 773,
        "contract": "src/Gateways/MintGateway.sol:MintGatewayV3",
        "label": "_initialized",
        "offset": 0,
        "slot": "0",
        "type": "t_bool"
      },
      {
        "astId": 776,
        "contract": "src/Gateways/MintGateway.sol:MintGatewayV3",
        "label": "_initializing",
        "offset": 1,
        "slot": "0",
        "type": "t_bool"
      },
      {
        "astId": 1994,
        "contract": "src/Gateways/MintGateway.sol:MintGatewayV3",
        "label": "__gap",
        "offset": 0,
        "slot": "1",
        "type": "t_array(t_uint256)50_storage"
      },
      {
        "astId": 653,
        "contract": "src/Gateways/MintGateway.sol:MintGatewayV3",
        "label": "_owner",
        "offset": 0,
        "slot": "51",
        "type": "t_address"
      },
      {
        "astId": 766,
        "contract": "src/Gateways/MintGateway.sol:MintGatewayV3",
        "label": "__gap",
        "offset": 0,
        "slot": "52",
        "type": "t_array(t_uint256)49_storage"
      },
      {
        "astId": 8782,
        "contract": "src/Gateways/MintGateway.sol:MintGatewayV3",
        "label": "chain",
        "offset": 0,
        "slot": "101",
        "type": "t_string_storage"
      },
      {
        "astId": 8784,
        "contract": "src/Gateways/MintGateway.sol:MintGatewayV3",
        "label": "asset",
        "offset": 0,
        "slot": "102",
        "type": "t_string_storage"
      },
      {
        "astId": 8786,
        "contract": "src/Gateways/MintGateway.sol:MintGatewayV3",
        "label": "selectorHash",
        "offset": 0,
        "slot": "103",
        "type": "t_bytes32"
      },
      {
        "astId": 8791,
        "contract": "src/Gateways/MintGateway.sol:MintGatewayV3",
        "label": "_status",
        "offset": 0,
        "slot": "104",
        "type": "t_mapping(t_bytes32,t_bool)"
      },
      {
        "astId": 8794,
        "contract": "src/Gateways/MintGateway.sol:MintGatewayV3",
        "label": "token",
        "offset": 0,
        "slot": "105",
        "type": "t_address"
      },
      {
        "astId": 8797,
        "contract": "src/Gateways/MintGateway.sol:MintGatewayV3",
        "label": "signatureVerifier",
        "offset": 0,
        "slot": "106",
        "type": "t_contract(ISignatureVerifier)9235"
      },
      {
        "astId": 8799,
        "contract": "src/Gateways/MintGateway.sol:MintGatewayV3",
        "label": "previousGateway",
        "offset": 0,
        "slot": "107",
        "type": "t_address"
      },
      {
        "astId": 8801,
        "contract": "src/Gateways/MintGateway.sol:MintGatewayV3",
        "label": "eventNonce",
        "offset": 0,
        "slot": "108",
        "type": "t_uint256"
      },
      {
        "astId": 8805,
        "contract": "src/Gateways/MintGateway.sol:MintGatewayV3",
        "label": "__gap",
        "offset": 0,
        "slot": "109",
        "type": "t_array(t_uint256)43_storage"
      }
    ],
    "types": {
      "t_address": {
        "encoding": "inplace",
        "label": "address",
        "numberOfBytes": "20"
      },
      "t_array(t_uint256)43_storage": {
        "base": "t_uint256",
        "encoding": "inplace",
        "label": "uint256[43]",
        "numberOfBytes": "1376"
      },
      "t_array(t_uint256)49_storage": {
        "base": "t_uint256",
        "encoding": "inplace",
        "label": "uint256[49]",
        "numberOfBytes": "1568"
      },
      "t_array(t_uint256)50_storage": {
        "base": "t_uint256",
        "encoding": "inplace",
        "label": "uint256[50]",
        "numberOfBytes": "1600"
      },
      "t_bool": {
        "encoding": "inplace",
        "label": "bool",
        "numberOfBytes": "1"
      },
      "t_bytes32": {
        "encoding": "inplace",
        "label": "bytes32",
        "numberOfBytes": "32"
      },
      "t_contract(ISignatureVerifier)9235": {
        "encoding": "inplace",
        "label": "contract ISignatureVerifier",
        "numberOfBytes": "20"
      },
      "t_mapping(t_bytes32,t_bool)": {
        "encoding": "mapping",
        "key": "t_bytes32",
        "label": "mapping(bytes32 => bool)",
        "numberOfBytes": "32",
        "value": "t_bool"
      },
      "t_string_storage": {
        "encoding": "bytes",
        "label": "string",
        "numberOfBytes": "32"
      },
      "t_uint256": {
        "encoding": "inplace",
        "label": "uint256",
        "numberOfBytes": "32"
      }
    }
  }
}