{
  "address": "0x0835ca51111c4737287C79015Fb66072DFB44336",
  "abi": [
    {
      "anonymous": false,
      "inputs": [
        {
          "indexed": true,
          "internalType": "address",
          "name": "owner",
          "type": "address"
        },
        {
          "indexed": true,
          "internalType": "address",
          "name": "approved",
          "type": "address"
        },
        {
          "indexed": true,
          "internalType": "uint256",
          "name": "tokenId",
          "type": "uint256"
        }
      ],
      "name": "Approval",
      "type": "event"
    },
    {
      "anonymous": false,
      "inputs": [
        {
          "indexed": true,
          "internalType": "address",
          "name": "owner",
          "type": "address"
        },
        {
          "indexed": true,
          "internalType": "address",
          "name": "operator",
          "type": "address"
        },
        {
          "indexed": false,
          "internalType": "bool",
          "name": "approved",
          "type": "bool"
        }
      ],
      "name": "ApprovalForAll",
      "type": "event"
    },
    {
      "anonymous": false,
      "inputs": [
        {
          "indexed": false,
          "internalType": "uint8",
          "name": "version",
          "type": "uint8"
        }
      ],
      "name": "Initialized",
      "type": "event"
    },
    {
      "anonymous": false,
      "inputs": [
        {
          "indexed": true,
          "internalType": "address",
          "name": "previousOwner",
          "type": "address"
        },
        {
          "indexed": true,
          "internalType": "address",
          "name": "newOwner",
          "type": "address"
        }
      ],
      "name": "OwnershipTransferred",
      "type": "event"
    },
    {
      "anonymous": false,
      "inputs": [
        {
          "indexed": true,
          "internalType": "address",
          "name": "from",
          "type": "address"
        },
        {
          "indexed": true,
          "internalType": "address",
          "name": "to",
          "type": "address"
        },
        {
          "indexed": true,
          "internalType": "uint256",
          "name": "tokenId",
          "type": "uint256"
        }
      ],
      "name": "Transfer",
      "type": "event"
    },
    {
      "inputs": [],
      "name": "DOMAIN_SEPARATOR",
      "outputs": [
        {
          "internalType": "bytes32",
          "name": "",
          "type": "bytes32"
        }
      ],
      "stateMutability": "view",
      "type": "function"
    },
    {
      "inputs": [],
      "name": "NAME",
      "outputs": [
        {
          "internalType": "string",
          "name": "",
          "type": "string"
        }
      ],
      "stateMutability": "view",
      "type": "function"
    },
    {
      "inputs": [],
      "name": "PERMIT_TYPEHASH",
      "outputs": [
        {
          "internalType": "bytes32",
          "name": "",
          "type": "bytes32"
        }
      ],
      "stateMutability": "view",
      "type": "function"
    },
    {
      "inputs": [
        {
          "internalType": "uint256",
          "name": "chainId",
          "type": "uint256"
        },
        {
          "internalType": "string",
          "name": "version_",
          "type": "string"
        },
        {
          "internalType": "string",
          "name": "name_",
          "type": "string"
        },
        {
          "internalType": "string",
          "name": "symbol_",
          "type": "string"
        }
      ],
      "name": "__ERC721WithPermit_init",
      "outputs": [],
      "stateMutability": "nonpayable",
      "type": "function"
    },
    {
      "inputs": [
        {
          "internalType": "uint256",
          "name": "chainId",
          "type": "uint256"
        },
        {
          "internalType": "string",
          "name": "version_",
          "type": "string"
        },
        {
          "internalType": "string",
          "name": "name_",
          "type": "string"
        },
        {
          "internalType": "string",
          "name": "symbol_",
          "type": "string"
        },
        {
          "internalType": "address",
          "name": "contractOwner",
          "type": "address"
        }
      ],
      "name": "__RenERC721_init",
      "outputs": [],
      "stateMutability": "nonpayable",
      "type": "function"
    },
    {
      "inputs": [
        {
          "internalType": "address",
          "name": "to",
          "type": "address"
        },
        {
          "internalType": "uint256",
          "name": "tokenId",
          "type": "uint256"
        }
      ],
      "name": "approve",
      "outputs": [],
      "stateMutability": "nonpayable",
      "type": "function"
    },
    {
      "inputs": [
        {
          "internalType": "address",
          "name": "owner",
          "type": "address"
        }
      ],
      "name": "balanceOf",
      "outputs": [
        {
          "internalType": "uint256",
          "name": "",
          "type": "uint256"
        }
      ],
      "stateMutability": "view",
      "type": "function"
    },
    {
      "inputs": [
        {
          "internalType": "address",
          "name": "",
          "type": "address"
        },
        {
          "internalType": "uint256",
          "name": "tokenId",
          "type": "uint256"
        }
      ],
      "name": "burn",
      "outputs": [],
      "stateMutability": "nonpayable",
      "type": "function"
    },
    {
      "inputs": [
        {
          "internalType": "uint256",
          "name": "tokenId",
          "type": "uint256"
        }
      ],
      "name": "getApproved",
      "outputs": [
        {
          "internalType": "address",
          "name": "",
          "type": "address"
        }
      ],
      "stateMutability": "view",
      "type": "function"
    },
    {
      "inputs": [
        {
          "internalType": "address",
          "name": "owner",
          "type": "address"
        },
        {
          "internalType": "address",
          "name": "operator",
          "type": "address"
        }
      ],
      "name": "isApprovedForAll",
      "outputs": [
        {
          "internalType": "bool",
          "name": "",
          "type": "bool"
        }
      ],
      "stateMutability": "view",
      "type": "function"
    },
    {
      "inputs": [
        {
          "internalType": "address",
          "name": "to",
          "type": "address"
        },
        {
          "internalType": "uint256",
          "name": "tokenId",
          "type": "uint256"
        }
      ],
      "name": "mint",
      "outputs": [],
      "stateMutability": "nonpayable",
      "type": "function"
    },
    {
      "inputs": [],
      "name": "name",
      "outputs": [
        {
          "internalType": "string",
          "name": "",
          "type": "string"
        }
      ],
      "stateMutability": "view",
      "type": "function"
    },
    {
      "inputs": [
        {
          "internalType": "address",
          "name": "holder",
          "type": "address"
        }
      ],
      "name": "nonces",
      "outputs": [
        {
          "internalType": "uint256",
          "name": "",
          "type": "uint256"
        }
      ],
      "stateMutability": "view",
      "type": "function"
    },
    {
      "inputs": [],
      "name": "owner",
      "outputs": [
        {
          "internalType": "address",
          "name": "",
          "type": "address"
        }
      ],
      "stateMutability": "view",
      "type": "function"
    },
    {
      "inputs": [
        {
          "internalType": "uint256",
          "name": "tokenId",
          "type": "uint256"
        }
      ],
      "name": "ownerOf",
      "outputs": [
        {
          "internalType": "address",
          "name": "",
          "type": "address"
        }
      ],
      "stateMutability": "view",
      "type": "function"
    },
    {
      "inputs": [
        {
          "internalType": "address",
          "name": "holder",
          "type": "address"
        },
        {
          "internalType": "address",
          "name": "spender",
          "type": "address"
        },
        {
          "internalType": "uint256",
          "name": "nonce",
          "type": "uint256"
        },
        {
          "internalType": "uint256",
          "name": "expiry",
          "type": "uint256"
        },
        {
          "internalType": "bool",
          "name": "allowed",
          "type": "bool"
        },
        {
          "internalType": "uint8",
          "name": "v",
          "type": "uint8"
        },
        {
          "internalType": "bytes32",
          "name": "r",
          "type": "bytes32"
        },
        {
          "internalType": "bytes32",
          "name": "s",
          "type": "bytes32"
        }
      ],
      "name": "permit",
      "outputs": [],
      "stateMutability": "nonpayable",
      "type": "function"
    },
    {
      "inputs": [],
      "name": "renounceOwnership",
      "outputs": [],
      "stateMutability": "nonpayable",
      "type": "function"
    },
    {
      "inputs": [
        {
          "internalType": "address",
          "name": "from",
          "type": "address"
        },
        {
          "internalType": "address",
          "name": "to",
          "type": "address"
        },
        {
          "internalType": "uint256",
          "name": "tokenId",
          "type": "uint256"
        }
      ],
      "name": "safeTransferFrom",
      "outputs": [],
      "stateMutability": "nonpayable",
      "type": "function"
    },
    {
      "inputs": [
        {
          "internalType": "address",
          "name": "from",
          "type": "address"
        },
        {
          "internalType": "address",
          "name": "to",
          "type": "address"
        },
        {
          "internalType": "uint256",
          "name": "tokenId",
          "type": "uint256"
        },
        {
          "internalType": "bytes",
          "name": "data",
          "type": "bytes"
        }
      ],
      "name": "safeTransferFrom",
      "outputs": [],
      "stateMutability": "nonpayable",
      "type": "function"
    },
    {
      "inputs": [
        {
          "internalType": "address",
          "name": "operator",
          "type": "address"
        },
        {
          "internalType": "bool",
          "name": "approved",
          "type": "bool"
        }
      ],
      "name": "setApprovalForAll",
      "outputs": [],
      "stateMutability": "nonpayable",
      "type": "function"
    },
    {
      "inputs": [
        {
          "internalType": "bytes4",
          "name": "interfaceId",
          "type": "bytes4"
        }
      ],
      "name": "supportsInterface",
      "outputs": [
        {
          "internalType": "bool",
          "name": "",
          "type": "bool"
        }
      ],
      "stateMutability": "view",
      "type": "function"
    },
    {
      "inputs": [],
      "name": "symbol",
      "outputs": [
        {
          "internalType": "string",
          "name": "",
          "type": "string"
        }
      ],
      "stateMutability": "view",
      "type": "function"
    },
    {
      "inputs": [
        {
          "internalType": "uint256",
          "name": "tokenId",
          "type": "uint256"
        }
      ],
      "name": "tokenURI",
      "outputs": [
        {
          "internalType": "string",
          "name": "",
          "type": "string"
        }
      ],
      "stateMutability": "view",
      "type": "function"
    },
    {
      "inputs": [
        {
          "internalType": "address",
          "name": "sender",
          "type": "address"
        },
        {
          "internalType": "address",
          "name": "recipient",
          "type": "address"
        },
        {
          "internalType": "uint256",
          "name": "tokenId",
          "type": "uint256"
        }
      ],
      "name": "transferFrom",
      "outputs": [],
      "stateMutability": "nonpayable",
      "type": "function"
    },
    {
      "inputs": [
        {
          "internalType": "address",
          "name": "newOwner",
          "type": "address"
        }
      ],
      "name": "transferOwnership",
      "outputs": [],
      "stateMutability": "nonpayable",
      "type": "function"
    },
    {
      "inputs": [],
      "name": "version",
      "outputs": [
        {
          "internalType": "string",
          "name": "",
          "type": "string"
        }
      ],
      "stateMutability": "view",
      "type": "function"
    }
  ],
  "args": [],
  "numDeployments": 1,
  "solcInputHash": "1fc24ec92d75e781452354b8332143e5",
  "bytecode": "0x608060405234801561001057600080fd5b50612328806100206000396000f3fe608060405234801561001057600080fd5b506004361061018e5760003560e01c8063715018a6116100de578063a22cb46511610097578063b88d4fde11610071578063b88d4fde14610385578063c87b56dd14610398578063e985e9c5146103ab578063f2fde38b146103e757600080fd5b8063a22cb46514610337578063a3f4df7e1461034a578063b4f553ea1461037257600080fd5b8063715018a6146102c75780637ecebe00146102cf5780638da5cb5b146102f85780638fcbaf0c1461030957806395d89b411461031c5780639dc29fac1461032457600080fd5b80633644e5151161014b5780635434d93d116101255780635434d93d1461028657806354fd4d50146102995780636352211e146102a157806370a08231146102b457600080fd5b80633644e5151461025857806340c10f191461026057806342842e0e1461027357600080fd5b806301ffc9a71461019357806306fdde03146101bb578063081812fc146101d0578063095ea7b3146101fb57806323b872dd1461021057806330adf81f14610223575b600080fd5b6101a66101a1366004611e5a565b6103fa565b60405190151581526020015b60405180910390f35b6101c361044c565b6040516101b291906120ad565b6101e36101de366004611e94565b6104de565b6040516001600160a01b0390911681526020016101b2565b61020e610209366004611e30565b610505565b005b61020e61021e366004611c6b565b610620565b61024a7fea2aa0a1be11a07ed86d755c93467f4f82362b452371d1ba94d1715123511acb81565b6040519081526020016101b2565b60cb5461024a565b61020e61026e366004611e30565b610697565b61020e610281366004611c6b565b6106ad565b61020e610294366004611f51565b6106c8565b6101c36109c4565b6101e36102af366004611e94565b6109d3565b61024a6102c2366004611c1d565b610a33565b61020e610ab9565b61024a6102dd366004611c1d565b6001600160a01b0316600090815260c9602052604090205490565b6033546001600160a01b03166101e3565b61020e610317366004611d83565b610acd565b6101c3610db8565b61020e610332366004611e30565b610dc7565b61020e610345366004611e06565b610dd8565b6101c36040518060400160405280600981526020016852656e45524337323160b81b81525081565b61020e610380366004611ead565b610de3565b61020e610393366004611ca7565b610f1e565b6101c36103a6366004611e94565b610f56565b6101a66103b9366004611c38565b6001600160a01b039182166000908152609c6020908152604080832093909416825291909152205460ff1690565b61020e6103f5366004611c1d565b610fca565b60006001600160e01b031982166380ac58cd60e01b148061042b57506001600160e01b03198216635b5e139f60e01b145b8061044657506301ffc9a760e01b6001600160e01b03198316145b92915050565b60606097805461045b9061221a565b80601f01602080910402602001604051908101604052809291908181526020018280546104879061221a565b80156104d45780601f106104a9576101008083540402835291602001916104d4565b820191906000526020600020905b8154815290600101906020018083116104b757829003601f168201915b5050505050905090565b60006104e982610fd6565b506000908152609b60205260409020546001600160a01b031690565b6000610510826109d3565b9050806001600160a01b0316836001600160a01b031614156105835760405162461bcd60e51b815260206004820152602160248201527f4552433732313a20617070726f76616c20746f2063757272656e74206f776e656044820152603960f91b60648201526084015b60405180910390fd5b336001600160a01b038216148061059f575061059f81336103b9565b6106115760405162461bcd60e51b815260206004820152603e60248201527f4552433732313a20617070726f76652063616c6c6572206973206e6f7420746f60448201527f6b656e206f776e6572206e6f7220617070726f76656420666f7220616c6c0000606482015260840161057a565b61061b8383611035565b505050565b6001600160a01b03821630141561068c5760405162461bcd60e51b815260206004820152602a60248201527f52656e4552433732313a2063616e2774207472616e7366657220746f20746f6b604482015269656e206164647265737360b01b606482015260840161057a565b61061b8383836110a3565b61069f6110d4565b6106a9828261112e565b5050565b61061b83838360405180602001604052806000815250610f1e565b600054610100900460ff16158080156106e85750600054600160ff909116105b806107025750303b158015610702575060005460ff166001145b6107655760405162461bcd60e51b815260206004820152602e60248201527f496e697469616c697a61626c653a20636f6e747261637420697320616c72656160448201526d191e481a5b9a5d1a585b1a5e995960921b606482015260840161057a565b6000805460ff191660011790558015610788576000805461ff0019166101001790555b6107c788888080601f01602080910402602001604051908101604052809392919081815260200183838082843760009201919091525061127092505050565b6108135760405162461bcd60e51b815260206004820152601a60248201527f52656e4552433732313a20696e76616c69642076657273696f6e000000000000604482015260640161057a565b61085286868080601f01602080910402602001604051908101604052809392919081815260200183838082843760009201919091525061127092505050565b61089e5760405162461bcd60e51b815260206004820152601760248201527f52656e4552433732313a20696e76616c6964206e616d65000000000000000000604482015260640161057a565b6108dd84848080601f01602080910402602001604051908101604052809392919081815260200183838082843760009201919091525061127092505050565b6109295760405162461bcd60e51b815260206004820152601960248201527f52656e4552433732313a20696e76616c69642073796d626f6c00000000000000604482015260640161057a565b61093161128c565b61094089898989898989610de3565b816001600160a01b031661095c6033546001600160a01b031690565b6001600160a01b0316146109735761097382610fca565b80156109b9576000805461ff0019169055604051600181527f7f26b83ff96e1f2b6a682f133852f6798a09c465da95921460cefb38474024989060200160405180910390a15b505050505050505050565b606060ca805461045b9061221a565b6000818152609960205260408120546001600160a01b0316806104465760405162461bcd60e51b8152602060048201526018602482015277115490cdcc8c4e881a5b9d985b1a59081d1bdad95b88125160421b604482015260640161057a565b60006001600160a01b038216610a9d5760405162461bcd60e51b815260206004820152602960248201527f4552433732313a2061646472657373207a65726f206973206e6f7420612076616044820152683634b21037bbb732b960b91b606482015260840161057a565b506001600160a01b03166000908152609a602052604090205490565b610ac16110d4565b610acb60006112bb565b565b6000610ad860cb5490565b604080517fea2aa0a1be11a07ed86d755c93467f4f82362b452371d1ba94d1715123511acb60208201526001600160a01b03808d1692820192909252908a1660608201526080810189905260a0810188905286151560c082015260e00160405160208183030381529060405280519060200120604051602001610b7292919061190160f01b81526002810192909252602282015260420190565b60408051601f19818403018152919052805160209091012090506001600160a01b038916610bf45760405162461bcd60e51b815260206004820152602960248201527f455243373231576974685065726d69743a2061646472657373206d757374206e60448201526806f74206265203078360bc1b606482015260840161057a565b60408051600081526020810180835283905260ff861691810191909152606081018490526080810183905260019060a0016020604051602081039080840390855afa158015610c47573d6000803e3d6000fd5b505050602060405103516001600160a01b0316896001600160a01b031614610cbd5760405162461bcd60e51b815260206004820152602360248201527f455243373231576974685065726d69743a20696e76616c6964207369676e617460448201526275726560e81b606482015260840161057a565b851580610cca5750854211155b610d225760405162461bcd60e51b8152602060048201526024808201527f455243373231576974685065726d69743a207065726d697420686173206578706044820152631a5c995960e21b606482015260840161057a565b6001600160a01b038916600090815260c960205260409020548714610d895760405162461bcd60e51b815260206004820152601f60248201527f455243373231576974685065726d69743a20696e76616c6964206e6f6e636500604482015260640161057a565b610d948760016121ab565b6001600160a01b038a16600090815260c960205260409020556109b989898761130d565b60606098805461045b9061221a565b610dcf6110d4565b6106a9816113dc565b6106a933838361130d565b600054610100900460ff16610e0a5760405162461bcd60e51b815260040161057a90612112565b610e7d84848080601f01602080910402602001604051908101604052809392919081815260200183838082843760009201919091525050604080516020601f8801819004810282018101909252868152925086915085908190840183828082843760009201919091525061147792505050565b610e8960ca8787611a9b565b507f8b73c3c69bb8fe3d512ecc4cf759cc79239f7b179b0ffacaa9a75d522b39400f610eb361044c565b805190602001208787604051610eca929190612031565b6040805191829003822060208301949094528101919091526060810191909152608081018890523060a082015260c00160408051601f19818403018152919052805160209091012060cb5550505050505050565b610f2833836114a8565b610f445760405162461bcd60e51b815260040161057a9061215d565b610f5084848484611527565b50505050565b6060610f6182610fd6565b6000610f7860408051602081019091526000815290565b90506000815111610f985760405180602001604052806000815250610fc3565b80610fa28461155a565b604051602001610fb3929190612041565b6040516020818303038152906040525b9392505050565b610fd381611658565b50565b6000818152609960205260409020546001600160a01b0316610fd35760405162461bcd60e51b8152602060048201526018602482015277115490cdcc8c4e881a5b9d985b1a59081d1bdad95b88125160421b604482015260640161057a565b6000818152609b6020526040902080546001600160a01b0319166001600160a01b038416908117909155819061106a826109d3565b6001600160a01b03167f8c5be1e5ebec7d5bd14f71427d1e84f3dd0314c0f7b2291e5b200ac8c7c3b92560405160405180910390a45050565b6110ad33826114a8565b6110c95760405162461bcd60e51b815260040161057a9061215d565b61061b8383836116ce565b6033546001600160a01b03163314610acb5760405162461bcd60e51b815260206004820181905260248201527f4f776e61626c653a2063616c6c6572206973206e6f7420746865206f776e6572604482015260640161057a565b6001600160a01b0382166111845760405162461bcd60e51b815260206004820181905260248201527f4552433732313a206d696e7420746f20746865207a65726f2061646472657373604482015260640161057a565b6000818152609960205260409020546001600160a01b0316156111e95760405162461bcd60e51b815260206004820152601c60248201527f4552433732313a20746f6b656e20616c7265616479206d696e74656400000000604482015260640161057a565b6001600160a01b0382166000908152609a602052604081208054600192906112129084906121ab565b909155505060008181526099602052604080822080546001600160a01b0319166001600160a01b03861690811790915590518392907fddf252ad1be2c89b69c2b068fc378daa952ba7f163c4a11628f55a4df523b3ef908290a45050565b600061127c8251151590565b801561044657506104468261186a565b600054610100900460ff166112b35760405162461bcd60e51b815260040161057a90612112565b610acb611910565b603380546001600160a01b038381166001600160a01b0319831681179093556040519116919082907f8be0079c531659141344cd1fd0a4f28419497f9722a3daafe3b4186f6b6457e090600090a35050565b816001600160a01b0316836001600160a01b0316141561136f5760405162461bcd60e51b815260206004820152601960248201527f4552433732313a20617070726f766520746f2063616c6c657200000000000000604482015260640161057a565b6001600160a01b038381166000818152609c6020908152604080832094871680845294825291829020805460ff191686151590811790915591519182527f17307eab39ab6107e8899845ad3d59bd9653f200f220920489ca2b5937696c31910160405180910390a3505050565b60006113e7826109d3565b90506113f4600083611035565b6001600160a01b0381166000908152609a6020526040812080546001929061141d9084906121d7565b909155505060008281526099602052604080822080546001600160a01b0319169055518391906001600160a01b038416907fddf252ad1be2c89b69c2b068fc378daa952ba7f163c4a11628f55a4df523b3ef908390a45050565b600054610100900460ff1661149e5760405162461bcd60e51b815260040161057a90612112565b6106a98282611940565b6000806114b4836109d3565b9050806001600160a01b0316846001600160a01b031614806114fb57506001600160a01b038082166000908152609c602090815260408083209388168352929052205460ff165b8061151f5750836001600160a01b0316611514846104de565b6001600160a01b0316145b949350505050565b6115328484846116ce565b61153e8484848461198e565b610f505760405162461bcd60e51b815260040161057a906120c0565b60608161157e5750506040805180820190915260018152600360fc1b602082015290565b8160005b81156115a8578061159281612255565b91506115a19050600a836121c3565b9150611582565b60008167ffffffffffffffff8111156115c3576115c36122c6565b6040519080825280601f01601f1916602001820160405280156115ed576020820181803683370190505b5090505b841561151f576116026001836121d7565b915061160f600a86612270565b61161a9060306121ab565b60f81b81838151811061162f5761162f6122b0565b60200101906001600160f81b031916908160001a905350611651600a866121c3565b94506115f1565b6116606110d4565b6001600160a01b0381166116c55760405162461bcd60e51b815260206004820152602660248201527f4f776e61626c653a206e6577206f776e657220697320746865207a65726f206160448201526564647265737360d01b606482015260840161057a565b610fd3816112bb565b826001600160a01b03166116e1826109d3565b6001600160a01b0316146117455760405162461bcd60e51b815260206004820152602560248201527f4552433732313a207472616e736665722066726f6d20696e636f72726563742060448201526437bbb732b960d91b606482015260840161057a565b6001600160a01b0382166117a75760405162461bcd60e51b8152602060048201526024808201527f4552433732313a207472616e7366657220746f20746865207a65726f206164646044820152637265737360e01b606482015260840161057a565b6117b2600082611035565b6001600160a01b0383166000908152609a602052604081208054600192906117db9084906121d7565b90915550506001600160a01b0382166000908152609a602052604081208054600192906118099084906121ab565b909155505060008181526099602052604080822080546001600160a01b0319166001600160a01b0386811691821790925591518493918716917fddf252ad1be2c89b69c2b068fc378daa952ba7f163c4a11628f55a4df523b3ef91a4505050565b6000805b825181101561190757600083828151811061188b5761188b6122b0565b016020015160f81c9050604181108015906118aa5750605a8160ff1611155b806118c8575060618160ff16101580156118c85750607a8160ff1611155b806118e6575060308160ff16101580156118e6575060398160ff1611155b6118f4575060009392505050565b50806118ff81612255565b91505061186e565b50600192915050565b600054610100900460ff166119375760405162461bcd60e51b815260040161057a90612112565b610acb336112bb565b600054610100900460ff166119675760405162461bcd60e51b815260040161057a90612112565b815161197a906097906020850190611b1f565b50805161061b906098906020840190611b1f565b60006001600160a01b0384163b15611a9057604051630a85bd0160e11b81526001600160a01b0385169063150b7a02906119d2903390899088908890600401612070565b602060405180830381600087803b1580156119ec57600080fd5b505af1925050508015611a1c575060408051601f3d908101601f19168201909252611a1991810190611e77565b60015b611a76573d808015611a4a576040519150601f19603f3d011682016040523d82523d6000602084013e611a4f565b606091505b508051611a6e5760405162461bcd60e51b815260040161057a906120c0565b805181602001fd5b6001600160e01b031916630a85bd0160e11b14905061151f565b506001949350505050565b828054611aa79061221a565b90600052602060002090601f016020900481019282611ac95760008555611b0f565b82601f10611ae25782800160ff19823516178555611b0f565b82800160010185558215611b0f579182015b82811115611b0f578235825591602001919060010190611af4565b50611b1b929150611b93565b5090565b828054611b2b9061221a565b90600052602060002090601f016020900481019282611b4d5760008555611b0f565b82601f10611b6657805160ff1916838001178555611b0f565b82800160010185558215611b0f579182015b82811115611b0f578251825591602001919060010190611b78565b5b80821115611b1b5760008155600101611b94565b80356001600160a01b0381168114611bbf57600080fd5b919050565b80358015158114611bbf57600080fd5b60008083601f840112611be657600080fd5b50813567ffffffffffffffff811115611bfe57600080fd5b602083019150836020828501011115611c1657600080fd5b9250929050565b600060208284031215611c2f57600080fd5b610fc382611ba8565b60008060408385031215611c4b57600080fd5b611c5483611ba8565b9150611c6260208401611ba8565b90509250929050565b600080600060608486031215611c8057600080fd5b611c8984611ba8565b9250611c9760208501611ba8565b9150604084013590509250925092565b60008060008060808587031215611cbd57600080fd5b611cc685611ba8565b9350611cd460208601611ba8565b925060408501359150606085013567ffffffffffffffff80821115611cf857600080fd5b818701915087601f830112611d0c57600080fd5b813581811115611d1e57611d1e6122c6565b604051601f8201601f19908116603f01168101908382118183101715611d4657611d466122c6565b816040528281528a6020848701011115611d5f57600080fd5b82602086016020830137600060208483010152809550505050505092959194509250565b600080600080600080600080610100898b031215611da057600080fd5b611da989611ba8565b9750611db760208a01611ba8565b96506040890135955060608901359450611dd360808a01611bc4565b935060a089013560ff81168114611de957600080fd5b979a969950949793969295929450505060c08201359160e0013590565b60008060408385031215611e1957600080fd5b611e2283611ba8565b9150611c6260208401611bc4565b60008060408385031215611e4357600080fd5b611e4c83611ba8565b946020939093013593505050565b600060208284031215611e6c57600080fd5b8135610fc3816122dc565b600060208284031215611e8957600080fd5b8151610fc3816122dc565b600060208284031215611ea657600080fd5b5035919050565b60008060008060008060006080888a031215611ec857600080fd5b87359650602088013567ffffffffffffffff80821115611ee757600080fd5b611ef38b838c01611bd4565b909850965060408a0135915080821115611f0c57600080fd5b611f188b838c01611bd4565b909650945060608a0135915080821115611f3157600080fd5b50611f3e8a828b01611bd4565b989b979a50959850939692959293505050565b60008060008060008060008060a0898b031215611f6d57600080fd5b88359750602089013567ffffffffffffffff80821115611f8c57600080fd5b611f988c838d01611bd4565b909950975060408b0135915080821115611fb157600080fd5b611fbd8c838d01611bd4565b909750955060608b0135915080821115611fd657600080fd5b50611fe38b828c01611bd4565b9094509250611ff6905060808a01611ba8565b90509295985092959890939650565b6000815180845261201d8160208601602086016121ee565b601f01601f19169290920160200192915050565b8183823760009101908152919050565b600083516120538184602088016121ee565b8351908301906120678183602088016121ee565b01949350505050565b6001600160a01b03858116825284166020820152604081018390526080606082018190526000906120a390830184612005565b9695505050505050565b602081526000610fc36020830184612005565b60208082526032908201527f4552433732313a207472616e7366657220746f206e6f6e20455243373231526560408201527131b2b4bb32b91034b6b83632b6b2b73a32b960711b606082015260800190565b6020808252602b908201527f496e697469616c697a61626c653a20636f6e7472616374206973206e6f74206960408201526a6e697469616c697a696e6760a81b606082015260800190565b6020808252602e908201527f4552433732313a2063616c6c6572206973206e6f7420746f6b656e206f776e6560408201526d1c881b9bdc88185c1c1c9bdd995960921b606082015260800190565b600082198211156121be576121be612284565b500190565b6000826121d2576121d261229a565b500490565b6000828210156121e9576121e9612284565b500390565b60005b838110156122095781810151838201526020016121f1565b83811115610f505750506000910152565b600181811c9082168061222e57607f821691505b6020821081141561224f57634e487b7160e01b600052602260045260246000fd5b50919050565b600060001982141561226957612269612284565b5060010190565b60008261227f5761227f61229a565b500690565b634e487b7160e01b600052601160045260246000fd5b634e487b7160e01b600052601260045260246000fd5b634e487b7160e01b600052603260045260246000fd5b634e487b7160e01b600052604160045260246000fd5b6001600160e01b031981168114610fd357600080fdfea264697066735822122014ca02c765030e0f3ae7da6989a1fe6dc8c341c7cebdfc3b394878ab427af55a64736f6c63430008070033",
  "devdoc": {
    "kind": "dev",
    "methods": {
      "approve(address,uint256)": {
        "details": "See {IERC721-approve}."
      },
      "balanceOf(address)": {
        "details": "See {IERC721-balanceOf}."
      },
      "getApproved(uint256)": {
        "details": "See {IERC721-getApproved}."
      },
      "isApprovedForAll(address,address)": {
        "details": "See {IERC721-isApprovedForAll}."
      },
      "name()": {
        "details": "See {IERC721Metadata-name}."
      },
      "owner()": {
        "details": "Returns the address of the current owner."
      },
      "ownerOf(uint256)": {
        "details": "See {IERC721-ownerOf}."
      },
      "renounceOwnership()": {
        "details": "Leaves the contract without owner. It will not be possible to call `onlyOwner` functions anymore. Can only be called by the current owner. NOTE: Renouncing ownership will leave the contract without an owner, thereby removing any functionality that is only available to the owner."
      },
      "safeTransferFrom(address,address,uint256)": {
        "details": "See {IERC721-safeTransferFrom}."
      },
      "safeTransferFrom(address,address,uint256,bytes)": {
        "details": "See {IERC721-safeTransferFrom}."
      },
      "setApprovalForAll(address,bool)": {
        "details": "See {IERC721-setApprovalForAll}."
      },
      "supportsInterface(bytes4)": {
        "details": "See {IERC165-supportsInterface}."
      },
      "symbol()": {
        "details": "See {IERC721Metadata-symbol}."
      },
      "tokenURI(uint256)": {
        "details": "See {IERC721Metadata-tokenURI}."
      }
    },
    "version": 1
  },
  "userdoc": {
    "kind": "user",
    "methods": {
      "burn(address,uint256)": {
        "notice": "burn can only be called by the tokens' associated Gateway contract. See Gateway's burn functions instead."
      },
      "mint(address,uint256)": {
        "notice": "mint can only be called by the tokens' associated Gateway contract. See Gateway's mint function instead."
      }
    },
    "version": 1
  },
  "storageLayout": {
    "storage": [
      {
        "astId": 721,
        "contract": "src/RenAsset/RenERC721.sol:RenERC721V1",
        "label": "_initialized",
        "offset": 0,
        "slot": "0",
        "type": "t_uint8"
      },
      {
        "astId": 724,
        "contract": "src/RenAsset/RenERC721.sol:RenERC721V1",
        "label": "_initializing",
        "offset": 1,
        "slot": "0",
        "type": "t_bool"
      },
      {
        "astId": 3664,
        "contract": "src/RenAsset/RenERC721.sol:RenERC721V1",
        "label": "__gap",
        "offset": 0,
        "slot": "1",
        "type": "t_array(t_uint256)50_storage"
      },
      {
        "astId": 593,
        "contract": "src/RenAsset/RenERC721.sol:RenERC721V1",
        "label": "_owner",
        "offset": 0,
        "slot": "51",
        "type": "t_address"
      },
      {
        "astId": 713,
        "contract": "src/RenAsset/RenERC721.sol:RenERC721V1",
        "label": "__gap",
        "offset": 0,
        "slot": "52",
        "type": "t_array(t_uint256)49_storage"
      },
      {
        "astId": 3934,
        "contract": "src/RenAsset/RenERC721.sol:RenERC721V1",
        "label": "__gap",
        "offset": 0,
        "slot": "101",
        "type": "t_array(t_uint256)50_storage"
      },
      {
        "astId": 2356,
        "contract": "src/RenAsset/RenERC721.sol:RenERC721V1",
        "label": "_name",
        "offset": 0,
        "slot": "151",
        "type": "t_string_storage"
      },
      {
        "astId": 2358,
        "contract": "src/RenAsset/RenERC721.sol:RenERC721V1",
        "label": "_symbol",
        "offset": 0,
        "slot": "152",
        "type": "t_string_storage"
      },
      {
        "astId": 2362,
        "contract": "src/RenAsset/RenERC721.sol:RenERC721V1",
        "label": "_owners",
        "offset": 0,
        "slot": "153",
        "type": "t_mapping(t_uint256,t_address)"
      },
      {
        "astId": 2366,
        "contract": "src/RenAsset/RenERC721.sol:RenERC721V1",
        "label": "_balances",
        "offset": 0,
        "slot": "154",
        "type": "t_mapping(t_address,t_uint256)"
      },
      {
        "astId": 2370,
        "contract": "src/RenAsset/RenERC721.sol:RenERC721V1",
        "label": "_tokenApprovals",
        "offset": 0,
        "slot": "155",
        "type": "t_mapping(t_uint256,t_address)"
      },
      {
        "astId": 2376,
        "contract": "src/RenAsset/RenERC721.sol:RenERC721V1",
        "label": "_operatorApprovals",
        "offset": 0,
        "slot": "156",
        "type": "t_mapping(t_address,t_mapping(t_address,t_bool))"
      },
      {
        "astId": 3218,
        "contract": "src/RenAsset/RenERC721.sol:RenERC721V1",
        "label": "__gap",
        "offset": 0,
        "slot": "157",
        "type": "t_array(t_uint256)44_storage"
      },
      {
        "astId": 22826,
        "contract": "src/RenAsset/RenERC721.sol:RenERC721V1",
        "label": "_nonces",
        "offset": 0,
        "slot": "201",
        "type": "t_mapping(t_address,t_uint256)"
      },
      {
        "astId": 22828,
        "contract": "src/RenAsset/RenERC721.sol:RenERC721V1",
        "label": "_version",
        "offset": 0,
        "slot": "202",
        "type": "t_string_storage"
      },
      {
        "astId": 22830,
        "contract": "src/RenAsset/RenERC721.sol:RenERC721V1",
        "label": "_domainSeparator",
        "offset": 0,
        "slot": "203",
        "type": "t_bytes32"
      },
      {
        "astId": 22834,
        "contract": "src/RenAsset/RenERC721.sol:RenERC721V1",
        "label": "__gap",
        "offset": 0,
        "slot": "204",
        "type": "t_array(t_uint256)47_storage"
      }
    ],
    "types": {
      "t_address": {
        "encoding": "inplace",
        "label": "address",
        "numberOfBytes": "20"
      },
      "t_array(t_uint256)44_storage": {
        "base": "t_uint256",
        "encoding": "inplace",
        "label": "uint256[44]",
        "numberOfBytes": "1408"
      },
      "t_array(t_uint256)47_storage": {
        "base": "t_uint256",
        "encoding": "inplace",
        "label": "uint256[47]",
        "numberOfBytes": "1504"
      },
      "t_array(t_uint256)49_storage": {
        "base": "t_uint256",
        "encoding": "inplace",
        "label": "uint256[49]",
        "numberOfBytes": "1568"
      },
      "t_array(t_uint256)50_storage": {
        "base": "t_uint256",
        "encoding": "inplace",
        "label": "uint256[50]",
        "numberOfBytes": "1600"
      },
      "t_bool": {
        "encoding": "inplace",
        "label": "bool",
        "numberOfBytes": "1"
      },
      "t_bytes32": {
        "encoding": "inplace",
        "label": "bytes32",
        "numberOfBytes": "32"
      },
      "t_mapping(t_address,t_bool)": {
        "encoding": "mapping",
        "key": "t_address",
        "label": "mapping(address => bool)",
        "numberOfBytes": "32",
        "value": "t_bool"
      },
      "t_mapping(t_address,t_mapping(t_address,t_bool))": {
        "encoding": "mapping",
        "key": "t_address",
        "label": "mapping(address => mapping(address => bool))",
        "numberOfBytes": "32",
        "value": "t_mapping(t_address,t_bool)"
      },
      "t_mapping(t_address,t_uint256)": {
        "encoding": "mapping",
        "key": "t_address",
        "label": "mapping(address => uint256)",
        "numberOfBytes": "32",
        "value": "t_uint256"
      },
      "t_mapping(t_uint256,t_address)": {
        "encoding": "mapping",
        "key": "t_uint256",
        "label": "mapping(uint256 => address)",
        "numberOfBytes": "32",
        "value": "t_address"
      },
      "t_string_storage": {
        "encoding": "bytes",
        "label": "string",
        "numberOfBytes": "32"
      },
      "t_uint256": {
        "encoding": "inplace",
        "label": "uint256",
        "numberOfBytes": "32"
      },
      "t_uint8": {
        "encoding": "inplace",
        "label": "uint8",
        "numberOfBytes": "1"
      }
    }
  }
}