{
  "address": "0x792Fa8Fcf5b9507Dd4Ada0339b1B583D2eA86879",
  "abi": [
    {
      "anonymous": false,
      "inputs": [
        {
          "indexed": true,
          "internalType": "address",
          "name": "_newMintAuthority",
          "type": "address"
        }
      ],
      "name": "LogMintAuthorityUpdated",
      "type": "event"
    },
    {
      "anonymous": false,
      "inputs": [
        {
          "indexed": true,
          "internalType": "address",
          "name": "previousOwner",
          "type": "address"
        },
        {
          "indexed": true,
          "internalType": "address",
          "name": "newOwner",
          "type": "address"
        }
      ],
      "name": "OwnershipTransferred",
      "type": "event"
    },
    {
      "inputs": [],
      "name": "CORRECT_SIGNATURE_RETURN_VALUE",
      "outputs": [
        {
          "internalType": "bytes4",
          "name": "",
          "type": "bytes4"
        }
      ],
      "stateMutability": "view",
      "type": "function"
    },
    {
      "inputs": [],
      "name": "INCORRECT_SIGNATURE_RETURN_VALUE",
      "outputs": [
        {
          "internalType": "bytes4",
          "name": "",
          "type": "bytes4"
        }
      ],
      "stateMutability": "view",
      "type": "function"
    },
    {
      "inputs": [
        {
          "internalType": "address",
          "name": "mintAuthority_",
          "type": "address"
        }
      ],
      "name": "__RenVMSignatureVerifier_init",
      "outputs": [],
      "stateMutability": "nonpayable",
      "type": "function"
    },
    {
      "inputs": [
        {
          "internalType": "bytes32",
          "name": "sigHash",
          "type": "bytes32"
        },
        {
          "internalType": "bytes",
          "name": "signature",
          "type": "bytes"
        }
      ],
      "name": "isValidSignature",
      "outputs": [
        {
          "internalType": "bytes4",
          "name": "magicValue",
          "type": "bytes4"
        }
      ],
      "stateMutability": "view",
      "type": "function"
    },
    {
      "inputs": [],
      "name": "mintAuthority",
      "outputs": [
        {
          "internalType": "address",
          "name": "",
          "type": "address"
        }
      ],
      "stateMutability": "view",
      "type": "function"
    },
    {
      "inputs": [],
      "name": "owner",
      "outputs": [
        {
          "internalType": "address",
          "name": "",
          "type": "address"
        }
      ],
      "stateMutability": "view",
      "type": "function"
    },
    {
      "inputs": [],
      "name": "renounceOwnership",
      "outputs": [],
      "stateMutability": "nonpayable",
      "type": "function"
    },
    {
      "inputs": [
        {
          "internalType": "address",
          "name": "newOwner",
          "type": "address"
        }
      ],
      "name": "transferOwnership",
      "outputs": [],
      "stateMutability": "nonpayable",
      "type": "function"
    },
    {
      "inputs": [
        {
          "internalType": "address",
          "name": "nextMintAuthority",
          "type": "address"
        }
      ],
      "name": "updateMintAuthority",
      "outputs": [],
      "stateMutability": "nonpayable",
      "type": "function"
    }
  ],
  "transactionHash": "0xe8d321e8a01fe232e24c409a0a4ab197a0452cb8d59ecb170b604a0275fc191a",
  "args": [],
  "solcInputHash": "7bcd5bc09beea872c9e812f1b6f9aa45",
  "bytecode": "0x608060405234801561001057600080fd5b50611794806100206000396000f3fe608060405234801561001057600080fd5b50600436106100935760003560e01c8063715018a611610066578063715018a61461011e5780637573cf5c146101285780638da5cb5b146101465780639340b21e14610164578063f2fde38b1461018257610093565b80630130a33b146100985780631626ba7e146100b45780631c8c062f146100e4578063213e665214610100575b600080fd5b6100b260048036038101906100ad9190610f0f565b61019e565b005b6100ce60048036038101906100c99190610f3c565b610377565b6040516100db9190611192565b60405180910390f35b6100fe60048036038101906100f99190610f0f565b610450565b005b61010861053b565b6040516101159190611192565b60405180910390f35b610126610546565b005b6101306105ce565b60405161013d9190611192565b60405180910390f35b61014e6105d6565b60405161015b9190611132565b60405180910390f35b61016c610600565b6040516101799190611132565b60405180910390f35b61019c60048036038101906101979190610f0f565b61062a565b005b6101a66105d6565b73ffffffffffffffffffffffffffffffffffffffff166101c4610722565b73ffffffffffffffffffffffffffffffffffffffff16148061021f57506101e9610600565b73ffffffffffffffffffffffffffffffffffffffff16610207610722565b73ffffffffffffffffffffffffffffffffffffffff16145b61025e576040517f08c379a0000000000000000000000000000000000000000000000000000000008152600401610255906112cd565b60405180910390fd5b600073ffffffffffffffffffffffffffffffffffffffff168173ffffffffffffffffffffffffffffffffffffffff1614156102ce576040517f08c379a00000000000000000000000000000000000000000000000000000000081526004016102c59061120d565b60405180910390fd5b80606560006101000a81548173ffffffffffffffffffffffffffffffffffffffff021916908373ffffffffffffffffffffffffffffffffffffffff160217905550606560009054906101000a900473ffffffffffffffffffffffffffffffffffffffff1673ffffffffffffffffffffffffffffffffffffffff167ff0f08e606c1dd3a2c220ada53422fd9fe0aa75614b27db0549f649de3ad2072a60405160405180910390a250565b600080610382610600565b9050600073ffffffffffffffffffffffffffffffffffffffff168173ffffffffffffffffffffffffffffffffffffffff1614156103f4576040517f08c379a00000000000000000000000000000000000000000000000000000000081526004016103eb906112ad565b60405180910390fd5b6103fe848461072a565b73ffffffffffffffffffffffffffffffffffffffff168173ffffffffffffffffffffffffffffffffffffffff16141561044157631626ba7e60e01b91505061044a565b600060e01b9150505b92915050565b600060019054906101000a900460ff1680610476575060008054906101000a900460ff16155b6104b5576040517f08c379a00000000000000000000000000000000000000000000000000000000081526004016104ac9061124d565b60405180910390fd5b60008060019054906101000a900460ff161590508015610505576001600060016101000a81548160ff02191690831515021790555060016000806101000a81548160ff0219169083151502179055505b61050d610751565b6105168261019e565b80156105375760008060016101000a81548160ff0219169083151502179055505b5050565b631626ba7e60e01b81565b61054e610722565b73ffffffffffffffffffffffffffffffffffffffff1661056c6105d6565b73ffffffffffffffffffffffffffffffffffffffff16146105c2576040517f08c379a00000000000000000000000000000000000000000000000000000000081526004016105b99061128d565b60405180910390fd5b6105cc600061083a565b565b600060e01b81565b6000603360009054906101000a900473ffffffffffffffffffffffffffffffffffffffff16905090565b6000606560009054906101000a900473ffffffffffffffffffffffffffffffffffffffff16905090565b610632610722565b73ffffffffffffffffffffffffffffffffffffffff166106506105d6565b73ffffffffffffffffffffffffffffffffffffffff16146106a6576040517f08c379a000000000000000000000000000000000000000000000000000000000815260040161069d9061128d565b60405180910390fd5b600073ffffffffffffffffffffffffffffffffffffffff168173ffffffffffffffffffffffffffffffffffffffff161415610716576040517f08c379a000000000000000000000000000000000000000000000000000000000815260040161070d906111ed565b60405180910390fd5b61071f8161083a565b50565b600033905090565b60008060006107398585610900565b9150915061074681610983565b819250505092915050565b600060019054906101000a900460ff1680610777575060008054906101000a900460ff16155b6107b6576040517f08c379a00000000000000000000000000000000000000000000000000000000081526004016107ad9061124d565b60405180910390fd5b60008060019054906101000a900460ff161590508015610806576001600060016101000a81548160ff02191690831515021790555060016000806101000a81548160ff0219169083151502179055505b61080e610b58565b610816610c31565b80156108375760008060016101000a81548160ff0219169083151502179055505b50565b6000603360009054906101000a900473ffffffffffffffffffffffffffffffffffffffff16905081603360006101000a81548173ffffffffffffffffffffffffffffffffffffffff021916908373ffffffffffffffffffffffffffffffffffffffff1602179055508173ffffffffffffffffffffffffffffffffffffffff168173ffffffffffffffffffffffffffffffffffffffff167f8be0079c531659141344cd1fd0a4f28419497f9722a3daafe3b4186f6b6457e060405160405180910390a35050565b6000806041835114156109425760008060006020860151925060408601519150606086015160001a905061093687828585610d1a565b9450945050505061097c565b604083511415610973576000806020850151915060408501519050610968868383610e27565b93509350505061097c565b60006002915091505b9250929050565b6000600481111561099757610996611409565b5b8160048111156109aa576109a9611409565b5b14156109b557610b55565b600160048111156109c9576109c8611409565b5b8160048111156109dc576109db611409565b5b1415610a1d576040517f08c379a0000000000000000000000000000000000000000000000000000000008152600401610a14906111ad565b60405180910390fd5b60026004811115610a3157610a30611409565b5b816004811115610a4457610a43611409565b5b1415610a85576040517f08c379a0000000000000000000000000000000000000000000000000000000008152600401610a7c906111cd565b60405180910390fd5b60036004811115610a9957610a98611409565b5b816004811115610aac57610aab611409565b5b1415610aed576040517f08c379a0000000000000000000000000000000000000000000000000000000008152600401610ae49061122d565b60405180910390fd5b600480811115610b0057610aff611409565b5b816004811115610b1357610b12611409565b5b1415610b54576040517f08c379a0000000000000000000000000000000000000000000000000000000008152600401610b4b9061126d565b60405180910390fd5b5b50565b600060019054906101000a900460ff1680610b7e575060008054906101000a900460ff16155b610bbd576040517f08c379a0000000000000000000000000000000000000000000000000000000008152600401610bb49061124d565b60405180910390fd5b60008060019054906101000a900460ff161590508015610c0d576001600060016101000a81548160ff02191690831515021790555060016000806101000a81548160ff0219169083151502179055505b8015610c2e5760008060016101000a81548160ff0219169083151502179055505b50565b600060019054906101000a900460ff1680610c57575060008054906101000a900460ff16155b610c96576040517f08c379a0000000000000000000000000000000000000000000000000000000008152600401610c8d9061124d565b60405180910390fd5b60008060019054906101000a900460ff161590508015610ce6576001600060016101000a81548160ff02191690831515021790555060016000806101000a81548160ff0219169083151502179055505b610cf6610cf1610722565b61083a565b8015610d175760008060016101000a81548160ff0219169083151502179055505b50565b6000807f7fffffffffffffffffffffffffffffff5d576e7357a4501ddfe92f46681b20a08360001c1115610d55576000600391509150610e1e565b601b8560ff1614158015610d6d5750601c8560ff1614155b15610d7f576000600491509150610e1e565b600060018787878760405160008152602001604052604051610da4949392919061114d565b6020604051602081039080840390855afa158015610dc6573d6000803e3d6000fd5b505050602060405103519050600073ffffffffffffffffffffffffffffffffffffffff168173ffffffffffffffffffffffffffffffffffffffff161415610e1557600060019250925050610e1e565b80600092509250505b94509492505050565b6000806000807f7fffffffffffffffffffffffffffffffffffffffffffffffffffffffffffffff85169150601b8560ff1c019050610e6787828885610d1a565b935093505050935093915050565b6000610e88610e8384611312565b6112ed565b905082815260208101848484011115610ea457610ea361146c565b5b610eaf8482856113c9565b509392505050565b600081359050610ec681611730565b92915050565b600081359050610edb81611747565b92915050565b600082601f830112610ef657610ef5611467565b5b8135610f06848260208601610e75565b91505092915050565b600060208284031215610f2557610f24611476565b5b6000610f3384828501610eb7565b91505092915050565b60008060408385031215610f5357610f52611476565b5b6000610f6185828601610ecc565b925050602083013567ffffffffffffffff811115610f8257610f81611471565b5b610f8e85828601610ee1565b9150509250929050565b610fa181611354565b82525050565b610fb081611366565b82525050565b610fbf81611370565b82525050565b6000610fd2601883611343565b9150610fdd8261148c565b602082019050919050565b6000610ff5601f83611343565b9150611000826114b5565b602082019050919050565b6000611018602683611343565b9150611023826114de565b604082019050919050565b600061103b603e83611343565b91506110468261152d565b604082019050919050565b600061105e602283611343565b91506110698261157c565b604082019050919050565b6000611081602e83611343565b915061108c826115cb565b604082019050919050565b60006110a4602283611343565b91506110af8261161a565b604082019050919050565b60006110c7602083611343565b91506110d282611669565b602082019050919050565b60006110ea603083611343565b91506110f582611692565b604082019050919050565b600061110d602183611343565b9150611118826116e1565b604082019050919050565b61112c816113bc565b82525050565b60006020820190506111476000830184610f98565b92915050565b60006080820190506111626000830187610fa7565b61116f6020830186611123565b61117c6040830185610fa7565b6111896060830184610fa7565b95945050505050565b60006020820190506111a76000830184610fb6565b92915050565b600060208201905081810360008301526111c681610fc5565b9050919050565b600060208201905081810360008301526111e681610fe8565b9050919050565b600060208201905081810360008301526112068161100b565b9050919050565b600060208201905081810360008301526112268161102e565b9050919050565b6000602082019050818103600083015261124681611051565b9050919050565b6000602082019050818103600083015261126681611074565b9050919050565b6000602082019050818103600083015261128681611097565b9050919050565b600060208201905081810360008301526112a6816110ba565b9050919050565b600060208201905081810360008301526112c6816110dd565b9050919050565b600060208201905081810360008301526112e681611100565b9050919050565b60006112f7611308565b905061130382826113d8565b919050565b6000604051905090565b600067ffffffffffffffff82111561132d5761132c611438565b5b6113368261147b565b9050602081019050919050565b600082825260208201905092915050565b600061135f8261139c565b9050919050565b6000819050919050565b60007fffffffff0000000000000000000000000000000000000000000000000000000082169050919050565b600073ffffffffffffffffffffffffffffffffffffffff82169050919050565b600060ff82169050919050565b82818337600083830152505050565b6113e18261147b565b810181811067ffffffffffffffff82111715611400576113ff611438565b5b80604052505050565b7f4e487b7100000000000000000000000000000000000000000000000000000000600052602160045260246000fd5b7f4e487b7100000000000000000000000000000000000000000000000000000000600052604160045260246000fd5b600080fd5b600080fd5b600080fd5b600080fd5b6000601f19601f8301169050919050565b7f45434453413a20696e76616c6964207369676e61747572650000000000000000600082015250565b7f45434453413a20696e76616c6964207369676e6174757265206c656e67746800600082015250565b7f4f776e61626c653a206e6577206f776e657220697320746865207a65726f206160008201527f6464726573730000000000000000000000000000000000000000000000000000602082015250565b7f5369676e617475726556657269666965723a206d696e74417574686f7269747960008201527f2063616e6e6f742062652073657420746f2061646472657373207a65726f0000602082015250565b7f45434453413a20696e76616c6964207369676e6174757265202773272076616c60008201527f7565000000000000000000000000000000000000000000000000000000000000602082015250565b7f496e697469616c697a61626c653a20636f6e747261637420697320616c72656160008201527f647920696e697469616c697a6564000000000000000000000000000000000000602082015250565b7f45434453413a20696e76616c6964207369676e6174757265202776272076616c60008201527f7565000000000000000000000000000000000000000000000000000000000000602082015250565b7f4f776e61626c653a2063616c6c6572206973206e6f7420746865206f776e6572600082015250565b7f5369676e617475726556657269666965723a206d696e74417574686f7269747960008201527f206e6f7420696e697469616c697a656400000000000000000000000000000000602082015250565b7f5369676e617475726556657269666965723a206e6f7420617574686f72697a6560008201527f6400000000000000000000000000000000000000000000000000000000000000602082015250565b61173981611354565b811461174457600080fd5b50565b61175081611366565b811461175b57600080fd5b5056fea264697066735822122060f5d05e5bdb8266881d426d4c095742bbe096d26d16c02b41d39c2a0530449964736f6c63430008070033",
  "devdoc": {
    "kind": "dev",
    "methods": {
      "owner()": {
        "details": "Returns the address of the current owner."
      },
      "renounceOwnership()": {
        "details": "Leaves the contract without owner. It will not be possible to call `onlyOwner` functions anymore. Can only be called by the current owner. NOTE: Renouncing ownership will leave the contract without an owner, thereby removing any functionality that is only available to the owner."
      },
      "transferOwnership(address)": {
        "details": "Transfers ownership of the contract to a new account (`newOwner`). Can only be called by the current owner."
      },
      "updateMintAuthority(address)": {
        "params": {
          "nextMintAuthority": "The new mint authority address."
        }
      }
    },
    "version": 1
  },
  "userdoc": {
    "kind": "user",
    "methods": {
      "isValidSignature(bytes32,bytes)": {
        "notice": "verifySignature checks the the provided signature matches the provided parameters."
      },
      "updateMintAuthority(address)": {
        "notice": "Allow the owner or mint authority to update the mint authority."
      }
    },
    "version": 1
  },
  "storageLayout": {
    "storage": [
      {
        "astId": 773,
        "contract": "src/Gateways/RenVMSignatureVerifier.sol:RenVMSignatureVerifierV1",
        "label": "_initialized",
        "offset": 0,
        "slot": "0",
        "type": "t_bool"
      },
      {
        "astId": 776,
        "contract": "src/Gateways/RenVMSignatureVerifier.sol:RenVMSignatureVerifierV1",
        "label": "_initializing",
        "offset": 1,
        "slot": "0",
        "type": "t_bool"
      },
      {
        "astId": 1532,
        "contract": "src/Gateways/RenVMSignatureVerifier.sol:RenVMSignatureVerifierV1",
        "label": "__gap",
        "offset": 0,
        "slot": "1",
        "type": "t_array(t_uint256)50_storage"
      },
      {
        "astId": 653,
        "contract": "src/Gateways/RenVMSignatureVerifier.sol:RenVMSignatureVerifierV1",
        "label": "_owner",
        "offset": 0,
        "slot": "51",
        "type": "t_address"
      },
      {
        "astId": 766,
        "contract": "src/Gateways/RenVMSignatureVerifier.sol:RenVMSignatureVerifierV1",
        "label": "__gap",
        "offset": 0,
        "slot": "52",
        "type": "t_array(t_uint256)49_storage"
      },
      {
        "astId": 8284,
        "contract": "src/Gateways/RenVMSignatureVerifier.sol:RenVMSignatureVerifierV1",
        "label": "_mintAuthority",
        "offset": 0,
        "slot": "101",
        "type": "t_address"
      },
      {
        "astId": 8288,
        "contract": "src/Gateways/RenVMSignatureVerifier.sol:RenVMSignatureVerifierV1",
        "label": "__gap",
        "offset": 0,
        "slot": "102",
        "type": "t_array(t_uint256)49_storage"
      }
    ],
    "types": {
      "t_address": {
        "encoding": "inplace",
        "label": "address",
        "numberOfBytes": "20"
      },
      "t_array(t_uint256)49_storage": {
        "base": "t_uint256",
        "encoding": "inplace",
        "label": "uint256[49]",
        "numberOfBytes": "1568"
      },
      "t_array(t_uint256)50_storage": {
        "base": "t_uint256",
        "encoding": "inplace",
        "label": "uint256[50]",
        "numberOfBytes": "1600"
      },
      "t_bool": {
        "encoding": "inplace",
        "label": "bool",
        "numberOfBytes": "1"
      },
      "t_uint256": {
        "encoding": "inplace",
        "label": "uint256",
        "numberOfBytes": "32"
      }
    }
  }
}