{
  "address": "0x32184E255aF1C9F62C8E1Fa74ca6046f8796bc52",
  "abi": [
    {
      "anonymous": false,
      "inputs": [
        {
          "indexed": true,
          "internalType": "address",
          "name": "from",
          "type": "address"
        },
        {
          "indexed": true,
          "internalType": "address",
          "name": "to",
          "type": "address"
        },
        {
          "indexed": false,
          "internalType": "uint256",
          "name": "amount",
          "type": "uint256"
        }
      ],
      "name": "LogTransferred",
      "type": "event"
    },
    {
      "inputs": [
        {
          "internalType": "address payable",
          "name": "to",
          "type": "address"
        }
      ],
      "name": "transferWithLog",
      "outputs": [],
      "stateMutability": "payable",
      "type": "function"
    }
  ],
  "transactionHash": "0xdd9ae6dc9f9e873e2e1c52f3fa8539c3dad763e3aeaa118a2c3a69c39b180f27",
  "args": [],
  "solcInputHash": "7bcd5bc09beea872c9e812f1b6f9aa45",
  "bytecode": "0x608060405234801561001057600080fd5b50610419806100206000396000f3fe60806040526004361061001e5760003560e01c8063f365949214610023575b600080fd5b61003d600480360381019061003891906101df565b61003f565b005b600073ffffffffffffffffffffffffffffffffffffffff168173ffffffffffffffffffffffffffffffffffffffff1614156100af576040517f08c379a00000000000000000000000000000000000000000000000000000000081526004016100a690610299565b60405180910390fd5b600034905060008273ffffffffffffffffffffffffffffffffffffffff16826040516100da90610284565b60006040518083038185875af1925050503d8060008114610117576040519150601f19603f3d011682016040523d82523d6000602084013e61011c565b606091505b5050905080610160576040517f08c379a0000000000000000000000000000000000000000000000000000000008152600401610157906102b9565b60405180910390fd5b8273ffffffffffffffffffffffffffffffffffffffff163373ffffffffffffffffffffffffffffffffffffffff167f488b94843be4f0df500bd7d8c10ae80f778d8f4943c7a72df6a74b5b142a2ed9846040516101bd91906102d9565b60405180910390a3505050565b6000813590506101d9816103cc565b92915050565b6000602082840312156101f5576101f461034c565b5b6000610203848285016101ca565b91505092915050565b60006102196028836102ff565b915061022482610351565b604082019050919050565b600061023c6020836102ff565b9150610247826103a0565b602082019050919050565b600061025f6000836102f4565b915061026a826103c9565b600082019050919050565b61027e81610342565b82525050565b600061028f82610252565b9150819050919050565b600060208201905081810360008301526102b28161020c565b9050919050565b600060208201905081810360008301526102d28161022f565b9050919050565b60006020820190506102ee6000830184610275565b92915050565b600081905092915050565b600082825260208201905092915050565b600061031b82610322565b9050919050565b600073ffffffffffffffffffffffffffffffffffffffff82169050919050565b6000819050919050565b600080fd5b7f5472616e73666572576974684c6f673a20696e76616c696420656d707479207260008201527f6563697069656e74000000000000000000000000000000000000000000000000602082015250565b7f5472616e73666572576974684c6f673a207472616e73666572206661696c6564600082015250565b50565b6103d581610310565b81146103e057600080fd5b5056fea2646970667358221220b0479272308597aa0e62ed707606c76976eab9e1eaebb600feaaacc5bafc709e64736f6c63430008070033",
  "devdoc": {
    "kind": "dev",
    "methods": {},
    "version": 1
  },
  "userdoc": {
    "kind": "user",
    "methods": {},
    "notice": "TransferWithLog is a replacement for a standard ETH transfer, with an added log to make it easily searchable.",
    "version": 1
  },
  "storageLayout": {
    "storage": [],
    "types": null
  }
}