{
  "address": "0x9Fd132A7f93E6Ad2F3e792776a898564a35cD1B5",
  "abi": [
    {
      "anonymous": false,
      "inputs": [
        {
          "indexed": true,
          "internalType": "address",
          "name": "mintAuthority",
          "type": "address"
        }
      ],
      "name": "LogMintAuthorityUpdated",
      "type": "event"
    },
    {
      "anonymous": false,
      "inputs": [
        {
          "indexed": true,
          "internalType": "address",
          "name": "previousOwner",
          "type": "address"
        },
        {
          "indexed": true,
          "internalType": "address",
          "name": "newOwner",
          "type": "address"
        }
      ],
      "name": "OwnershipTransferred",
      "type": "event"
    },
    {
      "inputs": [],
      "name": "CORRECT_SIGNATURE_RETURN_VALUE",
      "outputs": [
        {
          "internalType": "bytes4",
          "name": "",
          "type": "bytes4"
        }
      ],
      "stateMutability": "view",
      "type": "function"
    },
    {
      "inputs": [],
      "name": "INCORRECT_SIGNATURE_RETURN_VALUE",
      "outputs": [
        {
          "internalType": "bytes4",
          "name": "",
          "type": "bytes4"
        }
      ],
      "stateMutability": "view",
      "type": "function"
    },
    {
      "inputs": [],
      "name": "NAME",
      "outputs": [
        {
          "internalType": "string",
          "name": "",
          "type": "string"
        }
      ],
      "stateMutability": "view",
      "type": "function"
    },
    {
      "inputs": [
        {
          "internalType": "string",
          "name": "chain_",
          "type": "string"
        },
        {
          "internalType": "address",
          "name": "mintAuthority_",
          "type": "address"
        },
        {
          "internalType": "address",
          "name": "contractOwner",
          "type": "address"
        }
      ],
      "name": "__RenVMSignatureVerifier_init",
      "outputs": [],
      "stateMutability": "nonpayable",
      "type": "function"
    },
    {
      "inputs": [],
      "name": "getChain",
      "outputs": [
        {
          "internalType": "string",
          "name": "",
          "type": "string"
        }
      ],
      "stateMutability": "view",
      "type": "function"
    },
    {
      "inputs": [],
      "name": "getMintAuthority",
      "outputs": [
        {
          "internalType": "address",
          "name": "",
          "type": "address"
        }
      ],
      "stateMutability": "view",
      "type": "function"
    },
    {
      "inputs": [
        {
          "internalType": "bytes32",
          "name": "sigHash",
          "type": "bytes32"
        },
        {
          "internalType": "bytes",
          "name": "signature",
          "type": "bytes"
        }
      ],
      "name": "isValidSignature",
      "outputs": [
        {
          "internalType": "bytes4",
          "name": "",
          "type": "bytes4"
        }
      ],
      "stateMutability": "view",
      "type": "function"
    },
    {
      "inputs": [],
      "name": "owner",
      "outputs": [
        {
          "internalType": "address",
          "name": "",
          "type": "address"
        }
      ],
      "stateMutability": "view",
      "type": "function"
    },
    {
      "inputs": [],
      "name": "renounceOwnership",
      "outputs": [],
      "stateMutability": "nonpayable",
      "type": "function"
    },
    {
      "inputs": [
        {
          "internalType": "address",
          "name": "newOwner",
          "type": "address"
        }
      ],
      "name": "transferOwnership",
      "outputs": [],
      "stateMutability": "nonpayable",
      "type": "function"
    },
    {
      "inputs": [
        {
          "internalType": "address",
          "name": "nextMintAuthority",
          "type": "address"
        }
      ],
      "name": "updateMintAuthority",
      "outputs": [],
      "stateMutability": "nonpayable",
      "type": "function"
    }
  ],
  "transactionHash": "0x925bad77e954c3e012852d48364f2e1b0b367337b1d008680c177e5c43346baf",
  "args": [],
  "numDeployments": 1,
  "solcInputHash": "b062b7e214782a6c6083478f1bcec66c",
  "bytecode": "0x608060405234801561001057600080fd5b50610ed2806100206000396000f3fe608060405234801561001057600080fd5b50600436106100a95760003560e01c8063715018a611610071578063715018a61461013c5780637573cf5c146101445780638da5cb5b1461014c578063a3f4df7e1461015d578063f2fde38b14610192578063fd3b60af146101a557600080fd5b80630130a33b146100ae5780631626ba7e146100c3578063213e6652146100f457806332e21ae7146101025780633d8a43bf14610117575b600080fd5b6100c16100bc366004610cdc565b6101b8565b005b6100d66100d1366004610cf7565b6102fc565b6040516001600160e01b031990911681526020015b60405180910390f35b6100d6630b135d3f60e11b81565b61010a6103f8565b6040516100eb9190610da8565b6066546001600160a01b03165b6040516001600160a01b0390911681526020016100eb565b6100c161048a565b6100d6600081565b6033546001600160a01b0316610124565b61010a604051806040016040528060168152602001752932b72b26a9b4b3b730ba3ab932ab32b934b334b2b960511b81525081565b6100c16101a0366004610cdc565b6104f0565b6100c16101b3366004610d43565b6105bb565b6033546001600160a01b03163314806101db57506066546001600160a01b031633145b6102365760405162461bcd60e51b815260206004820152602160248201527f5369676e617475726556657269666965723a206e6f7420617574686f72697a656044820152601960fa1b60648201526084015b60405180910390fd5b6001600160a01b0381166102b25760405162461bcd60e51b815260206004820152603e60248201527f5369676e617475726556657269666965723a206d696e74417574686f7269747960448201527f2063616e6e6f742062652073657420746f2061646472657373207a65726f0000606482015260840161022d565b606680546001600160a01b0319166001600160a01b0383169081179091556040517ff0f08e606c1dd3a2c220ada53422fd9fe0aa75614b27db0549f649de3ad2072a90600090a250565b6000806103116066546001600160a01b031690565b90506001600160a01b0381166103825760405162461bcd60e51b815260206004820152603060248201527f5369676e617475726556657269666965723a206d696e74417574686f7269747960448201526f081b9bdd081a5b9a5d1a585b1a5e995960821b606482015260840161022d565b6103c28585858080601f01602080910402602001604051908101604052809392919081815260200183838082843760009201919091525061068492505050565b6001600160a01b0316816001600160a01b031614156103eb5750630b135d3f60e11b90506103f1565b50600090505b9392505050565b60606065805461040790610e4b565b80601f016020809104026020016040519081016040528092919081815260200182805461043390610e4b565b80156104805780601f1061045557610100808354040283529160200191610480565b820191906000526020600020905b81548152906001019060200180831161046357829003601f168201915b5050505050905090565b6033546001600160a01b031633146104e45760405162461bcd60e51b815260206004820181905260248201527f4f776e61626c653a2063616c6c6572206973206e6f7420746865206f776e6572604482015260640161022d565b6104ee60006106a8565b565b6033546001600160a01b0316331461054a5760405162461bcd60e51b815260206004820181905260248201527f4f776e61626c653a2063616c6c6572206973206e6f7420746865206f776e6572604482015260640161022d565b6001600160a01b0381166105af5760405162461bcd60e51b815260206004820152602660248201527f4f776e61626c653a206e6577206f776e657220697320746865207a65726f206160448201526564647265737360d01b606482015260840161022d565b6105b8816106a8565b50565b600054610100900460ff16806105d4575060005460ff16155b6105f05760405162461bcd60e51b815260040161022d90610dfd565b600054610100900460ff16158015610612576000805461ffff19166101011790555b61061a6106fa565b61062261076d565b61062e60658686610be5565b50610638836101b8565b816001600160a01b03166106546033546001600160a01b031690565b6001600160a01b03161461066b5761066b826104f0565b801561067d576000805461ff00191690555b5050505050565b600080600061069385856107d4565b915091506106a081610844565b509392505050565b603380546001600160a01b038381166001600160a01b0319831681179093556040519116919082907f8be0079c531659141344cd1fd0a4f28419497f9722a3daafe3b4186f6b6457e090600090a35050565b600054610100900460ff1680610713575060005460ff16155b61072f5760405162461bcd60e51b815260040161022d90610dfd565b600054610100900460ff16158015610751576000805461ffff19166101011790555b6107596109ff565b80156105b8576000805461ff001916905550565b600054610100900460ff1680610786575060005460ff16155b6107a25760405162461bcd60e51b815260040161022d90610dfd565b600054610100900460ff161580156107c4576000805461ffff19166101011790555b6107cc6109ff565b610759610a69565b60008082516041141561080b5760208301516040840151606085015160001a6107ff87828585610ac9565b9450945050505061083d565b825160401415610835576020830151604084015161082a868383610bb6565b93509350505061083d565b506000905060025b9250929050565b600081600481111561085857610858610e86565b14156108615750565b600181600481111561087557610875610e86565b14156108c35760405162461bcd60e51b815260206004820152601860248201527f45434453413a20696e76616c6964207369676e61747572650000000000000000604482015260640161022d565b60028160048111156108d7576108d7610e86565b14156109255760405162461bcd60e51b815260206004820152601f60248201527f45434453413a20696e76616c6964207369676e6174757265206c656e67746800604482015260640161022d565b600381600481111561093957610939610e86565b14156109925760405162461bcd60e51b815260206004820152602260248201527f45434453413a20696e76616c6964207369676e6174757265202773272076616c604482015261756560f01b606482015260840161022d565b60048160048111156109a6576109a6610e86565b14156105b85760405162461bcd60e51b815260206004820152602260248201527f45434453413a20696e76616c6964207369676e6174757265202776272076616c604482015261756560f01b606482015260840161022d565b600054610100900460ff1680610a18575060005460ff16155b610a345760405162461bcd60e51b815260040161022d90610dfd565b600054610100900460ff16158015610759576000805461ffff191661010117905580156105b8576000805461ff001916905550565b600054610100900460ff1680610a82575060005460ff16155b610a9e5760405162461bcd60e51b815260040161022d90610dfd565b600054610100900460ff16158015610ac0576000805461ffff19166101011790555b610759336106a8565b6000807f7fffffffffffffffffffffffffffffff5d576e7357a4501ddfe92f46681b20a0831115610b005750600090506003610bad565b8460ff16601b14158015610b1857508460ff16601c14155b15610b295750600090506004610bad565b6040805160008082526020820180845289905260ff881692820192909252606081018690526080810185905260019060a0016020604051602081039080840390855afa158015610b7d573d6000803e3d6000fd5b5050604051601f1901519150506001600160a01b038116610ba657600060019250925050610bad565b9150600090505b94509492505050565b6000806001600160ff1b03831660ff84901c601b01610bd787828885610ac9565b935093505050935093915050565b828054610bf190610e4b565b90600052602060002090601f016020900481019282610c135760008555610c59565b82601f10610c2c5782800160ff19823516178555610c59565b82800160010185558215610c59579182015b82811115610c59578235825591602001919060010190610c3e565b50610c65929150610c69565b5090565b5b80821115610c655760008155600101610c6a565b80356001600160a01b0381168114610c9557600080fd5b919050565b60008083601f840112610cac57600080fd5b50813567ffffffffffffffff811115610cc457600080fd5b60208301915083602082850101111561083d57600080fd5b600060208284031215610cee57600080fd5b6103f182610c7e565b600080600060408486031215610d0c57600080fd5b83359250602084013567ffffffffffffffff811115610d2a57600080fd5b610d3686828701610c9a565b9497909650939450505050565b60008060008060608587031215610d5957600080fd5b843567ffffffffffffffff811115610d7057600080fd5b610d7c87828801610c9a565b9095509350610d8f905060208601610c7e565b9150610d9d60408601610c7e565b905092959194509250565b600060208083528351808285015260005b81811015610dd557858101830151858201604001528201610db9565b81811115610de7576000604083870101525b50601f01601f1916929092016040019392505050565b6020808252602e908201527f496e697469616c697a61626c653a20636f6e747261637420697320616c72656160408201526d191e481a5b9a5d1a585b1a5e995960921b606082015260800190565b600181811c90821680610e5f57607f821691505b60208210811415610e8057634e487b7160e01b600052602260045260246000fd5b50919050565b634e487b7160e01b600052602160045260246000fdfea2646970667358221220ae75cdf5546bdb5b46897c0989a8bf4b9f6e8f4a006a07779a8cc74568935c9c64736f6c63430008070033",
  "devdoc": {
    "kind": "dev",
    "methods": {
      "owner()": {
        "details": "Returns the address of the current owner."
      },
      "renounceOwnership()": {
        "details": "Leaves the contract without owner. It will not be possible to call `onlyOwner` functions anymore. Can only be called by the current owner. NOTE: Renouncing ownership will leave the contract without an owner, thereby removing any functionality that is only available to the owner."
      },
      "transferOwnership(address)": {
        "details": "Transfers ownership of the contract to a new account (`newOwner`). Can only be called by the current owner."
      },
      "updateMintAuthority(address)": {
        "params": {
          "nextMintAuthority": "The new mint authority address."
        }
      }
    },
    "version": 1
  },
  "userdoc": {
    "kind": "user",
    "methods": {
      "isValidSignature(bytes32,bytes)": {
        "notice": "verifySignature checks the the provided signature matches the provided parameters. Returns a 4-byte value as defined by ERC1271."
      },
      "updateMintAuthority(address)": {
        "notice": "Allow the owner or mint authority to update the mint authority."
      }
    },
    "version": 1
  },
  "storageLayout": {
    "storage": [
      {
        "astId": 773,
        "contract": "src/Gateways/RenVMSignatureVerifier.sol:RenVMSignatureVerifierV1",
        "label": "_initialized",
        "offset": 0,
        "slot": "0",
        "type": "t_bool"
      },
      {
        "astId": 776,
        "contract": "src/Gateways/RenVMSignatureVerifier.sol:RenVMSignatureVerifierV1",
        "label": "_initializing",
        "offset": 1,
        "slot": "0",
        "type": "t_bool"
      },
      {
        "astId": 2463,
        "contract": "src/Gateways/RenVMSignatureVerifier.sol:RenVMSignatureVerifierV1",
        "label": "__gap",
        "offset": 0,
        "slot": "1",
        "type": "t_array(t_uint256)50_storage"
      },
      {
        "astId": 653,
        "contract": "src/Gateways/RenVMSignatureVerifier.sol:RenVMSignatureVerifierV1",
        "label": "_owner",
        "offset": 0,
        "slot": "51",
        "type": "t_address"
      },
      {
        "astId": 766,
        "contract": "src/Gateways/RenVMSignatureVerifier.sol:RenVMSignatureVerifierV1",
        "label": "__gap",
        "offset": 0,
        "slot": "52",
        "type": "t_array(t_uint256)49_storage"
      },
      {
        "astId": 11133,
        "contract": "src/Gateways/RenVMSignatureVerifier.sol:RenVMSignatureVerifierV1",
        "label": "_chain",
        "offset": 0,
        "slot": "101",
        "type": "t_string_storage"
      },
      {
        "astId": 11135,
        "contract": "src/Gateways/RenVMSignatureVerifier.sol:RenVMSignatureVerifierV1",
        "label": "_mintAuthority",
        "offset": 0,
        "slot": "102",
        "type": "t_address"
      },
      {
        "astId": 11139,
        "contract": "src/Gateways/RenVMSignatureVerifier.sol:RenVMSignatureVerifierV1",
        "label": "__gap",
        "offset": 0,
        "slot": "103",
        "type": "t_array(t_uint256)48_storage"
      }
    ],
    "types": {
      "t_address": {
        "encoding": "inplace",
        "label": "address",
        "numberOfBytes": "20"
      },
      "t_array(t_uint256)48_storage": {
        "base": "t_uint256",
        "encoding": "inplace",
        "label": "uint256[48]",
        "numberOfBytes": "1536"
      },
      "t_array(t_uint256)49_storage": {
        "base": "t_uint256",
        "encoding": "inplace",
        "label": "uint256[49]",
        "numberOfBytes": "1568"
      },
      "t_array(t_uint256)50_storage": {
        "base": "t_uint256",
        "encoding": "inplace",
        "label": "uint256[50]",
        "numberOfBytes": "1600"
      },
      "t_bool": {
        "encoding": "inplace",
        "label": "bool",
        "numberOfBytes": "1"
      },
      "t_string_storage": {
        "encoding": "bytes",
        "label": "string",
        "numberOfBytes": "32"
      },
      "t_uint256": {
        "encoding": "inplace",
        "label": "uint256",
        "numberOfBytes": "32"
      }
    }
  }
}