{
  "address": "0x45DA495dFfEa2b5eDD23D2573347b0010de6e72e",
  "abi": [
    {
      "anonymous": false,
      "inputs": [
        {
          "indexed": false,
          "internalType": "string",
          "name": "symbol",
          "type": "string"
        },
        {
          "indexed": true,
          "internalType": "string",
          "name": "indexedSymbol",
          "type": "string"
        }
      ],
      "name": "LogLockGatewayDeleted",
      "type": "event"
    },
    {
      "anonymous": false,
      "inputs": [
        {
          "indexed": false,
          "internalType": "string",
          "name": "symbol",
          "type": "string"
        },
        {
          "indexed": true,
          "internalType": "string",
          "name": "indexedSymbol",
          "type": "string"
        },
        {
          "indexed": true,
          "internalType": "address",
          "name": "token",
          "type": "address"
        },
        {
          "indexed": true,
          "internalType": "address",
          "name": "gatewayContract",
          "type": "address"
        }
      ],
      "name": "LogLockGatewayUpdated",
      "type": "event"
    },
    {
      "anonymous": false,
      "inputs": [
        {
          "indexed": false,
          "internalType": "string",
          "name": "symbol",
          "type": "string"
        },
        {
          "indexed": true,
          "internalType": "string",
          "name": "indexedSymbol",
          "type": "string"
        }
      ],
      "name": "LogMintGatewayDeleted",
      "type": "event"
    },
    {
      "anonymous": false,
      "inputs": [
        {
          "indexed": false,
          "internalType": "string",
          "name": "symbol",
          "type": "string"
        },
        {
          "indexed": true,
          "internalType": "string",
          "name": "indexedSymbol",
          "type": "string"
        },
        {
          "indexed": true,
          "internalType": "address",
          "name": "token",
          "type": "address"
        },
        {
          "indexed": true,
          "internalType": "address",
          "name": "gatewayContract",
          "type": "address"
        }
      ],
      "name": "LogMintGatewayUpdated",
      "type": "event"
    },
    {
      "anonymous": false,
      "inputs": [
        {
          "indexed": true,
          "internalType": "address",
          "name": "newSignatureVerifier",
          "type": "address"
        }
      ],
      "name": "LogSignatureVerifierUpdated",
      "type": "event"
    },
    {
      "anonymous": false,
      "inputs": [
        {
          "indexed": true,
          "internalType": "bytes32",
          "name": "role",
          "type": "bytes32"
        },
        {
          "indexed": true,
          "internalType": "bytes32",
          "name": "previousAdminRole",
          "type": "bytes32"
        },
        {
          "indexed": true,
          "internalType": "bytes32",
          "name": "newAdminRole",
          "type": "bytes32"
        }
      ],
      "name": "RoleAdminChanged",
      "type": "event"
    },
    {
      "anonymous": false,
      "inputs": [
        {
          "indexed": true,
          "internalType": "bytes32",
          "name": "role",
          "type": "bytes32"
        },
        {
          "indexed": true,
          "internalType": "address",
          "name": "account",
          "type": "address"
        },
        {
          "indexed": true,
          "internalType": "address",
          "name": "sender",
          "type": "address"
        }
      ],
      "name": "RoleGranted",
      "type": "event"
    },
    {
      "anonymous": false,
      "inputs": [
        {
          "indexed": true,
          "internalType": "bytes32",
          "name": "role",
          "type": "bytes32"
        },
        {
          "indexed": true,
          "internalType": "address",
          "name": "account",
          "type": "address"
        },
        {
          "indexed": true,
          "internalType": "address",
          "name": "sender",
          "type": "address"
        }
      ],
      "name": "RoleRevoked",
      "type": "event"
    },
    {
      "inputs": [],
      "name": "CAN_ADD_GATEWAYS",
      "outputs": [
        {
          "internalType": "bytes32",
          "name": "",
          "type": "bytes32"
        }
      ],
      "stateMutability": "view",
      "type": "function"
    },
    {
      "inputs": [],
      "name": "CAN_UPDATE_GATEWAYS",
      "outputs": [
        {
          "internalType": "bytes32",
          "name": "",
          "type": "bytes32"
        }
      ],
      "stateMutability": "view",
      "type": "function"
    },
    {
      "inputs": [],
      "name": "DEFAULT_ADMIN_ROLE",
      "outputs": [
        {
          "internalType": "bytes32",
          "name": "",
          "type": "bytes32"
        }
      ],
      "stateMutability": "view",
      "type": "function"
    },
    {
      "inputs": [
        {
          "internalType": "string",
          "name": "chainName_",
          "type": "string"
        },
        {
          "internalType": "uint256",
          "name": "chainId_",
          "type": "uint256"
        },
        {
          "internalType": "address",
          "name": "renAssetProxyBeacon_",
          "type": "address"
        },
        {
          "internalType": "address",
          "name": "mintGatewayProxyBeacon_",
          "type": "address"
        },
        {
          "internalType": "address",
          "name": "lockGatewayProxyBeacon_",
          "type": "address"
        },
        {
          "internalType": "address",
          "name": "adminAddress_",
          "type": "address"
        }
      ],
      "name": "__GatewayRegistry_init",
      "outputs": [],
      "stateMutability": "nonpayable",
      "type": "function"
    },
    {
      "inputs": [
        {
          "internalType": "address",
          "name": "renAssetProxyBeacon_",
          "type": "address"
        },
        {
          "internalType": "address",
          "name": "mintGatewayProxyBeacon_",
          "type": "address"
        },
        {
          "internalType": "address",
          "name": "lockGatewayProxyBeacon_",
          "type": "address"
        }
      ],
      "name": "__RenAssetFactory_init",
      "outputs": [],
      "stateMutability": "nonpayable",
      "type": "function"
    },
    {
      "inputs": [
        {
          "internalType": "string",
          "name": "symbol_",
          "type": "string"
        },
        {
          "internalType": "address",
          "name": "lockAsset_",
          "type": "address"
        },
        {
          "internalType": "address",
          "name": "lockGateway_",
          "type": "address"
        }
      ],
      "name": "addLockGateway",
      "outputs": [],
      "stateMutability": "nonpayable",
      "type": "function"
    },
    {
      "inputs": [
        {
          "internalType": "string",
          "name": "symbol_",
          "type": "string"
        },
        {
          "internalType": "address",
          "name": "renAsset_",
          "type": "address"
        },
        {
          "internalType": "address",
          "name": "mintGateway_",
          "type": "address"
        }
      ],
      "name": "addMintGateway",
      "outputs": [],
      "stateMutability": "nonpayable",
      "type": "function"
    },
    {
      "inputs": [],
      "name": "chainId",
      "outputs": [
        {
          "internalType": "uint256",
          "name": "",
          "type": "uint256"
        }
      ],
      "stateMutability": "view",
      "type": "function"
    },
    {
      "inputs": [],
      "name": "chainName",
      "outputs": [
        {
          "internalType": "string",
          "name": "",
          "type": "string"
        }
      ],
      "stateMutability": "view",
      "type": "function"
    },
    {
      "inputs": [
        {
          "internalType": "string",
          "name": "symbol_",
          "type": "string"
        },
        {
          "internalType": "address",
          "name": "lockToken",
          "type": "address"
        },
        {
          "internalType": "string",
          "name": "version_",
          "type": "string"
        }
      ],
      "name": "deployLockGateway",
      "outputs": [],
      "stateMutability": "nonpayable",
      "type": "function"
    },
    {
      "inputs": [
        {
          "internalType": "string",
          "name": "symbol_",
          "type": "string"
        },
        {
          "internalType": "address",
          "name": "renAsset_",
          "type": "address"
        },
        {
          "internalType": "string",
          "name": "version_",
          "type": "string"
        }
      ],
      "name": "deployMintGateway",
      "outputs": [],
      "stateMutability": "nonpayable",
      "type": "function"
    },
    {
      "inputs": [
        {
          "internalType": "string",
          "name": "symbol_",
          "type": "string"
        },
        {
          "internalType": "string",
          "name": "erc20Name_",
          "type": "string"
        },
        {
          "internalType": "string",
          "name": "erc20Symbol_",
          "type": "string"
        },
        {
          "internalType": "uint8",
          "name": "erc20Decimals_",
          "type": "uint8"
        },
        {
          "internalType": "string",
          "name": "version_",
          "type": "string"
        }
      ],
      "name": "deployMintGatewayAndRenAsset",
      "outputs": [],
      "stateMutability": "nonpayable",
      "type": "function"
    },
    {
      "inputs": [
        {
          "internalType": "string",
          "name": "tokenSymbol_",
          "type": "string"
        }
      ],
      "name": "getGatewayBySymbol",
      "outputs": [
        {
          "internalType": "contract IMintGateway",
          "name": "",
          "type": "address"
        }
      ],
      "stateMutability": "view",
      "type": "function"
    },
    {
      "inputs": [
        {
          "internalType": "address",
          "name": "token_",
          "type": "address"
        }
      ],
      "name": "getGatewayByToken",
      "outputs": [
        {
          "internalType": "contract IMintGateway",
          "name": "",
          "type": "address"
        }
      ],
      "stateMutability": "view",
      "type": "function"
    },
    {
      "inputs": [
        {
          "internalType": "string",
          "name": "tokenSymbol_",
          "type": "string"
        }
      ],
      "name": "getLockAssetBySymbol",
      "outputs": [
        {
          "internalType": "contract IERC20",
          "name": "",
          "type": "address"
        }
      ],
      "stateMutability": "view",
      "type": "function"
    },
    {
      "inputs": [
        {
          "internalType": "string",
          "name": "tokenSymbol_",
          "type": "string"
        }
      ],
      "name": "getLockGatewayBySymbol",
      "outputs": [
        {
          "internalType": "contract ILockGateway",
          "name": "",
          "type": "address"
        }
      ],
      "stateMutability": "view",
      "type": "function"
    },
    {
      "inputs": [
        {
          "internalType": "address",
          "name": "token_",
          "type": "address"
        }
      ],
      "name": "getLockGatewayByToken",
      "outputs": [
        {
          "internalType": "contract ILockGateway",
          "name": "",
          "type": "address"
        }
      ],
      "stateMutability": "view",
      "type": "function"
    },
    {
      "inputs": [
        {
          "internalType": "uint256",
          "name": "from_",
          "type": "uint256"
        },
        {
          "internalType": "uint256",
          "name": "count_",
          "type": "uint256"
        }
      ],
      "name": "getLockGatewaySymbols",
      "outputs": [
        {
          "internalType": "string[]",
          "name": "",
          "type": "string[]"
        }
      ],
      "stateMutability": "view",
      "type": "function"
    },
    {
      "inputs": [
        {
          "internalType": "string",
          "name": "tokenSymbol_",
          "type": "string"
        }
      ],
      "name": "getMintGatewayBySymbol",
      "outputs": [
        {
          "internalType": "contract IMintGateway",
          "name": "",
          "type": "address"
        }
      ],
      "stateMutability": "view",
      "type": "function"
    },
    {
      "inputs": [
        {
          "internalType": "address",
          "name": "token_",
          "type": "address"
        }
      ],
      "name": "getMintGatewayByToken",
      "outputs": [
        {
          "internalType": "contract IMintGateway",
          "name": "",
          "type": "address"
        }
      ],
      "stateMutability": "view",
      "type": "function"
    },
    {
      "inputs": [
        {
          "internalType": "uint256",
          "name": "from_",
          "type": "uint256"
        },
        {
          "internalType": "uint256",
          "name": "count_",
          "type": "uint256"
        }
      ],
      "name": "getMintGatewaySymbols",
      "outputs": [
        {
          "internalType": "string[]",
          "name": "",
          "type": "string[]"
        }
      ],
      "stateMutability": "view",
      "type": "function"
    },
    {
      "inputs": [
        {
          "internalType": "string",
          "name": "tokenSymbol_",
          "type": "string"
        }
      ],
      "name": "getRenAssetBySymbol",
      "outputs": [
        {
          "internalType": "contract IERC20",
          "name": "",
          "type": "address"
        }
      ],
      "stateMutability": "view",
      "type": "function"
    },
    {
      "inputs": [
        {
          "internalType": "bytes32",
          "name": "role",
          "type": "bytes32"
        }
      ],
      "name": "getRoleAdmin",
      "outputs": [
        {
          "internalType": "bytes32",
          "name": "",
          "type": "bytes32"
        }
      ],
      "stateMutability": "view",
      "type": "function"
    },
    {
      "inputs": [
        {
          "internalType": "bytes32",
          "name": "role",
          "type": "bytes32"
        },
        {
          "internalType": "uint256",
          "name": "index",
          "type": "uint256"
        }
      ],
      "name": "getRoleMember",
      "outputs": [
        {
          "internalType": "address",
          "name": "",
          "type": "address"
        }
      ],
      "stateMutability": "view",
      "type": "function"
    },
    {
      "inputs": [
        {
          "internalType": "bytes32",
          "name": "role",
          "type": "bytes32"
        }
      ],
      "name": "getRoleMemberCount",
      "outputs": [
        {
          "internalType": "uint256",
          "name": "",
          "type": "uint256"
        }
      ],
      "stateMutability": "view",
      "type": "function"
    },
    {
      "inputs": [
        {
          "internalType": "string",
          "name": "tokenSymbol_",
          "type": "string"
        }
      ],
      "name": "getTokenBySymbol",
      "outputs": [
        {
          "internalType": "contract IERC20",
          "name": "",
          "type": "address"
        }
      ],
      "stateMutability": "view",
      "type": "function"
    },
    {
      "inputs": [
        {
          "internalType": "bytes32",
          "name": "role",
          "type": "bytes32"
        },
        {
          "internalType": "address",
          "name": "account",
          "type": "address"
        }
      ],
      "name": "grantRole",
      "outputs": [],
      "stateMutability": "nonpayable",
      "type": "function"
    },
    {
      "inputs": [
        {
          "internalType": "bytes32",
          "name": "role",
          "type": "bytes32"
        },
        {
          "internalType": "address",
          "name": "account",
          "type": "address"
        }
      ],
      "name": "hasRole",
      "outputs": [
        {
          "internalType": "bool",
          "name": "",
          "type": "bool"
        }
      ],
      "stateMutability": "view",
      "type": "function"
    },
    {
      "inputs": [],
      "name": "lockGatewayProxyBeacon",
      "outputs": [
        {
          "internalType": "contract LockGatewayProxyBeaconV1",
          "name": "",
          "type": "address"
        }
      ],
      "stateMutability": "view",
      "type": "function"
    },
    {
      "inputs": [],
      "name": "mintGatewayProxyBeacon",
      "outputs": [
        {
          "internalType": "contract MintGatewayProxyBeaconV1",
          "name": "",
          "type": "address"
        }
      ],
      "stateMutability": "view",
      "type": "function"
    },
    {
      "inputs": [
        {
          "internalType": "string",
          "name": "symbol_",
          "type": "string"
        }
      ],
      "name": "removeLockGateway",
      "outputs": [],
      "stateMutability": "nonpayable",
      "type": "function"
    },
    {
      "inputs": [
        {
          "internalType": "string",
          "name": "symbol_",
          "type": "string"
        }
      ],
      "name": "removeMintGateway",
      "outputs": [],
      "stateMutability": "nonpayable",
      "type": "function"
    },
    {
      "inputs": [],
      "name": "renAssetProxyBeacon",
      "outputs": [
        {
          "internalType": "contract RenAssetProxyBeaconV1",
          "name": "",
          "type": "address"
        }
      ],
      "stateMutability": "view",
      "type": "function"
    },
    {
      "inputs": [
        {
          "internalType": "bytes32",
          "name": "role",
          "type": "bytes32"
        },
        {
          "internalType": "address",
          "name": "account",
          "type": "address"
        }
      ],
      "name": "renounceRole",
      "outputs": [],
      "stateMutability": "nonpayable",
      "type": "function"
    },
    {
      "inputs": [
        {
          "internalType": "bytes32",
          "name": "role",
          "type": "bytes32"
        },
        {
          "internalType": "address",
          "name": "account",
          "type": "address"
        }
      ],
      "name": "revokeRole",
      "outputs": [],
      "stateMutability": "nonpayable",
      "type": "function"
    },
    {
      "inputs": [],
      "name": "signatureVerifier",
      "outputs": [
        {
          "internalType": "address",
          "name": "",
          "type": "address"
        }
      ],
      "stateMutability": "view",
      "type": "function"
    },
    {
      "inputs": [
        {
          "internalType": "bytes4",
          "name": "interfaceId",
          "type": "bytes4"
        }
      ],
      "name": "supportsInterface",
      "outputs": [
        {
          "internalType": "bool",
          "name": "",
          "type": "bool"
        }
      ],
      "stateMutability": "view",
      "type": "function"
    },
    {
      "inputs": [
        {
          "internalType": "address",
          "name": "nextSignatureVerifier_",
          "type": "address"
        }
      ],
      "name": "updateSignatureVerifier",
      "outputs": [],
      "stateMutability": "nonpayable",
      "type": "function"
    }
  ],
  "transactionHash": "0xdfcaa15ee6fa5919278014dba9ef952a0dd2ea2786c6f083fe376e0066b53328",
  "args": [],
  "solcInputHash": "cd16daf0061bcc045fc96aa81722133b",
  "bytecode": "0x608060405234801561001057600080fd5b506157b680620000216000396000f3fe608060405234801561001057600080fd5b50600436106102325760003560e01c80635667981b11610130578063a217fddf116100b8578063d2b05fb91161007c578063d2b05fb9146106fb578063d547741f14610717578063efa74f1f14610733578063fc3212c014610763578063fde919f61461079357610232565b8063a217fddf14610643578063a30c50ba14610661578063aa1ab9e314610691578063aa883642146106af578063ca15c873146106cb57610232565b8063868b3541116100ff578063868b3541146105655780639010d07c1461059557806391d14854146105c55780639a8a0592146105f55780639c789bb81461061357610232565b80635667981b146104b957806364936b1e146104d557806379c73a7a146105055780637b5c884f1461053557610232565b80632d05ba14116101be5780633922d139116101825780633922d1391461041957806340dffc6f14610449578063462b8ed114610465578063475400ba146104815780634cb391771461049d57610232565b80632d05ba14146103895780632d2798ca146103a75780632f2ff15d146103c357806333a40ccd146103df57806336568abe146103fd57610232565b80631b95e305116102055780631b95e305146102bf5780631c93b03a146102ef5780631f179f6e1461030d578063248a9ca3146103295780632949c6151461035957610232565b806301ffc9a7146102375780630b8e0b3814610267578063114fe9de1461028557806315267d97146102a3575b600080fd5b610251600480360381019061024c919061415f565b6107b1565b60405161025e9190614b07565b60405180910390f35b61026f61082b565b60405161027c9190614b22565b60405180910390f35b61028d61084f565b60405161029a9190614bbe565b60405180910390f35b6102bd60048036038101906102b891906141d9565b610875565b005b6102d960048036038101906102d49190614005565b610dc0565b6040516102e69190614ba3565b60405180910390f35b6102f7610dd2565b6040516103049190614c33565b60405180910390f35b6103276004803603810190610322919061405f565b610e60565b005b610343600480360381019061033e91906140b2565b610fff565b6040516103509190614b22565b60405180910390f35b610373600480360381019061036e9190614005565b61101f565b6040516103809190614ba3565b60405180910390f35b6103916110a8565b60405161039e9190614bf4565b60405180910390f35b6103c160048036038101906103bc919061418c565b6110ce565b005b6103dd60048036038101906103d891906140df565b611367565b005b6103e761139b565b6040516103f49190614bd9565b60405180910390f35b610417600480360381019061041291906140df565b6113c1565b005b610433600480360381019061042e919061418c565b6113f5565b6040516104409190614b88565b60405180910390f35b610463600480360381019061045e91906143cb565b611443565b005b61047f600480360381019061047a919061424d565b611638565b005b61049b600480360381019061049691906141d9565b61181c565b005b6104b760048036038101906104b2919061418c565b611d67565b005b6104d360048036038101906104ce9190614005565b611fe4565b005b6104ef60048036038101906104ea919061418c565b61220b565b6040516104fc9190614ba3565b60405180910390f35b61051f600480360381019061051a919061418c565b61221f565b60405161052c9190614b6d565b60405180910390f35b61054f600480360381019061054a919061418c565b61226d565b60405161055c9190614ba3565b60405180910390f35b61057f600480360381019061057a919061447a565b6122bb565b60405161058c9190614ae5565b60405180910390f35b6105af60048036038101906105aa919061411f565b6122d1565b6040516105bc9190614aca565b60405180910390f35b6105df60048036038101906105da91906140df565b612300565b6040516105ec9190614b07565b60405180910390f35b6105fd61236b565b60405161060a9190614dca565b60405180910390f35b61062d6004803603810190610628919061418c565b612371565b60405161063a9190614b6d565b60405180910390f35b61064b6123bf565b6040516106589190614b22565b60405180910390f35b61067b6004803603810190610676919061447a565b6123c6565b6040516106889190614ae5565b60405180910390f35b6106996123dc565b6040516106a69190614b22565b60405180910390f35b6106c960048036038101906106c491906142dd565b612400565b005b6106e560048036038101906106e091906140b2565b612693565b6040516106f29190614dca565b60405180910390f35b6107156004803603810190610710919061424d565b6126b7565b005b610731600480360381019061072c91906140df565b61289b565b005b61074d6004803603810190610748919061418c565b6128cf565b60405161075a9190614b6d565b60405180910390f35b61077d60048036038101906107789190614005565b6128e3565b60405161078a9190614b88565b60405180910390f35b61079b61296c565b6040516107a89190614aca565b60405180910390f35b60007f5a05180f000000000000000000000000000000000000000000000000000000007bffffffffffffffffffffffffffffffffffffffffffffffffffffffff1916827bffffffffffffffffffffffffffffffffffffffffffffffffffffffff19161480610824575061082382612992565b5b9050919050565b7fffddc8bfa55e17b4d21e6c83e86327dfded4d7c9dd051c00ab7b11c8a387c14a81565b60cb60009054906101000a900473ffffffffffffffffffffffffffffffffffffffff1681565b83836108c482828080601f016020809104026020016040519081016040528093929190818152602001838380828437600081840152601f19601f82011690508083019250505050505050612a0c565b610903576040517f08c379a00000000000000000000000000000000000000000000000000000000081526004016108fa90614d0a565b60405180910390fd5b7f906a1b6d8666ab930891bffd6f4ca7e6fa437b6e3a66b10e0206c563ed50772b7fffddc8bfa55e17b4d21e6c83e86327dfded4d7c9dd051c00ab7b11c8a387c14a600061094f612a2f565b905061095b8382612300565b15801561096f575061096d8282612300565b155b15610a0e576109958173ffffffffffffffffffffffffffffffffffffffff166014612a37565b6109a38460001c6020612a37565b6109b18460001c6020612a37565b6040516020016109c393929190614a3e565b6040516020818303038152906040526040517f08c379a0000000000000000000000000000000000000000000000000000000008152600401610a059190614c33565b60405180910390fd5b610a6689898080601f016020809104026020016040519081016040528093929190818152602001838380828437600081840152601f19601f8201169050808301925050505050505060cc612c7390919063ffffffff16565b15610a7657610a7589896110ce565b5b610ace89898080601f016020809104026020016040519081016040528093929190818152602001838380828437600081840152601f19601f8201169050808301925050505050505060cc612c7390919063ffffffff16565b15610b0e576040517f08c379a0000000000000000000000000000000000000000000000000000000008152600401610b0590614d6a565b60405180910390fd5b600060d060008973ffffffffffffffffffffffffffffffffffffffff1673ffffffffffffffffffffffffffffffffffffffff1681526020019081526020016000208054610b5a906151b0565b905014610b9c576040517f08c379a0000000000000000000000000000000000000000000000000000000008152600401610b9390614d2a565b60405180910390fd5b610bf489898080601f016020809104026020016040519081016040528093929190818152602001838380828437600081840152601f19601f8201169050808301925050505050505060cc612ca190919063ffffffff16565b5060405180604001604052808773ffffffffffffffffffffffffffffffffffffffff1681526020018873ffffffffffffffffffffffffffffffffffffffff1681525060d18a8a604051610c489291906149a2565b908152602001604051809103902060008201518160000160006101000a81548173ffffffffffffffffffffffffffffffffffffffff021916908373ffffffffffffffffffffffffffffffffffffffff16021790555060208201518160010160006101000a81548173ffffffffffffffffffffffffffffffffffffffff021916908373ffffffffffffffffffffffffffffffffffffffff160217905550905050888860d060008a73ffffffffffffffffffffffffffffffffffffffff1673ffffffffffffffffffffffffffffffffffffffff1681526020019081526020016000209190610d35929190613d58565b508573ffffffffffffffffffffffffffffffffffffffff168773ffffffffffffffffffffffffffffffffffffffff168a8a604051610d749291906149a2565b60405180910390207f4682b5e1653a49766b0abf114d3911a5c27599ae3a9e11f390ce9bf06cff0a128c8c604051610dad929190614c0f565b60405180910390a4505050505050505050565b6000610dcb8261101f565b9050919050565b60d68054610ddf906151b0565b80601f0160208091040260200160405190810160405280929190818152602001828054610e0b906151b0565b8015610e585780601f10610e2d57610100808354040283529160200191610e58565b820191906000526020600020905b815481529060010190602001808311610e3b57829003601f168201915b505050505081565b600060019054906101000a900460ff1680610e86575060008054906101000a900460ff16155b610ec5576040517f08c379a0000000000000000000000000000000000000000000000000000000008152600401610ebc90614cea565b60405180910390fd5b60008060019054906101000a900460ff161590508015610f15576001600060016101000a81548160ff02191690831515021790555060016000806101000a81548160ff0219169083151502179055505b8360c960006101000a81548173ffffffffffffffffffffffffffffffffffffffff021916908373ffffffffffffffffffffffffffffffffffffffff1602179055508260ca60006101000a81548173ffffffffffffffffffffffffffffffffffffffff021916908373ffffffffffffffffffffffffffffffffffffffff1602179055508160cb60006101000a81548173ffffffffffffffffffffffffffffffffffffffff021916908373ffffffffffffffffffffffffffffffffffffffff1602179055508015610ff95760008060016101000a81548160ff0219169083151502179055505b50505050565b600060656000838152602001908152602001600020600101549050919050565b600060d160d060008473ffffffffffffffffffffffffffffffffffffffff1673ffffffffffffffffffffffffffffffffffffffff16815260200190815260200160002060405161106f91906149f8565b908152602001604051809103902060000160009054906101000a900473ffffffffffffffffffffffffffffffffffffffff169050919050565b60c960009054906101000a900473ffffffffffffffffffffffffffffffffffffffff1681565b7fffddc8bfa55e17b4d21e6c83e86327dfded4d7c9dd051c00ab7b11c8a387c14a611100816110fb612a2f565b612d2f565b600073ffffffffffffffffffffffffffffffffffffffff1660d1848460405161112a9291906149a2565b908152602001604051809103902060010160009054906101000a900473ffffffffffffffffffffffffffffffffffffffff1673ffffffffffffffffffffffffffffffffffffffff1614156111b3576040517f08c379a00000000000000000000000000000000000000000000000000000000081526004016111aa90614cca565b60405180910390fd5b600060d184846040516111c79291906149a2565b908152602001604051809103902060010160009054906101000a900473ffffffffffffffffffffffffffffffffffffffff16905060d060008273ffffffffffffffffffffffffffffffffffffffff1673ffffffffffffffffffffffffffffffffffffffff16815260200190815260200160002060006112469190613dde565b60d184846040516112589291906149a2565b9081526020016040518091039020600080820160006101000a81549073ffffffffffffffffffffffffffffffffffffffff02191690556001820160006101000a81549073ffffffffffffffffffffffffffffffffffffffff0219169055505061130f84848080601f016020809104026020016040519081016040528093929190818152602001838380828437600081840152601f19601f8201169050808301925050505050505060cc612dcc90919063ffffffff16565b5083836040516113209291906149a2565b60405180910390207f5c6bce771f0acc024cb1447391030e98a8f38e5cb550e1c5bda96e12aa3044bf8585604051611359929190614c0f565b60405180910390a250505050565b6113718282612fa1565b6113968160976000858152602001908152602001600020612fca90919063ffffffff16565b505050565b60ca60009054906101000a900473ffffffffffffffffffffffffffffffffffffffff1681565b6113cb8282612ffa565b6113f0816097600085815260200190815260200160002061307d90919063ffffffff16565b505050565b600060d383836040516114099291906149a2565b908152602001604051809103902060000160009054906101000a900473ffffffffffffffffffffffffffffffffffffffff16905092915050565b600060019054906101000a900460ff1680611469575060008054906101000a900460ff16155b6114a8576040517f08c379a000000000000000000000000000000000000000000000000000000000815260040161149f90614cea565b60405180910390fd5b60008060019054906101000a900460ff1615905080156114f8576001600060016101000a81548160ff02191690831515021790555060016000806101000a81548160ff0219169083151502179055505b878761154782828080601f016020809104026020016040519081016040528093929190818152602001838380828437600081840152601f19601f82011690508083019250505050505050612a0c565b611586576040517f08c379a000000000000000000000000000000000000000000000000000000000815260040161157d90614d0a565b60405180910390fd5b611591878787610e60565b898960d691906115a2929190613d58565b508760d5819055506115b76000801b856130ad565b6115e17fffddc8bfa55e17b4d21e6c83e86327dfded4d7c9dd051c00ab7b11c8a387c14a856130ad565b61160b7f906a1b6d8666ab930891bffd6f4ca7e6fa437b6e3a66b10e0206c563ed50772b856130ad565b5050801561162e5760008060016101000a81548160ff0219169083151502179055505b5050505050505050565b7f906a1b6d8666ab930891bffd6f4ca7e6fa437b6e3a66b10e0206c563ed50772b61166a81611665612a2f565b612d2f565b600060d68054611679906151b0565b9050116116bb576040517f08c379a00000000000000000000000000000000000000000000000000000000081526004016116b290614d4a565b60405180910390fd5b61171385858080601f016020809104026020016040519081016040528093929190818152602001838380828437600081840152601f19601f8201169050808301925050505050505060ce612c7390919063ffffffff16565b1561174a576117497fffddc8bfa55e17b4d21e6c83e86327dfded4d7c9dd051c00ab7b11c8a387c14a611744612a2f565b612d2f565b5b600061180660d6805461175c906151b0565b80601f0160208091040260200160405190810160405280929190818152602001828054611788906151b0565b80156117d55780601f106117aa576101008083540402835291602001916117d5565b820191906000526020600020905b8154815290600101906020018083116117b857829003601f168201915b5050505050878760d460009054906101000a900473ffffffffffffffffffffffffffffffffffffffff1688886130e1565b905061181486868684610875565b505050505050565b838361186b82828080601f016020809104026020016040519081016040528093929190818152602001838380828437600081840152601f19601f82011690508083019250505050505050612a0c565b6118aa576040517f08c379a00000000000000000000000000000000000000000000000000000000081526004016118a190614d0a565b60405180910390fd5b7f906a1b6d8666ab930891bffd6f4ca7e6fa437b6e3a66b10e0206c563ed50772b7fffddc8bfa55e17b4d21e6c83e86327dfded4d7c9dd051c00ab7b11c8a387c14a60006118f6612a2f565b90506119028382612300565b15801561191657506119148282612300565b155b156119b55761193c8173ffffffffffffffffffffffffffffffffffffffff166014612a37565b61194a8460001c6020612a37565b6119588460001c6020612a37565b60405160200161196a93929190614a3e565b6040516020818303038152906040526040517f08c379a00000000000000000000000000000000000000000000000000000000081526004016119ac9190614c33565b60405180910390fd5b611a0d89898080601f016020809104026020016040519081016040528093929190818152602001838380828437600081840152601f19601f8201169050808301925050505050505060ce612c7390919063ffffffff16565b15611a1d57611a1c8989611d67565b5b611a7589898080601f016020809104026020016040519081016040528093929190818152602001838380828437600081840152601f19601f8201169050808301925050505050505060ce612c7390919063ffffffff16565b15611ab5576040517f08c379a0000000000000000000000000000000000000000000000000000000008152600401611aac90614d6a565b60405180910390fd5b600060d260008973ffffffffffffffffffffffffffffffffffffffff1673ffffffffffffffffffffffffffffffffffffffff1681526020019081526020016000208054611b01906151b0565b905014611b43576040517f08c379a0000000000000000000000000000000000000000000000000000000008152600401611b3a90614d2a565b60405180910390fd5b611b9b89898080601f016020809104026020016040519081016040528093929190818152602001838380828437600081840152601f19601f8201169050808301925050505050505060ce612ca190919063ffffffff16565b5060405180604001604052808773ffffffffffffffffffffffffffffffffffffffff1681526020018873ffffffffffffffffffffffffffffffffffffffff1681525060d38a8a604051611bef9291906149a2565b908152602001604051809103902060008201518160000160006101000a81548173ffffffffffffffffffffffffffffffffffffffff021916908373ffffffffffffffffffffffffffffffffffffffff16021790555060208201518160010160006101000a81548173ffffffffffffffffffffffffffffffffffffffff021916908373ffffffffffffffffffffffffffffffffffffffff160217905550905050888860d260008a73ffffffffffffffffffffffffffffffffffffffff1673ffffffffffffffffffffffffffffffffffffffff1681526020019081526020016000209190611cdc929190613d58565b508573ffffffffffffffffffffffffffffffffffffffff168773ffffffffffffffffffffffffffffffffffffffff168a8a604051611d1b9291906149a2565b60405180910390207f0c15c0d5e06df8261d683f33bfdb70d77eca8530b1b3b7d229ead531867be8188c8c604051611d54929190614c0f565b60405180910390a4505050505050505050565b7fffddc8bfa55e17b4d21e6c83e86327dfded4d7c9dd051c00ab7b11c8a387c14a611d9981611d94612a2f565b612d2f565b611df183838080601f016020809104026020016040519081016040528093929190818152602001838380828437600081840152601f19601f8201169050808301925050505050505060ce612c7390919063ffffffff16565b611e30576040517f08c379a0000000000000000000000000000000000000000000000000000000008152600401611e2790614cca565b60405180910390fd5b600060d38484604051611e449291906149a2565b908152602001604051809103902060010160009054906101000a900473ffffffffffffffffffffffffffffffffffffffff16905060d260008273ffffffffffffffffffffffffffffffffffffffff1673ffffffffffffffffffffffffffffffffffffffff1681526020019081526020016000206000611ec39190613dde565b60d38484604051611ed59291906149a2565b9081526020016040518091039020600080820160006101000a81549073ffffffffffffffffffffffffffffffffffffffff02191690556001820160006101000a81549073ffffffffffffffffffffffffffffffffffffffff02191690555050611f8c84848080601f016020809104026020016040519081016040528093929190818152602001838380828437600081840152601f19601f8201169050808301925050505050505060ce612dcc90919063ffffffff16565b508383604051611f9d9291906149a2565b60405180910390207f5e9082f22098a5a5184b5dffbe6c696b966b83bb250951a12f38f4609c7726328585604051611fd6929190614c0f565b60405180910390a250505050565b7f906a1b6d8666ab930891bffd6f4ca7e6fa437b6e3a66b10e0206c563ed50772b7fffddc8bfa55e17b4d21e6c83e86327dfded4d7c9dd051c00ab7b11c8a387c14a6000612030612a2f565b905061203c8382612300565b158015612050575061204e8282612300565b155b156120ef576120768173ffffffffffffffffffffffffffffffffffffffff166014612a37565b6120848460001c6020612a37565b6120928460001c6020612a37565b6040516020016120a493929190614a3e565b6040516020818303038152906040526040517f08c379a00000000000000000000000000000000000000000000000000000000081526004016120e69190614c33565b60405180910390fd5b600073ffffffffffffffffffffffffffffffffffffffff168473ffffffffffffffffffffffffffffffffffffffff16141561215f576040517f08c379a000000000000000000000000000000000000000000000000000000000815260040161215690614d8a565b60405180910390fd5b8360d460006101000a81548173ffffffffffffffffffffffffffffffffffffffff021916908373ffffffffffffffffffffffffffffffffffffffff16021790555060d460009054906101000a900473ffffffffffffffffffffffffffffffffffffffff1673ffffffffffffffffffffffffffffffffffffffff167fb57359628f7b44e9842ff204fb5700f84d8c4f9c3fc9dae13e7a1aab8ed164f760405160405180910390a250505050565b6000612217838361226d565b905092915050565b600060d183836040516122339291906149a2565b908152602001604051809103902060010160009054906101000a900473ffffffffffffffffffffffffffffffffffffffff16905092915050565b600060d183836040516122819291906149a2565b908152602001604051809103902060000160009054906101000a900473ffffffffffffffffffffffffffffffffffffffff16905092915050565b60606122c960cc84846132d9565b905092915050565b60006122f882609760008681526020019081526020016000206133d190919063ffffffff16565b905092915050565b60006065600084815260200190815260200160002060000160008373ffffffffffffffffffffffffffffffffffffffff1673ffffffffffffffffffffffffffffffffffffffff16815260200190815260200160002060009054906101000a900460ff16905092915050565b60d55481565b600060d383836040516123859291906149a2565b908152602001604051809103902060000160009054906101000a900473ffffffffffffffffffffffffffffffffffffffff16905092915050565b6000801b81565b60606123d460ce84846132d9565b905092915050565b7f906a1b6d8666ab930891bffd6f4ca7e6fa437b6e3a66b10e0206c563ed50772b81565b7f906a1b6d8666ab930891bffd6f4ca7e6fa437b6e3a66b10e0206c563ed50772b6124328161242d612a2f565b612d2f565b600060d68054612441906151b0565b905011612483576040517f08c379a000000000000000000000000000000000000000000000000000000000815260040161247a90614d4a565b60405180910390fd5b6124db87878080601f016020809104026020016040519081016040528093929190818152602001838380828437600081840152601f19601f8201169050808301925050505050505060ce612c7390919063ffffffff16565b1561253e5786866040516020016124f3929190614a0f565b6040516020818303038152906040526040517f08c379a00000000000000000000000000000000000000000000000000000000081526004016125359190614c33565b60405180910390fd5b600061255160d5548989898989896133eb565b9050600061260f60d68054612565906151b0565b80601f0160208091040260200160405190810160405280929190818152602001828054612591906151b0565b80156125de5780601f106125b3576101008083540402835291602001916125de565b820191906000526020600020905b8154815290600101906020018083116125c157829003601f168201915b50505050508a8a60d460009054906101000a900473ffffffffffffffffffffffffffffffffffffffff1686896130e1565b90508173ffffffffffffffffffffffffffffffffffffffff1663f2fde38b826040518263ffffffff1660e01b815260040161264a9190614aca565b600060405180830381600087803b15801561266457600080fd5b505af1158015612678573d6000803e3d6000fd5b5050505061268889898484610875565b505050505050505050565b60006126b060976000848152602001908152602001600020613579565b9050919050565b7f906a1b6d8666ab930891bffd6f4ca7e6fa437b6e3a66b10e0206c563ed50772b6126e9816126e4612a2f565b612d2f565b600060d680546126f8906151b0565b90501161273a576040517f08c379a000000000000000000000000000000000000000000000000000000000815260040161273190614d4a565b60405180910390fd5b61279285858080601f016020809104026020016040519081016040528093929190818152602001838380828437600081840152601f19601f8201169050808301925050505050505060ce612c7390919063ffffffff16565b156127c9576127c87fffddc8bfa55e17b4d21e6c83e86327dfded4d7c9dd051c00ab7b11c8a387c14a6127c3612a2f565b612d2f565b5b600061288560d680546127db906151b0565b80601f0160208091040260200160405190810160405280929190818152602001828054612807906151b0565b80156128545780601f1061282957610100808354040283529160200191612854565b820191906000526020600020905b81548152906001019060200180831161283757829003601f168201915b5050505050878760d460009054906101000a900473ffffffffffffffffffffffffffffffffffffffff16888861358e565b90506128938686868461181c565b505050505050565b6128a58282613786565b6128ca816097600085815260200190815260200160002061307d90919063ffffffff16565b505050565b60006128db838361221f565b905092915050565b600060d360d260008473ffffffffffffffffffffffffffffffffffffffff1673ffffffffffffffffffffffffffffffffffffffff16815260200190815260200160002060405161293391906149f8565b908152602001604051809103902060000160009054906101000a900473ffffffffffffffffffffffffffffffffffffffff169050919050565b60d460009054906101000a900473ffffffffffffffffffffffffffffffffffffffff1681565b60007f7965db0b000000000000000000000000000000000000000000000000000000007bffffffffffffffffffffffffffffffffffffffffffffffffffffffff1916827bffffffffffffffffffffffffffffffffffffffffffffffffffffffff19161480612a055750612a04826137af565b5b9050919050565b6000612a1782613819565b8015612a285750612a27826138d3565b5b9050919050565b600033905090565b606060006002836002612a4a9190614f9b565b612a549190614f45565b67ffffffffffffffff811115612a6d57612a6c615318565b5b6040519080825280601f01601f191660200182016040528015612a9f5781602001600182028036833780820191505090505b5090507f300000000000000000000000000000000000000000000000000000000000000081600081518110612ad757612ad66152e9565b5b60200101907effffffffffffffffffffffffffffffffffffffffffffffffffffffffffffff1916908160001a9053507f780000000000000000000000000000000000000000000000000000000000000081600181518110612b3b57612b3a6152e9565b5b60200101907effffffffffffffffffffffffffffffffffffffffffffffffffffffffffffff1916908160001a90535060006001846002612b7b9190614f9b565b612b859190614f45565b90505b6001811115612c25577f3031323334353637383961626364656600000000000000000000000000000000600f861660108110612bc757612bc66152e9565b5b1a60f81b828281518110612bde57612bdd6152e9565b5b60200101907effffffffffffffffffffffffffffffffffffffffffffffffffffffffffffff1916908160001a905350600485901c945080612c1e90615186565b9050612b88565b5060008414612c69576040517f08c379a0000000000000000000000000000000000000000000000000000000008152600401612c6090614caa565b60405180910390fd5b8091505092915050565b6000808360010183604051612c8891906149e1565b9081526020016040518091039020541415905092915050565b6000612cad8383612c73565b612d24578260000182908060018154018082558091505060019003906000526020600020016000909190919091509080519060200190612cee929190613e1e565b5082600001805490508360010183604051612d0991906149e1565b90815260200160405180910390208190555060019050612d29565b600090505b92915050565b612d398282612300565b612dc857612d5e8173ffffffffffffffffffffffffffffffffffffffff166014612a37565b612d6c8360001c6020612a37565b604051602001612d7d929190614a90565b6040516020818303038152906040526040517f08c379a0000000000000000000000000000000000000000000000000000000008152600401612dbf9190614c33565b60405180910390fd5b5050565b6000808360010183604051612de191906149e1565b908152602001604051809103902054905060008114612f95576000600182612e099190614ff5565b9050600060018660000180549050612e219190614ff5565b9050818114612f33576000866000018281548110612e4257612e416152e9565b5b906000526020600020018054612e57906151b0565b80601f0160208091040260200160405190810160405280929190818152602001828054612e83906151b0565b8015612ed05780601f10612ea557610100808354040283529160200191612ed0565b820191906000526020600020905b815481529060010190602001808311612eb357829003601f168201915b5050505050905080876000018481548110612eee57612eed6152e9565b5b906000526020600020019080519060200190612f0b929190613e1e565b50838760010182604051612f1f91906149e1565b908152602001604051809103902081905550505b85600001805480612f4757612f466152ba565b5b600190038181906000526020600020016000612f639190613dde565b90558560010185604051612f7791906149e1565b90815260200160405180910390206000905560019350505050612f9b565b60009150505b92915050565b612faa82610fff565b612fbb81612fb6612a2f565b612d2f565b612fc583836138e0565b505050565b6000612ff2836000018373ffffffffffffffffffffffffffffffffffffffff1660001b6139c1565b905092915050565b613002612a2f565b73ffffffffffffffffffffffffffffffffffffffff168173ffffffffffffffffffffffffffffffffffffffff161461306f576040517f08c379a000000000000000000000000000000000000000000000000000000000815260040161306690614daa565b60405180910390fd5b6130798282613a31565b5050565b60006130a5836000018373ffffffffffffffffffffffffffffffffffffffff1660001b613b13565b905092915050565b6130b78282613c27565b6130dc8160976000858152602001908152602001600020612fca90919063ffffffff16565b505050565b60008087878787876040516024016130fd959493929190614c55565b6040516020818303038152906040527f4a5bca8a000000000000000000000000000000000000000000000000000000007bffffffffffffffffffffffffffffffffffffffffffffffffffffffff19166020820180517bffffffffffffffffffffffffffffffffffffffffffffffffffffffff838183161783525050505090506000878785604051602001613193939291906149bb565b604051602081830303815290604052805190602001209050600060ca60009054906101000a900473ffffffffffffffffffffffffffffffffffffffff1673ffffffffffffffffffffffffffffffffffffffff1663ec54d72f83856040518363ffffffff1660e01b815260040161320a929190614b3d565b602060405180830381600087803b15801561322457600080fd5b505af1158015613238573d6000803e3d6000fd5b505050506040513d601f19601f8201168201806040525081019061325c9190614032565b90508073ffffffffffffffffffffffffffffffffffffffff1663f2fde38b336040518263ffffffff1660e01b81526004016132979190614aca565b600060405180830381600087803b1580156132b157600080fd5b505af11580156132c5573d6000803e3d6000fd5b505050508093505050509695505050505050565b606060006132e685613c35565b9050600083148061330157508083856132ff9190614f45565b115b156133155783816133129190614ff5565b92505b60008367ffffffffffffffff81111561333157613330615318565b5b60405190808252806020026020018201604052801561336457816020015b606081526020019060019003908161334f5790505b50905060008590505b84866133799190614f45565b8110156133c4576133938188613c4690919063ffffffff16565b8282815181106133a6576133a56152e9565b5b602002602001018190525080806133bc90615213565b91505061336d565b5080925050509392505050565b60006133e08360000183613cf9565b60001c905092915050565b6000808883878787604051602401613407959493929190614de5565b6040516020818303038152906040527fb1a64a2d000000000000000000000000000000000000000000000000000000007bffffffffffffffffffffffffffffffffffffffffffffffffffffffff19166020820180517bffffffffffffffffffffffffffffffffffffffffffffffffffffffff83818316178352505050509050600088888560405160200161349d939291906149bb565b604051602081830303815290604052805190602001209050600060c960009054906101000a900473ffffffffffffffffffffffffffffffffffffffff1673ffffffffffffffffffffffffffffffffffffffff1663ec54d72f83856040518363ffffffff1660e01b8152600401613514929190614b3d565b602060405180830381600087803b15801561352e57600080fd5b505af1158015613542573d6000803e3d6000fd5b505050506040513d601f19601f820116820180604052508101906135669190614032565b9050809350505050979650505050505050565b600061358782600001613d24565b9050919050565b60008087878787876040516024016135aa959493929190614c55565b6040516020818303038152906040527fb2f2be9b000000000000000000000000000000000000000000000000000000007bffffffffffffffffffffffffffffffffffffffffffffffffffffffff19166020820180517bffffffffffffffffffffffffffffffffffffffffffffffffffffffff838183161783525050505090506000878785604051602001613640939291906149bb565b604051602081830303815290604052805190602001209050600060cb60009054906101000a900473ffffffffffffffffffffffffffffffffffffffff1673ffffffffffffffffffffffffffffffffffffffff1663ec54d72f83856040518363ffffffff1660e01b81526004016136b7929190614b3d565b602060405180830381600087803b1580156136d157600080fd5b505af11580156136e5573d6000803e3d6000fd5b505050506040513d601f19601f820116820180604052508101906137099190614032565b90508073ffffffffffffffffffffffffffffffffffffffff1663f2fde38b336040518263ffffffff1660e01b81526004016137449190614aca565b600060405180830381600087803b15801561375e57600080fd5b505af1158015613772573d6000803e3d6000fd5b505050508093505050509695505050505050565b61378f82610fff565b6137a08161379b612a2f565b612d2f565b6137aa8383613a31565b505050565b60007f01ffc9a7000000000000000000000000000000000000000000000000000000007bffffffffffffffffffffffffffffffffffffffffffffffffffffffff1916827bffffffffffffffffffffffffffffffffffffffffffffffffffffffff1916149050919050565b600080600090505b82518110156138c857600083828151811061383f5761383e6152e9565b5b602001015160f81c60f81b60f81c905060418160ff16101580156138675750605a8160ff1611155b80613886575060618160ff16101580156138855750607a8160ff1611155b5b806138a5575060308160ff16101580156138a4575060398160ff1611155b5b6138b4576000925050506138ce565b5080806138c090615213565b915050613821565b50600190505b919050565b6000808251119050919050565b6138ea8282612300565b6139bd5760016065600084815260200190815260200160002060000160008373ffffffffffffffffffffffffffffffffffffffff1673ffffffffffffffffffffffffffffffffffffffff16815260200190815260200160002060006101000a81548160ff021916908315150217905550613962612a2f565b73ffffffffffffffffffffffffffffffffffffffff168173ffffffffffffffffffffffffffffffffffffffff16837f2f8788117e7eff1d82e926ec794901d17c78024a50270940304540a733656f0d60405160405180910390a45b5050565b60006139cd8383613d35565b613a26578260000182908060018154018082558091505060019003906000526020600020016000909190919091505582600001805490508360010160008481526020019081526020016000208190555060019050613a2b565b600090505b92915050565b613a3b8282612300565b15613b0f5760006065600084815260200190815260200160002060000160008373ffffffffffffffffffffffffffffffffffffffff1673ffffffffffffffffffffffffffffffffffffffff16815260200190815260200160002060006101000a81548160ff021916908315150217905550613ab4612a2f565b73ffffffffffffffffffffffffffffffffffffffff168173ffffffffffffffffffffffffffffffffffffffff16837ff6391f5c32d9c69d2a47ea670b442974b53935d1edc7fd64eb21e047a839171b60405160405180910390a45b5050565b60008083600101600084815260200190815260200160002054905060008114613c1b576000600182613b459190614ff5565b9050600060018660000180549050613b5d9190614ff5565b9050818114613bcc576000866000018281548110613b7e57613b7d6152e9565b5b9060005260206000200154905080876000018481548110613ba257613ba16152e9565b5b90600052602060002001819055508387600101600083815260200190815260200160002081905550505b85600001805480613be057613bdf6152ba565b5b600190038181906000526020600020016000905590558560010160008681526020019081526020016000206000905560019350505050613c21565b60009150505b92915050565b613c3182826138e0565b5050565b600081600001805490509050919050565b6060826000018281548110613c5e57613c5d6152e9565b5b906000526020600020018054613c73906151b0565b80601f0160208091040260200160405190810160405280929190818152602001828054613c9f906151b0565b8015613cec5780601f10613cc157610100808354040283529160200191613cec565b820191906000526020600020905b815481529060010190602001808311613ccf57829003601f168201915b5050505050905092915050565b6000826000018281548110613d1157613d106152e9565b5b9060005260206000200154905092915050565b600081600001805490509050919050565b600080836001016000848152602001908152602001600020541415905092915050565b828054613d64906151b0565b90600052602060002090601f016020900481019282613d865760008555613dcd565b82601f10613d9f57803560ff1916838001178555613dcd565b82800160010185558215613dcd579182015b82811115613dcc578235825591602001919060010190613db1565b5b509050613dda9190613ea4565b5090565b508054613dea906151b0565b6000825580601f10613dfc5750613e1b565b601f016020900490600052602060002090810190613e1a9190613ea4565b5b50565b828054613e2a906151b0565b90600052602060002090601f016020900481019282613e4c5760008555613e93565b82601f10613e6557805160ff1916838001178555613e93565b82800160010185558215613e93579182015b82811115613e92578251825591602001919060010190613e77565b5b509050613ea09190613ea4565b5090565b5b80821115613ebd576000816000905550600101613ea5565b5090565b6000613ed4613ecf84614e72565b614e4d565b905082815260208101848484011115613ef057613eef615356565b5b613efb848285615144565b509392505050565b600081359050613f128161570d565b92915050565b600081519050613f278161570d565b92915050565b600081359050613f3c81615724565b92915050565b600081359050613f518161573b565b92915050565b60008083601f840112613f6d57613f6c61534c565b5b8235905067ffffffffffffffff811115613f8a57613f89615347565b5b602083019150836001820283011115613fa657613fa5615351565b5b9250929050565b600082601f830112613fc257613fc161534c565b5b8135613fd2848260208601613ec1565b91505092915050565b600081359050613fea81615752565b92915050565b600081359050613fff81615769565b92915050565b60006020828403121561401b5761401a615360565b5b600061402984828501613f03565b91505092915050565b60006020828403121561404857614047615360565b5b600061405684828501613f18565b91505092915050565b60008060006060848603121561407857614077615360565b5b600061408686828701613f03565b935050602061409786828701613f03565b92505060406140a886828701613f03565b9150509250925092565b6000602082840312156140c8576140c7615360565b5b60006140d684828501613f2d565b91505092915050565b600080604083850312156140f6576140f5615360565b5b600061410485828601613f2d565b925050602061411585828601613f03565b9150509250929050565b6000806040838503121561413657614135615360565b5b600061414485828601613f2d565b925050602061415585828601613fdb565b9150509250929050565b60006020828403121561417557614174615360565b5b600061418384828501613f42565b91505092915050565b600080602083850312156141a3576141a2615360565b5b600083013567ffffffffffffffff8111156141c1576141c061535b565b5b6141cd85828601613f57565b92509250509250929050565b600080600080606085870312156141f3576141f2615360565b5b600085013567ffffffffffffffff8111156142115761421061535b565b5b61421d87828801613f57565b9450945050602061423087828801613f03565b925050604061424187828801613f03565b91505092959194509250565b6000806000806060858703121561426757614266615360565b5b600085013567ffffffffffffffff8111156142855761428461535b565b5b61429187828801613f57565b945094505060206142a487828801613f03565b925050604085013567ffffffffffffffff8111156142c5576142c461535b565b5b6142d187828801613fad565b91505092959194509250565b60008060008060008060a087890312156142fa576142f9615360565b5b600087013567ffffffffffffffff8111156143185761431761535b565b5b61432489828a01613f57565b9650965050602087013567ffffffffffffffff8111156143475761434661535b565b5b61435389828a01613fad565b945050604087013567ffffffffffffffff8111156143745761437361535b565b5b61438089828a01613fad565b935050606061439189828a01613ff0565b925050608087013567ffffffffffffffff8111156143b2576143b161535b565b5b6143be89828a01613fad565b9150509295509295509295565b600080600080600080600060c0888a0312156143ea576143e9615360565b5b600088013567ffffffffffffffff8111156144085761440761535b565b5b6144148a828b01613f57565b975097505060206144278a828b01613fdb565b95505060406144388a828b01613f03565b94505060606144498a828b01613f03565b935050608061445a8a828b01613f03565b92505060a061446b8a828b01613f03565b91505092959891949750929550565b6000806040838503121561449157614490615360565b5b600061449f85828601613fdb565b92505060206144b085828601613fdb565b9150509250929050565b60006144c68383614655565b905092915050565b6144d781615029565b82525050565b60006144e882614ec8565b6144f28185614ef6565b93508360208202850161450485614ea3565b8060005b85811015614540578484038952815161452185826144ba565b945061452c83614ee9565b925060208a01995050600181019050614508565b50829750879550505050505092915050565b61455b8161503b565b82525050565b61456a81615047565b82525050565b600061457b82614ed3565b6145858185614f07565b9350614595818560208601615153565b61459e81615365565b840191505092915050565b6145b2816150b4565b82525050565b6145c1816150c6565b82525050565b6145d0816150d8565b82525050565b6145df816150ea565b82525050565b6145ee816150fc565b82525050565b6145fd8161510e565b82525050565b600061460f8385614f29565b935061461c838584615144565b61462583615365565b840190509392505050565b600061463c8385614f3a565b9350614649838584615144565b82840190509392505050565b600061466082614ede565b61466a8185614f18565b935061467a818560208601615153565b61468381615365565b840191505092915050565b600061469982614ede565b6146a38185614f29565b93506146b3818560208601615153565b6146bc81615365565b840191505092915050565b60006146d282614ede565b6146dc8185614f3a565b93506146ec818560208601615153565b80840191505092915050565b60008154614705816151b0565b61470f8186614f3a565b9450600182166000811461472a576001811461473b5761476e565b60ff1983168652818601935061476e565b61474485614eb3565b60005b8381101561476657815481890152600182019150602081019050614747565b838801955050505b50505092915050565b6000614784601283614f3a565b915061478f82615376565b601282019050919050565b60006147a7602083614f29565b91506147b28261539f565b602082019050919050565b60006147ca602783614f29565b91506147d5826153c8565b604082019050919050565b60006147ed601183614f3a565b91506147f882615417565b601182019050919050565b6000614810600483614f3a565b915061481b82615440565b600482019050919050565b6000614833602e83614f29565b915061483e82615469565b604082019050919050565b6000614856602e83614f29565b9150614861826154b8565b604082019050919050565b6000614879602983614f29565b915061488482615507565b604082019050919050565b600061489c602083614f3a565b91506148a782615556565b602082019050919050565b60006148bf602683614f29565b91506148ca8261557f565b604082019050919050565b60006148e2601783614f3a565b91506148ed826155ce565b601782019050919050565b6000614905602a83614f29565b9150614910826155f7565b604082019050919050565b6000614928602383614f29565b915061493382615646565b604082019050919050565b600061494b601183614f3a565b915061495682615695565b601182019050919050565b600061496e602f83614f29565b9150614979826156be565b604082019050919050565b61498d8161509d565b82525050565b61499c816150a7565b82525050565b60006149af828486614630565b91508190509392505050565b60006149c8828587614630565b91506149d482846146c7565b9150819050949350505050565b60006149ed82846146c7565b915081905092915050565b6000614a0482846146f8565b915081905092915050565b6000614a1a826147e0565b9150614a27828486614630565b9150614a328261488f565b91508190509392505050565b6000614a49826148d5565b9150614a5582866146c7565b9150614a6082614777565b9150614a6c82856146c7565b9150614a7782614803565b9150614a8382846146c7565b9150819050949350505050565b6000614a9b826148d5565b9150614aa782856146c7565b9150614ab28261493e565b9150614abe82846146c7565b91508190509392505050565b6000602082019050614adf60008301846144ce565b92915050565b60006020820190508181036000830152614aff81846144dd565b905092915050565b6000602082019050614b1c6000830184614552565b92915050565b6000602082019050614b376000830184614561565b92915050565b6000604082019050614b526000830185614561565b8181036020830152614b648184614570565b90509392505050565b6000602082019050614b8260008301846145a9565b92915050565b6000602082019050614b9d60008301846145b8565b92915050565b6000602082019050614bb860008301846145c7565b92915050565b6000602082019050614bd360008301846145d6565b92915050565b6000602082019050614bee60008301846145e5565b92915050565b6000602082019050614c0960008301846145f4565b92915050565b60006020820190508181036000830152614c2a818486614603565b90509392505050565b60006020820190508181036000830152614c4d818461468e565b905092915050565b60006080820190508181036000830152614c6f818861468e565b90508181036020830152614c84818688614603565b9050614c9360408301856144ce565b614ca060608301846144ce565b9695505050505050565b60006020820190508181036000830152614cc38161479a565b9050919050565b60006020820190508181036000830152614ce3816147bd565b9050919050565b60006020820190508181036000830152614d0381614826565b9050919050565b60006020820190508181036000830152614d2381614849565b9050919050565b60006020820190508181036000830152614d438161486c565b9050919050565b60006020820190508181036000830152614d63816148b2565b9050919050565b60006020820190508181036000830152614d83816148f8565b9050919050565b60006020820190508181036000830152614da38161491b565b9050919050565b60006020820190508181036000830152614dc381614961565b9050919050565b6000602082019050614ddf6000830184614984565b92915050565b600060a082019050614dfa6000830188614984565b8181036020830152614e0c818761468e565b90508181036040830152614e20818661468e565b90508181036060830152614e34818561468e565b9050614e436080830184614993565b9695505050505050565b6000614e57614e68565b9050614e6382826151e2565b919050565b6000604051905090565b600067ffffffffffffffff821115614e8d57614e8c615318565b5b614e9682615365565b9050602081019050919050565b6000819050602082019050919050565b60008190508160005260206000209050919050565b600081519050919050565b600081519050919050565b600081519050919050565b6000602082019050919050565b600082825260208201905092915050565b600082825260208201905092915050565b600082825260208201905092915050565b600082825260208201905092915050565b600081905092915050565b6000614f508261509d565b9150614f5b8361509d565b9250827fffffffffffffffffffffffffffffffffffffffffffffffffffffffffffffffff03821115614f9057614f8f61525c565b5b828201905092915050565b6000614fa68261509d565b9150614fb18361509d565b9250817fffffffffffffffffffffffffffffffffffffffffffffffffffffffffffffffff0483118215151615614fea57614fe961525c565b5b828202905092915050565b60006150008261509d565b915061500b8361509d565b92508282101561501e5761501d61525c565b5b828203905092915050565b60006150348261507d565b9050919050565b60008115159050919050565b6000819050919050565b60007fffffffff0000000000000000000000000000000000000000000000000000000082169050919050565b600073ffffffffffffffffffffffffffffffffffffffff82169050919050565b6000819050919050565b600060ff82169050919050565b60006150bf82615120565b9050919050565b60006150d182615120565b9050919050565b60006150e382615120565b9050919050565b60006150f582615120565b9050919050565b600061510782615120565b9050919050565b600061511982615120565b9050919050565b600061512b82615132565b9050919050565b600061513d8261507d565b9050919050565b82818337600083830152505050565b60005b83811015615171578082015181840152602081019050615156565b83811115615180576000848401525b50505050565b60006151918261509d565b915060008214156151a5576151a461525c565b5b600182039050919050565b600060028204905060018216806151c857607f821691505b602082108114156151dc576151db61528b565b5b50919050565b6151eb82615365565b810181811067ffffffffffffffff8211171561520a57615209615318565b5b80604052505050565b600061521e8261509d565b91507fffffffffffffffffffffffffffffffffffffffffffffffffffffffffffffffff8214156152515761525061525c565b5b600182019050919050565b7f4e487b7100000000000000000000000000000000000000000000000000000000600052601160045260246000fd5b7f4e487b7100000000000000000000000000000000000000000000000000000000600052602260045260246000fd5b7f4e487b7100000000000000000000000000000000000000000000000000000000600052603160045260246000fd5b7f4e487b7100000000000000000000000000000000000000000000000000000000600052603260045260246000fd5b7f4e487b7100000000000000000000000000000000000000000000000000000000600052604160045260246000fd5b600080fd5b600080fd5b600080fd5b600080fd5b600080fd5b600080fd5b6000601f19601f8301169050919050565b7f206973206d697373696e6720726f6c6573200000000000000000000000000000600082015250565b7f537472696e67733a20686578206c656e67746820696e73756666696369656e74600082015250565b7f4761746577617952656769737472793a2067617465776179206e6f742072656760008201527f6973746572656400000000000000000000000000000000000000000000000000602082015250565b7f4761746577617952656769737472793a20000000000000000000000000000000600082015250565b7f206f722000000000000000000000000000000000000000000000000000000000600082015250565b7f496e697469616c697a61626c653a20636f6e747261637420697320616c72656160008201527f647920696e697469616c697a6564000000000000000000000000000000000000602082015250565b7f4761746577617952656769737472793a20656d707479206f7220696e76616c6960008201527f6420737472696e6720696e707574000000000000000000000000000000000000602082015250565b7f4761746577617952656769737472793a20746f6b656e20616c7265616479207260008201527f6567697374657265640000000000000000000000000000000000000000000000602082015250565b7f206d696e74206761746577617920616c72656164792072656769737465726564600082015250565b7f4761746577617952656769737472793a20636861696e2064657461696c73206e60008201527f6f74207365740000000000000000000000000000000000000000000000000000602082015250565b7f416363657373436f6e74726f6c3a206163636f756e7420000000000000000000600082015250565b7f4761746577617952656769737472793a2073796d626f6c20616c72656164792060008201527f7265676973746572656400000000000000000000000000000000000000000000602082015250565b7f476174657761793a20696e76616c6964207369676e617475726520766572696660008201527f6965720000000000000000000000000000000000000000000000000000000000602082015250565b7f206973206d697373696e6720726f6c6520000000000000000000000000000000600082015250565b7f416363657373436f6e74726f6c3a2063616e206f6e6c792072656e6f756e636560008201527f20726f6c657320666f722073656c660000000000000000000000000000000000602082015250565b61571681615029565b811461572157600080fd5b50565b61572d81615047565b811461573857600080fd5b50565b61574481615051565b811461574f57600080fd5b50565b61575b8161509d565b811461576657600080fd5b50565b615772816150a7565b811461577d57600080fd5b5056fea264697066735822122036f191d1a2b49e76859dcde5adcb4e1b222f374373c9b7a9775722d68259b24564736f6c63430008070033",
  "devdoc": {
    "events": {
      "LogMintGatewayUpdated(string,string,address,address)": {
        "details": "The symbol is included twice because strings have to be hashed first in order to be used as a log index/topic."
      }
    },
    "kind": "dev",
    "methods": {
      "addLockGateway(string,address,address)": {
        "params": {
          "lockAsset_": "The address of the RenERC20 token contract.",
          "lockGateway_": "The address of the Gateway contract.",
          "symbol_": "A string that identifies the token and gateway pair."
        }
      },
      "addMintGateway(string,address,address)": {
        "params": {
          "mintGateway_": "The address of the Gateway contract.",
          "renAsset_": "The address of the RenERC20 token contract.",
          "symbol_": "A string that identifies the token and gateway pair."
        }
      },
      "getLockGatewaySymbols(uint256,uint256)": {
        "details": "To get all the registered tokens set count to `0`."
      },
      "getMintGatewayBySymbol(string)": {
        "params": {
          "tokenSymbol_": "The symbol of the RenERC20 token contract."
        }
      },
      "getMintGatewayByToken(address)": {
        "params": {
          "token_": "The address of the RenERC20 token contract."
        }
      },
      "getMintGatewaySymbols(uint256,uint256)": {
        "details": "To get all the registered Gateway contracts set count to `0`."
      },
      "getRenAssetBySymbol(string)": {
        "params": {
          "tokenSymbol_": "The symbol of the RenERC20 token contract to        lookup."
        }
      },
      "getRoleAdmin(bytes32)": {
        "details": "Returns the admin role that controls `role`. See {grantRole} and {revokeRole}. To change a role's admin, use {_setRoleAdmin}."
      },
      "getRoleMember(bytes32,uint256)": {
        "details": "Returns one of the accounts that have `role`. `index` must be a value between 0 and {getRoleMemberCount}, non-inclusive. Role bearers are not sorted in any particular way, and their ordering may change at any point. WARNING: When using {getRoleMember} and {getRoleMemberCount}, make sure you perform all queries on the same block. See the following https://forum.openzeppelin.com/t/iterating-over-elements-on-enumerableset-in-openzeppelin-contracts/2296[forum post] for more information."
      },
      "getRoleMemberCount(bytes32)": {
        "details": "Returns the number of accounts that have `role`. Can be used together with {getRoleMember} to enumerate all bearers of a role."
      },
      "grantRole(bytes32,address)": {
        "details": "Overload {grantRole} to track enumerable memberships"
      },
      "hasRole(bytes32,address)": {
        "details": "Returns `true` if `account` has been granted `role`."
      },
      "removeLockGateway(string)": {
        "params": {
          "symbol_": "The symbol of the token to deregister."
        }
      },
      "removeMintGateway(string)": {
        "params": {
          "symbol_": "The symbol of the token to deregister."
        }
      },
      "renounceRole(bytes32,address)": {
        "details": "Overload {renounceRole} to track enumerable memberships"
      },
      "revokeRole(bytes32,address)": {
        "details": "Overload {revokeRole} to track enumerable memberships"
      },
      "supportsInterface(bytes4)": {
        "details": "See {IERC165-supportsInterface}."
      },
      "updateSignatureVerifier(address)": {
        "params": {
          "nextSignatureVerifier_": "The new verifier contract address."
        }
      }
    },
    "version": 1
  },
  "userdoc": {
    "kind": "user",
    "methods": {
      "addLockGateway(string,address,address)": {
        "notice": "Allow the owner to set the Gateway contract for a given         RenERC20 token contract."
      },
      "addMintGateway(string,address,address)": {
        "notice": "Allow the owner to set the Gateway contract for a given         RenERC20 token contract."
      },
      "getGatewayBySymbol(string)": {
        "notice": "Deprecated in favour of getMintGatewayBySymbol."
      },
      "getGatewayByToken(address)": {
        "notice": "Deprecated in favour of getMintGatewayByToken."
      },
      "getMintGatewayBySymbol(string)": {
        "notice": "Returns the Gateway contract for the given RenERC20 token         symbol."
      },
      "getMintGatewayByToken(address)": {
        "notice": "Returns the Gateway contract for the given RenERC20 token         address."
      },
      "getRenAssetBySymbol(string)": {
        "notice": "Returns the RenERC20 address for the given token symbol."
      },
      "getTokenBySymbol(string)": {
        "notice": "Deprecated in favour of getRenAssetBySymbol."
      },
      "removeLockGateway(string)": {
        "notice": "Allows the owner to remove the Gateway contract for a given         asset contract."
      },
      "removeMintGateway(string)": {
        "notice": "Allows the owner to remove the Gateway contract for a given         RenERC20 contract."
      },
      "updateSignatureVerifier(address)": {
        "notice": "Allow the owner to update the signature verifier contract."
      }
    },
    "notice": "GatewayRegistry is a mapping from assets to their associated RenERC20 and Gateway contracts.",
    "version": 1
  },
  "storageLayout": {
    "storage": [
      {
        "astId": 773,
        "contract": "src/GatewayRegistry/GatewayRegistry.sol:GatewayRegistryV2",
        "label": "_initialized",
        "offset": 0,
        "slot": "0",
        "type": "t_bool"
      },
      {
        "astId": 776,
        "contract": "src/GatewayRegistry/GatewayRegistry.sol:GatewayRegistryV2",
        "label": "_initializing",
        "offset": 1,
        "slot": "0",
        "type": "t_bool"
      },
      {
        "astId": 1994,
        "contract": "src/GatewayRegistry/GatewayRegistry.sol:GatewayRegistryV2",
        "label": "__gap",
        "offset": 0,
        "slot": "1",
        "type": "t_array(t_uint256)50_storage"
      },
      {
        "astId": 2243,
        "contract": "src/GatewayRegistry/GatewayRegistry.sol:GatewayRegistryV2",
        "label": "__gap",
        "offset": 0,
        "slot": "51",
        "type": "t_array(t_uint256)50_storage"
      },
      {
        "astId": 258,
        "contract": "src/GatewayRegistry/GatewayRegistry.sol:GatewayRegistryV2",
        "label": "_roles",
        "offset": 0,
        "slot": "101",
        "type": "t_mapping(t_bytes32,t_struct(RoleData)253_storage)"
      },
      {
        "astId": 543,
        "contract": "src/GatewayRegistry/GatewayRegistry.sol:GatewayRegistryV2",
        "label": "__gap",
        "offset": 0,
        "slot": "102",
        "type": "t_array(t_uint256)49_storage"
      },
      {
        "astId": 45,
        "contract": "src/GatewayRegistry/GatewayRegistry.sol:GatewayRegistryV2",
        "label": "_roleMembers",
        "offset": 0,
        "slot": "151",
        "type": "t_mapping(t_bytes32,t_struct(AddressSet)2568_storage)"
      },
      {
        "astId": 208,
        "contract": "src/GatewayRegistry/GatewayRegistry.sol:GatewayRegistryV2",
        "label": "__gap",
        "offset": 0,
        "slot": "152",
        "type": "t_array(t_uint256)49_storage"
      },
      {
        "astId": 7592,
        "contract": "src/GatewayRegistry/GatewayRegistry.sol:GatewayRegistryV2",
        "label": "renAssetProxyBeacon",
        "offset": 0,
        "slot": "201",
        "type": "t_contract(RenAssetProxyBeaconV1)7539"
      },
      {
        "astId": 7595,
        "contract": "src/GatewayRegistry/GatewayRegistry.sol:GatewayRegistryV2",
        "label": "mintGatewayProxyBeacon",
        "offset": 0,
        "slot": "202",
        "type": "t_contract(MintGatewayProxyBeaconV1)7554"
      },
      {
        "astId": 7598,
        "contract": "src/GatewayRegistry/GatewayRegistry.sol:GatewayRegistryV2",
        "label": "lockGatewayProxyBeacon",
        "offset": 0,
        "slot": "203",
        "type": "t_contract(LockGatewayProxyBeaconV1)7569"
      },
      {
        "astId": 6451,
        "contract": "src/GatewayRegistry/GatewayRegistry.sol:GatewayRegistryV2",
        "label": "mintGatewaySymbols",
        "offset": 0,
        "slot": "204",
        "type": "t_struct(Set)7808_storage"
      },
      {
        "astId": 6454,
        "contract": "src/GatewayRegistry/GatewayRegistry.sol:GatewayRegistryV2",
        "label": "lockGatewaySymbols",
        "offset": 0,
        "slot": "206",
        "type": "t_struct(Set)7808_storage"
      },
      {
        "astId": 6458,
        "contract": "src/GatewayRegistry/GatewayRegistry.sol:GatewayRegistryV2",
        "label": "mintSymbolByToken",
        "offset": 0,
        "slot": "208",
        "type": "t_mapping(t_address,t_string_storage)"
      },
      {
        "astId": 6463,
        "contract": "src/GatewayRegistry/GatewayRegistry.sol:GatewayRegistryV2",
        "label": "mintGatewayDetailsBySymbol",
        "offset": 0,
        "slot": "209",
        "type": "t_mapping(t_string_memory_ptr,t_struct(GatewayDetails)6448_storage)"
      },
      {
        "astId": 6467,
        "contract": "src/GatewayRegistry/GatewayRegistry.sol:GatewayRegistryV2",
        "label": "lockSymbolByToken",
        "offset": 0,
        "slot": "210",
        "type": "t_mapping(t_address,t_string_storage)"
      },
      {
        "astId": 6472,
        "contract": "src/GatewayRegistry/GatewayRegistry.sol:GatewayRegistryV2",
        "label": "lockGatewayDetailsBySymbol",
        "offset": 0,
        "slot": "211",
        "type": "t_mapping(t_string_memory_ptr,t_struct(GatewayDetails)6448_storage)"
      },
      {
        "astId": 6474,
        "contract": "src/GatewayRegistry/GatewayRegistry.sol:GatewayRegistryV2",
        "label": "signatureVerifier",
        "offset": 0,
        "slot": "212",
        "type": "t_address"
      },
      {
        "astId": 6476,
        "contract": "src/GatewayRegistry/GatewayRegistry.sol:GatewayRegistryV2",
        "label": "chainId",
        "offset": 0,
        "slot": "213",
        "type": "t_uint256"
      },
      {
        "astId": 6478,
        "contract": "src/GatewayRegistry/GatewayRegistry.sol:GatewayRegistryV2",
        "label": "chainName",
        "offset": 0,
        "slot": "214",
        "type": "t_string_storage"
      }
    ],
    "types": {
      "t_address": {
        "encoding": "inplace",
        "label": "address",
        "numberOfBytes": "20"
      },
      "t_array(t_bytes32)dyn_storage": {
        "base": "t_bytes32",
        "encoding": "dynamic_array",
        "label": "bytes32[]",
        "numberOfBytes": "32"
      },
      "t_array(t_string_storage)dyn_storage": {
        "base": "t_string_storage",
        "encoding": "dynamic_array",
        "label": "string[]",
        "numberOfBytes": "32"
      },
      "t_array(t_uint256)49_storage": {
        "base": "t_uint256",
        "encoding": "inplace",
        "label": "uint256[49]",
        "numberOfBytes": "1568"
      },
      "t_array(t_uint256)50_storage": {
        "base": "t_uint256",
        "encoding": "inplace",
        "label": "uint256[50]",
        "numberOfBytes": "1600"
      },
      "t_bool": {
        "encoding": "inplace",
        "label": "bool",
        "numberOfBytes": "1"
      },
      "t_bytes32": {
        "encoding": "inplace",
        "label": "bytes32",
        "numberOfBytes": "32"
      },
      "t_contract(LockGatewayProxyBeaconV1)7569": {
        "encoding": "inplace",
        "label": "contract LockGatewayProxyBeaconV1",
        "numberOfBytes": "20"
      },
      "t_contract(MintGatewayProxyBeaconV1)7554": {
        "encoding": "inplace",
        "label": "contract MintGatewayProxyBeaconV1",
        "numberOfBytes": "20"
      },
      "t_contract(RenAssetProxyBeaconV1)7539": {
        "encoding": "inplace",
        "label": "contract RenAssetProxyBeaconV1",
        "numberOfBytes": "20"
      },
      "t_mapping(t_address,t_bool)": {
        "encoding": "mapping",
        "key": "t_address",
        "label": "mapping(address => bool)",
        "numberOfBytes": "32",
        "value": "t_bool"
      },
      "t_mapping(t_address,t_string_storage)": {
        "encoding": "mapping",
        "key": "t_address",
        "label": "mapping(address => string)",
        "numberOfBytes": "32",
        "value": "t_string_storage"
      },
      "t_mapping(t_bytes32,t_struct(AddressSet)2568_storage)": {
        "encoding": "mapping",
        "key": "t_bytes32",
        "label": "mapping(bytes32 => struct EnumerableSetUpgradeable.AddressSet)",
        "numberOfBytes": "32",
        "value": "t_struct(AddressSet)2568_storage"
      },
      "t_mapping(t_bytes32,t_struct(RoleData)253_storage)": {
        "encoding": "mapping",
        "key": "t_bytes32",
        "label": "mapping(bytes32 => struct AccessControlUpgradeable.RoleData)",
        "numberOfBytes": "32",
        "value": "t_struct(RoleData)253_storage"
      },
      "t_mapping(t_bytes32,t_uint256)": {
        "encoding": "mapping",
        "key": "t_bytes32",
        "label": "mapping(bytes32 => uint256)",
        "numberOfBytes": "32",
        "value": "t_uint256"
      },
      "t_mapping(t_string_memory_ptr,t_struct(GatewayDetails)6448_storage)": {
        "encoding": "mapping",
        "key": "t_string_memory_ptr",
        "label": "mapping(string => struct GatewayRegistryStateV2.GatewayDetails)",
        "numberOfBytes": "32",
        "value": "t_struct(GatewayDetails)6448_storage"
      },
      "t_mapping(t_string_memory_ptr,t_uint256)": {
        "encoding": "mapping",
        "key": "t_string_memory_ptr",
        "label": "mapping(string => uint256)",
        "numberOfBytes": "32",
        "value": "t_uint256"
      },
      "t_string_memory_ptr": {
        "encoding": "bytes",
        "label": "string",
        "numberOfBytes": "32"
      },
      "t_string_storage": {
        "encoding": "bytes",
        "label": "string",
        "numberOfBytes": "32"
      },
      "t_struct(AddressSet)2568_storage": {
        "encoding": "inplace",
        "label": "struct EnumerableSetUpgradeable.AddressSet",
        "members": [
          {
            "astId": 2567,
            "contract": "src/GatewayRegistry/GatewayRegistry.sol:GatewayRegistryV2",
            "label": "_inner",
            "offset": 0,
            "slot": "0",
            "type": "t_struct(Set)2267_storage"
          }
        ],
        "numberOfBytes": "64"
      },
      "t_struct(GatewayDetails)6448_storage": {
        "encoding": "inplace",
        "label": "struct GatewayRegistryStateV2.GatewayDetails",
        "members": [
          {
            "astId": 6445,
            "contract": "src/GatewayRegistry/GatewayRegistry.sol:GatewayRegistryV2",
            "label": "gateway",
            "offset": 0,
            "slot": "0",
            "type": "t_address"
          },
          {
            "astId": 6447,
            "contract": "src/GatewayRegistry/GatewayRegistry.sol:GatewayRegistryV2",
            "label": "token",
            "offset": 0,
            "slot": "1",
            "type": "t_address"
          }
        ],
        "numberOfBytes": "64"
      },
      "t_struct(RoleData)253_storage": {
        "encoding": "inplace",
        "label": "struct AccessControlUpgradeable.RoleData",
        "members": [
          {
            "astId": 250,
            "contract": "src/GatewayRegistry/GatewayRegistry.sol:GatewayRegistryV2",
            "label": "members",
            "offset": 0,
            "slot": "0",
            "type": "t_mapping(t_address,t_bool)"
          },
          {
            "astId": 252,
            "contract": "src/GatewayRegistry/GatewayRegistry.sol:GatewayRegistryV2",
            "label": "adminRole",
            "offset": 0,
            "slot": "1",
            "type": "t_bytes32"
          }
        ],
        "numberOfBytes": "64"
      },
      "t_struct(Set)2267_storage": {
        "encoding": "inplace",
        "label": "struct EnumerableSetUpgradeable.Set",
        "members": [
          {
            "astId": 2262,
            "contract": "src/GatewayRegistry/GatewayRegistry.sol:GatewayRegistryV2",
            "label": "_values",
            "offset": 0,
            "slot": "0",
            "type": "t_array(t_bytes32)dyn_storage"
          },
          {
            "astId": 2266,
            "contract": "src/GatewayRegistry/GatewayRegistry.sol:GatewayRegistryV2",
            "label": "_indexes",
            "offset": 0,
            "slot": "1",
            "type": "t_mapping(t_bytes32,t_uint256)"
          }
        ],
        "numberOfBytes": "64"
      },
      "t_struct(Set)7808_storage": {
        "encoding": "inplace",
        "label": "struct StringSet.Set",
        "members": [
          {
            "astId": 7803,
            "contract": "src/GatewayRegistry/GatewayRegistry.sol:GatewayRegistryV2",
            "label": "_values",
            "offset": 0,
            "slot": "0",
            "type": "t_array(t_string_storage)dyn_storage"
          },
          {
            "astId": 7807,
            "contract": "src/GatewayRegistry/GatewayRegistry.sol:GatewayRegistryV2",
            "label": "_indexes",
            "offset": 0,
            "slot": "1",
            "type": "t_mapping(t_string_memory_ptr,t_uint256)"
          }
        ],
        "numberOfBytes": "64"
      },
      "t_uint256": {
        "encoding": "inplace",
        "label": "uint256",
        "numberOfBytes": "32"
      }
    }
  }
}