{
  "address": "0x1d902aC2e17788528678b48d0F832C338FeE7084",
  "abi": [
    {
      "anonymous": false,
      "inputs": [
        {
          "indexed": false,
          "internalType": "string",
          "name": "_asset",
          "type": "string"
        },
        {
          "indexed": false,
          "internalType": "bytes32",
          "name": "_selectorHash",
          "type": "bytes32"
        }
      ],
      "name": "LogAssetUpdated",
      "type": "event"
    },
    {
      "anonymous": false,
      "inputs": [
        {
          "indexed": false,
          "internalType": "string",
          "name": "_chain",
          "type": "string"
        },
        {
          "indexed": false,
          "internalType": "bytes32",
          "name": "_selectorHash",
          "type": "bytes32"
        }
      ],
      "name": "LogChainUpdated",
      "type": "event"
    },
    {
      "anonymous": false,
      "inputs": [
        {
          "indexed": false,
          "internalType": "string",
          "name": "recipientAddress",
          "type": "string"
        },
        {
          "indexed": false,
          "internalType": "string",
          "name": "recipientChain",
          "type": "string"
        },
        {
          "indexed": false,
          "internalType": "bytes",
          "name": "recipientPayload",
          "type": "bytes"
        },
        {
          "indexed": false,
          "internalType": "uint256",
          "name": "amount",
          "type": "uint256"
        },
        {
          "indexed": true,
          "internalType": "uint256",
          "name": "lockNonce",
          "type": "uint256"
        },
        {
          "indexed": true,
          "internalType": "string",
          "name": "recipientAddressIndexed",
          "type": "string"
        },
        {
          "indexed": true,
          "internalType": "string",
          "name": "recipientChainIndexed",
          "type": "string"
        }
      ],
      "name": "LogLockToChain",
      "type": "event"
    },
    {
      "anonymous": false,
      "inputs": [
        {
          "indexed": true,
          "internalType": "address",
          "name": "_newPreviousGateway",
          "type": "address"
        }
      ],
      "name": "LogPreviousGatewayUpdated",
      "type": "event"
    },
    {
      "anonymous": false,
      "inputs": [
        {
          "indexed": true,
          "internalType": "address",
          "name": "recipient",
          "type": "address"
        },
        {
          "indexed": false,
          "internalType": "uint256",
          "name": "amount",
          "type": "uint256"
        },
        {
          "indexed": true,
          "internalType": "bytes32",
          "name": "sigHash",
          "type": "bytes32"
        },
        {
          "indexed": true,
          "internalType": "bytes32",
          "name": "nHash",
          "type": "bytes32"
        }
      ],
      "name": "LogRelease",
      "type": "event"
    },
    {
      "anonymous": false,
      "inputs": [
        {
          "indexed": true,
          "internalType": "contract ISignatureVerifier",
          "name": "_newSignatureVerifier",
          "type": "address"
        }
      ],
      "name": "LogSignatureVerifierUpdated",
      "type": "event"
    },
    {
      "anonymous": false,
      "inputs": [
        {
          "indexed": true,
          "internalType": "address",
          "name": "_newToken",
          "type": "address"
        }
      ],
      "name": "LogTokenUpdated",
      "type": "event"
    },
    {
      "anonymous": false,
      "inputs": [
        {
          "indexed": true,
          "internalType": "address",
          "name": "previousOwner",
          "type": "address"
        },
        {
          "indexed": true,
          "internalType": "address",
          "name": "newOwner",
          "type": "address"
        }
      ],
      "name": "OwnershipTransferred",
      "type": "event"
    },
    {
      "inputs": [
        {
          "internalType": "string",
          "name": "chain_",
          "type": "string"
        },
        {
          "internalType": "string",
          "name": "asset_",
          "type": "string"
        },
        {
          "internalType": "address",
          "name": "signatureVerifier_",
          "type": "address"
        },
        {
          "internalType": "address",
          "name": "token_",
          "type": "address"
        }
      ],
      "name": "__GatewayStateManager_init",
      "outputs": [],
      "stateMutability": "nonpayable",
      "type": "function"
    },
    {
      "inputs": [
        {
          "internalType": "string",
          "name": "chain_",
          "type": "string"
        },
        {
          "internalType": "string",
          "name": "asset_",
          "type": "string"
        },
        {
          "internalType": "address",
          "name": "signatureVerifier_",
          "type": "address"
        },
        {
          "internalType": "address",
          "name": "token",
          "type": "address"
        }
      ],
      "name": "__LockGateway_init",
      "outputs": [],
      "stateMutability": "nonpayable",
      "type": "function"
    },
    {
      "inputs": [
        {
          "internalType": "bytes32",
          "name": "",
          "type": "bytes32"
        }
      ],
      "name": "_status",
      "outputs": [
        {
          "internalType": "bool",
          "name": "",
          "type": "bool"
        }
      ],
      "stateMutability": "view",
      "type": "function"
    },
    {
      "inputs": [],
      "name": "asset",
      "outputs": [
        {
          "internalType": "string",
          "name": "",
          "type": "string"
        }
      ],
      "stateMutability": "view",
      "type": "function"
    },
    {
      "inputs": [],
      "name": "chain",
      "outputs": [
        {
          "internalType": "string",
          "name": "",
          "type": "string"
        }
      ],
      "stateMutability": "view",
      "type": "function"
    },
    {
      "inputs": [
        {
          "internalType": "string",
          "name": "recipientAddress_",
          "type": "string"
        },
        {
          "internalType": "string",
          "name": "recipientChain_",
          "type": "string"
        },
        {
          "internalType": "bytes",
          "name": "recipientPayload_",
          "type": "bytes"
        },
        {
          "internalType": "uint256",
          "name": "amount_",
          "type": "uint256"
        }
      ],
      "name": "lock",
      "outputs": [
        {
          "internalType": "uint256",
          "name": "",
          "type": "uint256"
        }
      ],
      "stateMutability": "nonpayable",
      "type": "function"
    },
    {
      "inputs": [],
      "name": "nextN",
      "outputs": [
        {
          "internalType": "uint256",
          "name": "",
          "type": "uint256"
        }
      ],
      "stateMutability": "view",
      "type": "function"
    },
    {
      "inputs": [],
      "name": "owner",
      "outputs": [
        {
          "internalType": "address",
          "name": "",
          "type": "address"
        }
      ],
      "stateMutability": "view",
      "type": "function"
    },
    {
      "inputs": [],
      "name": "previousGateway",
      "outputs": [
        {
          "internalType": "address",
          "name": "",
          "type": "address"
        }
      ],
      "stateMutability": "view",
      "type": "function"
    },
    {
      "inputs": [
        {
          "internalType": "bytes32",
          "name": "pHash_",
          "type": "bytes32"
        },
        {
          "internalType": "uint256",
          "name": "amount_",
          "type": "uint256"
        },
        {
          "internalType": "bytes32",
          "name": "nHash_",
          "type": "bytes32"
        },
        {
          "internalType": "bytes",
          "name": "sig_",
          "type": "bytes"
        }
      ],
      "name": "release",
      "outputs": [
        {
          "internalType": "uint256",
          "name": "",
          "type": "uint256"
        }
      ],
      "stateMutability": "nonpayable",
      "type": "function"
    },
    {
      "inputs": [],
      "name": "renounceOwnership",
      "outputs": [],
      "stateMutability": "nonpayable",
      "type": "function"
    },
    {
      "inputs": [],
      "name": "selectorHash",
      "outputs": [
        {
          "internalType": "bytes32",
          "name": "",
          "type": "bytes32"
        }
      ],
      "stateMutability": "view",
      "type": "function"
    },
    {
      "inputs": [],
      "name": "signatureVerifier",
      "outputs": [
        {
          "internalType": "contract ISignatureVerifier",
          "name": "",
          "type": "address"
        }
      ],
      "stateMutability": "view",
      "type": "function"
    },
    {
      "inputs": [
        {
          "internalType": "bytes32",
          "name": "hash_",
          "type": "bytes32"
        }
      ],
      "name": "status",
      "outputs": [
        {
          "internalType": "bool",
          "name": "",
          "type": "bool"
        }
      ],
      "stateMutability": "view",
      "type": "function"
    },
    {
      "inputs": [],
      "name": "token",
      "outputs": [
        {
          "internalType": "address",
          "name": "",
          "type": "address"
        }
      ],
      "stateMutability": "view",
      "type": "function"
    },
    {
      "inputs": [
        {
          "internalType": "address",
          "name": "newOwner",
          "type": "address"
        }
      ],
      "name": "transferOwnership",
      "outputs": [],
      "stateMutability": "nonpayable",
      "type": "function"
    },
    {
      "inputs": [
        {
          "internalType": "string",
          "name": "nextAsset_",
          "type": "string"
        }
      ],
      "name": "updateAsset",
      "outputs": [],
      "stateMutability": "nonpayable",
      "type": "function"
    },
    {
      "inputs": [
        {
          "internalType": "string",
          "name": "nextChain_",
          "type": "string"
        }
      ],
      "name": "updateChain",
      "outputs": [],
      "stateMutability": "nonpayable",
      "type": "function"
    },
    {
      "inputs": [
        {
          "internalType": "address",
          "name": "nextPreviousGateway_",
          "type": "address"
        }
      ],
      "name": "updatePreviousGateway",
      "outputs": [],
      "stateMutability": "nonpayable",
      "type": "function"
    },
    {
      "inputs": [
        {
          "internalType": "contract ISignatureVerifier",
          "name": "nextSignatureVerifier_",
          "type": "address"
        }
      ],
      "name": "updateSignatureVerifier",
      "outputs": [],
      "stateMutability": "nonpayable",
      "type": "function"
    },
    {
      "inputs": [
        {
          "internalType": "address",
          "name": "nextToken_",
          "type": "address"
        }
      ],
      "name": "updateToken",
      "outputs": [],
      "stateMutability": "nonpayable",
      "type": "function"
    }
  ],
  "transactionHash": "0x437fdce1309b8c7c361b42b9cefce0c1f755d3d7c05bc36a95b2bfc61d9ed4e2",
  "args": [],
  "solcInputHash": "cd16daf0061bcc045fc96aa81722133b",
  "bytecode": "0x608060405234801561001057600080fd5b506137eb806100206000396000f3fe608060405234801561001057600080fd5b50600436106101375760003560e01c80639cffc715116100b8578063c763e5a11161007c578063c763e5a114610312578063ca9d953214610330578063d489dc6c14610360578063f2fde38b1461037e578063fc0c546a1461039a578063fde919f6146103b857610137565b80639cffc71514610270578063aa4df9ad146102a0578063aae8fdf0146102be578063b2f2be9b146102da578063c54216b4146102f657610137565b80635667981b116100ff5780635667981b146101e0578063715018a6146101fc5780637ad3def21461020657806385e1fd34146102225780638da5cb5b1461025257610137565b8063205066421461013c578063297629761461015857806338d52e0f146101765780635266ba0c1461019457806352ad0d5e146101b0575b600080fd5b61015660048036038101906101519190612610565b6103d6565b005b6101606104e3565b60405161016d9190612c61565b60405180910390f35b61017e6104e9565b60405161018b9190612d1a565b60405180910390f35b6101ae60048036038101906101a9919061248c565b610577565b005b6101ca60048036038101906101c591906124e6565b6106ea565b6040516101d79190612c46565b60405180910390f35b6101fa60048036038101906101f59190612596565b61082d565b005b6102046109a0565b005b610220600480360381019061021b919061248c565b610a28565b005b61023c600480360381019061023791906124e6565b610b9b565b6040516102499190612c46565b60405180910390f35b61025a610bbb565b6040516102679190612bcb565b60405180910390f35b61028a60048036038101906102859190612513565b610be5565b6040516102979190612fa6565b60405180910390f35b6102a8610e4d565b6040516102b59190612fa6565b60405180910390f35b6102d860048036038101906102d391906125c3565b610e57565b005b6102f460048036038101906102ef9190612610565b611161565b005b610310600480360381019061030b91906125c3565b611256565b005b61031a611560565b6040516103279190612d1a565b60405180910390f35b61034a600480360381019061034591906126b7565b6115ee565b6040516103579190612fa6565b60405180910390f35b610368611718565b6040516103759190612bcb565b60405180910390f35b6103986004803603810190610393919061248c565b61173e565b005b6103a2611836565b6040516103af9190612bcb565b60405180910390f35b6103c061185c565b6040516103cd9190612cff565b60405180910390f35b600060019054906101000a900460ff16806103fc575060008054906101000a900460ff16155b61043b576040517f08c379a000000000000000000000000000000000000000000000000000000000815260040161043290612ea6565b60405180910390fd5b60008060019054906101000a900460ff16159050801561048b576001600060016101000a81548160ff02191690831515021790555060016000806101000a81548160ff0219169083151502179055505b610493611882565b61049d8787610e57565b6104a78585611256565b6104b08361082d565b6104b982610a28565b80156104da5760008060016101000a81548160ff0219169083151502179055505b50505050505050565b60675481565b606680546104f690613211565b80601f016020809104026020016040519081016040528092919081815260200182805461052290613211565b801561056f5780601f106105445761010080835404028352916020019161056f565b820191906000526020600020905b81548152906001019060200180831161055257829003601f168201915b505050505081565b61057f61196b565b73ffffffffffffffffffffffffffffffffffffffff1661059d610bbb565b73ffffffffffffffffffffffffffffffffffffffff16146105f3576040517f08c379a00000000000000000000000000000000000000000000000000000000081526004016105ea90612ec6565b60405180910390fd5b600073ffffffffffffffffffffffffffffffffffffffff168173ffffffffffffffffffffffffffffffffffffffff161415610663576040517f08c379a000000000000000000000000000000000000000000000000000000000815260040161065a90612e86565b60405180910390fd5b80606b60006101000a81548173ffffffffffffffffffffffffffffffffffffffff021916908373ffffffffffffffffffffffffffffffffffffffff1602179055508073ffffffffffffffffffffffffffffffffffffffff167f092a7f3d3a91b47e57583d808f4454c082a9c49b2582f836f5a301e982a2d04d60405160405180910390a250565b60006068600083815260200190815260200160002060009054906101000a900460ff161561071b5760019050610828565b600073ffffffffffffffffffffffffffffffffffffffff16606b60009054906101000a900473ffffffffffffffffffffffffffffffffffffffff1673ffffffffffffffffffffffffffffffffffffffff161461082357606b60009054906101000a900473ffffffffffffffffffffffffffffffffffffffff1673ffffffffffffffffffffffffffffffffffffffff166385e1fd34836040518263ffffffff1660e01b81526004016107cc9190612c61565b60206040518083038186803b1580156107e457600080fd5b505afa1580156107f8573d6000803e3d6000fd5b505050506040513d601f19601f8201168201806040525081019061081c91906124b9565b9050610828565b600090505b919050565b61083561196b565b73ffffffffffffffffffffffffffffffffffffffff16610853610bbb565b73ffffffffffffffffffffffffffffffffffffffff16146108a9576040517f08c379a00000000000000000000000000000000000000000000000000000000081526004016108a090612ec6565b60405180910390fd5b600073ffffffffffffffffffffffffffffffffffffffff168173ffffffffffffffffffffffffffffffffffffffff161415610919576040517f08c379a000000000000000000000000000000000000000000000000000000000815260040161091090612f86565b60405180910390fd5b80606a60006101000a81548173ffffffffffffffffffffffffffffffffffffffff021916908373ffffffffffffffffffffffffffffffffffffffff1602179055508073ffffffffffffffffffffffffffffffffffffffff167fb57359628f7b44e9842ff204fb5700f84d8c4f9c3fc9dae13e7a1aab8ed164f760405160405180910390a250565b6109a861196b565b73ffffffffffffffffffffffffffffffffffffffff166109c6610bbb565b73ffffffffffffffffffffffffffffffffffffffff1614610a1c576040517f08c379a0000000000000000000000000000000000000000000000000000000008152600401610a1390612ec6565b60405180910390fd5b610a266000611973565b565b610a3061196b565b73ffffffffffffffffffffffffffffffffffffffff16610a4e610bbb565b73ffffffffffffffffffffffffffffffffffffffff1614610aa4576040517f08c379a0000000000000000000000000000000000000000000000000000000008152600401610a9b90612ec6565b60405180910390fd5b600073ffffffffffffffffffffffffffffffffffffffff168173ffffffffffffffffffffffffffffffffffffffff161415610b14576040517f08c379a0000000000000000000000000000000000000000000000000000000008152600401610b0b90612e66565b60405180910390fd5b80606960006101000a81548173ffffffffffffffffffffffffffffffffffffffff021916908373ffffffffffffffffffffffffffffffffffffffff1602179055508073ffffffffffffffffffffffffffffffffffffffff167f02dec22a3d1e8f9cdc0c7cd17ecee187f635788c40755be0a72dcd86a05e564d60405160405180910390a250565b60686020528060005260406000206000915054906101000a900460ff1681565b6000603360009054906101000a900473ffffffffffffffffffffffffffffffffffffffff16905090565b600080610bf786866067543388611a39565b905060001515610c06826106ea565b1515148015610c21575060001515610c1d856106ea565b1515145b610c60576040517f08c379a0000000000000000000000000000000000000000000000000000000008152600401610c5790612f66565b60405180910390fd5b606a60009054906101000a900473ffffffffffffffffffffffffffffffffffffffff1673ffffffffffffffffffffffffffffffffffffffff1663daca6f7882856040518363ffffffff1660e01b8152600401610cbd929190612c7c565b60206040518083038186803b158015610cd557600080fd5b505afa158015610ce9573d6000803e3d6000fd5b505050506040513d601f19601f82011682018060405250810190610d0d91906124b9565b610d4c576040517f08c379a0000000000000000000000000000000000000000000000000000000008152600401610d4390612ee6565b60405180910390fd5b60016068600083815260200190815260200160002060006101000a81548160ff02191690831515021790555060016068600086815260200190815260200160002060006101000a81548160ff021916908315150217905550610df13386606960009054906101000a900473ffffffffffffffffffffffffffffffffffffffff1673ffffffffffffffffffffffffffffffffffffffff16611a759092919063ffffffff16565b83813373ffffffffffffffffffffffffffffffffffffffff167f9a0e734b1a87920f1af4cb8617268e9e5979afa7f36a620a4f90206f0ca57d4c88604051610e399190612fa6565b60405180910390a484915050949350505050565b6000606c54905090565b610e5f61196b565b73ffffffffffffffffffffffffffffffffffffffff16610e7d610bbb565b73ffffffffffffffffffffffffffffffffffffffff1614610ed3576040517f08c379a0000000000000000000000000000000000000000000000000000000008152600401610eca90612ec6565b60405180910390fd5b610f2082828080601f016020809104026020016040519081016040528093929190818152602001838380828437600081840152601f19601f82011690508083019250505050505050611afb565b610f5f576040517f08c379a0000000000000000000000000000000000000000000000000000000008152600401610f5690612f46565b60405180910390fd5b610fac82828080601f016020809104026020016040519081016040528093929190818152602001838380828437600081840152601f19601f82011690508083019250505050505050611b08565b610feb576040517f08c379a0000000000000000000000000000000000000000000000000000000008152600401610fe290612dc6565b60405180910390fd5b818160659190610ffc929190612235565b5061111b6066805461100d90613211565b80601f016020809104026020016040519081016040528092919081815260200182805461103990613211565b80156110865780601f1061105b57610100808354040283529160200191611086565b820191906000526020600020905b81548152906001019060200180831161106957829003601f168201915b50505050506065805461109890613211565b80601f01602080910402602001604051908101604052809291908181526020018280546110c490613211565b80156111115780601f106110e657610100808354040283529160200191611111565b820191906000526020600020905b8154815290600101906020018083116110f457829003601f168201915b5050505050611bc2565b6067819055507f4dc1740772ca26480ca22d412de18818650c980e3aef84a3ca49cbe4fa4ed8806065606754604051611155929190612d96565b60405180910390a15050565b600060019054906101000a900460ff1680611187575060008054906101000a900460ff16155b6111c6576040517f08c379a00000000000000000000000000000000000000000000000000000000081526004016111bd90612ea6565b60405180910390fd5b60008060019054906101000a900460ff161590508015611216576001600060016101000a81548160ff02191690831515021790555060016000806101000a81548160ff0219169083151502179055505b61121e611882565b61122c8787878787876103d6565b801561124d5760008060016101000a81548160ff0219169083151502179055505b50505050505050565b61125e61196b565b73ffffffffffffffffffffffffffffffffffffffff1661127c610bbb565b73ffffffffffffffffffffffffffffffffffffffff16146112d2576040517f08c379a00000000000000000000000000000000000000000000000000000000081526004016112c990612ec6565b60405180910390fd5b61131f82828080601f016020809104026020016040519081016040528093929190818152602001838380828437600081840152601f19601f82011690508083019250505050505050611afb565b61135e576040517f08c379a000000000000000000000000000000000000000000000000000000000815260040161135590612e06565b60405180910390fd5b6113ab82828080601f016020809104026020016040519081016040528093929190818152602001838380828437600081840152601f19601f82011690508083019250505050505050611b08565b6113ea576040517f08c379a00000000000000000000000000000000000000000000000000000000081526004016113e190612dc6565b60405180910390fd5b8181606691906113fb929190612235565b5061151a6066805461140c90613211565b80601f016020809104026020016040519081016040528092919081815260200182805461143890613211565b80156114855780601f1061145a57610100808354040283529160200191611485565b820191906000526020600020905b81548152906001019060200180831161146857829003601f168201915b50505050506065805461149790613211565b80601f01602080910402602001604051908101604052809291908181526020018280546114c390613211565b80156115105780601f106114e557610100808354040283529160200191611510565b820191906000526020600020905b8154815290600101906020018083116114f357829003601f168201915b5050505050611bc2565b6067819055507f2e7c1f9bcc3b09d8e05594ab5d17b6c9b15b24cd506c5212f051f22990d081316066606754604051611554929190612d96565b60405180910390a15050565b6065805461156d90613211565b80601f016020809104026020016040519081016040528092919081815260200182805461159990613211565b80156115e65780601f106115bb576101008083540402835291602001916115e6565b820191906000526020600020905b8154815290600101906020018083116115c957829003601f168201915b505050505081565b60008085511415611634576040517f08c379a000000000000000000000000000000000000000000000000000000000815260040161162b90612e26565b60405180910390fd5b6000611685333085606960009054906101000a900473ffffffffffffffffffffffffffffffffffffffff1673ffffffffffffffffffffffffffffffffffffffff16611bf5909392919063ffffffff16565b90506000606c5490508560405161169c9190612b85565b6040518091039020876040516116b29190612b85565b6040518091039020827fc06237815e14163806cc5c2447bc785b639c2f8b1f3f23872f226e5c31adb9958a8a8a886040516116f09493929190612d3c565b60405180910390a460018161170591906130ab565b606c819055508392505050949350505050565b606b60009054906101000a900473ffffffffffffffffffffffffffffffffffffffff1681565b61174661196b565b73ffffffffffffffffffffffffffffffffffffffff16611764610bbb565b73ffffffffffffffffffffffffffffffffffffffff16146117ba576040517f08c379a00000000000000000000000000000000000000000000000000000000081526004016117b190612ec6565b60405180910390fd5b600073ffffffffffffffffffffffffffffffffffffffff168173ffffffffffffffffffffffffffffffffffffffff16141561182a576040517f08c379a000000000000000000000000000000000000000000000000000000000815260040161182190612de6565b60405180910390fd5b61183381611973565b50565b606960009054906101000a900473ffffffffffffffffffffffffffffffffffffffff1681565b606a60009054906101000a900473ffffffffffffffffffffffffffffffffffffffff1681565b600060019054906101000a900460ff16806118a8575060008054906101000a900460ff16155b6118e7576040517f08c379a00000000000000000000000000000000000000000000000000000000081526004016118de90612ea6565b60405180910390fd5b60008060019054906101000a900460ff161590508015611937576001600060016101000a81548160ff02191690831515021790555060016000806101000a81548160ff0219169083151502179055505b61193f611d64565b611947611e3d565b80156119685760008060016101000a81548160ff0219169083151502179055505b50565b600033905090565b6000603360009054906101000a900473ffffffffffffffffffffffffffffffffffffffff16905081603360006101000a81548173ffffffffffffffffffffffffffffffffffffffff021916908373ffffffffffffffffffffffffffffffffffffffff1602179055508173ffffffffffffffffffffffffffffffffffffffff168173ffffffffffffffffffffffffffffffffffffffff167f8be0079c531659141344cd1fd0a4f28419497f9722a3daafe3b4186f6b6457e060405160405180910390a35050565b60008585858585604051602001611a54959493929190612cac565b60405160208183030381529060405280519060200120905095945050505050565b611af68363a9059cbb60e01b8484604051602401611a94929190612c1d565b604051602081830303815290604052907bffffffffffffffffffffffffffffffffffffffffffffffffffffffff19166020820180517bffffffffffffffffffffffffffffffffffffffffffffffffffffffff8381831617835250505050611f26565b505050565b6000808251119050919050565b600080600090505b8251811015611bb7576000838281518110611b2e57611b2d61331b565b5b602001015160f81c60f81b60f81c905060418160ff1610158015611b565750605a8160ff1611155b80611b75575060618160ff1610158015611b745750607a8160ff1611155b5b80611b94575060308160ff1610158015611b93575060398160ff1611155b5b611ba357600092505050611bbd565b508080611baf90613274565b915050611b10565b50600190505b919050565b60008282604051602001611bd7929190612b9c565b60405160208183030381529060405280519060200120905092915050565b6000808573ffffffffffffffffffffffffffffffffffffffff166370a08231856040518263ffffffff1660e01b8152600401611c319190612bcb565b60206040518083038186803b158015611c4957600080fd5b505afa158015611c5d573d6000803e3d6000fd5b505050506040513d601f19601f82011682018060405250810190611c819190612772565b9050611cb08585858973ffffffffffffffffffffffffffffffffffffffff16611fed909392919063ffffffff16565b60008673ffffffffffffffffffffffffffffffffffffffff166370a08231866040518263ffffffff1660e01b8152600401611ceb9190612bcb565b60206040518083038186803b158015611d0357600080fd5b505afa158015611d17573d6000803e3d6000fd5b505050506040513d601f19601f82011682018060405250810190611d3b9190612772565b905060008282611d4b9190613101565b9050611d578582612076565b9350505050949350505050565b600060019054906101000a900460ff1680611d8a575060008054906101000a900460ff16155b611dc9576040517f08c379a0000000000000000000000000000000000000000000000000000000008152600401611dc090612ea6565b60405180910390fd5b60008060019054906101000a900460ff161590508015611e19576001600060016101000a81548160ff02191690831515021790555060016000806101000a81548160ff0219169083151502179055505b8015611e3a5760008060016101000a81548160ff0219169083151502179055505b50565b600060019054906101000a900460ff1680611e63575060008054906101000a900460ff16155b611ea2576040517f08c379a0000000000000000000000000000000000000000000000000000000008152600401611e9990612ea6565b60405180910390fd5b60008060019054906101000a900460ff161590508015611ef2576001600060016101000a81548160ff02191690831515021790555060016000806101000a81548160ff0219169083151502179055505b611f02611efd61196b565b611973565b8015611f235760008060016101000a81548160ff0219169083151502179055505b50565b6000611f88826040518060400160405280602081526020017f5361666545524332303a206c6f772d6c6576656c2063616c6c206661696c65648152508573ffffffffffffffffffffffffffffffffffffffff1661208f9092919063ffffffff16565b9050600081511115611fe85780806020019051810190611fa891906124b9565b611fe7576040517f08c379a0000000000000000000000000000000000000000000000000000000008152600401611fde90612f26565b60405180910390fd5b5b505050565b612070846323b872dd60e01b85858560405160240161200e93929190612be6565b604051602081830303815290604052907bffffffffffffffffffffffffffffffffffffffffffffffffffffffff19166020820180517bffffffffffffffffffffffffffffffffffffffffffffffffffffffff8381831617835250505050611f26565b50505050565b60008183106120855781612087565b825b905092915050565b606061209e84846000856120a7565b90509392505050565b6060824710156120ec576040517f08c379a00000000000000000000000000000000000000000000000000000000081526004016120e390612e46565b60405180910390fd5b6120f5856121bb565b612134576040517f08c379a000000000000000000000000000000000000000000000000000000000815260040161212b90612f06565b60405180910390fd5b6000808673ffffffffffffffffffffffffffffffffffffffff16858760405161215d9190612b6e565b60006040518083038185875af1925050503d806000811461219a576040519150601f19603f3d011682016040523d82523d6000602084013e61219f565b606091505b50915091506121af8282866121ce565b92505050949350505050565b600080823b905060008111915050919050565b606083156121de5782905061222e565b6000835111156121f15782518084602001fd5b816040517f08c379a00000000000000000000000000000000000000000000000000000000081526004016122259190612d1a565b60405180910390fd5b9392505050565b82805461224190613211565b90600052602060002090601f01602090048101928261226357600085556122aa565b82601f1061227c57803560ff19168380011785556122aa565b828001600101855582156122aa579182015b828111156122a957823582559160200191906001019061228e565b5b5090506122b791906122bb565b5090565b5b808211156122d45760008160009055506001016122bc565b5090565b60006122eb6122e684612fe6565b612fc1565b90508281526020810184848401111561230757612306613388565b5b6123128482856131cf565b509392505050565b600061232d61232884613017565b612fc1565b90508281526020810184848401111561234957612348613388565b5b6123548482856131cf565b509392505050565b60008135905061236b81613742565b92915050565b60008151905061238081613759565b92915050565b60008135905061239581613770565b92915050565b600082601f8301126123b0576123af61337e565b5b81356123c08482602086016122d8565b91505092915050565b6000813590506123d881613787565b92915050565b60008083601f8401126123f4576123f361337e565b5b8235905067ffffffffffffffff81111561241157612410613379565b5b60208301915083600182028301111561242d5761242c613383565b5b9250929050565b600082601f8301126124495761244861337e565b5b813561245984826020860161231a565b91505092915050565b6000813590506124718161379e565b92915050565b6000815190506124868161379e565b92915050565b6000602082840312156124a2576124a1613392565b5b60006124b08482850161235c565b91505092915050565b6000602082840312156124cf576124ce613392565b5b60006124dd84828501612371565b91505092915050565b6000602082840312156124fc576124fb613392565b5b600061250a84828501612386565b91505092915050565b6000806000806080858703121561252d5761252c613392565b5b600061253b87828801612386565b945050602061254c87828801612462565b935050604061255d87828801612386565b925050606085013567ffffffffffffffff81111561257e5761257d61338d565b5b61258a8782880161239b565b91505092959194509250565b6000602082840312156125ac576125ab613392565b5b60006125ba848285016123c9565b91505092915050565b600080602083850312156125da576125d9613392565b5b600083013567ffffffffffffffff8111156125f8576125f761338d565b5b612604858286016123de565b92509250509250929050565b6000806000806000806080878903121561262d5761262c613392565b5b600087013567ffffffffffffffff81111561264b5761264a61338d565b5b61265789828a016123de565b9650965050602087013567ffffffffffffffff81111561267a5761267961338d565b5b61268689828a016123de565b9450945050604061269989828a0161235c565b92505060606126aa89828a0161235c565b9150509295509295509295565b600080600080608085870312156126d1576126d0613392565b5b600085013567ffffffffffffffff8111156126ef576126ee61338d565b5b6126fb87828801612434565b945050602085013567ffffffffffffffff81111561271c5761271b61338d565b5b61272887828801612434565b935050604085013567ffffffffffffffff8111156127495761274861338d565b5b6127558782880161239b565b925050606061276687828801612462565b91505092959194509250565b60006020828403121561278857612787613392565b5b600061279684828501612477565b91505092915050565b6127a881613135565b82525050565b6127b781613147565b82525050565b6127c681613153565b82525050565b60006127d78261305d565b6127e18185613073565b93506127f18185602086016131de565b6127fa81613397565b840191505092915050565b60006128108261305d565b61281a8185613084565b935061282a8185602086016131de565b80840191505092915050565b61283f81613199565b82525050565b600061285082613068565b61285a818561308f565b935061286a8185602086016131de565b61287381613397565b840191505092915050565b600061288982613068565b61289381856130a0565b93506128a38185602086016131de565b80840191505092915050565b600081546128bc81613211565b6128c6818661308f565b945060018216600081146128e157600181146128f357612926565b60ff1983168652602086019350612926565b6128fc85613048565b60005b8381101561291e578154818901526001820191506020810190506128ff565b808801955050505b50505092915050565b600061293c60248361308f565b9150612947826133a8565b604082019050919050565b600061295f60268361308f565b915061296a826133f7565b604082019050919050565b6000612982601d8361308f565b915061298d82613446565b602082019050919050565b60006129a560208361308f565b91506129b08261346f565b602082019050919050565b60006129c860268361308f565b91506129d382613498565b604082019050919050565b60006129eb60168361308f565b91506129f6826134e7565b602082019050919050565b6000612a0e60188361308f565b9150612a1982613510565b602082019050919050565b6000612a31602e8361308f565b9150612a3c82613539565b604082019050919050565b6000612a5460208361308f565b9150612a5f82613588565b602082019050919050565b6000612a77601e8361308f565b9150612a82826135b1565b602082019050919050565b6000612a9a601d8361308f565b9150612aa5826135da565b602082019050919050565b6000612abd6003836130a0565b9150612ac882613603565b600382019050919050565b6000612ae0602a8361308f565b9150612aeb8261362c565b604082019050919050565b6000612b03601d8361308f565b9150612b0e8261367b565b602082019050919050565b6000612b2660248361308f565b9150612b31826136a4565b604082019050919050565b6000612b4960238361308f565b9150612b54826136f3565b604082019050919050565b612b688161318f565b82525050565b6000612b7a8284612805565b915081905092915050565b6000612b91828461287e565b915081905092915050565b6000612ba8828561287e565b9150612bb382612ab0565b9150612bbf828461287e565b91508190509392505050565b6000602082019050612be0600083018461279f565b92915050565b6000606082019050612bfb600083018661279f565b612c08602083018561279f565b612c156040830184612b5f565b949350505050565b6000604082019050612c32600083018561279f565b612c3f6020830184612b5f565b9392505050565b6000602082019050612c5b60008301846127ae565b92915050565b6000602082019050612c7660008301846127bd565b92915050565b6000604082019050612c9160008301856127bd565b8181036020830152612ca381846127cc565b90509392505050565b600060a082019050612cc160008301886127bd565b612cce6020830187612b5f565b612cdb60408301866127bd565b612ce8606083018561279f565b612cf560808301846127bd565b9695505050505050565b6000602082019050612d146000830184612836565b92915050565b60006020820190508181036000830152612d348184612845565b905092915050565b60006080820190508181036000830152612d568187612845565b90508181036020830152612d6a8186612845565b90508181036040830152612d7e81856127cc565b9050612d8d6060830184612b5f565b95945050505050565b60006040820190508181036000830152612db081856128af565b9050612dbf60208301846127bd565b9392505050565b60006020820190508181036000830152612ddf8161292f565b9050919050565b60006020820190508181036000830152612dff81612952565b9050919050565b60006020820190508181036000830152612e1f81612975565b9050919050565b60006020820190508181036000830152612e3f81612998565b9050919050565b60006020820190508181036000830152612e5f816129bb565b9050919050565b60006020820190508181036000830152612e7f816129de565b9050919050565b60006020820190508181036000830152612e9f81612a01565b9050919050565b60006020820190508181036000830152612ebf81612a24565b9050919050565b60006020820190508181036000830152612edf81612a47565b9050919050565b60006020820190508181036000830152612eff81612a6a565b9050919050565b60006020820190508181036000830152612f1f81612a8d565b9050919050565b60006020820190508181036000830152612f3f81612ad3565b9050919050565b60006020820190508181036000830152612f5f81612af6565b9050919050565b60006020820190508181036000830152612f7f81612b19565b9050919050565b60006020820190508181036000830152612f9f81612b3c565b9050919050565b6000602082019050612fbb6000830184612b5f565b92915050565b6000612fcb612fdc565b9050612fd78282613243565b919050565b6000604051905090565b600067ffffffffffffffff8211156130015761300061334a565b5b61300a82613397565b9050602081019050919050565b600067ffffffffffffffff8211156130325761303161334a565b5b61303b82613397565b9050602081019050919050565b60008190508160005260206000209050919050565b600081519050919050565b600081519050919050565b600082825260208201905092915050565b600081905092915050565b600082825260208201905092915050565b600081905092915050565b60006130b68261318f565b91506130c18361318f565b9250827fffffffffffffffffffffffffffffffffffffffffffffffffffffffffffffffff038211156130f6576130f56132bd565b5b828201905092915050565b600061310c8261318f565b91506131178361318f565b92508282101561312a576131296132bd565b5b828203905092915050565b60006131408261316f565b9050919050565b60008115159050919050565b6000819050919050565b600061316882613135565b9050919050565b600073ffffffffffffffffffffffffffffffffffffffff82169050919050565b6000819050919050565b60006131a4826131ab565b9050919050565b60006131b6826131bd565b9050919050565b60006131c88261316f565b9050919050565b82818337600083830152505050565b60005b838110156131fc5780820151818401526020810190506131e1565b8381111561320b576000848401525b50505050565b6000600282049050600182168061322957607f821691505b6020821081141561323d5761323c6132ec565b5b50919050565b61324c82613397565b810181811067ffffffffffffffff8211171561326b5761326a61334a565b5b80604052505050565b600061327f8261318f565b91507fffffffffffffffffffffffffffffffffffffffffffffffffffffffffffffffff8214156132b2576132b16132bd565b5b600182019050919050565b7f4e487b7100000000000000000000000000000000000000000000000000000000600052601160045260246000fd5b7f4e487b7100000000000000000000000000000000000000000000000000000000600052602260045260246000fd5b7f4e487b7100000000000000000000000000000000000000000000000000000000600052603260045260246000fd5b7f4e487b7100000000000000000000000000000000000000000000000000000000600052604160045260246000fd5b600080fd5b600080fd5b600080fd5b600080fd5b600080fd5b600080fd5b6000601f19601f8301169050919050565b7f476174657761793a2073796d626f6c206d75737420626520616c7068616e756d60008201527f6572696300000000000000000000000000000000000000000000000000000000602082015250565b7f4f776e61626c653a206e6577206f776e657220697320746865207a65726f206160008201527f6464726573730000000000000000000000000000000000000000000000000000602082015250565b7f476174657761793a2061737365742063616e277420626520656d707479000000600082015250565b7f4c6f636b476174657761793a20746f206164647265737320697320656d707479600082015250565b7f416464726573733a20696e73756666696369656e742062616c616e636520666f60008201527f722063616c6c0000000000000000000000000000000000000000000000000000602082015250565b7f476174657761793a20696e76616c696420746f6b656e00000000000000000000600082015250565b7f476174657761793a20696e76616c696420616464726573730000000000000000600082015250565b7f496e697469616c697a61626c653a20636f6e747261637420697320616c72656160008201527f647920696e697469616c697a6564000000000000000000000000000000000000602082015250565b7f4f776e61626c653a2063616c6c6572206973206e6f7420746865206f776e6572600082015250565b7f4c6f636b476174657761793a20696e76616c6964207369676e61747572650000600082015250565b7f416464726573733a2063616c6c20746f206e6f6e2d636f6e7472616374000000600082015250565b7f2f746f0000000000000000000000000000000000000000000000000000000000600082015250565b7f5361666545524332303a204552433230206f7065726174696f6e20646964206e60008201527f6f74207375636365656400000000000000000000000000000000000000000000602082015250565b7f476174657761793a20636861696e2063616e277420626520656d707479000000600082015250565b7f4c6f636b476174657761793a207369676e617475726520616c7265616479207360008201527f70656e7400000000000000000000000000000000000000000000000000000000602082015250565b7f476174657761793a20696e76616c6964207369676e617475726520766572696660008201527f6965720000000000000000000000000000000000000000000000000000000000602082015250565b61374b81613135565b811461375657600080fd5b50565b61376281613147565b811461376d57600080fd5b50565b61377981613153565b811461378457600080fd5b50565b6137908161315d565b811461379b57600080fd5b50565b6137a78161318f565b81146137b257600080fd5b5056fea264697066735822122091eba1fac8a00b487df2035b3e289e8a2e1620e47b1d381aeaac2cf1c862bbbe64736f6c63430008070033",
  "devdoc": {
    "kind": "dev",
    "methods": {
      "lock(string,string,bytes,uint256)": {
        "params": {
          "amount_": "The amount of the token being locked, in the asset's        smallest unit. (e.g. satoshis for BTC)",
          "recipientAddress_": "The address to which the locked assets will be        minted to. The address should be a plain-text address, without        decoding to bytes first.",
          "recipientChain_": "The target chain to which the assets are being        moved to.",
          "recipientPayload_": "An optional payload to be passed to the        recipient chain along with the address."
        }
      },
      "owner()": {
        "details": "Returns the address of the current owner."
      },
      "release(bytes32,uint256,bytes32,bytes)": {
        "params": {
          "amount_": "The amount of the token being minted, in its smallest        value. (e.g. satoshis for BTC).",
          "nHash_": "(nonce hash) The hash of the nonce, amount and pHash.",
          "pHash_": "(payload hash) The hash of the payload associated with the        mint.",
          "sig_": "The signature of the hash of the following values:        (pHash, amount, msg.sender, nHash), signed by the mintAuthority."
        }
      },
      "renounceOwnership()": {
        "details": "Leaves the contract without owner. It will not be possible to call `onlyOwner` functions anymore. Can only be called by the current owner. NOTE: Renouncing ownership will leave the contract without an owner, thereby removing any functionality that is only available to the owner."
      },
      "transferOwnership(address)": {
        "details": "Transfers ownership of the contract to a new account (`newOwner`). Can only be called by the current owner."
      },
      "updateAsset(string)": {
        "params": {
          "nextAsset_": "The new asset."
        }
      },
      "updateChain(string)": {
        "params": {
          "nextChain_": "The new chain."
        }
      },
      "updatePreviousGateway(address)": {
        "params": {
          "nextPreviousGateway_": "The new gateway contract's address."
        }
      },
      "updateSignatureVerifier(address)": {
        "params": {
          "nextSignatureVerifier_": "The new verifier contract address."
        }
      },
      "updateToken(address)": {
        "params": {
          "nextToken_": "The new ERC20 token contract's address."
        }
      }
    },
    "version": 1
  },
  "userdoc": {
    "kind": "user",
    "methods": {
      "_status(bytes32)": {
        "notice": "Each signature can only be seen once."
      },
      "lock(string,string,bytes,uint256)": {
        "notice": "burn destroys tokens after taking a fee for the `_feeRecipient`,         allowing the associated assets to be released on their native         chain."
      },
      "release(bytes32,uint256,bytes32,bytes)": {
        "notice": "mint verifies a mint approval signature from RenVM and creates         tokens after taking a fee for the `_feeRecipient`."
      },
      "token()": {
        "notice": "Each Gateway is tied to a specific asset."
      },
      "updateAsset(string)": {
        "notice": "Allow the owner to update the asset."
      },
      "updateChain(string)": {
        "notice": "Allow the owner to update the chain."
      },
      "updatePreviousGateway(address)": {
        "notice": "Allow the owner to update the previous gateway used for backwards compatibility."
      },
      "updateSignatureVerifier(address)": {
        "notice": "Allow the owner to update the signature verifier contract."
      },
      "updateToken(address)": {
        "notice": "Allow the owner to update the ERC20 token contract."
      }
    },
    "notice": "Gateway handles verifying mint and burn requests. A mintAuthority approves new assets to be minted by providing a digital signature. An owner of an asset can request for it to be burnt.",
    "version": 1
  },
  "storageLayout": {
    "storage": [
      {
        "astId": 773,
        "contract": "src/Gateways/LockGateway.sol:LockGatewayV3",
        "label": "_initialized",
        "offset": 0,
        "slot": "0",
        "type": "t_bool"
      },
      {
        "astId": 776,
        "contract": "src/Gateways/LockGateway.sol:LockGatewayV3",
        "label": "_initializing",
        "offset": 1,
        "slot": "0",
        "type": "t_bool"
      },
      {
        "astId": 1994,
        "contract": "src/Gateways/LockGateway.sol:LockGatewayV3",
        "label": "__gap",
        "offset": 0,
        "slot": "1",
        "type": "t_array(t_uint256)50_storage"
      },
      {
        "astId": 653,
        "contract": "src/Gateways/LockGateway.sol:LockGatewayV3",
        "label": "_owner",
        "offset": 0,
        "slot": "51",
        "type": "t_address"
      },
      {
        "astId": 766,
        "contract": "src/Gateways/LockGateway.sol:LockGatewayV3",
        "label": "__gap",
        "offset": 0,
        "slot": "52",
        "type": "t_array(t_uint256)49_storage"
      },
      {
        "astId": 8782,
        "contract": "src/Gateways/LockGateway.sol:LockGatewayV3",
        "label": "chain",
        "offset": 0,
        "slot": "101",
        "type": "t_string_storage"
      },
      {
        "astId": 8784,
        "contract": "src/Gateways/LockGateway.sol:LockGatewayV3",
        "label": "asset",
        "offset": 0,
        "slot": "102",
        "type": "t_string_storage"
      },
      {
        "astId": 8786,
        "contract": "src/Gateways/LockGateway.sol:LockGatewayV3",
        "label": "selectorHash",
        "offset": 0,
        "slot": "103",
        "type": "t_bytes32"
      },
      {
        "astId": 8791,
        "contract": "src/Gateways/LockGateway.sol:LockGatewayV3",
        "label": "_status",
        "offset": 0,
        "slot": "104",
        "type": "t_mapping(t_bytes32,t_bool)"
      },
      {
        "astId": 8794,
        "contract": "src/Gateways/LockGateway.sol:LockGatewayV3",
        "label": "token",
        "offset": 0,
        "slot": "105",
        "type": "t_address"
      },
      {
        "astId": 8797,
        "contract": "src/Gateways/LockGateway.sol:LockGatewayV3",
        "label": "signatureVerifier",
        "offset": 0,
        "slot": "106",
        "type": "t_contract(ISignatureVerifier)9235"
      },
      {
        "astId": 8799,
        "contract": "src/Gateways/LockGateway.sol:LockGatewayV3",
        "label": "previousGateway",
        "offset": 0,
        "slot": "107",
        "type": "t_address"
      },
      {
        "astId": 8801,
        "contract": "src/Gateways/LockGateway.sol:LockGatewayV3",
        "label": "eventNonce",
        "offset": 0,
        "slot": "108",
        "type": "t_uint256"
      },
      {
        "astId": 8805,
        "contract": "src/Gateways/LockGateway.sol:LockGatewayV3",
        "label": "__gap",
        "offset": 0,
        "slot": "109",
        "type": "t_array(t_uint256)43_storage"
      }
    ],
    "types": {
      "t_address": {
        "encoding": "inplace",
        "label": "address",
        "numberOfBytes": "20"
      },
      "t_array(t_uint256)43_storage": {
        "base": "t_uint256",
        "encoding": "inplace",
        "label": "uint256[43]",
        "numberOfBytes": "1376"
      },
      "t_array(t_uint256)49_storage": {
        "base": "t_uint256",
        "encoding": "inplace",
        "label": "uint256[49]",
        "numberOfBytes": "1568"
      },
      "t_array(t_uint256)50_storage": {
        "base": "t_uint256",
        "encoding": "inplace",
        "label": "uint256[50]",
        "numberOfBytes": "1600"
      },
      "t_bool": {
        "encoding": "inplace",
        "label": "bool",
        "numberOfBytes": "1"
      },
      "t_bytes32": {
        "encoding": "inplace",
        "label": "bytes32",
        "numberOfBytes": "32"
      },
      "t_contract(ISignatureVerifier)9235": {
        "encoding": "inplace",
        "label": "contract ISignatureVerifier",
        "numberOfBytes": "20"
      },
      "t_mapping(t_bytes32,t_bool)": {
        "encoding": "mapping",
        "key": "t_bytes32",
        "label": "mapping(bytes32 => bool)",
        "numberOfBytes": "32",
        "value": "t_bool"
      },
      "t_string_storage": {
        "encoding": "bytes",
        "label": "string",
        "numberOfBytes": "32"
      },
      "t_uint256": {
        "encoding": "inplace",
        "label": "uint256",
        "numberOfBytes": "32"
      }
    }
  }
}