{
  "address": "0x13C3C3340EDa31c40797932D4AcB2a0b81380cB3",
  "abi": [
    {
      "anonymous": false,
      "inputs": [
        {
          "indexed": false,
          "internalType": "string",
          "name": "asset",
          "type": "string"
        },
        {
          "indexed": true,
          "internalType": "bytes32",
          "name": "selectorHash",
          "type": "bytes32"
        }
      ],
      "name": "LogAssetUpdated",
      "type": "event"
    },
    {
      "anonymous": false,
      "inputs": [
        {
          "indexed": false,
          "internalType": "string",
          "name": "recipientAddress",
          "type": "string"
        },
        {
          "indexed": false,
          "internalType": "string",
          "name": "recipientChain",
          "type": "string"
        },
        {
          "indexed": false,
          "internalType": "bytes",
          "name": "recipientPayload",
          "type": "bytes"
        },
        {
          "indexed": false,
          "internalType": "uint256",
          "name": "amount",
          "type": "uint256"
        },
        {
          "indexed": true,
          "internalType": "uint256",
          "name": "lockNonce",
          "type": "uint256"
        },
        {
          "indexed": true,
          "internalType": "string",
          "name": "recipientAddressIndexed",
          "type": "string"
        },
        {
          "indexed": true,
          "internalType": "string",
          "name": "recipientChainIndexed",
          "type": "string"
        }
      ],
      "name": "LogLockToChain",
      "type": "event"
    },
    {
      "anonymous": false,
      "inputs": [
        {
          "indexed": true,
          "internalType": "address",
          "name": "oldPreviousGateway",
          "type": "address"
        },
        {
          "indexed": true,
          "internalType": "address",
          "name": "newPreviousGateway",
          "type": "address"
        }
      ],
      "name": "LogPreviousGatewayUpdated",
      "type": "event"
    },
    {
      "anonymous": false,
      "inputs": [
        {
          "indexed": true,
          "internalType": "address",
          "name": "recipient",
          "type": "address"
        },
        {
          "indexed": false,
          "internalType": "uint256",
          "name": "amount",
          "type": "uint256"
        },
        {
          "indexed": true,
          "internalType": "bytes32",
          "name": "sigHash",
          "type": "bytes32"
        },
        {
          "indexed": true,
          "internalType": "bytes32",
          "name": "nHash",
          "type": "bytes32"
        }
      ],
      "name": "LogRelease",
      "type": "event"
    },
    {
      "anonymous": false,
      "inputs": [
        {
          "indexed": true,
          "internalType": "address",
          "name": "oldSignatureVerifier",
          "type": "address"
        },
        {
          "indexed": true,
          "internalType": "address",
          "name": "newSignatureVerifier",
          "type": "address"
        }
      ],
      "name": "LogSignatureVerifierUpdated",
      "type": "event"
    },
    {
      "anonymous": false,
      "inputs": [
        {
          "indexed": true,
          "internalType": "address",
          "name": "token",
          "type": "address"
        }
      ],
      "name": "LogTokenUpdated",
      "type": "event"
    },
    {
      "inputs": [],
      "name": "NAME",
      "outputs": [
        {
          "internalType": "string",
          "name": "",
          "type": "string"
        }
      ],
      "stateMutability": "view",
      "type": "function"
    },
    {
      "inputs": [
        {
          "internalType": "string",
          "name": "asset_",
          "type": "string"
        },
        {
          "internalType": "address",
          "name": "signatureVerifier_",
          "type": "address"
        },
        {
          "internalType": "address",
          "name": "token_",
          "type": "address"
        }
      ],
      "name": "__GatewayStateManager_init",
      "outputs": [],
      "stateMutability": "nonpayable",
      "type": "function"
    },
    {
      "inputs": [
        {
          "internalType": "string",
          "name": "asset_",
          "type": "string"
        },
        {
          "internalType": "address",
          "name": "signatureVerifier_",
          "type": "address"
        },
        {
          "internalType": "address",
          "name": "token_",
          "type": "address"
        }
      ],
      "name": "__LockGateway_init",
      "outputs": [],
      "stateMutability": "nonpayable",
      "type": "function"
    },
    {
      "inputs": [],
      "name": "getAsset",
      "outputs": [
        {
          "internalType": "string",
          "name": "",
          "type": "string"
        }
      ],
      "stateMutability": "view",
      "type": "function"
    },
    {
      "inputs": [],
      "name": "getEventNonce",
      "outputs": [
        {
          "internalType": "uint256",
          "name": "",
          "type": "uint256"
        }
      ],
      "stateMutability": "view",
      "type": "function"
    },
    {
      "inputs": [],
      "name": "getPreviousGateway",
      "outputs": [
        {
          "internalType": "address",
          "name": "",
          "type": "address"
        }
      ],
      "stateMutability": "view",
      "type": "function"
    },
    {
      "inputs": [],
      "name": "getSelectorHash",
      "outputs": [
        {
          "internalType": "bytes32",
          "name": "",
          "type": "bytes32"
        }
      ],
      "stateMutability": "view",
      "type": "function"
    },
    {
      "inputs": [],
      "name": "getSignatureVerifier",
      "outputs": [
        {
          "internalType": "contract IRenVMSignatureVerifier",
          "name": "",
          "type": "address"
        }
      ],
      "stateMutability": "view",
      "type": "function"
    },
    {
      "inputs": [],
      "name": "getToken",
      "outputs": [
        {
          "internalType": "address",
          "name": "",
          "type": "address"
        }
      ],
      "stateMutability": "view",
      "type": "function"
    },
    {
      "inputs": [
        {
          "internalType": "string",
          "name": "recipientAddress",
          "type": "string"
        },
        {
          "internalType": "string",
          "name": "recipientChain",
          "type": "string"
        },
        {
          "internalType": "bytes",
          "name": "recipientPayload",
          "type": "bytes"
        },
        {
          "internalType": "uint256",
          "name": "amount",
          "type": "uint256"
        }
      ],
      "name": "lock",
      "outputs": [
        {
          "internalType": "uint256",
          "name": "",
          "type": "uint256"
        }
      ],
      "stateMutability": "nonpayable",
      "type": "function"
    },
    {
      "inputs": [],
      "name": "owner",
      "outputs": [
        {
          "internalType": "address",
          "name": "",
          "type": "address"
        }
      ],
      "stateMutability": "view",
      "type": "function"
    },
    {
      "inputs": [
        {
          "internalType": "bytes32",
          "name": "pHash",
          "type": "bytes32"
        },
        {
          "internalType": "uint256",
          "name": "amount",
          "type": "uint256"
        },
        {
          "internalType": "bytes32",
          "name": "nHash",
          "type": "bytes32"
        },
        {
          "internalType": "bytes",
          "name": "sig",
          "type": "bytes"
        }
      ],
      "name": "release",
      "outputs": [
        {
          "internalType": "uint256",
          "name": "",
          "type": "uint256"
        }
      ],
      "stateMutability": "nonpayable",
      "type": "function"
    },
    {
      "inputs": [
        {
          "internalType": "bytes32",
          "name": "hash",
          "type": "bytes32"
        }
      ],
      "name": "status",
      "outputs": [
        {
          "internalType": "bool",
          "name": "",
          "type": "bool"
        }
      ],
      "stateMutability": "view",
      "type": "function"
    },
    {
      "inputs": [],
      "name": "token",
      "outputs": [
        {
          "internalType": "address",
          "name": "",
          "type": "address"
        }
      ],
      "stateMutability": "view",
      "type": "function"
    },
    {
      "inputs": [
        {
          "internalType": "string",
          "name": "nextAsset",
          "type": "string"
        }
      ],
      "name": "updateAsset",
      "outputs": [],
      "stateMutability": "nonpayable",
      "type": "function"
    },
    {
      "inputs": [
        {
          "internalType": "address",
          "name": "newPreviousGateway",
          "type": "address"
        }
      ],
      "name": "updatePreviousGateway",
      "outputs": [],
      "stateMutability": "nonpayable",
      "type": "function"
    },
    {
      "inputs": [
        {
          "internalType": "address",
          "name": "newSignatureVerifier",
          "type": "address"
        }
      ],
      "name": "updateSignatureVerifier",
      "outputs": [],
      "stateMutability": "nonpayable",
      "type": "function"
    },
    {
      "inputs": [
        {
          "internalType": "address",
          "name": "newToken",
          "type": "address"
        }
      ],
      "name": "updateToken",
      "outputs": [],
      "stateMutability": "nonpayable",
      "type": "function"
    }
  ],
  "transactionHash": "0xb26eab593fb07644ad5e76fc7a282a6527bbda457286e8098fc93b9381753e7f",
  "args": [],
  "numDeployments": 2,
  "solcInputHash": "f487db171a77351c3dff3ebd5b31202a",
  "bytecode": "0x608060405234801561001057600080fd5b50611f80806100206000396000f3fe608060405234801561001057600080fd5b50600436106101165760003560e01c80637ad3def2116100a2578063aed92d3511610071578063aed92d3514610244578063c54216b41461024c578063ca9d95321461025f578063dbb82bd814610272578063fc0c546a1461028557600080fd5b80637ad3def2146101ec5780638da5cb5b146101ff5780639cffc71514610207578063a3f4df7e1461021a57600080fd5b8063345763ad116100e9578063345763ad1461017d5780635266ba0c1461018e57806352ad0d5e146101a15780635667981b146101c45780635c222bad146101d757600080fd5b8063096981301461011b57806321df0da7146101455780632e21384d146101565780632fca4f8614610168575b600080fd5b6038546001600160a01b03165b6040516001600160a01b0390911681526020015b60405180910390f35b6036546001600160a01b0316610128565b6039545b60405190815260200161013c565b61017b61017636600461191a565b61028d565b005b6037546001600160a01b0316610128565b61017b61019c3660046117d8565b610329565b6101b46101af366004611834565b610400565b604051901515815260200161013c565b61017b6101d23660046117d8565b6104cc565b6101df610507565b60405161013c9190611d18565b61017b6101fa3660046117d8565b610599565b6101286105d1565b61015a61021536600461184d565b61065a565b6101df6040518060400160405280600b81526020016a4c6f636b4761746577617960a81b81525081565b61015a6108d3565b61017b61025a3660046118d8565b61092c565b61015a61026d366004611982565b610969565b61017b61028036600461191a565b610abf565b610128610b3a565b600054610100900460ff16806102a6575060005460ff16155b6102cb5760405162461bcd60e51b81526004016102c290611d80565b60405180910390fd5b600054610100900460ff161580156102ed576000805461ffff19166101011790555b6102f5610b4e565b61030185858585610abf565b8015610313576000805461ff00191690555b5050505050565b6037546001600160a01b031690565b336103326105d1565b6001600160a01b0316146103585760405162461bcd60e51b81526004016102c290611d4b565b6001600160a01b0381166103ae5760405162461bcd60e51b815260206004820152601860248201527f476174657761793a20696e76616c69642061646472657373000000000000000060448201526064016102c2565b603880546001600160a01b038381166001600160a01b0319831681179093556040519116919082907fd420320c6286dfd203f890abd5a2bbf75c64ef636ed72e192259fa1d133cd55b90600090a35050565b60008181526035602052604081205460ff161561041f57506001919050565b60006104336038546001600160a01b031690565b90506001600160a01b038116156104c35760405163295686af60e11b8152600481018490526001600160a01b038216906352ad0d5e9060240160206040518083038186803b15801561048457600080fd5b505afa158015610498573d6000803e3d6000fd5b505050506040513d601f19601f820116820180604052508101906104bc9190611812565b9392505050565b50600092915050565b336104d56105d1565b6001600160a01b0316146104fb5760405162461bcd60e51b81526004016102c290611d4b565b61050481610bc1565b50565b60606033805461051690611e73565b80601f016020809104026020016040519081016040528092919081815260200182805461054290611e73565b801561058f5780601f106105645761010080835404028352916020019161058f565b820191906000526020600020905b81548152906001019060200180831161057257829003601f168201915b5050505050905090565b336105a26105d1565b6001600160a01b0316146105c85760405162461bcd60e51b81526004016102c290611d4b565b61050481610c75565b60006105e56037546001600160a01b031690565b6001600160a01b0316638da5cb5b6040518163ffffffff1660e01b815260040160206040518083038186803b15801561061d57600080fd5b505afa158015610631573d6000803e3d6000fd5b505050506040513d601f19601f8201168201806040525081019061065591906117f5565b905090565b600033816106b7888861066b6108d3565b604080516020808201959095528082019390935260608301919091526001600160a01b038616608083015260a08083018b90528151808403909101815260c09092019052805191012090565b90506106c281610400565b1561071b5760405162461bcd60e51b8152602060048201526024808201527f4c6f636b476174657761793a207369676e617475726520616c726561647920736044820152631c195b9d60e21b60648201526084016102c2565b630b135d3f60e11b6107356037546001600160a01b031690565b6001600160a01b0316631626ba7e8388886040518463ffffffff1660e01b815260040161076493929190611c90565b60206040518083038186803b15801561077c57600080fd5b505afa158015610790573d6000803e3d6000fd5b505050506040513d601f19601f820116820180604052508101906107b491906118ae565b6001600160e01b03191614610842576107ce886020610d0e565b6107d788610eaa565b6107e96107e26108d3565b6020610d0e565b6107fd856001600160a01b03166014610d0e565b6108088a6020610d0e565b60405160200161081c959493929190611b8f565b60408051601f198184030181529082905262461bcd60e51b82526102c291600401611d18565b6000818152603560205260409020805460ff1916600117905561088282886108726036546001600160a01b031690565b6001600160a01b03169190610fb0565b8581836001600160a01b03167f9a0e734b1a87920f1af4cb8617268e9e5979afa7f36a620a4f90206f0ca57d4c8a6040516108bf91815260200190565b60405180910390a450949695505050505050565b6034546000906109255760405162461bcd60e51b815260206004820152601860248201527f476174657761793a206e6f7420696e697469616c697a6564000000000000000060448201526064016102c2565b5060345490565b336109356105d1565b6001600160a01b03161461095b5760405162461bcd60e51b81526004016102c290611d4b565b6109658282611018565b5050565b60006109aa88888080601f0160208091040260200160405190810160405280939291908181526020018383808284376000920191909152506111af92505050565b6109f65760405162461bcd60e51b815260206004820181905260248201527f4c6f636b476174657761793a20746f206164647265737320697320656d70747960448201526064016102c2565b6000610a21333085610a106036546001600160a01b031690565b6001600160a01b03169291906111b5565b90506000610a2e60395490565b90508787604051610a40929190611b41565b60405180910390208a8a604051610a58929190611b41565b6040518091039020827fc06237815e14163806cc5c2447bc785b639c2f8b1f3f23872f226e5c31adb9958d8d8d8d8d8d8b604051610a9c9796959493929190611cc7565b60405180910390a4610aaf816001611dce565b6039555098975050505050505050565b600054610100900460ff1680610ad8575060005460ff16155b610af45760405162461bcd60e51b81526004016102c290611d80565b600054610100900460ff16158015610b16576000805461ffff19166101011790555b610b1e610b4e565b610b2783610bc1565b610b318585611018565b61030182610c75565b60006106556036546001600160a01b031690565b600054610100900460ff1680610b67575060005460ff16155b610b835760405162461bcd60e51b81526004016102c290611d80565b600054610100900460ff16158015610ba5576000805461ffff19166101011790555b610bad6112ed565b8015610504576000805461ff001916905550565b6001600160a01b038116610c235760405162461bcd60e51b815260206004820152602360248201527f476174657761793a20696e76616c6964207369676e617475726520766572696660448201526234b2b960e91b60648201526084016102c2565b603780546001600160a01b038381166001600160a01b0319831681179093556040519116919082907ff7dbe6f0a40adabc688e64fce7060ca2f466fbf846227fb5e4e05305553bae5e90600090a35050565b6001600160a01b038116610cc45760405162461bcd60e51b815260206004820152601660248201527523b0ba32bbb0bc9d1034b73b30b634b2103a37b5b2b760511b60448201526064016102c2565b603680546001600160a01b0319166001600160a01b0383169081179091556040517f02dec22a3d1e8f9cdc0c7cd17ecee187f635788c40755be0a72dcd86a05e564d90600090a250565b60606000610d1d836002611dfa565b610d28906002611dce565b67ffffffffffffffff811115610d4057610d40611f1f565b6040519080825280601f01601f191660200182016040528015610d6a576020820181803683370190505b509050600360fc1b81600081518110610d8557610d85611f09565b60200101906001600160f81b031916908160001a905350600f60fb1b81600181518110610db457610db4611f09565b60200101906001600160f81b031916908160001a9053506000610dd8846002611dfa565b610de3906001611dce565b90505b6001811115610e5b576f181899199a1a9b1b9c1cb0b131b232b360811b85600f1660108110610e1757610e17611f09565b1a60f81b828281518110610e2d57610e2d611f09565b60200101906001600160f81b031916908160001a90535060049490941c93610e5481611e5c565b9050610de6565b5083156104bc5760405162461bcd60e51b815260206004820181905260248201527f537472696e67733a20686578206c656e67746820696e73756666696369656e7460448201526064016102c2565b606081610ece5750506040805180820190915260018152600360fc1b602082015290565b8160005b8115610ef85780610ee281611eae565b9150610ef19050600a83611de6565b9150610ed2565b60008167ffffffffffffffff811115610f1357610f13611f1f565b6040519080825280601f01601f191660200182016040528015610f3d576020820181803683370190505b5090505b8415610fa857610f52600183611e19565b9150610f5f600a86611ec9565b610f6a906030611dce565b60f81b818381518110610f7f57610f7f611f09565b60200101906001600160f81b031916908160001a905350610fa1600a86611de6565b9450610f41565b949350505050565b6040516001600160a01b03831660248201526044810182905261101390849063a9059cbb60e01b906064015b60408051601f198184030181529190526020810180516001600160e01b03166001600160e01b031990931692909217909152611357565b505050565b61105782828080601f01602080910402602001604051908101604052809392919081815260200183838082843760009201919091525061142992505050565b61109c5760405162461bcd60e51b815260206004820152601660248201527511d85d195dd85e4e881a5b9d985b1a5908185cdcd95d60521b60448201526064016102c2565b6110a8603383836116f6565b50600061116783838080601f0160208091040260200160405190810160405280939291908181526020018383808284376000920191909152506110ee925061031a915050565b6001600160a01b03166332e21ae76040518163ffffffff1660e01b815260040160006040518083038186803b15801561112657600080fd5b505afa15801561113a573d6000803e3d6000fd5b505050506040513d6000823e601f3d908101601f191682016040526111629190810190611a25565b61144b565b905080603481905550807f2e7c1f9bcc3b09d8e05594ab5d17b6c9b15b24cd506c5212f051f22990d0813184846040516111a2929190611cb3565b60405180910390a2505050565b51151590565b6040516370a0823160e01b81526001600160a01b03838116600483015260009182918716906370a082319060240160206040518083038186803b1580156111fb57600080fd5b505afa15801561120f573d6000803e3d6000fd5b505050506040513d601f19601f820116820180604052508101906112339190611ac7565b905061124a6001600160a01b03871686868661147e565b6040516370a0823160e01b81526001600160a01b038581166004830152600091908816906370a082319060240160206040518083038186803b15801561128f57600080fd5b505afa1580156112a3573d6000803e3d6000fd5b505050506040513d601f19601f820116820180604052508101906112c79190611ac7565b905060006112d58383611e19565b90506112e185826114bc565b98975050505050505050565b600054610100900460ff1680611306575060005460ff16155b6113225760405162461bcd60e51b81526004016102c290611d80565b600054610100900460ff16158015610bad576000805461ffff19166101011790558015610504576000805461ff001916905550565b60006113ac826040518060400160405280602081526020017f5361666545524332303a206c6f772d6c6576656c2063616c6c206661696c6564815250856001600160a01b03166114d29092919063ffffffff16565b80519091501561101357808060200190518101906113ca9190611812565b6110135760405162461bcd60e51b815260206004820152602a60248201527f5361666545524332303a204552433230206f7065726174696f6e20646964206e6044820152691bdd081cdd58d8d9595960b21b60648201526084016102c2565b60006114358251151590565b80156114455750611445826114e1565b92915050565b60008282604051602001611460929190611b51565b60405160208183030381529060405280519060200120905092915050565b6040516001600160a01b03808516602483015283166044820152606481018290526114b69085906323b872dd60e01b90608401610fdc565b50505050565b60008183106114cb57816104bc565b5090919050565b6060610fa88484600085611595565b6000805b825181101561158c57600083828151811061150257611502611f09565b016020015160f81c9050604181108015906115215750605a8160ff1611155b8061153f575060618160ff161015801561153f5750607a8160ff1611155b8061155d575060308160ff161015801561155d575060398160ff1611155b8061156b57508060ff16605f145b611579575060009392505050565b508061158481611eae565b9150506114e5565b50600192915050565b6060824710156115f65760405162461bcd60e51b815260206004820152602660248201527f416464726573733a20696e73756666696369656e742062616c616e636520666f6044820152651c8818d85b1b60d21b60648201526084016102c2565b843b6116445760405162461bcd60e51b815260206004820152601d60248201527f416464726573733a2063616c6c20746f206e6f6e2d636f6e747261637400000060448201526064016102c2565b600080866001600160a01b031685876040516116609190611b25565b60006040518083038185875af1925050503d806000811461169d576040519150601f19603f3d011682016040523d82523d6000602084013e6116a2565b606091505b50915091506116b28282866116bd565b979650505050505050565b606083156116cc5750816104bc565b8251156116dc5782518084602001fd5b8160405162461bcd60e51b81526004016102c29190611d18565b82805461170290611e73565b90600052602060002090601f016020900481019282611724576000855561176a565b82601f1061173d5782800160ff1982351617855561176a565b8280016001018555821561176a579182015b8281111561176a57823582559160200191906001019061174f565b5061177692915061177a565b5090565b5b80821115611776576000815560010161177b565b60008083601f8401126117a157600080fd5b50813567ffffffffffffffff8111156117b957600080fd5b6020830191508360208285010111156117d157600080fd5b9250929050565b6000602082840312156117ea57600080fd5b81356104bc81611f35565b60006020828403121561180757600080fd5b81516104bc81611f35565b60006020828403121561182457600080fd5b815180151581146104bc57600080fd5b60006020828403121561184657600080fd5b5035919050565b60008060008060006080868803121561186557600080fd5b853594506020860135935060408601359250606086013567ffffffffffffffff81111561189157600080fd5b61189d8882890161178f565b969995985093965092949392505050565b6000602082840312156118c057600080fd5b81516001600160e01b0319811681146104bc57600080fd5b600080602083850312156118eb57600080fd5b823567ffffffffffffffff81111561190257600080fd5b61190e8582860161178f565b90969095509350505050565b6000806000806060858703121561193057600080fd5b843567ffffffffffffffff81111561194757600080fd5b6119538782880161178f565b909550935050602085013561196781611f35565b9150604085013561197781611f35565b939692955090935050565b60008060008060008060006080888a03121561199d57600080fd5b873567ffffffffffffffff808211156119b557600080fd5b6119c18b838c0161178f565b909950975060208a01359150808211156119da57600080fd5b6119e68b838c0161178f565b909750955060408a01359150808211156119ff57600080fd5b50611a0c8a828b0161178f565b989b979a50959894979596606090950135949350505050565b600060208284031215611a3757600080fd5b815167ffffffffffffffff80821115611a4f57600080fd5b818401915084601f830112611a6357600080fd5b815181811115611a7557611a75611f1f565b604051601f8201601f19908116603f01168101908382118183101715611a9d57611a9d611f1f565b81604052828152876020848701011115611ab657600080fd5b6116b2836020830160208801611e30565b600060208284031215611ad957600080fd5b5051919050565b81835281816020850137506000828201602090810191909152601f909101601f19169091010190565b60008151611b1b818560208601611e30565b9290920192915050565b60008251611b37818460208701611e30565b9190910192915050565b8183823760009101908152919050565b60008351611b63818460208801611e30565b622f746f60e81b9083019081528351611b83816003840160208801611e30565b01600301949350505050565b7f4c6f636b476174657761793a20696e76616c6964207369676e61747572652e208152660383430b9b41d160cd1b602082015260008651611bd7816027850160208b01611e30565b690161030b6b7bab73a1d160b51b6027918401918201528651611c01816031840160208b01611e30565b6605840e6d0c2e6d60cb1b603192909101918201528551611c29816038840160208a01611e30565b6027818301019150506d0161036b9b39739b2b73232b91d160951b60118201528451611c5c81601f840160208901611e30565b611c83611c7d601f848401016801610373430b9b41d160bd1b815260090190565b86611b09565b9998505050505050505050565b838152604060208201526000611caa604083018486611ae0565b95945050505050565b602081526000610fa8602083018486611ae0565b608081526000611cdb60808301898b611ae0565b8281036020840152611cee81888a611ae0565b90508281036040840152611d03818688611ae0565b91505082606083015298975050505050505050565b6020815260008251806020840152611d37816040850160208701611e30565b601f01601f19169190910160400192915050565b6020808252818101527f476174657761793a2063616c6c6572206973206e6f7420746865206f776e6572604082015260600190565b6020808252602e908201527f496e697469616c697a61626c653a20636f6e747261637420697320616c72656160408201526d191e481a5b9a5d1a585b1a5e995960921b606082015260800190565b60008219821115611de157611de1611edd565b500190565b600082611df557611df5611ef3565b500490565b6000816000190483118215151615611e1457611e14611edd565b500290565b600082821015611e2b57611e2b611edd565b500390565b60005b83811015611e4b578181015183820152602001611e33565b838111156114b65750506000910152565b600081611e6b57611e6b611edd565b506000190190565b600181811c90821680611e8757607f821691505b60208210811415611ea857634e487b7160e01b600052602260045260246000fd5b50919050565b6000600019821415611ec257611ec2611edd565b5060010190565b600082611ed857611ed8611ef3565b500690565b634e487b7160e01b600052601160045260246000fd5b634e487b7160e01b600052601260045260246000fd5b634e487b7160e01b600052603260045260246000fd5b634e487b7160e01b600052604160045260246000fd5b6001600160a01b038116811461050457600080fdfea26469706673582212206a3fd921c950f86bbd777511f9f4e7d1a64bfd9ffa0454afbbcc057bbf11522d64736f6c63430008070033",
  "devdoc": {
    "kind": "dev",
    "methods": {
      "lock(string,string,bytes,uint256)": {
        "params": {
          "amount": "The amount of the token being locked, in the asset's        smallest unit. (e.g. satoshis for BTC)",
          "recipientAddress": "The address to which the locked assets will be        minted to. The address should be a plain-text address, without        decoding to bytes first.",
          "recipientChain": "The target chain to which the assets are being        moved to.",
          "recipientPayload": "An optional payload to be passed to the        recipient chain along with the address."
        }
      },
      "release(bytes32,uint256,bytes32,bytes)": {
        "params": {
          "amount": "The amount of the token being released, in its smallest        value.",
          "nHash": "(nonce hash) The hash of the nonce, amount and pHash.",
          "pHash": "(payload hash) The hash of the payload associated with the        release.",
          "sig": "The signature of the hash of the following values:        (pHash, amount, recipient, nHash), signed by the mintAuthority."
        }
      },
      "updateAsset(string)": {
        "params": {
          "nextAsset": "The new asset."
        }
      },
      "updatePreviousGateway(address)": {
        "params": {
          "newPreviousGateway": "The new gateway contract's address."
        }
      },
      "updateSignatureVerifier(address)": {
        "params": {
          "newSignatureVerifier": "The new verifier contract address."
        }
      },
      "updateToken(address)": {
        "params": {
          "newToken": "The new ERC20 token contract's address."
        }
      }
    },
    "version": 1
  },
  "userdoc": {
    "kind": "user",
    "methods": {
      "lock(string,string,bytes,uint256)": {
        "notice": "Transfers tokens into custody by this contract so that they         can be minted on another chain."
      },
      "owner()": {
        "notice": "The Gateway is controlled by the owner of the SignatureVerifier. This allows for the owner of every Gateway to be updated with a single update to the SignatureVerifier contract."
      },
      "release(bytes32,uint256,bytes32,bytes)": {
        "notice": "release verifies a release approval signature from RenVM and         transfers the asset out of custody and to the recipient."
      },
      "updateAsset(string)": {
        "notice": "Allow the owner to update the asset."
      },
      "updatePreviousGateway(address)": {
        "notice": "Allow the owner to update the previous gateway used for backwards compatibility."
      },
      "updateSignatureVerifier(address)": {
        "notice": "Allow the owner to update the signature verifier contract."
      },
      "updateToken(address)": {
        "notice": "Allow the owner to update the ERC20 token contract."
      }
    },
    "notice": "LockGatewayV3 handles verifying lock and release requests. A mint authority approves assets being released by providing a digital signature. The balance of assets is assumed not to change without a transfer, so rebasing assets and assets with a demurrage fee are not supported.",
    "version": 1
  },
  "storageLayout": {
    "storage": [
      {
        "astId": 773,
        "contract": "src/Gateways/LockGateway.sol:LockGatewayV3",
        "label": "_initialized",
        "offset": 0,
        "slot": "0",
        "type": "t_bool"
      },
      {
        "astId": 776,
        "contract": "src/Gateways/LockGateway.sol:LockGatewayV3",
        "label": "_initializing",
        "offset": 1,
        "slot": "0",
        "type": "t_bool"
      },
      {
        "astId": 2463,
        "contract": "src/Gateways/LockGateway.sol:LockGatewayV3",
        "label": "__gap",
        "offset": 0,
        "slot": "1",
        "type": "t_array(t_uint256)50_storage"
      },
      {
        "astId": 11344,
        "contract": "src/Gateways/LockGateway.sol:LockGatewayV3",
        "label": "_asset",
        "offset": 0,
        "slot": "51",
        "type": "t_string_storage"
      },
      {
        "astId": 11346,
        "contract": "src/Gateways/LockGateway.sol:LockGatewayV3",
        "label": "_selectorHash",
        "offset": 0,
        "slot": "52",
        "type": "t_bytes32"
      },
      {
        "astId": 11351,
        "contract": "src/Gateways/LockGateway.sol:LockGatewayV3",
        "label": "_status",
        "offset": 0,
        "slot": "53",
        "type": "t_mapping(t_bytes32,t_bool)"
      },
      {
        "astId": 11354,
        "contract": "src/Gateways/LockGateway.sol:LockGatewayV3",
        "label": "_token",
        "offset": 0,
        "slot": "54",
        "type": "t_address"
      },
      {
        "astId": 11357,
        "contract": "src/Gateways/LockGateway.sol:LockGatewayV3",
        "label": "_signatureVerifier",
        "offset": 0,
        "slot": "55",
        "type": "t_contract(IRenVMSignatureVerifier)11131"
      },
      {
        "astId": 11359,
        "contract": "src/Gateways/LockGateway.sol:LockGatewayV3",
        "label": "_previousGateway",
        "offset": 0,
        "slot": "56",
        "type": "t_address"
      },
      {
        "astId": 11361,
        "contract": "src/Gateways/LockGateway.sol:LockGatewayV3",
        "label": "_eventNonce",
        "offset": 0,
        "slot": "57",
        "type": "t_uint256"
      },
      {
        "astId": 11365,
        "contract": "src/Gateways/LockGateway.sol:LockGatewayV3",
        "label": "__gap",
        "offset": 0,
        "slot": "58",
        "type": "t_array(t_uint256)43_storage"
      }
    ],
    "types": {
      "t_address": {
        "encoding": "inplace",
        "label": "address",
        "numberOfBytes": "20"
      },
      "t_array(t_uint256)43_storage": {
        "base": "t_uint256",
        "encoding": "inplace",
        "label": "uint256[43]",
        "numberOfBytes": "1376"
      },
      "t_array(t_uint256)50_storage": {
        "base": "t_uint256",
        "encoding": "inplace",
        "label": "uint256[50]",
        "numberOfBytes": "1600"
      },
      "t_bool": {
        "encoding": "inplace",
        "label": "bool",
        "numberOfBytes": "1"
      },
      "t_bytes32": {
        "encoding": "inplace",
        "label": "bytes32",
        "numberOfBytes": "32"
      },
      "t_contract(IRenVMSignatureVerifier)11131": {
        "encoding": "inplace",
        "label": "contract IRenVMSignatureVerifier",
        "numberOfBytes": "20"
      },
      "t_mapping(t_bytes32,t_bool)": {
        "encoding": "mapping",
        "key": "t_bytes32",
        "label": "mapping(bytes32 => bool)",
        "numberOfBytes": "32",
        "value": "t_bool"
      },
      "t_string_storage": {
        "encoding": "bytes",
        "label": "string",
        "numberOfBytes": "32"
      },
      "t_uint256": {
        "encoding": "inplace",
        "label": "uint256",
        "numberOfBytes": "32"
      }
    }
  }
}