{
  "address": "0x6E61a4Db2448E1Edc7E57dE7b628B90Be58F6aC0",
  "abi": [
    {
      "anonymous": false,
      "inputs": [
        {
          "indexed": true,
          "internalType": "address",
          "name": "_newMintAuthority",
          "type": "address"
        }
      ],
      "name": "LogMintAuthorityUpdated",
      "type": "event"
    },
    {
      "anonymous": false,
      "inputs": [
        {
          "indexed": true,
          "internalType": "address",
          "name": "previousOwner",
          "type": "address"
        },
        {
          "indexed": true,
          "internalType": "address",
          "name": "newOwner",
          "type": "address"
        }
      ],
      "name": "OwnershipTransferred",
      "type": "event"
    },
    {
      "inputs": [
        {
          "internalType": "address",
          "name": "mintAuthority_",
          "type": "address"
        }
      ],
      "name": "__SignatureVerifier_init",
      "outputs": [],
      "stateMutability": "nonpayable",
      "type": "function"
    },
    {
      "inputs": [],
      "name": "mintAuthority",
      "outputs": [
        {
          "internalType": "address",
          "name": "",
          "type": "address"
        }
      ],
      "stateMutability": "view",
      "type": "function"
    },
    {
      "inputs": [],
      "name": "owner",
      "outputs": [
        {
          "internalType": "address",
          "name": "",
          "type": "address"
        }
      ],
      "stateMutability": "view",
      "type": "function"
    },
    {
      "inputs": [],
      "name": "renounceOwnership",
      "outputs": [],
      "stateMutability": "nonpayable",
      "type": "function"
    },
    {
      "inputs": [
        {
          "internalType": "address",
          "name": "newOwner",
          "type": "address"
        }
      ],
      "name": "transferOwnership",
      "outputs": [],
      "stateMutability": "nonpayable",
      "type": "function"
    },
    {
      "inputs": [
        {
          "internalType": "address",
          "name": "nextMintAuthority_",
          "type": "address"
        }
      ],
      "name": "updateMintAuthority",
      "outputs": [],
      "stateMutability": "nonpayable",
      "type": "function"
    },
    {
      "inputs": [
        {
          "internalType": "bytes32",
          "name": "_sigHash",
          "type": "bytes32"
        },
        {
          "internalType": "bytes",
          "name": "_sig",
          "type": "bytes"
        }
      ],
      "name": "verifySignature",
      "outputs": [
        {
          "internalType": "bool",
          "name": "",
          "type": "bool"
        }
      ],
      "stateMutability": "view",
      "type": "function"
    }
  ],
  "transactionHash": "0xb1362b4f8bb66efa2b017aa687982b52faa35f6dd6a1b9d3c8cbb63c837a2408",
  "args": [],
  "solcInputHash": "cd16daf0061bcc045fc96aa81722133b",
  "bytecode": "0x608060405234801561001057600080fd5b50611742806100206000396000f3fe608060405234801561001057600080fd5b506004361061007d5760003560e01c80639340b21e1161005b5780639340b21e146100c6578063984767b4146100e4578063daca6f7814610100578063f2fde38b146101305761007d565b80630130a33b14610082578063715018a61461009e5780638da5cb5b146100a8575b600080fd5b61009c60048036038101906100979190610edd565b61014c565b005b6100a6610340565b005b6100b06103c8565b6040516100bd9190611100565b60405180910390f35b6100ce6103f2565b6040516100db9190611100565b60405180910390f35b6100fe60048036038101906100f99190610edd565b610418565b005b61011a60048036038101906101159190610f0a565b610503565b604051610127919061111b565b60405180910390f35b61014a60048036038101906101459190610edd565b6105f8565b005b6101546103c8565b73ffffffffffffffffffffffffffffffffffffffff166101726106f0565b73ffffffffffffffffffffffffffffffffffffffff1614806101e85750606560009054906101000a900473ffffffffffffffffffffffffffffffffffffffff1673ffffffffffffffffffffffffffffffffffffffff166101d06106f0565b73ffffffffffffffffffffffffffffffffffffffff16145b610227576040517f08c379a000000000000000000000000000000000000000000000000000000000815260040161021e9061129b565b60405180910390fd5b600073ffffffffffffffffffffffffffffffffffffffff168173ffffffffffffffffffffffffffffffffffffffff161415610297576040517f08c379a000000000000000000000000000000000000000000000000000000000815260040161028e906111db565b60405180910390fd5b80606560006101000a81548173ffffffffffffffffffffffffffffffffffffffff021916908373ffffffffffffffffffffffffffffffffffffffff160217905550606560009054906101000a900473ffffffffffffffffffffffffffffffffffffffff1673ffffffffffffffffffffffffffffffffffffffff167ff0f08e606c1dd3a2c220ada53422fd9fe0aa75614b27db0549f649de3ad2072a60405160405180910390a250565b6103486106f0565b73ffffffffffffffffffffffffffffffffffffffff166103666103c8565b73ffffffffffffffffffffffffffffffffffffffff16146103bc576040517f08c379a00000000000000000000000000000000000000000000000000000000081526004016103b39061125b565b60405180910390fd5b6103c660006106f8565b565b6000603360009054906101000a900473ffffffffffffffffffffffffffffffffffffffff16905090565b606560009054906101000a900473ffffffffffffffffffffffffffffffffffffffff1681565b600060019054906101000a900460ff168061043e575060008054906101000a900460ff16155b61047d576040517f08c379a00000000000000000000000000000000000000000000000000000000081526004016104749061121b565b60405180910390fd5b60008060019054906101000a900460ff1615905080156104cd576001600060016101000a81548160ff02191690831515021790555060016000806101000a81548160ff0219169083151502179055505b6104d56107be565b6104de8261014c565b80156104ff5760008060016101000a81548160ff0219169083151502179055505b5050565b60008073ffffffffffffffffffffffffffffffffffffffff16606560009054906101000a900473ffffffffffffffffffffffffffffffffffffffff1673ffffffffffffffffffffffffffffffffffffffff161415610596576040517f08c379a000000000000000000000000000000000000000000000000000000000815260040161058d9061127b565b60405180910390fd5b6105a083836108a7565b73ffffffffffffffffffffffffffffffffffffffff16606560009054906101000a900473ffffffffffffffffffffffffffffffffffffffff1673ffffffffffffffffffffffffffffffffffffffff1614905092915050565b6106006106f0565b73ffffffffffffffffffffffffffffffffffffffff1661061e6103c8565b73ffffffffffffffffffffffffffffffffffffffff1614610674576040517f08c379a000000000000000000000000000000000000000000000000000000000815260040161066b9061125b565b60405180910390fd5b600073ffffffffffffffffffffffffffffffffffffffff168173ffffffffffffffffffffffffffffffffffffffff1614156106e4576040517f08c379a00000000000000000000000000000000000000000000000000000000081526004016106db906111bb565b60405180910390fd5b6106ed816106f8565b50565b600033905090565b6000603360009054906101000a900473ffffffffffffffffffffffffffffffffffffffff16905081603360006101000a81548173ffffffffffffffffffffffffffffffffffffffff021916908373ffffffffffffffffffffffffffffffffffffffff1602179055508173ffffffffffffffffffffffffffffffffffffffff168173ffffffffffffffffffffffffffffffffffffffff167f8be0079c531659141344cd1fd0a4f28419497f9722a3daafe3b4186f6b6457e060405160405180910390a35050565b600060019054906101000a900460ff16806107e4575060008054906101000a900460ff16155b610823576040517f08c379a000000000000000000000000000000000000000000000000000000000815260040161081a9061121b565b60405180910390fd5b60008060019054906101000a900460ff161590508015610873576001600060016101000a81548160ff02191690831515021790555060016000806101000a81548160ff0219169083151502179055505b61087b6108ce565b6108836109a7565b80156108a45760008060016101000a81548160ff0219169083151502179055505b50565b60008060006108b68585610a90565b915091506108c381610b13565b819250505092915050565b600060019054906101000a900460ff16806108f4575060008054906101000a900460ff16155b610933576040517f08c379a000000000000000000000000000000000000000000000000000000000815260040161092a9061121b565b60405180910390fd5b60008060019054906101000a900460ff161590508015610983576001600060016101000a81548160ff02191690831515021790555060016000806101000a81548160ff0219169083151502179055505b80156109a45760008060016101000a81548160ff0219169083151502179055505b50565b600060019054906101000a900460ff16806109cd575060008054906101000a900460ff16155b610a0c576040517f08c379a0000000000000000000000000000000000000000000000000000000008152600401610a039061121b565b60405180910390fd5b60008060019054906101000a900460ff161590508015610a5c576001600060016101000a81548160ff02191690831515021790555060016000806101000a81548160ff0219169083151502179055505b610a6c610a676106f0565b6106f8565b8015610a8d5760008060016101000a81548160ff0219169083151502179055505b50565b600080604183511415610ad25760008060006020860151925060408601519150606086015160001a9050610ac687828585610ce8565b94509450505050610b0c565b604083511415610b03576000806020850151915060408501519050610af8868383610df5565b935093505050610b0c565b60006002915091505b9250929050565b60006004811115610b2757610b266113b7565b5b816004811115610b3a57610b396113b7565b5b1415610b4557610ce5565b60016004811115610b5957610b586113b7565b5b816004811115610b6c57610b6b6113b7565b5b1415610bad576040517f08c379a0000000000000000000000000000000000000000000000000000000008152600401610ba49061117b565b60405180910390fd5b60026004811115610bc157610bc06113b7565b5b816004811115610bd457610bd36113b7565b5b1415610c15576040517f08c379a0000000000000000000000000000000000000000000000000000000008152600401610c0c9061119b565b60405180910390fd5b60036004811115610c2957610c286113b7565b5b816004811115610c3c57610c3b6113b7565b5b1415610c7d576040517f08c379a0000000000000000000000000000000000000000000000000000000008152600401610c74906111fb565b60405180910390fd5b600480811115610c9057610c8f6113b7565b5b816004811115610ca357610ca26113b7565b5b1415610ce4576040517f08c379a0000000000000000000000000000000000000000000000000000000008152600401610cdb9061123b565b60405180910390fd5b5b50565b6000807f7fffffffffffffffffffffffffffffff5d576e7357a4501ddfe92f46681b20a08360001c1115610d23576000600391509150610dec565b601b8560ff1614158015610d3b5750601c8560ff1614155b15610d4d576000600491509150610dec565b600060018787878760405160008152602001604052604051610d729493929190611136565b6020604051602081039080840390855afa158015610d94573d6000803e3d6000fd5b505050602060405103519050600073ffffffffffffffffffffffffffffffffffffffff168173ffffffffffffffffffffffffffffffffffffffff161415610de357600060019250925050610dec565b80600092509250505b94509492505050565b6000806000807f7fffffffffffffffffffffffffffffffffffffffffffffffffffffffffffffff85169150601b8560ff1c019050610e3587828885610ce8565b935093505050935093915050565b6000610e56610e51846112e0565b6112bb565b905082815260208101848484011115610e7257610e7161141a565b5b610e7d848285611377565b509392505050565b600081359050610e94816116de565b92915050565b600081359050610ea9816116f5565b92915050565b600082601f830112610ec457610ec3611415565b5b8135610ed4848260208601610e43565b91505092915050565b600060208284031215610ef357610ef2611424565b5b6000610f0184828501610e85565b91505092915050565b60008060408385031215610f2157610f20611424565b5b6000610f2f85828601610e9a565b925050602083013567ffffffffffffffff811115610f5057610f4f61141f565b5b610f5c85828601610eaf565b9150509250929050565b610f6f81611322565b82525050565b610f7e81611334565b82525050565b610f8d81611340565b82525050565b6000610fa0601883611311565b9150610fab8261143a565b602082019050919050565b6000610fc3601f83611311565b9150610fce82611463565b602082019050919050565b6000610fe6602683611311565b9150610ff18261148c565b604082019050919050565b6000611009603e83611311565b9150611014826114db565b604082019050919050565b600061102c602283611311565b91506110378261152a565b604082019050919050565b600061104f602e83611311565b915061105a82611579565b604082019050919050565b6000611072602283611311565b915061107d826115c8565b604082019050919050565b6000611095602083611311565b91506110a082611617565b602082019050919050565b60006110b8603083611311565b91506110c382611640565b604082019050919050565b60006110db602183611311565b91506110e68261168f565b604082019050919050565b6110fa8161136a565b82525050565b60006020820190506111156000830184610f66565b92915050565b60006020820190506111306000830184610f75565b92915050565b600060808201905061114b6000830187610f84565b61115860208301866110f1565b6111656040830185610f84565b6111726060830184610f84565b95945050505050565b6000602082019050818103600083015261119481610f93565b9050919050565b600060208201905081810360008301526111b481610fb6565b9050919050565b600060208201905081810360008301526111d481610fd9565b9050919050565b600060208201905081810360008301526111f481610ffc565b9050919050565b600060208201905081810360008301526112148161101f565b9050919050565b6000602082019050818103600083015261123481611042565b9050919050565b6000602082019050818103600083015261125481611065565b9050919050565b6000602082019050818103600083015261127481611088565b9050919050565b60006020820190508181036000830152611294816110ab565b9050919050565b600060208201905081810360008301526112b4816110ce565b9050919050565b60006112c56112d6565b90506112d18282611386565b919050565b6000604051905090565b600067ffffffffffffffff8211156112fb576112fa6113e6565b5b61130482611429565b9050602081019050919050565b600082825260208201905092915050565b600061132d8261134a565b9050919050565b60008115159050919050565b6000819050919050565b600073ffffffffffffffffffffffffffffffffffffffff82169050919050565b600060ff82169050919050565b82818337600083830152505050565b61138f82611429565b810181811067ffffffffffffffff821117156113ae576113ad6113e6565b5b80604052505050565b7f4e487b7100000000000000000000000000000000000000000000000000000000600052602160045260246000fd5b7f4e487b7100000000000000000000000000000000000000000000000000000000600052604160045260246000fd5b600080fd5b600080fd5b600080fd5b600080fd5b6000601f19601f8301169050919050565b7f45434453413a20696e76616c6964207369676e61747572650000000000000000600082015250565b7f45434453413a20696e76616c6964207369676e6174757265206c656e67746800600082015250565b7f4f776e61626c653a206e6577206f776e657220697320746865207a65726f206160008201527f6464726573730000000000000000000000000000000000000000000000000000602082015250565b7f5369676e617475726556657269666965723a206d696e74417574686f7269747960008201527f2063616e6e6f742062652073657420746f2061646472657373207a65726f0000602082015250565b7f45434453413a20696e76616c6964207369676e6174757265202773272076616c60008201527f7565000000000000000000000000000000000000000000000000000000000000602082015250565b7f496e697469616c697a61626c653a20636f6e747261637420697320616c72656160008201527f647920696e697469616c697a6564000000000000000000000000000000000000602082015250565b7f45434453413a20696e76616c6964207369676e6174757265202776272076616c60008201527f7565000000000000000000000000000000000000000000000000000000000000602082015250565b7f4f776e61626c653a2063616c6c6572206973206e6f7420746865206f776e6572600082015250565b7f5369676e617475726556657269666965723a206d696e74417574686f7269747960008201527f206e6f7420696e697469616c697a656400000000000000000000000000000000602082015250565b7f5369676e617475726556657269666965723a206e6f7420617574686f72697a6560008201527f6400000000000000000000000000000000000000000000000000000000000000602082015250565b6116e781611322565b81146116f257600080fd5b50565b6116fe81611340565b811461170957600080fd5b5056fea2646970667358221220e8c3aab5adbec91f8528a4d3a93ff4a20b19aab5033ad750b528dc833e625c7464736f6c63430008070033",
  "devdoc": {
    "kind": "dev",
    "methods": {
      "owner()": {
        "details": "Returns the address of the current owner."
      },
      "renounceOwnership()": {
        "details": "Leaves the contract without owner. It will not be possible to call `onlyOwner` functions anymore. Can only be called by the current owner. NOTE: Renouncing ownership will leave the contract without an owner, thereby removing any functionality that is only available to the owner."
      },
      "transferOwnership(address)": {
        "details": "Transfers ownership of the contract to a new account (`newOwner`). Can only be called by the current owner."
      },
      "updateMintAuthority(address)": {
        "params": {
          "nextMintAuthority_": "The new mint authority address."
        }
      }
    },
    "version": 1
  },
  "userdoc": {
    "kind": "user",
    "methods": {
      "updateMintAuthority(address)": {
        "notice": "Allow the owner or mint authority to update the mint authority."
      },
      "verifySignature(bytes32,bytes)": {
        "notice": "verifySignature checks the the provided signature matches the provided parameters."
      }
    },
    "notice": "Gateway handles verifying mint and burn requests. A mintAuthority approves new assets to be minted by providing a digital signature. An owner of an asset can request for it to be burnt.",
    "version": 1
  },
  "storageLayout": {
    "storage": [
      {
        "astId": 773,
        "contract": "src/Gateways/common/SignatureVerifier.sol:SignatureVerifierV1",
        "label": "_initialized",
        "offset": 0,
        "slot": "0",
        "type": "t_bool"
      },
      {
        "astId": 776,
        "contract": "src/Gateways/common/SignatureVerifier.sol:SignatureVerifierV1",
        "label": "_initializing",
        "offset": 1,
        "slot": "0",
        "type": "t_bool"
      },
      {
        "astId": 1994,
        "contract": "src/Gateways/common/SignatureVerifier.sol:SignatureVerifierV1",
        "label": "__gap",
        "offset": 0,
        "slot": "1",
        "type": "t_array(t_uint256)50_storage"
      },
      {
        "astId": 653,
        "contract": "src/Gateways/common/SignatureVerifier.sol:SignatureVerifierV1",
        "label": "_owner",
        "offset": 0,
        "slot": "51",
        "type": "t_address"
      },
      {
        "astId": 766,
        "contract": "src/Gateways/common/SignatureVerifier.sol:SignatureVerifierV1",
        "label": "__gap",
        "offset": 0,
        "slot": "52",
        "type": "t_array(t_uint256)49_storage"
      },
      {
        "astId": 9237,
        "contract": "src/Gateways/common/SignatureVerifier.sol:SignatureVerifierV1",
        "label": "mintAuthority",
        "offset": 0,
        "slot": "101",
        "type": "t_address"
      },
      {
        "astId": 9241,
        "contract": "src/Gateways/common/SignatureVerifier.sol:SignatureVerifierV1",
        "label": "__gap",
        "offset": 0,
        "slot": "102",
        "type": "t_array(t_uint256)49_storage"
      }
    ],
    "types": {
      "t_address": {
        "encoding": "inplace",
        "label": "address",
        "numberOfBytes": "20"
      },
      "t_array(t_uint256)49_storage": {
        "base": "t_uint256",
        "encoding": "inplace",
        "label": "uint256[49]",
        "numberOfBytes": "1568"
      },
      "t_array(t_uint256)50_storage": {
        "base": "t_uint256",
        "encoding": "inplace",
        "label": "uint256[50]",
        "numberOfBytes": "1600"
      },
      "t_bool": {
        "encoding": "inplace",
        "label": "bool",
        "numberOfBytes": "1"
      },
      "t_uint256": {
        "encoding": "inplace",
        "label": "uint256",
        "numberOfBytes": "32"
      }
    }
  }
}