{
  "address": "0xd684a7590561a67bfd5C4352eE013DB660169054",
  "abi": [
    {
      "anonymous": false,
      "inputs": [
        {
          "indexed": false,
          "internalType": "string",
          "name": "_asset",
          "type": "string"
        },
        {
          "indexed": false,
          "internalType": "bytes32",
          "name": "_selectorHash",
          "type": "bytes32"
        }
      ],
      "name": "LogAssetUpdated",
      "type": "event"
    },
    {
      "anonymous": false,
      "inputs": [
        {
          "indexed": false,
          "internalType": "string",
          "name": "_chain",
          "type": "string"
        },
        {
          "indexed": false,
          "internalType": "bytes32",
          "name": "_selectorHash",
          "type": "bytes32"
        }
      ],
      "name": "LogChainUpdated",
      "type": "event"
    },
    {
      "anonymous": false,
      "inputs": [
        {
          "indexed": false,
          "internalType": "string",
          "name": "recipientAddress",
          "type": "string"
        },
        {
          "indexed": false,
          "internalType": "string",
          "name": "recipientChain",
          "type": "string"
        },
        {
          "indexed": false,
          "internalType": "bytes",
          "name": "recipientPayload",
          "type": "bytes"
        },
        {
          "indexed": false,
          "internalType": "uint256",
          "name": "amount",
          "type": "uint256"
        },
        {
          "indexed": true,
          "internalType": "uint256",
          "name": "lockNonce",
          "type": "uint256"
        },
        {
          "indexed": true,
          "internalType": "string",
          "name": "recipientAddressIndexed",
          "type": "string"
        },
        {
          "indexed": true,
          "internalType": "string",
          "name": "recipientChainIndexed",
          "type": "string"
        }
      ],
      "name": "LogLockToChain",
      "type": "event"
    },
    {
      "anonymous": false,
      "inputs": [
        {
          "indexed": true,
          "internalType": "address",
          "name": "_newPreviousGateway",
          "type": "address"
        }
      ],
      "name": "LogPreviousGatewayUpdated",
      "type": "event"
    },
    {
      "anonymous": false,
      "inputs": [
        {
          "indexed": true,
          "internalType": "address",
          "name": "recipient",
          "type": "address"
        },
        {
          "indexed": false,
          "internalType": "uint256",
          "name": "amount",
          "type": "uint256"
        },
        {
          "indexed": true,
          "internalType": "bytes32",
          "name": "sigHash",
          "type": "bytes32"
        },
        {
          "indexed": true,
          "internalType": "bytes32",
          "name": "nHash",
          "type": "bytes32"
        }
      ],
      "name": "LogRelease",
      "type": "event"
    },
    {
      "anonymous": false,
      "inputs": [
        {
          "indexed": true,
          "internalType": "contract ISignatureVerifier",
          "name": "_newSignatureVerifier",
          "type": "address"
        }
      ],
      "name": "LogSignatureVerifierUpdated",
      "type": "event"
    },
    {
      "anonymous": false,
      "inputs": [
        {
          "indexed": true,
          "internalType": "address",
          "name": "_newToken",
          "type": "address"
        }
      ],
      "name": "LogTokenUpdated",
      "type": "event"
    },
    {
      "anonymous": false,
      "inputs": [
        {
          "indexed": true,
          "internalType": "address",
          "name": "previousOwner",
          "type": "address"
        },
        {
          "indexed": true,
          "internalType": "address",
          "name": "newOwner",
          "type": "address"
        }
      ],
      "name": "OwnershipTransferred",
      "type": "event"
    },
    {
      "inputs": [
        {
          "internalType": "string",
          "name": "chain_",
          "type": "string"
        },
        {
          "internalType": "string",
          "name": "asset_",
          "type": "string"
        },
        {
          "internalType": "address",
          "name": "signatureVerifier_",
          "type": "address"
        },
        {
          "internalType": "address",
          "name": "token_",
          "type": "address"
        }
      ],
      "name": "__GatewayStateManager_init",
      "outputs": [],
      "stateMutability": "nonpayable",
      "type": "function"
    },
    {
      "inputs": [
        {
          "internalType": "string",
          "name": "chain_",
          "type": "string"
        },
        {
          "internalType": "string",
          "name": "asset_",
          "type": "string"
        },
        {
          "internalType": "address",
          "name": "signatureVerifier_",
          "type": "address"
        },
        {
          "internalType": "address",
          "name": "token_",
          "type": "address"
        }
      ],
      "name": "__LockGateway_init",
      "outputs": [],
      "stateMutability": "nonpayable",
      "type": "function"
    },
    {
      "inputs": [],
      "name": "asset",
      "outputs": [
        {
          "internalType": "string",
          "name": "",
          "type": "string"
        }
      ],
      "stateMutability": "view",
      "type": "function"
    },
    {
      "inputs": [],
      "name": "chain",
      "outputs": [
        {
          "internalType": "string",
          "name": "",
          "type": "string"
        }
      ],
      "stateMutability": "view",
      "type": "function"
    },
    {
      "inputs": [],
      "name": "eventNonce",
      "outputs": [
        {
          "internalType": "uint256",
          "name": "",
          "type": "uint256"
        }
      ],
      "stateMutability": "view",
      "type": "function"
    },
    {
      "inputs": [
        {
          "internalType": "string",
          "name": "recipientAddress",
          "type": "string"
        },
        {
          "internalType": "string",
          "name": "recipientChain",
          "type": "string"
        },
        {
          "internalType": "bytes",
          "name": "recipientPayload",
          "type": "bytes"
        },
        {
          "internalType": "uint256",
          "name": "amount",
          "type": "uint256"
        }
      ],
      "name": "lock",
      "outputs": [
        {
          "internalType": "uint256",
          "name": "",
          "type": "uint256"
        }
      ],
      "stateMutability": "nonpayable",
      "type": "function"
    },
    {
      "inputs": [],
      "name": "owner",
      "outputs": [
        {
          "internalType": "address",
          "name": "",
          "type": "address"
        }
      ],
      "stateMutability": "view",
      "type": "function"
    },
    {
      "inputs": [],
      "name": "previousGateway",
      "outputs": [
        {
          "internalType": "address",
          "name": "",
          "type": "address"
        }
      ],
      "stateMutability": "view",
      "type": "function"
    },
    {
      "inputs": [
        {
          "internalType": "bytes32",
          "name": "pHash",
          "type": "bytes32"
        },
        {
          "internalType": "uint256",
          "name": "amount",
          "type": "uint256"
        },
        {
          "internalType": "bytes32",
          "name": "nHash",
          "type": "bytes32"
        },
        {
          "internalType": "bytes",
          "name": "sig",
          "type": "bytes"
        }
      ],
      "name": "release",
      "outputs": [
        {
          "internalType": "uint256",
          "name": "",
          "type": "uint256"
        }
      ],
      "stateMutability": "nonpayable",
      "type": "function"
    },
    {
      "inputs": [],
      "name": "renounceOwnership",
      "outputs": [],
      "stateMutability": "nonpayable",
      "type": "function"
    },
    {
      "inputs": [],
      "name": "selectorHash",
      "outputs": [
        {
          "internalType": "bytes32",
          "name": "",
          "type": "bytes32"
        }
      ],
      "stateMutability": "view",
      "type": "function"
    },
    {
      "inputs": [],
      "name": "signatureVerifier",
      "outputs": [
        {
          "internalType": "contract ISignatureVerifier",
          "name": "",
          "type": "address"
        }
      ],
      "stateMutability": "view",
      "type": "function"
    },
    {
      "inputs": [
        {
          "internalType": "bytes32",
          "name": "hash",
          "type": "bytes32"
        }
      ],
      "name": "status",
      "outputs": [
        {
          "internalType": "bool",
          "name": "",
          "type": "bool"
        }
      ],
      "stateMutability": "view",
      "type": "function"
    },
    {
      "inputs": [],
      "name": "token",
      "outputs": [
        {
          "internalType": "address",
          "name": "",
          "type": "address"
        }
      ],
      "stateMutability": "view",
      "type": "function"
    },
    {
      "inputs": [
        {
          "internalType": "address",
          "name": "newOwner",
          "type": "address"
        }
      ],
      "name": "transferOwnership",
      "outputs": [],
      "stateMutability": "nonpayable",
      "type": "function"
    },
    {
      "inputs": [
        {
          "internalType": "string",
          "name": "nextAsset",
          "type": "string"
        }
      ],
      "name": "updateAsset",
      "outputs": [],
      "stateMutability": "nonpayable",
      "type": "function"
    },
    {
      "inputs": [
        {
          "internalType": "string",
          "name": "nextChain",
          "type": "string"
        }
      ],
      "name": "updateChain",
      "outputs": [],
      "stateMutability": "nonpayable",
      "type": "function"
    },
    {
      "inputs": [
        {
          "internalType": "address",
          "name": "nextPreviousGateway",
          "type": "address"
        }
      ],
      "name": "updatePreviousGateway",
      "outputs": [],
      "stateMutability": "nonpayable",
      "type": "function"
    },
    {
      "inputs": [
        {
          "internalType": "contract ISignatureVerifier",
          "name": "nextSignatureVerifier",
          "type": "address"
        }
      ],
      "name": "updateSignatureVerifier",
      "outputs": [],
      "stateMutability": "nonpayable",
      "type": "function"
    },
    {
      "inputs": [
        {
          "internalType": "address",
          "name": "nextToken",
          "type": "address"
        }
      ],
      "name": "updateToken",
      "outputs": [],
      "stateMutability": "nonpayable",
      "type": "function"
    }
  ],
  "transactionHash": "0x29c39eb158091378538302e5cacb1f6b3d7481b5d3eb739446ad89380384e4e7",
  "args": [],
  "solcInputHash": "72c1e3a258e589d916db8b74aa851940",
  "bytecode": "0x608060405234801561001057600080fd5b5061353d806100206000396000f3fe608060405234801561001057600080fd5b506004361061012c5760003560e01c80639cffc715116100ad578063ca9d953211610071578063ca9d9532146102f5578063d489dc6c14610325578063f2fde38b14610343578063fc0c546a1461035f578063fde919f61461037d5761012c565b80639cffc71514610253578063aae8fdf014610283578063b2f2be9b1461029f578063c54216b4146102bb578063c763e5a1146102d75761012c565b806352ad0d5e116100f457806352ad0d5e146101c35780635667981b146101f3578063715018a61461020f5780637ad3def2146102195780638da5cb5b146102355761012c565b80631c3e6ee614610131578063205066421461014f578063297629761461016b57806338d52e0f146101895780635266ba0c146101a7575b600080fd5b61013961039b565b6040516101469190612d0d565b60405180910390f35b610169600480360381019061016491906123c8565b6103a5565b005b6101736104b2565b60405161018091906129c6565b60405180910390f35b6101916104bc565b60405161019e9190612ab1565b60405180910390f35b6101c160048036038101906101bc9190612244565b61054e565b005b6101dd60048036038101906101d8919061229e565b6106c1565b6040516101ea91906129ab565b60405180910390f35b61020d6004803603810190610208919061234e565b6107ce565b005b610217610941565b005b610233600480360381019061022e9190612244565b6109c9565b005b61023d610b3c565b60405161024a9190612930565b60405180910390f35b61026d600480360381019061026891906122cb565b610b66565b60405161027a9190612d0d565b60405180910390f35b61029d6004803603810190610298919061237b565b610d9d565b005b6102b960048036038101906102b491906123c8565b610fe3565b005b6102d560048036038101906102d0919061237b565b6110d8565b005b6102df61131e565b6040516102ec9190612ab1565b60405180910390f35b61030f600480360381019061030a919061246f565b6113b0565b60405161031c9190612d0d565b60405180910390f35b61032d6114c4565b60405161033a9190612930565b60405180910390f35b61035d60048036038101906103589190612244565b6114ee565b005b6103676115e6565b6040516103749190612930565b60405180910390f35b610385611610565b6040516103929190612a64565b60405180910390f35b6000606c54905090565b600060019054906101000a900460ff16806103cb575060008054906101000a900460ff16155b61040a576040517f08c379a000000000000000000000000000000000000000000000000000000000815260040161040190612c0d565b60405180910390fd5b60008060019054906101000a900460ff16159050801561045a576001600060016101000a81548160ff02191690831515021790555060016000806101000a81548160ff0219169083151502179055505b61046261163a565b61046c8787610d9d565b61047685856110d8565b61047f836107ce565b610488826109c9565b80156104a95760008060016101000a81548160ff0219169083151502179055505b50505050505050565b6000606754905090565b6060606680546104cb90612f63565b80601f01602080910402602001604051908101604052809291908181526020018280546104f790612f63565b80156105445780601f1061051957610100808354040283529160200191610544565b820191906000526020600020905b81548152906001019060200180831161052757829003601f168201915b5050505050905090565b610556611723565b73ffffffffffffffffffffffffffffffffffffffff16610574610b3c565b73ffffffffffffffffffffffffffffffffffffffff16146105ca576040517f08c379a00000000000000000000000000000000000000000000000000000000081526004016105c190612c2d565b60405180910390fd5b600073ffffffffffffffffffffffffffffffffffffffff168173ffffffffffffffffffffffffffffffffffffffff16141561063a576040517f08c379a000000000000000000000000000000000000000000000000000000000815260040161063190612bed565b60405180910390fd5b80606b60006101000a81548173ffffffffffffffffffffffffffffffffffffffff021916908373ffffffffffffffffffffffffffffffffffffffff1602179055508073ffffffffffffffffffffffffffffffffffffffff167f092a7f3d3a91b47e57583d808f4454c082a9c49b2582f836f5a301e982a2d04d60405160405180910390a250565b60006068600083815260200190815260200160002060009054906101000a900460ff16156106f257600190506107c9565b60006106fc6114c4565b9050600073ffffffffffffffffffffffffffffffffffffffff168173ffffffffffffffffffffffffffffffffffffffff16146107c3578073ffffffffffffffffffffffffffffffffffffffff166352ad0d5e846040518263ffffffff1660e01b815260040161076b91906129c6565b60206040518083038186803b15801561078357600080fd5b505afa158015610797573d6000803e3d6000fd5b505050506040513d601f19601f820116820180604052508101906107bb9190612271565b9150506107c9565b60009150505b919050565b6107d6611723565b73ffffffffffffffffffffffffffffffffffffffff166107f4610b3c565b73ffffffffffffffffffffffffffffffffffffffff161461084a576040517f08c379a000000000000000000000000000000000000000000000000000000000815260040161084190612c2d565b60405180910390fd5b600073ffffffffffffffffffffffffffffffffffffffff168173ffffffffffffffffffffffffffffffffffffffff1614156108ba576040517f08c379a00000000000000000000000000000000000000000000000000000000081526004016108b190612ced565b60405180910390fd5b80606a60006101000a81548173ffffffffffffffffffffffffffffffffffffffff021916908373ffffffffffffffffffffffffffffffffffffffff1602179055508073ffffffffffffffffffffffffffffffffffffffff167fb57359628f7b44e9842ff204fb5700f84d8c4f9c3fc9dae13e7a1aab8ed164f760405160405180910390a250565b610949611723565b73ffffffffffffffffffffffffffffffffffffffff16610967610b3c565b73ffffffffffffffffffffffffffffffffffffffff16146109bd576040517f08c379a00000000000000000000000000000000000000000000000000000000081526004016109b490612c2d565b60405180910390fd5b6109c7600061172b565b565b6109d1611723565b73ffffffffffffffffffffffffffffffffffffffff166109ef610b3c565b73ffffffffffffffffffffffffffffffffffffffff1614610a45576040517f08c379a0000000000000000000000000000000000000000000000000000000008152600401610a3c90612c2d565b60405180910390fd5b600073ffffffffffffffffffffffffffffffffffffffff168173ffffffffffffffffffffffffffffffffffffffff161415610ab5576040517f08c379a0000000000000000000000000000000000000000000000000000000008152600401610aac90612bcd565b60405180910390fd5b80606960006101000a81548173ffffffffffffffffffffffffffffffffffffffff021916908373ffffffffffffffffffffffffffffffffffffffff1602179055508073ffffffffffffffffffffffffffffffffffffffff167f02dec22a3d1e8f9cdc0c7cd17ecee187f635788c40755be0a72dcd86a05e564d60405160405180910390a250565b6000603360009054906101000a900473ffffffffffffffffffffffffffffffffffffffff16905090565b600080610b7d8686610b766104b2565b33886117f1565b905060001515610b8c826106c1565b1515148015610ba7575060001515610ba3856106c1565b1515145b610be6576040517f08c379a0000000000000000000000000000000000000000000000000000000008152600401610bdd90612ccd565b60405180910390fd5b610bee611610565b73ffffffffffffffffffffffffffffffffffffffff1663daca6f7882856040518363ffffffff1660e01b8152600401610c289291906129e1565b60206040518083038186803b158015610c4057600080fd5b505afa158015610c54573d6000803e3d6000fd5b505050506040513d601f19601f82011682018060405250810190610c789190612271565b610cb7576040517f08c379a0000000000000000000000000000000000000000000000000000000008152600401610cae90612c4d565b60405180910390fd5b60016068600083815260200190815260200160002060006101000a81548160ff02191690831515021790555060016068600086815260200190815260200160002060006101000a81548160ff021916908315150217905550610d413386610d1c6115e6565b73ffffffffffffffffffffffffffffffffffffffff1661182d9092919063ffffffff16565b83813373ffffffffffffffffffffffffffffffffffffffff167f9a0e734b1a87920f1af4cb8617268e9e5979afa7f36a620a4f90206f0ca57d4c88604051610d899190612d0d565b60405180910390a484915050949350505050565b610da5611723565b73ffffffffffffffffffffffffffffffffffffffff16610dc3610b3c565b73ffffffffffffffffffffffffffffffffffffffff1614610e19576040517f08c379a0000000000000000000000000000000000000000000000000000000008152600401610e1090612c2d565b60405180910390fd5b610e6682828080601f016020809104026020016040519081016040528093929190818152602001838380828437600081840152601f19601f820116905080830192505050505050506118b3565b610ea5576040517f08c379a0000000000000000000000000000000000000000000000000000000008152600401610e9c90612cad565b60405180910390fd5b610ef282828080601f016020809104026020016040519081016040528093929190818152602001838380828437600081840152601f19601f820116905080830192505050505050506118c0565b610f31576040517f08c379a0000000000000000000000000000000000000000000000000000000008152600401610f2890612b2d565b60405180910390fd5b818160659190610f42929190611fed565b506000610f9a610f506104bc565b84848080601f016020809104026020016040519081016040528093929190818152602001838380828437600081840152601f19601f8201169050808301925050505050505061197a565b9050806067819055507f4dc1740772ca26480ca22d412de18818650c980e3aef84a3ca49cbe4fa4ed880838383604051610fd693929190612a7f565b60405180910390a1505050565b600060019054906101000a900460ff1680611009575060008054906101000a900460ff16155b611048576040517f08c379a000000000000000000000000000000000000000000000000000000000815260040161103f90612c0d565b60405180910390fd5b60008060019054906101000a900460ff161590508015611098576001600060016101000a81548160ff02191690831515021790555060016000806101000a81548160ff0219169083151502179055505b6110a061163a565b6110ae8787878787876103a5565b80156110cf5760008060016101000a81548160ff0219169083151502179055505b50505050505050565b6110e0611723565b73ffffffffffffffffffffffffffffffffffffffff166110fe610b3c565b73ffffffffffffffffffffffffffffffffffffffff1614611154576040517f08c379a000000000000000000000000000000000000000000000000000000000815260040161114b90612c2d565b60405180910390fd5b6111a182828080601f016020809104026020016040519081016040528093929190818152602001838380828437600081840152601f19601f820116905080830192505050505050506118b3565b6111e0576040517f08c379a00000000000000000000000000000000000000000000000000000000081526004016111d790612b6d565b60405180910390fd5b61122d82828080601f016020809104026020016040519081016040528093929190818152602001838380828437600081840152601f19601f820116905080830192505050505050506118c0565b61126c576040517f08c379a000000000000000000000000000000000000000000000000000000000815260040161126390612b2d565b60405180910390fd5b81816066919061127d929190611fed565b5060006112d583838080601f016020809104026020016040519081016040528093929190818152602001838380828437600081840152601f19601f820116905080830192505050505050506112d061131e565b61197a565b9050806067819055507f2e7c1f9bcc3b09d8e05594ab5d17b6c9b15b24cd506c5212f051f22990d0813183838360405161131193929190612a7f565b60405180910390a1505050565b60606065805461132d90612f63565b80601f016020809104026020016040519081016040528092919081815260200182805461135990612f63565b80156113a65780601f1061137b576101008083540402835291602001916113a6565b820191906000526020600020905b81548152906001019060200180831161138957829003601f168201915b5050505050905090565b600080855114156113f6576040517f08c379a00000000000000000000000000000000000000000000000000000000081526004016113ed90612b8d565b60405180910390fd5b600061142c3330856114066115e6565b73ffffffffffffffffffffffffffffffffffffffff166119ad909392919063ffffffff16565b9050600061143861039b565b90508560405161144891906128ea565b60405180910390208760405161145e91906128ea565b6040518091039020827fc06237815e14163806cc5c2447bc785b639c2f8b1f3f23872f226e5c31adb9958a8a8a8860405161149c9493929190612ad3565b60405180910390a46001816114b19190612dfd565b606c819055508392505050949350505050565b6000606b60009054906101000a900473ffffffffffffffffffffffffffffffffffffffff16905090565b6114f6611723565b73ffffffffffffffffffffffffffffffffffffffff16611514610b3c565b73ffffffffffffffffffffffffffffffffffffffff161461156a576040517f08c379a000000000000000000000000000000000000000000000000000000000815260040161156190612c2d565b60405180910390fd5b600073ffffffffffffffffffffffffffffffffffffffff168173ffffffffffffffffffffffffffffffffffffffff1614156115da576040517f08c379a00000000000000000000000000000000000000000000000000000000081526004016115d190612b4d565b60405180910390fd5b6115e38161172b565b50565b6000606960009054906101000a900473ffffffffffffffffffffffffffffffffffffffff16905090565b6000606a60009054906101000a900473ffffffffffffffffffffffffffffffffffffffff16905090565b600060019054906101000a900460ff1680611660575060008054906101000a900460ff16155b61169f576040517f08c379a000000000000000000000000000000000000000000000000000000000815260040161169690612c0d565b60405180910390fd5b60008060019054906101000a900460ff1615905080156116ef576001600060016101000a81548160ff02191690831515021790555060016000806101000a81548160ff0219169083151502179055505b6116f7611b1c565b6116ff611bf5565b80156117205760008060016101000a81548160ff0219169083151502179055505b50565b600033905090565b6000603360009054906101000a900473ffffffffffffffffffffffffffffffffffffffff16905081603360006101000a81548173ffffffffffffffffffffffffffffffffffffffff021916908373ffffffffffffffffffffffffffffffffffffffff1602179055508173ffffffffffffffffffffffffffffffffffffffff168173ffffffffffffffffffffffffffffffffffffffff167f8be0079c531659141344cd1fd0a4f28419497f9722a3daafe3b4186f6b6457e060405160405180910390a35050565b6000858585858560405160200161180c959493929190612a11565b60405160208183030381529060405280519060200120905095945050505050565b6118ae8363a9059cbb60e01b848460405160240161184c929190612982565b604051602081830303815290604052907bffffffffffffffffffffffffffffffffffffffffffffffffffffffff19166020820180517bffffffffffffffffffffffffffffffffffffffffffffffffffffffff8381831617835250505050611cde565b505050565b6000808251119050919050565b600080600090505b825181101561196f5760008382815181106118e6576118e561306d565b5b602001015160f81c60f81b60f81c905060418160ff161015801561190e5750605a8160ff1611155b8061192d575060618160ff161015801561192c5750607a8160ff1611155b5b8061194c575060308160ff161015801561194b575060398160ff1611155b5b61195b57600092505050611975565b50808061196790612fc6565b9150506118c8565b50600190505b919050565b6000828260405160200161198f929190612901565b60405160208183030381529060405280519060200120905092915050565b6000808573ffffffffffffffffffffffffffffffffffffffff166370a08231856040518263ffffffff1660e01b81526004016119e99190612930565b60206040518083038186803b158015611a0157600080fd5b505afa158015611a15573d6000803e3d6000fd5b505050506040513d601f19601f82011682018060405250810190611a39919061252a565b9050611a688585858973ffffffffffffffffffffffffffffffffffffffff16611da5909392919063ffffffff16565b60008673ffffffffffffffffffffffffffffffffffffffff166370a08231866040518263ffffffff1660e01b8152600401611aa39190612930565b60206040518083038186803b158015611abb57600080fd5b505afa158015611acf573d6000803e3d6000fd5b505050506040513d601f19601f82011682018060405250810190611af3919061252a565b905060008282611b039190612e53565b9050611b0f8582611e2e565b9350505050949350505050565b600060019054906101000a900460ff1680611b42575060008054906101000a900460ff16155b611b81576040517f08c379a0000000000000000000000000000000000000000000000000000000008152600401611b7890612c0d565b60405180910390fd5b60008060019054906101000a900460ff161590508015611bd1576001600060016101000a81548160ff02191690831515021790555060016000806101000a81548160ff0219169083151502179055505b8015611bf25760008060016101000a81548160ff0219169083151502179055505b50565b600060019054906101000a900460ff1680611c1b575060008054906101000a900460ff16155b611c5a576040517f08c379a0000000000000000000000000000000000000000000000000000000008152600401611c5190612c0d565b60405180910390fd5b60008060019054906101000a900460ff161590508015611caa576001600060016101000a81548160ff02191690831515021790555060016000806101000a81548160ff0219169083151502179055505b611cba611cb5611723565b61172b565b8015611cdb5760008060016101000a81548160ff0219169083151502179055505b50565b6000611d40826040518060400160405280602081526020017f5361666545524332303a206c6f772d6c6576656c2063616c6c206661696c65648152508573ffffffffffffffffffffffffffffffffffffffff16611e479092919063ffffffff16565b9050600081511115611da05780806020019051810190611d609190612271565b611d9f576040517f08c379a0000000000000000000000000000000000000000000000000000000008152600401611d9690612c8d565b60405180910390fd5b5b505050565b611e28846323b872dd60e01b858585604051602401611dc69392919061294b565b604051602081830303815290604052907bffffffffffffffffffffffffffffffffffffffffffffffffffffffff19166020820180517bffffffffffffffffffffffffffffffffffffffffffffffffffffffff8381831617835250505050611cde565b50505050565b6000818310611e3d5781611e3f565b825b905092915050565b6060611e568484600085611e5f565b90509392505050565b606082471015611ea4576040517f08c379a0000000000000000000000000000000000000000000000000000000008152600401611e9b90612bad565b60405180910390fd5b611ead85611f73565b611eec576040517f08c379a0000000000000000000000000000000000000000000000000000000008152600401611ee390612c6d565b60405180910390fd5b6000808673ffffffffffffffffffffffffffffffffffffffff168587604051611f1591906128d3565b60006040518083038185875af1925050503d8060008114611f52576040519150601f19603f3d011682016040523d82523d6000602084013e611f57565b606091505b5091509150611f67828286611f86565b92505050949350505050565b600080823b905060008111915050919050565b60608315611f9657829050611fe6565b600083511115611fa95782518084602001fd5b816040517f08c379a0000000000000000000000000000000000000000000000000000000008152600401611fdd9190612ab1565b60405180910390fd5b9392505050565b828054611ff990612f63565b90600052602060002090601f01602090048101928261201b5760008555612062565b82601f1061203457803560ff1916838001178555612062565b82800160010185558215612062579182015b82811115612061578235825591602001919060010190612046565b5b50905061206f9190612073565b5090565b5b8082111561208c576000816000905550600101612074565b5090565b60006120a361209e84612d4d565b612d28565b9050828152602081018484840111156120bf576120be6130da565b5b6120ca848285612f21565b509392505050565b60006120e56120e084612d7e565b612d28565b905082815260208101848484011115612101576121006130da565b5b61210c848285612f21565b509392505050565b60008135905061212381613494565b92915050565b600081519050612138816134ab565b92915050565b60008135905061214d816134c2565b92915050565b600082601f830112612168576121676130d0565b5b8135612178848260208601612090565b91505092915050565b600081359050612190816134d9565b92915050565b60008083601f8401126121ac576121ab6130d0565b5b8235905067ffffffffffffffff8111156121c9576121c86130cb565b5b6020830191508360018202830111156121e5576121e46130d5565b5b9250929050565b600082601f830112612201576122006130d0565b5b81356122118482602086016120d2565b91505092915050565b600081359050612229816134f0565b92915050565b60008151905061223e816134f0565b92915050565b60006020828403121561225a576122596130e4565b5b600061226884828501612114565b91505092915050565b600060208284031215612287576122866130e4565b5b600061229584828501612129565b91505092915050565b6000602082840312156122b4576122b36130e4565b5b60006122c28482850161213e565b91505092915050565b600080600080608085870312156122e5576122e46130e4565b5b60006122f38782880161213e565b94505060206123048782880161221a565b93505060406123158782880161213e565b925050606085013567ffffffffffffffff811115612336576123356130df565b5b61234287828801612153565b91505092959194509250565b600060208284031215612364576123636130e4565b5b600061237284828501612181565b91505092915050565b60008060208385031215612392576123916130e4565b5b600083013567ffffffffffffffff8111156123b0576123af6130df565b5b6123bc85828601612196565b92509250509250929050565b600080600080600080608087890312156123e5576123e46130e4565b5b600087013567ffffffffffffffff811115612403576124026130df565b5b61240f89828a01612196565b9650965050602087013567ffffffffffffffff811115612432576124316130df565b5b61243e89828a01612196565b9450945050604061245189828a01612114565b925050606061246289828a01612114565b9150509295509295509295565b60008060008060808587031215612489576124886130e4565b5b600085013567ffffffffffffffff8111156124a7576124a66130df565b5b6124b3878288016121ec565b945050602085013567ffffffffffffffff8111156124d4576124d36130df565b5b6124e0878288016121ec565b935050604085013567ffffffffffffffff811115612501576125006130df565b5b61250d87828801612153565b925050606061251e8782880161221a565b91505092959194509250565b6000602082840312156125405761253f6130e4565b5b600061254e8482850161222f565b91505092915050565b61256081612e87565b82525050565b61256f81612e99565b82525050565b61257e81612ea5565b82525050565b600061258f82612daf565b6125998185612dc5565b93506125a9818560208601612f30565b6125b2816130e9565b840191505092915050565b60006125c882612daf565b6125d28185612dd6565b93506125e2818560208601612f30565b80840191505092915050565b6125f781612eeb565b82525050565b60006126098385612de1565b9350612616838584612f21565b61261f836130e9565b840190509392505050565b600061263582612dba565b61263f8185612de1565b935061264f818560208601612f30565b612658816130e9565b840191505092915050565b600061266e82612dba565b6126788185612df2565b9350612688818560208601612f30565b80840191505092915050565b60006126a1602483612de1565b91506126ac826130fa565b604082019050919050565b60006126c4602683612de1565b91506126cf82613149565b604082019050919050565b60006126e7601d83612de1565b91506126f282613198565b602082019050919050565b600061270a602083612de1565b9150612715826131c1565b602082019050919050565b600061272d602683612de1565b9150612738826131ea565b604082019050919050565b6000612750601683612de1565b915061275b82613239565b602082019050919050565b6000612773601883612de1565b915061277e82613262565b602082019050919050565b6000612796602e83612de1565b91506127a18261328b565b604082019050919050565b60006127b9602083612de1565b91506127c4826132da565b602082019050919050565b60006127dc601e83612de1565b91506127e782613303565b602082019050919050565b60006127ff601d83612de1565b915061280a8261332c565b602082019050919050565b6000612822600383612df2565b915061282d82613355565b600382019050919050565b6000612845602a83612de1565b91506128508261337e565b604082019050919050565b6000612868601d83612de1565b9150612873826133cd565b602082019050919050565b600061288b602483612de1565b9150612896826133f6565b604082019050919050565b60006128ae602383612de1565b91506128b982613445565b604082019050919050565b6128cd81612ee1565b82525050565b60006128df82846125bd565b915081905092915050565b60006128f68284612663565b915081905092915050565b600061290d8285612663565b915061291882612815565b91506129248284612663565b91508190509392505050565b60006020820190506129456000830184612557565b92915050565b60006060820190506129606000830186612557565b61296d6020830185612557565b61297a60408301846128c4565b949350505050565b60006040820190506129976000830185612557565b6129a460208301846128c4565b9392505050565b60006020820190506129c06000830184612566565b92915050565b60006020820190506129db6000830184612575565b92915050565b60006040820190506129f66000830185612575565b8181036020830152612a088184612584565b90509392505050565b600060a082019050612a266000830188612575565b612a3360208301876128c4565b612a406040830186612575565b612a4d6060830185612557565b612a5a6080830184612575565b9695505050505050565b6000602082019050612a7960008301846125ee565b92915050565b60006040820190508181036000830152612a9a8185876125fd565b9050612aa96020830184612575565b949350505050565b60006020820190508181036000830152612acb818461262a565b905092915050565b60006080820190508181036000830152612aed818761262a565b90508181036020830152612b01818661262a565b90508181036040830152612b158185612584565b9050612b2460608301846128c4565b95945050505050565b60006020820190508181036000830152612b4681612694565b9050919050565b60006020820190508181036000830152612b66816126b7565b9050919050565b60006020820190508181036000830152612b86816126da565b9050919050565b60006020820190508181036000830152612ba6816126fd565b9050919050565b60006020820190508181036000830152612bc681612720565b9050919050565b60006020820190508181036000830152612be681612743565b9050919050565b60006020820190508181036000830152612c0681612766565b9050919050565b60006020820190508181036000830152612c2681612789565b9050919050565b60006020820190508181036000830152612c46816127ac565b9050919050565b60006020820190508181036000830152612c66816127cf565b9050919050565b60006020820190508181036000830152612c86816127f2565b9050919050565b60006020820190508181036000830152612ca681612838565b9050919050565b60006020820190508181036000830152612cc68161285b565b9050919050565b60006020820190508181036000830152612ce68161287e565b9050919050565b60006020820190508181036000830152612d06816128a1565b9050919050565b6000602082019050612d2260008301846128c4565b92915050565b6000612d32612d43565b9050612d3e8282612f95565b919050565b6000604051905090565b600067ffffffffffffffff821115612d6857612d6761309c565b5b612d71826130e9565b9050602081019050919050565b600067ffffffffffffffff821115612d9957612d9861309c565b5b612da2826130e9565b9050602081019050919050565b600081519050919050565b600081519050919050565b600082825260208201905092915050565b600081905092915050565b600082825260208201905092915050565b600081905092915050565b6000612e0882612ee1565b9150612e1383612ee1565b9250827fffffffffffffffffffffffffffffffffffffffffffffffffffffffffffffffff03821115612e4857612e4761300f565b5b828201905092915050565b6000612e5e82612ee1565b9150612e6983612ee1565b925082821015612e7c57612e7b61300f565b5b828203905092915050565b6000612e9282612ec1565b9050919050565b60008115159050919050565b6000819050919050565b6000612eba82612e87565b9050919050565b600073ffffffffffffffffffffffffffffffffffffffff82169050919050565b6000819050919050565b6000612ef682612efd565b9050919050565b6000612f0882612f0f565b9050919050565b6000612f1a82612ec1565b9050919050565b82818337600083830152505050565b60005b83811015612f4e578082015181840152602081019050612f33565b83811115612f5d576000848401525b50505050565b60006002820490506001821680612f7b57607f821691505b60208210811415612f8f57612f8e61303e565b5b50919050565b612f9e826130e9565b810181811067ffffffffffffffff82111715612fbd57612fbc61309c565b5b80604052505050565b6000612fd182612ee1565b91507fffffffffffffffffffffffffffffffffffffffffffffffffffffffffffffffff8214156130045761300361300f565b5b600182019050919050565b7f4e487b7100000000000000000000000000000000000000000000000000000000600052601160045260246000fd5b7f4e487b7100000000000000000000000000000000000000000000000000000000600052602260045260246000fd5b7f4e487b7100000000000000000000000000000000000000000000000000000000600052603260045260246000fd5b7f4e487b7100000000000000000000000000000000000000000000000000000000600052604160045260246000fd5b600080fd5b600080fd5b600080fd5b600080fd5b600080fd5b600080fd5b6000601f19601f8301169050919050565b7f476174657761793a2073796d626f6c206d75737420626520616c7068616e756d60008201527f6572696300000000000000000000000000000000000000000000000000000000602082015250565b7f4f776e61626c653a206e6577206f776e657220697320746865207a65726f206160008201527f6464726573730000000000000000000000000000000000000000000000000000602082015250565b7f476174657761793a2061737365742063616e277420626520656d707479000000600082015250565b7f4c6f636b476174657761793a20746f206164647265737320697320656d707479600082015250565b7f416464726573733a20696e73756666696369656e742062616c616e636520666f60008201527f722063616c6c0000000000000000000000000000000000000000000000000000602082015250565b7f476174657761793a20696e76616c696420746f6b656e00000000000000000000600082015250565b7f476174657761793a20696e76616c696420616464726573730000000000000000600082015250565b7f496e697469616c697a61626c653a20636f6e747261637420697320616c72656160008201527f647920696e697469616c697a6564000000000000000000000000000000000000602082015250565b7f4f776e61626c653a2063616c6c6572206973206e6f7420746865206f776e6572600082015250565b7f4c6f636b476174657761793a20696e76616c6964207369676e61747572650000600082015250565b7f416464726573733a2063616c6c20746f206e6f6e2d636f6e7472616374000000600082015250565b7f2f746f0000000000000000000000000000000000000000000000000000000000600082015250565b7f5361666545524332303a204552433230206f7065726174696f6e20646964206e60008201527f6f74207375636365656400000000000000000000000000000000000000000000602082015250565b7f476174657761793a20636861696e2063616e277420626520656d707479000000600082015250565b7f4c6f636b476174657761793a207369676e617475726520616c7265616479207360008201527f70656e7400000000000000000000000000000000000000000000000000000000602082015250565b7f476174657761793a20696e76616c6964207369676e617475726520766572696660008201527f6965720000000000000000000000000000000000000000000000000000000000602082015250565b61349d81612e87565b81146134a857600080fd5b50565b6134b481612e99565b81146134bf57600080fd5b50565b6134cb81612ea5565b81146134d657600080fd5b50565b6134e281612eaf565b81146134ed57600080fd5b50565b6134f981612ee1565b811461350457600080fd5b5056fea2646970667358221220a6b38c6ae5039e7ff2f2770b89766c61e09e118676dfd9ca8ce82b182a9b3c7d64736f6c63430008070033",
  "devdoc": {
    "kind": "dev",
    "methods": {
      "lock(string,string,bytes,uint256)": {
        "params": {
          "amount": "The amount of the token being locked, in the asset's        smallest unit. (e.g. satoshis for BTC)",
          "recipientAddress": "The address to which the locked assets will be        minted to. The address should be a plain-text address, without        decoding to bytes first.",
          "recipientChain": "The target chain to which the assets are being        moved to.",
          "recipientPayload": "An optional payload to be passed to the        recipient chain along with the address."
        }
      },
      "owner()": {
        "details": "Returns the address of the current owner."
      },
      "release(bytes32,uint256,bytes32,bytes)": {
        "params": {
          "amount": "The amount of the token being minted, in its smallest        value. (e.g. satoshis for BTC).",
          "nHash": "(nonce hash) The hash of the nonce, amount and pHash.",
          "pHash": "(payload hash) The hash of the payload associated with the        mint.",
          "sig": "The signature of the hash of the following values:        (pHash, amount, msg.sender, nHash), signed by the mintAuthority."
        }
      },
      "renounceOwnership()": {
        "details": "Leaves the contract without owner. It will not be possible to call `onlyOwner` functions anymore. Can only be called by the current owner. NOTE: Renouncing ownership will leave the contract without an owner, thereby removing any functionality that is only available to the owner."
      },
      "transferOwnership(address)": {
        "details": "Transfers ownership of the contract to a new account (`newOwner`). Can only be called by the current owner."
      },
      "updateAsset(string)": {
        "params": {
          "nextAsset": "The new asset."
        }
      },
      "updateChain(string)": {
        "params": {
          "nextChain": "The new chain."
        }
      },
      "updatePreviousGateway(address)": {
        "params": {
          "nextPreviousGateway": "The new gateway contract's address."
        }
      },
      "updateSignatureVerifier(address)": {
        "params": {
          "nextSignatureVerifier": "The new verifier contract address."
        }
      },
      "updateToken(address)": {
        "params": {
          "nextToken": "The new ERC20 token contract's address."
        }
      }
    },
    "version": 1
  },
  "userdoc": {
    "kind": "user",
    "methods": {
      "lock(string,string,bytes,uint256)": {
        "notice": "burn destroys tokens after taking a fee for the `_feeRecipient`,         allowing the associated assets to be released on their native         chain."
      },
      "release(bytes32,uint256,bytes32,bytes)": {
        "notice": "mint verifies a mint approval signature from RenVM and creates         tokens after taking a fee for the `_feeRecipient`."
      },
      "updateAsset(string)": {
        "notice": "Allow the owner to update the asset."
      },
      "updateChain(string)": {
        "notice": "Allow the owner to update the chain."
      },
      "updatePreviousGateway(address)": {
        "notice": "Allow the owner to update the previous gateway used for backwards compatibility."
      },
      "updateSignatureVerifier(address)": {
        "notice": "Allow the owner to update the signature verifier contract."
      },
      "updateToken(address)": {
        "notice": "Allow the owner to update the ERC20 token contract."
      }
    },
    "notice": "Gateway handles verifying mint and burn requests. A mintAuthority approves new assets to be minted by providing a digital signature. An owner of an asset can request for it to be burnt.",
    "version": 1
  },
  "storageLayout": {
    "storage": [
      {
        "astId": 773,
        "contract": "src/Gateways/LockGateway.sol:LockGatewayV3",
        "label": "_initialized",
        "offset": 0,
        "slot": "0",
        "type": "t_bool"
      },
      {
        "astId": 776,
        "contract": "src/Gateways/LockGateway.sol:LockGatewayV3",
        "label": "_initializing",
        "offset": 1,
        "slot": "0",
        "type": "t_bool"
      },
      {
        "astId": 1994,
        "contract": "src/Gateways/LockGateway.sol:LockGatewayV3",
        "label": "__gap",
        "offset": 0,
        "slot": "1",
        "type": "t_array(t_uint256)50_storage"
      },
      {
        "astId": 653,
        "contract": "src/Gateways/LockGateway.sol:LockGatewayV3",
        "label": "_owner",
        "offset": 0,
        "slot": "51",
        "type": "t_address"
      },
      {
        "astId": 766,
        "contract": "src/Gateways/LockGateway.sol:LockGatewayV3",
        "label": "__gap",
        "offset": 0,
        "slot": "52",
        "type": "t_array(t_uint256)49_storage"
      },
      {
        "astId": 8399,
        "contract": "src/Gateways/LockGateway.sol:LockGatewayV3",
        "label": "_chain",
        "offset": 0,
        "slot": "101",
        "type": "t_string_storage"
      },
      {
        "astId": 8401,
        "contract": "src/Gateways/LockGateway.sol:LockGatewayV3",
        "label": "_asset",
        "offset": 0,
        "slot": "102",
        "type": "t_string_storage"
      },
      {
        "astId": 8403,
        "contract": "src/Gateways/LockGateway.sol:LockGatewayV3",
        "label": "_selectorHash",
        "offset": 0,
        "slot": "103",
        "type": "t_bytes32"
      },
      {
        "astId": 8408,
        "contract": "src/Gateways/LockGateway.sol:LockGatewayV3",
        "label": "_status",
        "offset": 0,
        "slot": "104",
        "type": "t_mapping(t_bytes32,t_bool)"
      },
      {
        "astId": 8411,
        "contract": "src/Gateways/LockGateway.sol:LockGatewayV3",
        "label": "_token",
        "offset": 0,
        "slot": "105",
        "type": "t_address"
      },
      {
        "astId": 8414,
        "contract": "src/Gateways/LockGateway.sol:LockGatewayV3",
        "label": "_signatureVerifier",
        "offset": 0,
        "slot": "106",
        "type": "t_contract(ISignatureVerifier)8929"
      },
      {
        "astId": 8416,
        "contract": "src/Gateways/LockGateway.sol:LockGatewayV3",
        "label": "_previousGateway",
        "offset": 0,
        "slot": "107",
        "type": "t_address"
      },
      {
        "astId": 8418,
        "contract": "src/Gateways/LockGateway.sol:LockGatewayV3",
        "label": "_eventNonce",
        "offset": 0,
        "slot": "108",
        "type": "t_uint256"
      },
      {
        "astId": 8422,
        "contract": "src/Gateways/LockGateway.sol:LockGatewayV3",
        "label": "__gap",
        "offset": 0,
        "slot": "109",
        "type": "t_array(t_uint256)43_storage"
      }
    ],
    "types": {
      "t_address": {
        "encoding": "inplace",
        "label": "address",
        "numberOfBytes": "20"
      },
      "t_array(t_uint256)43_storage": {
        "base": "t_uint256",
        "encoding": "inplace",
        "label": "uint256[43]",
        "numberOfBytes": "1376"
      },
      "t_array(t_uint256)49_storage": {
        "base": "t_uint256",
        "encoding": "inplace",
        "label": "uint256[49]",
        "numberOfBytes": "1568"
      },
      "t_array(t_uint256)50_storage": {
        "base": "t_uint256",
        "encoding": "inplace",
        "label": "uint256[50]",
        "numberOfBytes": "1600"
      },
      "t_bool": {
        "encoding": "inplace",
        "label": "bool",
        "numberOfBytes": "1"
      },
      "t_bytes32": {
        "encoding": "inplace",
        "label": "bytes32",
        "numberOfBytes": "32"
      },
      "t_contract(ISignatureVerifier)8929": {
        "encoding": "inplace",
        "label": "contract ISignatureVerifier",
        "numberOfBytes": "20"
      },
      "t_mapping(t_bytes32,t_bool)": {
        "encoding": "mapping",
        "key": "t_bytes32",
        "label": "mapping(bytes32 => bool)",
        "numberOfBytes": "32",
        "value": "t_bool"
      },
      "t_string_storage": {
        "encoding": "bytes",
        "label": "string",
        "numberOfBytes": "32"
      },
      "t_uint256": {
        "encoding": "inplace",
        "label": "uint256",
        "numberOfBytes": "32"
      }
    }
  }
}