{
  "address": "0x210cE34bE041fACb8391610Cd5734F7A66FA448A",
  "abi": [
    {
      "anonymous": false,
      "inputs": [
        {
          "indexed": false,
          "internalType": "string",
          "name": "_asset",
          "type": "string"
        },
        {
          "indexed": false,
          "internalType": "bytes32",
          "name": "_selectorHash",
          "type": "bytes32"
        }
      ],
      "name": "LogAssetUpdated",
      "type": "event"
    },
    {
      "anonymous": false,
      "inputs": [
        {
          "indexed": false,
          "internalType": "bytes",
          "name": "to",
          "type": "bytes"
        },
        {
          "indexed": false,
          "internalType": "uint256",
          "name": "amount",
          "type": "uint256"
        },
        {
          "indexed": true,
          "internalType": "uint256",
          "name": "burnNonce",
          "type": "uint256"
        },
        {
          "indexed": true,
          "internalType": "bytes",
          "name": "indexedTo",
          "type": "bytes"
        }
      ],
      "name": "LogBurn",
      "type": "event"
    },
    {
      "anonymous": false,
      "inputs": [
        {
          "indexed": false,
          "internalType": "string",
          "name": "recipientAddress",
          "type": "string"
        },
        {
          "indexed": false,
          "internalType": "string",
          "name": "recipientChain",
          "type": "string"
        },
        {
          "indexed": false,
          "internalType": "bytes",
          "name": "recipientPayload",
          "type": "bytes"
        },
        {
          "indexed": false,
          "internalType": "uint256",
          "name": "amount",
          "type": "uint256"
        },
        {
          "indexed": true,
          "internalType": "uint256",
          "name": "burnNonce",
          "type": "uint256"
        },
        {
          "indexed": true,
          "internalType": "string",
          "name": "recipientAddressIndexed",
          "type": "string"
        },
        {
          "indexed": true,
          "internalType": "string",
          "name": "recipientChainIndexed",
          "type": "string"
        }
      ],
      "name": "LogBurnToChain",
      "type": "event"
    },
    {
      "anonymous": false,
      "inputs": [
        {
          "indexed": false,
          "internalType": "string",
          "name": "_chain",
          "type": "string"
        },
        {
          "indexed": false,
          "internalType": "bytes32",
          "name": "_selectorHash",
          "type": "bytes32"
        }
      ],
      "name": "LogChainUpdated",
      "type": "event"
    },
    {
      "anonymous": false,
      "inputs": [
        {
          "indexed": true,
          "internalType": "address",
          "name": "to",
          "type": "address"
        },
        {
          "indexed": false,
          "internalType": "uint256",
          "name": "amount",
          "type": "uint256"
        },
        {
          "indexed": true,
          "internalType": "uint256",
          "name": "sigHash",
          "type": "uint256"
        },
        {
          "indexed": true,
          "internalType": "bytes32",
          "name": "nHash",
          "type": "bytes32"
        }
      ],
      "name": "LogMint",
      "type": "event"
    },
    {
      "anonymous": false,
      "inputs": [
        {
          "indexed": true,
          "internalType": "address",
          "name": "_newPreviousGateway",
          "type": "address"
        }
      ],
      "name": "LogPreviousGatewayUpdated",
      "type": "event"
    },
    {
      "anonymous": false,
      "inputs": [
        {
          "indexed": true,
          "internalType": "contract IRenVMSignatureVerifier",
          "name": "_newSignatureVerifier",
          "type": "address"
        }
      ],
      "name": "LogSignatureVerifierUpdated",
      "type": "event"
    },
    {
      "anonymous": false,
      "inputs": [
        {
          "indexed": true,
          "internalType": "address",
          "name": "_newToken",
          "type": "address"
        }
      ],
      "name": "LogTokenUpdated",
      "type": "event"
    },
    {
      "anonymous": false,
      "inputs": [
        {
          "indexed": true,
          "internalType": "address",
          "name": "previousOwner",
          "type": "address"
        },
        {
          "indexed": true,
          "internalType": "address",
          "name": "newOwner",
          "type": "address"
        }
      ],
      "name": "OwnershipTransferred",
      "type": "event"
    },
    {
      "inputs": [
        {
          "internalType": "string",
          "name": "chain_",
          "type": "string"
        },
        {
          "internalType": "string",
          "name": "asset_",
          "type": "string"
        },
        {
          "internalType": "address",
          "name": "signatureVerifier_",
          "type": "address"
        },
        {
          "internalType": "address",
          "name": "token_",
          "type": "address"
        }
      ],
      "name": "__GatewayStateManager_init",
      "outputs": [],
      "stateMutability": "nonpayable",
      "type": "function"
    },
    {
      "inputs": [
        {
          "internalType": "string",
          "name": "chain_",
          "type": "string"
        },
        {
          "internalType": "string",
          "name": "asset_",
          "type": "string"
        },
        {
          "internalType": "address",
          "name": "signatureVerifier_",
          "type": "address"
        },
        {
          "internalType": "address",
          "name": "token_",
          "type": "address"
        }
      ],
      "name": "__MintGateway_init",
      "outputs": [],
      "stateMutability": "nonpayable",
      "type": "function"
    },
    {
      "inputs": [
        {
          "internalType": "bytes",
          "name": "recipient",
          "type": "bytes"
        },
        {
          "internalType": "uint256",
          "name": "amount",
          "type": "uint256"
        },
        {
          "internalType": "address",
          "name": "caller",
          "type": "address"
        }
      ],
      "name": "_burnFromPreviousGateway",
      "outputs": [
        {
          "internalType": "uint256",
          "name": "",
          "type": "uint256"
        }
      ],
      "stateMutability": "nonpayable",
      "type": "function"
    },
    {
      "inputs": [
        {
          "internalType": "bytes32",
          "name": "pHash",
          "type": "bytes32"
        },
        {
          "internalType": "uint256",
          "name": "amount",
          "type": "uint256"
        },
        {
          "internalType": "bytes32",
          "name": "nHash",
          "type": "bytes32"
        },
        {
          "internalType": "bytes",
          "name": "sig",
          "type": "bytes"
        },
        {
          "internalType": "address",
          "name": "caller",
          "type": "address"
        }
      ],
      "name": "_mintFromPreviousGateway",
      "outputs": [
        {
          "internalType": "uint256",
          "name": "",
          "type": "uint256"
        }
      ],
      "stateMutability": "nonpayable",
      "type": "function"
    },
    {
      "inputs": [],
      "name": "asset",
      "outputs": [
        {
          "internalType": "string",
          "name": "",
          "type": "string"
        }
      ],
      "stateMutability": "view",
      "type": "function"
    },
    {
      "inputs": [
        {
          "internalType": "bytes",
          "name": "recipient",
          "type": "bytes"
        },
        {
          "internalType": "uint256",
          "name": "amount",
          "type": "uint256"
        }
      ],
      "name": "burn",
      "outputs": [
        {
          "internalType": "uint256",
          "name": "",
          "type": "uint256"
        }
      ],
      "stateMutability": "nonpayable",
      "type": "function"
    },
    {
      "inputs": [
        {
          "internalType": "string",
          "name": "recipient",
          "type": "string"
        },
        {
          "internalType": "uint256",
          "name": "amount",
          "type": "uint256"
        }
      ],
      "name": "burn",
      "outputs": [
        {
          "internalType": "uint256",
          "name": "",
          "type": "uint256"
        }
      ],
      "stateMutability": "nonpayable",
      "type": "function"
    },
    {
      "inputs": [
        {
          "internalType": "string",
          "name": "recipientAddress",
          "type": "string"
        },
        {
          "internalType": "string",
          "name": "recipientChain",
          "type": "string"
        },
        {
          "internalType": "bytes",
          "name": "recipientPayload",
          "type": "bytes"
        },
        {
          "internalType": "uint256",
          "name": "amount",
          "type": "uint256"
        }
      ],
      "name": "burnWithPayload",
      "outputs": [
        {
          "internalType": "uint256",
          "name": "",
          "type": "uint256"
        }
      ],
      "stateMutability": "nonpayable",
      "type": "function"
    },
    {
      "inputs": [],
      "name": "chain",
      "outputs": [
        {
          "internalType": "string",
          "name": "",
          "type": "string"
        }
      ],
      "stateMutability": "view",
      "type": "function"
    },
    {
      "inputs": [],
      "name": "eventNonce",
      "outputs": [
        {
          "internalType": "uint256",
          "name": "",
          "type": "uint256"
        }
      ],
      "stateMutability": "view",
      "type": "function"
    },
    {
      "inputs": [
        {
          "internalType": "bytes32",
          "name": "pHash",
          "type": "bytes32"
        },
        {
          "internalType": "uint256",
          "name": "amount",
          "type": "uint256"
        },
        {
          "internalType": "bytes32",
          "name": "nHash",
          "type": "bytes32"
        },
        {
          "internalType": "bytes",
          "name": "sig",
          "type": "bytes"
        }
      ],
      "name": "mint",
      "outputs": [
        {
          "internalType": "uint256",
          "name": "",
          "type": "uint256"
        }
      ],
      "stateMutability": "nonpayable",
      "type": "function"
    },
    {
      "inputs": [],
      "name": "owner",
      "outputs": [
        {
          "internalType": "address",
          "name": "",
          "type": "address"
        }
      ],
      "stateMutability": "view",
      "type": "function"
    },
    {
      "inputs": [],
      "name": "previousGateway",
      "outputs": [
        {
          "internalType": "address",
          "name": "",
          "type": "address"
        }
      ],
      "stateMutability": "view",
      "type": "function"
    },
    {
      "inputs": [],
      "name": "renounceOwnership",
      "outputs": [],
      "stateMutability": "nonpayable",
      "type": "function"
    },
    {
      "inputs": [],
      "name": "selectorHash",
      "outputs": [
        {
          "internalType": "bytes32",
          "name": "",
          "type": "bytes32"
        }
      ],
      "stateMutability": "view",
      "type": "function"
    },
    {
      "inputs": [],
      "name": "signatureVerifier",
      "outputs": [
        {
          "internalType": "contract IRenVMSignatureVerifier",
          "name": "",
          "type": "address"
        }
      ],
      "stateMutability": "view",
      "type": "function"
    },
    {
      "inputs": [
        {
          "internalType": "bytes32",
          "name": "hash",
          "type": "bytes32"
        }
      ],
      "name": "status",
      "outputs": [
        {
          "internalType": "bool",
          "name": "",
          "type": "bool"
        }
      ],
      "stateMutability": "view",
      "type": "function"
    },
    {
      "inputs": [],
      "name": "token",
      "outputs": [
        {
          "internalType": "address",
          "name": "",
          "type": "address"
        }
      ],
      "stateMutability": "view",
      "type": "function"
    },
    {
      "inputs": [
        {
          "internalType": "address",
          "name": "newOwner",
          "type": "address"
        }
      ],
      "name": "transferOwnership",
      "outputs": [],
      "stateMutability": "nonpayable",
      "type": "function"
    },
    {
      "inputs": [
        {
          "internalType": "address",
          "name": "nextTokenOwner_",
          "type": "address"
        }
      ],
      "name": "transferTokenOwnership",
      "outputs": [],
      "stateMutability": "nonpayable",
      "type": "function"
    },
    {
      "inputs": [
        {
          "internalType": "string",
          "name": "nextAsset",
          "type": "string"
        }
      ],
      "name": "updateAsset",
      "outputs": [],
      "stateMutability": "nonpayable",
      "type": "function"
    },
    {
      "inputs": [
        {
          "internalType": "string",
          "name": "nextChain",
          "type": "string"
        }
      ],
      "name": "updateChain",
      "outputs": [],
      "stateMutability": "nonpayable",
      "type": "function"
    },
    {
      "inputs": [
        {
          "internalType": "address",
          "name": "nextPreviousGateway",
          "type": "address"
        }
      ],
      "name": "updatePreviousGateway",
      "outputs": [],
      "stateMutability": "nonpayable",
      "type": "function"
    },
    {
      "inputs": [
        {
          "internalType": "contract IRenVMSignatureVerifier",
          "name": "nextSignatureVerifier",
          "type": "address"
        }
      ],
      "name": "updateSignatureVerifier",
      "outputs": [],
      "stateMutability": "nonpayable",
      "type": "function"
    },
    {
      "inputs": [
        {
          "internalType": "address",
          "name": "nextToken",
          "type": "address"
        }
      ],
      "name": "updateToken",
      "outputs": [],
      "stateMutability": "nonpayable",
      "type": "function"
    }
  ],
  "transactionHash": "0xceab06a32f79768b002145ae58870b65683de8792f703b069f16c3fddfc50b13",
  "args": [],
  "solcInputHash": "7bcd5bc09beea872c9e812f1b6f9aa45",
  "bytecode": "0x608060405234801561001057600080fd5b5061376e806100206000396000f3fe608060405234801561001057600080fd5b50600436106101735760003560e01c80635f4e2395116100de578063b48272cc11610097578063d489dc6c11610071578063d489dc6c14610448578063f2fde38b14610466578063fc0c546a14610482578063fde919f6146104a057610173565b8063b48272cc146103de578063c54216b41461040e578063c763e5a11461042a57610173565b80635f4e23951461031e578063715018a61461034e5780637ad3def2146103585780638da5cb5b14610374578063976e7a3e14610392578063aae8fdf0146103c257610173565b806338d52e0f1161013057806338d52e0f1461024c5780633f1264ef1461026a5780634a5bca8a1461029a5780635266ba0c146102b657806352ad0d5e146102d25780635667981b1461030257610173565b8063159ab14d146101785780631c3e6ee6146101a857806320506642146101c657806321e6b53d146101e257806329762976146101fe57806338463cff1461021c575b600080fd5b610192600480360381019061018d91906123ee565b6104be565b60405161019f9190612fa4565b60405180910390f35b6101b06104de565b6040516101bd9190612fa4565b60405180910390f35b6101e060048036038101906101db919061267a565b6104e8565b005b6101fc60048036038101906101f79190612367565b6105f5565b005b6102066106e6565b6040516102139190612c4d565b60405180910390f35b61023660048036038101906102319190612535565b6106f0565b6040516102439190612fa4565b60405180910390f35b61025461072c565b6040516102619190612d68565b60405180910390f35b610284600480360381019061027f9190612471565b6107be565b6040516102919190612fa4565b60405180910390f35b6102b460048036038101906102af919061267a565b6108c9565b005b6102d060048036038101906102cb9190612367565b6109be565b005b6102ec60048036038101906102e791906123c1565b610b31565b6040516102f99190612c32565b60405180910390f35b61031c60048036038101906103179190612600565b610c3e565b005b61033860048036038101906103339190612591565b610db1565b6040516103459190612fa4565b60405180910390f35b610356610ed8565b005b610372600480360381019061036d9190612367565b610f60565b005b61037c6110d3565b6040516103899190612bee565b60405180910390f35b6103ac60048036038101906103a79190612721565b6110fd565b6040516103b99190612fa4565b60405180910390f35b6103dc60048036038101906103d7919061262d565b61111d565b005b6103f860048036038101906103f391906127dc565b611363565b6040516104059190612fa4565b60405180910390f35b6104286004803603810190610423919061262d565b61139f565b005b6104326115e5565b60405161043f9190612d68565b60405180910390f35b610450611677565b60405161045d9190612bee565b60405180910390f35b610480600480360381019061047b9190612367565b6116a1565b005b61048a611799565b6040516104979190612bee565b60405180910390f35b6104a86117c3565b6040516104b59190612d1b565b60405180910390f35b60006104d4858585856104cf6117ed565b6117f5565b9050949350505050565b6000606c54905090565b600060019054906101000a900460ff168061050e575060008054906101000a900460ff16155b61054d576040517f08c379a000000000000000000000000000000000000000000000000000000000815260040161054490612ec4565b60405180910390fd5b60008060019054906101000a900460ff16159050801561059d576001600060016101000a81548160ff02191690831515021790555060016000806101000a81548160ff0219169083151502179055505b6105a5611aad565b6105af878761111d565b6105b9858561139f565b6105c283610c3e565b6105cb82610f60565b80156105ec5760008060016101000a81548160ff0219169083151502179055505b50505050505050565b6105fd6117ed565b73ffffffffffffffffffffffffffffffffffffffff1661061b6110d3565b73ffffffffffffffffffffffffffffffffffffffff1614610671576040517f08c379a000000000000000000000000000000000000000000000000000000000815260040161066890612f04565b60405180910390fd5b610679611799565b73ffffffffffffffffffffffffffffffffffffffff1663f2fde38b826040518263ffffffff1660e01b81526004016106b19190612bee565b600060405180830381600087803b1580156106cb57600080fd5b505af11580156106df573d6000803e3d6000fd5b5050505050565b6000606754905090565b60006107248360405180602001604052806000815250604051806020016040528060008152508561071f6117ed565b611b96565b905092915050565b60606066805461073b906131f2565b80601f0160208091040260200160405190810160405280929190818152602001828054610767906131f2565b80156107b45780601f10610789576101008083540402835291602001916107b4565b820191906000526020600020905b81548152906001019060200180831161079757829003601f168201915b5050505050905090565b6000806107c9611677565b9050600073ffffffffffffffffffffffffffffffffffffffff168173ffffffffffffffffffffffffffffffffffffffff16141561083b576040517f08c379a000000000000000000000000000000000000000000000000000000000815260040161083290612e44565b60405180910390fd5b8073ffffffffffffffffffffffffffffffffffffffff1661085a6117ed565b73ffffffffffffffffffffffffffffffffffffffff16146108b0576040517f08c379a00000000000000000000000000000000000000000000000000000000081526004016108a790612f24565b60405180910390fd5b6108bd87878787876117f5565b91505095945050505050565b600060019054906101000a900460ff16806108ef575060008054906101000a900460ff16155b61092e576040517f08c379a000000000000000000000000000000000000000000000000000000000815260040161092590612ec4565b60405180910390fd5b60008060019054906101000a900460ff16159050801561097e576001600060016101000a81548160ff02191690831515021790555060016000806101000a81548160ff0219169083151502179055505b610986611aad565b6109948787878787876104e8565b80156109b55760008060016101000a81548160ff0219169083151502179055505b50505050505050565b6109c66117ed565b73ffffffffffffffffffffffffffffffffffffffff166109e46110d3565b73ffffffffffffffffffffffffffffffffffffffff1614610a3a576040517f08c379a0000000000000000000000000000000000000000000000000000000008152600401610a3190612f04565b60405180910390fd5b600073ffffffffffffffffffffffffffffffffffffffff168173ffffffffffffffffffffffffffffffffffffffff161415610aaa576040517f08c379a0000000000000000000000000000000000000000000000000000000008152600401610aa190612ea4565b60405180910390fd5b80606b60006101000a81548173ffffffffffffffffffffffffffffffffffffffff021916908373ffffffffffffffffffffffffffffffffffffffff1602179055508073ffffffffffffffffffffffffffffffffffffffff167f092a7f3d3a91b47e57583d808f4454c082a9c49b2582f836f5a301e982a2d04d60405160405180910390a250565b60006068600083815260200190815260200160002060009054906101000a900460ff1615610b625760019050610c39565b6000610b6c611677565b9050600073ffffffffffffffffffffffffffffffffffffffff168173ffffffffffffffffffffffffffffffffffffffff1614610c33578073ffffffffffffffffffffffffffffffffffffffff166352ad0d5e846040518263ffffffff1660e01b8152600401610bdb9190612c4d565b60206040518083038186803b158015610bf357600080fd5b505afa158015610c07573d6000803e3d6000fd5b505050506040513d601f19601f82011682018060405250810190610c2b9190612394565b915050610c39565b60009150505b919050565b610c466117ed565b73ffffffffffffffffffffffffffffffffffffffff16610c646110d3565b73ffffffffffffffffffffffffffffffffffffffff1614610cba576040517f08c379a0000000000000000000000000000000000000000000000000000000008152600401610cb190612f04565b60405180910390fd5b600073ffffffffffffffffffffffffffffffffffffffff168173ffffffffffffffffffffffffffffffffffffffff161415610d2a576040517f08c379a0000000000000000000000000000000000000000000000000000000008152600401610d2190612f84565b60405180910390fd5b80606a60006101000a81548173ffffffffffffffffffffffffffffffffffffffff021916908373ffffffffffffffffffffffffffffffffffffffff1602179055508073ffffffffffffffffffffffffffffffffffffffff167fb57359628f7b44e9842ff204fb5700f84d8c4f9c3fc9dae13e7a1aab8ed164f760405160405180910390a250565b600080610dbc611677565b9050600073ffffffffffffffffffffffffffffffffffffffff168173ffffffffffffffffffffffffffffffffffffffff161415610e2e576040517f08c379a0000000000000000000000000000000000000000000000000000000008152600401610e2590612e44565b60405180910390fd5b8073ffffffffffffffffffffffffffffffffffffffff16610e4d6117ed565b73ffffffffffffffffffffffffffffffffffffffff1614610ea3576040517f08c379a0000000000000000000000000000000000000000000000000000000008152600401610e9a90612f24565b60405180910390fd5b610ece8560405180602001604052806000815250604051806020016040528060008152508787611b96565b9150509392505050565b610ee06117ed565b73ffffffffffffffffffffffffffffffffffffffff16610efe6110d3565b73ffffffffffffffffffffffffffffffffffffffff1614610f54576040517f08c379a0000000000000000000000000000000000000000000000000000000008152600401610f4b90612f04565b60405180910390fd5b610f5e6000611d52565b565b610f686117ed565b73ffffffffffffffffffffffffffffffffffffffff16610f866110d3565b73ffffffffffffffffffffffffffffffffffffffff1614610fdc576040517f08c379a0000000000000000000000000000000000000000000000000000000008152600401610fd390612f04565b60405180910390fd5b600073ffffffffffffffffffffffffffffffffffffffff168173ffffffffffffffffffffffffffffffffffffffff16141561104c576040517f08c379a000000000000000000000000000000000000000000000000000000000815260040161104390612e84565b60405180910390fd5b80606960006101000a81548173ffffffffffffffffffffffffffffffffffffffff021916908373ffffffffffffffffffffffffffffffffffffffff1602179055508073ffffffffffffffffffffffffffffffffffffffff167f02dec22a3d1e8f9cdc0c7cd17ecee187f635788c40755be0a72dcd86a05e564d60405160405180910390a250565b6000603360009054906101000a900473ffffffffffffffffffffffffffffffffffffffff16905090565b60006111138585858561110e6117ed565b611b96565b9050949350505050565b6111256117ed565b73ffffffffffffffffffffffffffffffffffffffff166111436110d3565b73ffffffffffffffffffffffffffffffffffffffff1614611199576040517f08c379a000000000000000000000000000000000000000000000000000000000815260040161119090612f04565b60405180910390fd5b6111e682828080601f016020809104026020016040519081016040528093929190818152602001838380828437600081840152601f19601f82011690508083019250505050505050611e18565b611225576040517f08c379a000000000000000000000000000000000000000000000000000000000815260040161121c90612f64565b60405180910390fd5b61127282828080601f016020809104026020016040519081016040528093929190818152602001838380828437600081840152601f19601f82011690508083019250505050505050611e25565b6112b1576040517f08c379a00000000000000000000000000000000000000000000000000000000081526004016112a890612e04565b60405180910390fd5b8181606591906112c2929190612110565b50600061131a6112d061072c565b84848080601f016020809104026020016040519081016040528093929190818152602001838380828437600081840152601f19601f82011690508083019250505050505050611edf565b9050806067819055507f4dc1740772ca26480ca22d412de18818650c980e3aef84a3ca49cbe4fa4ed88083838360405161135693929190612d36565b60405180910390a1505050565b6000611397836040518060200160405280600081525060405180602001604052806000815250856113926117ed565b611b96565b905092915050565b6113a76117ed565b73ffffffffffffffffffffffffffffffffffffffff166113c56110d3565b73ffffffffffffffffffffffffffffffffffffffff161461141b576040517f08c379a000000000000000000000000000000000000000000000000000000000815260040161141290612f04565b60405180910390fd5b61146882828080601f016020809104026020016040519081016040528093929190818152602001838380828437600081840152601f19601f82011690508083019250505050505050611e18565b6114a7576040517f08c379a000000000000000000000000000000000000000000000000000000000815260040161149e90612e64565b60405180910390fd5b6114f482828080601f016020809104026020016040519081016040528093929190818152602001838380828437600081840152601f19601f82011690508083019250505050505050611e25565b611533576040517f08c379a000000000000000000000000000000000000000000000000000000000815260040161152a90612e04565b60405180910390fd5b818160669190611544929190612110565b50600061159c83838080601f016020809104026020016040519081016040528093929190818152602001838380828437600081840152601f19601f820116905080830192505050505050506115976115e5565b611edf565b9050806067819055507f2e7c1f9bcc3b09d8e05594ab5d17b6c9b15b24cd506c5212f051f22990d081318383836040516115d893929190612d36565b60405180910390a1505050565b6060606580546115f4906131f2565b80601f0160208091040260200160405190810160405280929190818152602001828054611620906131f2565b801561166d5780601f106116425761010080835404028352916020019161166d565b820191906000526020600020905b81548152906001019060200180831161165057829003601f168201915b5050505050905090565b6000606b60009054906101000a900473ffffffffffffffffffffffffffffffffffffffff16905090565b6116a96117ed565b73ffffffffffffffffffffffffffffffffffffffff166116c76110d3565b73ffffffffffffffffffffffffffffffffffffffff161461171d576040517f08c379a000000000000000000000000000000000000000000000000000000000815260040161171490612f04565b60405180910390fd5b600073ffffffffffffffffffffffffffffffffffffffff168173ffffffffffffffffffffffffffffffffffffffff16141561178d576040517f08c379a000000000000000000000000000000000000000000000000000000000815260040161178490612e24565b60405180910390fd5b61179681611d52565b50565b6000606960009054906101000a900473ffffffffffffffffffffffffffffffffffffffff16905090565b6000606a60009054906101000a900473ffffffffffffffffffffffffffffffffffffffff16905090565b600033905090565b60008061180c87876118056106e6565b8689611f12565b905061181781610b31565b15801561182a575061182885610b31565b155b611869576040517f08c379a000000000000000000000000000000000000000000000000000000000815260040161186090612f44565b60405180910390fd5b631626ba7e60e01b7bffffffffffffffffffffffffffffffffffffffffffffffffffffffff19166118986117c3565b73ffffffffffffffffffffffffffffffffffffffff16631626ba7e83876040518363ffffffff1660e01b81526004016118d2929190612c68565b60206040518083038186803b1580156118ea57600080fd5b505afa1580156118fe573d6000803e3d6000fd5b505050506040513d601f19601f820116820180604052508101906119229190612508565b7bffffffffffffffffffffffffffffffffffffffffffffffffffffffff191614611981576040517f08c379a000000000000000000000000000000000000000000000000000000000815260040161197890612ee4565b60405180910390fd5b60016068600083815260200190815260200160002060006101000a81548160ff02191690831515021790555060016068600087815260200190815260200160002060006101000a81548160ff0219169083151502179055506119e1611799565b73ffffffffffffffffffffffffffffffffffffffff166340c10f1984886040518363ffffffff1660e01b8152600401611a1b929190612c09565b600060405180830381600087803b158015611a3557600080fd5b505af1158015611a49573d6000803e3d6000fd5b50505050848160001c8473ffffffffffffffffffffffffffffffffffffffff167fa58ba939eb08dab7eaf8ad09c16e7405ee88e5153e15da62d5481296a9f727fa89604051611a989190612fa4565b60405180910390a48591505095945050505050565b600060019054906101000a900460ff1680611ad3575060008054906101000a900460ff16155b611b12576040517f08c379a0000000000000000000000000000000000000000000000000000000008152600401611b0990612ec4565b60405180910390fd5b60008060019054906101000a900460ff161590508015611b62576001600060016101000a81548160ff02191690831515021790555060016000806101000a81548160ff0219169083151502179055505b611b6a611f4e565b611b72612027565b8015611b935760008060016101000a81548160ff0219169083151502179055505b50565b60008086511415611bdc576040517f08c379a0000000000000000000000000000000000000000000000000000000008152600401611bd390612de4565b60405180910390fd5b611be4611799565b73ffffffffffffffffffffffffffffffffffffffff16639dc29fac83856040518363ffffffff1660e01b8152600401611c1e929190612c09565b600060405180830381600087803b158015611c3857600080fd5b505af1158015611c4c573d6000803e3d6000fd5b505050506000611c5a6104de565b9050600086511180611c6d575060008551115b15611ce15785604051611c809190612ba8565b604051809103902087604051611c969190612ba8565b6040518091039020827ff1e98bc6e5ee93b47362bddb133886a2b471c968633a462b824f57cdb4b36c528a8a8a8a604051611cd49493929190612d8a565b60405180910390a4611d32565b86604051611cef9190612b91565b6040518091039020817f1619fc95050ffb8c94c9077c82b3e1ebbf8d571b6234241c55ba0aaf40da019e8987604051611d29929190612ceb565b60405180910390a35b600181611d3f9190613094565b606c819055508391505095945050505050565b6000603360009054906101000a900473ffffffffffffffffffffffffffffffffffffffff16905081603360006101000a81548173ffffffffffffffffffffffffffffffffffffffff021916908373ffffffffffffffffffffffffffffffffffffffff1602179055508173ffffffffffffffffffffffffffffffffffffffff168173ffffffffffffffffffffffffffffffffffffffff167f8be0079c531659141344cd1fd0a4f28419497f9722a3daafe3b4186f6b6457e060405160405180910390a35050565b6000808251119050919050565b600080600090505b8251811015611ed4576000838281518110611e4b57611e4a6132fc565b5b602001015160f81c60f81b60f81c905060418160ff1610158015611e735750605a8160ff1611155b80611e92575060618160ff1610158015611e915750607a8160ff1611155b5b80611eb1575060308160ff1610158015611eb0575060398160ff1611155b5b611ec057600092505050611eda565b508080611ecc90613255565b915050611e2d565b50600190505b919050565b60008282604051602001611ef4929190612bbf565b60405160208183030381529060405280519060200120905092915050565b60008585858585604051602001611f2d959493929190612c98565b60405160208183030381529060405280519060200120905095945050505050565b600060019054906101000a900460ff1680611f74575060008054906101000a900460ff16155b611fb3576040517f08c379a0000000000000000000000000000000000000000000000000000000008152600401611faa90612ec4565b60405180910390fd5b60008060019054906101000a900460ff161590508015612003576001600060016101000a81548160ff02191690831515021790555060016000806101000a81548160ff0219169083151502179055505b80156120245760008060016101000a81548160ff0219169083151502179055505b50565b600060019054906101000a900460ff168061204d575060008054906101000a900460ff16155b61208c576040517f08c379a000000000000000000000000000000000000000000000000000000000815260040161208390612ec4565b60405180910390fd5b60008060019054906101000a900460ff1615905080156120dc576001600060016101000a81548160ff02191690831515021790555060016000806101000a81548160ff0219169083151502179055505b6120ec6120e76117ed565b611d52565b801561210d5760008060016101000a81548160ff0219169083151502179055505b50565b82805461211c906131f2565b90600052602060002090601f01602090048101928261213e5760008555612185565b82601f1061215757803560ff1916838001178555612185565b82800160010185558215612185579182015b82811115612184578235825591602001919060010190612169565b5b5090506121929190612196565b5090565b5b808211156121af576000816000905550600101612197565b5090565b60006121c66121c184612fe4565b612fbf565b9050828152602081018484840111156121e2576121e1613369565b5b6121ed8482856131b0565b509392505050565b600061220861220384613015565b612fbf565b90508281526020810184848401111561222457612223613369565b5b61222f8482856131b0565b509392505050565b600081359050612246816136ae565b92915050565b60008151905061225b816136c5565b92915050565b600081359050612270816136dc565b92915050565b600081519050612285816136f3565b92915050565b600082601f8301126122a05761229f61335f565b5b81356122b08482602086016121b3565b91505092915050565b6000813590506122c88161370a565b92915050565b60008083601f8401126122e4576122e361335f565b5b8235905067ffffffffffffffff8111156123015761230061335a565b5b60208301915083600182028301111561231d5761231c613364565b5b9250929050565b600082601f8301126123395761233861335f565b5b81356123498482602086016121f5565b91505092915050565b60008135905061236181613721565b92915050565b60006020828403121561237d5761237c613373565b5b600061238b84828501612237565b91505092915050565b6000602082840312156123aa576123a9613373565b5b60006123b88482850161224c565b91505092915050565b6000602082840312156123d7576123d6613373565b5b60006123e584828501612261565b91505092915050565b6000806000806080858703121561240857612407613373565b5b600061241687828801612261565b945050602061242787828801612352565b935050604061243887828801612261565b925050606085013567ffffffffffffffff8111156124595761245861336e565b5b6124658782880161228b565b91505092959194509250565b600080600080600060a0868803121561248d5761248c613373565b5b600061249b88828901612261565b95505060206124ac88828901612352565b94505060406124bd88828901612261565b935050606086013567ffffffffffffffff8111156124de576124dd61336e565b5b6124ea8882890161228b565b92505060806124fb88828901612237565b9150509295509295909350565b60006020828403121561251e5761251d613373565b5b600061252c84828501612276565b91505092915050565b6000806040838503121561254c5761254b613373565b5b600083013567ffffffffffffffff81111561256a5761256961336e565b5b6125768582860161228b565b925050602061258785828601612352565b9150509250929050565b6000806000606084860312156125aa576125a9613373565b5b600084013567ffffffffffffffff8111156125c8576125c761336e565b5b6125d48682870161228b565b93505060206125e586828701612352565b92505060406125f686828701612237565b9150509250925092565b60006020828403121561261657612615613373565b5b6000612624848285016122b9565b91505092915050565b6000806020838503121561264457612643613373565b5b600083013567ffffffffffffffff8111156126625761266161336e565b5b61266e858286016122ce565b92509250509250929050565b6000806000806000806080878903121561269757612696613373565b5b600087013567ffffffffffffffff8111156126b5576126b461336e565b5b6126c189828a016122ce565b9650965050602087013567ffffffffffffffff8111156126e4576126e361336e565b5b6126f089828a016122ce565b9450945050604061270389828a01612237565b925050606061271489828a01612237565b9150509295509295509295565b6000806000806080858703121561273b5761273a613373565b5b600085013567ffffffffffffffff8111156127595761275861336e565b5b61276587828801612324565b945050602085013567ffffffffffffffff8111156127865761278561336e565b5b61279287828801612324565b935050604085013567ffffffffffffffff8111156127b3576127b261336e565b5b6127bf8782880161228b565b92505060606127d087828801612352565b91505092959194509250565b600080604083850312156127f3576127f2613373565b5b600083013567ffffffffffffffff8111156128115761281061336e565b5b61281d85828601612324565b925050602061282e85828601612352565b9150509250929050565b612841816130ea565b82525050565b612850816130fc565b82525050565b61285f81613108565b82525050565b600061287082613046565b61287a818561305c565b935061288a8185602086016131bf565b61289381613378565b840191505092915050565b60006128a982613046565b6128b3818561306d565b93506128c38185602086016131bf565b80840191505092915050565b6128d88161317a565b82525050565b60006128ea8385613078565b93506128f78385846131b0565b61290083613378565b840190509392505050565b600061291682613051565b6129208185613078565b93506129308185602086016131bf565b61293981613378565b840191505092915050565b600061294f82613051565b6129598185613089565b93506129698185602086016131bf565b80840191505092915050565b6000612982602083613078565b915061298d82613389565b602082019050919050565b60006129a5602483613078565b91506129b0826133b2565b604082019050919050565b60006129c8602683613078565b91506129d382613401565b604082019050919050565b60006129eb601c83613078565b91506129f682613450565b602082019050919050565b6000612a0e601d83613078565b9150612a1982613479565b602082019050919050565b6000612a31601683613078565b9150612a3c826134a2565b602082019050919050565b6000612a54601883613078565b9150612a5f826134cb565b602082019050919050565b6000612a77602e83613078565b9150612a82826134f4565b604082019050919050565b6000612a9a601e83613078565b9150612aa582613543565b602082019050919050565b6000612abd602083613078565b9150612ac88261356c565b602082019050919050565b6000612ae0601783613078565b9150612aeb82613595565b602082019050919050565b6000612b03602483613078565b9150612b0e826135be565b604082019050919050565b6000612b26600383613089565b9150612b318261360d565b600382019050919050565b6000612b49601d83613078565b9150612b5482613636565b602082019050919050565b6000612b6c602383613078565b9150612b778261365f565b604082019050919050565b612b8b81613170565b82525050565b6000612b9d828461289e565b915081905092915050565b6000612bb48284612944565b915081905092915050565b6000612bcb8285612944565b9150612bd682612b19565b9150612be28284612944565b91508190509392505050565b6000602082019050612c036000830184612838565b92915050565b6000604082019050612c1e6000830185612838565b612c2b6020830184612b82565b9392505050565b6000602082019050612c476000830184612847565b92915050565b6000602082019050612c626000830184612856565b92915050565b6000604082019050612c7d6000830185612856565b8181036020830152612c8f8184612865565b90509392505050565b600060a082019050612cad6000830188612856565b612cba6020830187612b82565b612cc76040830186612856565b612cd46060830185612838565b612ce16080830184612856565b9695505050505050565b60006040820190508181036000830152612d058185612865565b9050612d146020830184612b82565b9392505050565b6000602082019050612d3060008301846128cf565b92915050565b60006040820190508181036000830152612d518185876128de565b9050612d606020830184612856565b949350505050565b60006020820190508181036000830152612d82818461290b565b905092915050565b60006080820190508181036000830152612da4818761290b565b90508181036020830152612db8818661290b565b90508181036040830152612dcc8185612865565b9050612ddb6060830184612b82565b95945050505050565b60006020820190508181036000830152612dfd81612975565b9050919050565b60006020820190508181036000830152612e1d81612998565b9050919050565b60006020820190508181036000830152612e3d816129bb565b9050919050565b60006020820190508181036000830152612e5d816129de565b9050919050565b60006020820190508181036000830152612e7d81612a01565b9050919050565b60006020820190508181036000830152612e9d81612a24565b9050919050565b60006020820190508181036000830152612ebd81612a47565b9050919050565b60006020820190508181036000830152612edd81612a6a565b9050919050565b60006020820190508181036000830152612efd81612a8d565b9050919050565b60006020820190508181036000830152612f1d81612ab0565b9050919050565b60006020820190508181036000830152612f3d81612ad3565b9050919050565b60006020820190508181036000830152612f5d81612af6565b9050919050565b60006020820190508181036000830152612f7d81612b3c565b9050919050565b60006020820190508181036000830152612f9d81612b5f565b9050919050565b6000602082019050612fb96000830184612b82565b92915050565b6000612fc9612fda565b9050612fd58282613224565b919050565b6000604051905090565b600067ffffffffffffffff821115612fff57612ffe61332b565b5b61300882613378565b9050602081019050919050565b600067ffffffffffffffff8211156130305761302f61332b565b5b61303982613378565b9050602081019050919050565b600081519050919050565b600081519050919050565b600082825260208201905092915050565b600081905092915050565b600082825260208201905092915050565b600081905092915050565b600061309f82613170565b91506130aa83613170565b9250827fffffffffffffffffffffffffffffffffffffffffffffffffffffffffffffffff038211156130df576130de61329e565b5b828201905092915050565b60006130f582613150565b9050919050565b60008115159050919050565b6000819050919050565b60007fffffffff0000000000000000000000000000000000000000000000000000000082169050919050565b6000613149826130ea565b9050919050565b600073ffffffffffffffffffffffffffffffffffffffff82169050919050565b6000819050919050565b60006131858261318c565b9050919050565b60006131978261319e565b9050919050565b60006131a982613150565b9050919050565b82818337600083830152505050565b60005b838110156131dd5780820151818401526020810190506131c2565b838111156131ec576000848401525b50505050565b6000600282049050600182168061320a57607f821691505b6020821081141561321e5761321d6132cd565b5b50919050565b61322d82613378565b810181811067ffffffffffffffff8211171561324c5761324b61332b565b5b80604052505050565b600061326082613170565b91507fffffffffffffffffffffffffffffffffffffffffffffffffffffffffffffffff8214156132935761329261329e565b5b600182019050919050565b7f4e487b7100000000000000000000000000000000000000000000000000000000600052601160045260246000fd5b7f4e487b7100000000000000000000000000000000000000000000000000000000600052602260045260246000fd5b7f4e487b7100000000000000000000000000000000000000000000000000000000600052603260045260246000fd5b7f4e487b7100000000000000000000000000000000000000000000000000000000600052604160045260246000fd5b600080fd5b600080fd5b600080fd5b600080fd5b600080fd5b600080fd5b6000601f19601f8301169050919050565b7f4d696e74476174657761793a20746f206164647265737320697320656d707479600082015250565b7f476174657761793a2073796d626f6c206d75737420626520616c7068616e756d60008201527f6572696300000000000000000000000000000000000000000000000000000000602082015250565b7f4f776e61626c653a206e6577206f776e657220697320746865207a65726f206160008201527f6464726573730000000000000000000000000000000000000000000000000000602082015250565b7f476174657761793a206e6f2070726576696f7573206761746577617900000000600082015250565b7f476174657761793a2061737365742063616e277420626520656d707479000000600082015250565b7f476174657761793a20696e76616c696420746f6b656e00000000000000000000600082015250565b7f476174657761793a20696e76616c696420616464726573730000000000000000600082015250565b7f496e697469616c697a61626c653a20636f6e747261637420697320616c72656160008201527f647920696e697469616c697a6564000000000000000000000000000000000000602082015250565b7f4d696e74476174657761793a20696e76616c6964207369676e61747572650000600082015250565b7f4f776e61626c653a2063616c6c6572206973206e6f7420746865206f776e6572600082015250565b7f476174657761793a206e6f7420617574686f72697a6564000000000000000000600082015250565b7f4d696e74476174657761793a207369676e617475726520616c7265616479207360008201527f70656e7400000000000000000000000000000000000000000000000000000000602082015250565b7f2f746f0000000000000000000000000000000000000000000000000000000000600082015250565b7f476174657761793a20636861696e2063616e277420626520656d707479000000600082015250565b7f476174657761793a20696e76616c6964207369676e617475726520766572696660008201527f6965720000000000000000000000000000000000000000000000000000000000602082015250565b6136b7816130ea565b81146136c257600080fd5b50565b6136ce816130fc565b81146136d957600080fd5b50565b6136e581613108565b81146136f057600080fd5b50565b6136fc81613112565b811461370757600080fd5b50565b6137138161313e565b811461371e57600080fd5b50565b61372a81613170565b811461373557600080fd5b5056fea2646970667358221220184eaa571bd15ae1b1f53284312dbfb943253bf1659fe788c36d104792f0b14b64736f6c63430008070033",
  "devdoc": {
    "kind": "dev",
    "methods": {
      "burnWithPayload(string,string,bytes,uint256)": {
        "params": {
          "amount": "The amount of the token being locked, in the asset's        smallest unit. (e.g. satoshis for BTC)",
          "recipientAddress": "The address to which the locked assets will be        minted to. The address should be a plain-text address, without        decoding to bytes first.",
          "recipientChain": "The target chain to which the assets are being        moved to.",
          "recipientPayload": "An optional payload to be passed to the        recipient chain along with the address."
        }
      },
      "mint(bytes32,uint256,bytes32,bytes)": {
        "params": {
          "amount": "The amount of the token being minted, in its smallest        value. (e.g. satoshis for BTC).",
          "nHash": "(nonce hash) The hash of the nonce, amount and pHash.",
          "pHash": "(payload hash) The hash of the payload associated with the        mint.",
          "sig": "The signature of the hash of the following values:        (pHash, amount, msg.sender, nHash), signed by the mintAuthority."
        }
      },
      "owner()": {
        "details": "Returns the address of the current owner."
      },
      "renounceOwnership()": {
        "details": "Leaves the contract without owner. It will not be possible to call `onlyOwner` functions anymore. Can only be called by the current owner. NOTE: Renouncing ownership will leave the contract without an owner, thereby removing any functionality that is only available to the owner."
      },
      "transferOwnership(address)": {
        "details": "Transfers ownership of the contract to a new account (`newOwner`). Can only be called by the current owner."
      },
      "updateAsset(string)": {
        "params": {
          "nextAsset": "The new asset."
        }
      },
      "updateChain(string)": {
        "params": {
          "nextChain": "The new chain."
        }
      },
      "updatePreviousGateway(address)": {
        "params": {
          "nextPreviousGateway": "The new gateway contract's address."
        }
      },
      "updateSignatureVerifier(address)": {
        "params": {
          "nextSignatureVerifier": "The new verifier contract address."
        }
      },
      "updateToken(address)": {
        "params": {
          "nextToken": "The new ERC20 token contract's address."
        }
      }
    },
    "version": 1
  },
  "userdoc": {
    "kind": "user",
    "methods": {
      "burn(bytes,uint256)": {
        "notice": "Same as `burn` with the recipient parameter being `bytes` instead of a `string`. For backwards compatibility with the MintGatewayV2."
      },
      "burn(string,uint256)": {
        "notice": "burn is a convenience function that is equivalent to calling         `burnWithPayload` with an empty payload and chain, releasing         the asset to the native chain."
      },
      "burnWithPayload(string,string,bytes,uint256)": {
        "notice": "burnWithPayload allows minted assets to be released to their         native chain, or to another chain as specified by the chain and         payload parameters.         WARNING: Burning with invalid parameters can cause the funds to         become unrecoverable."
      },
      "mint(bytes32,uint256,bytes32,bytes)": {
        "notice": "mint verifies a mint approval signature from RenVM and creates         tokens after taking a fee for the `_feeRecipient`."
      },
      "transferTokenOwnership(address)": {
        "notice": "Allow the owner to update the owner of the RenERC20 token."
      },
      "updateAsset(string)": {
        "notice": "Allow the owner to update the asset."
      },
      "updateChain(string)": {
        "notice": "Allow the owner to update the chain."
      },
      "updatePreviousGateway(address)": {
        "notice": "Allow the owner to update the previous gateway used for backwards compatibility."
      },
      "updateSignatureVerifier(address)": {
        "notice": "Allow the owner to update the signature verifier contract."
      },
      "updateToken(address)": {
        "notice": "Allow the owner to update the ERC20 token contract."
      }
    },
    "notice": "MintGateway handles verifying mint and burn requests. A mintAuthority approves new assets to be minted by providing a digital signature. An owner of an asset can request for it to be burnt.",
    "version": 1
  },
  "storageLayout": {
    "storage": [
      {
        "astId": 773,
        "contract": "src/Gateways/MintGateway.sol:MintGatewayV3",
        "label": "_initialized",
        "offset": 0,
        "slot": "0",
        "type": "t_bool"
      },
      {
        "astId": 776,
        "contract": "src/Gateways/MintGateway.sol:MintGatewayV3",
        "label": "_initializing",
        "offset": 1,
        "slot": "0",
        "type": "t_bool"
      },
      {
        "astId": 1532,
        "contract": "src/Gateways/MintGateway.sol:MintGatewayV3",
        "label": "__gap",
        "offset": 0,
        "slot": "1",
        "type": "t_array(t_uint256)50_storage"
      },
      {
        "astId": 653,
        "contract": "src/Gateways/MintGateway.sol:MintGatewayV3",
        "label": "_owner",
        "offset": 0,
        "slot": "51",
        "type": "t_address"
      },
      {
        "astId": 766,
        "contract": "src/Gateways/MintGateway.sol:MintGatewayV3",
        "label": "__gap",
        "offset": 0,
        "slot": "52",
        "type": "t_array(t_uint256)49_storage"
      },
      {
        "astId": 8455,
        "contract": "src/Gateways/MintGateway.sol:MintGatewayV3",
        "label": "_chain",
        "offset": 0,
        "slot": "101",
        "type": "t_string_storage"
      },
      {
        "astId": 8457,
        "contract": "src/Gateways/MintGateway.sol:MintGatewayV3",
        "label": "_asset",
        "offset": 0,
        "slot": "102",
        "type": "t_string_storage"
      },
      {
        "astId": 8459,
        "contract": "src/Gateways/MintGateway.sol:MintGatewayV3",
        "label": "_selectorHash",
        "offset": 0,
        "slot": "103",
        "type": "t_bytes32"
      },
      {
        "astId": 8464,
        "contract": "src/Gateways/MintGateway.sol:MintGatewayV3",
        "label": "_status",
        "offset": 0,
        "slot": "104",
        "type": "t_mapping(t_bytes32,t_bool)"
      },
      {
        "astId": 8467,
        "contract": "src/Gateways/MintGateway.sol:MintGatewayV3",
        "label": "_token",
        "offset": 0,
        "slot": "105",
        "type": "t_address"
      },
      {
        "astId": 8470,
        "contract": "src/Gateways/MintGateway.sol:MintGatewayV3",
        "label": "_signatureVerifier",
        "offset": 0,
        "slot": "106",
        "type": "t_contract(IRenVMSignatureVerifier)8282"
      },
      {
        "astId": 8472,
        "contract": "src/Gateways/MintGateway.sol:MintGatewayV3",
        "label": "_previousGateway",
        "offset": 0,
        "slot": "107",
        "type": "t_address"
      },
      {
        "astId": 8474,
        "contract": "src/Gateways/MintGateway.sol:MintGatewayV3",
        "label": "_eventNonce",
        "offset": 0,
        "slot": "108",
        "type": "t_uint256"
      },
      {
        "astId": 8478,
        "contract": "src/Gateways/MintGateway.sol:MintGatewayV3",
        "label": "__gap",
        "offset": 0,
        "slot": "109",
        "type": "t_array(t_uint256)43_storage"
      }
    ],
    "types": {
      "t_address": {
        "encoding": "inplace",
        "label": "address",
        "numberOfBytes": "20"
      },
      "t_array(t_uint256)43_storage": {
        "base": "t_uint256",
        "encoding": "inplace",
        "label": "uint256[43]",
        "numberOfBytes": "1376"
      },
      "t_array(t_uint256)49_storage": {
        "base": "t_uint256",
        "encoding": "inplace",
        "label": "uint256[49]",
        "numberOfBytes": "1568"
      },
      "t_array(t_uint256)50_storage": {
        "base": "t_uint256",
        "encoding": "inplace",
        "label": "uint256[50]",
        "numberOfBytes": "1600"
      },
      "t_bool": {
        "encoding": "inplace",
        "label": "bool",
        "numberOfBytes": "1"
      },
      "t_bytes32": {
        "encoding": "inplace",
        "label": "bytes32",
        "numberOfBytes": "32"
      },
      "t_contract(IRenVMSignatureVerifier)8282": {
        "encoding": "inplace",
        "label": "contract IRenVMSignatureVerifier",
        "numberOfBytes": "20"
      },
      "t_mapping(t_bytes32,t_bool)": {
        "encoding": "mapping",
        "key": "t_bytes32",
        "label": "mapping(bytes32 => bool)",
        "numberOfBytes": "32",
        "value": "t_bool"
      },
      "t_string_storage": {
        "encoding": "bytes",
        "label": "string",
        "numberOfBytes": "32"
      },
      "t_uint256": {
        "encoding": "inplace",
        "label": "uint256",
        "numberOfBytes": "32"
      }
    }
  }
}