{
  "address": "0x5C8A729a250819a1dB61c7D424852Cb6008012d4",
  "abi": [
    {
      "anonymous": false,
      "inputs": [
        {
          "indexed": true,
          "internalType": "address",
          "name": "_newMintAuthority",
          "type": "address"
        }
      ],
      "name": "LogMintAuthorityUpdated",
      "type": "event"
    },
    {
      "anonymous": false,
      "inputs": [
        {
          "indexed": true,
          "internalType": "address",
          "name": "previousOwner",
          "type": "address"
        },
        {
          "indexed": true,
          "internalType": "address",
          "name": "newOwner",
          "type": "address"
        }
      ],
      "name": "OwnershipTransferred",
      "type": "event"
    },
    {
      "inputs": [
        {
          "internalType": "address",
          "name": "mintAuthority_",
          "type": "address"
        }
      ],
      "name": "__SignatureVerifier_init",
      "outputs": [],
      "stateMutability": "nonpayable",
      "type": "function"
    },
    {
      "inputs": [],
      "name": "mintAuthority",
      "outputs": [
        {
          "internalType": "address",
          "name": "",
          "type": "address"
        }
      ],
      "stateMutability": "view",
      "type": "function"
    },
    {
      "inputs": [],
      "name": "owner",
      "outputs": [
        {
          "internalType": "address",
          "name": "",
          "type": "address"
        }
      ],
      "stateMutability": "view",
      "type": "function"
    },
    {
      "inputs": [],
      "name": "renounceOwnership",
      "outputs": [],
      "stateMutability": "nonpayable",
      "type": "function"
    },
    {
      "inputs": [
        {
          "internalType": "address",
          "name": "newOwner",
          "type": "address"
        }
      ],
      "name": "transferOwnership",
      "outputs": [],
      "stateMutability": "nonpayable",
      "type": "function"
    },
    {
      "inputs": [
        {
          "internalType": "address",
          "name": "nextMintAuthority",
          "type": "address"
        }
      ],
      "name": "updateMintAuthority",
      "outputs": [],
      "stateMutability": "nonpayable",
      "type": "function"
    },
    {
      "inputs": [
        {
          "internalType": "bytes32",
          "name": "sigHash",
          "type": "bytes32"
        },
        {
          "internalType": "bytes",
          "name": "sig",
          "type": "bytes"
        }
      ],
      "name": "verifySignature",
      "outputs": [
        {
          "internalType": "bool",
          "name": "",
          "type": "bool"
        }
      ],
      "stateMutability": "view",
      "type": "function"
    }
  ],
  "transactionHash": "0xb074a89b41fbd50718b45c9698d0fdc2ab3b652e582ce28a5b1a9cbc7677c47b",
  "args": [],
  "solcInputHash": "ccb0d5e39d41dd274a47ac49b87ce809",
  "bytecode": "0x608060405234801561001057600080fd5b506116f4806100206000396000f3fe608060405234801561001057600080fd5b506004361061007d5760003560e01c80639340b21e1161005b5780639340b21e146100c6578063984767b4146100e4578063daca6f7814610100578063f2fde38b146101305761007d565b80630130a33b14610082578063715018a61461009e5780638da5cb5b146100a8575b600080fd5b61009c60048036038101906100979190610e8f565b61014c565b005b6100a6610325565b005b6100b06103ad565b6040516100bd91906110b2565b60405180910390f35b6100ce6103d7565b6040516100db91906110b2565b60405180910390f35b6100fe60048036038101906100f99190610e8f565b610401565b005b61011a60048036038101906101159190610ebc565b6104ec565b60405161012791906110cd565b60405180910390f35b61014a60048036038101906101459190610e8f565b6105aa565b005b6101546103ad565b73ffffffffffffffffffffffffffffffffffffffff166101726106a2565b73ffffffffffffffffffffffffffffffffffffffff1614806101cd57506101976103d7565b73ffffffffffffffffffffffffffffffffffffffff166101b56106a2565b73ffffffffffffffffffffffffffffffffffffffff16145b61020c576040517f08c379a00000000000000000000000000000000000000000000000000000000081526004016102039061124d565b60405180910390fd5b600073ffffffffffffffffffffffffffffffffffffffff168173ffffffffffffffffffffffffffffffffffffffff16141561027c576040517f08c379a00000000000000000000000000000000000000000000000000000000081526004016102739061118d565b60405180910390fd5b80606560006101000a81548173ffffffffffffffffffffffffffffffffffffffff021916908373ffffffffffffffffffffffffffffffffffffffff160217905550606560009054906101000a900473ffffffffffffffffffffffffffffffffffffffff1673ffffffffffffffffffffffffffffffffffffffff167ff0f08e606c1dd3a2c220ada53422fd9fe0aa75614b27db0549f649de3ad2072a60405160405180910390a250565b61032d6106a2565b73ffffffffffffffffffffffffffffffffffffffff1661034b6103ad565b73ffffffffffffffffffffffffffffffffffffffff16146103a1576040517f08c379a00000000000000000000000000000000000000000000000000000000081526004016103989061120d565b60405180910390fd5b6103ab60006106aa565b565b6000603360009054906101000a900473ffffffffffffffffffffffffffffffffffffffff16905090565b6000606560009054906101000a900473ffffffffffffffffffffffffffffffffffffffff16905090565b600060019054906101000a900460ff1680610427575060008054906101000a900460ff16155b610466576040517f08c379a000000000000000000000000000000000000000000000000000000000815260040161045d906111cd565b60405180910390fd5b60008060019054906101000a900460ff1615905080156104b6576001600060016101000a81548160ff02191690831515021790555060016000806101000a81548160ff0219169083151502179055505b6104be610770565b6104c78261014c565b80156104e85760008060016101000a81548160ff0219169083151502179055505b5050565b6000806104f76103d7565b9050600073ffffffffffffffffffffffffffffffffffffffff168173ffffffffffffffffffffffffffffffffffffffff161415610569576040517f08c379a00000000000000000000000000000000000000000000000000000000081526004016105609061122d565b60405180910390fd5b6105738484610859565b73ffffffffffffffffffffffffffffffffffffffff168173ffffffffffffffffffffffffffffffffffffffff161491505092915050565b6105b26106a2565b73ffffffffffffffffffffffffffffffffffffffff166105d06103ad565b73ffffffffffffffffffffffffffffffffffffffff1614610626576040517f08c379a000000000000000000000000000000000000000000000000000000000815260040161061d9061120d565b60405180910390fd5b600073ffffffffffffffffffffffffffffffffffffffff168173ffffffffffffffffffffffffffffffffffffffff161415610696576040517f08c379a000000000000000000000000000000000000000000000000000000000815260040161068d9061116d565b60405180910390fd5b61069f816106aa565b50565b600033905090565b6000603360009054906101000a900473ffffffffffffffffffffffffffffffffffffffff16905081603360006101000a81548173ffffffffffffffffffffffffffffffffffffffff021916908373ffffffffffffffffffffffffffffffffffffffff1602179055508173ffffffffffffffffffffffffffffffffffffffff168173ffffffffffffffffffffffffffffffffffffffff167f8be0079c531659141344cd1fd0a4f28419497f9722a3daafe3b4186f6b6457e060405160405180910390a35050565b600060019054906101000a900460ff1680610796575060008054906101000a900460ff16155b6107d5576040517f08c379a00000000000000000000000000000000000000000000000000000000081526004016107cc906111cd565b60405180910390fd5b60008060019054906101000a900460ff161590508015610825576001600060016101000a81548160ff02191690831515021790555060016000806101000a81548160ff0219169083151502179055505b61082d610880565b610835610959565b80156108565760008060016101000a81548160ff0219169083151502179055505b50565b60008060006108688585610a42565b9150915061087581610ac5565b819250505092915050565b600060019054906101000a900460ff16806108a6575060008054906101000a900460ff16155b6108e5576040517f08c379a00000000000000000000000000000000000000000000000000000000081526004016108dc906111cd565b60405180910390fd5b60008060019054906101000a900460ff161590508015610935576001600060016101000a81548160ff02191690831515021790555060016000806101000a81548160ff0219169083151502179055505b80156109565760008060016101000a81548160ff0219169083151502179055505b50565b600060019054906101000a900460ff168061097f575060008054906101000a900460ff16155b6109be576040517f08c379a00000000000000000000000000000000000000000000000000000000081526004016109b5906111cd565b60405180910390fd5b60008060019054906101000a900460ff161590508015610a0e576001600060016101000a81548160ff02191690831515021790555060016000806101000a81548160ff0219169083151502179055505b610a1e610a196106a2565b6106aa565b8015610a3f5760008060016101000a81548160ff0219169083151502179055505b50565b600080604183511415610a845760008060006020860151925060408601519150606086015160001a9050610a7887828585610c9a565b94509450505050610abe565b604083511415610ab5576000806020850151915060408501519050610aaa868383610da7565b935093505050610abe565b60006002915091505b9250929050565b60006004811115610ad957610ad8611369565b5b816004811115610aec57610aeb611369565b5b1415610af757610c97565b60016004811115610b0b57610b0a611369565b5b816004811115610b1e57610b1d611369565b5b1415610b5f576040517f08c379a0000000000000000000000000000000000000000000000000000000008152600401610b569061112d565b60405180910390fd5b60026004811115610b7357610b72611369565b5b816004811115610b8657610b85611369565b5b1415610bc7576040517f08c379a0000000000000000000000000000000000000000000000000000000008152600401610bbe9061114d565b60405180910390fd5b60036004811115610bdb57610bda611369565b5b816004811115610bee57610bed611369565b5b1415610c2f576040517f08c379a0000000000000000000000000000000000000000000000000000000008152600401610c26906111ad565b60405180910390fd5b600480811115610c4257610c41611369565b5b816004811115610c5557610c54611369565b5b1415610c96576040517f08c379a0000000000000000000000000000000000000000000000000000000008152600401610c8d906111ed565b60405180910390fd5b5b50565b6000807f7fffffffffffffffffffffffffffffff5d576e7357a4501ddfe92f46681b20a08360001c1115610cd5576000600391509150610d9e565b601b8560ff1614158015610ced5750601c8560ff1614155b15610cff576000600491509150610d9e565b600060018787878760405160008152602001604052604051610d2494939291906110e8565b6020604051602081039080840390855afa158015610d46573d6000803e3d6000fd5b505050602060405103519050600073ffffffffffffffffffffffffffffffffffffffff168173ffffffffffffffffffffffffffffffffffffffff161415610d9557600060019250925050610d9e565b80600092509250505b94509492505050565b6000806000807f7fffffffffffffffffffffffffffffffffffffffffffffffffffffffffffffff85169150601b8560ff1c019050610de787828885610c9a565b935093505050935093915050565b6000610e08610e0384611292565b61126d565b905082815260208101848484011115610e2457610e236113cc565b5b610e2f848285611329565b509392505050565b600081359050610e4681611690565b92915050565b600081359050610e5b816116a7565b92915050565b600082601f830112610e7657610e756113c7565b5b8135610e86848260208601610df5565b91505092915050565b600060208284031215610ea557610ea46113d6565b5b6000610eb384828501610e37565b91505092915050565b60008060408385031215610ed357610ed26113d6565b5b6000610ee185828601610e4c565b925050602083013567ffffffffffffffff811115610f0257610f016113d1565b5b610f0e85828601610e61565b9150509250929050565b610f21816112d4565b82525050565b610f30816112e6565b82525050565b610f3f816112f2565b82525050565b6000610f526018836112c3565b9150610f5d826113ec565b602082019050919050565b6000610f75601f836112c3565b9150610f8082611415565b602082019050919050565b6000610f986026836112c3565b9150610fa38261143e565b604082019050919050565b6000610fbb603e836112c3565b9150610fc68261148d565b604082019050919050565b6000610fde6022836112c3565b9150610fe9826114dc565b604082019050919050565b6000611001602e836112c3565b915061100c8261152b565b604082019050919050565b60006110246022836112c3565b915061102f8261157a565b604082019050919050565b60006110476020836112c3565b9150611052826115c9565b602082019050919050565b600061106a6030836112c3565b9150611075826115f2565b604082019050919050565b600061108d6021836112c3565b915061109882611641565b604082019050919050565b6110ac8161131c565b82525050565b60006020820190506110c76000830184610f18565b92915050565b60006020820190506110e26000830184610f27565b92915050565b60006080820190506110fd6000830187610f36565b61110a60208301866110a3565b6111176040830185610f36565b6111246060830184610f36565b95945050505050565b6000602082019050818103600083015261114681610f45565b9050919050565b6000602082019050818103600083015261116681610f68565b9050919050565b6000602082019050818103600083015261118681610f8b565b9050919050565b600060208201905081810360008301526111a681610fae565b9050919050565b600060208201905081810360008301526111c681610fd1565b9050919050565b600060208201905081810360008301526111e681610ff4565b9050919050565b6000602082019050818103600083015261120681611017565b9050919050565b600060208201905081810360008301526112268161103a565b9050919050565b600060208201905081810360008301526112468161105d565b9050919050565b6000602082019050818103600083015261126681611080565b9050919050565b6000611277611288565b90506112838282611338565b919050565b6000604051905090565b600067ffffffffffffffff8211156112ad576112ac611398565b5b6112b6826113db565b9050602081019050919050565b600082825260208201905092915050565b60006112df826112fc565b9050919050565b60008115159050919050565b6000819050919050565b600073ffffffffffffffffffffffffffffffffffffffff82169050919050565b600060ff82169050919050565b82818337600083830152505050565b611341826113db565b810181811067ffffffffffffffff821117156113605761135f611398565b5b80604052505050565b7f4e487b7100000000000000000000000000000000000000000000000000000000600052602160045260246000fd5b7f4e487b7100000000000000000000000000000000000000000000000000000000600052604160045260246000fd5b600080fd5b600080fd5b600080fd5b600080fd5b6000601f19601f8301169050919050565b7f45434453413a20696e76616c6964207369676e61747572650000000000000000600082015250565b7f45434453413a20696e76616c6964207369676e6174757265206c656e67746800600082015250565b7f4f776e61626c653a206e6577206f776e657220697320746865207a65726f206160008201527f6464726573730000000000000000000000000000000000000000000000000000602082015250565b7f5369676e617475726556657269666965723a206d696e74417574686f7269747960008201527f2063616e6e6f742062652073657420746f2061646472657373207a65726f0000602082015250565b7f45434453413a20696e76616c6964207369676e6174757265202773272076616c60008201527f7565000000000000000000000000000000000000000000000000000000000000602082015250565b7f496e697469616c697a61626c653a20636f6e747261637420697320616c72656160008201527f647920696e697469616c697a6564000000000000000000000000000000000000602082015250565b7f45434453413a20696e76616c6964207369676e6174757265202776272076616c60008201527f7565000000000000000000000000000000000000000000000000000000000000602082015250565b7f4f776e61626c653a2063616c6c6572206973206e6f7420746865206f776e6572600082015250565b7f5369676e617475726556657269666965723a206d696e74417574686f7269747960008201527f206e6f7420696e697469616c697a656400000000000000000000000000000000602082015250565b7f5369676e617475726556657269666965723a206e6f7420617574686f72697a6560008201527f6400000000000000000000000000000000000000000000000000000000000000602082015250565b611699816112d4565b81146116a457600080fd5b50565b6116b0816112f2565b81146116bb57600080fd5b5056fea2646970667358221220c7aac59f19399099a1a38012f05a8aa8d8e0eaa463bb82cb3303fca931534ee364736f6c63430008070033",
  "devdoc": {
    "kind": "dev",
    "methods": {
      "owner()": {
        "details": "Returns the address of the current owner."
      },
      "renounceOwnership()": {
        "details": "Leaves the contract without owner. It will not be possible to call `onlyOwner` functions anymore. Can only be called by the current owner. NOTE: Renouncing ownership will leave the contract without an owner, thereby removing any functionality that is only available to the owner."
      },
      "transferOwnership(address)": {
        "details": "Transfers ownership of the contract to a new account (`newOwner`). Can only be called by the current owner."
      },
      "updateMintAuthority(address)": {
        "params": {
          "nextMintAuthority": "The new mint authority address."
        }
      }
    },
    "version": 1
  },
  "userdoc": {
    "kind": "user",
    "methods": {
      "updateMintAuthority(address)": {
        "notice": "Allow the owner or mint authority to update the mint authority."
      },
      "verifySignature(bytes32,bytes)": {
        "notice": "verifySignature checks the the provided signature matches the provided parameters."
      }
    },
    "notice": "Gateway handles verifying mint and burn requests. A mintAuthority approves new assets to be minted by providing a digital signature. An owner of an asset can request for it to be burnt.",
    "version": 1
  },
  "storageLayout": {
    "storage": [
      {
        "astId": 773,
        "contract": "src/Gateways/common/SignatureVerifier.sol:SignatureVerifierV1",
        "label": "_initialized",
        "offset": 0,
        "slot": "0",
        "type": "t_bool"
      },
      {
        "astId": 776,
        "contract": "src/Gateways/common/SignatureVerifier.sol:SignatureVerifierV1",
        "label": "_initializing",
        "offset": 1,
        "slot": "0",
        "type": "t_bool"
      },
      {
        "astId": 1994,
        "contract": "src/Gateways/common/SignatureVerifier.sol:SignatureVerifierV1",
        "label": "__gap",
        "offset": 0,
        "slot": "1",
        "type": "t_array(t_uint256)50_storage"
      },
      {
        "astId": 653,
        "contract": "src/Gateways/common/SignatureVerifier.sol:SignatureVerifierV1",
        "label": "_owner",
        "offset": 0,
        "slot": "51",
        "type": "t_address"
      },
      {
        "astId": 766,
        "contract": "src/Gateways/common/SignatureVerifier.sol:SignatureVerifierV1",
        "label": "__gap",
        "offset": 0,
        "slot": "52",
        "type": "t_array(t_uint256)49_storage"
      },
      {
        "astId": 9517,
        "contract": "src/Gateways/common/SignatureVerifier.sol:SignatureVerifierV1",
        "label": "_mintAuthority",
        "offset": 0,
        "slot": "101",
        "type": "t_address"
      },
      {
        "astId": 9521,
        "contract": "src/Gateways/common/SignatureVerifier.sol:SignatureVerifierV1",
        "label": "__gap",
        "offset": 0,
        "slot": "102",
        "type": "t_array(t_uint256)49_storage"
      }
    ],
    "types": {
      "t_address": {
        "encoding": "inplace",
        "label": "address",
        "numberOfBytes": "20"
      },
      "t_array(t_uint256)49_storage": {
        "base": "t_uint256",
        "encoding": "inplace",
        "label": "uint256[49]",
        "numberOfBytes": "1568"
      },
      "t_array(t_uint256)50_storage": {
        "base": "t_uint256",
        "encoding": "inplace",
        "label": "uint256[50]",
        "numberOfBytes": "1600"
      },
      "t_bool": {
        "encoding": "inplace",
        "label": "bool",
        "numberOfBytes": "1"
      },
      "t_uint256": {
        "encoding": "inplace",
        "label": "uint256",
        "numberOfBytes": "32"
      }
    }
  }
}