{
  "address": "0x8B3B035a916F5FE8851A6b8EdA2d3D9E41d98d96",
  "abi": [
    {
      "inputs": [
        {
          "internalType": "contract IGatewayRegistry",
          "name": "_registry",
          "type": "address"
        }
      ],
      "stateMutability": "nonpayable",
      "type": "constructor"
    },
    {
      "inputs": [],
      "name": "NAME",
      "outputs": [
        {
          "internalType": "string",
          "name": "",
          "type": "string"
        }
      ],
      "stateMutability": "view",
      "type": "function"
    },
    {
      "inputs": [
        {
          "internalType": "string",
          "name": "symbol",
          "type": "string"
        },
        {
          "internalType": "string",
          "name": "recipient",
          "type": "string"
        },
        {
          "internalType": "uint256",
          "name": "amount",
          "type": "uint256"
        }
      ],
      "name": "burn",
      "outputs": [],
      "stateMutability": "nonpayable",
      "type": "function"
    },
    {
      "inputs": [
        {
          "internalType": "string",
          "name": "symbol",
          "type": "string"
        },
        {
          "internalType": "string",
          "name": "recipientAddress",
          "type": "string"
        },
        {
          "internalType": "string",
          "name": "recipientChain",
          "type": "string"
        },
        {
          "internalType": "bytes",
          "name": "recipientPayload",
          "type": "bytes"
        },
        {
          "internalType": "uint256",
          "name": "amount",
          "type": "uint256"
        }
      ],
      "name": "lock",
      "outputs": [],
      "stateMutability": "nonpayable",
      "type": "function"
    },
    {
      "inputs": [
        {
          "internalType": "string",
          "name": "symbol",
          "type": "string"
        },
        {
          "internalType": "address",
          "name": "recipient",
          "type": "address"
        },
        {
          "internalType": "uint256",
          "name": "amount",
          "type": "uint256"
        },
        {
          "internalType": "bytes32",
          "name": "nHash",
          "type": "bytes32"
        },
        {
          "internalType": "bytes",
          "name": "sig",
          "type": "bytes"
        }
      ],
      "name": "mint",
      "outputs": [],
      "stateMutability": "nonpayable",
      "type": "function"
    },
    {
      "inputs": [],
      "name": "registry",
      "outputs": [
        {
          "internalType": "contract IGatewayRegistry",
          "name": "",
          "type": "address"
        }
      ],
      "stateMutability": "view",
      "type": "function"
    },
    {
      "inputs": [
        {
          "internalType": "string",
          "name": "symbol",
          "type": "string"
        },
        {
          "internalType": "address",
          "name": "recipient",
          "type": "address"
        },
        {
          "internalType": "uint256",
          "name": "amount",
          "type": "uint256"
        },
        {
          "internalType": "bytes32",
          "name": "nHash",
          "type": "bytes32"
        },
        {
          "internalType": "bytes",
          "name": "sig",
          "type": "bytes"
        }
      ],
      "name": "release",
      "outputs": [],
      "stateMutability": "nonpayable",
      "type": "function"
    }
  ],
  "transactionHash": "0xab5e511347b47396db5fd307e7c4a6b6a4fe5314c42dce1ce3720a158fb06bc5",
  "args": [
    "0xd66e94A195edF4e0bB4ca9f4f268d84236568F21"
  ],
  "solcInputHash": "28c8195c7642df595c510e6d4f107e0d",
  "bytecode": "0x60806040523480156200001157600080fd5b506040516200218438038062002184833981810160405281019062000037919062000095565b806000806101000a81548173ffffffffffffffffffffffffffffffffffffffff021916908373ffffffffffffffffffffffffffffffffffffffff160217905550506200012e565b6000815190506200008f8162000114565b92915050565b600060208284031215620000ae57620000ad6200010f565b5b6000620000be848285016200007e565b91505092915050565b6000620000d482620000ef565b9050919050565b6000620000e882620000c7565b9050919050565b600073ffffffffffffffffffffffffffffffffffffffff82169050919050565b600080fd5b6200011f81620000db565b81146200012b57600080fd5b50565b612046806200013e6000396000f3fe608060405234801561001057600080fd5b50600436106100625760003560e01c806377f61403146100675780637b1039991461008357806380a3c633146100a1578063a3f4df7e146100bd578063bc7fac7d146100db578063cc3107a0146100f7575b600080fd5b610081600480360381019061007c91906115c0565b610113565b005b61008b61045c565b6040516100989190611afd565b60405180910390f35b6100bb60048036038101906100b69190611778565b610480565b005b6100c5610842565b6040516100d29190611c00565b60405180910390f35b6100f560048036038101906100f0919061167c565b61087b565b005b610111600480360381019061010c91906115c0565b610bca565b005b60008060009054906101000a900473ffffffffffffffffffffffffffffffffffffffff1673ffffffffffffffffffffffffffffffffffffffff166379c73a7a89896040518363ffffffff1660e01b8152600401610171929190611b18565b60206040518083038186803b15801561018957600080fd5b505afa15801561019d573d6000803e3d6000fd5b505050506040513d601f19601f820116820180604052508101906101c19190611539565b905060008060009054906101000a900473ffffffffffffffffffffffffffffffffffffffff1673ffffffffffffffffffffffffffffffffffffffff16637b5c884f8a8a6040518363ffffffff1660e01b8152600401610221929190611b18565b60206040518083038186803b15801561023957600080fd5b505afa15801561024d573d6000803e3d6000fd5b505050506040513d601f19601f820116820180604052508101906102719190611593565b9050600073ffffffffffffffffffffffffffffffffffffffff168273ffffffffffffffffffffffffffffffffffffffff1614156103065788886040516020016102bb929190611a02565b6040516020818303038152906040526040517f08c379a00000000000000000000000000000000000000000000000000000000081526004016102fd9190611c00565b60405180910390fd5b600073ffffffffffffffffffffffffffffffffffffffff168173ffffffffffffffffffffffffffffffffffffffff161461035e57888860405160200161034d929190611a02565b604051602081830303815290604052505b600089898960405160200161037593929190611b3c565b60405160208183030381529060405280519060200120905060008273ffffffffffffffffffffffffffffffffffffffff1663159ab14d838a8a8a8a6040518663ffffffff1660e01b81526004016103d0959493929190611aaf565b602060405180830381600087803b1580156103ea57600080fd5b505af11580156103fe573d6000803e3d6000fd5b505050506040513d601f19601f82011682018060405250810190610422919061180d565b905061044f89828673ffffffffffffffffffffffffffffffffffffffff16610f139092919063ffffffff16565b5050505050505050505050565b60008054906101000a900473ffffffffffffffffffffffffffffffffffffffff1681565b60008060009054906101000a900473ffffffffffffffffffffffffffffffffffffffff1673ffffffffffffffffffffffffffffffffffffffff166379c73a7a87876040518363ffffffff1660e01b81526004016104de929190611b18565b60206040518083038186803b1580156104f657600080fd5b505afa15801561050a573d6000803e3d6000fd5b505050506040513d601f19601f8201168201806040525081019061052e9190611539565b905060008060009054906101000a900473ffffffffffffffffffffffffffffffffffffffff1673ffffffffffffffffffffffffffffffffffffffff16637b5c884f88886040518363ffffffff1660e01b815260040161058e929190611b18565b60206040518083038186803b1580156105a657600080fd5b505afa1580156105ba573d6000803e3d6000fd5b505050506040513d601f19601f820116820180604052508101906105de9190611593565b9050600073ffffffffffffffffffffffffffffffffffffffff168273ffffffffffffffffffffffffffffffffffffffff161415610673578686604051602001610628929190611a02565b6040516020818303038152906040526040517f08c379a000000000000000000000000000000000000000000000000000000000815260040161066a9190611c00565b60405180910390fd5b600073ffffffffffffffffffffffffffffffffffffffff168173ffffffffffffffffffffffffffffffffffffffff16146106cb5786866040516020016106ba929190611a02565b604051602081830303815290604052505b6106ff6106d6610f99565b30858573ffffffffffffffffffffffffffffffffffffffff16610fa1909392919063ffffffff16565b60008054906101000a900473ffffffffffffffffffffffffffffffffffffffff1673ffffffffffffffffffffffffffffffffffffffff16637b5c884f88886040518363ffffffff1660e01b815260040161075a929190611b18565b60206040518083038186803b15801561077257600080fd5b505afa158015610786573d6000803e3d6000fd5b505050506040513d601f19601f820116820180604052508101906107aa9190611593565b73ffffffffffffffffffffffffffffffffffffffff1663b48272cc8686866040518463ffffffff1660e01b81526004016107e693929190611bce565b602060405180830381600087803b15801561080057600080fd5b505af1158015610814573d6000803e3d6000fd5b505050506040513d601f19601f82011682018060405250810190610838919061180d565b5050505050505050565b6040518060400160405280600b81526020017f426173696342726964676500000000000000000000000000000000000000000081525081565b60008060009054906101000a900473ffffffffffffffffffffffffffffffffffffffff1673ffffffffffffffffffffffffffffffffffffffff16639c789bb88b8b6040518363ffffffff1660e01b81526004016108d9929190611b18565b60206040518083038186803b1580156108f157600080fd5b505afa158015610905573d6000803e3d6000fd5b505050506040513d601f19601f820116820180604052508101906109299190611539565b905060008060009054906101000a900473ffffffffffffffffffffffffffffffffffffffff1673ffffffffffffffffffffffffffffffffffffffff16633922d1398c8c6040518363ffffffff1660e01b8152600401610989929190611b18565b60206040518083038186803b1580156109a157600080fd5b505afa1580156109b5573d6000803e3d6000fd5b505050506040513d601f19601f820116820180604052508101906109d99190611566565b9050600073ffffffffffffffffffffffffffffffffffffffff168273ffffffffffffffffffffffffffffffffffffffff161415610a6e578a8a604051602001610a23929190611a02565b6040516020818303038152906040526040517f08c379a0000000000000000000000000000000000000000000000000000000008152600401610a659190611c00565b60405180910390fd5b600073ffffffffffffffffffffffffffffffffffffffff168173ffffffffffffffffffffffffffffffffffffffff1614610ac6578a8a604051602001610ab5929190611a02565b604051602081830303815290604052505b610afa610ad1610f99565b30858573ffffffffffffffffffffffffffffffffffffffff16610fa1909392919063ffffffff16565b610b2581848473ffffffffffffffffffffffffffffffffffffffff1661102a9092919063ffffffff16565b8073ffffffffffffffffffffffffffffffffffffffff1663ca9d95328a8a8a8a8a8a8a6040518863ffffffff1660e01b8152600401610b6a9796959493929190611b6e565b602060405180830381600087803b158015610b8457600080fd5b505af1158015610b98573d6000803e3d6000fd5b505050506040513d601f19601f82011682018060405250810190610bbc919061180d565b505050505050505050505050565b60008060009054906101000a900473ffffffffffffffffffffffffffffffffffffffff1673ffffffffffffffffffffffffffffffffffffffff16639c789bb889896040518363ffffffff1660e01b8152600401610c28929190611b18565b60206040518083038186803b158015610c4057600080fd5b505afa158015610c54573d6000803e3d6000fd5b505050506040513d601f19601f82011682018060405250810190610c789190611539565b905060008060009054906101000a900473ffffffffffffffffffffffffffffffffffffffff1673ffffffffffffffffffffffffffffffffffffffff16633922d1398a8a6040518363ffffffff1660e01b8152600401610cd8929190611b18565b60206040518083038186803b158015610cf057600080fd5b505afa158015610d04573d6000803e3d6000fd5b505050506040513d601f19601f82011682018060405250810190610d289190611566565b9050600073ffffffffffffffffffffffffffffffffffffffff168273ffffffffffffffffffffffffffffffffffffffff161415610dbd578888604051602001610d72929190611a02565b6040516020818303038152906040526040517f08c379a0000000000000000000000000000000000000000000000000000000008152600401610db49190611c00565b60405180910390fd5b600073ffffffffffffffffffffffffffffffffffffffff168173ffffffffffffffffffffffffffffffffffffffff1614610e15578888604051602001610e04929190611a02565b604051602081830303815290604052505b6000898989604051602001610e2c93929190611b3c565b60405160208183030381529060405280519060200120905060008273ffffffffffffffffffffffffffffffffffffffff16639cffc715838a8a8a8a6040518663ffffffff1660e01b8152600401610e87959493929190611aaf565b602060405180830381600087803b158015610ea157600080fd5b505af1158015610eb5573d6000803e3d6000fd5b505050506040513d601f19601f82011682018060405250810190610ed9919061180d565b9050610f0689828673ffffffffffffffffffffffffffffffffffffffff16610f139092919063ffffffff16565b5050505050505050505050565b610f948363a9059cbb60e01b8484604051602401610f32929190611a86565b604051602081830303815290604052907bffffffffffffffffffffffffffffffffffffffffffffffffffffffff19166020820180517bffffffffffffffffffffffffffffffffffffffffffffffffffffffff838183161783525050505061114b565b505050565b600033905090565b611024846323b872dd60e01b858585604051602401610fc293929190611a4f565b604051602081830303815290604052907bffffffffffffffffffffffffffffffffffffffffffffffffffffffff19166020820180517bffffffffffffffffffffffffffffffffffffffffffffffffffffffff838183161783525050505061114b565b50505050565b6000818473ffffffffffffffffffffffffffffffffffffffff1663dd62ed3e30866040518363ffffffff1660e01b8152600401611068929190611a26565b60206040518083038186803b15801561108057600080fd5b505afa158015611094573d6000803e3d6000fd5b505050506040513d601f19601f820116820180604052508101906110b8919061180d565b6110c29190611cd0565b90506111458463095ea7b360e01b85846040516024016110e3929190611a86565b604051602081830303815290604052907bffffffffffffffffffffffffffffffffffffffffffffffffffffffff19166020820180517bffffffffffffffffffffffffffffffffffffffffffffffffffffffff838183161783525050505061114b565b50505050565b60006111ad826040518060400160405280602081526020017f5361666545524332303a206c6f772d6c6576656c2063616c6c206661696c65648152508573ffffffffffffffffffffffffffffffffffffffff166112129092919063ffffffff16565b905060008151111561120d57808060200190518101906111cd919061150c565b61120c576040517f08c379a000000000000000000000000000000000000000000000000000000000815260040161120390611c62565b60405180910390fd5b5b505050565b6060611221848460008561122a565b90509392505050565b60608247101561126f576040517f08c379a000000000000000000000000000000000000000000000000000000000815260040161126690611c22565b60405180910390fd5b6112788561133e565b6112b7576040517f08c379a00000000000000000000000000000000000000000000000000000000081526004016112ae90611c42565b60405180910390fd5b6000808673ffffffffffffffffffffffffffffffffffffffff1685876040516112e091906119eb565b60006040518083038185875af1925050503d806000811461131d576040519150601f19603f3d011682016040523d82523d6000602084013e611322565b606091505b5091509150611332828286611351565b92505050949350505050565b600080823b905060008111915050919050565b60608315611361578290506113b1565b6000835111156113745782518084602001fd5b816040517f08c379a00000000000000000000000000000000000000000000000000000000081526004016113a89190611c00565b60405180910390fd5b9392505050565b6000813590506113c781611f6f565b92915050565b6000815190506113dc81611f86565b92915050565b6000813590506113f181611f9d565b92915050565b60008083601f84011261140d5761140c611e5a565b5b8235905067ffffffffffffffff81111561142a57611429611e55565b5b60208301915083600182028301111561144657611445611e5f565b5b9250929050565b60008151905061145c81611fb4565b92915050565b60008151905061147181611fcb565b92915050565b60008151905061148681611fe2565b92915050565b60008083601f8401126114a2576114a1611e5a565b5b8235905067ffffffffffffffff8111156114bf576114be611e55565b5b6020830191508360018202830111156114db576114da611e5f565b5b9250929050565b6000813590506114f181611ff9565b92915050565b60008151905061150681611ff9565b92915050565b60006020828403121561152257611521611e69565b5b6000611530848285016113cd565b91505092915050565b60006020828403121561154f5761154e611e69565b5b600061155d8482850161144d565b91505092915050565b60006020828403121561157c5761157b611e69565b5b600061158a84828501611462565b91505092915050565b6000602082840312156115a9576115a8611e69565b5b60006115b784828501611477565b91505092915050565b600080600080600080600060a0888a0312156115df576115de611e69565b5b600088013567ffffffffffffffff8111156115fd576115fc611e64565b5b6116098a828b0161148c565b9750975050602061161c8a828b016113b8565b955050604061162d8a828b016114e2565b945050606061163e8a828b016113e2565b935050608088013567ffffffffffffffff81111561165f5761165e611e64565b5b61166b8a828b016113f7565b925092505092959891949750929550565b600080600080600080600080600060a08a8c03121561169e5761169d611e69565b5b60008a013567ffffffffffffffff8111156116bc576116bb611e64565b5b6116c88c828d0161148c565b995099505060208a013567ffffffffffffffff8111156116eb576116ea611e64565b5b6116f78c828d0161148c565b975097505060408a013567ffffffffffffffff81111561171a57611719611e64565b5b6117268c828d0161148c565b955095505060608a013567ffffffffffffffff81111561174957611748611e64565b5b6117558c828d016113f7565b935093505060806117688c828d016114e2565b9150509295985092959850929598565b60008060008060006060868803121561179457611793611e69565b5b600086013567ffffffffffffffff8111156117b2576117b1611e64565b5b6117be8882890161148c565b9550955050602086013567ffffffffffffffff8111156117e1576117e0611e64565b5b6117ed8882890161148c565b93509350506040611800888289016114e2565b9150509295509295909350565b60006020828403121561182357611822611e69565b5b6000611831848285016114f7565b91505092915050565b61184381611d26565b82525050565b61185281611d44565b82525050565b60006118648385611c98565b9350611871838584611de4565b61187a83611e6e565b840190509392505050565b600061189082611c82565b61189a8185611ca9565b93506118aa818560208601611df3565b80840191505092915050565b6118bf81611dae565b82525050565b60006118d18385611cb4565b93506118de838584611de4565b6118e783611e6e565b840190509392505050565b60006118fe8385611cc5565b935061190b838584611de4565b82840190509392505050565b600061192282611c8d565b61192c8185611cb4565b935061193c818560208601611df3565b61194581611e6e565b840191505092915050565b600061195d602683611cb4565b915061196882611e7f565b604082019050919050565b6000611980601b83611cc5565b915061198b82611ece565b601b82019050919050565b60006119a3601d83611cb4565b91506119ae82611ef7565b602082019050919050565b60006119c6602a83611cb4565b91506119d182611f20565b604082019050919050565b6119e581611da4565b82525050565b60006119f78284611885565b915081905092915050565b6000611a0d82611973565b9150611a1a8284866118f2565b91508190509392505050565b6000604082019050611a3b600083018561183a565b611a48602083018461183a565b9392505050565b6000606082019050611a64600083018661183a565b611a71602083018561183a565b611a7e60408301846119dc565b949350505050565b6000604082019050611a9b600083018561183a565b611aa860208301846119dc565b9392505050565b6000608082019050611ac46000830188611849565b611ad160208301876119dc565b611ade6040830186611849565b8181036060830152611af1818486611858565b90509695505050505050565b6000602082019050611b1260008301846118b6565b92915050565b60006020820190508181036000830152611b338184866118c5565b90509392505050565b60006040820190508181036000830152611b578185876118c5565b9050611b66602083018461183a565b949350505050565b60006080820190508181036000830152611b8981898b6118c5565b90508181036020830152611b9e8187896118c5565b90508181036040830152611bb3818587611858565b9050611bc260608301846119dc565b98975050505050505050565b60006040820190508181036000830152611be98185876118c5565b9050611bf860208301846119dc565b949350505050565b60006020820190508181036000830152611c1a8184611917565b905092915050565b60006020820190508181036000830152611c3b81611950565b9050919050565b60006020820190508181036000830152611c5b81611996565b9050919050565b60006020820190508181036000830152611c7b816119b9565b9050919050565b600081519050919050565b600081519050919050565b600082825260208201905092915050565b600081905092915050565b600082825260208201905092915050565b600081905092915050565b6000611cdb82611da4565b9150611ce683611da4565b9250827fffffffffffffffffffffffffffffffffffffffffffffffffffffffffffffffff03821115611d1b57611d1a611e26565b5b828201905092915050565b6000611d3182611d84565b9050919050565b60008115159050919050565b6000819050919050565b6000611d5982611d26565b9050919050565b6000611d6b82611d26565b9050919050565b6000611d7d82611d26565b9050919050565b600073ffffffffffffffffffffffffffffffffffffffff82169050919050565b6000819050919050565b6000611db982611dc0565b9050919050565b6000611dcb82611dd2565b9050919050565b6000611ddd82611d84565b9050919050565b82818337600083830152505050565b60005b83811015611e11578082015181840152602081019050611df6565b83811115611e20576000848401525b50505050565b7f4e487b7100000000000000000000000000000000000000000000000000000000600052601160045260246000fd5b600080fd5b600080fd5b600080fd5b600080fd5b600080fd5b6000601f19601f8301169050919050565b7f416464726573733a20696e73756666696369656e742062616c616e636520666f60008201527f722063616c6c0000000000000000000000000000000000000000000000000000602082015250565b7f42617369634272696467653a20756e6b6e6f776e206173736574200000000000600082015250565b7f416464726573733a2063616c6c20746f206e6f6e2d636f6e7472616374000000600082015250565b7f5361666545524332303a204552433230206f7065726174696f6e20646964206e60008201527f6f74207375636365656400000000000000000000000000000000000000000000602082015250565b611f7881611d26565b8114611f8357600080fd5b50565b611f8f81611d38565b8114611f9a57600080fd5b50565b611fa681611d44565b8114611fb157600080fd5b50565b611fbd81611d4e565b8114611fc857600080fd5b50565b611fd481611d60565b8114611fdf57600080fd5b50565b611feb81611d72565b8114611ff657600080fd5b50565b61200281611da4565b811461200d57600080fd5b5056fea264697066735822122004a20586e0d4a749dbadc60eacd5e08c074e9bc596987a2572959baf9ed9ce2664736f6c63430008070033",
  "devdoc": {
    "kind": "dev",
    "methods": {},
    "version": 1
  },
  "userdoc": {
    "kind": "user",
    "methods": {},
    "version": 1
  },
  "storageLayout": {
    "storage": [
      {
        "astId": 6715,
        "contract": "src/BasicBridge.sol:BasicBridge",
        "label": "registry",
        "offset": 0,
        "slot": "0",
        "type": "t_contract(IGatewayRegistry)8859"
      }
    ],
    "types": {
      "t_contract(IGatewayRegistry)8859": {
        "encoding": "inplace",
        "label": "contract IGatewayRegistry",
        "numberOfBytes": "20"
      }
    }
  }
}