{
  "address": "0x4DeECDf15bc65499B87f6941494c0C86b8eA688e",
  "abi": [
    {
      "inputs": [
        {
          "internalType": "contract IGatewayRegistry",
          "name": "_registry",
          "type": "address"
        }
      ],
      "stateMutability": "nonpayable",
      "type": "constructor"
    },
    {
      "anonymous": false,
      "inputs": [
        {
          "indexed": true,
          "internalType": "address",
          "name": "to",
          "type": "address"
        },
        {
          "indexed": false,
          "internalType": "uint256",
          "name": "amount",
          "type": "uint256"
        }
      ],
      "name": "LogTransferred",
      "type": "event"
    },
    {
      "inputs": [
        {
          "internalType": "string",
          "name": "symbol",
          "type": "string"
        },
        {
          "internalType": "string",
          "name": "to",
          "type": "string"
        },
        {
          "internalType": "uint256",
          "name": "amount",
          "type": "uint256"
        }
      ],
      "name": "burn",
      "outputs": [],
      "stateMutability": "nonpayable",
      "type": "function"
    },
    {
      "inputs": [
        {
          "internalType": "string",
          "name": "symbol",
          "type": "string"
        },
        {
          "internalType": "string",
          "name": "recipientAddress",
          "type": "string"
        },
        {
          "internalType": "string",
          "name": "recipientChain",
          "type": "string"
        },
        {
          "internalType": "bytes",
          "name": "recipientPayload",
          "type": "bytes"
        },
        {
          "internalType": "uint256",
          "name": "amount",
          "type": "uint256"
        }
      ],
      "name": "lock",
      "outputs": [],
      "stateMutability": "nonpayable",
      "type": "function"
    },
    {
      "inputs": [
        {
          "internalType": "string",
          "name": "symbol",
          "type": "string"
        },
        {
          "internalType": "address",
          "name": "recipient",
          "type": "address"
        },
        {
          "internalType": "uint256",
          "name": "amount",
          "type": "uint256"
        },
        {
          "internalType": "bytes32",
          "name": "nHash",
          "type": "bytes32"
        },
        {
          "internalType": "bytes",
          "name": "sig",
          "type": "bytes"
        }
      ],
      "name": "mint",
      "outputs": [],
      "stateMutability": "nonpayable",
      "type": "function"
    },
    {
      "inputs": [
        {
          "internalType": "string",
          "name": "symbol",
          "type": "string"
        },
        {
          "internalType": "address",
          "name": "recipient",
          "type": "address"
        },
        {
          "internalType": "uint256",
          "name": "amount",
          "type": "uint256"
        },
        {
          "internalType": "bytes32",
          "name": "nHash",
          "type": "bytes32"
        },
        {
          "internalType": "bytes",
          "name": "sig",
          "type": "bytes"
        }
      ],
      "name": "release",
      "outputs": [],
      "stateMutability": "nonpayable",
      "type": "function"
    },
    {
      "inputs": [
        {
          "internalType": "address payable",
          "name": "to",
          "type": "address"
        }
      ],
      "name": "transferWithLog",
      "outputs": [],
      "stateMutability": "payable",
      "type": "function"
    }
  ],
  "transactionHash": "0xce462587594c2f88dfd15afdf7b21b86df006ee1dc38757b7f5b08046b8440d3",
  "args": [
    "0x707bBd01A54958d1c0303b29CAfA9D9fB2D61C10"
  ],
  "solcInputHash": "5dcb7bb5888a32647c27b052cd7c144f",
  "bytecode": "0x60806040523480156200001157600080fd5b50604051620020aa380380620020aa833981810160405281019062000037919062000095565b806000806101000a81548173ffffffffffffffffffffffffffffffffffffffff021916908373ffffffffffffffffffffffffffffffffffffffff160217905550506200012e565b6000815190506200008f8162000114565b92915050565b600060208284031215620000ae57620000ad6200010f565b5b6000620000be848285016200007e565b91505092915050565b6000620000d482620000ef565b9050919050565b6000620000e882620000c7565b9050919050565b600073ffffffffffffffffffffffffffffffffffffffff82169050919050565b600080fd5b6200011f81620000db565b81146200012b57600080fd5b50565b611f6c806200013e6000396000f3fe60806040526004361061004a5760003560e01c806377f614031461004f57806380a3c63314610078578063bc7fac7d146100a1578063cc3107a0146100ca578063f3659492146100f3575b600080fd5b34801561005b57600080fd5b5061007660048036038101906100719190611358565b61010f565b005b34801561008457600080fd5b5061009f600480360381019061009a9190611414565b610360565b005b3480156100ad57600080fd5b506100c860048036038101906100c391906114a9565b610578565b005b3480156100d657600080fd5b506100f160048036038101906100ec9190611358565b6107cc565b005b61010d60048036038101906101089190611277565b610a1d565b005b600087878760405160200161012693929190611919565b60405160208183030381529060405280519060200120905060008060009054906101000a900473ffffffffffffffffffffffffffffffffffffffff1673ffffffffffffffffffffffffffffffffffffffff16637b5c884f8a8a6040518363ffffffff1660e01b815260040161019c9291906118f5565b60206040518083038186803b1580156101b457600080fd5b505afa1580156101c8573d6000803e3d6000fd5b505050506040513d601f19601f820116820180604052508101906101ec919061132b565b73ffffffffffffffffffffffffffffffffffffffff1663159ab14d83888888886040518663ffffffff1660e01b815260040161022c959493929190611875565b602060405180830381600087803b15801561024657600080fd5b505af115801561025a573d6000803e3d6000fd5b505050506040513d601f19601f8201168201806040525081019061027e9190611597565b9050610355878260008054906101000a900473ffffffffffffffffffffffffffffffffffffffff1673ffffffffffffffffffffffffffffffffffffffff166379c73a7a8d8d6040518363ffffffff1660e01b81526004016102e09291906118f5565b60206040518083038186803b1580156102f857600080fd5b505afa15801561030c573d6000803e3d6000fd5b505050506040513d601f19601f8201168201806040525081019061033091906112d1565b73ffffffffffffffffffffffffffffffffffffffff16610b919092919063ffffffff16565b505050505050505050565b61043733308360008054906101000a900473ffffffffffffffffffffffffffffffffffffffff1673ffffffffffffffffffffffffffffffffffffffff166379c73a7a8a8a6040518363ffffffff1660e01b81526004016103c19291906118f5565b60206040518083038186803b1580156103d957600080fd5b505afa1580156103ed573d6000803e3d6000fd5b505050506040513d601f19601f8201168201806040525081019061041191906112d1565b73ffffffffffffffffffffffffffffffffffffffff16610c17909392919063ffffffff16565b60008054906101000a900473ffffffffffffffffffffffffffffffffffffffff1673ffffffffffffffffffffffffffffffffffffffff16637b5c884f86866040518363ffffffff1660e01b81526004016104929291906118f5565b60206040518083038186803b1580156104aa57600080fd5b505afa1580156104be573d6000803e3d6000fd5b505050506040513d601f19601f820116820180604052508101906104e2919061132b565b73ffffffffffffffffffffffffffffffffffffffff166338463cff8484846040518463ffffffff1660e01b815260040161051e939291906118c3565b602060405180830381600087803b15801561053857600080fd5b505af115801561054c573d6000803e3d6000fd5b505050506040513d601f19601f820116820180604052508101906105709190611597565b505050505050565b60008060009054906101000a900473ffffffffffffffffffffffffffffffffffffffff1673ffffffffffffffffffffffffffffffffffffffff16639c789bb888886040518363ffffffff1660e01b81526004016105d69291906118f5565b60206040518083038186803b1580156105ee57600080fd5b505afa158015610602573d6000803e3d6000fd5b505050506040513d601f19601f8201168201806040525081019061062691906112d1565b905060008060009054906101000a900473ffffffffffffffffffffffffffffffffffffffff1673ffffffffffffffffffffffffffffffffffffffff16633922d13989896040518363ffffffff1660e01b81526004016106869291906118f5565b60206040518083038186803b15801561069e57600080fd5b505afa1580156106b2573d6000803e3d6000fd5b505050506040513d601f19601f820116820180604052508101906106d691906112fe565b90506107053330858573ffffffffffffffffffffffffffffffffffffffff16610c17909392919063ffffffff16565b61073081848473ffffffffffffffffffffffffffffffffffffffff16610ca09092919063ffffffff16565b8073ffffffffffffffffffffffffffffffffffffffff1663ca9d9532878787876040518563ffffffff1660e01b815260040161076f949392919061196d565b602060405180830381600087803b15801561078957600080fd5b505af115801561079d573d6000803e3d6000fd5b505050506040513d601f19601f820116820180604052508101906107c19190611597565b505050505050505050565b60008787876040516020016107e393929190611919565b60405160208183030381529060405280519060200120905060008060009054906101000a900473ffffffffffffffffffffffffffffffffffffffff1673ffffffffffffffffffffffffffffffffffffffff16633922d1398a8a6040518363ffffffff1660e01b81526004016108599291906118f5565b60206040518083038186803b15801561087157600080fd5b505afa158015610885573d6000803e3d6000fd5b505050506040513d601f19601f820116820180604052508101906108a991906112fe565b73ffffffffffffffffffffffffffffffffffffffff16639cffc71583888888886040518663ffffffff1660e01b81526004016108e9959493929190611875565b602060405180830381600087803b15801561090357600080fd5b505af1158015610917573d6000803e3d6000fd5b505050506040513d601f19601f8201168201806040525081019061093b9190611597565b9050610a12878260008054906101000a900473ffffffffffffffffffffffffffffffffffffffff1673ffffffffffffffffffffffffffffffffffffffff166379c73a7a8d8d6040518363ffffffff1660e01b815260040161099d9291906118f5565b60206040518083038186803b1580156109b557600080fd5b505afa1580156109c9573d6000803e3d6000fd5b505050506040513d601f19601f820116820180604052508101906109ed91906112d1565b73ffffffffffffffffffffffffffffffffffffffff16610b919092919063ffffffff16565b505050505050505050565b600073ffffffffffffffffffffffffffffffffffffffff168173ffffffffffffffffffffffffffffffffffffffff161415610a8d576040517f08c379a0000000000000000000000000000000000000000000000000000000008152600401610a84906119c7565b60405180910390fd5b600034905060008273ffffffffffffffffffffffffffffffffffffffff1682604051610ab8906117d7565b60006040518083038185875af1925050503d8060008114610af5576040519150601f19603f3d011682016040523d82523d6000602084013e610afa565b606091505b5050905080610b3e576040517f08c379a0000000000000000000000000000000000000000000000000000000008152600401610b3590611a07565b60405180910390fd5b8273ffffffffffffffffffffffffffffffffffffffff167f4909723ded78621fa370c17d36d55ee27aad56a8e80a6d2d429c0b93c654649383604051610b849190611a67565b60405180910390a2505050565b610c128363a9059cbb60e01b8484604051602401610bb092919061184c565b604051602081830303815290604052907bffffffffffffffffffffffffffffffffffffffffffffffffffffffff19166020820180517bffffffffffffffffffffffffffffffffffffffffffffffffffffffff8381831617835250505050610dc1565b505050565b610c9a846323b872dd60e01b858585604051602401610c3893929190611815565b604051602081830303815290604052907bffffffffffffffffffffffffffffffffffffffffffffffffffffffff19166020820180517bffffffffffffffffffffffffffffffffffffffffffffffffffffffff8381831617835250505050610dc1565b50505050565b6000818473ffffffffffffffffffffffffffffffffffffffff1663dd62ed3e30866040518363ffffffff1660e01b8152600401610cde9291906117ec565b60206040518083038186803b158015610cf657600080fd5b505afa158015610d0a573d6000803e3d6000fd5b505050506040513d601f19601f82011682018060405250810190610d2e9190611597565b610d389190611b4c565b9050610dbb8463095ea7b360e01b8584604051602401610d5992919061184c565b604051602081830303815290604052907bffffffffffffffffffffffffffffffffffffffffffffffffffffffff19166020820180517bffffffffffffffffffffffffffffffffffffffffffffffffffffffff8381831617835250505050610dc1565b50505050565b6000610e23826040518060400160405280602081526020017f5361666545524332303a206c6f772d6c6576656c2063616c6c206661696c65648152508573ffffffffffffffffffffffffffffffffffffffff16610e889092919063ffffffff16565b9050600081511115610e835780806020019051810190610e4391906112a4565b610e82576040517f08c379a0000000000000000000000000000000000000000000000000000000008152600401610e7990611a47565b60405180910390fd5b5b505050565b6060610e978484600085610ea0565b90509392505050565b606082471015610ee5576040517f08c379a0000000000000000000000000000000000000000000000000000000008152600401610edc906119e7565b60405180910390fd5b610eee85610fb4565b610f2d576040517f08c379a0000000000000000000000000000000000000000000000000000000008152600401610f2490611a27565b60405180910390fd5b6000808673ffffffffffffffffffffffffffffffffffffffff168587604051610f5691906117c0565b60006040518083038185875af1925050503d8060008114610f93576040519150601f19603f3d011682016040523d82523d6000602084013e610f98565b606091505b5091509150610fa8828286610fc7565b92505050949350505050565b600080823b905060008111915050919050565b60608315610fd757829050611027565b600083511115610fea5782518084602001fd5b816040517f08c379a000000000000000000000000000000000000000000000000000000000815260040161101e919061194b565b60405180910390fd5b9392505050565b600061104161103c84611aa7565b611a82565b90508281526020810184848401111561105d5761105c611d1c565b5b611068848285611c3c565b509392505050565b600061108361107e84611ad8565b611a82565b90508281526020810184848401111561109f5761109e611d1c565b5b6110aa848285611c3c565b509392505050565b6000813590506110c181611e7e565b92915050565b6000813590506110d681611e95565b92915050565b6000815190506110eb81611eac565b92915050565b60008135905061110081611ec3565b92915050565b60008083601f84011261111c5761111b611d12565b5b8235905067ffffffffffffffff81111561113957611138611d0d565b5b60208301915083600182028301111561115557611154611d17565b5b9250929050565b600082601f83011261117157611170611d12565b5b813561118184826020860161102e565b91505092915050565b60008151905061119981611eda565b92915050565b6000815190506111ae81611ef1565b92915050565b6000815190506111c381611f08565b92915050565b60008083601f8401126111df576111de611d12565b5b8235905067ffffffffffffffff8111156111fc576111fb611d0d565b5b60208301915083600182028301111561121857611217611d17565b5b9250929050565b600082601f83011261123457611233611d12565b5b8135611244848260208601611070565b91505092915050565b60008135905061125c81611f1f565b92915050565b60008151905061127181611f1f565b92915050565b60006020828403121561128d5761128c611d26565b5b600061129b848285016110c7565b91505092915050565b6000602082840312156112ba576112b9611d26565b5b60006112c8848285016110dc565b91505092915050565b6000602082840312156112e7576112e6611d26565b5b60006112f58482850161118a565b91505092915050565b60006020828403121561131457611313611d26565b5b60006113228482850161119f565b91505092915050565b60006020828403121561134157611340611d26565b5b600061134f848285016111b4565b91505092915050565b600080600080600080600060a0888a03121561137757611376611d26565b5b600088013567ffffffffffffffff81111561139557611394611d21565b5b6113a18a828b016111c9565b975097505060206113b48a828b016110b2565b95505060406113c58a828b0161124d565b94505060606113d68a828b016110f1565b935050608088013567ffffffffffffffff8111156113f7576113f6611d21565b5b6114038a828b01611106565b925092505092959891949750929550565b6000806000806000606086880312156114305761142f611d26565b5b600086013567ffffffffffffffff81111561144e5761144d611d21565b5b61145a888289016111c9565b9550955050602086013567ffffffffffffffff81111561147d5761147c611d21565b5b611489888289016111c9565b9350935050604061149c8882890161124d565b9150509295509295909350565b60008060008060008060a087890312156114c6576114c5611d26565b5b600087013567ffffffffffffffff8111156114e4576114e3611d21565b5b6114f089828a016111c9565b9650965050602087013567ffffffffffffffff81111561151357611512611d21565b5b61151f89828a0161121f565b945050604087013567ffffffffffffffff8111156115405761153f611d21565b5b61154c89828a0161121f565b935050606087013567ffffffffffffffff81111561156d5761156c611d21565b5b61157989828a0161115c565b925050608061158a89828a0161124d565b9150509295509295509295565b6000602082840312156115ad576115ac611d26565b5b60006115bb84828501611262565b91505092915050565b6115cd81611ba2565b82525050565b6115dc81611bd2565b82525050565b60006115ee8385611b1f565b93506115fb838584611c3c565b61160483611d2b565b840190509392505050565b600061161a82611b09565b6116248185611b1f565b9350611634818560208601611c4b565b61163d81611d2b565b840191505092915050565b600061165382611b09565b61165d8185611b30565b935061166d818560208601611c4b565b80840191505092915050565b60006116858385611b3b565b9350611692838584611c3c565b61169b83611d2b565b840190509392505050565b60006116b182611b14565b6116bb8185611b3b565b93506116cb818560208601611c4b565b6116d481611d2b565b840191505092915050565b60006116ec602483611b3b565b91506116f782611d3c565b604082019050919050565b600061170f602683611b3b565b915061171a82611d8b565b604082019050919050565b6000611732601383611b3b565b915061173d82611dda565b602082019050919050565b6000611755600083611b30565b915061176082611e03565b600082019050919050565b6000611778601d83611b3b565b915061178382611e06565b602082019050919050565b600061179b602a83611b3b565b91506117a682611e2f565b604082019050919050565b6117ba81611c32565b82525050565b60006117cc8284611648565b915081905092915050565b60006117e282611748565b9150819050919050565b600060408201905061180160008301856115c4565b61180e60208301846115c4565b9392505050565b600060608201905061182a60008301866115c4565b61183760208301856115c4565b61184460408301846117b1565b949350505050565b600060408201905061186160008301856115c4565b61186e60208301846117b1565b9392505050565b600060808201905061188a60008301886115d3565b61189760208301876117b1565b6118a460408301866115d3565b81810360608301526118b78184866115e2565b90509695505050505050565b600060408201905081810360008301526118de8185876115e2565b90506118ed60208301846117b1565b949350505050565b60006020820190508181036000830152611910818486611679565b90509392505050565b60006040820190508181036000830152611934818587611679565b905061194360208301846115c4565b949350505050565b6000602082019050818103600083015261196581846116a6565b905092915050565b6000608082019050818103600083015261198781876116a6565b9050818103602083015261199b81866116a6565b905081810360408301526119af818561160f565b90506119be60608301846117b1565b95945050505050565b600060208201905081810360008301526119e0816116df565b9050919050565b60006020820190508181036000830152611a0081611702565b9050919050565b60006020820190508181036000830152611a2081611725565b9050919050565b60006020820190508181036000830152611a408161176b565b9050919050565b60006020820190508181036000830152611a608161178e565b9050919050565b6000602082019050611a7c60008301846117b1565b92915050565b6000611a8c611a9d565b9050611a988282611c7e565b919050565b6000604051905090565b600067ffffffffffffffff821115611ac257611ac1611cde565b5b611acb82611d2b565b9050602081019050919050565b600067ffffffffffffffff821115611af357611af2611cde565b5b611afc82611d2b565b9050602081019050919050565b600081519050919050565b600081519050919050565b600082825260208201905092915050565b600081905092915050565b600082825260208201905092915050565b6000611b5782611c32565b9150611b6283611c32565b9250827fffffffffffffffffffffffffffffffffffffffffffffffffffffffffffffffff03821115611b9757611b96611caf565b5b828201905092915050565b6000611bad82611c12565b9050919050565b6000611bbf82611c12565b9050919050565b60008115159050919050565b6000819050919050565b6000611be782611ba2565b9050919050565b6000611bf982611ba2565b9050919050565b6000611c0b82611ba2565b9050919050565b600073ffffffffffffffffffffffffffffffffffffffff82169050919050565b6000819050919050565b82818337600083830152505050565b60005b83811015611c69578082015181840152602081019050611c4e565b83811115611c78576000848401525b50505050565b611c8782611d2b565b810181811067ffffffffffffffff82111715611ca657611ca5611cde565b5b80604052505050565b7f4e487b7100000000000000000000000000000000000000000000000000000000600052601160045260246000fd5b7f4e487b7100000000000000000000000000000000000000000000000000000000600052604160045260246000fd5b600080fd5b600080fd5b600080fd5b600080fd5b600080fd5b600080fd5b6000601f19601f8301169050919050565b7f42617369634272696467653a20696e76616c696420656d70747920726563697060008201527f69656e7400000000000000000000000000000000000000000000000000000000602082015250565b7f416464726573733a20696e73756666696369656e742062616c616e636520666f60008201527f722063616c6c0000000000000000000000000000000000000000000000000000602082015250565b7f657468207472616e73666572206661696c656400000000000000000000000000600082015250565b50565b7f416464726573733a2063616c6c20746f206e6f6e2d636f6e7472616374000000600082015250565b7f5361666545524332303a204552433230206f7065726174696f6e20646964206e60008201527f6f74207375636365656400000000000000000000000000000000000000000000602082015250565b611e8781611ba2565b8114611e9257600080fd5b50565b611e9e81611bb4565b8114611ea957600080fd5b50565b611eb581611bc6565b8114611ec057600080fd5b50565b611ecc81611bd2565b8114611ed757600080fd5b50565b611ee381611bdc565b8114611eee57600080fd5b50565b611efa81611bee565b8114611f0557600080fd5b50565b611f1181611c00565b8114611f1c57600080fd5b50565b611f2881611c32565b8114611f3357600080fd5b5056fea26469706673582212208114cc3dd0bd5b43efb006fd5886a5817b4891071e5b8bdf0201a17bc21a3aa764736f6c63430008070033",
  "devdoc": {
    "kind": "dev",
    "methods": {},
    "version": 1
  },
  "userdoc": {
    "kind": "user",
    "methods": {},
    "version": 1
  },
  "storageLayout": {
    "storage": [
      {
        "astId": 5782,
        "contract": "src/BasicBridge.sol:BasicBridge",
        "label": "registry",
        "offset": 0,
        "slot": "0",
        "type": "t_contract(IGatewayRegistry)7779"
      }
    ],
    "types": {
      "t_contract(IGatewayRegistry)7779": {
        "encoding": "inplace",
        "label": "contract IGatewayRegistry",
        "numberOfBytes": "20"
      }
    }
  }
}