{
  "address": "0xA76401c6f3Cb0903DabD3BC7F033A2075D35693E",
  "abi": [
    {
      "anonymous": false,
      "inputs": [
        {
          "indexed": false,
          "internalType": "string",
          "name": "chainName",
          "type": "string"
        },
        {
          "indexed": false,
          "internalType": "string",
          "name": "asset",
          "type": "string"
        },
        {
          "indexed": false,
          "internalType": "address",
          "name": "signatureVerifier",
          "type": "address"
        },
        {
          "indexed": false,
          "internalType": "address",
          "name": "token",
          "type": "address"
        },
        {
          "indexed": false,
          "internalType": "string",
          "name": "version",
          "type": "string"
        }
      ],
      "name": "LockGatewayProxyDeployed",
      "type": "event"
    },
    {
      "anonymous": false,
      "inputs": [
        {
          "indexed": false,
          "internalType": "string",
          "name": "symbol",
          "type": "string"
        },
        {
          "indexed": true,
          "internalType": "string",
          "name": "indexedSymbol",
          "type": "string"
        }
      ],
      "name": "LogLockGatewayDeleted",
      "type": "event"
    },
    {
      "anonymous": false,
      "inputs": [
        {
          "indexed": false,
          "internalType": "string",
          "name": "symbol",
          "type": "string"
        },
        {
          "indexed": true,
          "internalType": "address",
          "name": "token",
          "type": "address"
        },
        {
          "indexed": true,
          "internalType": "address",
          "name": "gatewayContract",
          "type": "address"
        },
        {
          "indexed": true,
          "internalType": "string",
          "name": "indexedSymbol",
          "type": "string"
        }
      ],
      "name": "LogLockGatewayUpdated",
      "type": "event"
    },
    {
      "anonymous": false,
      "inputs": [
        {
          "indexed": false,
          "internalType": "string",
          "name": "symbol",
          "type": "string"
        },
        {
          "indexed": true,
          "internalType": "string",
          "name": "indexedSymbol",
          "type": "string"
        }
      ],
      "name": "LogMintGatewayDeleted",
      "type": "event"
    },
    {
      "anonymous": false,
      "inputs": [
        {
          "indexed": false,
          "internalType": "string",
          "name": "symbol",
          "type": "string"
        },
        {
          "indexed": true,
          "internalType": "address",
          "name": "token",
          "type": "address"
        },
        {
          "indexed": true,
          "internalType": "address",
          "name": "gatewayContract",
          "type": "address"
        },
        {
          "indexed": true,
          "internalType": "string",
          "name": "indexedSymbol",
          "type": "string"
        }
      ],
      "name": "LogMintGatewayUpdated",
      "type": "event"
    },
    {
      "anonymous": false,
      "inputs": [
        {
          "indexed": true,
          "internalType": "address",
          "name": "newSignatureVerifier",
          "type": "address"
        }
      ],
      "name": "LogSignatureVerifierUpdated",
      "type": "event"
    },
    {
      "anonymous": false,
      "inputs": [
        {
          "indexed": true,
          "internalType": "address",
          "name": "newTransferWithLog",
          "type": "address"
        }
      ],
      "name": "LogTransferWithLogUpdated",
      "type": "event"
    },
    {
      "anonymous": false,
      "inputs": [
        {
          "indexed": false,
          "internalType": "string",
          "name": "chainName",
          "type": "string"
        },
        {
          "indexed": false,
          "internalType": "string",
          "name": "asset",
          "type": "string"
        },
        {
          "indexed": false,
          "internalType": "address",
          "name": "signatureVerifier",
          "type": "address"
        },
        {
          "indexed": false,
          "internalType": "address",
          "name": "token",
          "type": "address"
        },
        {
          "indexed": false,
          "internalType": "string",
          "name": "version",
          "type": "string"
        }
      ],
      "name": "MintGatewayProxyDeployed",
      "type": "event"
    },
    {
      "anonymous": false,
      "inputs": [
        {
          "indexed": false,
          "internalType": "uint256",
          "name": "chainId",
          "type": "uint256"
        },
        {
          "indexed": false,
          "internalType": "string",
          "name": "asset",
          "type": "string"
        },
        {
          "indexed": false,
          "internalType": "string",
          "name": "name",
          "type": "string"
        },
        {
          "indexed": false,
          "internalType": "string",
          "name": "symbol",
          "type": "string"
        },
        {
          "indexed": false,
          "internalType": "uint8",
          "name": "decimals",
          "type": "uint8"
        },
        {
          "indexed": false,
          "internalType": "string",
          "name": "version",
          "type": "string"
        }
      ],
      "name": "RenAssetProxyDeployed",
      "type": "event"
    },
    {
      "anonymous": false,
      "inputs": [
        {
          "indexed": true,
          "internalType": "bytes32",
          "name": "role",
          "type": "bytes32"
        },
        {
          "indexed": true,
          "internalType": "bytes32",
          "name": "previousAdminRole",
          "type": "bytes32"
        },
        {
          "indexed": true,
          "internalType": "bytes32",
          "name": "newAdminRole",
          "type": "bytes32"
        }
      ],
      "name": "RoleAdminChanged",
      "type": "event"
    },
    {
      "anonymous": false,
      "inputs": [
        {
          "indexed": true,
          "internalType": "bytes32",
          "name": "role",
          "type": "bytes32"
        },
        {
          "indexed": true,
          "internalType": "address",
          "name": "account",
          "type": "address"
        },
        {
          "indexed": true,
          "internalType": "address",
          "name": "sender",
          "type": "address"
        }
      ],
      "name": "RoleGranted",
      "type": "event"
    },
    {
      "anonymous": false,
      "inputs": [
        {
          "indexed": true,
          "internalType": "bytes32",
          "name": "role",
          "type": "bytes32"
        },
        {
          "indexed": true,
          "internalType": "address",
          "name": "account",
          "type": "address"
        },
        {
          "indexed": true,
          "internalType": "address",
          "name": "sender",
          "type": "address"
        }
      ],
      "name": "RoleRevoked",
      "type": "event"
    },
    {
      "inputs": [],
      "name": "CAN_ADD_GATEWAYS",
      "outputs": [
        {
          "internalType": "bytes32",
          "name": "",
          "type": "bytes32"
        }
      ],
      "stateMutability": "view",
      "type": "function"
    },
    {
      "inputs": [],
      "name": "CAN_UPDATE_GATEWAYS",
      "outputs": [
        {
          "internalType": "bytes32",
          "name": "",
          "type": "bytes32"
        }
      ],
      "stateMutability": "view",
      "type": "function"
    },
    {
      "inputs": [],
      "name": "DEFAULT_ADMIN_ROLE",
      "outputs": [
        {
          "internalType": "bytes32",
          "name": "",
          "type": "bytes32"
        }
      ],
      "stateMutability": "view",
      "type": "function"
    },
    {
      "inputs": [],
      "name": "NAME",
      "outputs": [
        {
          "internalType": "string",
          "name": "",
          "type": "string"
        }
      ],
      "stateMutability": "view",
      "type": "function"
    },
    {
      "inputs": [
        {
          "internalType": "string",
          "name": "chainName_",
          "type": "string"
        },
        {
          "internalType": "uint256",
          "name": "chainId_",
          "type": "uint256"
        },
        {
          "internalType": "address",
          "name": "adminAddress",
          "type": "address"
        },
        {
          "internalType": "address",
          "name": "signatureVerifier_",
          "type": "address"
        },
        {
          "internalType": "address",
          "name": "transferWithLog",
          "type": "address"
        },
        {
          "internalType": "address",
          "name": "renAssetProxyBeacon_",
          "type": "address"
        },
        {
          "internalType": "address",
          "name": "mintGatewayProxyBeacon_",
          "type": "address"
        },
        {
          "internalType": "address",
          "name": "lockGatewayProxyBeacon_",
          "type": "address"
        }
      ],
      "name": "__GatewayRegistry_init",
      "outputs": [],
      "stateMutability": "nonpayable",
      "type": "function"
    },
    {
      "inputs": [
        {
          "internalType": "address",
          "name": "renAssetProxyBeacon_",
          "type": "address"
        },
        {
          "internalType": "address",
          "name": "mintGatewayProxyBeacon_",
          "type": "address"
        },
        {
          "internalType": "address",
          "name": "lockGatewayProxyBeacon_",
          "type": "address"
        }
      ],
      "name": "__RenAssetFactory_init",
      "outputs": [],
      "stateMutability": "nonpayable",
      "type": "function"
    },
    {
      "inputs": [
        {
          "internalType": "string",
          "name": "symbol",
          "type": "string"
        },
        {
          "internalType": "address",
          "name": "lockAsset",
          "type": "address"
        },
        {
          "internalType": "address",
          "name": "lockGateway",
          "type": "address"
        }
      ],
      "name": "addLockGateway",
      "outputs": [],
      "stateMutability": "nonpayable",
      "type": "function"
    },
    {
      "inputs": [
        {
          "internalType": "string",
          "name": "symbol",
          "type": "string"
        },
        {
          "internalType": "address",
          "name": "renAsset",
          "type": "address"
        },
        {
          "internalType": "address",
          "name": "mintGateway",
          "type": "address"
        }
      ],
      "name": "addMintGateway",
      "outputs": [],
      "stateMutability": "nonpayable",
      "type": "function"
    },
    {
      "inputs": [],
      "name": "chainId",
      "outputs": [
        {
          "internalType": "uint256",
          "name": "",
          "type": "uint256"
        }
      ],
      "stateMutability": "view",
      "type": "function"
    },
    {
      "inputs": [],
      "name": "chainName",
      "outputs": [
        {
          "internalType": "string",
          "name": "",
          "type": "string"
        }
      ],
      "stateMutability": "view",
      "type": "function"
    },
    {
      "inputs": [
        {
          "internalType": "string",
          "name": "symbol",
          "type": "string"
        },
        {
          "internalType": "address",
          "name": "lockToken",
          "type": "address"
        },
        {
          "internalType": "string",
          "name": "version",
          "type": "string"
        }
      ],
      "name": "deployLockGateway",
      "outputs": [],
      "stateMutability": "nonpayable",
      "type": "function"
    },
    {
      "inputs": [
        {
          "internalType": "string",
          "name": "symbol",
          "type": "string"
        },
        {
          "internalType": "address",
          "name": "renAsset",
          "type": "address"
        },
        {
          "internalType": "string",
          "name": "version",
          "type": "string"
        }
      ],
      "name": "deployMintGateway",
      "outputs": [],
      "stateMutability": "nonpayable",
      "type": "function"
    },
    {
      "inputs": [
        {
          "internalType": "string",
          "name": "symbol",
          "type": "string"
        },
        {
          "internalType": "string",
          "name": "erc20Name",
          "type": "string"
        },
        {
          "internalType": "string",
          "name": "erc20Symbol",
          "type": "string"
        },
        {
          "internalType": "uint8",
          "name": "erc20Decimals",
          "type": "uint8"
        },
        {
          "internalType": "string",
          "name": "version",
          "type": "string"
        }
      ],
      "name": "deployMintGatewayAndRenAsset",
      "outputs": [],
      "stateMutability": "nonpayable",
      "type": "function"
    },
    {
      "inputs": [
        {
          "internalType": "string",
          "name": "tokenSymbol",
          "type": "string"
        }
      ],
      "name": "getGatewayBySymbol",
      "outputs": [
        {
          "internalType": "contract IMintGateway",
          "name": "",
          "type": "address"
        }
      ],
      "stateMutability": "view",
      "type": "function"
    },
    {
      "inputs": [
        {
          "internalType": "address",
          "name": "token",
          "type": "address"
        }
      ],
      "name": "getGatewayByToken",
      "outputs": [
        {
          "internalType": "contract IMintGateway",
          "name": "",
          "type": "address"
        }
      ],
      "stateMutability": "view",
      "type": "function"
    },
    {
      "inputs": [
        {
          "internalType": "string",
          "name": "tokenSymbol",
          "type": "string"
        }
      ],
      "name": "getLockAssetBySymbol",
      "outputs": [
        {
          "internalType": "contract IERC20",
          "name": "",
          "type": "address"
        }
      ],
      "stateMutability": "view",
      "type": "function"
    },
    {
      "inputs": [
        {
          "internalType": "string",
          "name": "tokenSymbol",
          "type": "string"
        }
      ],
      "name": "getLockGatewayBySymbol",
      "outputs": [
        {
          "internalType": "contract ILockGateway",
          "name": "",
          "type": "address"
        }
      ],
      "stateMutability": "view",
      "type": "function"
    },
    {
      "inputs": [
        {
          "internalType": "address",
          "name": "token_",
          "type": "address"
        }
      ],
      "name": "getLockGatewayByToken",
      "outputs": [
        {
          "internalType": "contract ILockGateway",
          "name": "",
          "type": "address"
        }
      ],
      "stateMutability": "view",
      "type": "function"
    },
    {
      "inputs": [
        {
          "internalType": "uint256",
          "name": "from",
          "type": "uint256"
        },
        {
          "internalType": "uint256",
          "name": "count",
          "type": "uint256"
        }
      ],
      "name": "getLockGatewaySymbols",
      "outputs": [
        {
          "internalType": "string[]",
          "name": "",
          "type": "string[]"
        }
      ],
      "stateMutability": "view",
      "type": "function"
    },
    {
      "inputs": [
        {
          "internalType": "string",
          "name": "tokenSymbol",
          "type": "string"
        }
      ],
      "name": "getMintGatewayBySymbol",
      "outputs": [
        {
          "internalType": "contract IMintGateway",
          "name": "",
          "type": "address"
        }
      ],
      "stateMutability": "view",
      "type": "function"
    },
    {
      "inputs": [
        {
          "internalType": "address",
          "name": "token",
          "type": "address"
        }
      ],
      "name": "getMintGatewayByToken",
      "outputs": [
        {
          "internalType": "contract IMintGateway",
          "name": "",
          "type": "address"
        }
      ],
      "stateMutability": "view",
      "type": "function"
    },
    {
      "inputs": [
        {
          "internalType": "uint256",
          "name": "from",
          "type": "uint256"
        },
        {
          "internalType": "uint256",
          "name": "count",
          "type": "uint256"
        }
      ],
      "name": "getMintGatewaySymbols",
      "outputs": [
        {
          "internalType": "string[]",
          "name": "",
          "type": "string[]"
        }
      ],
      "stateMutability": "view",
      "type": "function"
    },
    {
      "inputs": [
        {
          "internalType": "string",
          "name": "tokenSymbol",
          "type": "string"
        }
      ],
      "name": "getRenAssetBySymbol",
      "outputs": [
        {
          "internalType": "contract IERC20",
          "name": "",
          "type": "address"
        }
      ],
      "stateMutability": "view",
      "type": "function"
    },
    {
      "inputs": [
        {
          "internalType": "bytes32",
          "name": "role",
          "type": "bytes32"
        }
      ],
      "name": "getRoleAdmin",
      "outputs": [
        {
          "internalType": "bytes32",
          "name": "",
          "type": "bytes32"
        }
      ],
      "stateMutability": "view",
      "type": "function"
    },
    {
      "inputs": [
        {
          "internalType": "bytes32",
          "name": "role",
          "type": "bytes32"
        },
        {
          "internalType": "uint256",
          "name": "index",
          "type": "uint256"
        }
      ],
      "name": "getRoleMember",
      "outputs": [
        {
          "internalType": "address",
          "name": "",
          "type": "address"
        }
      ],
      "stateMutability": "view",
      "type": "function"
    },
    {
      "inputs": [
        {
          "internalType": "bytes32",
          "name": "role",
          "type": "bytes32"
        }
      ],
      "name": "getRoleMemberCount",
      "outputs": [
        {
          "internalType": "uint256",
          "name": "",
          "type": "uint256"
        }
      ],
      "stateMutability": "view",
      "type": "function"
    },
    {
      "inputs": [],
      "name": "getSignatureVerifier",
      "outputs": [
        {
          "internalType": "address",
          "name": "",
          "type": "address"
        }
      ],
      "stateMutability": "view",
      "type": "function"
    },
    {
      "inputs": [
        {
          "internalType": "string",
          "name": "tokenSymbol",
          "type": "string"
        }
      ],
      "name": "getTokenBySymbol",
      "outputs": [
        {
          "internalType": "contract IERC20",
          "name": "",
          "type": "address"
        }
      ],
      "stateMutability": "view",
      "type": "function"
    },
    {
      "inputs": [],
      "name": "getTransferWithLog",
      "outputs": [
        {
          "internalType": "address",
          "name": "",
          "type": "address"
        }
      ],
      "stateMutability": "view",
      "type": "function"
    },
    {
      "inputs": [
        {
          "internalType": "bytes32",
          "name": "role",
          "type": "bytes32"
        },
        {
          "internalType": "address",
          "name": "account",
          "type": "address"
        }
      ],
      "name": "grantRole",
      "outputs": [],
      "stateMutability": "nonpayable",
      "type": "function"
    },
    {
      "inputs": [
        {
          "internalType": "bytes32",
          "name": "role",
          "type": "bytes32"
        },
        {
          "internalType": "address",
          "name": "account",
          "type": "address"
        }
      ],
      "name": "hasRole",
      "outputs": [
        {
          "internalType": "bool",
          "name": "",
          "type": "bool"
        }
      ],
      "stateMutability": "view",
      "type": "function"
    },
    {
      "inputs": [],
      "name": "lockGatewayProxyBeacon",
      "outputs": [
        {
          "internalType": "contract LockGatewayProxyBeaconV1",
          "name": "",
          "type": "address"
        }
      ],
      "stateMutability": "view",
      "type": "function"
    },
    {
      "inputs": [],
      "name": "mintGatewayProxyBeacon",
      "outputs": [
        {
          "internalType": "contract MintGatewayProxyBeaconV1",
          "name": "",
          "type": "address"
        }
      ],
      "stateMutability": "view",
      "type": "function"
    },
    {
      "inputs": [
        {
          "internalType": "string",
          "name": "symbol",
          "type": "string"
        }
      ],
      "name": "removeLockGateway",
      "outputs": [],
      "stateMutability": "nonpayable",
      "type": "function"
    },
    {
      "inputs": [
        {
          "internalType": "string",
          "name": "symbol",
          "type": "string"
        }
      ],
      "name": "removeMintGateway",
      "outputs": [],
      "stateMutability": "nonpayable",
      "type": "function"
    },
    {
      "inputs": [],
      "name": "renAssetProxyBeacon",
      "outputs": [
        {
          "internalType": "contract RenAssetProxyBeaconV1",
          "name": "",
          "type": "address"
        }
      ],
      "stateMutability": "view",
      "type": "function"
    },
    {
      "inputs": [
        {
          "internalType": "bytes32",
          "name": "role",
          "type": "bytes32"
        },
        {
          "internalType": "address",
          "name": "account",
          "type": "address"
        }
      ],
      "name": "renounceRole",
      "outputs": [],
      "stateMutability": "nonpayable",
      "type": "function"
    },
    {
      "inputs": [
        {
          "internalType": "bytes32",
          "name": "role",
          "type": "bytes32"
        },
        {
          "internalType": "address",
          "name": "account",
          "type": "address"
        }
      ],
      "name": "revokeRole",
      "outputs": [],
      "stateMutability": "nonpayable",
      "type": "function"
    },
    {
      "inputs": [
        {
          "internalType": "bytes4",
          "name": "interfaceId",
          "type": "bytes4"
        }
      ],
      "name": "supportsInterface",
      "outputs": [
        {
          "internalType": "bool",
          "name": "",
          "type": "bool"
        }
      ],
      "stateMutability": "view",
      "type": "function"
    },
    {
      "inputs": [
        {
          "internalType": "address",
          "name": "nextSignatureVerifier",
          "type": "address"
        }
      ],
      "name": "updateSignatureVerifier",
      "outputs": [],
      "stateMutability": "nonpayable",
      "type": "function"
    },
    {
      "inputs": [
        {
          "internalType": "address",
          "name": "nextTransferWithLog",
          "type": "address"
        }
      ],
      "name": "updateTransferWithLog",
      "outputs": [],
      "stateMutability": "nonpayable",
      "type": "function"
    }
  ],
  "transactionHash": "0x62f99d2381332b4340b7eb5838a436790ac5d2da72838760902dd7856044fdc6",
  "args": [],
  "solcInputHash": "28c8195c7642df595c510e6d4f107e0d",
  "bytecode": "0x608060405234801561001057600080fd5b50615ed880620000216000396000f3fe608060405234801561001057600080fd5b50600436106102535760003560e01c806364936b1e11610146578063a3f4df7e116100c3578063d2b05fb911610087578063d2b05fb914610758578063d547741f14610774578063efa74f1f14610790578063f4df3e49146107c0578063f858cb9a146107dc578063fc3212c0146107fa57610253565b8063a3f4df7e146106b4578063aa1ab9e3146106d2578063aa883642146106f0578063beae82ae1461070c578063ca15c8731461072857610253565b806391d148541161010a57806391d14854146105e85780639a8a0592146106185780639c789bb814610636578063a217fddf14610666578063a30c50ba1461068457610253565b806364936b1e146104f857806379c73a7a146105285780637b5c884f14610558578063868b3541146105885780639010d07c146105b857610253565b80632d2798ca116101d45780633922d139116101985780633922d13914610458578063462b8ed114610488578063475400ba146104a45780634cb39177146104c05780635667981b146104dc57610253565b80632d2798ca146103c85780632f2ff15d146103e457806333a40ccd14610400578063345763ad1461041e57806336568abe1461043c57610253565b80631c93b03a1161021b5780631c93b03a146103105780631f179f6e1461032e578063248a9ca31461034a5780632949c6151461037a5780632d05ba14146103aa57610253565b806301ffc9a7146102585780630b8e0b3814610288578063114fe9de146102a657806315267d97146102c45780631b95e305146102e0575b600080fd5b610272600480360381019061026d91906148cd565b61082a565b60405161027f9190615260565b60405180910390f35b6102906108a4565b60405161029d919061527b565b60405180910390f35b6102ae6108c8565b6040516102bb9190615317565b60405180910390f35b6102de60048036038101906102d99190614947565b6108f2565b005b6102fa60048036038101906102f59190614773565b610de7565b60405161030791906152fc565b60405180910390f35b610318610df9565b604051610325919061538c565b60405180910390f35b610348600480360381019061034391906147cd565b610f5d565b005b610364600480360381019061035f9190614820565b611104565b604051610371919061527b565b60405180910390f35b610394600480360381019061038f9190614773565b611124565b6040516103a191906152fc565b60405180910390f35b6103b26111ad565b6040516103bf919061534d565b60405180910390f35b6103e260048036038101906103dd91906148fa565b6111d7565b005b6103fe60048036038101906103f9919061484d565b611465565b005b610408611499565b6040516104159190615332565b60405180910390f35b6104266114c3565b6040516104339190615223565b60405180910390f35b6104566004803603810190610451919061484d565b61157e565b005b610472600480360381019061046d91906148fa565b6115b2565b60405161047f91906152e1565b60405180910390f35b6104a2600480360381019061049d91906149bb565b611600565b005b6104be60048036038101906104b99190614947565b61176b565b005b6104da60048036038101906104d591906148fa565b611c60565b005b6104f660048036038101906104f19190614773565b611f15565b005b610512600480360381019061050d91906148fa565b612099565b60405161051f91906152fc565b60405180910390f35b610542600480360381019061053d91906148fa565b6120ad565b60405161054f91906152c6565b60405180910390f35b610572600480360381019061056d91906148fa565b6120fb565b60405161057f91906152fc565b60405180910390f35b6105a2600480360381019061059d9190614c22565b612149565b6040516105af919061523e565b60405180910390f35b6105d260048036038101906105cd919061488d565b61215f565b6040516105df9190615223565b60405180910390f35b61060260048036038101906105fd919061484d565b61218e565b60405161060f9190615260565b60405180910390f35b6106206121f9565b60405161062d919061557d565b60405180910390f35b610650600480360381019061064b91906148fa565b612203565b60405161065d91906152c6565b60405180910390f35b61066e612251565b60405161067b919061527b565b60405180910390f35b61069e60048036038101906106999190614c22565b612258565b6040516106ab919061523e565b60405180910390f35b6106bc61226e565b6040516106c9919061538c565b60405180910390f35b6106da6122a7565b6040516106e7919061527b565b60405180910390f35b61070a60048036038101906107059190614a50565b6122cb565b005b61072660048036038101906107219190614773565b6124bd565b005b610742600480360381019061073d9190614820565b612641565b60405161074f919061557d565b60405180910390f35b610772600480360381019061076d91906149bb565b612665565b005b61078e6004803603810190610789919061484d565b6127ca565b005b6107aa60048036038101906107a591906148fa565b6127fe565b6040516107b791906152c6565b60405180910390f35b6107da60048036038101906107d59190614b4c565b612812565b005b6107e4612a93565b6040516107f19190615223565b60405180910390f35b610814600480360381019061080f9190614773565b612b4e565b60405161082191906152e1565b60405180910390f35b60007f5a05180f000000000000000000000000000000000000000000000000000000007bffffffffffffffffffffffffffffffffffffffffffffffffffffffff1916827bffffffffffffffffffffffffffffffffffffffffffffffffffffffff1916148061089d575061089c82612bd7565b5b9050919050565b7fffddc8bfa55e17b4d21e6c83e86327dfded4d7c9dd051c00ab7b11c8a387c14a81565b600060cb60009054906101000a900473ffffffffffffffffffffffffffffffffffffffff16905090565b838361094182828080601f016020809104026020016040519081016040528093929190818152602001838380828437600081840152601f19601f82011690508083019250505050505050612c51565b610980576040517f08c379a0000000000000000000000000000000000000000000000000000000008152600401610977906154fd565b60405180910390fd5b7f906a1b6d8666ab930891bffd6f4ca7e6fa437b6e3a66b10e0206c563ed50772b6040518060400160405280601081526020017f43414e5f4144445f4741544557415953000000000000000000000000000000008152506109e982826109e4612c74565b612c7c565b610a4188888080601f016020809104026020016040519081016040528093929190818152602001838380828437600081840152601f19601f8201169050808301925050505050505060cc612d0d90919063ffffffff16565b15610a5157610a5088886111d7565b5b610b2160d060008873ffffffffffffffffffffffffffffffffffffffff1673ffffffffffffffffffffffffffffffffffffffff1681526020019081526020016000208054610a9e906159a6565b80601f0160208091040260200160405190810160405280929190818152602001828054610aca906159a6565b8015610b175780601f10610aec57610100808354040283529160200191610b17565b820191906000526020600020905b815481529060010190602001808311610afa57829003601f168201915b5050505050612d3b565b15610bc457878760d060008973ffffffffffffffffffffffffffffffffffffffff1673ffffffffffffffffffffffffffffffffffffffff168152602001908152602001600020604051602001610b7993929190615173565b6040516020818303038152906040526040517f08c379a0000000000000000000000000000000000000000000000000000000008152600401610bbb919061538c565b60405180910390fd5b610c1c88888080601f016020809104026020016040519081016040528093929190818152602001838380828437600081840152601f19601f8201169050808301925050505050505060cc612d4890919063ffffffff16565b5060405180604001604052808673ffffffffffffffffffffffffffffffffffffffff1681526020018773ffffffffffffffffffffffffffffffffffffffff1681525060d18989604051610c70929190615104565b908152602001604051809103902060008201518160000160006101000a81548173ffffffffffffffffffffffffffffffffffffffff021916908373ffffffffffffffffffffffffffffffffffffffff16021790555060208201518160010160006101000a81548173ffffffffffffffffffffffffffffffffffffffff021916908373ffffffffffffffffffffffffffffffffffffffff160217905550905050878760d060008973ffffffffffffffffffffffffffffffffffffffff1673ffffffffffffffffffffffffffffffffffffffff1681526020019081526020016000209190610d5d929190614536565b508787604051610d6e929190615104565b60405180910390208573ffffffffffffffffffffffffffffffffffffffff168773ffffffffffffffffffffffffffffffffffffffff167f25585483c53f3bf35bc109679058eab92e5e8826a4c575d38c80a400d501638b8b8b604051610dd5929190615368565b60405180910390a45050505050505050565b6000610df282611124565b9050919050565b6060610e8e60d68054610e0b906159a6565b80601f0160208091040260200160405190810160405280929190818152602001828054610e37906159a6565b8015610e845780601f10610e5957610100808354040283529160200191610e84565b820191906000526020600020905b815481529060010190602001808311610e6757829003601f168201915b5050505050612d3b565b610ecd576040517f08c379a0000000000000000000000000000000000000000000000000000000008152600401610ec49061553d565b60405180910390fd5b60d68054610eda906159a6565b80601f0160208091040260200160405190810160405280929190818152602001828054610f06906159a6565b8015610f535780601f10610f2857610100808354040283529160200191610f53565b820191906000526020600020905b815481529060010190602001808311610f3657829003601f168201915b5050505050905090565b600060019054906101000a900460ff1680610f83575060008054906101000a900460ff16155b610fc2576040517f08c379a0000000000000000000000000000000000000000000000000000000008152600401610fb9906154dd565b60405180910390fd5b60008060019054906101000a900460ff161590508015611012576001600060016101000a81548160ff02191690831515021790555060016000806101000a81548160ff0219169083151502179055505b61101a612dd6565b8360c960006101000a81548173ffffffffffffffffffffffffffffffffffffffff021916908373ffffffffffffffffffffffffffffffffffffffff1602179055508260ca60006101000a81548173ffffffffffffffffffffffffffffffffffffffff021916908373ffffffffffffffffffffffffffffffffffffffff1602179055508160cb60006101000a81548173ffffffffffffffffffffffffffffffffffffffff021916908373ffffffffffffffffffffffffffffffffffffffff16021790555080156110fe5760008060016101000a81548160ff0219169083151502179055505b50505050565b600060656000838152602001908152602001600020600101549050919050565b600060d160d060008473ffffffffffffffffffffffffffffffffffffffff1673ffffffffffffffffffffffffffffffffffffffff168152602001908152602001600020604051611174919061515c565b908152602001604051809103902060000160009054906101000a900473ffffffffffffffffffffffffffffffffffffffff169050919050565b600060c960009054906101000a900473ffffffffffffffffffffffffffffffffffffffff16905090565b7fffddc8bfa55e17b4d21e6c83e86327dfded4d7c9dd051c00ab7b11c8a387c14a6040518060400160405280601381526020017f43414e5f5550444154455f474154455741595300000000000000000000000000815250611240828261123b612c74565b612c7c565b600060d18585604051611254929190615104565b908152602001604051809103902060010160009054906101000a900473ffffffffffffffffffffffffffffffffffffffff169050600073ffffffffffffffffffffffffffffffffffffffff168173ffffffffffffffffffffffffffffffffffffffff1614156112f8576040517f08c379a00000000000000000000000000000000000000000000000000000000081526004016112ef9061549d565b60405180910390fd5b60d060008273ffffffffffffffffffffffffffffffffffffffff1673ffffffffffffffffffffffffffffffffffffffff168152602001908152602001600020600061134391906145bc565b60d18585604051611355929190615104565b9081526020016040518091039020600080820160006101000a81549073ffffffffffffffffffffffffffffffffffffffff02191690556001820160006101000a81549073ffffffffffffffffffffffffffffffffffffffff0219169055505061140c85858080601f016020809104026020016040519081016040528093929190818152602001838380828437600081840152601f19601f8201169050808301925050505050505060cc612eb790919063ffffffff16565b50848460405161141d929190615104565b60405180910390207f5c6bce771f0acc024cb1447391030e98a8f38e5cb550e1c5bda96e12aa3044bf8686604051611456929190615368565b60405180910390a25050505050565b61146f828261308c565b61149481609760008581526020019081526020016000206130b590919063ffffffff16565b505050565b600060ca60009054906101000a900473ffffffffffffffffffffffffffffffffffffffff16905090565b60008073ffffffffffffffffffffffffffffffffffffffff1660d460009054906101000a900473ffffffffffffffffffffffffffffffffffffffff1673ffffffffffffffffffffffffffffffffffffffff161415611556576040517f08c379a000000000000000000000000000000000000000000000000000000000815260040161154d9061553d565b60405180910390fd5b60d460009054906101000a900473ffffffffffffffffffffffffffffffffffffffff16905090565b61158882826130e5565b6115ad816097600085815260200190815260200160002061316890919063ffffffff16565b505050565b600060d383836040516115c6929190615104565b908152602001604051809103902060000160009054906101000a900473ffffffffffffffffffffffffffffffffffffffff16905092915050565b7f906a1b6d8666ab930891bffd6f4ca7e6fa437b6e3a66b10e0206c563ed50772b6040518060400160405280601081526020017f43414e5f4144445f4741544557415953000000000000000000000000000000008152506116698282611664612c74565b612c7c565b6000611673610df9565b90506116cd88888080601f016020809104026020016040519081016040528093929190818152602001838380828437600081840152601f19601f8201169050808301925050505050505060cc612d0d90919063ffffffff16565b1561173a576117397fffddc8bfa55e17b4d21e6c83e86327dfded4d7c9dd051c00ab7b11c8a387c14a6040518060400160405280601381526020017f43414e5f5550444154455f474154455741595300000000000000000000000000815250611734612c74565b612c7c565b5b6000611752828a8a61174a6114c3565b8b8b8b613198565b9050611760898989846108f2565b505050505050505050565b83836117ba82828080601f016020809104026020016040519081016040528093929190818152602001838380828437600081840152601f19601f82011690508083019250505050505050612c51565b6117f9576040517f08c379a00000000000000000000000000000000000000000000000000000000081526004016117f0906154fd565b60405180910390fd5b7f906a1b6d8666ab930891bffd6f4ca7e6fa437b6e3a66b10e0206c563ed50772b6040518060400160405280601081526020017f43414e5f4144445f474154455741595300000000000000000000000000000000815250611862828261185d612c74565b612c7c565b6118ba88888080601f016020809104026020016040519081016040528093929190818152602001838380828437600081840152601f19601f8201169050808301925050505050505060ce612d0d90919063ffffffff16565b156118ca576118c98888611c60565b5b61199a60d260008873ffffffffffffffffffffffffffffffffffffffff1673ffffffffffffffffffffffffffffffffffffffff1681526020019081526020016000208054611917906159a6565b80601f0160208091040260200160405190810160405280929190818152602001828054611943906159a6565b80156119905780601f1061196557610100808354040283529160200191611990565b820191906000526020600020905b81548152906001019060200180831161197357829003601f168201915b5050505050612d3b565b15611a3d57878760d260008973ffffffffffffffffffffffffffffffffffffffff1673ffffffffffffffffffffffffffffffffffffffff1681526020019081526020016000206040516020016119f293929190615173565b6040516020818303038152906040526040517f08c379a0000000000000000000000000000000000000000000000000000000008152600401611a34919061538c565b60405180910390fd5b611a9588888080601f016020809104026020016040519081016040528093929190818152602001838380828437600081840152601f19601f8201169050808301925050505050505060ce612d4890919063ffffffff16565b5060405180604001604052808673ffffffffffffffffffffffffffffffffffffffff1681526020018773ffffffffffffffffffffffffffffffffffffffff1681525060d38989604051611ae9929190615104565b908152602001604051809103902060008201518160000160006101000a81548173ffffffffffffffffffffffffffffffffffffffff021916908373ffffffffffffffffffffffffffffffffffffffff16021790555060208201518160010160006101000a81548173ffffffffffffffffffffffffffffffffffffffff021916908373ffffffffffffffffffffffffffffffffffffffff160217905550905050878760d260008973ffffffffffffffffffffffffffffffffffffffff1673ffffffffffffffffffffffffffffffffffffffff1681526020019081526020016000209190611bd6929190614536565b508787604051611be7929190615104565b60405180910390208573ffffffffffffffffffffffffffffffffffffffff168773ffffffffffffffffffffffffffffffffffffffff167f0c19675e6ac3278dbbc6f43b15eea26f38a7f5488bc1b39877d268395dcdba4a8b8b604051611c4e929190615368565b60405180910390a45050505050505050565b7fffddc8bfa55e17b4d21e6c83e86327dfded4d7c9dd051c00ab7b11c8a387c14a6040518060400160405280601381526020017f43414e5f5550444154455f474154455741595300000000000000000000000000815250611cc98282611cc4612c74565b612c7c565b611d2184848080601f016020809104026020016040519081016040528093929190818152602001838380828437600081840152601f19601f8201169050808301925050505050505060ce612d0d90919063ffffffff16565b611d60576040517f08c379a0000000000000000000000000000000000000000000000000000000008152600401611d579061549d565b60405180910390fd5b600060d38585604051611d74929190615104565b908152602001604051809103902060010160009054906101000a900473ffffffffffffffffffffffffffffffffffffffff16905060d260008273ffffffffffffffffffffffffffffffffffffffff1673ffffffffffffffffffffffffffffffffffffffff1681526020019081526020016000206000611df391906145bc565b60d38585604051611e05929190615104565b9081526020016040518091039020600080820160006101000a81549073ffffffffffffffffffffffffffffffffffffffff02191690556001820160006101000a81549073ffffffffffffffffffffffffffffffffffffffff02191690555050611ebc85858080601f016020809104026020016040519081016040528093929190818152602001838380828437600081840152601f19601f8201169050808301925050505050505060ce612eb790919063ffffffff16565b508484604051611ecd929190615104565b60405180910390207f5e9082f22098a5a5184b5dffbe6c696b966b83bb250951a12f38f4609c7726328686604051611f06929190615368565b60405180910390a25050505050565b7fffddc8bfa55e17b4d21e6c83e86327dfded4d7c9dd051c00ab7b11c8a387c14a6040518060400160405280601381526020017f43414e5f5550444154455f474154455741595300000000000000000000000000815250611f7e8282611f79612c74565b612c7c565b600073ffffffffffffffffffffffffffffffffffffffff168373ffffffffffffffffffffffffffffffffffffffff161415611fee576040517f08c379a0000000000000000000000000000000000000000000000000000000008152600401611fe59061551d565b60405180910390fd5b8260d460006101000a81548173ffffffffffffffffffffffffffffffffffffffff021916908373ffffffffffffffffffffffffffffffffffffffff16021790555060d460009054906101000a900473ffffffffffffffffffffffffffffffffffffffff1673ffffffffffffffffffffffffffffffffffffffff167fb57359628f7b44e9842ff204fb5700f84d8c4f9c3fc9dae13e7a1aab8ed164f760405160405180910390a2505050565b60006120a583836120fb565b905092915050565b600060d183836040516120c1929190615104565b908152602001604051809103902060010160009054906101000a900473ffffffffffffffffffffffffffffffffffffffff16905092915050565b600060d1838360405161210f929190615104565b908152602001604051809103902060000160009054906101000a900473ffffffffffffffffffffffffffffffffffffffff16905092915050565b606061215760cc8484613359565b905092915050565b6000612186826097600086815260200190815260200160002061344e90919063ffffffff16565b905092915050565b60006065600084815260200190815260200160002060000160008373ffffffffffffffffffffffffffffffffffffffff1673ffffffffffffffffffffffffffffffffffffffff16815260200190815260200160002060009054906101000a900460ff16905092915050565b600060d554905090565b600060d38383604051612217929190615104565b908152602001604051809103902060010160009054906101000a900473ffffffffffffffffffffffffffffffffffffffff16905092915050565b6000801b81565b606061226660ce8484613359565b905092915050565b6040518060400160405280600f81526020017f476174657761795265676973747279000000000000000000000000000000000081525081565b7f906a1b6d8666ab930891bffd6f4ca7e6fa437b6e3a66b10e0206c563ed50772b81565b7f906a1b6d8666ab930891bffd6f4ca7e6fa437b6e3a66b10e0206c563ed50772b6040518060400160405280601081526020017f43414e5f4144445f474154455741595300000000000000000000000000000000815250612334828261232f612c74565b612c7c565b61238c8b8b8080601f016020809104026020016040519081016040528093929190818152602001838380828437600081840152601f19601f8201169050808301925050505050505060cc612d0d90919063ffffffff16565b156123f9576123f87fffddc8bfa55e17b4d21e6c83e86327dfded4d7c9dd051c00ab7b11c8a387c14a6040518060400160405280601381526020017f43414e5f5550444154455f4741544557415953000000000000000000000000008152506123f3612c74565b612c7c565b5b60006124146124066121f9565b8d8d8d8d8d8d8d8d8d613468565b90506000612435612423610df9565b8e8e61242d6114c3565b868b8b613198565b90508173ffffffffffffffffffffffffffffffffffffffff1663f2fde38b826040518263ffffffff1660e01b81526004016124709190615223565b600060405180830381600087803b15801561248a57600080fd5b505af115801561249e573d6000803e3d6000fd5b505050506124ae8d8d84846108f2565b50505050505050505050505050565b7fffddc8bfa55e17b4d21e6c83e86327dfded4d7c9dd051c00ab7b11c8a387c14a6040518060400160405280601381526020017f43414e5f5550444154455f4741544557415953000000000000000000000000008152506125268282612521612c74565b612c7c565b600073ffffffffffffffffffffffffffffffffffffffff168373ffffffffffffffffffffffffffffffffffffffff161415612596576040517f08c379a000000000000000000000000000000000000000000000000000000000815260040161258d906154bd565b60405180910390fd5b8260d760006101000a81548173ffffffffffffffffffffffffffffffffffffffff021916908373ffffffffffffffffffffffffffffffffffffffff16021790555060d760009054906101000a900473ffffffffffffffffffffffffffffffffffffffff1673ffffffffffffffffffffffffffffffffffffffff167f9d4a9b40a70dfeae2699f8c14847af6f424f5653ad0b765676b2b7bf124f92ec60405160405180910390a2505050565b600061265e60976000848152602001908152602001600020613631565b9050919050565b7f906a1b6d8666ab930891bffd6f4ca7e6fa437b6e3a66b10e0206c563ed50772b6040518060400160405280601081526020017f43414e5f4144445f4741544557415953000000000000000000000000000000008152506126ce82826126c9612c74565b612c7c565b61272687878080601f016020809104026020016040519081016040528093929190818152602001838380828437600081840152601f19601f8201169050808301925050505050505060ce612d0d90919063ffffffff16565b15612793576127927fffddc8bfa55e17b4d21e6c83e86327dfded4d7c9dd051c00ab7b11c8a387c14a6040518060400160405280601381526020017f43414e5f5550444154455f47415445574159530000000000000000000000000081525061278d612c74565b612c7c565b5b60006127b26127a0610df9565b89896127aa6114c3565b8a8a8a613646565b90506127c08888888461176b565b5050505050505050565b6127d48282613807565b6127f9816097600085815260200190815260200160002061316890919063ffffffff16565b505050565b600061280a83836120ad565b905092915050565b600060019054906101000a900460ff1680612838575060008054906101000a900460ff16155b612877576040517f08c379a000000000000000000000000000000000000000000000000000000000815260040161286e906154dd565b60405180910390fd5b60008060019054906101000a900460ff1615905080156128c7576001600060016101000a81548160ff02191690831515021790555060016000806101000a81548160ff0219169083151502179055505b898961291682828080601f016020809104026020016040519081016040528093929190818152602001838380828437600081840152601f19601f82011690508083019250505050505050612c51565b612955576040517f08c379a000000000000000000000000000000000000000000000000000000000815260040161294c906154fd565b60405180910390fd5b61295d613830565b612968868686610f5d565b8b8b60d69190612979929190614536565b508960d5819055508760d460006101000a81548173ffffffffffffffffffffffffffffffffffffffff021916908373ffffffffffffffffffffffffffffffffffffffff1602179055508660d760006101000a81548173ffffffffffffffffffffffffffffffffffffffff021916908373ffffffffffffffffffffffffffffffffffffffff160217905550612a106000801b8a613929565b612a3a7fffddc8bfa55e17b4d21e6c83e86327dfded4d7c9dd051c00ab7b11c8a387c14a8a613929565b612a647f906a1b6d8666ab930891bffd6f4ca7e6fa437b6e3a66b10e0206c563ed50772b8a613929565b50508015612a875760008060016101000a81548160ff0219169083151502179055505b50505050505050505050565b60008073ffffffffffffffffffffffffffffffffffffffff1660d760009054906101000a900473ffffffffffffffffffffffffffffffffffffffff1673ffffffffffffffffffffffffffffffffffffffff161415612b26576040517f08c379a0000000000000000000000000000000000000000000000000000000008152600401612b1d9061553d565b60405180910390fd5b60d760009054906101000a900473ffffffffffffffffffffffffffffffffffffffff16905090565b600060d360d260008473ffffffffffffffffffffffffffffffffffffffff1673ffffffffffffffffffffffffffffffffffffffff168152602001908152602001600020604051612b9e919061515c565b908152602001604051809103902060000160009054906101000a900473ffffffffffffffffffffffffffffffffffffffff169050919050565b60007f7965db0b000000000000000000000000000000000000000000000000000000007bffffffffffffffffffffffffffffffffffffffffffffffffffffffff1916827bffffffffffffffffffffffffffffffffffffffffffffffffffffffff19161480612c4a5750612c498261395d565b5b9050919050565b6000612c5c82612d3b565b8015612c6d5750612c6c826139c7565b5b9050919050565b600033905090565b612c86838261218e565b612d0857612cab8173ffffffffffffffffffffffffffffffffffffffff166014613a81565b82604051602001612cbd9291906151af565b6040516020818303038152906040526040517f08c379a0000000000000000000000000000000000000000000000000000000008152600401612cff919061538c565b60405180910390fd5b505050565b6000808360010183604051612d229190615145565b9081526020016040518091039020541415905092915050565b6000808251119050919050565b6000612d548383612d0d565b612dcb578260000182908060018154018082558091505060019003906000526020600020016000909190919091509080519060200190612d959291906145fc565b5082600001805490508360010183604051612db09190615145565b90815260200160405180910390208190555060019050612dd0565b600090505b92915050565b600060019054906101000a900460ff1680612dfc575060008054906101000a900460ff16155b612e3b576040517f08c379a0000000000000000000000000000000000000000000000000000000008152600401612e32906154dd565b60405180910390fd5b60008060019054906101000a900460ff161590508015612e8b576001600060016101000a81548160ff02191690831515021790555060016000806101000a81548160ff0219169083151502179055505b612e93613cbd565b8015612eb45760008060016101000a81548160ff0219169083151502179055505b50565b6000808360010183604051612ecc9190615145565b908152602001604051809103902054905060008114613080576000600182612ef491906157eb565b9050600060018660000180549050612f0c91906157eb565b905081811461301e576000866000018281548110612f2d57612f2c615aae565b5b906000526020600020018054612f42906159a6565b80601f0160208091040260200160405190810160405280929190818152602001828054612f6e906159a6565b8015612fbb5780601f10612f9057610100808354040283529160200191612fbb565b820191906000526020600020905b815481529060010190602001808311612f9e57829003601f168201915b5050505050905080876000018481548110612fd957612fd8615aae565b5b906000526020600020019080519060200190612ff69291906145fc565b5083876001018260405161300a9190615145565b908152602001604051809103902081905550505b8560000180548061303257613031615a7f565b5b60019003818190600052602060002001600061304e91906145bc565b905585600101856040516130629190615145565b90815260200160405180910390206000905560019350505050613086565b60009150505b92915050565b61309582611104565b6130a6816130a1612c74565b613d96565b6130b08383613e33565b505050565b60006130dd836000018373ffffffffffffffffffffffffffffffffffffffff1660001b613f14565b905092915050565b6130ed612c74565b73ffffffffffffffffffffffffffffffffffffffff168173ffffffffffffffffffffffffffffffffffffffff161461315a576040517f08c379a00000000000000000000000000000000000000000000000000000000081526004016131519061555d565b60405180910390fd5b6131648282613f84565b5050565b6000613190836000018373ffffffffffffffffffffffffffffffffffffffff1660001b614066565b905092915050565b60008088888888886131a8612c74565b6040516024016131bd969594939291906153ae565b6040516020818303038152906040527ffeb29c41000000000000000000000000000000000000000000000000000000007bffffffffffffffffffffffffffffffffffffffffffffffffffffffff19166020820180517bffffffffffffffffffffffffffffffffffffffffffffffffffffffff83818316178352505050509050600088888686604051602001613255949392919061511d565b6040516020818303038152906040528051906020012090506000613277611499565b73ffffffffffffffffffffffffffffffffffffffff1663ec54d72f83856040518363ffffffff1660e01b81526004016132b1929190615296565b602060405180830381600087803b1580156132cb57600080fd5b505af11580156132df573d6000803e3d6000fd5b505050506040513d601f19601f8201168201806040525081019061330391906147a0565b90507fe6329f3f3aeb65d9f7d1c692dbe29d02061ba9ca6d4c01755dc035bdd4f6e3978b8b8b8b8b8b8b6040516133409796959493929190615411565b60405180910390a1809350505050979650505050505050565b606060006133668561417a565b90506000831480613381575080838561337f919061573b565b115b1561339557838161339291906157eb565b92505b60008367ffffffffffffffff8111156133b1576133b0615add565b5b6040519080825280602002602001820160405280156133e457816020015b60608152602001906001900390816133cf5790505b50905060005b84811015613441576134108682613401919061573b565b8861418b90919063ffffffff16565b82828151811061342357613422615aae565b5b60200260200101819052508080613439906159d8565b9150506133ea565b5080925050509392505050565b600061345d836000018361423e565b60001c905092915050565b6000808b84848b8b8b8b8b3060405160240161348c99989796959493929190615598565b6040516020818303038152906040527fa2f907c1000000000000000000000000000000000000000000000000000000007bffffffffffffffffffffffffffffffffffffffffffffffffffffffff19166020820180517bffffffffffffffffffffffffffffffffffffffffffffffffffffffff8381831617835250505050905060008b8b8686604051602001613524949392919061511d565b60405160208183030381529060405280519060200120905060006135466111ad565b73ffffffffffffffffffffffffffffffffffffffff1663ec54d72f83856040518363ffffffff1660e01b8152600401613580929190615296565b602060405180830381600087803b15801561359a57600080fd5b505af11580156135ae573d6000803e3d6000fd5b505050506040513d601f19601f820116820180604052508101906135d291906147a0565b90507f897f32ae3519583b51a24469bfe0e3c28070052d9ba8e7b55fc2b1f7cef161418e8e8e8e8e8e8e8e8e8e6040516136159a99989796959493929190615614565b60405180910390a18093505050509a9950505050505050505050565b600061363f82600001614269565b9050919050565b6000808888888888613656612c74565b60405160240161366b969594939291906153ae565b6040516020818303038152906040527ffe98c971000000000000000000000000000000000000000000000000000000007bffffffffffffffffffffffffffffffffffffffffffffffffffffffff19166020820180517bffffffffffffffffffffffffffffffffffffffffffffffffffffffff83818316178352505050509050600088888686604051602001613703949392919061511d565b60405160208183030381529060405280519060200120905060006137256108c8565b73ffffffffffffffffffffffffffffffffffffffff1663ec54d72f83856040518363ffffffff1660e01b815260040161375f929190615296565b602060405180830381600087803b15801561377957600080fd5b505af115801561378d573d6000803e3d6000fd5b505050506040513d601f19601f820116820180604052508101906137b191906147a0565b90507fa10b2052fc65713a036622942bfc9a6597738ebd66ab1b6c71ab93d4a2a2fde28b8b8b8b8b8b8b6040516137ee9796959493929190615411565b60405180910390a1809350505050979650505050505050565b61381082611104565b6138218161381c612c74565b613d96565b61382b8383613f84565b505050565b600060019054906101000a900460ff1680613856575060008054906101000a900460ff16155b613895576040517f08c379a000000000000000000000000000000000000000000000000000000000815260040161388c906154dd565b60405180910390fd5b60008060019054906101000a900460ff1615905080156138e5576001600060016101000a81548160ff02191690831515021790555060016000806101000a81548160ff0219169083151502179055505b6138ed613cbd565b6138f561427a565b6138fd614353565b61390561442c565b80156139265760008060016101000a81548160ff0219169083151502179055505b50565b6139338282614505565b61395881609760008581526020019081526020016000206130b590919063ffffffff16565b505050565b60007f01ffc9a7000000000000000000000000000000000000000000000000000000007bffffffffffffffffffffffffffffffffffffffffffffffffffffffff1916827bffffffffffffffffffffffffffffffffffffffffffffffffffffffff1916149050919050565b600080600090505b8251811015613a765760008382815181106139ed576139ec615aae565b5b602001015160f81c60f81b60f81c905060418160ff1610158015613a155750605a8160ff1611155b80613a34575060618160ff1610158015613a335750607a8160ff1611155b5b80613a53575060308160ff1610158015613a52575060398160ff1611155b5b613a6257600092505050613a7c565b508080613a6e906159d8565b9150506139cf565b50600190505b919050565b606060006002836002613a949190615791565b613a9e919061573b565b67ffffffffffffffff811115613ab757613ab6615add565b5b6040519080825280601f01601f191660200182016040528015613ae95781602001600182028036833780820191505090505b5090507f300000000000000000000000000000000000000000000000000000000000000081600081518110613b2157613b20615aae565b5b60200101907effffffffffffffffffffffffffffffffffffffffffffffffffffffffffffff1916908160001a9053507f780000000000000000000000000000000000000000000000000000000000000081600181518110613b8557613b84615aae565b5b60200101907effffffffffffffffffffffffffffffffffffffffffffffffffffffffffffff1916908160001a90535060006001846002613bc59190615791565b613bcf919061573b565b90505b6001811115613c6f577f3031323334353637383961626364656600000000000000000000000000000000600f861660108110613c1157613c10615aae565b5b1a60f81b828281518110613c2857613c27615aae565b5b60200101907effffffffffffffffffffffffffffffffffffffffffffffffffffffffffffff1916908160001a905350600485901c945080613c689061597c565b9050613bd2565b5060008414613cb3576040517f08c379a0000000000000000000000000000000000000000000000000000000008152600401613caa9061547d565b60405180910390fd5b8091505092915050565b600060019054906101000a900460ff1680613ce3575060008054906101000a900460ff16155b613d22576040517f08c379a0000000000000000000000000000000000000000000000000000000008152600401613d19906154dd565b60405180910390fd5b60008060019054906101000a900460ff161590508015613d72576001600060016101000a81548160ff02191690831515021790555060016000806101000a81548160ff0219169083151502179055505b8015613d935760008060016101000a81548160ff0219169083151502179055505b50565b613da0828261218e565b613e2f57613dc58173ffffffffffffffffffffffffffffffffffffffff166014613a81565b613dd38360001c6020613a81565b604051602001613de49291906151e9565b6040516020818303038152906040526040517f08c379a0000000000000000000000000000000000000000000000000000000008152600401613e26919061538c565b60405180910390fd5b5050565b613e3d828261218e565b613f105760016065600084815260200190815260200160002060000160008373ffffffffffffffffffffffffffffffffffffffff1673ffffffffffffffffffffffffffffffffffffffff16815260200190815260200160002060006101000a81548160ff021916908315150217905550613eb5612c74565b73ffffffffffffffffffffffffffffffffffffffff168173ffffffffffffffffffffffffffffffffffffffff16837f2f8788117e7eff1d82e926ec794901d17c78024a50270940304540a733656f0d60405160405180910390a45b5050565b6000613f208383614513565b613f79578260000182908060018154018082558091505060019003906000526020600020016000909190919091505582600001805490508360010160008481526020019081526020016000208190555060019050613f7e565b600090505b92915050565b613f8e828261218e565b156140625760006065600084815260200190815260200160002060000160008373ffffffffffffffffffffffffffffffffffffffff1673ffffffffffffffffffffffffffffffffffffffff16815260200190815260200160002060006101000a81548160ff021916908315150217905550614007612c74565b73ffffffffffffffffffffffffffffffffffffffff168173ffffffffffffffffffffffffffffffffffffffff16837ff6391f5c32d9c69d2a47ea670b442974b53935d1edc7fd64eb21e047a839171b60405160405180910390a45b5050565b6000808360010160008481526020019081526020016000205490506000811461416e57600060018261409891906157eb565b90506000600186600001805490506140b091906157eb565b905081811461411f5760008660000182815481106140d1576140d0615aae565b5b90600052602060002001549050808760000184815481106140f5576140f4615aae565b5b90600052602060002001819055508387600101600083815260200190815260200160002081905550505b8560000180548061413357614132615a7f565b5b600190038181906000526020600020016000905590558560010160008681526020019081526020016000206000905560019350505050614174565b60009150505b92915050565b600081600001805490509050919050565b60608260000182815481106141a3576141a2615aae565b5b9060005260206000200180546141b8906159a6565b80601f01602080910402602001604051908101604052809291908181526020018280546141e4906159a6565b80156142315780601f1061420657610100808354040283529160200191614231565b820191906000526020600020905b81548152906001019060200180831161421457829003601f168201915b5050505050905092915050565b600082600001828154811061425657614255615aae565b5b9060005260206000200154905092915050565b600081600001805490509050919050565b600060019054906101000a900460ff16806142a0575060008054906101000a900460ff16155b6142df576040517f08c379a00000000000000000000000000000000000000000000000000000000081526004016142d6906154dd565b60405180910390fd5b60008060019054906101000a900460ff16159050801561432f576001600060016101000a81548160ff02191690831515021790555060016000806101000a81548160ff0219169083151502179055505b80156143505760008060016101000a81548160ff0219169083151502179055505b50565b600060019054906101000a900460ff1680614379575060008054906101000a900460ff16155b6143b8576040517f08c379a00000000000000000000000000000000000000000000000000000000081526004016143af906154dd565b60405180910390fd5b60008060019054906101000a900460ff161590508015614408576001600060016101000a81548160ff02191690831515021790555060016000806101000a81548160ff0219169083151502179055505b80156144295760008060016101000a81548160ff0219169083151502179055505b50565b600060019054906101000a900460ff1680614452575060008054906101000a900460ff16155b614491576040517f08c379a0000000000000000000000000000000000000000000000000000000008152600401614488906154dd565b60405180910390fd5b60008060019054906101000a900460ff1615905080156144e1576001600060016101000a81548160ff02191690831515021790555060016000806101000a81548160ff0219169083151502179055505b80156145025760008060016101000a81548160ff0219169083151502179055505b50565b61450f8282613e33565b5050565b600080836001016000848152602001908152602001600020541415905092915050565b828054614542906159a6565b90600052602060002090601f01602090048101928261456457600085556145ab565b82601f1061457d57803560ff19168380011785556145ab565b828001600101855582156145ab579182015b828111156145aa57823582559160200191906001019061458f565b5b5090506145b89190614682565b5090565b5080546145c8906159a6565b6000825580601f106145da57506145f9565b601f0160209004906000526020600020908101906145f89190614682565b5b50565b828054614608906159a6565b90600052602060002090601f01602090048101928261462a5760008555614671565b82601f1061464357805160ff1916838001178555614671565b82800160010185558215614671579182015b82811115614670578251825591602001919060010190614655565b5b50905061467e9190614682565b5090565b5b8082111561469b576000816000905550600101614683565b5090565b6000813590506146ae81615e2f565b92915050565b6000815190506146c381615e2f565b92915050565b6000813590506146d881615e46565b92915050565b6000813590506146ed81615e5d565b92915050565b60008083601f84011261470957614708615b11565b5b8235905067ffffffffffffffff81111561472657614725615b0c565b5b60208301915083600182028301111561474257614741615b16565b5b9250929050565b60008135905061475881615e74565b92915050565b60008135905061476d81615e8b565b92915050565b60006020828403121561478957614788615b20565b5b60006147978482850161469f565b91505092915050565b6000602082840312156147b6576147b5615b20565b5b60006147c4848285016146b4565b91505092915050565b6000806000606084860312156147e6576147e5615b20565b5b60006147f48682870161469f565b93505060206148058682870161469f565b92505060406148168682870161469f565b9150509250925092565b60006020828403121561483657614835615b20565b5b6000614844848285016146c9565b91505092915050565b6000806040838503121561486457614863615b20565b5b6000614872858286016146c9565b92505060206148838582860161469f565b9150509250929050565b600080604083850312156148a4576148a3615b20565b5b60006148b2858286016146c9565b92505060206148c385828601614749565b9150509250929050565b6000602082840312156148e3576148e2615b20565b5b60006148f1848285016146de565b91505092915050565b6000806020838503121561491157614910615b20565b5b600083013567ffffffffffffffff81111561492f5761492e615b1b565b5b61493b858286016146f3565b92509250509250929050565b6000806000806060858703121561496157614960615b20565b5b600085013567ffffffffffffffff81111561497f5761497e615b1b565b5b61498b878288016146f3565b9450945050602061499e8782880161469f565b92505060406149af8782880161469f565b91505092959194509250565b6000806000806000606086880312156149d7576149d6615b20565b5b600086013567ffffffffffffffff8111156149f5576149f4615b1b565b5b614a01888289016146f3565b95509550506020614a148882890161469f565b935050604086013567ffffffffffffffff811115614a3557614a34615b1b565b5b614a41888289016146f3565b92509250509295509295909350565b600080600080600080600080600060a08a8c031215614a7257614a71615b20565b5b60008a013567ffffffffffffffff811115614a9057614a8f615b1b565b5b614a9c8c828d016146f3565b995099505060208a013567ffffffffffffffff811115614abf57614abe615b1b565b5b614acb8c828d016146f3565b975097505060408a013567ffffffffffffffff811115614aee57614aed615b1b565b5b614afa8c828d016146f3565b95509550506060614b0d8c828d0161475e565b93505060808a013567ffffffffffffffff811115614b2e57614b2d615b1b565b5b614b3a8c828d016146f3565b92509250509295985092959850929598565b60008060008060008060008060006101008a8c031215614b6f57614b6e615b20565b5b60008a013567ffffffffffffffff811115614b8d57614b8c615b1b565b5b614b998c828d016146f3565b99509950506020614bac8c828d01614749565b9750506040614bbd8c828d0161469f565b9650506060614bce8c828d0161469f565b9550506080614bdf8c828d0161469f565b94505060a0614bf08c828d0161469f565b93505060c0614c018c828d0161469f565b92505060e0614c128c828d0161469f565b9150509295985092959850929598565b60008060408385031215614c3957614c38615b20565b5b6000614c4785828601614749565b9250506020614c5885828601614749565b9150509250929050565b6000614c6e8383614dfd565b905092915050565b614c7f8161581f565b82525050565b6000614c90826156be565b614c9a81856156ec565b935083602082028501614cac85615699565b8060005b85811015614ce85784840389528151614cc98582614c62565b9450614cd4836156df565b925060208a01995050600181019050614cb0565b50829750879550505050505092915050565b614d0381615831565b82525050565b614d128161583d565b82525050565b6000614d23826156c9565b614d2d81856156fd565b9350614d3d818560208601615949565b614d4681615b25565b840191505092915050565b614d5a816158aa565b82525050565b614d69816158bc565b82525050565b614d78816158ce565b82525050565b614d87816158e0565b82525050565b614d96816158f2565b82525050565b614da581615904565b82525050565b6000614db7838561571f565b9350614dc483858461593a565b614dcd83615b25565b840190509392505050565b6000614de48385615730565b9350614df183858461593a565b82840190509392505050565b6000614e08826156d4565b614e12818561570e565b9350614e22818560208601615949565b614e2b81615b25565b840191505092915050565b6000614e41826156d4565b614e4b818561571f565b9350614e5b818560208601615949565b614e6481615b25565b840191505092915050565b6000614e7a826156d4565b614e848185615730565b9350614e94818560208601615949565b80840191505092915050565b60008154614ead816159a6565b614eb78186615730565b94506001821660008114614ed25760018114614ee357614f16565b60ff19831686528186019350614f16565b614eec856156a9565b60005b83811015614f0e57815481890152600182019150602081019050614eef565b838801955050505b50505092915050565b6000614f2c60208361571f565b9150614f3782615b36565b602082019050919050565b6000614f4f60278361571f565b9150614f5a82615b5f565b604082019050919050565b6000614f72602a8361571f565b9150614f7d82615bae565b604082019050919050565b6000614f95601183615730565b9150614fa082615bfd565b601182019050919050565b6000614fb8602e8361571f565b9150614fc382615c26565b604082019050919050565b6000614fdb602e8361571f565b9150614fe682615c75565b604082019050919050565b6000614ffe602b8361571f565b915061500982615cc4565b604082019050919050565b6000615021601983615730565b915061502c82615d13565b601982019050919050565b6000615044601d83615730565b915061504f82615d3c565b601d82019050919050565b6000615067601783615730565b915061507282615d65565b601782019050919050565b600061508a60208361571f565b915061509582615d8e565b602082019050919050565b60006150ad601183615730565b91506150b882615db7565b601182019050919050565b60006150d0602f8361571f565b91506150db82615de0565b604082019050919050565b6150ef81615893565b82525050565b6150fe8161589d565b82525050565b6000615111828486614dd8565b91508190509392505050565b600061512a828688614dd8565b9150615137828486614dd8565b915081905095945050505050565b60006151518284614e6f565b915081905092915050565b60006151688284614ea0565b915081905092915050565b600061517e82614f88565b915061518b828587614dd8565b915061519682615037565b91506151a28284614ea0565b9150819050949350505050565b60006151ba82615014565b91506151c68285614e6f565b91506151d1826150a0565b91506151dd8284614e6f565b91508190509392505050565b60006151f48261505a565b91506152008285614e6f565b915061520b826150a0565b91506152178284614e6f565b91508190509392505050565b60006020820190506152386000830184614c76565b92915050565b600060208201905081810360008301526152588184614c85565b905092915050565b60006020820190506152756000830184614cfa565b92915050565b60006020820190506152906000830184614d09565b92915050565b60006040820190506152ab6000830185614d09565b81810360208301526152bd8184614d18565b90509392505050565b60006020820190506152db6000830184614d51565b92915050565b60006020820190506152f66000830184614d60565b92915050565b60006020820190506153116000830184614d6f565b92915050565b600060208201905061532c6000830184614d7e565b92915050565b60006020820190506153476000830184614d8d565b92915050565b60006020820190506153626000830184614d9c565b92915050565b60006020820190508181036000830152615383818486614dab565b90509392505050565b600060208201905081810360008301526153a68184614e36565b905092915050565b600060a08201905081810360008301526153c88189614e36565b905081810360208301526153dd818789614dab565b90506153ec6040830186614c76565b6153f96060830185614c76565b6154066080830184614c76565b979650505050505050565b600060a082019050818103600083015261542b818a614e36565b9050818103602083015261544081888a614dab565b905061544f6040830187614c76565b61545c6060830186614c76565b818103608083015261546f818486614dab565b905098975050505050505050565b6000602082019050818103600083015261549681614f1f565b9050919050565b600060208201905081810360008301526154b681614f42565b9050919050565b600060208201905081810360008301526154d681614f65565b9050919050565b600060208201905081810360008301526154f681614fab565b9050919050565b6000602082019050818103600083015261551681614fce565b9050919050565b6000602082019050818103600083015261553681614ff1565b9050919050565b600060208201905081810360008301526155568161507d565b9050919050565b60006020820190508181036000830152615576816150c3565b9050919050565b600060208201905061559260008301846150e6565b92915050565b600060c0820190506155ad600083018c6150e6565b81810360208301526155c0818a8c614dab565b905081810360408301526155d581888a614dab565b905081810360608301526155ea818688614dab565b90506155f960808301856150f5565b61560660a0830184614c76565b9a9950505050505050505050565b600060c082019050615629600083018d6150e6565b818103602083015261563c818b8d614dab565b9050818103604083015261565181898b614dab565b90508181036060830152615666818789614dab565b905061567560808301866150f5565b81810360a0830152615688818486614dab565b90509b9a5050505050505050505050565b6000819050602082019050919050565b60008190508160005260206000209050919050565b600081519050919050565b600081519050919050565b600081519050919050565b6000602082019050919050565b600082825260208201905092915050565b600082825260208201905092915050565b600082825260208201905092915050565b600082825260208201905092915050565b600081905092915050565b600061574682615893565b915061575183615893565b9250827fffffffffffffffffffffffffffffffffffffffffffffffffffffffffffffffff0382111561578657615785615a21565b5b828201905092915050565b600061579c82615893565b91506157a783615893565b9250817fffffffffffffffffffffffffffffffffffffffffffffffffffffffffffffffff04831182151516156157e0576157df615a21565b5b828202905092915050565b60006157f682615893565b915061580183615893565b92508282101561581457615813615a21565b5b828203905092915050565b600061582a82615873565b9050919050565b60008115159050919050565b6000819050919050565b60007fffffffff0000000000000000000000000000000000000000000000000000000082169050919050565b600073ffffffffffffffffffffffffffffffffffffffff82169050919050565b6000819050919050565b600060ff82169050919050565b60006158b582615916565b9050919050565b60006158c782615916565b9050919050565b60006158d982615916565b9050919050565b60006158eb82615916565b9050919050565b60006158fd82615916565b9050919050565b600061590f82615916565b9050919050565b600061592182615928565b9050919050565b600061593382615873565b9050919050565b82818337600083830152505050565b60005b8381101561596757808201518184015260208101905061594c565b83811115615976576000848401525b50505050565b600061598782615893565b9150600082141561599b5761599a615a21565b5b600182039050919050565b600060028204905060018216806159be57607f821691505b602082108114156159d2576159d1615a50565b5b50919050565b60006159e382615893565b91507fffffffffffffffffffffffffffffffffffffffffffffffffffffffffffffffff821415615a1657615a15615a21565b5b600182019050919050565b7f4e487b7100000000000000000000000000000000000000000000000000000000600052601160045260246000fd5b7f4e487b7100000000000000000000000000000000000000000000000000000000600052602260045260246000fd5b7f4e487b7100000000000000000000000000000000000000000000000000000000600052603160045260246000fd5b7f4e487b7100000000000000000000000000000000000000000000000000000000600052603260045260246000fd5b7f4e487b7100000000000000000000000000000000000000000000000000000000600052604160045260246000fd5b600080fd5b600080fd5b600080fd5b600080fd5b600080fd5b6000601f19601f8301169050919050565b7f537472696e67733a20686578206c656e67746820696e73756666696369656e74600082015250565b7f4761746577617952656769737472793a2067617465776179206e6f742072656760008201527f6973746572656400000000000000000000000000000000000000000000000000602082015250565b7f4761746577617952656769737472793a20696e76616c6964207472616e73666560008201527f722077697468206c6f6700000000000000000000000000000000000000000000602082015250565b7f4761746577617952656769737472793a20000000000000000000000000000000600082015250565b7f496e697469616c697a61626c653a20636f6e747261637420697320616c72656160008201527f647920696e697469616c697a6564000000000000000000000000000000000000602082015250565b7f4761746577617952656769737472793a20656d707479206f7220696e76616c6960008201527f6420737472696e6720696e707574000000000000000000000000000000000000602082015250565b7f4761746577617952656769737472793a20696e76616c6964207369676e61747560008201527f7265207665726966696572000000000000000000000000000000000000000000602082015250565b7f4761746577617952656769737472793a206163636f756e742000000000000000600082015250565b7f20746f6b656e20616c7265616479207265676973746572656420617320000000600082015250565b7f416363657373436f6e74726f6c3a206163636f756e7420000000000000000000600082015250565b7f4761746577617952656769737472793a206e6f7420696e697469616c697a6564600082015250565b7f206973206d697373696e6720726f6c6520000000000000000000000000000000600082015250565b7f416363657373436f6e74726f6c3a2063616e206f6e6c792072656e6f756e636560008201527f20726f6c657320666f722073656c660000000000000000000000000000000000602082015250565b615e388161581f565b8114615e4357600080fd5b50565b615e4f8161583d565b8114615e5a57600080fd5b50565b615e6681615847565b8114615e7157600080fd5b50565b615e7d81615893565b8114615e8857600080fd5b50565b615e948161589d565b8114615e9f57600080fd5b5056fea2646970667358221220b10427d987f89c42b79acef4062d58f83f3764e599e752393cc477274a59d9c964736f6c63430008070033",
  "devdoc": {
    "events": {
      "LogMintGatewayUpdated(string,address,address,string)": {
        "details": "The symbol is included twice because strings have to be hashed first in order to be used as a log index/topic."
      }
    },
    "kind": "dev",
    "methods": {
      "addLockGateway(string,address,address)": {
        "params": {
          "lockAsset": "The address of the RenERC20 token contract.",
          "lockGateway": "The address of the Gateway contract.",
          "symbol": "A string that identifies the token and gateway pair."
        }
      },
      "addMintGateway(string,address,address)": {
        "params": {
          "mintGateway": "The address of the Gateway contract.",
          "renAsset": "The address of the RenERC20 token contract.",
          "symbol": "A string that identifies the token and gateway pair."
        }
      },
      "getLockGatewaySymbols(uint256,uint256)": {
        "details": "To get all the registered tokens set count to `0`."
      },
      "getMintGatewayBySymbol(string)": {
        "params": {
          "tokenSymbol": "The symbol of the RenERC20 token contract."
        }
      },
      "getMintGatewayByToken(address)": {
        "params": {
          "token": "The address of the RenERC20 token contract."
        }
      },
      "getMintGatewaySymbols(uint256,uint256)": {
        "details": "To get all the registered Gateway contracts set count to `0`."
      },
      "getRenAssetBySymbol(string)": {
        "params": {
          "tokenSymbol": "The symbol of the RenERC20 token contract to        lookup."
        }
      },
      "getRoleAdmin(bytes32)": {
        "details": "Returns the admin role that controls `role`. See {grantRole} and {revokeRole}. To change a role's admin, use {_setRoleAdmin}."
      },
      "getRoleMember(bytes32,uint256)": {
        "details": "Returns one of the accounts that have `role`. `index` must be a value between 0 and {getRoleMemberCount}, non-inclusive. Role bearers are not sorted in any particular way, and their ordering may change at any point. WARNING: When using {getRoleMember} and {getRoleMemberCount}, make sure you perform all queries on the same block. See the following https://forum.openzeppelin.com/t/iterating-over-elements-on-enumerableset-in-openzeppelin-contracts/2296[forum post] for more information."
      },
      "getRoleMemberCount(bytes32)": {
        "details": "Returns the number of accounts that have `role`. Can be used together with {getRoleMember} to enumerate all bearers of a role."
      },
      "grantRole(bytes32,address)": {
        "details": "Overload {grantRole} to track enumerable memberships"
      },
      "hasRole(bytes32,address)": {
        "details": "Returns `true` if `account` has been granted `role`."
      },
      "removeLockGateway(string)": {
        "params": {
          "symbol": "The symbol of the token to deregister."
        }
      },
      "removeMintGateway(string)": {
        "params": {
          "symbol": "The symbol of the token to deregister."
        }
      },
      "renounceRole(bytes32,address)": {
        "details": "Overload {renounceRole} to track enumerable memberships"
      },
      "revokeRole(bytes32,address)": {
        "details": "Overload {revokeRole} to track enumerable memberships"
      },
      "supportsInterface(bytes4)": {
        "details": "See {IERC165-supportsInterface}."
      },
      "updateSignatureVerifier(address)": {
        "params": {
          "nextSignatureVerifier": "The new verifier contract address."
        }
      },
      "updateTransferWithLog(address)": {
        "params": {
          "nextTransferWithLog": "The new TransferWithLog contract address."
        }
      }
    },
    "version": 1
  },
  "userdoc": {
    "kind": "user",
    "methods": {
      "addLockGateway(string,address,address)": {
        "notice": "Allow the owner to set the Gateway contract for a given         RenERC20 token contract."
      },
      "addMintGateway(string,address,address)": {
        "notice": "Allow the owner to set the Gateway contract for a given         RenERC20 token contract."
      },
      "getGatewayBySymbol(string)": {
        "notice": "Deprecated in favour of getMintGatewayBySymbol."
      },
      "getGatewayByToken(address)": {
        "notice": "Deprecated in favour of getMintGatewayByToken."
      },
      "getMintGatewayBySymbol(string)": {
        "notice": "Returns the Gateway contract for the given RenERC20 token         symbol."
      },
      "getMintGatewayByToken(address)": {
        "notice": "Returns the Gateway contract for the given RenERC20 token         address."
      },
      "getRenAssetBySymbol(string)": {
        "notice": "Returns the RenERC20 address for the given token symbol."
      },
      "getTokenBySymbol(string)": {
        "notice": "Deprecated in favour of getRenAssetBySymbol."
      },
      "removeLockGateway(string)": {
        "notice": "Allows the owner to remove the Gateway contract for a given         asset contract."
      },
      "removeMintGateway(string)": {
        "notice": "Allows the owner to remove the Gateway contract for a given         RenERC20 contract."
      },
      "updateSignatureVerifier(address)": {
        "notice": "Allow the owner to update the signature verifier contract."
      },
      "updateTransferWithLog(address)": {
        "notice": "Allow the owner to update the TransferWithLog contract."
      }
    },
    "notice": "GatewayRegistry is a mapping from assets to their associated RenERC20 and Gateway contracts.",
    "version": 1
  },
  "storageLayout": {
    "storage": [
      {
        "astId": 773,
        "contract": "src/GatewayRegistry/GatewayRegistry.sol:GatewayRegistryV2",
        "label": "_initialized",
        "offset": 0,
        "slot": "0",
        "type": "t_bool"
      },
      {
        "astId": 776,
        "contract": "src/GatewayRegistry/GatewayRegistry.sol:GatewayRegistryV2",
        "label": "_initializing",
        "offset": 1,
        "slot": "0",
        "type": "t_bool"
      },
      {
        "astId": 2463,
        "contract": "src/GatewayRegistry/GatewayRegistry.sol:GatewayRegistryV2",
        "label": "__gap",
        "offset": 0,
        "slot": "1",
        "type": "t_array(t_uint256)50_storage"
      },
      {
        "astId": 2712,
        "contract": "src/GatewayRegistry/GatewayRegistry.sol:GatewayRegistryV2",
        "label": "__gap",
        "offset": 0,
        "slot": "51",
        "type": "t_array(t_uint256)50_storage"
      },
      {
        "astId": 258,
        "contract": "src/GatewayRegistry/GatewayRegistry.sol:GatewayRegistryV2",
        "label": "_roles",
        "offset": 0,
        "slot": "101",
        "type": "t_mapping(t_bytes32,t_struct(RoleData)253_storage)"
      },
      {
        "astId": 543,
        "contract": "src/GatewayRegistry/GatewayRegistry.sol:GatewayRegistryV2",
        "label": "__gap",
        "offset": 0,
        "slot": "102",
        "type": "t_array(t_uint256)49_storage"
      },
      {
        "astId": 45,
        "contract": "src/GatewayRegistry/GatewayRegistry.sol:GatewayRegistryV2",
        "label": "_roleMembers",
        "offset": 0,
        "slot": "151",
        "type": "t_mapping(t_bytes32,t_struct(AddressSet)3125_storage)"
      },
      {
        "astId": 208,
        "contract": "src/GatewayRegistry/GatewayRegistry.sol:GatewayRegistryV2",
        "label": "__gap",
        "offset": 0,
        "slot": "152",
        "type": "t_array(t_uint256)49_storage"
      },
      {
        "astId": 8466,
        "contract": "src/GatewayRegistry/GatewayRegistry.sol:GatewayRegistryV2",
        "label": "_renAssetProxyBeacon",
        "offset": 0,
        "slot": "201",
        "type": "t_contract(RenAssetProxyBeaconV1)8413"
      },
      {
        "astId": 8469,
        "contract": "src/GatewayRegistry/GatewayRegistry.sol:GatewayRegistryV2",
        "label": "_mintGatewayProxyBeacon",
        "offset": 0,
        "slot": "202",
        "type": "t_contract(MintGatewayProxyBeaconV1)8428"
      },
      {
        "astId": 8472,
        "contract": "src/GatewayRegistry/GatewayRegistry.sol:GatewayRegistryV2",
        "label": "_lockGatewayProxyBeacon",
        "offset": 0,
        "slot": "203",
        "type": "t_contract(LockGatewayProxyBeaconV1)8443"
      },
      {
        "astId": 7254,
        "contract": "src/GatewayRegistry/GatewayRegistry.sol:GatewayRegistryV2",
        "label": "mintGatewaySymbols",
        "offset": 0,
        "slot": "204",
        "type": "t_struct(Set)11124_storage"
      },
      {
        "astId": 7257,
        "contract": "src/GatewayRegistry/GatewayRegistry.sol:GatewayRegistryV2",
        "label": "lockGatewaySymbols",
        "offset": 0,
        "slot": "206",
        "type": "t_struct(Set)11124_storage"
      },
      {
        "astId": 7261,
        "contract": "src/GatewayRegistry/GatewayRegistry.sol:GatewayRegistryV2",
        "label": "mintSymbolByToken",
        "offset": 0,
        "slot": "208",
        "type": "t_mapping(t_address,t_string_storage)"
      },
      {
        "astId": 7266,
        "contract": "src/GatewayRegistry/GatewayRegistry.sol:GatewayRegistryV2",
        "label": "mintGatewayDetailsBySymbol",
        "offset": 0,
        "slot": "209",
        "type": "t_mapping(t_string_memory_ptr,t_struct(GatewayDetails)7251_storage)"
      },
      {
        "astId": 7270,
        "contract": "src/GatewayRegistry/GatewayRegistry.sol:GatewayRegistryV2",
        "label": "lockSymbolByToken",
        "offset": 0,
        "slot": "210",
        "type": "t_mapping(t_address,t_string_storage)"
      },
      {
        "astId": 7275,
        "contract": "src/GatewayRegistry/GatewayRegistry.sol:GatewayRegistryV2",
        "label": "lockGatewayDetailsBySymbol",
        "offset": 0,
        "slot": "211",
        "type": "t_mapping(t_string_memory_ptr,t_struct(GatewayDetails)7251_storage)"
      },
      {
        "astId": 7277,
        "contract": "src/GatewayRegistry/GatewayRegistry.sol:GatewayRegistryV2",
        "label": "_signatureVerifier",
        "offset": 0,
        "slot": "212",
        "type": "t_address"
      },
      {
        "astId": 7279,
        "contract": "src/GatewayRegistry/GatewayRegistry.sol:GatewayRegistryV2",
        "label": "_chainId",
        "offset": 0,
        "slot": "213",
        "type": "t_uint256"
      },
      {
        "astId": 7281,
        "contract": "src/GatewayRegistry/GatewayRegistry.sol:GatewayRegistryV2",
        "label": "_chainName",
        "offset": 0,
        "slot": "214",
        "type": "t_string_storage"
      },
      {
        "astId": 7283,
        "contract": "src/GatewayRegistry/GatewayRegistry.sol:GatewayRegistryV2",
        "label": "_transferWithLog",
        "offset": 0,
        "slot": "215",
        "type": "t_address"
      },
      {
        "astId": 7287,
        "contract": "src/GatewayRegistry/GatewayRegistry.sol:GatewayRegistryV2",
        "label": "__gap",
        "offset": 0,
        "slot": "216",
        "type": "t_array(t_uint256)38_storage"
      }
    ],
    "types": {
      "t_address": {
        "encoding": "inplace",
        "label": "address",
        "numberOfBytes": "20"
      },
      "t_array(t_bytes32)dyn_storage": {
        "base": "t_bytes32",
        "encoding": "dynamic_array",
        "label": "bytes32[]",
        "numberOfBytes": "32"
      },
      "t_array(t_string_storage)dyn_storage": {
        "base": "t_string_storage",
        "encoding": "dynamic_array",
        "label": "string[]",
        "numberOfBytes": "32"
      },
      "t_array(t_uint256)38_storage": {
        "base": "t_uint256",
        "encoding": "inplace",
        "label": "uint256[38]",
        "numberOfBytes": "1216"
      },
      "t_array(t_uint256)49_storage": {
        "base": "t_uint256",
        "encoding": "inplace",
        "label": "uint256[49]",
        "numberOfBytes": "1568"
      },
      "t_array(t_uint256)50_storage": {
        "base": "t_uint256",
        "encoding": "inplace",
        "label": "uint256[50]",
        "numberOfBytes": "1600"
      },
      "t_bool": {
        "encoding": "inplace",
        "label": "bool",
        "numberOfBytes": "1"
      },
      "t_bytes32": {
        "encoding": "inplace",
        "label": "bytes32",
        "numberOfBytes": "32"
      },
      "t_contract(LockGatewayProxyBeaconV1)8443": {
        "encoding": "inplace",
        "label": "contract LockGatewayProxyBeaconV1",
        "numberOfBytes": "20"
      },
      "t_contract(MintGatewayProxyBeaconV1)8428": {
        "encoding": "inplace",
        "label": "contract MintGatewayProxyBeaconV1",
        "numberOfBytes": "20"
      },
      "t_contract(RenAssetProxyBeaconV1)8413": {
        "encoding": "inplace",
        "label": "contract RenAssetProxyBeaconV1",
        "numberOfBytes": "20"
      },
      "t_mapping(t_address,t_bool)": {
        "encoding": "mapping",
        "key": "t_address",
        "label": "mapping(address => bool)",
        "numberOfBytes": "32",
        "value": "t_bool"
      },
      "t_mapping(t_address,t_string_storage)": {
        "encoding": "mapping",
        "key": "t_address",
        "label": "mapping(address => string)",
        "numberOfBytes": "32",
        "value": "t_string_storage"
      },
      "t_mapping(t_bytes32,t_struct(AddressSet)3125_storage)": {
        "encoding": "mapping",
        "key": "t_bytes32",
        "label": "mapping(bytes32 => struct EnumerableSetUpgradeable.AddressSet)",
        "numberOfBytes": "32",
        "value": "t_struct(AddressSet)3125_storage"
      },
      "t_mapping(t_bytes32,t_struct(RoleData)253_storage)": {
        "encoding": "mapping",
        "key": "t_bytes32",
        "label": "mapping(bytes32 => struct AccessControlUpgradeable.RoleData)",
        "numberOfBytes": "32",
        "value": "t_struct(RoleData)253_storage"
      },
      "t_mapping(t_bytes32,t_uint256)": {
        "encoding": "mapping",
        "key": "t_bytes32",
        "label": "mapping(bytes32 => uint256)",
        "numberOfBytes": "32",
        "value": "t_uint256"
      },
      "t_mapping(t_string_memory_ptr,t_struct(GatewayDetails)7251_storage)": {
        "encoding": "mapping",
        "key": "t_string_memory_ptr",
        "label": "mapping(string => struct GatewayRegistryStateV2.GatewayDetails)",
        "numberOfBytes": "32",
        "value": "t_struct(GatewayDetails)7251_storage"
      },
      "t_mapping(t_string_memory_ptr,t_uint256)": {
        "encoding": "mapping",
        "key": "t_string_memory_ptr",
        "label": "mapping(string => uint256)",
        "numberOfBytes": "32",
        "value": "t_uint256"
      },
      "t_string_memory_ptr": {
        "encoding": "bytes",
        "label": "string",
        "numberOfBytes": "32"
      },
      "t_string_storage": {
        "encoding": "bytes",
        "label": "string",
        "numberOfBytes": "32"
      },
      "t_struct(AddressSet)3125_storage": {
        "encoding": "inplace",
        "label": "struct EnumerableSetUpgradeable.AddressSet",
        "members": [
          {
            "astId": 3124,
            "contract": "src/GatewayRegistry/GatewayRegistry.sol:GatewayRegistryV2",
            "label": "_inner",
            "offset": 0,
            "slot": "0",
            "type": "t_struct(Set)2824_storage"
          }
        ],
        "numberOfBytes": "64"
      },
      "t_struct(GatewayDetails)7251_storage": {
        "encoding": "inplace",
        "label": "struct GatewayRegistryStateV2.GatewayDetails",
        "members": [
          {
            "astId": 7248,
            "contract": "src/GatewayRegistry/GatewayRegistry.sol:GatewayRegistryV2",
            "label": "gateway",
            "offset": 0,
            "slot": "0",
            "type": "t_address"
          },
          {
            "astId": 7250,
            "contract": "src/GatewayRegistry/GatewayRegistry.sol:GatewayRegistryV2",
            "label": "token",
            "offset": 0,
            "slot": "1",
            "type": "t_address"
          }
        ],
        "numberOfBytes": "64"
      },
      "t_struct(RoleData)253_storage": {
        "encoding": "inplace",
        "label": "struct AccessControlUpgradeable.RoleData",
        "members": [
          {
            "astId": 250,
            "contract": "src/GatewayRegistry/GatewayRegistry.sol:GatewayRegistryV2",
            "label": "members",
            "offset": 0,
            "slot": "0",
            "type": "t_mapping(t_address,t_bool)"
          },
          {
            "astId": 252,
            "contract": "src/GatewayRegistry/GatewayRegistry.sol:GatewayRegistryV2",
            "label": "adminRole",
            "offset": 0,
            "slot": "1",
            "type": "t_bytes32"
          }
        ],
        "numberOfBytes": "64"
      },
      "t_struct(Set)11124_storage": {
        "encoding": "inplace",
        "label": "struct StringSet.Set",
        "members": [
          {
            "astId": 11119,
            "contract": "src/GatewayRegistry/GatewayRegistry.sol:GatewayRegistryV2",
            "label": "_values",
            "offset": 0,
            "slot": "0",
            "type": "t_array(t_string_storage)dyn_storage"
          },
          {
            "astId": 11123,
            "contract": "src/GatewayRegistry/GatewayRegistry.sol:GatewayRegistryV2",
            "label": "_indexes",
            "offset": 0,
            "slot": "1",
            "type": "t_mapping(t_string_memory_ptr,t_uint256)"
          }
        ],
        "numberOfBytes": "64"
      },
      "t_struct(Set)2824_storage": {
        "encoding": "inplace",
        "label": "struct EnumerableSetUpgradeable.Set",
        "members": [
          {
            "astId": 2819,
            "contract": "src/GatewayRegistry/GatewayRegistry.sol:GatewayRegistryV2",
            "label": "_values",
            "offset": 0,
            "slot": "0",
            "type": "t_array(t_bytes32)dyn_storage"
          },
          {
            "astId": 2823,
            "contract": "src/GatewayRegistry/GatewayRegistry.sol:GatewayRegistryV2",
            "label": "_indexes",
            "offset": 0,
            "slot": "1",
            "type": "t_mapping(t_bytes32,t_uint256)"
          }
        ],
        "numberOfBytes": "64"
      },
      "t_uint256": {
        "encoding": "inplace",
        "label": "uint256",
        "numberOfBytes": "32"
      }
    }
  }
}