{
  "address": "0x8f8D0A2c7F3f5a1080815dABbc9772A90e4ca684",
  "abi": [
    {
      "inputs": [
        {
          "internalType": "address",
          "name": "darknodeRegistry_",
          "type": "address"
        }
      ],
      "stateMutability": "nonpayable",
      "type": "constructor"
    },
    {
      "inputs": [],
      "name": "darknodeRegistry",
      "outputs": [
        {
          "internalType": "contract IDarknodeRegistry",
          "name": "",
          "type": "address"
        }
      ],
      "stateMutability": "view",
      "type": "function"
    },
    {
      "inputs": [
        {
          "internalType": "address",
          "name": "_operator",
          "type": "address"
        }
      ],
      "name": "getOperatorDarknodes",
      "outputs": [
        {
          "internalType": "address[]",
          "name": "",
          "type": "address[]"
        }
      ],
      "stateMutability": "view",
      "type": "function"
    }
  ],
  "transactionHash": "0x890a60b8d0db5830062a49dfb64d05f1d7149ecf8c7b219f14a98dec027820db",
  "args": [
    "0xD8E6C7f593EcBc364463515693DE35C2B526B290"
  ],
  "solcInputHash": "a9496affa4d304a759e42aaae070140b",
  "bytecode": "0x608060405234801561001057600080fd5b5060405161067b38038061067b83398101604081905261002f91610054565b600080546001600160a01b0319166001600160a01b0392909216919091179055610084565b60006020828403121561006657600080fd5b81516001600160a01b038116811461007d57600080fd5b9392505050565b6105e8806100936000396000f3fe608060405234801561001057600080fd5b50600436106100365760003560e01c80639e45e0d01461003b578063c22eb9df1461006b575b600080fd5b60005461004e906001600160a01b031681565b6040516001600160a01b0390911681526020015b60405180910390f35b61007e6100793660046103d2565b61008b565b60405161006291906104f8565b6000805460408051631460e60360e01b81529051606093926001600160a01b031691631460e603916004808301926020929190829003018186803b1580156100d257600080fd5b505afa1580156100e6573d6000803e3d6000fd5b505050506040513d601f19601f8201168201806040525081019061010a91906104df565b905060008167ffffffffffffffff81111561012757610127610584565b604051908082528060200260200182016040528015610150578160200160208202803683370190505b506000805460405163ec5325c160e01b8152600481018390526024810183905292935090916001600160a01b039091169063ec5325c19060440160006040518083038186803b1580156101a257600080fd5b505afa1580156101b6573d6000803e3d6000fd5b505050506040513d6000823e601f3d908101601f191682016040526101de9190810190610413565b90506000805b825181101561030e5760005483516001600160a01b03808a169216906345f02dc2908690859081106102185761021861056e565b60200260200101516040518263ffffffff1660e01b815260040161024b91906001600160a01b0391909116815260200190565b60206040518083038186803b15801561026357600080fd5b505afa158015610277573d6000803e3d6000fd5b505050506040513d601f19601f8201168201806040525081019061029b91906103f6565b6001600160a01b031614156102fc578281815181106102bc576102bc61056e565b60200260200101518483815181106102d6576102d661056e565b6001600160a01b0390921660209283029190910190910152816102f881610545565b9250505b8061030681610545565b9150506101e4565b5060008167ffffffffffffffff81111561032a5761032a610584565b604051908082528060200260200182016040528015610353578160200160208202803683370190505b50905060005b828110156103b7578481815181106103735761037361056e565b602002602001015182828151811061038d5761038d61056e565b6001600160a01b0390921660209283029190910190910152806103af81610545565b915050610359565b509695505050505050565b80516103cd8161059a565b919050565b6000602082840312156103e457600080fd5b81356103ef8161059a565b9392505050565b60006020828403121561040857600080fd5b81516103ef8161059a565b6000602080838503121561042657600080fd5b825167ffffffffffffffff8082111561043e57600080fd5b818501915085601f83011261045257600080fd5b81518181111561046457610464610584565b8060051b604051601f19603f8301168101818110858211171561048957610489610584565b604052828152858101935084860182860187018a10156104a857600080fd5b600095505b838610156104d2576104be816103c2565b8552600195909501949386019386016104ad565b5098975050505050505050565b6000602082840312156104f157600080fd5b5051919050565b6020808252825182820181905260009190848201906040850190845b818110156105395783516001600160a01b031683529284019291840191600101610514565b50909695505050505050565b600060001982141561056757634e487b7160e01b600052601160045260246000fd5b5060010190565b634e487b7160e01b600052603260045260246000fd5b634e487b7160e01b600052604160045260246000fd5b6001600160a01b03811681146105af57600080fd5b5056fea2646970667358221220a488f50c888024f89b7b38c2cac46ed7b1268958d579fe9910d607df61252b9c64736f6c63430008070033",
  "devdoc": {
    "kind": "dev",
    "methods": {},
    "version": 1
  },
  "userdoc": {
    "kind": "user",
    "methods": {},
    "version": 1
  },
  "storageLayout": {
    "storage": [
      {
        "astId": 27,
        "contract": "src/Protocol/GetOperatorDarknodes.sol:GetOperatorDarknodes",
        "label": "darknodeRegistry",
        "offset": 0,
        "slot": "0",
        "type": "t_contract(IDarknodeRegistry)24"
      }
    ],
    "types": {
      "t_contract(IDarknodeRegistry)24": {
        "encoding": "inplace",
        "label": "contract IDarknodeRegistry",
        "numberOfBytes": "20"
      }
    }
  }
}