{
  "address": "0xB633D32caE9a8063bDBf89d59F0d0F615f4Cd2C7",
  "abi": [
    {
      "anonymous": false,
      "inputs": [
        {
          "indexed": false,
          "internalType": "string",
          "name": "_asset",
          "type": "string"
        },
        {
          "indexed": false,
          "internalType": "bytes32",
          "name": "_selectorHash",
          "type": "bytes32"
        }
      ],
      "name": "LogAssetUpdated",
      "type": "event"
    },
    {
      "anonymous": false,
      "inputs": [
        {
          "indexed": false,
          "internalType": "string",
          "name": "_chain",
          "type": "string"
        },
        {
          "indexed": false,
          "internalType": "bytes32",
          "name": "_selectorHash",
          "type": "bytes32"
        }
      ],
      "name": "LogChainUpdated",
      "type": "event"
    },
    {
      "anonymous": false,
      "inputs": [
        {
          "indexed": false,
          "internalType": "string",
          "name": "recipientAddress",
          "type": "string"
        },
        {
          "indexed": false,
          "internalType": "string",
          "name": "recipientChain",
          "type": "string"
        },
        {
          "indexed": false,
          "internalType": "bytes",
          "name": "recipientPayload",
          "type": "bytes"
        },
        {
          "indexed": false,
          "internalType": "uint256",
          "name": "amount",
          "type": "uint256"
        },
        {
          "indexed": true,
          "internalType": "uint256",
          "name": "lockNonce",
          "type": "uint256"
        },
        {
          "indexed": true,
          "internalType": "string",
          "name": "recipientAddressIndexed",
          "type": "string"
        },
        {
          "indexed": true,
          "internalType": "string",
          "name": "recipientChainIndexed",
          "type": "string"
        }
      ],
      "name": "LogLockToChain",
      "type": "event"
    },
    {
      "anonymous": false,
      "inputs": [
        {
          "indexed": true,
          "internalType": "address",
          "name": "_newPreviousGateway",
          "type": "address"
        }
      ],
      "name": "LogPreviousGatewayUpdated",
      "type": "event"
    },
    {
      "anonymous": false,
      "inputs": [
        {
          "indexed": true,
          "internalType": "address",
          "name": "recipient",
          "type": "address"
        },
        {
          "indexed": false,
          "internalType": "uint256",
          "name": "amount",
          "type": "uint256"
        },
        {
          "indexed": true,
          "internalType": "bytes32",
          "name": "sigHash",
          "type": "bytes32"
        },
        {
          "indexed": true,
          "internalType": "bytes32",
          "name": "nHash",
          "type": "bytes32"
        }
      ],
      "name": "LogRelease",
      "type": "event"
    },
    {
      "anonymous": false,
      "inputs": [
        {
          "indexed": true,
          "internalType": "contract IRenVMSignatureVerifier",
          "name": "_newSignatureVerifier",
          "type": "address"
        }
      ],
      "name": "LogSignatureVerifierUpdated",
      "type": "event"
    },
    {
      "anonymous": false,
      "inputs": [
        {
          "indexed": true,
          "internalType": "address",
          "name": "_newToken",
          "type": "address"
        }
      ],
      "name": "LogTokenUpdated",
      "type": "event"
    },
    {
      "anonymous": false,
      "inputs": [
        {
          "indexed": true,
          "internalType": "address",
          "name": "previousOwner",
          "type": "address"
        },
        {
          "indexed": true,
          "internalType": "address",
          "name": "newOwner",
          "type": "address"
        }
      ],
      "name": "OwnershipTransferred",
      "type": "event"
    },
    {
      "inputs": [
        {
          "internalType": "string",
          "name": "chain_",
          "type": "string"
        },
        {
          "internalType": "string",
          "name": "asset_",
          "type": "string"
        },
        {
          "internalType": "address",
          "name": "signatureVerifier_",
          "type": "address"
        },
        {
          "internalType": "address",
          "name": "token_",
          "type": "address"
        }
      ],
      "name": "__GatewayStateManager_init",
      "outputs": [],
      "stateMutability": "nonpayable",
      "type": "function"
    },
    {
      "inputs": [
        {
          "internalType": "string",
          "name": "chain_",
          "type": "string"
        },
        {
          "internalType": "string",
          "name": "asset_",
          "type": "string"
        },
        {
          "internalType": "address",
          "name": "signatureVerifier_",
          "type": "address"
        },
        {
          "internalType": "address",
          "name": "token_",
          "type": "address"
        }
      ],
      "name": "__LockGateway_init",
      "outputs": [],
      "stateMutability": "nonpayable",
      "type": "function"
    },
    {
      "inputs": [],
      "name": "asset",
      "outputs": [
        {
          "internalType": "string",
          "name": "",
          "type": "string"
        }
      ],
      "stateMutability": "view",
      "type": "function"
    },
    {
      "inputs": [],
      "name": "chain",
      "outputs": [
        {
          "internalType": "string",
          "name": "",
          "type": "string"
        }
      ],
      "stateMutability": "view",
      "type": "function"
    },
    {
      "inputs": [],
      "name": "eventNonce",
      "outputs": [
        {
          "internalType": "uint256",
          "name": "",
          "type": "uint256"
        }
      ],
      "stateMutability": "view",
      "type": "function"
    },
    {
      "inputs": [
        {
          "internalType": "string",
          "name": "recipientAddress",
          "type": "string"
        },
        {
          "internalType": "string",
          "name": "recipientChain",
          "type": "string"
        },
        {
          "internalType": "bytes",
          "name": "recipientPayload",
          "type": "bytes"
        },
        {
          "internalType": "uint256",
          "name": "amount",
          "type": "uint256"
        }
      ],
      "name": "lock",
      "outputs": [
        {
          "internalType": "uint256",
          "name": "",
          "type": "uint256"
        }
      ],
      "stateMutability": "nonpayable",
      "type": "function"
    },
    {
      "inputs": [],
      "name": "owner",
      "outputs": [
        {
          "internalType": "address",
          "name": "",
          "type": "address"
        }
      ],
      "stateMutability": "view",
      "type": "function"
    },
    {
      "inputs": [],
      "name": "previousGateway",
      "outputs": [
        {
          "internalType": "address",
          "name": "",
          "type": "address"
        }
      ],
      "stateMutability": "view",
      "type": "function"
    },
    {
      "inputs": [
        {
          "internalType": "bytes32",
          "name": "pHash",
          "type": "bytes32"
        },
        {
          "internalType": "uint256",
          "name": "amount",
          "type": "uint256"
        },
        {
          "internalType": "bytes32",
          "name": "nHash",
          "type": "bytes32"
        },
        {
          "internalType": "bytes",
          "name": "sig",
          "type": "bytes"
        }
      ],
      "name": "release",
      "outputs": [
        {
          "internalType": "uint256",
          "name": "",
          "type": "uint256"
        }
      ],
      "stateMutability": "nonpayable",
      "type": "function"
    },
    {
      "inputs": [],
      "name": "renounceOwnership",
      "outputs": [],
      "stateMutability": "nonpayable",
      "type": "function"
    },
    {
      "inputs": [],
      "name": "selectorHash",
      "outputs": [
        {
          "internalType": "bytes32",
          "name": "",
          "type": "bytes32"
        }
      ],
      "stateMutability": "view",
      "type": "function"
    },
    {
      "inputs": [],
      "name": "signatureVerifier",
      "outputs": [
        {
          "internalType": "contract IRenVMSignatureVerifier",
          "name": "",
          "type": "address"
        }
      ],
      "stateMutability": "view",
      "type": "function"
    },
    {
      "inputs": [
        {
          "internalType": "bytes32",
          "name": "hash",
          "type": "bytes32"
        }
      ],
      "name": "status",
      "outputs": [
        {
          "internalType": "bool",
          "name": "",
          "type": "bool"
        }
      ],
      "stateMutability": "view",
      "type": "function"
    },
    {
      "inputs": [],
      "name": "token",
      "outputs": [
        {
          "internalType": "address",
          "name": "",
          "type": "address"
        }
      ],
      "stateMutability": "view",
      "type": "function"
    },
    {
      "inputs": [
        {
          "internalType": "address",
          "name": "newOwner",
          "type": "address"
        }
      ],
      "name": "transferOwnership",
      "outputs": [],
      "stateMutability": "nonpayable",
      "type": "function"
    },
    {
      "inputs": [
        {
          "internalType": "string",
          "name": "nextAsset",
          "type": "string"
        }
      ],
      "name": "updateAsset",
      "outputs": [],
      "stateMutability": "nonpayable",
      "type": "function"
    },
    {
      "inputs": [
        {
          "internalType": "string",
          "name": "nextChain",
          "type": "string"
        }
      ],
      "name": "updateChain",
      "outputs": [],
      "stateMutability": "nonpayable",
      "type": "function"
    },
    {
      "inputs": [
        {
          "internalType": "address",
          "name": "nextPreviousGateway",
          "type": "address"
        }
      ],
      "name": "updatePreviousGateway",
      "outputs": [],
      "stateMutability": "nonpayable",
      "type": "function"
    },
    {
      "inputs": [
        {
          "internalType": "contract IRenVMSignatureVerifier",
          "name": "nextSignatureVerifier",
          "type": "address"
        }
      ],
      "name": "updateSignatureVerifier",
      "outputs": [],
      "stateMutability": "nonpayable",
      "type": "function"
    },
    {
      "inputs": [
        {
          "internalType": "address",
          "name": "nextToken",
          "type": "address"
        }
      ],
      "name": "updateToken",
      "outputs": [],
      "stateMutability": "nonpayable",
      "type": "function"
    }
  ],
  "transactionHash": "0x626b0dcb4138ceccdfbf0f2001be9f1b9d818030a595ca159324261a123f0f36",
  "args": [],
  "solcInputHash": "5dcb7bb5888a32647c27b052cd7c144f",
  "bytecode": "0x608060405234801561001057600080fd5b506135fd806100206000396000f3fe608060405234801561001057600080fd5b506004361061012c5760003560e01c80639cffc715116100ad578063ca9d953211610071578063ca9d9532146102f5578063d489dc6c14610325578063f2fde38b14610343578063fc0c546a1461035f578063fde919f61461037d5761012c565b80639cffc71514610253578063aae8fdf014610283578063b2f2be9b1461029f578063c54216b4146102bb578063c763e5a1146102d75761012c565b806352ad0d5e116100f457806352ad0d5e146101c35780635667981b146101f3578063715018a61461020f5780637ad3def2146102195780638da5cb5b146102355761012c565b80631c3e6ee614610131578063205066421461014f578063297629761461016b57806338d52e0f146101895780635266ba0c146101a7575b600080fd5b61013961039b565b6040516101469190612d8a565b60405180910390f35b61016960048036038101906101649190612445565b6103a5565b005b6101736104b2565b6040516101809190612a43565b60405180910390f35b6101916104bc565b60405161019e9190612b2e565b60405180910390f35b6101c160048036038101906101bc9190612294565b61054e565b005b6101dd60048036038101906101d891906122ee565b6106c1565b6040516101ea9190612a28565b60405180910390f35b61020d600480360381019061020891906123cb565b6107ce565b005b610217610941565b005b610233600480360381019061022e9190612294565b6109c9565b005b61023d610b3c565b60405161024a91906129ad565b60405180910390f35b61026d6004803603810190610268919061231b565b610b66565b60405161027a9190612d8a565b60405180910390f35b61029d600480360381019061029891906123f8565b610dd8565b005b6102b960048036038101906102b49190612445565b61101e565b005b6102d560048036038101906102d091906123f8565b611113565b005b6102df611359565b6040516102ec9190612b2e565b60405180910390f35b61030f600480360381019061030a91906124ec565b6113eb565b60405161031c9190612d8a565b60405180910390f35b61032d6114ff565b60405161033a91906129ad565b60405180910390f35b61035d60048036038101906103589190612294565b611529565b005b610367611621565b60405161037491906129ad565b60405180910390f35b61038561164b565b6040516103929190612ae1565b60405180910390f35b6000606c54905090565b600060019054906101000a900460ff16806103cb575060008054906101000a900460ff16155b61040a576040517f08c379a000000000000000000000000000000000000000000000000000000000815260040161040190612c8a565b60405180910390fd5b60008060019054906101000a900460ff16159050801561045a576001600060016101000a81548160ff02191690831515021790555060016000806101000a81548160ff0219169083151502179055505b610462611675565b61046c8787610dd8565b6104768585611113565b61047f836107ce565b610488826109c9565b80156104a95760008060016101000a81548160ff0219169083151502179055505b50505050505050565b6000606754905090565b6060606680546104cb9061300c565b80601f01602080910402602001604051908101604052809291908181526020018280546104f79061300c565b80156105445780601f1061051957610100808354040283529160200191610544565b820191906000526020600020905b81548152906001019060200180831161052757829003601f168201915b5050505050905090565b61055661175e565b73ffffffffffffffffffffffffffffffffffffffff16610574610b3c565b73ffffffffffffffffffffffffffffffffffffffff16146105ca576040517f08c379a00000000000000000000000000000000000000000000000000000000081526004016105c190612caa565b60405180910390fd5b600073ffffffffffffffffffffffffffffffffffffffff168173ffffffffffffffffffffffffffffffffffffffff16141561063a576040517f08c379a000000000000000000000000000000000000000000000000000000000815260040161063190612c6a565b60405180910390fd5b80606b60006101000a81548173ffffffffffffffffffffffffffffffffffffffff021916908373ffffffffffffffffffffffffffffffffffffffff1602179055508073ffffffffffffffffffffffffffffffffffffffff167f092a7f3d3a91b47e57583d808f4454c082a9c49b2582f836f5a301e982a2d04d60405160405180910390a250565b60006068600083815260200190815260200160002060009054906101000a900460ff16156106f257600190506107c9565b60006106fc6114ff565b9050600073ffffffffffffffffffffffffffffffffffffffff168173ffffffffffffffffffffffffffffffffffffffff16146107c3578073ffffffffffffffffffffffffffffffffffffffff166352ad0d5e846040518263ffffffff1660e01b815260040161076b9190612a43565b60206040518083038186803b15801561078357600080fd5b505afa158015610797573d6000803e3d6000fd5b505050506040513d601f19601f820116820180604052508101906107bb91906122c1565b9150506107c9565b60009150505b919050565b6107d661175e565b73ffffffffffffffffffffffffffffffffffffffff166107f4610b3c565b73ffffffffffffffffffffffffffffffffffffffff161461084a576040517f08c379a000000000000000000000000000000000000000000000000000000000815260040161084190612caa565b60405180910390fd5b600073ffffffffffffffffffffffffffffffffffffffff168173ffffffffffffffffffffffffffffffffffffffff1614156108ba576040517f08c379a00000000000000000000000000000000000000000000000000000000081526004016108b190612d6a565b60405180910390fd5b80606a60006101000a81548173ffffffffffffffffffffffffffffffffffffffff021916908373ffffffffffffffffffffffffffffffffffffffff1602179055508073ffffffffffffffffffffffffffffffffffffffff167fb57359628f7b44e9842ff204fb5700f84d8c4f9c3fc9dae13e7a1aab8ed164f760405160405180910390a250565b61094961175e565b73ffffffffffffffffffffffffffffffffffffffff16610967610b3c565b73ffffffffffffffffffffffffffffffffffffffff16146109bd576040517f08c379a00000000000000000000000000000000000000000000000000000000081526004016109b490612caa565b60405180910390fd5b6109c76000611766565b565b6109d161175e565b73ffffffffffffffffffffffffffffffffffffffff166109ef610b3c565b73ffffffffffffffffffffffffffffffffffffffff1614610a45576040517f08c379a0000000000000000000000000000000000000000000000000000000008152600401610a3c90612caa565b60405180910390fd5b600073ffffffffffffffffffffffffffffffffffffffff168173ffffffffffffffffffffffffffffffffffffffff161415610ab5576040517f08c379a0000000000000000000000000000000000000000000000000000000008152600401610aac90612c4a565b60405180910390fd5b80606960006101000a81548173ffffffffffffffffffffffffffffffffffffffff021916908373ffffffffffffffffffffffffffffffffffffffff1602179055508073ffffffffffffffffffffffffffffffffffffffff167f02dec22a3d1e8f9cdc0c7cd17ecee187f635788c40755be0a72dcd86a05e564d60405160405180910390a250565b6000603360009054906101000a900473ffffffffffffffffffffffffffffffffffffffff16905090565b600080610b7d8686610b766104b2565b338861182c565b9050610b88816106c1565b158015610b9b5750610b99846106c1565b155b610bda576040517f08c379a0000000000000000000000000000000000000000000000000000000008152600401610bd190612d4a565b60405180910390fd5b631626ba7e60e01b7bffffffffffffffffffffffffffffffffffffffffffffffffffffffff1916610c0961164b565b73ffffffffffffffffffffffffffffffffffffffff16631626ba7e83866040518363ffffffff1660e01b8152600401610c43929190612a5e565b60206040518083038186803b158015610c5b57600080fd5b505afa158015610c6f573d6000803e3d6000fd5b505050506040513d601f19601f82011682018060405250810190610c93919061239e565b7bffffffffffffffffffffffffffffffffffffffffffffffffffffffff191614610cf2576040517f08c379a0000000000000000000000000000000000000000000000000000000008152600401610ce990612cca565b60405180910390fd5b60016068600083815260200190815260200160002060006101000a81548160ff02191690831515021790555060016068600086815260200190815260200160002060006101000a81548160ff021916908315150217905550610d7c3386610d57611621565b73ffffffffffffffffffffffffffffffffffffffff166118689092919063ffffffff16565b83813373ffffffffffffffffffffffffffffffffffffffff167f9a0e734b1a87920f1af4cb8617268e9e5979afa7f36a620a4f90206f0ca57d4c88604051610dc49190612d8a565b60405180910390a484915050949350505050565b610de061175e565b73ffffffffffffffffffffffffffffffffffffffff16610dfe610b3c565b73ffffffffffffffffffffffffffffffffffffffff1614610e54576040517f08c379a0000000000000000000000000000000000000000000000000000000008152600401610e4b90612caa565b60405180910390fd5b610ea182828080601f016020809104026020016040519081016040528093929190818152602001838380828437600081840152601f19601f820116905080830192505050505050506118ee565b610ee0576040517f08c379a0000000000000000000000000000000000000000000000000000000008152600401610ed790612d2a565b60405180910390fd5b610f2d82828080601f016020809104026020016040519081016040528093929190818152602001838380828437600081840152601f19601f820116905080830192505050505050506118fb565b610f6c576040517f08c379a0000000000000000000000000000000000000000000000000000000008152600401610f6390612baa565b60405180910390fd5b818160659190610f7d929190612028565b506000610fd5610f8b6104bc565b84848080601f016020809104026020016040519081016040528093929190818152602001838380828437600081840152601f19601f820116905080830192505050505050506119b5565b9050806067819055507f4dc1740772ca26480ca22d412de18818650c980e3aef84a3ca49cbe4fa4ed88083838360405161101193929190612afc565b60405180910390a1505050565b600060019054906101000a900460ff1680611044575060008054906101000a900460ff16155b611083576040517f08c379a000000000000000000000000000000000000000000000000000000000815260040161107a90612c8a565b60405180910390fd5b60008060019054906101000a900460ff1615905080156110d3576001600060016101000a81548160ff02191690831515021790555060016000806101000a81548160ff0219169083151502179055505b6110db611675565b6110e98787878787876103a5565b801561110a5760008060016101000a81548160ff0219169083151502179055505b50505050505050565b61111b61175e565b73ffffffffffffffffffffffffffffffffffffffff16611139610b3c565b73ffffffffffffffffffffffffffffffffffffffff161461118f576040517f08c379a000000000000000000000000000000000000000000000000000000000815260040161118690612caa565b60405180910390fd5b6111dc82828080601f016020809104026020016040519081016040528093929190818152602001838380828437600081840152601f19601f820116905080830192505050505050506118ee565b61121b576040517f08c379a000000000000000000000000000000000000000000000000000000000815260040161121290612bea565b60405180910390fd5b61126882828080601f016020809104026020016040519081016040528093929190818152602001838380828437600081840152601f19601f820116905080830192505050505050506118fb565b6112a7576040517f08c379a000000000000000000000000000000000000000000000000000000000815260040161129e90612baa565b60405180910390fd5b8181606691906112b8929190612028565b50600061131083838080601f016020809104026020016040519081016040528093929190818152602001838380828437600081840152601f19601f8201169050808301925050505050505061130b611359565b6119b5565b9050806067819055507f2e7c1f9bcc3b09d8e05594ab5d17b6c9b15b24cd506c5212f051f22990d0813183838360405161134c93929190612afc565b60405180910390a1505050565b6060606580546113689061300c565b80601f01602080910402602001604051908101604052809291908181526020018280546113949061300c565b80156113e15780601f106113b6576101008083540402835291602001916113e1565b820191906000526020600020905b8154815290600101906020018083116113c457829003601f168201915b5050505050905090565b60008085511415611431576040517f08c379a000000000000000000000000000000000000000000000000000000000815260040161142890612c0a565b60405180910390fd5b6000611467333085611441611621565b73ffffffffffffffffffffffffffffffffffffffff166119e8909392919063ffffffff16565b9050600061147361039b565b9050856040516114839190612967565b6040518091039020876040516114999190612967565b6040518091039020827fc06237815e14163806cc5c2447bc785b639c2f8b1f3f23872f226e5c31adb9958a8a8a886040516114d79493929190612b50565b60405180910390a46001816114ec9190612e7a565b606c819055508392505050949350505050565b6000606b60009054906101000a900473ffffffffffffffffffffffffffffffffffffffff16905090565b61153161175e565b73ffffffffffffffffffffffffffffffffffffffff1661154f610b3c565b73ffffffffffffffffffffffffffffffffffffffff16146115a5576040517f08c379a000000000000000000000000000000000000000000000000000000000815260040161159c90612caa565b60405180910390fd5b600073ffffffffffffffffffffffffffffffffffffffff168173ffffffffffffffffffffffffffffffffffffffff161415611615576040517f08c379a000000000000000000000000000000000000000000000000000000000815260040161160c90612bca565b60405180910390fd5b61161e81611766565b50565b6000606960009054906101000a900473ffffffffffffffffffffffffffffffffffffffff16905090565b6000606a60009054906101000a900473ffffffffffffffffffffffffffffffffffffffff16905090565b600060019054906101000a900460ff168061169b575060008054906101000a900460ff16155b6116da576040517f08c379a00000000000000000000000000000000000000000000000000000000081526004016116d190612c8a565b60405180910390fd5b60008060019054906101000a900460ff16159050801561172a576001600060016101000a81548160ff02191690831515021790555060016000806101000a81548160ff0219169083151502179055505b611732611b57565b61173a611c30565b801561175b5760008060016101000a81548160ff0219169083151502179055505b50565b600033905090565b6000603360009054906101000a900473ffffffffffffffffffffffffffffffffffffffff16905081603360006101000a81548173ffffffffffffffffffffffffffffffffffffffff021916908373ffffffffffffffffffffffffffffffffffffffff1602179055508173ffffffffffffffffffffffffffffffffffffffff168173ffffffffffffffffffffffffffffffffffffffff167f8be0079c531659141344cd1fd0a4f28419497f9722a3daafe3b4186f6b6457e060405160405180910390a35050565b60008585858585604051602001611847959493929190612a8e565b60405160208183030381529060405280519060200120905095945050505050565b6118e98363a9059cbb60e01b84846040516024016118879291906129ff565b604051602081830303815290604052907bffffffffffffffffffffffffffffffffffffffffffffffffffffffff19166020820180517bffffffffffffffffffffffffffffffffffffffffffffffffffffffff8381831617835250505050611d19565b505050565b6000808251119050919050565b600080600090505b82518110156119aa57600083828151811061192157611920613116565b5b602001015160f81c60f81b60f81c905060418160ff16101580156119495750605a8160ff1611155b80611968575060618160ff16101580156119675750607a8160ff1611155b5b80611987575060308160ff1610158015611986575060398160ff1611155b5b611996576000925050506119b0565b5080806119a29061306f565b915050611903565b50600190505b919050565b600082826040516020016119ca92919061297e565b60405160208183030381529060405280519060200120905092915050565b6000808573ffffffffffffffffffffffffffffffffffffffff166370a08231856040518263ffffffff1660e01b8152600401611a2491906129ad565b60206040518083038186803b158015611a3c57600080fd5b505afa158015611a50573d6000803e3d6000fd5b505050506040513d601f19601f82011682018060405250810190611a7491906125a7565b9050611aa38585858973ffffffffffffffffffffffffffffffffffffffff16611de0909392919063ffffffff16565b60008673ffffffffffffffffffffffffffffffffffffffff166370a08231866040518263ffffffff1660e01b8152600401611ade91906129ad565b60206040518083038186803b158015611af657600080fd5b505afa158015611b0a573d6000803e3d6000fd5b505050506040513d601f19601f82011682018060405250810190611b2e91906125a7565b905060008282611b3e9190612ed0565b9050611b4a8582611e69565b9350505050949350505050565b600060019054906101000a900460ff1680611b7d575060008054906101000a900460ff16155b611bbc576040517f08c379a0000000000000000000000000000000000000000000000000000000008152600401611bb390612c8a565b60405180910390fd5b60008060019054906101000a900460ff161590508015611c0c576001600060016101000a81548160ff02191690831515021790555060016000806101000a81548160ff0219169083151502179055505b8015611c2d5760008060016101000a81548160ff0219169083151502179055505b50565b600060019054906101000a900460ff1680611c56575060008054906101000a900460ff16155b611c95576040517f08c379a0000000000000000000000000000000000000000000000000000000008152600401611c8c90612c8a565b60405180910390fd5b60008060019054906101000a900460ff161590508015611ce5576001600060016101000a81548160ff02191690831515021790555060016000806101000a81548160ff0219169083151502179055505b611cf5611cf061175e565b611766565b8015611d165760008060016101000a81548160ff0219169083151502179055505b50565b6000611d7b826040518060400160405280602081526020017f5361666545524332303a206c6f772d6c6576656c2063616c6c206661696c65648152508573ffffffffffffffffffffffffffffffffffffffff16611e829092919063ffffffff16565b9050600081511115611ddb5780806020019051810190611d9b91906122c1565b611dda576040517f08c379a0000000000000000000000000000000000000000000000000000000008152600401611dd190612d0a565b60405180910390fd5b5b505050565b611e63846323b872dd60e01b858585604051602401611e01939291906129c8565b604051602081830303815290604052907bffffffffffffffffffffffffffffffffffffffffffffffffffffffff19166020820180517bffffffffffffffffffffffffffffffffffffffffffffffffffffffff8381831617835250505050611d19565b50505050565b6000818310611e785781611e7a565b825b905092915050565b6060611e918484600085611e9a565b90509392505050565b606082471015611edf576040517f08c379a0000000000000000000000000000000000000000000000000000000008152600401611ed690612c2a565b60405180910390fd5b611ee885611fae565b611f27576040517f08c379a0000000000000000000000000000000000000000000000000000000008152600401611f1e90612cea565b60405180910390fd5b6000808673ffffffffffffffffffffffffffffffffffffffff168587604051611f509190612950565b60006040518083038185875af1925050503d8060008114611f8d576040519150601f19603f3d011682016040523d82523d6000602084013e611f92565b606091505b5091509150611fa2828286611fc1565b92505050949350505050565b600080823b905060008111915050919050565b60608315611fd157829050612021565b600083511115611fe45782518084602001fd5b816040517f08c379a00000000000000000000000000000000000000000000000000000000081526004016120189190612b2e565b60405180910390fd5b9392505050565b8280546120349061300c565b90600052602060002090601f016020900481019282612056576000855561209d565b82601f1061206f57803560ff191683800117855561209d565b8280016001018555821561209d579182015b8281111561209c578235825591602001919060010190612081565b5b5090506120aa91906120ae565b5090565b5b808211156120c75760008160009055506001016120af565b5090565b60006120de6120d984612dca565b612da5565b9050828152602081018484840111156120fa576120f9613183565b5b612105848285612fca565b509392505050565b600061212061211b84612dfb565b612da5565b90508281526020810184848401111561213c5761213b613183565b5b612147848285612fca565b509392505050565b60008135905061215e8161353d565b92915050565b60008151905061217381613554565b92915050565b6000813590506121888161356b565b92915050565b60008151905061219d81613582565b92915050565b600082601f8301126121b8576121b7613179565b5b81356121c88482602086016120cb565b91505092915050565b6000813590506121e081613599565b92915050565b60008083601f8401126121fc576121fb613179565b5b8235905067ffffffffffffffff81111561221957612218613174565b5b6020830191508360018202830111156122355761223461317e565b5b9250929050565b600082601f83011261225157612250613179565b5b813561226184826020860161210d565b91505092915050565b600081359050612279816135b0565b92915050565b60008151905061228e816135b0565b92915050565b6000602082840312156122aa576122a961318d565b5b60006122b88482850161214f565b91505092915050565b6000602082840312156122d7576122d661318d565b5b60006122e584828501612164565b91505092915050565b6000602082840312156123045761230361318d565b5b600061231284828501612179565b91505092915050565b600080600080608085870312156123355761233461318d565b5b600061234387828801612179565b94505060206123548782880161226a565b935050604061236587828801612179565b925050606085013567ffffffffffffffff81111561238657612385613188565b5b612392878288016121a3565b91505092959194509250565b6000602082840312156123b4576123b361318d565b5b60006123c28482850161218e565b91505092915050565b6000602082840312156123e1576123e061318d565b5b60006123ef848285016121d1565b91505092915050565b6000806020838503121561240f5761240e61318d565b5b600083013567ffffffffffffffff81111561242d5761242c613188565b5b612439858286016121e6565b92509250509250929050565b600080600080600080608087890312156124625761246161318d565b5b600087013567ffffffffffffffff8111156124805761247f613188565b5b61248c89828a016121e6565b9650965050602087013567ffffffffffffffff8111156124af576124ae613188565b5b6124bb89828a016121e6565b945094505060406124ce89828a0161214f565b92505060606124df89828a0161214f565b9150509295509295509295565b600080600080608085870312156125065761250561318d565b5b600085013567ffffffffffffffff81111561252457612523613188565b5b6125308782880161223c565b945050602085013567ffffffffffffffff81111561255157612550613188565b5b61255d8782880161223c565b935050604085013567ffffffffffffffff81111561257e5761257d613188565b5b61258a878288016121a3565b925050606061259b8782880161226a565b91505092959194509250565b6000602082840312156125bd576125bc61318d565b5b60006125cb8482850161227f565b91505092915050565b6125dd81612f04565b82525050565b6125ec81612f16565b82525050565b6125fb81612f22565b82525050565b600061260c82612e2c565b6126168185612e42565b9350612626818560208601612fd9565b61262f81613192565b840191505092915050565b600061264582612e2c565b61264f8185612e53565b935061265f818560208601612fd9565b80840191505092915050565b61267481612f94565b82525050565b60006126868385612e5e565b9350612693838584612fca565b61269c83613192565b840190509392505050565b60006126b282612e37565b6126bc8185612e5e565b93506126cc818560208601612fd9565b6126d581613192565b840191505092915050565b60006126eb82612e37565b6126f58185612e6f565b9350612705818560208601612fd9565b80840191505092915050565b600061271e602483612e5e565b9150612729826131a3565b604082019050919050565b6000612741602683612e5e565b915061274c826131f2565b604082019050919050565b6000612764601d83612e5e565b915061276f82613241565b602082019050919050565b6000612787602083612e5e565b91506127928261326a565b602082019050919050565b60006127aa602683612e5e565b91506127b582613293565b604082019050919050565b60006127cd601683612e5e565b91506127d8826132e2565b602082019050919050565b60006127f0601883612e5e565b91506127fb8261330b565b602082019050919050565b6000612813602e83612e5e565b915061281e82613334565b604082019050919050565b6000612836602083612e5e565b915061284182613383565b602082019050919050565b6000612859601e83612e5e565b9150612864826133ac565b602082019050919050565b600061287c601d83612e5e565b9150612887826133d5565b602082019050919050565b600061289f600383612e6f565b91506128aa826133fe565b600382019050919050565b60006128c2602a83612e5e565b91506128cd82613427565b604082019050919050565b60006128e5601d83612e5e565b91506128f082613476565b602082019050919050565b6000612908602483612e5e565b91506129138261349f565b604082019050919050565b600061292b602383612e5e565b9150612936826134ee565b604082019050919050565b61294a81612f8a565b82525050565b600061295c828461263a565b915081905092915050565b600061297382846126e0565b915081905092915050565b600061298a82856126e0565b915061299582612892565b91506129a182846126e0565b91508190509392505050565b60006020820190506129c260008301846125d4565b92915050565b60006060820190506129dd60008301866125d4565b6129ea60208301856125d4565b6129f76040830184612941565b949350505050565b6000604082019050612a1460008301856125d4565b612a216020830184612941565b9392505050565b6000602082019050612a3d60008301846125e3565b92915050565b6000602082019050612a5860008301846125f2565b92915050565b6000604082019050612a7360008301856125f2565b8181036020830152612a858184612601565b90509392505050565b600060a082019050612aa360008301886125f2565b612ab06020830187612941565b612abd60408301866125f2565b612aca60608301856125d4565b612ad760808301846125f2565b9695505050505050565b6000602082019050612af6600083018461266b565b92915050565b60006040820190508181036000830152612b1781858761267a565b9050612b2660208301846125f2565b949350505050565b60006020820190508181036000830152612b4881846126a7565b905092915050565b60006080820190508181036000830152612b6a81876126a7565b90508181036020830152612b7e81866126a7565b90508181036040830152612b928185612601565b9050612ba16060830184612941565b95945050505050565b60006020820190508181036000830152612bc381612711565b9050919050565b60006020820190508181036000830152612be381612734565b9050919050565b60006020820190508181036000830152612c0381612757565b9050919050565b60006020820190508181036000830152612c238161277a565b9050919050565b60006020820190508181036000830152612c438161279d565b9050919050565b60006020820190508181036000830152612c63816127c0565b9050919050565b60006020820190508181036000830152612c83816127e3565b9050919050565b60006020820190508181036000830152612ca381612806565b9050919050565b60006020820190508181036000830152612cc381612829565b9050919050565b60006020820190508181036000830152612ce38161284c565b9050919050565b60006020820190508181036000830152612d038161286f565b9050919050565b60006020820190508181036000830152612d23816128b5565b9050919050565b60006020820190508181036000830152612d43816128d8565b9050919050565b60006020820190508181036000830152612d63816128fb565b9050919050565b60006020820190508181036000830152612d838161291e565b9050919050565b6000602082019050612d9f6000830184612941565b92915050565b6000612daf612dc0565b9050612dbb828261303e565b919050565b6000604051905090565b600067ffffffffffffffff821115612de557612de4613145565b5b612dee82613192565b9050602081019050919050565b600067ffffffffffffffff821115612e1657612e15613145565b5b612e1f82613192565b9050602081019050919050565b600081519050919050565b600081519050919050565b600082825260208201905092915050565b600081905092915050565b600082825260208201905092915050565b600081905092915050565b6000612e8582612f8a565b9150612e9083612f8a565b9250827fffffffffffffffffffffffffffffffffffffffffffffffffffffffffffffffff03821115612ec557612ec46130b8565b5b828201905092915050565b6000612edb82612f8a565b9150612ee683612f8a565b925082821015612ef957612ef86130b8565b5b828203905092915050565b6000612f0f82612f6a565b9050919050565b60008115159050919050565b6000819050919050565b60007fffffffff0000000000000000000000000000000000000000000000000000000082169050919050565b6000612f6382612f04565b9050919050565b600073ffffffffffffffffffffffffffffffffffffffff82169050919050565b6000819050919050565b6000612f9f82612fa6565b9050919050565b6000612fb182612fb8565b9050919050565b6000612fc382612f6a565b9050919050565b82818337600083830152505050565b60005b83811015612ff7578082015181840152602081019050612fdc565b83811115613006576000848401525b50505050565b6000600282049050600182168061302457607f821691505b60208210811415613038576130376130e7565b5b50919050565b61304782613192565b810181811067ffffffffffffffff8211171561306657613065613145565b5b80604052505050565b600061307a82612f8a565b91507fffffffffffffffffffffffffffffffffffffffffffffffffffffffffffffffff8214156130ad576130ac6130b8565b5b600182019050919050565b7f4e487b7100000000000000000000000000000000000000000000000000000000600052601160045260246000fd5b7f4e487b7100000000000000000000000000000000000000000000000000000000600052602260045260246000fd5b7f4e487b7100000000000000000000000000000000000000000000000000000000600052603260045260246000fd5b7f4e487b7100000000000000000000000000000000000000000000000000000000600052604160045260246000fd5b600080fd5b600080fd5b600080fd5b600080fd5b600080fd5b600080fd5b6000601f19601f8301169050919050565b7f476174657761793a2073796d626f6c206d75737420626520616c7068616e756d60008201527f6572696300000000000000000000000000000000000000000000000000000000602082015250565b7f4f776e61626c653a206e6577206f776e657220697320746865207a65726f206160008201527f6464726573730000000000000000000000000000000000000000000000000000602082015250565b7f476174657761793a2061737365742063616e277420626520656d707479000000600082015250565b7f4c6f636b476174657761793a20746f206164647265737320697320656d707479600082015250565b7f416464726573733a20696e73756666696369656e742062616c616e636520666f60008201527f722063616c6c0000000000000000000000000000000000000000000000000000602082015250565b7f476174657761793a20696e76616c696420746f6b656e00000000000000000000600082015250565b7f476174657761793a20696e76616c696420616464726573730000000000000000600082015250565b7f496e697469616c697a61626c653a20636f6e747261637420697320616c72656160008201527f647920696e697469616c697a6564000000000000000000000000000000000000602082015250565b7f4f776e61626c653a2063616c6c6572206973206e6f7420746865206f776e6572600082015250565b7f4c6f636b476174657761793a20696e76616c6964207369676e61747572650000600082015250565b7f416464726573733a2063616c6c20746f206e6f6e2d636f6e7472616374000000600082015250565b7f2f746f0000000000000000000000000000000000000000000000000000000000600082015250565b7f5361666545524332303a204552433230206f7065726174696f6e20646964206e60008201527f6f74207375636365656400000000000000000000000000000000000000000000602082015250565b7f476174657761793a20636861696e2063616e277420626520656d707479000000600082015250565b7f4c6f636b476174657761793a207369676e617475726520616c7265616479207360008201527f70656e7400000000000000000000000000000000000000000000000000000000602082015250565b7f476174657761793a20696e76616c6964207369676e617475726520766572696660008201527f6965720000000000000000000000000000000000000000000000000000000000602082015250565b61354681612f04565b811461355157600080fd5b50565b61355d81612f16565b811461356857600080fd5b50565b61357481612f22565b811461357f57600080fd5b50565b61358b81612f2c565b811461359657600080fd5b50565b6135a281612f58565b81146135ad57600080fd5b50565b6135b981612f8a565b81146135c457600080fd5b5056fea2646970667358221220f8293e322adb3008c1ded38e9f05272e505f52799617bcefdfffe05c9f52fa4e64736f6c63430008070033",
  "devdoc": {
    "kind": "dev",
    "methods": {
      "lock(string,string,bytes,uint256)": {
        "params": {
          "amount": "The amount of the token being locked, in the asset's        smallest unit. (e.g. satoshis for BTC)",
          "recipientAddress": "The address to which the locked assets will be        minted to. The address should be a plain-text address, without        decoding to bytes first.",
          "recipientChain": "The target chain to which the assets are being        moved to.",
          "recipientPayload": "An optional payload to be passed to the        recipient chain along with the address."
        }
      },
      "owner()": {
        "details": "Returns the address of the current owner."
      },
      "release(bytes32,uint256,bytes32,bytes)": {
        "params": {
          "amount": "The amount of the token being minted, in its smallest        value. (e.g. satoshis for BTC).",
          "nHash": "(nonce hash) The hash of the nonce, amount and pHash.",
          "pHash": "(payload hash) The hash of the payload associated with the        mint.",
          "sig": "The signature of the hash of the following values:        (pHash, amount, msg.sender, nHash), signed by the mintAuthority."
        }
      },
      "renounceOwnership()": {
        "details": "Leaves the contract without owner. It will not be possible to call `onlyOwner` functions anymore. Can only be called by the current owner. NOTE: Renouncing ownership will leave the contract without an owner, thereby removing any functionality that is only available to the owner."
      },
      "transferOwnership(address)": {
        "details": "Transfers ownership of the contract to a new account (`newOwner`). Can only be called by the current owner."
      },
      "updateAsset(string)": {
        "params": {
          "nextAsset": "The new asset."
        }
      },
      "updateChain(string)": {
        "params": {
          "nextChain": "The new chain."
        }
      },
      "updatePreviousGateway(address)": {
        "params": {
          "nextPreviousGateway": "The new gateway contract's address."
        }
      },
      "updateSignatureVerifier(address)": {
        "params": {
          "nextSignatureVerifier": "The new verifier contract address."
        }
      },
      "updateToken(address)": {
        "params": {
          "nextToken": "The new ERC20 token contract's address."
        }
      }
    },
    "version": 1
  },
  "userdoc": {
    "kind": "user",
    "methods": {
      "lock(string,string,bytes,uint256)": {
        "notice": "burn destroys tokens after taking a fee for the `_feeRecipient`,         allowing the associated assets to be released on their native         chain."
      },
      "release(bytes32,uint256,bytes32,bytes)": {
        "notice": "mint verifies a mint approval signature from RenVM and creates         tokens after taking a fee for the `_feeRecipient`."
      },
      "updateAsset(string)": {
        "notice": "Allow the owner to update the asset."
      },
      "updateChain(string)": {
        "notice": "Allow the owner to update the chain."
      },
      "updatePreviousGateway(address)": {
        "notice": "Allow the owner to update the previous gateway used for backwards compatibility."
      },
      "updateSignatureVerifier(address)": {
        "notice": "Allow the owner to update the signature verifier contract."
      },
      "updateToken(address)": {
        "notice": "Allow the owner to update the ERC20 token contract."
      }
    },
    "notice": "LockGatewayV3 handles verifying lock and release requests. A mintAuthority approves new assets to be minted by providing a digital signature.",
    "version": 1
  },
  "storageLayout": {
    "storage": [
      {
        "astId": 773,
        "contract": "src/Gateways/LockGateway.sol:LockGatewayV3",
        "label": "_initialized",
        "offset": 0,
        "slot": "0",
        "type": "t_bool"
      },
      {
        "astId": 776,
        "contract": "src/Gateways/LockGateway.sol:LockGatewayV3",
        "label": "_initializing",
        "offset": 1,
        "slot": "0",
        "type": "t_bool"
      },
      {
        "astId": 1532,
        "contract": "src/Gateways/LockGateway.sol:LockGatewayV3",
        "label": "__gap",
        "offset": 0,
        "slot": "1",
        "type": "t_array(t_uint256)50_storage"
      },
      {
        "astId": 653,
        "contract": "src/Gateways/LockGateway.sol:LockGatewayV3",
        "label": "_owner",
        "offset": 0,
        "slot": "51",
        "type": "t_address"
      },
      {
        "astId": 766,
        "contract": "src/Gateways/LockGateway.sol:LockGatewayV3",
        "label": "__gap",
        "offset": 0,
        "slot": "52",
        "type": "t_array(t_uint256)49_storage"
      },
      {
        "astId": 8418,
        "contract": "src/Gateways/LockGateway.sol:LockGatewayV3",
        "label": "_chain",
        "offset": 0,
        "slot": "101",
        "type": "t_string_storage"
      },
      {
        "astId": 8420,
        "contract": "src/Gateways/LockGateway.sol:LockGatewayV3",
        "label": "_asset",
        "offset": 0,
        "slot": "102",
        "type": "t_string_storage"
      },
      {
        "astId": 8422,
        "contract": "src/Gateways/LockGateway.sol:LockGatewayV3",
        "label": "_selectorHash",
        "offset": 0,
        "slot": "103",
        "type": "t_bytes32"
      },
      {
        "astId": 8427,
        "contract": "src/Gateways/LockGateway.sol:LockGatewayV3",
        "label": "_status",
        "offset": 0,
        "slot": "104",
        "type": "t_mapping(t_bytes32,t_bool)"
      },
      {
        "astId": 8430,
        "contract": "src/Gateways/LockGateway.sol:LockGatewayV3",
        "label": "_token",
        "offset": 0,
        "slot": "105",
        "type": "t_address"
      },
      {
        "astId": 8433,
        "contract": "src/Gateways/LockGateway.sol:LockGatewayV3",
        "label": "_signatureVerifier",
        "offset": 0,
        "slot": "106",
        "type": "t_contract(IRenVMSignatureVerifier)8881"
      },
      {
        "astId": 8435,
        "contract": "src/Gateways/LockGateway.sol:LockGatewayV3",
        "label": "_previousGateway",
        "offset": 0,
        "slot": "107",
        "type": "t_address"
      },
      {
        "astId": 8437,
        "contract": "src/Gateways/LockGateway.sol:LockGatewayV3",
        "label": "_eventNonce",
        "offset": 0,
        "slot": "108",
        "type": "t_uint256"
      },
      {
        "astId": 8441,
        "contract": "src/Gateways/LockGateway.sol:LockGatewayV3",
        "label": "__gap",
        "offset": 0,
        "slot": "109",
        "type": "t_array(t_uint256)43_storage"
      }
    ],
    "types": {
      "t_address": {
        "encoding": "inplace",
        "label": "address",
        "numberOfBytes": "20"
      },
      "t_array(t_uint256)43_storage": {
        "base": "t_uint256",
        "encoding": "inplace",
        "label": "uint256[43]",
        "numberOfBytes": "1376"
      },
      "t_array(t_uint256)49_storage": {
        "base": "t_uint256",
        "encoding": "inplace",
        "label": "uint256[49]",
        "numberOfBytes": "1568"
      },
      "t_array(t_uint256)50_storage": {
        "base": "t_uint256",
        "encoding": "inplace",
        "label": "uint256[50]",
        "numberOfBytes": "1600"
      },
      "t_bool": {
        "encoding": "inplace",
        "label": "bool",
        "numberOfBytes": "1"
      },
      "t_bytes32": {
        "encoding": "inplace",
        "label": "bytes32",
        "numberOfBytes": "32"
      },
      "t_contract(IRenVMSignatureVerifier)8881": {
        "encoding": "inplace",
        "label": "contract IRenVMSignatureVerifier",
        "numberOfBytes": "20"
      },
      "t_mapping(t_bytes32,t_bool)": {
        "encoding": "mapping",
        "key": "t_bytes32",
        "label": "mapping(bytes32 => bool)",
        "numberOfBytes": "32",
        "value": "t_bool"
      },
      "t_string_storage": {
        "encoding": "bytes",
        "label": "string",
        "numberOfBytes": "32"
      },
      "t_uint256": {
        "encoding": "inplace",
        "label": "uint256",
        "numberOfBytes": "32"
      }
    }
  }
}