{
  "address": "0x877901A3f89e628fc563da824E4f8aafbFd94699",
  "abi": [
    {
      "anonymous": false,
      "inputs": [
        {
          "indexed": false,
          "internalType": "string",
          "name": "_asset",
          "type": "string"
        },
        {
          "indexed": true,
          "internalType": "bytes32",
          "name": "_selectorHash",
          "type": "bytes32"
        }
      ],
      "name": "LogAssetUpdated",
      "type": "event"
    },
    {
      "anonymous": false,
      "inputs": [
        {
          "indexed": false,
          "internalType": "string",
          "name": "_chain",
          "type": "string"
        },
        {
          "indexed": true,
          "internalType": "bytes32",
          "name": "_selectorHash",
          "type": "bytes32"
        }
      ],
      "name": "LogChainUpdated",
      "type": "event"
    },
    {
      "anonymous": false,
      "inputs": [
        {
          "indexed": false,
          "internalType": "string",
          "name": "recipientAddress",
          "type": "string"
        },
        {
          "indexed": false,
          "internalType": "string",
          "name": "recipientChain",
          "type": "string"
        },
        {
          "indexed": false,
          "internalType": "bytes",
          "name": "recipientPayload",
          "type": "bytes"
        },
        {
          "indexed": false,
          "internalType": "uint256",
          "name": "amount",
          "type": "uint256"
        },
        {
          "indexed": true,
          "internalType": "uint256",
          "name": "lockNonce",
          "type": "uint256"
        },
        {
          "indexed": true,
          "internalType": "string",
          "name": "recipientAddressIndexed",
          "type": "string"
        },
        {
          "indexed": true,
          "internalType": "string",
          "name": "recipientChainIndexed",
          "type": "string"
        }
      ],
      "name": "LogLockToChain",
      "type": "event"
    },
    {
      "anonymous": false,
      "inputs": [
        {
          "indexed": true,
          "internalType": "address",
          "name": "_newPreviousGateway",
          "type": "address"
        }
      ],
      "name": "LogPreviousGatewayUpdated",
      "type": "event"
    },
    {
      "anonymous": false,
      "inputs": [
        {
          "indexed": true,
          "internalType": "address",
          "name": "recipient",
          "type": "address"
        },
        {
          "indexed": false,
          "internalType": "uint256",
          "name": "amount",
          "type": "uint256"
        },
        {
          "indexed": true,
          "internalType": "bytes32",
          "name": "sigHash",
          "type": "bytes32"
        },
        {
          "indexed": true,
          "internalType": "bytes32",
          "name": "nHash",
          "type": "bytes32"
        }
      ],
      "name": "LogRelease",
      "type": "event"
    },
    {
      "anonymous": false,
      "inputs": [
        {
          "indexed": true,
          "internalType": "address",
          "name": "_newSignatureVerifier",
          "type": "address"
        }
      ],
      "name": "LogSignatureVerifierUpdated",
      "type": "event"
    },
    {
      "anonymous": false,
      "inputs": [
        {
          "indexed": true,
          "internalType": "address",
          "name": "_newToken",
          "type": "address"
        }
      ],
      "name": "LogTokenUpdated",
      "type": "event"
    },
    {
      "anonymous": false,
      "inputs": [
        {
          "indexed": true,
          "internalType": "address",
          "name": "previousOwner",
          "type": "address"
        },
        {
          "indexed": true,
          "internalType": "address",
          "name": "newOwner",
          "type": "address"
        }
      ],
      "name": "OwnershipTransferred",
      "type": "event"
    },
    {
      "inputs": [],
      "name": "NAME",
      "outputs": [
        {
          "internalType": "string",
          "name": "",
          "type": "string"
        }
      ],
      "stateMutability": "view",
      "type": "function"
    },
    {
      "inputs": [
        {
          "internalType": "string",
          "name": "chain_",
          "type": "string"
        },
        {
          "internalType": "string",
          "name": "asset_",
          "type": "string"
        },
        {
          "internalType": "address",
          "name": "signatureVerifier_",
          "type": "address"
        },
        {
          "internalType": "address",
          "name": "token_",
          "type": "address"
        }
      ],
      "name": "__GatewayStateManager_init",
      "outputs": [],
      "stateMutability": "nonpayable",
      "type": "function"
    },
    {
      "inputs": [
        {
          "internalType": "string",
          "name": "chain_",
          "type": "string"
        },
        {
          "internalType": "string",
          "name": "asset_",
          "type": "string"
        },
        {
          "internalType": "address",
          "name": "signatureVerifier_",
          "type": "address"
        },
        {
          "internalType": "address",
          "name": "token_",
          "type": "address"
        },
        {
          "internalType": "address",
          "name": "contractOwner",
          "type": "address"
        }
      ],
      "name": "__LockGateway_init",
      "outputs": [],
      "stateMutability": "nonpayable",
      "type": "function"
    },
    {
      "inputs": [],
      "name": "asset",
      "outputs": [
        {
          "internalType": "string",
          "name": "",
          "type": "string"
        }
      ],
      "stateMutability": "view",
      "type": "function"
    },
    {
      "inputs": [],
      "name": "chain",
      "outputs": [
        {
          "internalType": "string",
          "name": "",
          "type": "string"
        }
      ],
      "stateMutability": "view",
      "type": "function"
    },
    {
      "inputs": [],
      "name": "eventNonce",
      "outputs": [
        {
          "internalType": "uint256",
          "name": "",
          "type": "uint256"
        }
      ],
      "stateMutability": "view",
      "type": "function"
    },
    {
      "inputs": [
        {
          "internalType": "string",
          "name": "recipientAddress",
          "type": "string"
        },
        {
          "internalType": "string",
          "name": "recipientChain",
          "type": "string"
        },
        {
          "internalType": "bytes",
          "name": "recipientPayload",
          "type": "bytes"
        },
        {
          "internalType": "uint256",
          "name": "amount",
          "type": "uint256"
        }
      ],
      "name": "lock",
      "outputs": [
        {
          "internalType": "uint256",
          "name": "",
          "type": "uint256"
        }
      ],
      "stateMutability": "nonpayable",
      "type": "function"
    },
    {
      "inputs": [],
      "name": "owner",
      "outputs": [
        {
          "internalType": "address",
          "name": "",
          "type": "address"
        }
      ],
      "stateMutability": "view",
      "type": "function"
    },
    {
      "inputs": [],
      "name": "previousGateway",
      "outputs": [
        {
          "internalType": "address",
          "name": "",
          "type": "address"
        }
      ],
      "stateMutability": "view",
      "type": "function"
    },
    {
      "inputs": [
        {
          "internalType": "bytes32",
          "name": "pHash",
          "type": "bytes32"
        },
        {
          "internalType": "uint256",
          "name": "amount",
          "type": "uint256"
        },
        {
          "internalType": "bytes32",
          "name": "nHash",
          "type": "bytes32"
        },
        {
          "internalType": "bytes",
          "name": "sig",
          "type": "bytes"
        }
      ],
      "name": "release",
      "outputs": [
        {
          "internalType": "uint256",
          "name": "",
          "type": "uint256"
        }
      ],
      "stateMutability": "nonpayable",
      "type": "function"
    },
    {
      "inputs": [],
      "name": "renounceOwnership",
      "outputs": [],
      "stateMutability": "nonpayable",
      "type": "function"
    },
    {
      "inputs": [],
      "name": "selectorHash",
      "outputs": [
        {
          "internalType": "bytes32",
          "name": "",
          "type": "bytes32"
        }
      ],
      "stateMutability": "view",
      "type": "function"
    },
    {
      "inputs": [],
      "name": "signatureVerifier",
      "outputs": [
        {
          "internalType": "contract IRenVMSignatureVerifier",
          "name": "",
          "type": "address"
        }
      ],
      "stateMutability": "view",
      "type": "function"
    },
    {
      "inputs": [
        {
          "internalType": "bytes32",
          "name": "hash",
          "type": "bytes32"
        }
      ],
      "name": "status",
      "outputs": [
        {
          "internalType": "bool",
          "name": "",
          "type": "bool"
        }
      ],
      "stateMutability": "view",
      "type": "function"
    },
    {
      "inputs": [],
      "name": "token",
      "outputs": [
        {
          "internalType": "address",
          "name": "",
          "type": "address"
        }
      ],
      "stateMutability": "view",
      "type": "function"
    },
    {
      "inputs": [
        {
          "internalType": "address",
          "name": "newOwner",
          "type": "address"
        }
      ],
      "name": "transferOwnership",
      "outputs": [],
      "stateMutability": "nonpayable",
      "type": "function"
    },
    {
      "inputs": [
        {
          "internalType": "string",
          "name": "nextAsset",
          "type": "string"
        }
      ],
      "name": "updateAsset",
      "outputs": [],
      "stateMutability": "nonpayable",
      "type": "function"
    },
    {
      "inputs": [
        {
          "internalType": "string",
          "name": "nextChain",
          "type": "string"
        }
      ],
      "name": "updateChain",
      "outputs": [],
      "stateMutability": "nonpayable",
      "type": "function"
    },
    {
      "inputs": [
        {
          "internalType": "address",
          "name": "nextPreviousGateway",
          "type": "address"
        }
      ],
      "name": "updatePreviousGateway",
      "outputs": [],
      "stateMutability": "nonpayable",
      "type": "function"
    },
    {
      "inputs": [
        {
          "internalType": "address",
          "name": "nextSignatureVerifier",
          "type": "address"
        }
      ],
      "name": "updateSignatureVerifier",
      "outputs": [],
      "stateMutability": "nonpayable",
      "type": "function"
    },
    {
      "inputs": [
        {
          "internalType": "address",
          "name": "nextToken",
          "type": "address"
        }
      ],
      "name": "updateToken",
      "outputs": [],
      "stateMutability": "nonpayable",
      "type": "function"
    }
  ],
  "args": [],
  "solcInputHash": "28c8195c7642df595c510e6d4f107e0d",
  "bytecode": "0x608060405234801561001057600080fd5b50613d6d806100206000396000f3fe608060405234801561001057600080fd5b50600436106101375760003560e01c80639cffc715116100b8578063ca9d95321161007c578063ca9d953214610302578063d489dc6c14610332578063f2fde38b14610350578063fc0c546a1461036c578063fde919f61461038a578063fe98c971146103a857610137565b80639cffc7151461025e578063a3f4df7e1461028e578063aae8fdf0146102ac578063c54216b4146102c8578063c763e5a1146102e457610137565b806352ad0d5e116100ff57806352ad0d5e146101ce5780635667981b146101fe578063715018a61461021a5780637ad3def2146102245780638da5cb5b1461024057610137565b80631c3e6ee61461013c578063205066421461015a578063297629761461017657806338d52e0f146101945780635266ba0c146101b2575b600080fd5b6101446103c4565b60405161015191906133fe565b60405180910390f35b610174600480360381019061016f91906128a9565b6103ce565b005b61017e6104db565b60405161018b91906130bd565b60405180910390f35b61019c61052d565b6040516101a991906131fc565b60405180910390f35b6101cc60048036038101906101c79190612720565b6105bf565b005b6101e860048036038101906101e3919061277a565b610732565b6040516101f591906130a2565b60405180910390f35b61021860048036038101906102139190612720565b61083f565b005b6102226109b2565b005b61023e60048036038101906102399190612720565b610a3a565b005b610248610bad565b6040516102559190613027565b60405180910390f35b610278600480360381019061027391906127a7565b610bd7565b60405161028591906133fe565b60405180910390f35b610296610e9a565b6040516102a391906131fc565b60405180910390f35b6102c660048036038101906102c1919061285c565b610ed3565b005b6102e260048036038101906102dd919061285c565b61108c565b005b6102ec611245565b6040516102f991906131fc565b60405180910390f35b61031c60048036038101906103179190612a0c565b6112d7565b60405161032991906133fe565b60405180910390f35b61033a611447565b6040516103479190613027565b60405180910390f35b61036a60048036038101906103659190612720565b611471565b005b610374611569565b6040516103819190613027565b60405180910390f35b610392611593565b60405161039f919061315d565b60405180910390f35b6103c260048036038101906103bd9190612950565b6115bd565b005b6000606c54905090565b600060019054906101000a900460ff16806103f4575060008054906101000a900460ff16155b610433576040517f08c379a000000000000000000000000000000000000000000000000000000000815260040161042a906132fe565b60405180910390fd5b60008060019054906101000a900460ff161590508015610483576001600060016101000a81548160ff02191690831515021790555060016000806101000a81548160ff0219169083151502179055505b61048b6116ff565b6104958787610ed3565b61049f858561108c565b6104a88361083f565b6104b182610a3a565b80156104d25760008060016101000a81548160ff0219169083151502179055505b50505050505050565b60008060001b6067541415610525576040517f08c379a000000000000000000000000000000000000000000000000000000000815260040161051c9061333e565b60405180910390fd5b606754905090565b60606066805461053c9061369c565b80601f01602080910402602001604051908101604052809291908181526020018280546105689061369c565b80156105b55780601f1061058a576101008083540402835291602001916105b5565b820191906000526020600020905b81548152906001019060200180831161059857829003601f168201915b5050505050905090565b6105c76117e8565b73ffffffffffffffffffffffffffffffffffffffff166105e5610bad565b73ffffffffffffffffffffffffffffffffffffffff161461063b576040517f08c379a00000000000000000000000000000000000000000000000000000000081526004016106329061331e565b60405180910390fd5b600073ffffffffffffffffffffffffffffffffffffffff168173ffffffffffffffffffffffffffffffffffffffff1614156106ab576040517f08c379a00000000000000000000000000000000000000000000000000000000081526004016106a2906132de565b60405180910390fd5b80606b60006101000a81548173ffffffffffffffffffffffffffffffffffffffff021916908373ffffffffffffffffffffffffffffffffffffffff1602179055508073ffffffffffffffffffffffffffffffffffffffff167f092a7f3d3a91b47e57583d808f4454c082a9c49b2582f836f5a301e982a2d04d60405160405180910390a250565b60006068600083815260200190815260200160002060009054906101000a900460ff1615610763576001905061083a565b600061076d611447565b9050600073ffffffffffffffffffffffffffffffffffffffff168173ffffffffffffffffffffffffffffffffffffffff1614610834578073ffffffffffffffffffffffffffffffffffffffff166352ad0d5e846040518263ffffffff1660e01b81526004016107dc91906130bd565b60206040518083038186803b1580156107f457600080fd5b505afa158015610808573d6000803e3d6000fd5b505050506040513d601f19601f8201168201806040525081019061082c919061274d565b91505061083a565b60009150505b919050565b6108476117e8565b73ffffffffffffffffffffffffffffffffffffffff16610865610bad565b73ffffffffffffffffffffffffffffffffffffffff16146108bb576040517f08c379a00000000000000000000000000000000000000000000000000000000081526004016108b29061331e565b60405180910390fd5b600073ffffffffffffffffffffffffffffffffffffffff168173ffffffffffffffffffffffffffffffffffffffff16141561092b576040517f08c379a0000000000000000000000000000000000000000000000000000000008152600401610922906133de565b60405180910390fd5b80606a60006101000a81548173ffffffffffffffffffffffffffffffffffffffff021916908373ffffffffffffffffffffffffffffffffffffffff1602179055508073ffffffffffffffffffffffffffffffffffffffff167fb57359628f7b44e9842ff204fb5700f84d8c4f9c3fc9dae13e7a1aab8ed164f760405160405180910390a250565b6109ba6117e8565b73ffffffffffffffffffffffffffffffffffffffff166109d8610bad565b73ffffffffffffffffffffffffffffffffffffffff1614610a2e576040517f08c379a0000000000000000000000000000000000000000000000000000000008152600401610a259061331e565b60405180910390fd5b610a3860006117f0565b565b610a426117e8565b73ffffffffffffffffffffffffffffffffffffffff16610a60610bad565b73ffffffffffffffffffffffffffffffffffffffff1614610ab6576040517f08c379a0000000000000000000000000000000000000000000000000000000008152600401610aad9061331e565b60405180910390fd5b600073ffffffffffffffffffffffffffffffffffffffff168173ffffffffffffffffffffffffffffffffffffffff161415610b26576040517f08c379a0000000000000000000000000000000000000000000000000000000008152600401610b1d906132be565b60405180910390fd5b80606960006101000a81548173ffffffffffffffffffffffffffffffffffffffff021916908373ffffffffffffffffffffffffffffffffffffffff1602179055508073ffffffffffffffffffffffffffffffffffffffff167f02dec22a3d1e8f9cdc0c7cd17ecee187f635788c40755be0a72dcd86a05e564d60405160405180910390a250565b6000603360009054906101000a900473ffffffffffffffffffffffffffffffffffffffff16905090565b600080610be26117e8565b90506000610bfa8888610bf36104db565b858a6118b6565b9050610c0581610732565b15610c45576040517f08c379a0000000000000000000000000000000000000000000000000000000008152600401610c3c906133be565b60405180910390fd5b631626ba7e60e01b7bffffffffffffffffffffffffffffffffffffffffffffffffffffffff1916610c74611593565b73ffffffffffffffffffffffffffffffffffffffff16631626ba7e8388886040518463ffffffff1660e01b8152600401610cb0939291906130d8565b60206040518083038186803b158015610cc857600080fd5b505afa158015610cdc573d6000803e3d6000fd5b505050506040513d601f19601f82011682018060405250810190610d00919061282f565b7bffffffffffffffffffffffffffffffffffffffffffffffffffffffff191614610dde57610d328860001c60206118f2565b610d3b88611b2e565b610d50610d466104db565b60001c60206118f2565b610d718573ffffffffffffffffffffffffffffffffffffffff1660146118f2565b610d7f8a60001c60206118f2565b604051602001610d93959493929190612fa5565b6040516020818303038152906040526040517f08c379a0000000000000000000000000000000000000000000000000000000008152600401610dd591906131fc565b60405180910390fd5b60016068600083815260200190815260200160002060006101000a81548160ff021916908315150217905550610e3c8288610e17611569565b73ffffffffffffffffffffffffffffffffffffffff16611c8f9092919063ffffffff16565b85818373ffffffffffffffffffffffffffffffffffffffff167f9a0e734b1a87920f1af4cb8617268e9e5979afa7f36a620a4f90206f0ca57d4c8a604051610e8491906133fe565b60405180910390a4869250505095945050505050565b6040518060400160405280600b81526020017f4c6f636b4761746577617900000000000000000000000000000000000000000081525081565b610edb6117e8565b73ffffffffffffffffffffffffffffffffffffffff16610ef9610bad565b73ffffffffffffffffffffffffffffffffffffffff1614610f4f576040517f08c379a0000000000000000000000000000000000000000000000000000000008152600401610f469061331e565b60405180910390fd5b610f9c82828080601f016020809104026020016040519081016040528093929190818152602001838380828437600081840152601f19601f82011690508083019250505050505050611d15565b610fdb576040517f08c379a0000000000000000000000000000000000000000000000000000000008152600401610fd29061335e565b60405180910390fd5b818160659190610fec929190612553565b506000611044610ffa61052d565b84848080601f016020809104026020016040519081016040528093929190818152602001838380828437600081840152601f19601f82011690508083019250505050505050611d38565b905080606781905550807f4dc1740772ca26480ca22d412de18818650c980e3aef84a3ca49cbe4fa4ed880848460405161107f929190613178565b60405180910390a2505050565b6110946117e8565b73ffffffffffffffffffffffffffffffffffffffff166110b2610bad565b73ffffffffffffffffffffffffffffffffffffffff1614611108576040517f08c379a00000000000000000000000000000000000000000000000000000000081526004016110ff9061331e565b60405180910390fd5b61115582828080601f016020809104026020016040519081016040528093929190818152602001838380828437600081840152601f19601f82011690508083019250505050505050611d15565b611194576040517f08c379a000000000000000000000000000000000000000000000000000000000815260040161118b9061325e565b60405180910390fd5b8181606691906111a5929190612553565b5060006111fd83838080601f016020809104026020016040519081016040528093929190818152602001838380828437600081840152601f19601f820116905080830192505050505050506111f8611245565b611d38565b905080606781905550807f2e7c1f9bcc3b09d8e05594ab5d17b6c9b15b24cd506c5212f051f22990d081318484604051611238929190613178565b60405180910390a2505050565b6060606580546112549061369c565b80601f01602080910402602001604051908101604052809291908181526020018280546112809061369c565b80156112cd5780601f106112a2576101008083540402835291602001916112cd565b820191906000526020600020905b8154815290600101906020018083116112b057829003601f168201915b5050505050905090565b600061132688888080601f016020809104026020016040519081016040528093929190818152602001838380828437600081840152601f19601f82011690508083019250505050505050611d6b565b611365576040517f08c379a000000000000000000000000000000000000000000000000000000000815260040161135c9061327e565b60405180910390fd5b60006113a26113726117e8565b308561137c611569565b73ffffffffffffffffffffffffffffffffffffffff16611d78909392919063ffffffff16565b905060006113ae6103c4565b905087876040516113c0929190612f5d565b60405180910390208a8a6040516113d8929190612f5d565b6040518091039020827fc06237815e14163806cc5c2447bc785b639c2f8b1f3f23872f226e5c31adb9958d8d8d8d8d8d8b60405161141c979695949392919061319c565b60405180910390a46001816114319190613467565b606c819055508192505050979650505050505050565b6000606b60009054906101000a900473ffffffffffffffffffffffffffffffffffffffff16905090565b6114796117e8565b73ffffffffffffffffffffffffffffffffffffffff16611497610bad565b73ffffffffffffffffffffffffffffffffffffffff16146114ed576040517f08c379a00000000000000000000000000000000000000000000000000000000081526004016114e49061331e565b60405180910390fd5b600073ffffffffffffffffffffffffffffffffffffffff168173ffffffffffffffffffffffffffffffffffffffff16141561155d576040517f08c379a00000000000000000000000000000000000000000000000000000000081526004016115549061323e565b60405180910390fd5b611566816117f0565b50565b6000606960009054906101000a900473ffffffffffffffffffffffffffffffffffffffff16905090565b6000606a60009054906101000a900473ffffffffffffffffffffffffffffffffffffffff16905090565b600060019054906101000a900460ff16806115e3575060008054906101000a900460ff16155b611622576040517f08c379a0000000000000000000000000000000000000000000000000000000008152600401611619906132fe565b60405180910390fd5b60008060019054906101000a900460ff161590508015611672576001600060016101000a81548160ff02191690831515021790555060016000806101000a81548160ff0219169083151502179055505b61167a611ee7565b6116826116ff565b6116908888888888886103ce565b8173ffffffffffffffffffffffffffffffffffffffff166116af610bad565b73ffffffffffffffffffffffffffffffffffffffff16146116d4576116d382611471565b5b80156116f55760008060016101000a81548160ff0219169083151502179055505b5050505050505050565b600060019054906101000a900460ff1680611725575060008054906101000a900460ff16155b611764576040517f08c379a000000000000000000000000000000000000000000000000000000000815260040161175b906132fe565b60405180910390fd5b60008060019054906101000a900460ff1615905080156117b4576001600060016101000a81548160ff02191690831515021790555060016000806101000a81548160ff0219169083151502179055505b6117bc611fc8565b6117c46120a1565b80156117e55760008060016101000a81548160ff0219169083151502179055505b50565b600033905090565b6000603360009054906101000a900473ffffffffffffffffffffffffffffffffffffffff16905081603360006101000a81548173ffffffffffffffffffffffffffffffffffffffff021916908373ffffffffffffffffffffffffffffffffffffffff1602179055508173ffffffffffffffffffffffffffffffffffffffff168173ffffffffffffffffffffffffffffffffffffffff167f8be0079c531659141344cd1fd0a4f28419497f9722a3daafe3b4186f6b6457e060405160405180910390a35050565b600085858585856040516020016118d195949392919061310a565b60405160208183030381529060405280519060200120905095945050505050565b60606000600283600261190591906134ee565b61190f9190613467565b67ffffffffffffffff81111561192857611927613804565b5b6040519080825280601f01601f19166020018201604052801561195a5781602001600182028036833780820191505090505b5090507f300000000000000000000000000000000000000000000000000000000000000081600081518110611992576119916137d5565b5b60200101907effffffffffffffffffffffffffffffffffffffffffffffffffffffffffffff1916908160001a9053507f7800000000000000000000000000000000000000000000000000000000000000816001815181106119f6576119f56137d5565b5b60200101907effffffffffffffffffffffffffffffffffffffffffffffffffffffffffffff1916908160001a90535060006001846002611a3691906134ee565b611a409190613467565b90505b6001811115611ae0577f3031323334353637383961626364656600000000000000000000000000000000600f861660108110611a8257611a816137d5565b5b1a60f81b828281518110611a9957611a986137d5565b5b60200101907effffffffffffffffffffffffffffffffffffffffffffffffffffffffffffff1916908160001a905350600485901c945080611ad990613672565b9050611a43565b5060008414611b24576040517f08c379a0000000000000000000000000000000000000000000000000000000008152600401611b1b9061321e565b60405180910390fd5b8091505092915050565b60606000821415611b76576040518060400160405280600181526020017f30000000000000000000000000000000000000000000000000000000000000008152509050611c8a565b600082905060005b60008214611ba8578080611b91906136ce565b915050600a82611ba191906134bd565b9150611b7e565b60008167ffffffffffffffff811115611bc457611bc3613804565b5b6040519080825280601f01601f191660200182016040528015611bf65781602001600182028036833780820191505090505b5090505b60008514611c8357600182611c0f9190613548565b9150600a85611c1e9190613717565b6030611c2a9190613467565b60f81b818381518110611c4057611c3f6137d5565b5b60200101907effffffffffffffffffffffffffffffffffffffffffffffffffffffffffffff1916908160001a905350600a85611c7c91906134bd565b9450611bfa565b8093505050505b919050565b611d108363a9059cbb60e01b8484604051602401611cae929190613079565b604051602081830303815290604052907bffffffffffffffffffffffffffffffffffffffffffffffffffffffff19166020820180517bffffffffffffffffffffffffffffffffffffffffffffffffffffffff838183161783525050505061218a565b505050565b6000611d2082611d6b565b8015611d315750611d3082612251565b5b9050919050565b60008282604051602001611d4d929190612f76565b60405160208183030381529060405280519060200120905092915050565b6000808251119050919050565b6000808573ffffffffffffffffffffffffffffffffffffffff166370a08231856040518263ffffffff1660e01b8152600401611db49190613027565b60206040518083038186803b158015611dcc57600080fd5b505afa158015611de0573d6000803e3d6000fd5b505050506040513d601f19601f82011682018060405250810190611e049190612ad5565b9050611e338585858973ffffffffffffffffffffffffffffffffffffffff1661230b909392919063ffffffff16565b60008673ffffffffffffffffffffffffffffffffffffffff166370a08231866040518263ffffffff1660e01b8152600401611e6e9190613027565b60206040518083038186803b158015611e8657600080fd5b505afa158015611e9a573d6000803e3d6000fd5b505050506040513d601f19601f82011682018060405250810190611ebe9190612ad5565b905060008282611ece9190613548565b9050611eda8582612394565b9350505050949350505050565b600060019054906101000a900460ff1680611f0d575060008054906101000a900460ff16155b611f4c576040517f08c379a0000000000000000000000000000000000000000000000000000000008152600401611f43906132fe565b60405180910390fd5b60008060019054906101000a900460ff161590508015611f9c576001600060016101000a81548160ff02191690831515021790555060016000806101000a81548160ff0219169083151502179055505b611fa4611fc8565b8015611fc55760008060016101000a81548160ff0219169083151502179055505b50565b600060019054906101000a900460ff1680611fee575060008054906101000a900460ff16155b61202d576040517f08c379a0000000000000000000000000000000000000000000000000000000008152600401612024906132fe565b60405180910390fd5b60008060019054906101000a900460ff16159050801561207d576001600060016101000a81548160ff02191690831515021790555060016000806101000a81548160ff0219169083151502179055505b801561209e5760008060016101000a81548160ff0219169083151502179055505b50565b600060019054906101000a900460ff16806120c7575060008054906101000a900460ff16155b612106576040517f08c379a00000000000000000000000000000000000000000000000000000000081526004016120fd906132fe565b60405180910390fd5b60008060019054906101000a900460ff161590508015612156576001600060016101000a81548160ff02191690831515021790555060016000806101000a81548160ff0219169083151502179055505b6121666121616117e8565b6117f0565b80156121875760008060016101000a81548160ff0219169083151502179055505b50565b60006121ec826040518060400160405280602081526020017f5361666545524332303a206c6f772d6c6576656c2063616c6c206661696c65648152508573ffffffffffffffffffffffffffffffffffffffff166123ad9092919063ffffffff16565b905060008151111561224c578080602001905181019061220c919061274d565b61224b576040517f08c379a00000000000000000000000000000000000000000000000000000000081526004016122429061339e565b60405180910390fd5b5b505050565b600080600090505b8251811015612300576000838281518110612277576122766137d5565b5b602001015160f81c60f81b60f81c905060418160ff161015801561229f5750605a8160ff1611155b806122be575060618160ff16101580156122bd5750607a8160ff1611155b5b806122dd575060308160ff16101580156122dc575060398160ff1611155b5b6122ec57600092505050612306565b5080806122f8906136ce565b915050612259565b50600190505b919050565b61238e846323b872dd60e01b85858560405160240161232c93929190613042565b604051602081830303815290604052907bffffffffffffffffffffffffffffffffffffffffffffffffffffffff19166020820180517bffffffffffffffffffffffffffffffffffffffffffffffffffffffff838183161783525050505061218a565b50505050565b60008183106123a357816123a5565b825b905092915050565b60606123bc84846000856123c5565b90509392505050565b60608247101561240a576040517f08c379a00000000000000000000000000000000000000000000000000000000081526004016124019061329e565b60405180910390fd5b612413856124d9565b612452576040517f08c379a00000000000000000000000000000000000000000000000000000000081526004016124499061337e565b60405180910390fd5b6000808673ffffffffffffffffffffffffffffffffffffffff16858760405161247b9190612f46565b60006040518083038185875af1925050503d80600081146124b8576040519150601f19603f3d011682016040523d82523d6000602084013e6124bd565b606091505b50915091506124cd8282866124ec565b92505050949350505050565b600080823b905060008111915050919050565b606083156124fc5782905061254c565b60008351111561250f5782518084602001fd5b816040517f08c379a000000000000000000000000000000000000000000000000000000000815260040161254391906131fc565b60405180910390fd5b9392505050565b82805461255f9061369c565b90600052602060002090601f01602090048101928261258157600085556125c8565b82601f1061259a57803560ff19168380011785556125c8565b828001600101855582156125c8579182015b828111156125c75782358255916020019190600101906125ac565b5b5090506125d591906125d9565b5090565b5b808211156125f25760008160009055506001016125da565b5090565b60008135905061260581613cc4565b92915050565b60008151905061261a81613cdb565b92915050565b60008135905061262f81613cf2565b92915050565b60008151905061264481613d09565b92915050565b60008083601f8401126126605761265f613838565b5b8235905067ffffffffffffffff81111561267d5761267c613833565b5b6020830191508360018202830111156126995761269861383d565b5b9250929050565b60008083601f8401126126b6576126b5613838565b5b8235905067ffffffffffffffff8111156126d3576126d2613833565b5b6020830191508360018202830111156126ef576126ee61383d565b5b9250929050565b60008135905061270581613d20565b92915050565b60008151905061271a81613d20565b92915050565b60006020828403121561273657612735613847565b5b6000612744848285016125f6565b91505092915050565b60006020828403121561276357612762613847565b5b60006127718482850161260b565b91505092915050565b6000602082840312156127905761278f613847565b5b600061279e84828501612620565b91505092915050565b6000806000806000608086880312156127c3576127c2613847565b5b60006127d188828901612620565b95505060206127e2888289016126f6565b94505060406127f388828901612620565b935050606086013567ffffffffffffffff81111561281457612813613842565b5b6128208882890161264a565b92509250509295509295909350565b60006020828403121561284557612844613847565b5b600061285384828501612635565b91505092915050565b6000806020838503121561287357612872613847565b5b600083013567ffffffffffffffff81111561289157612890613842565b5b61289d858286016126a0565b92509250509250929050565b600080600080600080608087890312156128c6576128c5613847565b5b600087013567ffffffffffffffff8111156128e4576128e3613842565b5b6128f089828a016126a0565b9650965050602087013567ffffffffffffffff81111561291357612912613842565b5b61291f89828a016126a0565b9450945050604061293289828a016125f6565b925050606061294389828a016125f6565b9150509295509295509295565b600080600080600080600060a0888a03121561296f5761296e613847565b5b600088013567ffffffffffffffff81111561298d5761298c613842565b5b6129998a828b016126a0565b9750975050602088013567ffffffffffffffff8111156129bc576129bb613842565b5b6129c88a828b016126a0565b955095505060406129db8a828b016125f6565b93505060606129ec8a828b016125f6565b92505060806129fd8a828b016125f6565b91505092959891949750929550565b60008060008060008060006080888a031215612a2b57612a2a613847565b5b600088013567ffffffffffffffff811115612a4957612a48613842565b5b612a558a828b016126a0565b9750975050602088013567ffffffffffffffff811115612a7857612a77613842565b5b612a848a828b016126a0565b9550955050604088013567ffffffffffffffff811115612aa757612aa6613842565b5b612ab38a828b0161264a565b93509350506060612ac68a828b016126f6565b91505092959891949750929550565b600060208284031215612aeb57612aea613847565b5b6000612af98482850161270b565b91505092915050565b612b0b8161357c565b82525050565b612b1a8161358e565b82525050565b612b298161359a565b82525050565b6000612b3b838561342f565b9350612b48838584613630565b612b518361384c565b840190509392505050565b6000612b6782613419565b612b718185613440565b9350612b8181856020860161363f565b80840191505092915050565b612b96816135fa565b82525050565b6000612ba8838561344b565b9350612bb5838584613630565b612bbe8361384c565b840190509392505050565b6000612bd5838561345c565b9350612be2838584613630565b82840190509392505050565b6000612bf982613424565b612c03818561344b565b9350612c1381856020860161363f565b612c1c8161384c565b840191505092915050565b6000612c3282613424565b612c3c818561345c565b9350612c4c81856020860161363f565b80840191505092915050565b6000612c6560208361344b565b9150612c708261385d565b602082019050919050565b6000612c8860268361344b565b9150612c9382613886565b604082019050919050565b6000612cab600e8361345c565b9150612cb6826138d5565b600e82019050919050565b6000612cce60168361344b565b9150612cd9826138fe565b602082019050919050565b6000612cf160208361344b565b9150612cfc82613927565b602082019050919050565b6000612d1460268361344b565b9150612d1f82613950565b604082019050919050565b6000612d37600a8361345c565b9150612d428261399f565b600a82019050919050565b6000612d5a60168361344b565b9150612d65826139c8565b602082019050919050565b6000612d7d60188361344b565b9150612d88826139f1565b602082019050919050565b6000612da0602e8361344b565b9150612dab82613a1a565b604082019050919050565b6000612dc360098361345c565b9150612dce82613a69565b600982019050919050565b6000612de660208361344b565b9150612df182613a92565b602082019050919050565b6000612e0960188361344b565b9150612e1482613abb565b602082019050919050565b6000612e2c60278361345c565b9150612e3782613ae4565b602782019050919050565b6000612e4f60168361344b565b9150612e5a82613b33565b602082019050919050565b6000612e72601d8361344b565b9150612e7d82613b5c565b602082019050919050565b6000612e9560038361345c565b9150612ea082613b85565b600382019050919050565b6000612eb8602a8361344b565b9150612ec382613bae565b604082019050919050565b6000612edb60248361344b565b9150612ee682613bfd565b604082019050919050565b6000612efe60078361345c565b9150612f0982613c4c565b600782019050919050565b6000612f2160238361344b565b9150612f2c82613c75565b604082019050919050565b612f40816135f0565b82525050565b6000612f528284612b5c565b915081905092915050565b6000612f6a828486612bc9565b91508190509392505050565b6000612f828285612c27565b9150612f8d82612e88565b9150612f998284612c27565b91508190509392505050565b6000612fb082612e1f565b9150612fbc8288612c27565b9150612fc782612d2a565b9150612fd38287612c27565b9150612fde82612ef1565b9150612fea8286612c27565b9150612ff582612c9e565b91506130018285612c27565b915061300c82612db6565b91506130188284612c27565b91508190509695505050505050565b600060208201905061303c6000830184612b02565b92915050565b60006060820190506130576000830186612b02565b6130646020830185612b02565b6130716040830184612f37565b949350505050565b600060408201905061308e6000830185612b02565b61309b6020830184612f37565b9392505050565b60006020820190506130b76000830184612b11565b92915050565b60006020820190506130d26000830184612b20565b92915050565b60006040820190506130ed6000830186612b20565b8181036020830152613100818486612b2f565b9050949350505050565b600060a08201905061311f6000830188612b20565b61312c6020830187612f37565b6131396040830186612b20565b6131466060830185612b02565b6131536080830184612b20565b9695505050505050565b60006020820190506131726000830184612b8d565b92915050565b60006020820190508181036000830152613193818486612b9c565b90509392505050565b600060808201905081810360008301526131b781898b612b9c565b905081810360208301526131cc818789612b9c565b905081810360408301526131e1818587612b2f565b90506131f06060830184612f37565b98975050505050505050565b600060208201905081810360008301526132168184612bee565b905092915050565b6000602082019050818103600083015261323781612c58565b9050919050565b6000602082019050818103600083015261325781612c7b565b9050919050565b6000602082019050818103600083015261327781612cc1565b9050919050565b6000602082019050818103600083015261329781612ce4565b9050919050565b600060208201905081810360008301526132b781612d07565b9050919050565b600060208201905081810360008301526132d781612d4d565b9050919050565b600060208201905081810360008301526132f781612d70565b9050919050565b6000602082019050818103600083015261331781612d93565b9050919050565b6000602082019050818103600083015261333781612dd9565b9050919050565b6000602082019050818103600083015261335781612dfc565b9050919050565b6000602082019050818103600083015261337781612e42565b9050919050565b6000602082019050818103600083015261339781612e65565b9050919050565b600060208201905081810360008301526133b781612eab565b9050919050565b600060208201905081810360008301526133d781612ece565b9050919050565b600060208201905081810360008301526133f781612f14565b9050919050565b60006020820190506134136000830184612f37565b92915050565b600081519050919050565b600081519050919050565b600082825260208201905092915050565b600081905092915050565b600082825260208201905092915050565b600081905092915050565b6000613472826135f0565b915061347d836135f0565b9250827fffffffffffffffffffffffffffffffffffffffffffffffffffffffffffffffff038211156134b2576134b1613748565b5b828201905092915050565b60006134c8826135f0565b91506134d3836135f0565b9250826134e3576134e2613777565b5b828204905092915050565b60006134f9826135f0565b9150613504836135f0565b9250817fffffffffffffffffffffffffffffffffffffffffffffffffffffffffffffffff048311821515161561353d5761353c613748565b5b828202905092915050565b6000613553826135f0565b915061355e836135f0565b92508282101561357157613570613748565b5b828203905092915050565b6000613587826135d0565b9050919050565b60008115159050919050565b6000819050919050565b60007fffffffff0000000000000000000000000000000000000000000000000000000082169050919050565b600073ffffffffffffffffffffffffffffffffffffffff82169050919050565b6000819050919050565b60006136058261360c565b9050919050565b60006136178261361e565b9050919050565b6000613629826135d0565b9050919050565b82818337600083830152505050565b60005b8381101561365d578082015181840152602081019050613642565b8381111561366c576000848401525b50505050565b600061367d826135f0565b9150600082141561369157613690613748565b5b600182039050919050565b600060028204905060018216806136b457607f821691505b602082108114156136c8576136c76137a6565b5b50919050565b60006136d9826135f0565b91507fffffffffffffffffffffffffffffffffffffffffffffffffffffffffffffffff82141561370c5761370b613748565b5b600182019050919050565b6000613722826135f0565b915061372d836135f0565b92508261373d5761373c613777565b5b828206905092915050565b7f4e487b7100000000000000000000000000000000000000000000000000000000600052601160045260246000fd5b7f4e487b7100000000000000000000000000000000000000000000000000000000600052601260045260246000fd5b7f4e487b7100000000000000000000000000000000000000000000000000000000600052602260045260246000fd5b7f4e487b7100000000000000000000000000000000000000000000000000000000600052603260045260246000fd5b7f4e487b7100000000000000000000000000000000000000000000000000000000600052604160045260246000fd5b600080fd5b600080fd5b600080fd5b600080fd5b600080fd5b6000601f19601f8301169050919050565b7f537472696e67733a20686578206c656e67746820696e73756666696369656e74600082015250565b7f4f776e61626c653a206e6577206f776e657220697320746865207a65726f206160008201527f6464726573730000000000000000000000000000000000000000000000000000602082015250565b7f2c206d73672e73656e6465723a20000000000000000000000000000000000000600082015250565b7f476174657761793a20696e76616c696420617373657400000000000000000000600082015250565b7f4c6f636b476174657761793a20746f206164647265737320697320656d707479600082015250565b7f416464726573733a20696e73756666696369656e742062616c616e636520666f60008201527f722063616c6c0000000000000000000000000000000000000000000000000000602082015250565b7f2c20616d6f756e743a2000000000000000000000000000000000000000000000600082015250565b7f476174657761793a20696e76616c696420746f6b656e00000000000000000000600082015250565b7f476174657761793a20696e76616c696420616464726573730000000000000000600082015250565b7f496e697469616c697a61626c653a20636f6e747261637420697320616c72656160008201527f647920696e697469616c697a6564000000000000000000000000000000000000602082015250565b7f2c206e686173683a200000000000000000000000000000000000000000000000600082015250565b7f4f776e61626c653a2063616c6c6572206973206e6f7420746865206f776e6572600082015250565b7f476174657761793a206e6f7420696e697469616c697a65640000000000000000600082015250565b7f4c6f636b476174657761793a20696e76616c6964207369676e61747572652e2060008201527f70686173683a2000000000000000000000000000000000000000000000000000602082015250565b7f476174657761793a20696e76616c696420636861696e00000000000000000000600082015250565b7f416464726573733a2063616c6c20746f206e6f6e2d636f6e7472616374000000600082015250565b7f2f746f0000000000000000000000000000000000000000000000000000000000600082015250565b7f5361666545524332303a204552433230206f7065726174696f6e20646964206e60008201527f6f74207375636365656400000000000000000000000000000000000000000000602082015250565b7f4c6f636b476174657761793a207369676e617475726520616c7265616479207360008201527f70656e7400000000000000000000000000000000000000000000000000000000602082015250565b7f2c20736861736800000000000000000000000000000000000000000000000000600082015250565b7f476174657761793a20696e76616c6964207369676e617475726520766572696660008201527f6965720000000000000000000000000000000000000000000000000000000000602082015250565b613ccd8161357c565b8114613cd857600080fd5b50565b613ce48161358e565b8114613cef57600080fd5b50565b613cfb8161359a565b8114613d0657600080fd5b50565b613d12816135a4565b8114613d1d57600080fd5b50565b613d29816135f0565b8114613d3457600080fd5b5056fea264697066735822122067212b5b00797127d260fb60ed4178e7b78e0e7c33b21079ab3dc473f63a5d9864736f6c63430008070033",
  "devdoc": {
    "kind": "dev",
    "methods": {
      "lock(string,string,bytes,uint256)": {
        "params": {
          "amount": "The amount of the token being locked, in the asset's        smallest unit. (e.g. satoshis for BTC)",
          "recipientAddress": "The address to which the locked assets will be        minted to. The address should be a plain-text address, without        decoding to bytes first.",
          "recipientChain": "The target chain to which the assets are being        moved to.",
          "recipientPayload": "An optional payload to be passed to the        recipient chain along with the address."
        }
      },
      "owner()": {
        "details": "Returns the address of the current owner."
      },
      "release(bytes32,uint256,bytes32,bytes)": {
        "params": {
          "amount": "The amount of the token being released, in its smallest        value.",
          "nHash": "(nonce hash) The hash of the nonce, amount and pHash.",
          "pHash": "(payload hash) The hash of the payload associated with the        release.",
          "sig": "The signature of the hash of the following values:        (pHash, amount, recipient, nHash), signed by the mintAuthority."
        }
      },
      "renounceOwnership()": {
        "details": "Leaves the contract without owner. It will not be possible to call `onlyOwner` functions anymore. Can only be called by the current owner. NOTE: Renouncing ownership will leave the contract without an owner, thereby removing any functionality that is only available to the owner."
      },
      "transferOwnership(address)": {
        "details": "Transfers ownership of the contract to a new account (`newOwner`). Can only be called by the current owner."
      },
      "updateAsset(string)": {
        "params": {
          "nextAsset": "The new asset."
        }
      },
      "updateChain(string)": {
        "params": {
          "nextChain": "The new chain."
        }
      },
      "updatePreviousGateway(address)": {
        "params": {
          "nextPreviousGateway": "The new gateway contract's address."
        }
      },
      "updateSignatureVerifier(address)": {
        "params": {
          "nextSignatureVerifier": "The new verifier contract address."
        }
      },
      "updateToken(address)": {
        "params": {
          "nextToken": "The new ERC20 token contract's address."
        }
      }
    },
    "version": 1
  },
  "userdoc": {
    "kind": "user",
    "methods": {
      "lock(string,string,bytes,uint256)": {
        "notice": "Transfers tokens into custody by this contract so that they         can be minted on another chain."
      },
      "release(bytes32,uint256,bytes32,bytes)": {
        "notice": "release verifies a release approval signature from RenVM and         transfers the asset out of custody and to the recipient."
      },
      "updateAsset(string)": {
        "notice": "Allow the owner to update the asset."
      },
      "updateChain(string)": {
        "notice": "Allow the owner to update the chain."
      },
      "updatePreviousGateway(address)": {
        "notice": "Allow the owner to update the previous gateway used for backwards compatibility."
      },
      "updateSignatureVerifier(address)": {
        "notice": "Allow the owner to update the signature verifier contract."
      },
      "updateToken(address)": {
        "notice": "Allow the owner to update the ERC20 token contract."
      }
    },
    "notice": "LockGatewayV3 handles verifying lock and release requests. A mint authority approves assets being released by providing a digital signature. The balance of assets is assumed not to change without a transfer, so rebasing assets and assets with a demurrage fee are not supported.",
    "version": 1
  },
  "storageLayout": {
    "storage": [
      {
        "astId": 773,
        "contract": "src/Gateways/LockGateway.sol:LockGatewayV3",
        "label": "_initialized",
        "offset": 0,
        "slot": "0",
        "type": "t_bool"
      },
      {
        "astId": 776,
        "contract": "src/Gateways/LockGateway.sol:LockGatewayV3",
        "label": "_initializing",
        "offset": 1,
        "slot": "0",
        "type": "t_bool"
      },
      {
        "astId": 2463,
        "contract": "src/Gateways/LockGateway.sol:LockGatewayV3",
        "label": "__gap",
        "offset": 0,
        "slot": "1",
        "type": "t_array(t_uint256)50_storage"
      },
      {
        "astId": 653,
        "contract": "src/Gateways/LockGateway.sol:LockGatewayV3",
        "label": "_owner",
        "offset": 0,
        "slot": "51",
        "type": "t_address"
      },
      {
        "astId": 766,
        "contract": "src/Gateways/LockGateway.sol:LockGatewayV3",
        "label": "__gap",
        "offset": 0,
        "slot": "52",
        "type": "t_array(t_uint256)49_storage"
      },
      {
        "astId": 9842,
        "contract": "src/Gateways/LockGateway.sol:LockGatewayV3",
        "label": "_chain",
        "offset": 0,
        "slot": "101",
        "type": "t_string_storage"
      },
      {
        "astId": 9844,
        "contract": "src/Gateways/LockGateway.sol:LockGatewayV3",
        "label": "_asset",
        "offset": 0,
        "slot": "102",
        "type": "t_string_storage"
      },
      {
        "astId": 9846,
        "contract": "src/Gateways/LockGateway.sol:LockGatewayV3",
        "label": "_selectorHash",
        "offset": 0,
        "slot": "103",
        "type": "t_bytes32"
      },
      {
        "astId": 9851,
        "contract": "src/Gateways/LockGateway.sol:LockGatewayV3",
        "label": "_status",
        "offset": 0,
        "slot": "104",
        "type": "t_mapping(t_bytes32,t_bool)"
      },
      {
        "astId": 9854,
        "contract": "src/Gateways/LockGateway.sol:LockGatewayV3",
        "label": "_token",
        "offset": 0,
        "slot": "105",
        "type": "t_address"
      },
      {
        "astId": 9857,
        "contract": "src/Gateways/LockGateway.sol:LockGatewayV3",
        "label": "_signatureVerifier",
        "offset": 0,
        "slot": "106",
        "type": "t_contract(IRenVMSignatureVerifier)9649"
      },
      {
        "astId": 9859,
        "contract": "src/Gateways/LockGateway.sol:LockGatewayV3",
        "label": "_previousGateway",
        "offset": 0,
        "slot": "107",
        "type": "t_address"
      },
      {
        "astId": 9861,
        "contract": "src/Gateways/LockGateway.sol:LockGatewayV3",
        "label": "_eventNonce",
        "offset": 0,
        "slot": "108",
        "type": "t_uint256"
      },
      {
        "astId": 9865,
        "contract": "src/Gateways/LockGateway.sol:LockGatewayV3",
        "label": "__gap",
        "offset": 0,
        "slot": "109",
        "type": "t_array(t_uint256)42_storage"
      }
    ],
    "types": {
      "t_address": {
        "encoding": "inplace",
        "label": "address",
        "numberOfBytes": "20"
      },
      "t_array(t_uint256)42_storage": {
        "base": "t_uint256",
        "encoding": "inplace",
        "label": "uint256[42]",
        "numberOfBytes": "1344"
      },
      "t_array(t_uint256)49_storage": {
        "base": "t_uint256",
        "encoding": "inplace",
        "label": "uint256[49]",
        "numberOfBytes": "1568"
      },
      "t_array(t_uint256)50_storage": {
        "base": "t_uint256",
        "encoding": "inplace",
        "label": "uint256[50]",
        "numberOfBytes": "1600"
      },
      "t_bool": {
        "encoding": "inplace",
        "label": "bool",
        "numberOfBytes": "1"
      },
      "t_bytes32": {
        "encoding": "inplace",
        "label": "bytes32",
        "numberOfBytes": "32"
      },
      "t_contract(IRenVMSignatureVerifier)9649": {
        "encoding": "inplace",
        "label": "contract IRenVMSignatureVerifier",
        "numberOfBytes": "20"
      },
      "t_mapping(t_bytes32,t_bool)": {
        "encoding": "mapping",
        "key": "t_bytes32",
        "label": "mapping(bytes32 => bool)",
        "numberOfBytes": "32",
        "value": "t_bool"
      },
      "t_string_storage": {
        "encoding": "bytes",
        "label": "string",
        "numberOfBytes": "32"
      },
      "t_uint256": {
        "encoding": "inplace",
        "label": "uint256",
        "numberOfBytes": "32"
      }
    }
  }
}