{
  "address": "0xC9C902811098dd2f828723917e81A88F45B3EAA7",
  "abi": [
    {
      "anonymous": false,
      "inputs": [
        {
          "indexed": false,
          "internalType": "string",
          "name": "_asset",
          "type": "string"
        },
        {
          "indexed": true,
          "internalType": "bytes32",
          "name": "_selectorHash",
          "type": "bytes32"
        }
      ],
      "name": "LogAssetUpdated",
      "type": "event"
    },
    {
      "anonymous": false,
      "inputs": [
        {
          "indexed": false,
          "internalType": "bytes",
          "name": "to",
          "type": "bytes"
        },
        {
          "indexed": false,
          "internalType": "uint256",
          "name": "amount",
          "type": "uint256"
        },
        {
          "indexed": true,
          "internalType": "uint256",
          "name": "burnNonce",
          "type": "uint256"
        },
        {
          "indexed": true,
          "internalType": "bytes",
          "name": "indexedTo",
          "type": "bytes"
        }
      ],
      "name": "LogBurn",
      "type": "event"
    },
    {
      "anonymous": false,
      "inputs": [
        {
          "indexed": false,
          "internalType": "string",
          "name": "recipientAddress",
          "type": "string"
        },
        {
          "indexed": false,
          "internalType": "string",
          "name": "recipientChain",
          "type": "string"
        },
        {
          "indexed": false,
          "internalType": "bytes",
          "name": "recipientPayload",
          "type": "bytes"
        },
        {
          "indexed": false,
          "internalType": "uint256",
          "name": "amount",
          "type": "uint256"
        },
        {
          "indexed": true,
          "internalType": "uint256",
          "name": "burnNonce",
          "type": "uint256"
        },
        {
          "indexed": true,
          "internalType": "string",
          "name": "recipientAddressIndexed",
          "type": "string"
        },
        {
          "indexed": true,
          "internalType": "string",
          "name": "recipientChainIndexed",
          "type": "string"
        }
      ],
      "name": "LogBurnToChain",
      "type": "event"
    },
    {
      "anonymous": false,
      "inputs": [
        {
          "indexed": false,
          "internalType": "string",
          "name": "_chain",
          "type": "string"
        },
        {
          "indexed": true,
          "internalType": "bytes32",
          "name": "_selectorHash",
          "type": "bytes32"
        }
      ],
      "name": "LogChainUpdated",
      "type": "event"
    },
    {
      "anonymous": false,
      "inputs": [
        {
          "indexed": true,
          "internalType": "address",
          "name": "to",
          "type": "address"
        },
        {
          "indexed": false,
          "internalType": "uint256",
          "name": "amount",
          "type": "uint256"
        },
        {
          "indexed": true,
          "internalType": "uint256",
          "name": "sigHash",
          "type": "uint256"
        },
        {
          "indexed": true,
          "internalType": "bytes32",
          "name": "nHash",
          "type": "bytes32"
        }
      ],
      "name": "LogMint",
      "type": "event"
    },
    {
      "anonymous": false,
      "inputs": [
        {
          "indexed": true,
          "internalType": "address",
          "name": "_newPreviousGateway",
          "type": "address"
        }
      ],
      "name": "LogPreviousGatewayUpdated",
      "type": "event"
    },
    {
      "anonymous": false,
      "inputs": [
        {
          "indexed": true,
          "internalType": "address",
          "name": "_newSignatureVerifier",
          "type": "address"
        }
      ],
      "name": "LogSignatureVerifierUpdated",
      "type": "event"
    },
    {
      "anonymous": false,
      "inputs": [
        {
          "indexed": true,
          "internalType": "address",
          "name": "_newToken",
          "type": "address"
        }
      ],
      "name": "LogTokenUpdated",
      "type": "event"
    },
    {
      "anonymous": false,
      "inputs": [
        {
          "indexed": true,
          "internalType": "address",
          "name": "previousOwner",
          "type": "address"
        },
        {
          "indexed": true,
          "internalType": "address",
          "name": "newOwner",
          "type": "address"
        }
      ],
      "name": "OwnershipTransferred",
      "type": "event"
    },
    {
      "anonymous": false,
      "inputs": [
        {
          "indexed": true,
          "internalType": "address",
          "name": "tokenAddress",
          "type": "address"
        },
        {
          "indexed": true,
          "internalType": "address",
          "name": "nextTokenOwner",
          "type": "address"
        }
      ],
      "name": "TokenOwnershipTransferred",
      "type": "event"
    },
    {
      "inputs": [],
      "name": "NAME",
      "outputs": [
        {
          "internalType": "string",
          "name": "",
          "type": "string"
        }
      ],
      "stateMutability": "view",
      "type": "function"
    },
    {
      "inputs": [
        {
          "internalType": "string",
          "name": "chain_",
          "type": "string"
        },
        {
          "internalType": "string",
          "name": "asset_",
          "type": "string"
        },
        {
          "internalType": "address",
          "name": "signatureVerifier_",
          "type": "address"
        },
        {
          "internalType": "address",
          "name": "token_",
          "type": "address"
        }
      ],
      "name": "__GatewayStateManager_init",
      "outputs": [],
      "stateMutability": "nonpayable",
      "type": "function"
    },
    {
      "inputs": [
        {
          "internalType": "string",
          "name": "chain_",
          "type": "string"
        },
        {
          "internalType": "string",
          "name": "asset_",
          "type": "string"
        },
        {
          "internalType": "address",
          "name": "signatureVerifier_",
          "type": "address"
        },
        {
          "internalType": "address",
          "name": "token_",
          "type": "address"
        },
        {
          "internalType": "address",
          "name": "contractOwner",
          "type": "address"
        }
      ],
      "name": "__MintGateway_init",
      "outputs": [],
      "stateMutability": "nonpayable",
      "type": "function"
    },
    {
      "inputs": [
        {
          "internalType": "string",
          "name": "recipientAddress",
          "type": "string"
        },
        {
          "internalType": "string",
          "name": "recipientChain",
          "type": "string"
        },
        {
          "internalType": "bytes",
          "name": "recipientPayload",
          "type": "bytes"
        },
        {
          "internalType": "uint256",
          "name": "amount",
          "type": "uint256"
        },
        {
          "internalType": "address",
          "name": "caller",
          "type": "address"
        }
      ],
      "name": "_burnFromPreviousGateway",
      "outputs": [
        {
          "internalType": "uint256",
          "name": "",
          "type": "uint256"
        }
      ],
      "stateMutability": "nonpayable",
      "type": "function"
    },
    {
      "inputs": [
        {
          "internalType": "bytes32",
          "name": "pHash",
          "type": "bytes32"
        },
        {
          "internalType": "uint256",
          "name": "amount",
          "type": "uint256"
        },
        {
          "internalType": "bytes32",
          "name": "nHash",
          "type": "bytes32"
        },
        {
          "internalType": "bytes",
          "name": "sig",
          "type": "bytes"
        },
        {
          "internalType": "address",
          "name": "caller",
          "type": "address"
        }
      ],
      "name": "_mintFromPreviousGateway",
      "outputs": [
        {
          "internalType": "uint256",
          "name": "",
          "type": "uint256"
        }
      ],
      "stateMutability": "nonpayable",
      "type": "function"
    },
    {
      "inputs": [],
      "name": "asset",
      "outputs": [
        {
          "internalType": "string",
          "name": "",
          "type": "string"
        }
      ],
      "stateMutability": "view",
      "type": "function"
    },
    {
      "inputs": [
        {
          "internalType": "bytes",
          "name": "recipient",
          "type": "bytes"
        },
        {
          "internalType": "uint256",
          "name": "amount",
          "type": "uint256"
        }
      ],
      "name": "burn",
      "outputs": [
        {
          "internalType": "uint256",
          "name": "",
          "type": "uint256"
        }
      ],
      "stateMutability": "nonpayable",
      "type": "function"
    },
    {
      "inputs": [
        {
          "internalType": "string",
          "name": "recipient",
          "type": "string"
        },
        {
          "internalType": "uint256",
          "name": "amount",
          "type": "uint256"
        }
      ],
      "name": "burn",
      "outputs": [
        {
          "internalType": "uint256",
          "name": "",
          "type": "uint256"
        }
      ],
      "stateMutability": "nonpayable",
      "type": "function"
    },
    {
      "inputs": [
        {
          "internalType": "string",
          "name": "recipientAddress",
          "type": "string"
        },
        {
          "internalType": "string",
          "name": "recipientChain",
          "type": "string"
        },
        {
          "internalType": "bytes",
          "name": "recipientPayload",
          "type": "bytes"
        },
        {
          "internalType": "uint256",
          "name": "amount",
          "type": "uint256"
        }
      ],
      "name": "burnWithPayload",
      "outputs": [
        {
          "internalType": "uint256",
          "name": "",
          "type": "uint256"
        }
      ],
      "stateMutability": "nonpayable",
      "type": "function"
    },
    {
      "inputs": [],
      "name": "chain",
      "outputs": [
        {
          "internalType": "string",
          "name": "",
          "type": "string"
        }
      ],
      "stateMutability": "view",
      "type": "function"
    },
    {
      "inputs": [],
      "name": "eventNonce",
      "outputs": [
        {
          "internalType": "uint256",
          "name": "",
          "type": "uint256"
        }
      ],
      "stateMutability": "view",
      "type": "function"
    },
    {
      "inputs": [
        {
          "internalType": "bytes32",
          "name": "pHash",
          "type": "bytes32"
        },
        {
          "internalType": "uint256",
          "name": "amount",
          "type": "uint256"
        },
        {
          "internalType": "bytes32",
          "name": "nHash",
          "type": "bytes32"
        },
        {
          "internalType": "bytes",
          "name": "sig",
          "type": "bytes"
        }
      ],
      "name": "mint",
      "outputs": [
        {
          "internalType": "uint256",
          "name": "",
          "type": "uint256"
        }
      ],
      "stateMutability": "nonpayable",
      "type": "function"
    },
    {
      "inputs": [],
      "name": "owner",
      "outputs": [
        {
          "internalType": "address",
          "name": "",
          "type": "address"
        }
      ],
      "stateMutability": "view",
      "type": "function"
    },
    {
      "inputs": [],
      "name": "previousGateway",
      "outputs": [
        {
          "internalType": "address",
          "name": "",
          "type": "address"
        }
      ],
      "stateMutability": "view",
      "type": "function"
    },
    {
      "inputs": [],
      "name": "renounceOwnership",
      "outputs": [],
      "stateMutability": "nonpayable",
      "type": "function"
    },
    {
      "inputs": [],
      "name": "selectorHash",
      "outputs": [
        {
          "internalType": "bytes32",
          "name": "",
          "type": "bytes32"
        }
      ],
      "stateMutability": "view",
      "type": "function"
    },
    {
      "inputs": [],
      "name": "signatureVerifier",
      "outputs": [
        {
          "internalType": "contract IRenVMSignatureVerifier",
          "name": "",
          "type": "address"
        }
      ],
      "stateMutability": "view",
      "type": "function"
    },
    {
      "inputs": [
        {
          "internalType": "bytes32",
          "name": "hash",
          "type": "bytes32"
        }
      ],
      "name": "status",
      "outputs": [
        {
          "internalType": "bool",
          "name": "",
          "type": "bool"
        }
      ],
      "stateMutability": "view",
      "type": "function"
    },
    {
      "inputs": [],
      "name": "token",
      "outputs": [
        {
          "internalType": "address",
          "name": "",
          "type": "address"
        }
      ],
      "stateMutability": "view",
      "type": "function"
    },
    {
      "inputs": [
        {
          "internalType": "address",
          "name": "newOwner",
          "type": "address"
        }
      ],
      "name": "transferOwnership",
      "outputs": [],
      "stateMutability": "nonpayable",
      "type": "function"
    },
    {
      "inputs": [
        {
          "internalType": "address",
          "name": "nextTokenOwner",
          "type": "address"
        }
      ],
      "name": "transferTokenOwnership",
      "outputs": [],
      "stateMutability": "nonpayable",
      "type": "function"
    },
    {
      "inputs": [
        {
          "internalType": "string",
          "name": "nextAsset",
          "type": "string"
        }
      ],
      "name": "updateAsset",
      "outputs": [],
      "stateMutability": "nonpayable",
      "type": "function"
    },
    {
      "inputs": [
        {
          "internalType": "string",
          "name": "nextChain",
          "type": "string"
        }
      ],
      "name": "updateChain",
      "outputs": [],
      "stateMutability": "nonpayable",
      "type": "function"
    },
    {
      "inputs": [
        {
          "internalType": "address",
          "name": "nextPreviousGateway",
          "type": "address"
        }
      ],
      "name": "updatePreviousGateway",
      "outputs": [],
      "stateMutability": "nonpayable",
      "type": "function"
    },
    {
      "inputs": [
        {
          "internalType": "address",
          "name": "nextSignatureVerifier",
          "type": "address"
        }
      ],
      "name": "updateSignatureVerifier",
      "outputs": [],
      "stateMutability": "nonpayable",
      "type": "function"
    },
    {
      "inputs": [
        {
          "internalType": "address",
          "name": "nextToken",
          "type": "address"
        }
      ],
      "name": "updateToken",
      "outputs": [],
      "stateMutability": "nonpayable",
      "type": "function"
    }
  ],
  "args": [],
  "solcInputHash": "28c8195c7642df595c510e6d4f107e0d",
  "bytecode": "0x608060405234801561001057600080fd5b506143f8806100206000396000f3fe608060405234801561001057600080fd5b506004361061018e5760003560e01c80637ad3def2116100de578063c54216b411610097578063f2fde38b11610071578063f2fde38b14610483578063fc0c546a1461049f578063fde919f6146104bd578063feb29c41146104db5761018e565b8063c54216b41461042b578063c763e5a114610447578063d489dc6c146104655761018e565b80637ad3def2146103575780638da5cb5b14610373578063976e7a3e14610391578063a3f4df7e146103c1578063aae8fdf0146103df578063b48272cc146103fb5761018e565b806338d52e0f1161014b5780635266ba0c116101255780635266ba0c146102e557806352ad0d5e146103015780635667981b14610331578063715018a61461034d5761018e565b806338d52e0f146102675780633f1264ef14610285578063512e2718146102b55761018e565b8063159ab14d146101935780631c3e6ee6146101c357806320506642146101e157806321e6b53d146101fd578063297629761461021957806338463cff14610237575b600080fd5b6101ad60048036038101906101a89190612be7565b6104f7565b6040516101ba9190613a60565b60405180910390f35b6101cb61055c565b6040516101d89190613a60565b60405180910390f35b6101fb60048036038101906101f69190612de3565b610566565b005b61021760048036038101906102129190612b60565b610673565b005b61022161087c565b60405161022e91906136d7565b60405180910390f35b610251600480360381019061024c9190612d36565b6108ce565b60405161025e9190613a60565b60405180910390f35b61026f61094f565b60405161027c91906137e4565b60405180910390f35b61029f600480360381019061029a9190612c6f565b6109e1565b6040516102ac9190613a60565b60405180910390f35b6102cf60048036038101906102ca919061300f565b610b31565b6040516102dc9190613a60565b60405180910390f35b6102ff60048036038101906102fa9190612b60565b610d0b565b005b61031b60048036038101906103169190612bba565b610e7e565b60405161032891906136bc565b60405180910390f35b61034b60048036038101906103469190612b60565b610f8b565b005b6103556110fe565b005b610371600480360381019061036c9190612b60565b611186565b005b61037b6112f9565b6040516103889190613678565b60405180910390f35b6103ab60048036038101906103a69190612f46565b611323565b6040516103b89190613a60565b60405180910390f35b6103c9611412565b6040516103d691906137e4565b60405180910390f35b6103f960048036038101906103f49190612d96565b61144b565b005b610415600480360381019061041091906130eb565b611604565b6040516104229190613a60565b60405180910390f35b61044560048036038101906104409190612d96565b611685565b005b61044f61183e565b60405161045c91906137e4565b60405180910390f35b61046d6118d0565b60405161047a9190613678565b60405180910390f35b61049d60048036038101906104989190612b60565b6118fa565b005b6104a76119f2565b6040516104b49190613678565b60405180910390f35b6104c5611a1c565b6040516104d291906137a5565b60405180910390f35b6104f560048036038101906104f09190612e8a565b611a46565b005b600061055186868686868080601f016020809104026020016040519081016040528093929190818152602001838380828437600081840152601f19601f8201169050808301925050505050505061054c611b88565b611b90565b905095945050505050565b6000606c54905090565b600060019054906101000a900460ff168061058c575060008054906101000a900460ff16155b6105cb576040517f08c379a00000000000000000000000000000000000000000000000000000000081526004016105c290613980565b60405180910390fd5b60008060019054906101000a900460ff16159050801561061b576001600060016101000a81548160ff02191690831515021790555060016000806101000a81548160ff0219169083151502179055505b610623611e89565b61062d878761144b565b6106378585611685565b61064083610f8b565b61064982611186565b801561066a5760008060016101000a81548160ff0219169083151502179055505b50505050505050565b61067b611b88565b73ffffffffffffffffffffffffffffffffffffffff166106996112f9565b73ffffffffffffffffffffffffffffffffffffffff16146106ef576040517f08c379a00000000000000000000000000000000000000000000000000000000081526004016106e6906139a0565b60405180910390fd5b6106f881611f72565b610737576040517f08c379a000000000000000000000000000000000000000000000000000000000815260040161072e90613860565b60405180910390fd5b600073ffffffffffffffffffffffffffffffffffffffff168173ffffffffffffffffffffffffffffffffffffffff1614156107a7576040517f08c379a000000000000000000000000000000000000000000000000000000000815260040161079e90613920565b60405180910390fd5b60006107b16119f2565b90508073ffffffffffffffffffffffffffffffffffffffff1663f2fde38b836040518263ffffffff1660e01b81526004016107ec9190613678565b600060405180830381600087803b15801561080657600080fd5b505af115801561081a573d6000803e3d6000fd5b505050508173ffffffffffffffffffffffffffffffffffffffff168173ffffffffffffffffffffffffffffffffffffffff167f0670e929e0da48f4446360abae5c94415b26a39a98993d2a69f1864d5130186c60405160405180910390a35050565b60008060001b60675414156108c6576040517f08c379a00000000000000000000000000000000000000000000000000000000081526004016108bd906139c0565b60405180910390fd5b606754905090565b600061094684848080601f016020809104026020016040519081016040528093929190818152602001838380828437600081840152601f19601f82011690508083019250505050505050604051806020016040528060008152506040518060200160405280600081525085610941611b88565b611f85565b90509392505050565b60606066805461095e90613cfe565b80601f016020809104026020016040519081016040528092919081815260200182805461098a90613cfe565b80156109d75780601f106109ac576101008083540402835291602001916109d7565b820191906000526020600020905b8154815290600101906020018083116109ba57829003601f168201915b5050505050905090565b6000806109ec6118d0565b9050600073ffffffffffffffffffffffffffffffffffffffff168173ffffffffffffffffffffffffffffffffffffffff161415610a5e576040517f08c379a0000000000000000000000000000000000000000000000000000000008152600401610a55906138e0565b60405180910390fd5b8073ffffffffffffffffffffffffffffffffffffffff16610a7d611b88565b73ffffffffffffffffffffffffffffffffffffffff1614610ad3576040517f08c379a0000000000000000000000000000000000000000000000000000000008152600401610aca906139e0565b60405180910390fd5b610b2488888888888080601f016020809104026020016040519081016040528093929190818152602001838380828437600081840152601f19601f8201169050808301925050505050505087611b90565b9150509695505050505050565b600080610b3c6118d0565b9050600073ffffffffffffffffffffffffffffffffffffffff168173ffffffffffffffffffffffffffffffffffffffff161415610bae576040517f08c379a0000000000000000000000000000000000000000000000000000000008152600401610ba5906138e0565b60405180910390fd5b8073ffffffffffffffffffffffffffffffffffffffff16610bcd611b88565b73ffffffffffffffffffffffffffffffffffffffff1614610c23576040517f08c379a0000000000000000000000000000000000000000000000000000000008152600401610c1a906139e0565b60405180910390fd5b610cfc8a8a8080601f016020809104026020016040519081016040528093929190818152602001838380828437600081840152601f19601f8201169050808301925050505050505089898080601f016020809104026020016040519081016040528093929190818152602001838380828437600081840152601f19601f8201169050808301925050505050505088888080601f016020809104026020016040519081016040528093929190818152602001838380828437600081840152601f19601f820116905080830192505050505050508787611f85565b91505098975050505050505050565b610d13611b88565b73ffffffffffffffffffffffffffffffffffffffff16610d316112f9565b73ffffffffffffffffffffffffffffffffffffffff1614610d87576040517f08c379a0000000000000000000000000000000000000000000000000000000008152600401610d7e906139a0565b60405180910390fd5b600073ffffffffffffffffffffffffffffffffffffffff168173ffffffffffffffffffffffffffffffffffffffff161415610df7576040517f08c379a0000000000000000000000000000000000000000000000000000000008152600401610dee90613960565b60405180910390fd5b80606b60006101000a81548173ffffffffffffffffffffffffffffffffffffffff021916908373ffffffffffffffffffffffffffffffffffffffff1602179055508073ffffffffffffffffffffffffffffffffffffffff167f092a7f3d3a91b47e57583d808f4454c082a9c49b2582f836f5a301e982a2d04d60405160405180910390a250565b60006068600083815260200190815260200160002060009054906101000a900460ff1615610eaf5760019050610f86565b6000610eb96118d0565b9050600073ffffffffffffffffffffffffffffffffffffffff168173ffffffffffffffffffffffffffffffffffffffff1614610f80578073ffffffffffffffffffffffffffffffffffffffff166352ad0d5e846040518263ffffffff1660e01b8152600401610f2891906136d7565b60206040518083038186803b158015610f4057600080fd5b505afa158015610f54573d6000803e3d6000fd5b505050506040513d601f19601f82011682018060405250810190610f789190612b8d565b915050610f86565b60009150505b919050565b610f93611b88565b73ffffffffffffffffffffffffffffffffffffffff16610fb16112f9565b73ffffffffffffffffffffffffffffffffffffffff1614611007576040517f08c379a0000000000000000000000000000000000000000000000000000000008152600401610ffe906139a0565b60405180910390fd5b600073ffffffffffffffffffffffffffffffffffffffff168173ffffffffffffffffffffffffffffffffffffffff161415611077576040517f08c379a000000000000000000000000000000000000000000000000000000000815260040161106e90613a40565b60405180910390fd5b80606a60006101000a81548173ffffffffffffffffffffffffffffffffffffffff021916908373ffffffffffffffffffffffffffffffffffffffff1602179055508073ffffffffffffffffffffffffffffffffffffffff167fb57359628f7b44e9842ff204fb5700f84d8c4f9c3fc9dae13e7a1aab8ed164f760405160405180910390a250565b611106611b88565b73ffffffffffffffffffffffffffffffffffffffff166111246112f9565b73ffffffffffffffffffffffffffffffffffffffff161461117a576040517f08c379a0000000000000000000000000000000000000000000000000000000008152600401611171906139a0565b60405180910390fd5b6111846000612149565b565b61118e611b88565b73ffffffffffffffffffffffffffffffffffffffff166111ac6112f9565b73ffffffffffffffffffffffffffffffffffffffff1614611202576040517f08c379a00000000000000000000000000000000000000000000000000000000081526004016111f9906139a0565b60405180910390fd5b600073ffffffffffffffffffffffffffffffffffffffff168173ffffffffffffffffffffffffffffffffffffffff161415611272576040517f08c379a000000000000000000000000000000000000000000000000000000000815260040161126990613940565b60405180910390fd5b80606960006101000a81548173ffffffffffffffffffffffffffffffffffffffff021916908373ffffffffffffffffffffffffffffffffffffffff1602179055508073ffffffffffffffffffffffffffffffffffffffff167f02dec22a3d1e8f9cdc0c7cd17ecee187f635788c40755be0a72dcd86a05e564d60405160405180910390a250565b6000603360009054906101000a900473ffffffffffffffffffffffffffffffffffffffff16905090565b600061140588888080601f016020809104026020016040519081016040528093929190818152602001838380828437600081840152601f19601f8201169050808301925050505050505087878080601f016020809104026020016040519081016040528093929190818152602001838380828437600081840152601f19601f8201169050808301925050505050505086868080601f016020809104026020016040519081016040528093929190818152602001838380828437600081840152601f19601f8201169050808301925050505050505085611400611b88565b611f85565b9050979650505050505050565b6040518060400160405280600b81526020017f4d696e744761746577617900000000000000000000000000000000000000000081525081565b611453611b88565b73ffffffffffffffffffffffffffffffffffffffff166114716112f9565b73ffffffffffffffffffffffffffffffffffffffff16146114c7576040517f08c379a00000000000000000000000000000000000000000000000000000000081526004016114be906139a0565b60405180910390fd5b61151482828080601f016020809104026020016040519081016040528093929190818152602001838380828437600081840152601f19601f8201169050808301925050505050505061220f565b611553576040517f08c379a000000000000000000000000000000000000000000000000000000000815260040161154a90613a00565b60405180910390fd5b8181606591906115649291906129a8565b5060006115bc61157261094f565b84848080601f016020809104026020016040519081016040528093929190818152602001838380828437600081840152601f19601f82011690508083019250505050505050612232565b905080606781905550807f4dc1740772ca26480ca22d412de18818650c980e3aef84a3ca49cbe4fa4ed88084846040516115f79291906137c0565b60405180910390a2505050565b600061167c84848080601f016020809104026020016040519081016040528093929190818152602001838380828437600081840152601f19601f82011690508083019250505050505050604051806020016040528060008152506040518060200160405280600081525085611677611b88565b611f85565b90509392505050565b61168d611b88565b73ffffffffffffffffffffffffffffffffffffffff166116ab6112f9565b73ffffffffffffffffffffffffffffffffffffffff1614611701576040517f08c379a00000000000000000000000000000000000000000000000000000000081526004016116f8906139a0565b60405180910390fd5b61174e82828080601f016020809104026020016040519081016040528093929190818152602001838380828437600081840152601f19601f8201169050808301925050505050505061220f565b61178d576040517f08c379a000000000000000000000000000000000000000000000000000000000815260040161178490613900565b60405180910390fd5b81816066919061179e9291906129a8565b5060006117f683838080601f016020809104026020016040519081016040528093929190818152602001838380828437600081840152601f19601f820116905080830192505050505050506117f161183e565b612232565b905080606781905550807f2e7c1f9bcc3b09d8e05594ab5d17b6c9b15b24cd506c5212f051f22990d0813184846040516118319291906137c0565b60405180910390a2505050565b60606065805461184d90613cfe565b80601f016020809104026020016040519081016040528092919081815260200182805461187990613cfe565b80156118c65780601f1061189b576101008083540402835291602001916118c6565b820191906000526020600020905b8154815290600101906020018083116118a957829003601f168201915b5050505050905090565b6000606b60009054906101000a900473ffffffffffffffffffffffffffffffffffffffff16905090565b611902611b88565b73ffffffffffffffffffffffffffffffffffffffff166119206112f9565b73ffffffffffffffffffffffffffffffffffffffff1614611976576040517f08c379a000000000000000000000000000000000000000000000000000000000815260040161196d906139a0565b60405180910390fd5b600073ffffffffffffffffffffffffffffffffffffffff168173ffffffffffffffffffffffffffffffffffffffff1614156119e6576040517f08c379a00000000000000000000000000000000000000000000000000000000081526004016119dd906138c0565b60405180910390fd5b6119ef81612149565b50565b6000606960009054906101000a900473ffffffffffffffffffffffffffffffffffffffff16905090565b6000606a60009054906101000a900473ffffffffffffffffffffffffffffffffffffffff16905090565b600060019054906101000a900460ff1680611a6c575060008054906101000a900460ff16155b611aab576040517f08c379a0000000000000000000000000000000000000000000000000000000008152600401611aa290613980565b60405180910390fd5b60008060019054906101000a900460ff161590508015611afb576001600060016101000a81548160ff02191690831515021790555060016000806101000a81548160ff0219169083151502179055505b611b03612265565b611b0b611e89565b611b19888888888888610566565b8173ffffffffffffffffffffffffffffffffffffffff16611b386112f9565b73ffffffffffffffffffffffffffffffffffffffff1614611b5d57611b5c826118fa565b5b8015611b7e5760008060016101000a81548160ff0219169083151502179055505b5050505050505050565b600033905090565b600080611ba78787611ba061087c565b8689612346565b9050611bb281610e7e565b15611bf2576040517f08c379a0000000000000000000000000000000000000000000000000000000008152600401611be990613a20565b60405180910390fd5b631626ba7e60e01b7bffffffffffffffffffffffffffffffffffffffffffffffffffffffff1916611c21611a1c565b73ffffffffffffffffffffffffffffffffffffffff16631626ba7e83876040518363ffffffff1660e01b8152600401611c5b9291906136f2565b60206040518083038186803b158015611c7357600080fd5b505afa158015611c87573d6000803e3d6000fd5b505050506040513d601f19601f82011682018060405250810190611cab9190612d09565b7bffffffffffffffffffffffffffffffffffffffffffffffffffffffff191614611d8957611cdd8760001c6020612382565b611ce6876125be565b611cfb611cf161087c565b60001c6020612382565b611d1c8673ffffffffffffffffffffffffffffffffffffffff166014612382565b611d2a8960001c6020612382565b604051602001611d3e9594939291906135f6565b6040516020818303038152906040526040517f08c379a0000000000000000000000000000000000000000000000000000000008152600401611d8091906137e4565b60405180910390fd5b60016068600083815260200190815260200160002060006101000a81548160ff021916908315150217905550611dbd6119f2565b73ffffffffffffffffffffffffffffffffffffffff166340c10f1984886040518363ffffffff1660e01b8152600401611df7929190613693565b600060405180830381600087803b158015611e1157600080fd5b505af1158015611e25573d6000803e3d6000fd5b50505050848160001c8473ffffffffffffffffffffffffffffffffffffffff167fa58ba939eb08dab7eaf8ad09c16e7405ee88e5153e15da62d5481296a9f727fa89604051611e749190613a60565b60405180910390a48591505095945050505050565b600060019054906101000a900460ff1680611eaf575060008054906101000a900460ff16155b611eee576040517f08c379a0000000000000000000000000000000000000000000000000000000008152600401611ee590613980565b60405180910390fd5b60008060019054906101000a900460ff161590508015611f3e576001600060016101000a81548160ff02191690831515021790555060016000806101000a81548160ff0219169083151502179055505b611f4661271f565b611f4e6127f8565b8015611f6f5760008060016101000a81548160ff0219169083151502179055505b50565b600080823b905060008111915050919050565b6000611f90866128e1565b611fcf576040517f08c379a0000000000000000000000000000000000000000000000000000000008152600401611fc690613880565b60405180910390fd5b611fd76119f2565b73ffffffffffffffffffffffffffffffffffffffff16639dc29fac83856040518363ffffffff1660e01b8152600401612011929190613693565b600060405180830381600087803b15801561202b57600080fd5b505af115801561203f573d6000803e3d6000fd5b50505050600061204d61055c565b9050612058866128e1565b80612064575060008551115b156120d8578560405161207791906135b0565b60405180910390208760405161208d91906135b0565b6040518091039020827ff1e98bc6e5ee93b47362bddb133886a2b471c968633a462b824f57cdb4b36c528a8a8a8a6040516120cb9493929190613806565b60405180910390a4612129565b866040516120e69190613599565b6040518091039020817f1619fc95050ffb8c94c9077c82b3e1ebbf8d571b6234241c55ba0aaf40da019e8987604051612120929190613775565b60405180910390a35b6001816121369190613ac9565b606c819055508391505095945050505050565b6000603360009054906101000a900473ffffffffffffffffffffffffffffffffffffffff16905081603360006101000a81548173ffffffffffffffffffffffffffffffffffffffff021916908373ffffffffffffffffffffffffffffffffffffffff1602179055508173ffffffffffffffffffffffffffffffffffffffff168173ffffffffffffffffffffffffffffffffffffffff167f8be0079c531659141344cd1fd0a4f28419497f9722a3daafe3b4186f6b6457e060405160405180910390a35050565b600061221a826128e1565b801561222b575061222a826128ee565b5b9050919050565b600082826040516020016122479291906135c7565b60405160208183030381529060405280519060200120905092915050565b600060019054906101000a900460ff168061228b575060008054906101000a900460ff16155b6122ca576040517f08c379a00000000000000000000000000000000000000000000000000000000081526004016122c190613980565b60405180910390fd5b60008060019054906101000a900460ff16159050801561231a576001600060016101000a81548160ff02191690831515021790555060016000806101000a81548160ff0219169083151502179055505b61232261271f565b80156123435760008060016101000a81548160ff0219169083151502179055505b50565b60008585858585604051602001612361959493929190613722565b60405160208183030381529060405280519060200120905095945050505050565b6060600060028360026123959190613b50565b61239f9190613ac9565b67ffffffffffffffff8111156123b8576123b7613e66565b5b6040519080825280601f01601f1916602001820160405280156123ea5781602001600182028036833780820191505090505b5090507f30000000000000000000000000000000000000000000000000000000000000008160008151811061242257612421613e37565b5b60200101907effffffffffffffffffffffffffffffffffffffffffffffffffffffffffffff1916908160001a9053507f78000000000000000000000000000000000000000000000000000000000000008160018151811061248657612485613e37565b5b60200101907effffffffffffffffffffffffffffffffffffffffffffffffffffffffffffff1916908160001a905350600060018460026124c69190613b50565b6124d09190613ac9565b90505b6001811115612570577f3031323334353637383961626364656600000000000000000000000000000000600f86166010811061251257612511613e37565b5b1a60f81b82828151811061252957612528613e37565b5b60200101907effffffffffffffffffffffffffffffffffffffffffffffffffffffffffffff1916908160001a905350600485901c94508061256990613cd4565b90506124d3565b50600084146125b4576040517f08c379a00000000000000000000000000000000000000000000000000000000081526004016125ab906138a0565b60405180910390fd5b8091505092915050565b60606000821415612606576040518060400160405280600181526020017f3000000000000000000000000000000000000000000000000000000000000000815250905061271a565b600082905060005b6000821461263857808061262190613d30565b915050600a826126319190613b1f565b915061260e565b60008167ffffffffffffffff81111561265457612653613e66565b5b6040519080825280601f01601f1916602001820160405280156126865781602001600182028036833780820191505090505b5090505b600085146127135760018261269f9190613baa565b9150600a856126ae9190613d79565b60306126ba9190613ac9565b60f81b8183815181106126d0576126cf613e37565b5b60200101907effffffffffffffffffffffffffffffffffffffffffffffffffffffffffffff1916908160001a905350600a8561270c9190613b1f565b945061268a565b8093505050505b919050565b600060019054906101000a900460ff1680612745575060008054906101000a900460ff16155b612784576040517f08c379a000000000000000000000000000000000000000000000000000000000815260040161277b90613980565b60405180910390fd5b60008060019054906101000a900460ff1615905080156127d4576001600060016101000a81548160ff02191690831515021790555060016000806101000a81548160ff0219169083151502179055505b80156127f55760008060016101000a81548160ff0219169083151502179055505b50565b600060019054906101000a900460ff168061281e575060008054906101000a900460ff16155b61285d576040517f08c379a000000000000000000000000000000000000000000000000000000000815260040161285490613980565b60405180910390fd5b60008060019054906101000a900460ff1615905080156128ad576001600060016101000a81548160ff02191690831515021790555060016000806101000a81548160ff0219169083151502179055505b6128bd6128b8611b88565b612149565b80156128de5760008060016101000a81548160ff0219169083151502179055505b50565b6000808251119050919050565b600080600090505b825181101561299d57600083828151811061291457612913613e37565b5b602001015160f81c60f81b60f81c905060418160ff161015801561293c5750605a8160ff1611155b8061295b575060618160ff161015801561295a5750607a8160ff1611155b5b8061297a575060308160ff1610158015612979575060398160ff1611155b5b612989576000925050506129a3565b50808061299590613d30565b9150506128f6565b50600190505b919050565b8280546129b490613cfe565b90600052602060002090601f0160209004810192826129d65760008555612a1d565b82601f106129ef57803560ff1916838001178555612a1d565b82800160010185558215612a1d579182015b82811115612a1c578235825591602001919060010190612a01565b5b509050612a2a9190612a2e565b5090565b5b80821115612a47576000816000905550600101612a2f565b5090565b600081359050612a5a8161434f565b92915050565b600081519050612a6f81614366565b92915050565b600081359050612a848161437d565b92915050565b600081519050612a9981614394565b92915050565b60008083601f840112612ab557612ab4613e9a565b5b8235905067ffffffffffffffff811115612ad257612ad1613e95565b5b602083019150836001820283011115612aee57612aed613e9f565b5b9250929050565b60008083601f840112612b0b57612b0a613e9a565b5b8235905067ffffffffffffffff811115612b2857612b27613e95565b5b602083019150836001820283011115612b4457612b43613e9f565b5b9250929050565b600081359050612b5a816143ab565b92915050565b600060208284031215612b7657612b75613ea9565b5b6000612b8484828501612a4b565b91505092915050565b600060208284031215612ba357612ba2613ea9565b5b6000612bb184828501612a60565b91505092915050565b600060208284031215612bd057612bcf613ea9565b5b6000612bde84828501612a75565b91505092915050565b600080600080600060808688031215612c0357612c02613ea9565b5b6000612c1188828901612a75565b9550506020612c2288828901612b4b565b9450506040612c3388828901612a75565b935050606086013567ffffffffffffffff811115612c5457612c53613ea4565b5b612c6088828901612a9f565b92509250509295509295909350565b60008060008060008060a08789031215612c8c57612c8b613ea9565b5b6000612c9a89828a01612a75565b9650506020612cab89828a01612b4b565b9550506040612cbc89828a01612a75565b945050606087013567ffffffffffffffff811115612cdd57612cdc613ea4565b5b612ce989828a01612a9f565b93509350506080612cfc89828a01612a4b565b9150509295509295509295565b600060208284031215612d1f57612d1e613ea9565b5b6000612d2d84828501612a8a565b91505092915050565b600080600060408486031215612d4f57612d4e613ea9565b5b600084013567ffffffffffffffff811115612d6d57612d6c613ea4565b5b612d7986828701612a9f565b93509350506020612d8c86828701612b4b565b9150509250925092565b60008060208385031215612dad57612dac613ea9565b5b600083013567ffffffffffffffff811115612dcb57612dca613ea4565b5b612dd785828601612af5565b92509250509250929050565b60008060008060008060808789031215612e0057612dff613ea9565b5b600087013567ffffffffffffffff811115612e1e57612e1d613ea4565b5b612e2a89828a01612af5565b9650965050602087013567ffffffffffffffff811115612e4d57612e4c613ea4565b5b612e5989828a01612af5565b94509450506040612e6c89828a01612a4b565b9250506060612e7d89828a01612a4b565b9150509295509295509295565b600080600080600080600060a0888a031215612ea957612ea8613ea9565b5b600088013567ffffffffffffffff811115612ec757612ec6613ea4565b5b612ed38a828b01612af5565b9750975050602088013567ffffffffffffffff811115612ef657612ef5613ea4565b5b612f028a828b01612af5565b95509550506040612f158a828b01612a4b565b9350506060612f268a828b01612a4b565b9250506080612f378a828b01612a4b565b91505092959891949750929550565b60008060008060008060006080888a031215612f6557612f64613ea9565b5b600088013567ffffffffffffffff811115612f8357612f82613ea4565b5b612f8f8a828b01612af5565b9750975050602088013567ffffffffffffffff811115612fb257612fb1613ea4565b5b612fbe8a828b01612af5565b9550955050604088013567ffffffffffffffff811115612fe157612fe0613ea4565b5b612fed8a828b01612a9f565b935093505060606130008a828b01612b4b565b91505092959891949750929550565b60008060008060008060008060a0898b03121561302f5761302e613ea9565b5b600089013567ffffffffffffffff81111561304d5761304c613ea4565b5b6130598b828c01612af5565b9850985050602089013567ffffffffffffffff81111561307c5761307b613ea4565b5b6130888b828c01612af5565b9650965050604089013567ffffffffffffffff8111156130ab576130aa613ea4565b5b6130b78b828c01612a9f565b945094505060606130ca8b828c01612b4b565b92505060806130db8b828c01612a4b565b9150509295985092959890939650565b60008060006040848603121561310457613103613ea9565b5b600084013567ffffffffffffffff81111561312257613121613ea4565b5b61312e86828701612af5565b9350935050602061314186828701612b4b565b9150509250925092565b61315481613bde565b82525050565b61316381613bf0565b82525050565b61317281613bfc565b82525050565b600061318382613a7b565b61318d8185613a91565b935061319d818560208601613ca1565b6131a681613eae565b840191505092915050565b60006131bc82613a7b565b6131c68185613aa2565b93506131d6818560208601613ca1565b80840191505092915050565b6131eb81613c5c565b82525050565b60006131fd8385613aad565b935061320a838584613c92565b61321383613eae565b840190509392505050565b600061322982613a86565b6132338185613aad565b9350613243818560208601613ca1565b61324c81613eae565b840191505092915050565b600061326282613a86565b61326c8185613abe565b935061327c818560208601613ca1565b80840191505092915050565b6000613295603083613aad565b91506132a082613ebf565b604082019050919050565b60006132b8602083613aad565b91506132c382613f0e565b602082019050919050565b60006132db602083613aad565b91506132e682613f37565b602082019050919050565b60006132fe602683613aad565b915061330982613f60565b604082019050919050565b6000613321601c83613aad565b915061332c82613faf565b602082019050919050565b6000613344600e83613abe565b915061334f82613fd8565b600e82019050919050565b6000613367601683613aad565b915061337282614001565b602082019050919050565b600061338a602583613aad565b91506133958261402a565b604082019050919050565b60006133ad602783613abe565b91506133b882614079565b602782019050919050565b60006133d0600a83613abe565b91506133db826140c8565b600a82019050919050565b60006133f3601683613aad565b91506133fe826140f1565b602082019050919050565b6000613416601883613aad565b91506134218261411a565b602082019050919050565b6000613439602e83613aad565b915061344482614143565b604082019050919050565b600061345c600983613abe565b915061346782614192565b600982019050919050565b600061347f602083613aad565b915061348a826141bb565b602082019050919050565b60006134a2601883613aad565b91506134ad826141e4565b602082019050919050565b60006134c5601783613aad565b91506134d08261420d565b602082019050919050565b60006134e8601683613aad565b91506134f382614236565b602082019050919050565b600061350b602483613aad565b91506135168261425f565b604082019050919050565b600061352e600383613abe565b9150613539826142ae565b600382019050919050565b6000613551600783613abe565b915061355c826142d7565b600782019050919050565b6000613574602383613aad565b915061357f82614300565b604082019050919050565b61359381613c52565b82525050565b60006135a582846131b1565b915081905092915050565b60006135bc8284613257565b915081905092915050565b60006135d38285613257565b91506135de82613521565b91506135ea8284613257565b91508190509392505050565b6000613601826133a0565b915061360d8288613257565b9150613618826133c3565b91506136248287613257565b915061362f82613544565b915061363b8286613257565b915061364682613337565b91506136528285613257565b915061365d8261344f565b91506136698284613257565b91508190509695505050505050565b600060208201905061368d600083018461314b565b92915050565b60006040820190506136a8600083018561314b565b6136b5602083018461358a565b9392505050565b60006020820190506136d1600083018461315a565b92915050565b60006020820190506136ec6000830184613169565b92915050565b60006040820190506137076000830185613169565b81810360208301526137198184613178565b90509392505050565b600060a0820190506137376000830188613169565b613744602083018761358a565b6137516040830186613169565b61375e606083018561314b565b61376b6080830184613169565b9695505050505050565b6000604082019050818103600083015261378f8185613178565b905061379e602083018461358a565b9392505050565b60006020820190506137ba60008301846131e2565b92915050565b600060208201905081810360008301526137db8184866131f1565b90509392505050565b600060208201905081810360008301526137fe818461321e565b905092915050565b60006080820190508181036000830152613820818761321e565b90508181036020830152613834818661321e565b905081810360408301526138488185613178565b9050613857606083018461358a565b95945050505050565b6000602082019050818103600083015261387981613288565b9050919050565b60006020820190508181036000830152613899816132ab565b9050919050565b600060208201905081810360008301526138b9816132ce565b9050919050565b600060208201905081810360008301526138d9816132f1565b9050919050565b600060208201905081810360008301526138f981613314565b9050919050565b600060208201905081810360008301526139198161335a565b9050919050565b600060208201905081810360008301526139398161337d565b9050919050565b60006020820190508181036000830152613959816133e6565b9050919050565b6000602082019050818103600083015261397981613409565b9050919050565b600060208201905081810360008301526139998161342c565b9050919050565b600060208201905081810360008301526139b981613472565b9050919050565b600060208201905081810360008301526139d981613495565b9050919050565b600060208201905081810360008301526139f9816134b8565b9050919050565b60006020820190508181036000830152613a19816134db565b9050919050565b60006020820190508181036000830152613a39816134fe565b9050919050565b60006020820190508181036000830152613a5981613567565b9050919050565b6000602082019050613a75600083018461358a565b92915050565b600081519050919050565b600081519050919050565b600082825260208201905092915050565b600081905092915050565b600082825260208201905092915050565b600081905092915050565b6000613ad482613c52565b9150613adf83613c52565b9250827fffffffffffffffffffffffffffffffffffffffffffffffffffffffffffffffff03821115613b1457613b13613daa565b5b828201905092915050565b6000613b2a82613c52565b9150613b3583613c52565b925082613b4557613b44613dd9565b5b828204905092915050565b6000613b5b82613c52565b9150613b6683613c52565b9250817fffffffffffffffffffffffffffffffffffffffffffffffffffffffffffffffff0483118215151615613b9f57613b9e613daa565b5b828202905092915050565b6000613bb582613c52565b9150613bc083613c52565b925082821015613bd357613bd2613daa565b5b828203905092915050565b6000613be982613c32565b9050919050565b60008115159050919050565b6000819050919050565b60007fffffffff0000000000000000000000000000000000000000000000000000000082169050919050565b600073ffffffffffffffffffffffffffffffffffffffff82169050919050565b6000819050919050565b6000613c6782613c6e565b9050919050565b6000613c7982613c80565b9050919050565b6000613c8b82613c32565b9050919050565b82818337600083830152505050565b60005b83811015613cbf578082015181840152602081019050613ca4565b83811115613cce576000848401525b50505050565b6000613cdf82613c52565b91506000821415613cf357613cf2613daa565b5b600182039050919050565b60006002820490506001821680613d1657607f821691505b60208210811415613d2a57613d29613e08565b5b50919050565b6000613d3b82613c52565b91507fffffffffffffffffffffffffffffffffffffffffffffffffffffffffffffffff821415613d6e57613d6d613daa565b5b600182019050919050565b6000613d8482613c52565b9150613d8f83613c52565b925082613d9f57613d9e613dd9565b5b828206905092915050565b7f4e487b7100000000000000000000000000000000000000000000000000000000600052601160045260246000fd5b7f4e487b7100000000000000000000000000000000000000000000000000000000600052601260045260246000fd5b7f4e487b7100000000000000000000000000000000000000000000000000000000600052602260045260246000fd5b7f4e487b7100000000000000000000000000000000000000000000000000000000600052603260045260246000fd5b7f4e487b7100000000000000000000000000000000000000000000000000000000600052604160045260246000fd5b600080fd5b600080fd5b600080fd5b600080fd5b600080fd5b6000601f19601f8301169050919050565b7f4d696e74476174657761793a206e65787420746f6b656e206f776e6572206d7560008201527f7374206265206120636f6e747261637400000000000000000000000000000000602082015250565b7f4d696e74476174657761793a20746f206164647265737320697320656d707479600082015250565b7f537472696e67733a20686578206c656e67746820696e73756666696369656e74600082015250565b7f4f776e61626c653a206e6577206f776e657220697320746865207a65726f206160008201527f6464726573730000000000000000000000000000000000000000000000000000602082015250565b7f476174657761793a206e6f2070726576696f7573206761746577617900000000600082015250565b7f2c206d73672e73656e6465723a20000000000000000000000000000000000000600082015250565b7f476174657761793a20696e76616c696420617373657400000000000000000000600082015250565b7f4d696e74476174657761793a20696e76616c6964206e65787420746f6b656e2060008201527f6f776e6572000000000000000000000000000000000000000000000000000000602082015250565b7f4d696e74476174657761793a20696e76616c6964207369676e61747572652e2060008201527f70686173683a2000000000000000000000000000000000000000000000000000602082015250565b7f2c20616d6f756e743a2000000000000000000000000000000000000000000000600082015250565b7f476174657761793a20696e76616c696420746f6b656e00000000000000000000600082015250565b7f476174657761793a20696e76616c696420616464726573730000000000000000600082015250565b7f496e697469616c697a61626c653a20636f6e747261637420697320616c72656160008201527f647920696e697469616c697a6564000000000000000000000000000000000000602082015250565b7f2c206e686173683a200000000000000000000000000000000000000000000000600082015250565b7f4f776e61626c653a2063616c6c6572206973206e6f7420746865206f776e6572600082015250565b7f476174657761793a206e6f7420696e697469616c697a65640000000000000000600082015250565b7f476174657761793a206e6f7420617574686f72697a6564000000000000000000600082015250565b7f476174657761793a20696e76616c696420636861696e00000000000000000000600082015250565b7f4d696e74476174657761793a207369676e617475726520616c7265616479207360008201527f70656e7400000000000000000000000000000000000000000000000000000000602082015250565b7f2f746f0000000000000000000000000000000000000000000000000000000000600082015250565b7f2c20736861736800000000000000000000000000000000000000000000000000600082015250565b7f476174657761793a20696e76616c6964207369676e617475726520766572696660008201527f6965720000000000000000000000000000000000000000000000000000000000602082015250565b61435881613bde565b811461436357600080fd5b50565b61436f81613bf0565b811461437a57600080fd5b50565b61438681613bfc565b811461439157600080fd5b50565b61439d81613c06565b81146143a857600080fd5b50565b6143b481613c52565b81146143bf57600080fd5b5056fea2646970667358221220402a66137b45ba520b0b334ee5b947ae58cb39c5aa71a8d4728bcf05a3a056c464736f6c63430008070033",
  "devdoc": {
    "kind": "dev",
    "methods": {
      "burnWithPayload(string,string,bytes,uint256)": {
        "params": {
          "amount": "The amount of the token being locked, in the asset's        smallest unit. (e.g. satoshis for BTC)",
          "recipientAddress": "The address to which the locked assets will be        minted to. The address should be a plain-text address, without        decoding to bytes first.",
          "recipientChain": "The target chain to which the assets are being        moved to.",
          "recipientPayload": "An optional payload to be passed to the        recipient chain along with the address."
        }
      },
      "mint(bytes32,uint256,bytes32,bytes)": {
        "params": {
          "amount": "The amount of the token being minted, in its smallest        value. (e.g. satoshis for BTC).",
          "nHash": "(nonce hash) The hash of the nonce, amount and pHash.",
          "pHash": "(payload hash) The hash of the payload associated with the        mint.",
          "sig": "The signature of the hash of the following values:        (pHash, amount, recipient, nHash), signed by the mintAuthority."
        }
      },
      "owner()": {
        "details": "Returns the address of the current owner."
      },
      "renounceOwnership()": {
        "details": "Leaves the contract without owner. It will not be possible to call `onlyOwner` functions anymore. Can only be called by the current owner. NOTE: Renouncing ownership will leave the contract without an owner, thereby removing any functionality that is only available to the owner."
      },
      "transferOwnership(address)": {
        "details": "Transfers ownership of the contract to a new account (`newOwner`). Can only be called by the current owner."
      },
      "updateAsset(string)": {
        "params": {
          "nextAsset": "The new asset."
        }
      },
      "updateChain(string)": {
        "params": {
          "nextChain": "The new chain."
        }
      },
      "updatePreviousGateway(address)": {
        "params": {
          "nextPreviousGateway": "The new gateway contract's address."
        }
      },
      "updateSignatureVerifier(address)": {
        "params": {
          "nextSignatureVerifier": "The new verifier contract address."
        }
      },
      "updateToken(address)": {
        "params": {
          "nextToken": "The new ERC20 token contract's address."
        }
      }
    },
    "version": 1
  },
  "userdoc": {
    "kind": "user",
    "methods": {
      "burn(bytes,uint256)": {
        "notice": "Same as `burn` with the recipient parameter being `bytes` instead of a `string`. For backwards compatibility with the MintGatewayV2."
      },
      "burn(string,uint256)": {
        "notice": "burn is a convenience function that is equivalent to calling         `burnWithPayload` with an empty payload and chain, releasing         the asset to the native chain."
      },
      "burnWithPayload(string,string,bytes,uint256)": {
        "notice": "burnWithPayload allows minted assets to be released to their         native chain, or to another chain as specified by the chain and         payload parameters.         WARNING: Burning with invalid parameters can cause the funds to         become unrecoverable."
      },
      "mint(bytes32,uint256,bytes32,bytes)": {
        "notice": "mint verifies a mint approval signature from RenVM and creates         tokens after taking a fee for the `_feeRecipient`."
      },
      "transferTokenOwnership(address)": {
        "notice": "Allow the owner to update the owner of the RenERC20 token."
      },
      "updateAsset(string)": {
        "notice": "Allow the owner to update the asset."
      },
      "updateChain(string)": {
        "notice": "Allow the owner to update the chain."
      },
      "updatePreviousGateway(address)": {
        "notice": "Allow the owner to update the previous gateway used for backwards compatibility."
      },
      "updateSignatureVerifier(address)": {
        "notice": "Allow the owner to update the signature verifier contract."
      },
      "updateToken(address)": {
        "notice": "Allow the owner to update the ERC20 token contract."
      }
    },
    "notice": "MintGateway handles verifying mint and burn requests. A mintAuthority approves new assets to be minted by providing a digital signature. An owner of an asset can request for it to be burnt.",
    "version": 1
  },
  "storageLayout": {
    "storage": [
      {
        "astId": 773,
        "contract": "src/Gateways/MintGateway.sol:MintGatewayV3",
        "label": "_initialized",
        "offset": 0,
        "slot": "0",
        "type": "t_bool"
      },
      {
        "astId": 776,
        "contract": "src/Gateways/MintGateway.sol:MintGatewayV3",
        "label": "_initializing",
        "offset": 1,
        "slot": "0",
        "type": "t_bool"
      },
      {
        "astId": 2463,
        "contract": "src/Gateways/MintGateway.sol:MintGatewayV3",
        "label": "__gap",
        "offset": 0,
        "slot": "1",
        "type": "t_array(t_uint256)50_storage"
      },
      {
        "astId": 653,
        "contract": "src/Gateways/MintGateway.sol:MintGatewayV3",
        "label": "_owner",
        "offset": 0,
        "slot": "51",
        "type": "t_address"
      },
      {
        "astId": 766,
        "contract": "src/Gateways/MintGateway.sol:MintGatewayV3",
        "label": "__gap",
        "offset": 0,
        "slot": "52",
        "type": "t_array(t_uint256)49_storage"
      },
      {
        "astId": 9842,
        "contract": "src/Gateways/MintGateway.sol:MintGatewayV3",
        "label": "_chain",
        "offset": 0,
        "slot": "101",
        "type": "t_string_storage"
      },
      {
        "astId": 9844,
        "contract": "src/Gateways/MintGateway.sol:MintGatewayV3",
        "label": "_asset",
        "offset": 0,
        "slot": "102",
        "type": "t_string_storage"
      },
      {
        "astId": 9846,
        "contract": "src/Gateways/MintGateway.sol:MintGatewayV3",
        "label": "_selectorHash",
        "offset": 0,
        "slot": "103",
        "type": "t_bytes32"
      },
      {
        "astId": 9851,
        "contract": "src/Gateways/MintGateway.sol:MintGatewayV3",
        "label": "_status",
        "offset": 0,
        "slot": "104",
        "type": "t_mapping(t_bytes32,t_bool)"
      },
      {
        "astId": 9854,
        "contract": "src/Gateways/MintGateway.sol:MintGatewayV3",
        "label": "_token",
        "offset": 0,
        "slot": "105",
        "type": "t_address"
      },
      {
        "astId": 9857,
        "contract": "src/Gateways/MintGateway.sol:MintGatewayV3",
        "label": "_signatureVerifier",
        "offset": 0,
        "slot": "106",
        "type": "t_contract(IRenVMSignatureVerifier)9649"
      },
      {
        "astId": 9859,
        "contract": "src/Gateways/MintGateway.sol:MintGatewayV3",
        "label": "_previousGateway",
        "offset": 0,
        "slot": "107",
        "type": "t_address"
      },
      {
        "astId": 9861,
        "contract": "src/Gateways/MintGateway.sol:MintGatewayV3",
        "label": "_eventNonce",
        "offset": 0,
        "slot": "108",
        "type": "t_uint256"
      },
      {
        "astId": 9865,
        "contract": "src/Gateways/MintGateway.sol:MintGatewayV3",
        "label": "__gap",
        "offset": 0,
        "slot": "109",
        "type": "t_array(t_uint256)42_storage"
      }
    ],
    "types": {
      "t_address": {
        "encoding": "inplace",
        "label": "address",
        "numberOfBytes": "20"
      },
      "t_array(t_uint256)42_storage": {
        "base": "t_uint256",
        "encoding": "inplace",
        "label": "uint256[42]",
        "numberOfBytes": "1344"
      },
      "t_array(t_uint256)49_storage": {
        "base": "t_uint256",
        "encoding": "inplace",
        "label": "uint256[49]",
        "numberOfBytes": "1568"
      },
      "t_array(t_uint256)50_storage": {
        "base": "t_uint256",
        "encoding": "inplace",
        "label": "uint256[50]",
        "numberOfBytes": "1600"
      },
      "t_bool": {
        "encoding": "inplace",
        "label": "bool",
        "numberOfBytes": "1"
      },
      "t_bytes32": {
        "encoding": "inplace",
        "label": "bytes32",
        "numberOfBytes": "32"
      },
      "t_contract(IRenVMSignatureVerifier)9649": {
        "encoding": "inplace",
        "label": "contract IRenVMSignatureVerifier",
        "numberOfBytes": "20"
      },
      "t_mapping(t_bytes32,t_bool)": {
        "encoding": "mapping",
        "key": "t_bytes32",
        "label": "mapping(bytes32 => bool)",
        "numberOfBytes": "32",
        "value": "t_bool"
      },
      "t_string_storage": {
        "encoding": "bytes",
        "label": "string",
        "numberOfBytes": "32"
      },
      "t_uint256": {
        "encoding": "inplace",
        "label": "uint256",
        "numberOfBytes": "32"
      }
    }
  }
}