{
  "address": "0x581E96Ee347a2b5e91c06171FDe3A2539B9C979a",
  "abi": [
    {
      "inputs": [
        {
          "internalType": "address",
          "name": "adminAddress",
          "type": "address"
        },
        {
          "internalType": "address[]",
          "name": "contractAdders",
          "type": "address[]"
        }
      ],
      "stateMutability": "nonpayable",
      "type": "constructor"
    },
    {
      "anonymous": false,
      "inputs": [
        {
          "indexed": false,
          "internalType": "string",
          "name": "contractName",
          "type": "string"
        },
        {
          "indexed": true,
          "internalType": "address",
          "name": "contractAddress",
          "type": "address"
        },
        {
          "indexed": true,
          "internalType": "string",
          "name": "contractNameIndexed",
          "type": "string"
        }
      ],
      "name": "LogContractUpdated",
      "type": "event"
    },
    {
      "anonymous": false,
      "inputs": [
        {
          "indexed": true,
          "internalType": "bytes32",
          "name": "role",
          "type": "bytes32"
        },
        {
          "indexed": true,
          "internalType": "bytes32",
          "name": "previousAdminRole",
          "type": "bytes32"
        },
        {
          "indexed": true,
          "internalType": "bytes32",
          "name": "newAdminRole",
          "type": "bytes32"
        }
      ],
      "name": "RoleAdminChanged",
      "type": "event"
    },
    {
      "anonymous": false,
      "inputs": [
        {
          "indexed": true,
          "internalType": "bytes32",
          "name": "role",
          "type": "bytes32"
        },
        {
          "indexed": true,
          "internalType": "address",
          "name": "account",
          "type": "address"
        },
        {
          "indexed": true,
          "internalType": "address",
          "name": "sender",
          "type": "address"
        }
      ],
      "name": "RoleGranted",
      "type": "event"
    },
    {
      "anonymous": false,
      "inputs": [
        {
          "indexed": true,
          "internalType": "bytes32",
          "name": "role",
          "type": "bytes32"
        },
        {
          "indexed": true,
          "internalType": "address",
          "name": "account",
          "type": "address"
        },
        {
          "indexed": true,
          "internalType": "address",
          "name": "sender",
          "type": "address"
        }
      ],
      "name": "RoleRevoked",
      "type": "event"
    },
    {
      "inputs": [],
      "name": "CAN_ADD_CONTRACTS",
      "outputs": [
        {
          "internalType": "bytes32",
          "name": "",
          "type": "bytes32"
        }
      ],
      "stateMutability": "view",
      "type": "function"
    },
    {
      "inputs": [],
      "name": "CAN_UPDATE_CONTRACTS",
      "outputs": [
        {
          "internalType": "bytes32",
          "name": "",
          "type": "bytes32"
        }
      ],
      "stateMutability": "view",
      "type": "function"
    },
    {
      "inputs": [],
      "name": "DEFAULT_ADMIN_ROLE",
      "outputs": [
        {
          "internalType": "bytes32",
          "name": "",
          "type": "bytes32"
        }
      ],
      "stateMutability": "view",
      "type": "function"
    },
    {
      "inputs": [
        {
          "internalType": "string",
          "name": "contractName",
          "type": "string"
        },
        {
          "internalType": "address",
          "name": "contractAddress",
          "type": "address"
        }
      ],
      "name": "addContract",
      "outputs": [],
      "stateMutability": "nonpayable",
      "type": "function"
    },
    {
      "inputs": [
        {
          "internalType": "string",
          "name": "contractName",
          "type": "string"
        }
      ],
      "name": "getContract",
      "outputs": [
        {
          "internalType": "address",
          "name": "",
          "type": "address"
        }
      ],
      "stateMutability": "view",
      "type": "function"
    },
    {
      "inputs": [
        {
          "internalType": "bytes32",
          "name": "role",
          "type": "bytes32"
        }
      ],
      "name": "getRoleAdmin",
      "outputs": [
        {
          "internalType": "bytes32",
          "name": "",
          "type": "bytes32"
        }
      ],
      "stateMutability": "view",
      "type": "function"
    },
    {
      "inputs": [
        {
          "internalType": "bytes32",
          "name": "role",
          "type": "bytes32"
        },
        {
          "internalType": "uint256",
          "name": "index",
          "type": "uint256"
        }
      ],
      "name": "getRoleMember",
      "outputs": [
        {
          "internalType": "address",
          "name": "",
          "type": "address"
        }
      ],
      "stateMutability": "view",
      "type": "function"
    },
    {
      "inputs": [
        {
          "internalType": "bytes32",
          "name": "role",
          "type": "bytes32"
        }
      ],
      "name": "getRoleMemberCount",
      "outputs": [
        {
          "internalType": "uint256",
          "name": "",
          "type": "uint256"
        }
      ],
      "stateMutability": "view",
      "type": "function"
    },
    {
      "inputs": [
        {
          "internalType": "bytes32",
          "name": "role",
          "type": "bytes32"
        },
        {
          "internalType": "address",
          "name": "account",
          "type": "address"
        }
      ],
      "name": "grantRole",
      "outputs": [],
      "stateMutability": "nonpayable",
      "type": "function"
    },
    {
      "inputs": [
        {
          "internalType": "bytes32",
          "name": "role",
          "type": "bytes32"
        },
        {
          "internalType": "address",
          "name": "account",
          "type": "address"
        }
      ],
      "name": "hasRole",
      "outputs": [
        {
          "internalType": "bool",
          "name": "",
          "type": "bool"
        }
      ],
      "stateMutability": "view",
      "type": "function"
    },
    {
      "inputs": [
        {
          "internalType": "bytes32",
          "name": "role",
          "type": "bytes32"
        },
        {
          "internalType": "address",
          "name": "account",
          "type": "address"
        }
      ],
      "name": "renounceRole",
      "outputs": [],
      "stateMutability": "nonpayable",
      "type": "function"
    },
    {
      "inputs": [
        {
          "internalType": "bytes32",
          "name": "role",
          "type": "bytes32"
        },
        {
          "internalType": "address",
          "name": "account",
          "type": "address"
        }
      ],
      "name": "revokeRole",
      "outputs": [],
      "stateMutability": "nonpayable",
      "type": "function"
    },
    {
      "inputs": [
        {
          "internalType": "bytes4",
          "name": "interfaceId",
          "type": "bytes4"
        }
      ],
      "name": "supportsInterface",
      "outputs": [
        {
          "internalType": "bool",
          "name": "",
          "type": "bool"
        }
      ],
      "stateMutability": "view",
      "type": "function"
    },
    {
      "inputs": [
        {
          "internalType": "string",
          "name": "contractName",
          "type": "string"
        },
        {
          "internalType": "address",
          "name": "contractAddress",
          "type": "address"
        }
      ],
      "name": "updateContract",
      "outputs": [],
      "stateMutability": "nonpayable",
      "type": "function"
    }
  ],
  "transactionHash": "0x38a1b6a8fedd01ec3976735350f05e3ece7944de223143126d290bccb7635e1b",
  "args": [
    "0xD8E6C7f593EcBc364463515693DE35C2B526B290",
    [
      "0x1111538e6a1657a4cd58Be1CCc13Da0c979e0e5C"
    ]
  ],
  "solcInputHash": "66ae8ec2e3a53ed5763d125bba9ba96a",
  "bytecode": "0x60806040523480156200001157600080fd5b506040516200122038038062001220833981016040819052620000349162000272565b62000041600083620000f0565b6200005c6000805160206200120083398151915283620000f0565b620000887f2aef9b77c90d04dd060c046e9227383cf5160639bb332573032d8617a34e2eb383620000f0565b60005b8151811015620000e757620000d260008051602062001200833981519152838381518110620000be57620000be6200038c565b6020026020010151620000f060201b60201c565b80620000de8162000362565b9150506200008b565b505050620003b8565b6200010782826200013360201b620004f71760201c565b60008281526001602090815260409091206200012e9183906200050562000143821b17901c565b505050565b6200013f828262000163565b5050565b60006200015a836001600160a01b03841662000203565b90505b92915050565b6000828152602081815260408083206001600160a01b038516845290915290205460ff166200013f576000828152602081815260408083206001600160a01b03851684529091529020805460ff19166001179055620001bf3390565b6001600160a01b0316816001600160a01b0316837f2f8788117e7eff1d82e926ec794901d17c78024a50270940304540a733656f0d60405160405180910390a45050565b60008181526001830160205260408120546200024c575081546001818101845560008481526020808220909301849055845484825282860190935260409020919091556200015d565b5060006200015d565b80516001600160a01b03811681146200026d57600080fd5b919050565b600080604083850312156200028657600080fd5b620002918362000255565b602084810151919350906001600160401b0380821115620002b157600080fd5b818601915086601f830112620002c657600080fd5b815181811115620002db57620002db620003a2565b8060051b604051601f19603f83011681018181108582111715620003035762000303620003a2565b604052828152858101935084860182860187018b10156200032357600080fd5b600095505b8386101562000351576200033c8162000255565b85526001959095019493860193860162000328565b508096505050505050509250929050565b60006000198214156200038557634e487b7160e01b600052601160045260246000fd5b5060010190565b634e487b7160e01b600052603260045260246000fd5b634e487b7160e01b600052604160045260246000fd5b610e3880620003c86000396000f3fe608060405234801561001057600080fd5b50600436106100ea5760003560e01c80639010d07c1161008c578063a998e68c11610066578063a998e68c14610203578063bf5b60161461022a578063ca15c8731461023d578063d547741f1461025057600080fd5b80639010d07c146101d557806391d14854146101e8578063a217fddf146101fb57600080fd5b806335817773116100c8578063358177731461015d57806336568abe1461018857806341ef63411461019b578063697a60b3146101c257600080fd5b806301ffc9a7146100ef578063248a9ca3146101175780632f2ff15d14610148575b600080fd5b6101026100fd366004610ba5565b610263565b60405190151581526020015b60405180910390f35b61013a610125366004610b3e565b60009081526020819052604090206001015490565b60405190815260200161010e565b61015b610156366004610b57565b61028e565b005b61017061016b366004610bcf565b6102b5565b6040516001600160a01b03909116815260200161010e565b61015b610196366004610b57565b6102e6565b61013a7fe49c047bb55d3ff2214c3b783f2745d7eb19d881f26fd9be3a7ad758e9c8e0ba81565b61015b6101d0366004610c0c565b610308565b6101706101e3366004610b83565b6103cd565b6101026101f6366004610b57565b6103ec565b61013a600081565b61013a7f2aef9b77c90d04dd060c046e9227383cf5160639bb332573032d8617a34e2eb381565b61015b610238366004610c0c565b610415565b61013a61024b366004610b3e565b6104d6565b61015b61025e366004610b57565b6104ed565b60006001600160e01b03198216635a05180f60e01b148061028857506102888261051a565b92915050565b610298828261054f565b60008281526001602052604090206102b09082610505565b505050565b60006002826040516102c79190610c51565b908152604051908190036020019020546001600160a01b031692915050565b6102f08282610575565b60008281526001602052604090206102b090826105ef565b7f2aef9b77c90d04dd060c046e9227383cf5160639bb332573032d8617a34e2eb36103338133610604565b816002846040516103449190610c51565b90815260405190819003602001812080546001600160a01b03939093166001600160a01b03199093169290921790915561037f908490610c51565b6040518091039020826001600160a01b03167fae7f9cd1ac7fecf86fc9ddeb29c59c8f56b09339c1214feadef285d4e5b7b2b3856040516103c09190610ce2565b60405180910390a3505050565b60008281526001602052604081206103e59083610668565b9392505050565b6000918252602082815260408084206001600160a01b0393909316845291905290205460ff1690565b7fe49c047bb55d3ff2214c3b783f2745d7eb19d881f26fd9be3a7ad758e9c8e0ba6104408133610604565b60006001600160a01b031660028460405161045b9190610c51565b908152604051908190036020019020546001600160a01b0316146103335760405162461bcd60e51b815260206004820152602760248201527f50726f746f636f6c3a20636f6e747261637420656e74727920616c72656164796044820152662065786973747360c81b60648201526084015b60405180910390fd5b600081815260016020526040812061028890610674565b6102f0828261067e565b61050182826106a4565b5050565b60006103e5836001600160a01b038416610728565b60006001600160e01b03198216637965db0b60e01b148061028857506301ffc9a760e01b6001600160e01b0319831614610288565b60008281526020819052604090206001015461056b8133610604565b6102b083836106a4565b6001600160a01b03811633146105e55760405162461bcd60e51b815260206004820152602f60248201527f416363657373436f6e74726f6c3a2063616e206f6e6c792072656e6f756e636560448201526e103937b632b9903337b91039b2b63360891b60648201526084016104cd565b6105018282610777565b60006103e5836001600160a01b0384166107dc565b61060e82826103ec565b61050157610626816001600160a01b031660146108cf565b6106318360206108cf565b604051602001610642929190610c6d565b60408051601f198184030181529082905262461bcd60e51b82526104cd91600401610ce2565b60006103e58383610a6b565b6000610288825490565b60008281526020819052604090206001015461069a8133610604565b6102b08383610777565b6106ae82826103ec565b610501576000828152602081815260408083206001600160a01b03851684529091529020805460ff191660011790556106e43390565b6001600160a01b0316816001600160a01b0316837f2f8788117e7eff1d82e926ec794901d17c78024a50270940304540a733656f0d60405160405180910390a45050565b600081815260018301602052604081205461076f57508154600181810184556000848152602080822090930184905584548482528286019093526040902091909155610288565b506000610288565b61078182826103ec565b15610501576000828152602081815260408083206001600160a01b0385168085529252808320805460ff1916905551339285917ff6391f5c32d9c69d2a47ea670b442974b53935d1edc7fd64eb21e047a839171b9190a45050565b600081815260018301602052604081205480156108c5576000610800600183610d4c565b855490915060009061081490600190610d4c565b905081811461087957600086600001828154811061083457610834610dd6565b906000526020600020015490508087600001848154811061085757610857610dd6565b6000918252602080832090910192909255918252600188019052604090208390555b855486908061088a5761088a610dc0565b600190038181906000526020600020016000905590558560010160008681526020019081526020016000206000905560019350505050610288565b6000915050610288565b606060006108de836002610d2d565b6108e9906002610d15565b67ffffffffffffffff81111561090157610901610dec565b6040519080825280601f01601f19166020018201604052801561092b576020820181803683370190505b509050600360fc1b8160008151811061094657610946610dd6565b60200101906001600160f81b031916908160001a905350600f60fb1b8160018151811061097557610975610dd6565b60200101906001600160f81b031916908160001a9053506000610999846002610d2d565b6109a4906001610d15565b90505b6001811115610a1c576f181899199a1a9b1b9c1cb0b131b232b360811b85600f16601081106109d8576109d8610dd6565b1a60f81b8282815181106109ee576109ee610dd6565b60200101906001600160f81b031916908160001a90535060049490941c93610a1581610d93565b90506109a7565b5083156103e55760405162461bcd60e51b815260206004820181905260248201527f537472696e67733a20686578206c656e67746820696e73756666696369656e7460448201526064016104cd565b6000826000018281548110610a8257610a82610dd6565b9060005260206000200154905092915050565b80356001600160a01b0381168114610aac57600080fd5b919050565b600082601f830112610ac257600080fd5b813567ffffffffffffffff80821115610add57610add610dec565b604051601f8301601f19908116603f01168101908282118183101715610b0557610b05610dec565b81604052838152866020858801011115610b1e57600080fd5b836020870160208301376000602085830101528094505050505092915050565b600060208284031215610b5057600080fd5b5035919050565b60008060408385031215610b6a57600080fd5b82359150610b7a60208401610a95565b90509250929050565b60008060408385031215610b9657600080fd5b50508035926020909101359150565b600060208284031215610bb757600080fd5b81356001600160e01b0319811681146103e557600080fd5b600060208284031215610be157600080fd5b813567ffffffffffffffff811115610bf857600080fd5b610c0484828501610ab1565b949350505050565b60008060408385031215610c1f57600080fd5b823567ffffffffffffffff811115610c3657600080fd5b610c4285828601610ab1565b925050610b7a60208401610a95565b60008251610c63818460208701610d63565b9190910192915050565b7f416363657373436f6e74726f6c3a206163636f756e7420000000000000000000815260008351610ca5816017850160208801610d63565b7001034b99036b4b9b9b4b733903937b6329607d1b6017918401918201528351610cd6816028840160208801610d63565b01602801949350505050565b6020815260008251806020840152610d01816040850160208701610d63565b601f01601f19169190910160400192915050565b60008219821115610d2857610d28610daa565b500190565b6000816000190483118215151615610d4757610d47610daa565b500290565b600082821015610d5e57610d5e610daa565b500390565b60005b83811015610d7e578181015183820152602001610d66565b83811115610d8d576000848401525b50505050565b600081610da257610da2610daa565b506000190190565b634e487b7160e01b600052601160045260246000fd5b634e487b7160e01b600052603160045260246000fd5b634e487b7160e01b600052603260045260246000fd5b634e487b7160e01b600052604160045260246000fdfea2646970667358221220c7fadeffac8e579fb689bf04b98acc1819c0c51f90fd1b4ceb9c71ab8d95ee3364736f6c63430008070033e49c047bb55d3ff2214c3b783f2745d7eb19d881f26fd9be3a7ad758e9c8e0ba",
  "devdoc": {
    "kind": "dev",
    "methods": {
      "getRoleAdmin(bytes32)": {
        "details": "Returns the admin role that controls `role`. See {grantRole} and {revokeRole}. To change a role's admin, use {_setRoleAdmin}."
      },
      "getRoleMember(bytes32,uint256)": {
        "details": "Returns one of the accounts that have `role`. `index` must be a value between 0 and {getRoleMemberCount}, non-inclusive. Role bearers are not sorted in any particular way, and their ordering may change at any point. WARNING: When using {getRoleMember} and {getRoleMemberCount}, make sure you perform all queries on the same block. See the following https://forum.openzeppelin.com/t/iterating-over-elements-on-enumerableset-in-openzeppelin-contracts/2296[forum post] for more information."
      },
      "getRoleMemberCount(bytes32)": {
        "details": "Returns the number of accounts that have `role`. Can be used together with {getRoleMember} to enumerate all bearers of a role."
      },
      "grantRole(bytes32,address)": {
        "details": "Overload {grantRole} to track enumerable memberships"
      },
      "hasRole(bytes32,address)": {
        "details": "Returns `true` if `account` has been granted `role`."
      },
      "renounceRole(bytes32,address)": {
        "details": "Overload {renounceRole} to track enumerable memberships"
      },
      "revokeRole(bytes32,address)": {
        "details": "Overload {revokeRole} to track enumerable memberships"
      },
      "supportsInterface(bytes4)": {
        "details": "See {IERC165-supportsInterface}."
      }
    },
    "version": 1
  },
  "userdoc": {
    "kind": "user",
    "methods": {},
    "notice": "The Protocol contract is used to look-up other Ren contracts. ",
    "version": 1
  },
  "storageLayout": {
    "storage": [
      {
        "astId": 3437,
        "contract": "src/Protocol/Protocol.sol:Protocol",
        "label": "_roles",
        "offset": 0,
        "slot": "0",
        "type": "t_mapping(t_bytes32,t_struct(RoleData)3432_storage)"
      },
      {
        "astId": 3738,
        "contract": "src/Protocol/Protocol.sol:Protocol",
        "label": "_roleMembers",
        "offset": 0,
        "slot": "1",
        "type": "t_mapping(t_bytes32,t_struct(AddressSet)7984_storage)"
      },
      {
        "astId": 12297,
        "contract": "src/Protocol/Protocol.sol:Protocol",
        "label": "contractMap",
        "offset": 0,
        "slot": "2",
        "type": "t_mapping(t_string_memory_ptr,t_address)"
      }
    ],
    "types": {
      "t_address": {
        "encoding": "inplace",
        "label": "address",
        "numberOfBytes": "20"
      },
      "t_array(t_bytes32)dyn_storage": {
        "base": "t_bytes32",
        "encoding": "dynamic_array",
        "label": "bytes32[]",
        "numberOfBytes": "32"
      },
      "t_bool": {
        "encoding": "inplace",
        "label": "bool",
        "numberOfBytes": "1"
      },
      "t_bytes32": {
        "encoding": "inplace",
        "label": "bytes32",
        "numberOfBytes": "32"
      },
      "t_mapping(t_address,t_bool)": {
        "encoding": "mapping",
        "key": "t_address",
        "label": "mapping(address => bool)",
        "numberOfBytes": "32",
        "value": "t_bool"
      },
      "t_mapping(t_bytes32,t_struct(AddressSet)7984_storage)": {
        "encoding": "mapping",
        "key": "t_bytes32",
        "label": "mapping(bytes32 => struct EnumerableSet.AddressSet)",
        "numberOfBytes": "32",
        "value": "t_struct(AddressSet)7984_storage"
      },
      "t_mapping(t_bytes32,t_struct(RoleData)3432_storage)": {
        "encoding": "mapping",
        "key": "t_bytes32",
        "label": "mapping(bytes32 => struct AccessControl.RoleData)",
        "numberOfBytes": "32",
        "value": "t_struct(RoleData)3432_storage"
      },
      "t_mapping(t_bytes32,t_uint256)": {
        "encoding": "mapping",
        "key": "t_bytes32",
        "label": "mapping(bytes32 => uint256)",
        "numberOfBytes": "32",
        "value": "t_uint256"
      },
      "t_mapping(t_string_memory_ptr,t_address)": {
        "encoding": "mapping",
        "key": "t_string_memory_ptr",
        "label": "mapping(string => address)",
        "numberOfBytes": "32",
        "value": "t_address"
      },
      "t_string_memory_ptr": {
        "encoding": "bytes",
        "label": "string",
        "numberOfBytes": "32"
      },
      "t_struct(AddressSet)7984_storage": {
        "encoding": "inplace",
        "label": "struct EnumerableSet.AddressSet",
        "members": [
          {
            "astId": 7983,
            "contract": "src/Protocol/Protocol.sol:Protocol",
            "label": "_inner",
            "offset": 0,
            "slot": "0",
            "type": "t_struct(Set)7683_storage"
          }
        ],
        "numberOfBytes": "64"
      },
      "t_struct(RoleData)3432_storage": {
        "encoding": "inplace",
        "label": "struct AccessControl.RoleData",
        "members": [
          {
            "astId": 3429,
            "contract": "src/Protocol/Protocol.sol:Protocol",
            "label": "members",
            "offset": 0,
            "slot": "0",
            "type": "t_mapping(t_address,t_bool)"
          },
          {
            "astId": 3431,
            "contract": "src/Protocol/Protocol.sol:Protocol",
            "label": "adminRole",
            "offset": 0,
            "slot": "1",
            "type": "t_bytes32"
          }
        ],
        "numberOfBytes": "64"
      },
      "t_struct(Set)7683_storage": {
        "encoding": "inplace",
        "label": "struct EnumerableSet.Set",
        "members": [
          {
            "astId": 7678,
            "contract": "src/Protocol/Protocol.sol:Protocol",
            "label": "_values",
            "offset": 0,
            "slot": "0",
            "type": "t_array(t_bytes32)dyn_storage"
          },
          {
            "astId": 7682,
            "contract": "src/Protocol/Protocol.sol:Protocol",
            "label": "_indexes",
            "offset": 0,
            "slot": "1",
            "type": "t_mapping(t_bytes32,t_uint256)"
          }
        ],
        "numberOfBytes": "64"
      },
      "t_uint256": {
        "encoding": "inplace",
        "label": "uint256",
        "numberOfBytes": "32"
      }
    }
  }
}