{
  "address": "0xD3B55b3CEf62339C51ACC9307373d8d2c6012453",
  "abi": [
    {
      "inputs": [
        {
          "internalType": "address",
          "name": "implementation",
          "type": "address"
        },
        {
          "internalType": "address",
          "name": "adminAddress",
          "type": "address"
        }
      ],
      "stateMutability": "nonpayable",
      "type": "constructor"
    },
    {
      "anonymous": false,
      "inputs": [
        {
          "indexed": true,
          "internalType": "address",
          "name": "oldProxyDeployer",
          "type": "address"
        },
        {
          "indexed": true,
          "internalType": "address",
          "name": "newProxyDeployer",
          "type": "address"
        }
      ],
      "name": "LogProxyDeployerUpdated",
      "type": "event"
    },
    {
      "anonymous": false,
      "inputs": [
        {
          "indexed": true,
          "internalType": "address",
          "name": "previousOwner",
          "type": "address"
        },
        {
          "indexed": true,
          "internalType": "address",
          "name": "newOwner",
          "type": "address"
        }
      ],
      "name": "OwnershipTransferred",
      "type": "event"
    },
    {
      "anonymous": false,
      "inputs": [
        {
          "indexed": true,
          "internalType": "address",
          "name": "implementation",
          "type": "address"
        }
      ],
      "name": "Upgraded",
      "type": "event"
    },
    {
      "inputs": [],
      "name": "NAME",
      "outputs": [
        {
          "internalType": "string",
          "name": "",
          "type": "string"
        }
      ],
      "stateMutability": "view",
      "type": "function"
    },
    {
      "inputs": [
        {
          "internalType": "bytes32",
          "name": "create2Salt",
          "type": "bytes32"
        },
        {
          "internalType": "bytes",
          "name": "encodedParameters",
          "type": "bytes"
        }
      ],
      "name": "deployProxy",
      "outputs": [
        {
          "internalType": "address",
          "name": "",
          "type": "address"
        }
      ],
      "stateMutability": "nonpayable",
      "type": "function"
    },
    {
      "inputs": [],
      "name": "getProxyDeployer",
      "outputs": [
        {
          "internalType": "address",
          "name": "",
          "type": "address"
        }
      ],
      "stateMutability": "view",
      "type": "function"
    },
    {
      "inputs": [],
      "name": "implementation",
      "outputs": [
        {
          "internalType": "address",
          "name": "",
          "type": "address"
        }
      ],
      "stateMutability": "view",
      "type": "function"
    },
    {
      "inputs": [],
      "name": "owner",
      "outputs": [
        {
          "internalType": "address",
          "name": "",
          "type": "address"
        }
      ],
      "stateMutability": "view",
      "type": "function"
    },
    {
      "inputs": [],
      "name": "renounceOwnership",
      "outputs": [],
      "stateMutability": "nonpayable",
      "type": "function"
    },
    {
      "inputs": [
        {
          "internalType": "address",
          "name": "newOwner",
          "type": "address"
        }
      ],
      "name": "transferOwnership",
      "outputs": [],
      "stateMutability": "nonpayable",
      "type": "function"
    },
    {
      "inputs": [
        {
          "internalType": "address",
          "name": "newProxyDeployer",
          "type": "address"
        }
      ],
      "name": "updateProxyDeployer",
      "outputs": [],
      "stateMutability": "nonpayable",
      "type": "function"
    },
    {
      "inputs": [
        {
          "internalType": "address",
          "name": "newImplementation",
          "type": "address"
        }
      ],
      "name": "upgradeTo",
      "outputs": [],
      "stateMutability": "nonpayable",
      "type": "function"
    }
  ],
  "transactionHash": "0x6b06b09033f2608b6334153eec83517f23765be2648a48779cf35e6a7e147ec3",
  "args": [
    "0x2222229fb3318a6375fa78fd299a9a42ac6a8fbf",
    "0x1111538e6a1657a4cd58Be1CCc13Da0c979e0e5C"
  ],
  "solcInputHash": "5b6b2689ed9e6b3172aee736600c5c8e",
  "bytecode": "0x608060405234801561001057600080fd5b506040516200158d3803806200158d83398101604081905261003191610242565b81818161003d33610059565b610046816100a9565b5061005081610155565b50505050610275565b600080546001600160a01b038381166001600160a01b0319831681178455604051919092169283917f8be0079c531659141344cd1fd0a4f28419497f9722a3daafe3b4186f6b6457e09190a35050565b6100bc8161022060201b6105121760201c565b6101335760405162461bcd60e51b815260206004820152603360248201527f5570677261646561626c65426561636f6e3a20696d706c656d656e746174696f60448201527f6e206973206e6f74206120636f6e74726163740000000000000000000000000060648201526084015b60405180910390fd5b600180546001600160a01b0319166001600160a01b0392909216919091179055565b6000546001600160a01b031633146101af5760405162461bcd60e51b815260206004820181905260248201527f4f776e61626c653a2063616c6c6572206973206e6f7420746865206f776e6572604482015260640161012a565b6001600160a01b0381166102145760405162461bcd60e51b815260206004820152602660248201527f4f776e61626c653a206e6577206f776e657220697320746865207a65726f206160448201526564647265737360d01b606482015260840161012a565b61021d81610059565b50565b3b151590565b80516001600160a01b038116811461023d57600080fd5b919050565b6000806040838503121561025557600080fd5b61025e83610226565b915061026c60208401610226565b90509250929050565b61130880620002856000396000f3fe60806040523480156200001157600080fd5b50600436106200009f5760003560e01c80638da5cb5b116200006e5780638da5cb5b14620001085780639c418ce3146200011a578063a3f4df7e146200012c578063ec54d72f146200016e578063f2fde38b146200018557600080fd5b806315d9a13d14620000a45780633659cfe614620000bd5780635c60da1b14620000d4578063715018a614620000fe575b600080fd5b620000bb620000b5366004620007d8565b6200019c565b005b620000bb620000ce366004620007d8565b62000288565b6001546001600160a01b03165b6040516001600160a01b0390911681526020015b60405180910390f35b620000bb620002f7565b6000546001600160a01b0316620000e1565b6002546001600160a01b0316620000e1565b6200015f604051806040016040528060138152602001722932b720b9b9b2ba283937bc3ca132b0b1b7b760691b81525081565b604051620000f59190620008a2565b620000e16200017f36600462000803565b62000332565b620000bb62000196366004620007d8565b62000470565b6000546001600160a01b03163314620001d25760405162461bcd60e51b8152600401620001c990620008d7565b60405180910390fd5b6001600160a01b038116620002365760405162461bcd60e51b815260206004820152602360248201527f50726f7879426561636f6e3a20696e76616c69642070726f7879206465706c6f6044820152623cb2b960e91b6064820152608401620001c9565b600280546001600160a01b038381166001600160a01b0319831681179093556040519116919082907f0e24fc826adfc940230947bf5a5182a6a5be927ae7c86cbf7ec22451bbe0412290600090a35050565b6000546001600160a01b03163314620002b55760405162461bcd60e51b8152600401620001c990620008d7565b620002c08162000518565b6040516001600160a01b038216907fbc7cd75a20ee27fd9adebab32041f755214dbc6bffa90cc0225b39da2e5c2d3b90600090a250565b6000546001600160a01b03163314620003245760405162461bcd60e51b8152600401620001c990620008d7565b620003306000620005a6565b565b600080620003486002546001600160a01b031690565b90506001600160a01b038116158015906200036b5750336001600160a01b038216145b620003cf5760405162461bcd60e51b815260206004820152602d60248201527f50726f7879426561636f6e3a2063616c6c6572206973206e6f7420746865207060448201526c3937bc3c903232b83637bcb2b960991b6064820152608401620001c9565b60008530604051620003e190620007ca565b6001600160a01b0390911681526040602082018190526000908201526060018190604051809103906000f590508015801562000421573d6000803e3d6000fd5b509050620004668186868080601f016020809104026020016040519081016040528093929190818152602001838380828437600092019190915250620005f692505050565b5095945050505050565b6000546001600160a01b031633146200049d5760405162461bcd60e51b8152600401620001c990620008d7565b6001600160a01b038116620005045760405162461bcd60e51b815260206004820152602660248201527f4f776e61626c653a206e6577206f776e657220697320746865207a65726f206160448201526564647265737360d01b6064820152608401620001c9565b6200050f81620005a6565b50565b3b151590565b803b620005845760405162461bcd60e51b815260206004820152603360248201527f5570677261646561626c65426561636f6e3a20696d706c656d656e746174696f6044820152721b881a5cc81b9bdd08184818dbdb9d1c9858dd606a1b6064820152608401620001c9565b600180546001600160a01b0319166001600160a01b0392909216919091179055565b600080546001600160a01b038381166001600160a01b0319831681178455604051919092169283917f8be0079c531659141344cd1fd0a4f28419497f9722a3daafe3b4186f6b6457e09190a35050565b60606200063a83836040518060400160405280601e81526020017f416464726573733a206c6f772d6c6576656c2063616c6c206661696c6564000081525062000641565b9392505050565b60606200065284846000856200065a565b949350505050565b606082471015620006bd5760405162461bcd60e51b815260206004820152602660248201527f416464726573733a20696e73756666696369656e742062616c616e636520666f6044820152651c8818d85b1b60d21b6064820152608401620001c9565b843b6200070d5760405162461bcd60e51b815260206004820152601d60248201527f416464726573733a2063616c6c20746f206e6f6e2d636f6e74726163740000006044820152606401620001c9565b600080866001600160a01b031685876040516200072b919062000884565b60006040518083038185875af1925050503d80600081146200076a576040519150601f19603f3d011682016040523d82523d6000602084013e6200076f565b606091505b5091509150620007818282866200078c565b979650505050505050565b606083156200079d5750816200063a565b825115620007ae5782518084602001fd5b8160405162461bcd60e51b8152600401620001c99190620008a2565b610993806200094083390190565b600060208284031215620007eb57600080fd5b81356001600160a01b03811681146200063a57600080fd5b6000806000604084860312156200081957600080fd5b83359250602084013567ffffffffffffffff808211156200083957600080fd5b818601915086601f8301126200084e57600080fd5b8135818111156200085e57600080fd5b8760208285010111156200087157600080fd5b6020830194508093505050509250925092565b60008251620008988184602087016200090c565b9190910192915050565b6020815260008251806020840152620008c38160408501602087016200090c565b601f01601f19169190910160400192915050565b6020808252818101527f4f776e61626c653a2063616c6c6572206973206e6f7420746865206f776e6572604082015260600190565b60005b83811015620009295781810151838201526020016200090f565b8381111562000939576000848401525b5050505056fe608060405260405161099338038061099383398101604081905261002291610470565b61004d60017fa3f0ad74e5423aebfd80d3ef4346578335a9a72aeaee59ff6cb3582b35133d5161057f565b60008051602061094c83398151915214610069576100696105d0565b6100758282600061007c565b50506105fc565b61008583610156565b6040516001600160a01b038416907f1cf3b03a6cf19fa2baba4df148e9dcabedea7f8a5c07840e207e5c089be95d3e90600090a26000825111806100c65750805b156101515761014f836001600160a01b0316635c60da1b6040518163ffffffff1660e01b815260040160206040518083038186803b15801561010757600080fd5b505afa15801561011b573d6000803e3d6000fd5b505050506040513d601f19601f8201168201806040525081019061013f9190610455565b836102f660201b6100291760201c565b505b505050565b6101698161032260201b6100551760201c565b6101c85760405162461bcd60e51b815260206004820152602560248201527f455243313936373a206e657720626561636f6e206973206e6f74206120636f6e6044820152641d1c9858dd60da1b60648201526084015b60405180910390fd5b61024b816001600160a01b0316635c60da1b6040518163ffffffff1660e01b815260040160206040518083038186803b15801561020457600080fd5b505afa158015610218573d6000803e3d6000fd5b505050506040513d601f19601f8201168201806040525081019061023c9190610455565b61032260201b6100551760201c565b6102b05760405162461bcd60e51b815260206004820152603060248201527f455243313936373a20626561636f6e20696d706c656d656e746174696f6e206960448201526f1cc81b9bdd08184818dbdb9d1c9858dd60821b60648201526084016101bf565b806102d560008051602061094c83398151915260001b61032860201b61005b1760201c565b80546001600160a01b0319166001600160a01b039290921691909117905550565b606061031b838360405180606001604052806027815260200161096c6027913961032b565b9392505050565b3b151590565b90565b6060833b61038a5760405162461bcd60e51b815260206004820152602660248201527f416464726573733a2064656c65676174652063616c6c20746f206e6f6e2d636f6044820152651b9d1c9858dd60d21b60648201526084016101bf565b600080856001600160a01b0316856040516103a59190610530565b600060405180830381855af49150503d80600081146103e0576040519150601f19603f3d011682016040523d82523d6000602084013e6103e5565b606091505b5090925090506103f6828286610400565b9695505050505050565b6060831561040f57508161031b565b82511561041f5782518084602001fd5b8160405162461bcd60e51b81526004016101bf919061054c565b80516001600160a01b038116811461045057600080fd5b919050565b60006020828403121561046757600080fd5b61031b82610439565b6000806040838503121561048357600080fd5b61048c83610439565b60208401519092506001600160401b03808211156104a957600080fd5b818501915085601f8301126104bd57600080fd5b8151818111156104cf576104cf6105e6565b604051601f8201601f19908116603f011681019083821181831017156104f7576104f76105e6565b8160405282815288602084870101111561051057600080fd5b6105218360208301602088016105a4565b80955050505050509250929050565b600082516105428184602087016105a4565b9190910192915050565b602081526000825180602084015261056b8160408501602087016105a4565b601f01601f19169190910160400192915050565b60008282101561059f57634e487b7160e01b600052601160045260246000fd5b500390565b60005b838110156105bf5781810151838201526020016105a7565b8381111561014f5750506000910152565b634e487b7160e01b600052600160045260246000fd5b634e487b7160e01b600052604160045260246000fd5b6103418061060b6000396000f3fe60806040523661001357610011610017565b005b6100115b61002761002261005e565b610106565b565b606061004e83836040518060600160405280602781526020016102e56027913961012a565b9392505050565b3b151590565b90565b60006100917fa3f0ad74e5423aebfd80d3ef4346578335a9a72aeaee59ff6cb3582b35133d50546001600160a01b031690565b6001600160a01b0316635c60da1b6040518163ffffffff1660e01b815260040160206040518083038186803b1580156100c957600080fd5b505afa1580156100dd573d6000803e3d6000fd5b505050506040513d601f19601f82011682018060405250810190610101919061023c565b905090565b3660008037600080366000845af43d6000803e808015610125573d6000f35b3d6000fd5b6060833b61018e5760405162461bcd60e51b815260206004820152602660248201527f416464726573733a2064656c65676174652063616c6c20746f206e6f6e2d636f6044820152651b9d1c9858dd60d21b60648201526084015b60405180910390fd5b600080856001600160a01b0316856040516101a99190610265565b600060405180830381855af49150503d80600081146101e4576040519150601f19603f3d011682016040523d82523d6000602084013e6101e9565b606091505b50915091506101f9828286610203565b9695505050505050565b6060831561021257508161004e565b8251156102225782518084602001fd5b8160405162461bcd60e51b81526004016101859190610281565b60006020828403121561024e57600080fd5b81516001600160a01b038116811461004e57600080fd5b600082516102778184602087016102b4565b9190910192915050565b60208152600082518060208401526102a08160408501602087016102b4565b601f01601f19169190910160400192915050565b60005b838110156102cf5781810151838201526020016102b7565b838111156102de576000848401525b5050505056fe416464726573733a206c6f772d6c6576656c2064656c65676174652063616c6c206661696c6564a2646970667358221220c7b3e4869a0166bfdb9c7c25118448f15f5e2054b606656aa07cc16a1f9c7de164736f6c63430008070033a3f0ad74e5423aebfd80d3ef4346578335a9a72aeaee59ff6cb3582b35133d50416464726573733a206c6f772d6c6576656c2064656c65676174652063616c6c206661696c6564a26469706673582212201599b02d0d282f5bc2d4a534a31debf3ca1cbab0920a6a930bcb2294ce81c97b64736f6c63430008070033",
  "devdoc": {
    "kind": "dev",
    "methods": {
      "implementation()": {
        "details": "Returns the current implementation address."
      },
      "owner()": {
        "details": "Returns the address of the current owner."
      },
      "renounceOwnership()": {
        "details": "Leaves the contract without owner. It will not be possible to call `onlyOwner` functions anymore. Can only be called by the current owner. NOTE: Renouncing ownership will leave the contract without an owner, thereby removing any functionality that is only available to the owner."
      },
      "transferOwnership(address)": {
        "details": "Transfers ownership of the contract to a new account (`newOwner`). Can only be called by the current owner."
      },
      "upgradeTo(address)": {
        "details": "Upgrades the beacon to a new implementation. Emits an {Upgraded} event. Requirements: - msg.sender must be the owner of the contract. - `newImplementation` must be a contract."
      }
    },
    "version": 1
  },
  "userdoc": {
    "kind": "user",
    "methods": {
      "deployProxy(bytes32,bytes)": {
        "notice": "Deploy a proxy that fetches its implementation from this ProxyBeacon."
      }
    },
    "version": 1
  },
  "storageLayout": {
    "storage": [
      {
        "astId": 3800,
        "contract": "src/GatewayRegistry/ProxyBeacon.sol:RenAssetProxyBeacon",
        "label": "_owner",
        "offset": 0,
        "slot": "0",
        "type": "t_address"
      },
      {
        "astId": 5247,
        "contract": "src/GatewayRegistry/ProxyBeacon.sol:RenAssetProxyBeacon",
        "label": "_implementation",
        "offset": 0,
        "slot": "1",
        "type": "t_address"
      },
      {
        "astId": 9041,
        "contract": "src/GatewayRegistry/ProxyBeacon.sol:RenAssetProxyBeacon",
        "label": "_proxyDeployer",
        "offset": 0,
        "slot": "2",
        "type": "t_address"
      }
    ],
    "types": {
      "t_address": {
        "encoding": "inplace",
        "label": "address",
        "numberOfBytes": "20"
      }
    }
  }
}