{
  "address": "0x59E1604F112662583C2430d2A2FC10afD9227181",
  "abi": [
    {
      "anonymous": false,
      "inputs": [
        {
          "indexed": true,
          "internalType": "address",
          "name": "owner",
          "type": "address"
        },
        {
          "indexed": true,
          "internalType": "address",
          "name": "spender",
          "type": "address"
        },
        {
          "indexed": false,
          "internalType": "uint256",
          "name": "value",
          "type": "uint256"
        }
      ],
      "name": "Approval",
      "type": "event"
    },
    {
      "anonymous": false,
      "inputs": [
        {
          "indexed": true,
          "internalType": "address",
          "name": "previousOwner",
          "type": "address"
        },
        {
          "indexed": true,
          "internalType": "address",
          "name": "newOwner",
          "type": "address"
        }
      ],
      "name": "OwnershipTransferred",
      "type": "event"
    },
    {
      "anonymous": false,
      "inputs": [
        {
          "indexed": true,
          "internalType": "address",
          "name": "from",
          "type": "address"
        },
        {
          "indexed": true,
          "internalType": "address",
          "name": "to",
          "type": "address"
        },
        {
          "indexed": false,
          "internalType": "uint256",
          "name": "value",
          "type": "uint256"
        }
      ],
      "name": "Transfer",
      "type": "event"
    },
    {
      "inputs": [],
      "name": "DOMAIN_SEPARATOR",
      "outputs": [
        {
          "internalType": "bytes32",
          "name": "",
          "type": "bytes32"
        }
      ],
      "stateMutability": "view",
      "type": "function"
    },
    {
      "inputs": [],
      "name": "NAME",
      "outputs": [
        {
          "internalType": "string",
          "name": "",
          "type": "string"
        }
      ],
      "stateMutability": "view",
      "type": "function"
    },
    {
      "inputs": [],
      "name": "PERMIT_TYPEHASH",
      "outputs": [
        {
          "internalType": "bytes32",
          "name": "",
          "type": "bytes32"
        }
      ],
      "stateMutability": "view",
      "type": "function"
    },
    {
      "inputs": [
        {
          "internalType": "uint256",
          "name": "chainId",
          "type": "uint256"
        },
        {
          "internalType": "string",
          "name": "version_",
          "type": "string"
        },
        {
          "internalType": "string",
          "name": "name_",
          "type": "string"
        },
        {
          "internalType": "string",
          "name": "symbol_",
          "type": "string"
        }
      ],
      "name": "__ERC20WithPermit_init",
      "outputs": [],
      "stateMutability": "nonpayable",
      "type": "function"
    },
    {
      "inputs": [
        {
          "internalType": "uint256",
          "name": "chainId",
          "type": "uint256"
        },
        {
          "internalType": "string",
          "name": "version_",
          "type": "string"
        },
        {
          "internalType": "string",
          "name": "name_",
          "type": "string"
        },
        {
          "internalType": "string",
          "name": "symbol_",
          "type": "string"
        },
        {
          "internalType": "uint8",
          "name": "decimals_",
          "type": "uint8"
        },
        {
          "internalType": "address",
          "name": "contractOwner",
          "type": "address"
        }
      ],
      "name": "__RenAsset_init",
      "outputs": [],
      "stateMutability": "nonpayable",
      "type": "function"
    },
    {
      "inputs": [
        {
          "internalType": "address",
          "name": "owner",
          "type": "address"
        },
        {
          "internalType": "address",
          "name": "spender",
          "type": "address"
        }
      ],
      "name": "allowance",
      "outputs": [
        {
          "internalType": "uint256",
          "name": "",
          "type": "uint256"
        }
      ],
      "stateMutability": "view",
      "type": "function"
    },
    {
      "inputs": [
        {
          "internalType": "address",
          "name": "spender",
          "type": "address"
        },
        {
          "internalType": "uint256",
          "name": "amount",
          "type": "uint256"
        }
      ],
      "name": "approve",
      "outputs": [
        {
          "internalType": "bool",
          "name": "",
          "type": "bool"
        }
      ],
      "stateMutability": "nonpayable",
      "type": "function"
    },
    {
      "inputs": [
        {
          "internalType": "address",
          "name": "account",
          "type": "address"
        }
      ],
      "name": "balanceOf",
      "outputs": [
        {
          "internalType": "uint256",
          "name": "",
          "type": "uint256"
        }
      ],
      "stateMutability": "view",
      "type": "function"
    },
    {
      "inputs": [
        {
          "internalType": "address",
          "name": "_from",
          "type": "address"
        },
        {
          "internalType": "uint256",
          "name": "_amount",
          "type": "uint256"
        }
      ],
      "name": "burn",
      "outputs": [],
      "stateMutability": "nonpayable",
      "type": "function"
    },
    {
      "inputs": [],
      "name": "decimals",
      "outputs": [
        {
          "internalType": "uint8",
          "name": "",
          "type": "uint8"
        }
      ],
      "stateMutability": "view",
      "type": "function"
    },
    {
      "inputs": [
        {
          "internalType": "address",
          "name": "spender",
          "type": "address"
        },
        {
          "internalType": "uint256",
          "name": "subtractedValue",
          "type": "uint256"
        }
      ],
      "name": "decreaseAllowance",
      "outputs": [
        {
          "internalType": "bool",
          "name": "",
          "type": "bool"
        }
      ],
      "stateMutability": "nonpayable",
      "type": "function"
    },
    {
      "inputs": [
        {
          "internalType": "address",
          "name": "spender",
          "type": "address"
        },
        {
          "internalType": "uint256",
          "name": "addedValue",
          "type": "uint256"
        }
      ],
      "name": "increaseAllowance",
      "outputs": [
        {
          "internalType": "bool",
          "name": "",
          "type": "bool"
        }
      ],
      "stateMutability": "nonpayable",
      "type": "function"
    },
    {
      "inputs": [
        {
          "internalType": "address",
          "name": "_to",
          "type": "address"
        },
        {
          "internalType": "uint256",
          "name": "_amount",
          "type": "uint256"
        }
      ],
      "name": "mint",
      "outputs": [],
      "stateMutability": "nonpayable",
      "type": "function"
    },
    {
      "inputs": [],
      "name": "name",
      "outputs": [
        {
          "internalType": "string",
          "name": "",
          "type": "string"
        }
      ],
      "stateMutability": "view",
      "type": "function"
    },
    {
      "inputs": [
        {
          "internalType": "address",
          "name": "holder",
          "type": "address"
        }
      ],
      "name": "nonces",
      "outputs": [
        {
          "internalType": "uint256",
          "name": "",
          "type": "uint256"
        }
      ],
      "stateMutability": "view",
      "type": "function"
    },
    {
      "inputs": [],
      "name": "owner",
      "outputs": [
        {
          "internalType": "address",
          "name": "",
          "type": "address"
        }
      ],
      "stateMutability": "view",
      "type": "function"
    },
    {
      "inputs": [
        {
          "internalType": "address",
          "name": "holder",
          "type": "address"
        },
        {
          "internalType": "address",
          "name": "spender",
          "type": "address"
        },
        {
          "internalType": "uint256",
          "name": "nonce",
          "type": "uint256"
        },
        {
          "internalType": "uint256",
          "name": "expiry",
          "type": "uint256"
        },
        {
          "internalType": "bool",
          "name": "allowed",
          "type": "bool"
        },
        {
          "internalType": "uint8",
          "name": "v",
          "type": "uint8"
        },
        {
          "internalType": "bytes32",
          "name": "r",
          "type": "bytes32"
        },
        {
          "internalType": "bytes32",
          "name": "s",
          "type": "bytes32"
        }
      ],
      "name": "permit",
      "outputs": [],
      "stateMutability": "nonpayable",
      "type": "function"
    },
    {
      "inputs": [],
      "name": "renounceOwnership",
      "outputs": [],
      "stateMutability": "nonpayable",
      "type": "function"
    },
    {
      "inputs": [],
      "name": "symbol",
      "outputs": [
        {
          "internalType": "string",
          "name": "",
          "type": "string"
        }
      ],
      "stateMutability": "view",
      "type": "function"
    },
    {
      "inputs": [],
      "name": "totalSupply",
      "outputs": [
        {
          "internalType": "uint256",
          "name": "",
          "type": "uint256"
        }
      ],
      "stateMutability": "view",
      "type": "function"
    },
    {
      "inputs": [
        {
          "internalType": "address",
          "name": "recipient",
          "type": "address"
        },
        {
          "internalType": "uint256",
          "name": "amount",
          "type": "uint256"
        }
      ],
      "name": "transfer",
      "outputs": [
        {
          "internalType": "bool",
          "name": "",
          "type": "bool"
        }
      ],
      "stateMutability": "nonpayable",
      "type": "function"
    },
    {
      "inputs": [
        {
          "internalType": "address",
          "name": "sender",
          "type": "address"
        },
        {
          "internalType": "address",
          "name": "recipient",
          "type": "address"
        },
        {
          "internalType": "uint256",
          "name": "amount",
          "type": "uint256"
        }
      ],
      "name": "transferFrom",
      "outputs": [
        {
          "internalType": "bool",
          "name": "",
          "type": "bool"
        }
      ],
      "stateMutability": "nonpayable",
      "type": "function"
    },
    {
      "inputs": [
        {
          "internalType": "address",
          "name": "newOwner",
          "type": "address"
        }
      ],
      "name": "transferOwnership",
      "outputs": [],
      "stateMutability": "nonpayable",
      "type": "function"
    },
    {
      "inputs": [],
      "name": "version",
      "outputs": [
        {
          "internalType": "string",
          "name": "",
          "type": "string"
        }
      ],
      "stateMutability": "view",
      "type": "function"
    }
  ],
  "args": [],
  "solcInputHash": "28c8195c7642df595c510e6d4f107e0d",
  "bytecode": "0x608060405234801561001057600080fd5b50613b6a806100206000396000f3fe608060405234801561001057600080fd5b50600436106101585760003560e01c8063715018a6116100c3578063a2f907c11161007c578063a2f907c1146103b7578063a3f4df7e146103d3578063a457c2d7146103f1578063a9059cbb14610421578063dd62ed3e14610451578063f2fde38b1461048157610158565b8063715018a6146103095780637ecebe00146103135780638da5cb5b146103435780638fcbaf0c1461036157806395d89b411461037d5780639dc29fac1461039b57610158565b80633644e515116101155780633644e51514610235578063395093511461025357806340c10f19146102835780634c0db74e1461029f57806354fd4d50146102bb57806370a08231146102d957610158565b806306fdde031461015d578063095ea7b31461017b57806318160ddd146101ab57806323b872dd146101c957806330adf81f146101f9578063313ce56714610217575b600080fd5b61016561049d565b6040516101729190612f96565b60405180910390f35b61019560048036038101906101909190612842565b61052f565b6040516101a29190612e67565b60405180910390f35b6101b361054d565b6040516101c09190613258565b60405180910390f35b6101e360048036038101906101de9190612739565b610557565b6040516101f09190612e67565b60405180910390f35b6102016105dc565b60405161020e9190612e82565b60405180910390f35b61021f610603565b60405161022c9190613273565b60405180910390f35b61023d61061a565b60405161024a9190612e82565b60405180910390f35b61026d60048036038101906102689190612842565b610624565b60405161027a9190612e67565b60405180910390f35b61029d60048036038101906102989190612842565b6106d0565b005b6102b960048036038101906102b49190612882565b61075a565b005b6102c3610958565b6040516102d09190612f96565b60405180910390f35b6102f360048036038101906102ee91906126cc565b6109ea565b6040516103009190613258565b60405180910390f35b610311610a33565b005b61032d600480360381019061032891906126cc565b610abb565b60405161033a9190613258565b60405180910390f35b61034b610b04565b6040516103589190612e4c565b60405180910390f35b61037b6004803603810190610376919061278c565b610b2e565b005b610385610e12565b6040516103929190612f96565b60405180910390f35b6103b560048036038101906103b09190612842565b610ea4565b005b6103d160048036038101906103cc919061294b565b610f2e565b005b6103db6112bc565b6040516103e89190612f96565b60405180910390f35b61040b60048036038101906104069190612842565b6112f5565b6040516104189190612e67565b60405180910390f35b61043b60048036038101906104369190612842565b6113e0565b6040516104489190612e67565b60405180910390f35b61046b600480360381019061046691906126f9565b611463565b6040516104789190613258565b60405180910390f35b61049b600480360381019061049691906126cc565b6114ea565b005b6060606880546104ac906133eb565b80601f01602080910402602001604051908101604052809291908181526020018280546104d8906133eb565b80156105255780601f106104fa57610100808354040283529160200191610525565b820191906000526020600020905b81548152906001019060200180831161050857829003601f168201915b5050505050905090565b600061054361053c6115e2565b84846115ea565b6001905092915050565b6000606754905090565b60003073ffffffffffffffffffffffffffffffffffffffff168373ffffffffffffffffffffffffffffffffffffffff1614156105c8576040517f08c379a00000000000000000000000000000000000000000000000000000000081526004016105bf906131b8565b60405180910390fd5b6105d38484846117b5565b90509392505050565b7fea2aa0a1be11a07ed86d755c93467f4f82362b452371d1ba94d1715123511acb60001b81565b600060c960009054906101000a900460ff16905090565b6000609954905090565b60006106c66106316115e2565b84846066600061063f6115e2565b73ffffffffffffffffffffffffffffffffffffffff1673ffffffffffffffffffffffffffffffffffffffff16815260200190815260200160002060008873ffffffffffffffffffffffffffffffffffffffff1673ffffffffffffffffffffffffffffffffffffffff168152602001908152602001600020546106c191906132c0565b6115ea565b6001905092915050565b6106d86115e2565b73ffffffffffffffffffffffffffffffffffffffff166106f6610b04565b73ffffffffffffffffffffffffffffffffffffffff161461074c576040517f08c379a000000000000000000000000000000000000000000000000000000000815260040161074390613138565b60405180910390fd5b61075682826118ad565b5050565b600060019054906101000a900460ff1680610780575060008054906101000a900460ff16155b6107bf576040517f08c379a00000000000000000000000000000000000000000000000000000000081526004016107b6906130b8565b60405180910390fd5b60008060019054906101000a900460ff16159050801561080f576001600060016101000a81548160ff02191690831515021790555060016000806101000a81548160ff0219169083151502179055505b6108a185858080601f016020809104026020016040519081016040528093929190818152602001838380828437600081840152601f19601f8201169050808301925050505050505084848080601f016020809104026020016040519081016040528093929190818152602001838380828437600081840152601f19601f82011690508083019250505050505050611a0e565b8686609891906108b29291906124e4565b507f8b73c3c69bb8fe3d512ecc4cf759cc79239f7b179b0ffacaa9a75d522b39400f6108dc61049d565b8051906020012088886040516108f3929190612dfc565b60405180910390208a30604051602001610911959493929190612efe565b60405160208183030381529060405280519060200120609981905550801561094e5760008060016101000a81548160ff0219169083151502179055505b5050505050505050565b606060988054610967906133eb565b80601f0160208091040260200160405190810160405280929190818152602001828054610993906133eb565b80156109e05780601f106109b5576101008083540402835291602001916109e0565b820191906000526020600020905b8154815290600101906020018083116109c357829003601f168201915b5050505050905090565b6000606560008373ffffffffffffffffffffffffffffffffffffffff1673ffffffffffffffffffffffffffffffffffffffff168152602001908152602001600020549050919050565b610a3b6115e2565b73ffffffffffffffffffffffffffffffffffffffff16610a59610b04565b73ffffffffffffffffffffffffffffffffffffffff1614610aaf576040517f08c379a0000000000000000000000000000000000000000000000000000000008152600401610aa690613138565b60405180910390fd5b610ab96000611afb565b565b6000609760008373ffffffffffffffffffffffffffffffffffffffff1673ffffffffffffffffffffffffffffffffffffffff168152602001908152602001600020549050919050565b6000603360009054906101000a900473ffffffffffffffffffffffffffffffffffffffff16905090565b6000610b3861061a565b7fea2aa0a1be11a07ed86d755c93467f4f82362b452371d1ba94d1715123511acb60001b8a8a8a8a8a604051602001610b7696959493929190612e9d565b60405160208183030381529060405280519060200120604051602001610b9d929190612e15565b604051602081830303815290604052805190602001209050600073ffffffffffffffffffffffffffffffffffffffff168973ffffffffffffffffffffffffffffffffffffffff161415610c25576040517f08c379a0000000000000000000000000000000000000000000000000000000008152600401610c1c90613218565b60405180910390fd5b60018185858560405160008152602001604052604051610c489493929190612f51565b6020604051602081039080840390855afa158015610c6a573d6000803e3d6000fd5b5050506020604051035173ffffffffffffffffffffffffffffffffffffffff168973ffffffffffffffffffffffffffffffffffffffff1614610ce1576040517f08c379a0000000000000000000000000000000000000000000000000000000008152600401610cd890613058565b60405180910390fd5b6000861480610cf05750854211155b610d2f576040517f08c379a0000000000000000000000000000000000000000000000000000000008152600401610d2690613098565b60405180910390fd5b610d3889610abb565b8714610d79576040517f08c379a0000000000000000000000000000000000000000000000000000000008152600401610d7090612fb8565b60405180910390fd5b600187610d8691906132c0565b609760008b73ffffffffffffffffffffffffffffffffffffffff1673ffffffffffffffffffffffffffffffffffffffff16815260200190815260200160002081905550600085610dd7576000610df9565b7fffffffffffffffffffffffffffffffffffffffffffffffffffffffffffffffff5b9050610e068a8a836115ea565b50505050505050505050565b606060698054610e21906133eb565b80601f0160208091040260200160405190810160405280929190818152602001828054610e4d906133eb565b8015610e9a5780601f10610e6f57610100808354040283529160200191610e9a565b820191906000526020600020905b815481529060010190602001808311610e7d57829003601f168201915b5050505050905090565b610eac6115e2565b73ffffffffffffffffffffffffffffffffffffffff16610eca610b04565b73ffffffffffffffffffffffffffffffffffffffff1614610f20576040517f08c379a0000000000000000000000000000000000000000000000000000000008152600401610f1790613138565b60405180910390fd5b610f2a8282611bc1565b5050565b600060019054906101000a900460ff1680610f54575060008054906101000a900460ff16155b610f93576040517f08c379a0000000000000000000000000000000000000000000000000000000008152600401610f8a906130b8565b60405180910390fd5b60008060019054906101000a900460ff161590508015610fe3576001600060016101000a81548160ff02191690831515021790555060016000806101000a81548160ff0219169083151502179055505b61103089898080601f016020809104026020016040519081016040528093929190818152602001838380828437600081840152601f19601f82011690508083019250505050505050611d9a565b61106f576040517f08c379a000000000000000000000000000000000000000000000000000000000815260040161106690613158565b60405180910390fd5b6110bc87878080601f016020809104026020016040519081016040528093929190818152602001838380828437600081840152601f19601f82011690508083019250505050505050611d9a565b6110fb576040517f08c379a00000000000000000000000000000000000000000000000000000000081526004016110f2906130d8565b60405180910390fd5b61114885858080601f016020809104026020016040519081016040528093929190818152602001838380828437600081840152601f19601f82011690508083019250505050505050611d9a565b611187576040517f08c379a000000000000000000000000000000000000000000000000000000000815260040161117e906130f8565b60405180910390fd5b61118f611dbd565b61122187878080601f016020809104026020016040519081016040528093929190818152602001838380828437600081840152601f19601f8201169050808301925050505050505086868080601f016020809104026020016040519081016040528093929190818152602001838380828437600081840152601f19601f82011690508083019250505050505050611a0e565b6112308a8a8a8a8a8a8a61075a565b8260c960006101000a81548160ff021916908360ff1602179055508173ffffffffffffffffffffffffffffffffffffffff1661126a610b04565b73ffffffffffffffffffffffffffffffffffffffff161461128f5761128e826114ea565b5b80156112b05760008060016101000a81548160ff0219169083151502179055505b50505050505050505050565b6040518060400160405280600881526020017f52656e417373657400000000000000000000000000000000000000000000000081525081565b600080606660006113046115e2565b73ffffffffffffffffffffffffffffffffffffffff1673ffffffffffffffffffffffffffffffffffffffff16815260200190815260200160002060008573ffffffffffffffffffffffffffffffffffffffff1673ffffffffffffffffffffffffffffffffffffffff168152602001908152602001600020549050828110156113c1576040517f08c379a00000000000000000000000000000000000000000000000000000000081526004016113b8906131f8565b60405180910390fd5b6113d56113cc6115e2565b858584036115ea565b600191505092915050565b60003073ffffffffffffffffffffffffffffffffffffffff168373ffffffffffffffffffffffffffffffffffffffff161415611451576040517f08c379a0000000000000000000000000000000000000000000000000000000008152600401611448906131b8565b60405180910390fd5b61145b8383611ea6565b905092915050565b6000606660008473ffffffffffffffffffffffffffffffffffffffff1673ffffffffffffffffffffffffffffffffffffffff16815260200190815260200160002060008373ffffffffffffffffffffffffffffffffffffffff1673ffffffffffffffffffffffffffffffffffffffff16815260200190815260200160002054905092915050565b6114f26115e2565b73ffffffffffffffffffffffffffffffffffffffff16611510610b04565b73ffffffffffffffffffffffffffffffffffffffff1614611566576040517f08c379a000000000000000000000000000000000000000000000000000000000815260040161155d90613138565b60405180910390fd5b600073ffffffffffffffffffffffffffffffffffffffff168173ffffffffffffffffffffffffffffffffffffffff1614156115d6576040517f08c379a00000000000000000000000000000000000000000000000000000000081526004016115cd90613018565b60405180910390fd5b6115df81611afb565b50565b600033905090565b600073ffffffffffffffffffffffffffffffffffffffff168373ffffffffffffffffffffffffffffffffffffffff16141561165a576040517f08c379a0000000000000000000000000000000000000000000000000000000008152600401611651906131d8565b60405180910390fd5b600073ffffffffffffffffffffffffffffffffffffffff168273ffffffffffffffffffffffffffffffffffffffff1614156116ca576040517f08c379a00000000000000000000000000000000000000000000000000000000081526004016116c190613038565b60405180910390fd5b80606660008573ffffffffffffffffffffffffffffffffffffffff1673ffffffffffffffffffffffffffffffffffffffff16815260200190815260200160002060008473ffffffffffffffffffffffffffffffffffffffff1673ffffffffffffffffffffffffffffffffffffffff168152602001908152602001600020819055508173ffffffffffffffffffffffffffffffffffffffff168373ffffffffffffffffffffffffffffffffffffffff167f8c5be1e5ebec7d5bd14f71427d1e84f3dd0314c0f7b2291e5b200ac8c7c3b925836040516117a89190613258565b60405180910390a3505050565b60006117c2848484611ec4565b6000606660008673ffffffffffffffffffffffffffffffffffffffff1673ffffffffffffffffffffffffffffffffffffffff168152602001908152602001600020600061180d6115e2565b73ffffffffffffffffffffffffffffffffffffffff1673ffffffffffffffffffffffffffffffffffffffff1681526020019081526020016000205490508281101561188d576040517f08c379a000000000000000000000000000000000000000000000000000000000815260040161188490613118565b60405180910390fd5b6118a1856118996115e2565b8584036115ea565b60019150509392505050565b600073ffffffffffffffffffffffffffffffffffffffff168273ffffffffffffffffffffffffffffffffffffffff16141561191d576040517f08c379a000000000000000000000000000000000000000000000000000000000815260040161191490613238565b60405180910390fd5b61192960008383612148565b806067600082825461193b91906132c0565b9250508190555080606560008473ffffffffffffffffffffffffffffffffffffffff1673ffffffffffffffffffffffffffffffffffffffff168152602001908152602001600020600082825461199191906132c0565b925050819055508173ffffffffffffffffffffffffffffffffffffffff16600073ffffffffffffffffffffffffffffffffffffffff167fddf252ad1be2c89b69c2b068fc378daa952ba7f163c4a11628f55a4df523b3ef836040516119f69190613258565b60405180910390a3611a0a6000838361214d565b5050565b600060019054906101000a900460ff1680611a34575060008054906101000a900460ff16155b611a73576040517f08c379a0000000000000000000000000000000000000000000000000000000008152600401611a6a906130b8565b60405180910390fd5b60008060019054906101000a900460ff161590508015611ac3576001600060016101000a81548160ff02191690831515021790555060016000806101000a81548160ff0219169083151502179055505b611acb612152565b611ad5838361222b565b8015611af65760008060016101000a81548160ff0219169083151502179055505b505050565b6000603360009054906101000a900473ffffffffffffffffffffffffffffffffffffffff16905081603360006101000a81548173ffffffffffffffffffffffffffffffffffffffff021916908373ffffffffffffffffffffffffffffffffffffffff1602179055508173ffffffffffffffffffffffffffffffffffffffff168173ffffffffffffffffffffffffffffffffffffffff167f8be0079c531659141344cd1fd0a4f28419497f9722a3daafe3b4186f6b6457e060405160405180910390a35050565b600073ffffffffffffffffffffffffffffffffffffffff168273ffffffffffffffffffffffffffffffffffffffff161415611c31576040517f08c379a0000000000000000000000000000000000000000000000000000000008152600401611c2890613178565b60405180910390fd5b611c3d82600083612148565b6000606560008473ffffffffffffffffffffffffffffffffffffffff1673ffffffffffffffffffffffffffffffffffffffff16815260200190815260200160002054905081811015611cc4576040517f08c379a0000000000000000000000000000000000000000000000000000000008152600401611cbb90612ff8565b60405180910390fd5b818103606560008573ffffffffffffffffffffffffffffffffffffffff1673ffffffffffffffffffffffffffffffffffffffff168152602001908152602001600020819055508160676000828254611d1c9190613316565b92505081905550600073ffffffffffffffffffffffffffffffffffffffff168373ffffffffffffffffffffffffffffffffffffffff167fddf252ad1be2c89b69c2b068fc378daa952ba7f163c4a11628f55a4df523b3ef84604051611d819190613258565b60405180910390a3611d958360008461214d565b505050565b6000611da582612334565b8015611db65750611db582612341565b5b9050919050565b600060019054906101000a900460ff1680611de3575060008054906101000a900460ff16155b611e22576040517f08c379a0000000000000000000000000000000000000000000000000000000008152600401611e19906130b8565b60405180910390fd5b60008060019054906101000a900460ff161590508015611e72576001600060016101000a81548160ff02191690831515021790555060016000806101000a81548160ff0219169083151502179055505b611e7a612152565b611e826123fb565b8015611ea35760008060016101000a81548160ff0219169083151502179055505b50565b6000611eba611eb36115e2565b8484611ec4565b6001905092915050565b600073ffffffffffffffffffffffffffffffffffffffff168373ffffffffffffffffffffffffffffffffffffffff161415611f34576040517f08c379a0000000000000000000000000000000000000000000000000000000008152600401611f2b90613198565b60405180910390fd5b600073ffffffffffffffffffffffffffffffffffffffff168273ffffffffffffffffffffffffffffffffffffffff161415611fa4576040517f08c379a0000000000000000000000000000000000000000000000000000000008152600401611f9b90612fd8565b60405180910390fd5b611faf838383612148565b6000606560008573ffffffffffffffffffffffffffffffffffffffff1673ffffffffffffffffffffffffffffffffffffffff16815260200190815260200160002054905081811015612036576040517f08c379a000000000000000000000000000000000000000000000000000000000815260040161202d90613078565b60405180910390fd5b818103606560008673ffffffffffffffffffffffffffffffffffffffff1673ffffffffffffffffffffffffffffffffffffffff1681526020019081526020016000208190555081606560008573ffffffffffffffffffffffffffffffffffffffff1673ffffffffffffffffffffffffffffffffffffffff16815260200190815260200160002060008282546120cb91906132c0565b925050819055508273ffffffffffffffffffffffffffffffffffffffff168473ffffffffffffffffffffffffffffffffffffffff167fddf252ad1be2c89b69c2b068fc378daa952ba7f163c4a11628f55a4df523b3ef8460405161212f9190613258565b60405180910390a361214284848461214d565b50505050565b505050565b505050565b600060019054906101000a900460ff1680612178575060008054906101000a900460ff16155b6121b7576040517f08c379a00000000000000000000000000000000000000000000000000000000081526004016121ae906130b8565b60405180910390fd5b60008060019054906101000a900460ff161590508015612207576001600060016101000a81548160ff02191690831515021790555060016000806101000a81548160ff0219169083151502179055505b80156122285760008060016101000a81548160ff0219169083151502179055505b50565b600060019054906101000a900460ff1680612251575060008054906101000a900460ff16155b612290576040517f08c379a0000000000000000000000000000000000000000000000000000000008152600401612287906130b8565b60405180910390fd5b60008060019054906101000a900460ff1615905080156122e0576001600060016101000a81548160ff02191690831515021790555060016000806101000a81548160ff0219169083151502179055505b82606890805190602001906122f692919061256a565b50816069908051906020019061230d92919061256a565b50801561232f5760008060016101000a81548160ff0219169083151502179055505b505050565b6000808251119050919050565b600080600090505b82518110156123f0576000838281518110612367576123666134ce565b5b602001015160f81c60f81b60f81c905060418160ff161015801561238f5750605a8160ff1611155b806123ae575060618160ff16101580156123ad5750607a8160ff1611155b5b806123cd575060308160ff16101580156123cc575060398160ff1611155b5b6123dc576000925050506123f6565b5080806123e89061341d565b915050612349565b50600190505b919050565b600060019054906101000a900460ff1680612421575060008054906101000a900460ff16155b612460576040517f08c379a0000000000000000000000000000000000000000000000000000000008152600401612457906130b8565b60405180910390fd5b60008060019054906101000a900460ff1615905080156124b0576001600060016101000a81548160ff02191690831515021790555060016000806101000a81548160ff0219169083151502179055505b6124c06124bb6115e2565b611afb565b80156124e15760008060016101000a81548160ff0219169083151502179055505b50565b8280546124f0906133eb565b90600052602060002090601f0160209004810192826125125760008555612559565b82601f1061252b57803560ff1916838001178555612559565b82800160010185558215612559579182015b8281111561255857823582559160200191906001019061253d565b5b50905061256691906125f0565b5090565b828054612576906133eb565b90600052602060002090601f01602090048101928261259857600085556125df565b82601f106125b157805160ff19168380011785556125df565b828001600101855582156125df579182015b828111156125de5782518255916020019190600101906125c3565b5b5090506125ec91906125f0565b5090565b5b808211156126095760008160009055506001016125f1565b5090565b60008135905061261c81613ac1565b92915050565b60008135905061263181613ad8565b92915050565b60008135905061264681613aef565b92915050565b60008083601f84011261266257612661613502565b5b8235905067ffffffffffffffff81111561267f5761267e6134fd565b5b60208301915083600182028301111561269b5761269a613507565b5b9250929050565b6000813590506126b181613b06565b92915050565b6000813590506126c681613b1d565b92915050565b6000602082840312156126e2576126e1613511565b5b60006126f08482850161260d565b91505092915050565b600080604083850312156127105761270f613511565b5b600061271e8582860161260d565b925050602061272f8582860161260d565b9150509250929050565b60008060006060848603121561275257612751613511565b5b60006127608682870161260d565b93505060206127718682870161260d565b9250506040612782868287016126a2565b9150509250925092565b600080600080600080600080610100898b0312156127ad576127ac613511565b5b60006127bb8b828c0161260d565b98505060206127cc8b828c0161260d565b97505060406127dd8b828c016126a2565b96505060606127ee8b828c016126a2565b95505060806127ff8b828c01612622565b94505060a06128108b828c016126b7565b93505060c06128218b828c01612637565b92505060e06128328b828c01612637565b9150509295985092959890939650565b6000806040838503121561285957612858613511565b5b60006128678582860161260d565b9250506020612878858286016126a2565b9150509250929050565b60008060008060008060006080888a0312156128a1576128a0613511565b5b60006128af8a828b016126a2565b975050602088013567ffffffffffffffff8111156128d0576128cf61350c565b5b6128dc8a828b0161264c565b9650965050604088013567ffffffffffffffff8111156128ff576128fe61350c565b5b61290b8a828b0161264c565b9450945050606088013567ffffffffffffffff81111561292e5761292d61350c565b5b61293a8a828b0161264c565b925092505092959891949750929550565b600080600080600080600080600060c08a8c03121561296d5761296c613511565b5b600061297b8c828d016126a2565b99505060208a013567ffffffffffffffff81111561299c5761299b61350c565b5b6129a88c828d0161264c565b985098505060408a013567ffffffffffffffff8111156129cb576129ca61350c565b5b6129d78c828d0161264c565b965096505060608a013567ffffffffffffffff8111156129fa576129f961350c565b5b612a068c828d0161264c565b94509450506080612a198c828d016126b7565b92505060a0612a2a8c828d0161260d565b9150509295985092959850929598565b612a438161334a565b82525050565b612a528161335c565b82525050565b612a6181613368565b82525050565b612a78612a7382613368565b613466565b82525050565b6000612a8a8385613299565b9350612a978385846133a9565b82840190509392505050565b6000612aae8261328e565b612ab881856132a4565b9350612ac88185602086016133b8565b612ad181613516565b840191505092915050565b6000612ae9601c836132a4565b9150612af482613527565b602082019050919050565b6000612b0c6023836132a4565b9150612b1782613550565b604082019050919050565b6000612b2f6022836132a4565b9150612b3a8261359f565b604082019050919050565b6000612b526026836132a4565b9150612b5d826135ee565b604082019050919050565b6000612b756022836132a4565b9150612b808261363d565b604082019050919050565b6000612b986002836132b5565b9150612ba38261368c565b600282019050919050565b6000612bbb6020836132a4565b9150612bc6826136b5565b602082019050919050565b6000612bde6026836132a4565b9150612be9826136de565b604082019050919050565b6000612c016021836132a4565b9150612c0c8261372d565b604082019050919050565b6000612c24602e836132a4565b9150612c2f8261377c565b604082019050919050565b6000612c476016836132a4565b9150612c52826137cb565b602082019050919050565b6000612c6a6018836132a4565b9150612c75826137f4565b602082019050919050565b6000612c8d6028836132a4565b9150612c988261381d565b604082019050919050565b6000612cb06020836132a4565b9150612cbb8261386c565b602082019050919050565b6000612cd36019836132a4565b9150612cde82613895565b602082019050919050565b6000612cf66021836132a4565b9150612d01826138be565b604082019050919050565b6000612d196025836132a4565b9150612d248261390d565b604082019050919050565b6000612d3c6029836132a4565b9150612d478261395c565b604082019050919050565b6000612d5f6024836132a4565b9150612d6a826139ab565b604082019050919050565b6000612d826025836132a4565b9150612d8d826139fa565b604082019050919050565b6000612da56026836132a4565b9150612db082613a49565b604082019050919050565b6000612dc8601f836132a4565b9150612dd382613a98565b602082019050919050565b612de781613392565b82525050565b612df68161339c565b82525050565b6000612e09828486612a7e565b91508190509392505050565b6000612e2082612b8b565b9150612e2c8285612a67565b602082019150612e3c8284612a67565b6020820191508190509392505050565b6000602082019050612e616000830184612a3a565b92915050565b6000602082019050612e7c6000830184612a49565b92915050565b6000602082019050612e976000830184612a58565b92915050565b600060c082019050612eb26000830189612a58565b612ebf6020830188612a3a565b612ecc6040830187612a3a565b612ed96060830186612dde565b612ee66080830185612dde565b612ef360a0830184612a49565b979650505050505050565b600060a082019050612f136000830188612a58565b612f206020830187612a58565b612f2d6040830186612a58565b612f3a6060830185612dde565b612f476080830184612a3a565b9695505050505050565b6000608082019050612f666000830187612a58565b612f736020830186612ded565b612f806040830185612a58565b612f8d6060830184612a58565b95945050505050565b60006020820190508181036000830152612fb08184612aa3565b905092915050565b60006020820190508181036000830152612fd181612adc565b9050919050565b60006020820190508181036000830152612ff181612aff565b9050919050565b6000602082019050818103600083015261301181612b22565b9050919050565b6000602082019050818103600083015261303181612b45565b9050919050565b6000602082019050818103600083015261305181612b68565b9050919050565b6000602082019050818103600083015261307181612bae565b9050919050565b6000602082019050818103600083015261309181612bd1565b9050919050565b600060208201905081810360008301526130b181612bf4565b9050919050565b600060208201905081810360008301526130d181612c17565b9050919050565b600060208201905081810360008301526130f181612c3a565b9050919050565b6000602082019050818103600083015261311181612c5d565b9050919050565b6000602082019050818103600083015261313181612c80565b9050919050565b6000602082019050818103600083015261315181612ca3565b9050919050565b6000602082019050818103600083015261317181612cc6565b9050919050565b6000602082019050818103600083015261319181612ce9565b9050919050565b600060208201905081810360008301526131b181612d0c565b9050919050565b600060208201905081810360008301526131d181612d2f565b9050919050565b600060208201905081810360008301526131f181612d52565b9050919050565b6000602082019050818103600083015261321181612d75565b9050919050565b6000602082019050818103600083015261323181612d98565b9050919050565b6000602082019050818103600083015261325181612dbb565b9050919050565b600060208201905061326d6000830184612dde565b92915050565b60006020820190506132886000830184612ded565b92915050565b600081519050919050565b600081905092915050565b600082825260208201905092915050565b600081905092915050565b60006132cb82613392565b91506132d683613392565b9250827fffffffffffffffffffffffffffffffffffffffffffffffffffffffffffffffff0382111561330b5761330a613470565b5b828201905092915050565b600061332182613392565b915061332c83613392565b92508282101561333f5761333e613470565b5b828203905092915050565b600061335582613372565b9050919050565b60008115159050919050565b6000819050919050565b600073ffffffffffffffffffffffffffffffffffffffff82169050919050565b6000819050919050565b600060ff82169050919050565b82818337600083830152505050565b60005b838110156133d65780820151818401526020810190506133bb565b838111156133e5576000848401525b50505050565b6000600282049050600182168061340357607f821691505b602082108114156134175761341661349f565b5b50919050565b600061342882613392565b91507fffffffffffffffffffffffffffffffffffffffffffffffffffffffffffffffff82141561345b5761345a613470565b5b600182019050919050565b6000819050919050565b7f4e487b7100000000000000000000000000000000000000000000000000000000600052601160045260246000fd5b7f4e487b7100000000000000000000000000000000000000000000000000000000600052602260045260246000fd5b7f4e487b7100000000000000000000000000000000000000000000000000000000600052603260045260246000fd5b600080fd5b600080fd5b600080fd5b600080fd5b600080fd5b6000601f19601f8301169050919050565b7f455243323057697468526174653a20696e76616c6964206e6f6e636500000000600082015250565b7f45524332303a207472616e7366657220746f20746865207a65726f206164647260008201527f6573730000000000000000000000000000000000000000000000000000000000602082015250565b7f45524332303a206275726e20616d6f756e7420657863656564732062616c616e60008201527f6365000000000000000000000000000000000000000000000000000000000000602082015250565b7f4f776e61626c653a206e6577206f776e657220697320746865207a65726f206160008201527f6464726573730000000000000000000000000000000000000000000000000000602082015250565b7f45524332303a20617070726f766520746f20746865207a65726f20616464726560008201527f7373000000000000000000000000000000000000000000000000000000000000602082015250565b7f1901000000000000000000000000000000000000000000000000000000000000600082015250565b7f455243323057697468526174653a20696e76616c6964207369676e6174757265600082015250565b7f45524332303a207472616e7366657220616d6f756e742065786365656473206260008201527f616c616e63650000000000000000000000000000000000000000000000000000602082015250565b7f455243323057697468526174653a207065726d6974206861732065787069726560008201527f6400000000000000000000000000000000000000000000000000000000000000602082015250565b7f496e697469616c697a61626c653a20636f6e747261637420697320616c72656160008201527f647920696e697469616c697a6564000000000000000000000000000000000000602082015250565b7f52656e41737365743a20696e76616c6964206e616d6500000000000000000000600082015250565b7f52656e41737365743a20696e76616c69642073796d626f6c0000000000000000600082015250565b7f45524332303a207472616e7366657220616d6f756e742065786365656473206160008201527f6c6c6f77616e6365000000000000000000000000000000000000000000000000602082015250565b7f4f776e61626c653a2063616c6c6572206973206e6f7420746865206f776e6572600082015250565b7f52656e41737365743a20696e76616c69642076657273696f6e00000000000000600082015250565b7f45524332303a206275726e2066726f6d20746865207a65726f2061646472657360008201527f7300000000000000000000000000000000000000000000000000000000000000602082015250565b7f45524332303a207472616e736665722066726f6d20746865207a65726f20616460008201527f6472657373000000000000000000000000000000000000000000000000000000602082015250565b7f52656e45524332303a2063616e2774207472616e7366657220746f20746f6b6560008201527f6e20616464726573730000000000000000000000000000000000000000000000602082015250565b7f45524332303a20617070726f76652066726f6d20746865207a65726f2061646460008201527f7265737300000000000000000000000000000000000000000000000000000000602082015250565b7f45524332303a2064656372656173656420616c6c6f77616e63652062656c6f7760008201527f207a65726f000000000000000000000000000000000000000000000000000000602082015250565b7f455243323057697468526174653a2061646472657373206d757374206e6f742060008201527f6265203078300000000000000000000000000000000000000000000000000000602082015250565b7f45524332303a206d696e7420746f20746865207a65726f206164647265737300600082015250565b613aca8161334a565b8114613ad557600080fd5b50565b613ae18161335c565b8114613aec57600080fd5b50565b613af881613368565b8114613b0357600080fd5b50565b613b0f81613392565b8114613b1a57600080fd5b50565b613b268161339c565b8114613b3157600080fd5b5056fea264697066735822122036a954a3c26109b586aca04fec61944b28eea5149d0fecc45378e6830443532564736f6c63430008070033",
  "devdoc": {
    "kind": "dev",
    "methods": {
      "allowance(address,address)": {
        "details": "See {IERC20-allowance}."
      },
      "approve(address,uint256)": {
        "details": "See {IERC20-approve}. Requirements: - `spender` cannot be the zero address."
      },
      "balanceOf(address)": {
        "details": "See {IERC20-balanceOf}."
      },
      "decimals()": {
        "details": "Returns the number of decimals used to get its user representation. For example, if `decimals` equals `2`, a balance of `505` tokens should be displayed to a user as `5.05` (`505 / 10 ** 2`). Tokens usually opt for a value of 18, imitating the relationship between Ether and Wei. This is the value {ERC20} uses, unless this function is overridden; NOTE: This information is only used for _display_ purposes: it in no way affects any of the arithmetic of the contract, including {IERC20-balanceOf} and {IERC20-transfer}."
      },
      "decreaseAllowance(address,uint256)": {
        "details": "Atomically decreases the allowance granted to `spender` by the caller. This is an alternative to {approve} that can be used as a mitigation for problems described in {IERC20-approve}. Emits an {Approval} event indicating the updated allowance. Requirements: - `spender` cannot be the zero address. - `spender` must have allowance for the caller of at least `subtractedValue`."
      },
      "increaseAllowance(address,uint256)": {
        "details": "Atomically increases the allowance granted to `spender` by the caller. This is an alternative to {approve} that can be used as a mitigation for problems described in {IERC20-approve}. Emits an {Approval} event indicating the updated allowance. Requirements: - `spender` cannot be the zero address."
      },
      "name()": {
        "details": "Returns the name of the token."
      },
      "owner()": {
        "details": "Returns the address of the current owner."
      },
      "renounceOwnership()": {
        "details": "Leaves the contract without owner. It will not be possible to call `onlyOwner` functions anymore. Can only be called by the current owner. NOTE: Renouncing ownership will leave the contract without an owner, thereby removing any functionality that is only available to the owner."
      },
      "symbol()": {
        "details": "Returns the symbol of the token, usually a shorter version of the name."
      },
      "totalSupply()": {
        "details": "See {IERC20-totalSupply}."
      },
      "transfer(address,uint256)": {
        "details": "See {IERC20-transfer}. Requirements: - `recipient` cannot be the zero address. - the caller must have a balance of at least `amount`."
      },
      "transferFrom(address,address,uint256)": {
        "details": "See {IERC20-transferFrom}. Emits an {Approval} event indicating the updated allowance. This is not required by the EIP. See the note at the beginning of {ERC20}. Requirements: - `sender` and `recipient` cannot be the zero address. - `sender` must have a balance of at least `amount`. - the caller must have allowance for ``sender``'s tokens of at least `amount`."
      },
      "transferOwnership(address)": {
        "details": "Transfers ownership of the contract to a new account (`newOwner`). Can only be called by the current owner."
      }
    },
    "version": 1
  },
  "userdoc": {
    "kind": "user",
    "methods": {
      "burn(address,uint256)": {
        "notice": "burn can only be called by the tokens' associated Gateway contract. See Gateway's burn functions instead."
      },
      "mint(address,uint256)": {
        "notice": "mint can only be called by the tokens' associated Gateway contract. See Gateway's mint function instead."
      }
    },
    "notice": "RenAsset represents a digital asset that has been bridged by RenVM. It exposes mint and burn functions that can only be called by it's associated MintGateway contract.",
    "version": 1
  },
  "storageLayout": {
    "storage": [
      {
        "astId": 773,
        "contract": "src/RenAsset/RenAsset.sol:RenAssetV2",
        "label": "_initialized",
        "offset": 0,
        "slot": "0",
        "type": "t_bool"
      },
      {
        "astId": 776,
        "contract": "src/RenAsset/RenAsset.sol:RenAssetV2",
        "label": "_initializing",
        "offset": 1,
        "slot": "0",
        "type": "t_bool"
      },
      {
        "astId": 2463,
        "contract": "src/RenAsset/RenAsset.sol:RenAssetV2",
        "label": "__gap",
        "offset": 0,
        "slot": "1",
        "type": "t_array(t_uint256)50_storage"
      },
      {
        "astId": 653,
        "contract": "src/RenAsset/RenAsset.sol:RenAssetV2",
        "label": "_owner",
        "offset": 0,
        "slot": "51",
        "type": "t_address"
      },
      {
        "astId": 766,
        "contract": "src/RenAsset/RenAsset.sol:RenAssetV2",
        "label": "__gap",
        "offset": 0,
        "slot": "52",
        "type": "t_array(t_uint256)49_storage"
      },
      {
        "astId": 945,
        "contract": "src/RenAsset/RenAsset.sol:RenAssetV2",
        "label": "_balances",
        "offset": 0,
        "slot": "101",
        "type": "t_mapping(t_address,t_uint256)"
      },
      {
        "astId": 951,
        "contract": "src/RenAsset/RenAsset.sol:RenAssetV2",
        "label": "_allowances",
        "offset": 0,
        "slot": "102",
        "type": "t_mapping(t_address,t_mapping(t_address,t_uint256))"
      },
      {
        "astId": 953,
        "contract": "src/RenAsset/RenAsset.sol:RenAssetV2",
        "label": "_totalSupply",
        "offset": 0,
        "slot": "103",
        "type": "t_uint256"
      },
      {
        "astId": 955,
        "contract": "src/RenAsset/RenAsset.sol:RenAssetV2",
        "label": "_name",
        "offset": 0,
        "slot": "104",
        "type": "t_string_storage"
      },
      {
        "astId": 957,
        "contract": "src/RenAsset/RenAsset.sol:RenAssetV2",
        "label": "_symbol",
        "offset": 0,
        "slot": "105",
        "type": "t_string_storage"
      },
      {
        "astId": 1498,
        "contract": "src/RenAsset/RenAsset.sol:RenAssetV2",
        "label": "__gap",
        "offset": 0,
        "slot": "106",
        "type": "t_array(t_uint256)45_storage"
      },
      {
        "astId": 10495,
        "contract": "src/RenAsset/RenAsset.sol:RenAssetV2",
        "label": "_nonces",
        "offset": 0,
        "slot": "151",
        "type": "t_mapping(t_address,t_uint256)"
      },
      {
        "astId": 10497,
        "contract": "src/RenAsset/RenAsset.sol:RenAssetV2",
        "label": "_version",
        "offset": 0,
        "slot": "152",
        "type": "t_string_storage"
      },
      {
        "astId": 10499,
        "contract": "src/RenAsset/RenAsset.sol:RenAssetV2",
        "label": "_domainSeparator",
        "offset": 0,
        "slot": "153",
        "type": "t_bytes32"
      },
      {
        "astId": 10503,
        "contract": "src/RenAsset/RenAsset.sol:RenAssetV2",
        "label": "__gap",
        "offset": 0,
        "slot": "154",
        "type": "t_array(t_uint256)47_storage"
      },
      {
        "astId": 10726,
        "contract": "src/RenAsset/RenAsset.sol:RenAssetV2",
        "label": "_decimals",
        "offset": 0,
        "slot": "201",
        "type": "t_uint8"
      },
      {
        "astId": 10730,
        "contract": "src/RenAsset/RenAsset.sol:RenAssetV2",
        "label": "__gap",
        "offset": 0,
        "slot": "202",
        "type": "t_array(t_uint256)49_storage"
      }
    ],
    "types": {
      "t_address": {
        "encoding": "inplace",
        "label": "address",
        "numberOfBytes": "20"
      },
      "t_array(t_uint256)45_storage": {
        "base": "t_uint256",
        "encoding": "inplace",
        "label": "uint256[45]",
        "numberOfBytes": "1440"
      },
      "t_array(t_uint256)47_storage": {
        "base": "t_uint256",
        "encoding": "inplace",
        "label": "uint256[47]",
        "numberOfBytes": "1504"
      },
      "t_array(t_uint256)49_storage": {
        "base": "t_uint256",
        "encoding": "inplace",
        "label": "uint256[49]",
        "numberOfBytes": "1568"
      },
      "t_array(t_uint256)50_storage": {
        "base": "t_uint256",
        "encoding": "inplace",
        "label": "uint256[50]",
        "numberOfBytes": "1600"
      },
      "t_bool": {
        "encoding": "inplace",
        "label": "bool",
        "numberOfBytes": "1"
      },
      "t_bytes32": {
        "encoding": "inplace",
        "label": "bytes32",
        "numberOfBytes": "32"
      },
      "t_mapping(t_address,t_mapping(t_address,t_uint256))": {
        "encoding": "mapping",
        "key": "t_address",
        "label": "mapping(address => mapping(address => uint256))",
        "numberOfBytes": "32",
        "value": "t_mapping(t_address,t_uint256)"
      },
      "t_mapping(t_address,t_uint256)": {
        "encoding": "mapping",
        "key": "t_address",
        "label": "mapping(address => uint256)",
        "numberOfBytes": "32",
        "value": "t_uint256"
      },
      "t_string_storage": {
        "encoding": "bytes",
        "label": "string",
        "numberOfBytes": "32"
      },
      "t_uint256": {
        "encoding": "inplace",
        "label": "uint256",
        "numberOfBytes": "32"
      },
      "t_uint8": {
        "encoding": "inplace",
        "label": "uint8",
        "numberOfBytes": "1"
      }
    }
  }
}