{
  "address": "0xc6BD1169a7cF10128AD810A6Bb13C93941F28269",
  "abi": [
    {
      "inputs": [
        {
          "internalType": "address",
          "name": "initialOwner",
          "type": "address"
        }
      ],
      "stateMutability": "nonpayable",
      "type": "constructor"
    },
    {
      "anonymous": false,
      "inputs": [
        {
          "indexed": true,
          "internalType": "address",
          "name": "previousOwner",
          "type": "address"
        },
        {
          "indexed": true,
          "internalType": "address",
          "name": "newOwner",
          "type": "address"
        }
      ],
      "name": "OwnershipTransferred",
      "type": "event"
    },
    {
      "inputs": [],
      "name": "NAME",
      "outputs": [
        {
          "internalType": "string",
          "name": "",
          "type": "string"
        }
      ],
      "stateMutability": "view",
      "type": "function"
    },
    {
      "inputs": [
        {
          "internalType": "contract TransparentUpgradeableProxy",
          "name": "proxy",
          "type": "address"
        },
        {
          "internalType": "address",
          "name": "newAdmin",
          "type": "address"
        }
      ],
      "name": "changeProxyAdmin",
      "outputs": [],
      "stateMutability": "nonpayable",
      "type": "function"
    },
    {
      "inputs": [
        {
          "internalType": "contract TransparentUpgradeableProxy",
          "name": "proxy",
          "type": "address"
        }
      ],
      "name": "getProxyAdmin",
      "outputs": [
        {
          "internalType": "address",
          "name": "",
          "type": "address"
        }
      ],
      "stateMutability": "view",
      "type": "function"
    },
    {
      "inputs": [
        {
          "internalType": "contract TransparentUpgradeableProxy",
          "name": "proxy",
          "type": "address"
        }
      ],
      "name": "getProxyImplementation",
      "outputs": [
        {
          "internalType": "address",
          "name": "",
          "type": "address"
        }
      ],
      "stateMutability": "view",
      "type": "function"
    },
    {
      "inputs": [],
      "name": "owner",
      "outputs": [
        {
          "internalType": "address",
          "name": "",
          "type": "address"
        }
      ],
      "stateMutability": "view",
      "type": "function"
    },
    {
      "inputs": [],
      "name": "renounceOwnership",
      "outputs": [],
      "stateMutability": "nonpayable",
      "type": "function"
    },
    {
      "inputs": [
        {
          "internalType": "address",
          "name": "newOwner",
          "type": "address"
        }
      ],
      "name": "transferOwnership",
      "outputs": [],
      "stateMutability": "nonpayable",
      "type": "function"
    },
    {
      "inputs": [
        {
          "internalType": "contract TransparentUpgradeableProxy",
          "name": "proxy",
          "type": "address"
        },
        {
          "internalType": "address",
          "name": "implementation",
          "type": "address"
        }
      ],
      "name": "upgrade",
      "outputs": [],
      "stateMutability": "nonpayable",
      "type": "function"
    },
    {
      "inputs": [
        {
          "internalType": "contract TransparentUpgradeableProxy",
          "name": "proxy",
          "type": "address"
        },
        {
          "internalType": "address",
          "name": "implementation",
          "type": "address"
        },
        {
          "internalType": "bytes",
          "name": "data",
          "type": "bytes"
        }
      ],
      "name": "upgradeAndCall",
      "outputs": [],
      "stateMutability": "payable",
      "type": "function"
    }
  ],
  "args": [
    "0xD5B5b26521665Cb37623DCA0E49c553b41dbF076"
  ],
  "solcInputHash": "28c8195c7642df595c510e6d4f107e0d",
  "bytecode": "0x60806040523480156200001157600080fd5b50604051620013a9380380620013a9833981810160405281019062000037919062000291565b620000576200004b6200006f60201b60201c565b6200007760201b60201c565b62000068816200013b60201b60201c565b5062000431565b600033905090565b60008060009054906101000a900473ffffffffffffffffffffffffffffffffffffffff169050816000806101000a81548173ffffffffffffffffffffffffffffffffffffffff021916908373ffffffffffffffffffffffffffffffffffffffff1602179055508173ffffffffffffffffffffffffffffffffffffffff168173ffffffffffffffffffffffffffffffffffffffff167f8be0079c531659141344cd1fd0a4f28419497f9722a3daafe3b4186f6b6457e060405160405180910390a35050565b6200014b6200006f60201b60201c565b73ffffffffffffffffffffffffffffffffffffffff16620001716200025160201b60201c565b73ffffffffffffffffffffffffffffffffffffffff1614620001ca576040517f08c379a0000000000000000000000000000000000000000000000000000000008152600401620001c19062000333565b60405180910390fd5b600073ffffffffffffffffffffffffffffffffffffffff168173ffffffffffffffffffffffffffffffffffffffff1614156200023d576040517f08c379a0000000000000000000000000000000000000000000000000000000008152600401620002349062000311565b60405180910390fd5b6200024e816200007760201b60201c565b50565b60008060009054906101000a900473ffffffffffffffffffffffffffffffffffffffff16905090565b6000815190506200028b8162000417565b92915050565b600060208284031215620002aa57620002a96200039a565b5b6000620002ba848285016200027a565b91505092915050565b6000620002d260268362000355565b9150620002df826200039f565b604082019050919050565b6000620002f960208362000355565b91506200030682620003ee565b602082019050919050565b600060208201905081810360008301526200032c81620002c3565b9050919050565b600060208201905081810360008301526200034e81620002ea565b9050919050565b600082825260208201905092915050565b600062000373826200037a565b9050919050565b600073ffffffffffffffffffffffffffffffffffffffff82169050919050565b600080fd5b7f4f776e61626c653a206e6577206f776e657220697320746865207a65726f206160008201527f6464726573730000000000000000000000000000000000000000000000000000602082015250565b7f4f776e61626c653a2063616c6c6572206973206e6f7420746865206f776e6572600082015250565b620004228162000366565b81146200042e57600080fd5b50565b610f6880620004416000396000f3fe6080604052600436106100865760003560e01c80639623609d116100595780639623609d1461013357806399a88ec41461014f578063a3f4df7e14610178578063f2fde38b146101a3578063f3b7dead146101cc57610086565b8063204e1c7a1461008b578063715018a6146100c85780637eff275e146100df5780638da5cb5b14610108575b600080fd5b34801561009757600080fd5b506100b260048036038101906100ad91906109ad565b610209565b6040516100bf9190610bc0565b60405180910390f35b3480156100d457600080fd5b506100dd61029d565b005b3480156100eb57600080fd5b50610106600480360381019061010191906109da565b610325565b005b34801561011457600080fd5b5061011d610410565b60405161012a9190610bc0565b60405180910390f35b61014d60048036038101906101489190610a1a565b610439565b005b34801561015b57600080fd5b50610176600480360381019061017191906109da565b610528565b005b34801561018457600080fd5b5061018d610613565b60405161019a9190610c0b565b60405180910390f35b3480156101af57600080fd5b506101ca60048036038101906101c59190610953565b61064c565b005b3480156101d857600080fd5b506101f360048036038101906101ee91906109ad565b610744565b6040516102009190610bc0565b60405180910390f35b60008060008373ffffffffffffffffffffffffffffffffffffffff1660405161023190610b96565b600060405180830381855afa9150503d806000811461026c576040519150601f19603f3d011682016040523d82523d6000602084013e610271565b606091505b50915091508161028057600080fd5b808060200190518101906102949190610980565b92505050919050565b6102a56107d8565b73ffffffffffffffffffffffffffffffffffffffff166102c3610410565b73ffffffffffffffffffffffffffffffffffffffff1614610319576040517f08c379a000000000000000000000000000000000000000000000000000000000815260040161031090610c4d565b60405180910390fd5b61032360006107e0565b565b61032d6107d8565b73ffffffffffffffffffffffffffffffffffffffff1661034b610410565b73ffffffffffffffffffffffffffffffffffffffff16146103a1576040517f08c379a000000000000000000000000000000000000000000000000000000000815260040161039890610c4d565b60405180910390fd5b8173ffffffffffffffffffffffffffffffffffffffff16638f283970826040518263ffffffff1660e01b81526004016103da9190610bc0565b600060405180830381600087803b1580156103f457600080fd5b505af1158015610408573d6000803e3d6000fd5b505050505050565b60008060009054906101000a900473ffffffffffffffffffffffffffffffffffffffff16905090565b6104416107d8565b73ffffffffffffffffffffffffffffffffffffffff1661045f610410565b73ffffffffffffffffffffffffffffffffffffffff16146104b5576040517f08c379a00000000000000000000000000000000000000000000000000000000081526004016104ac90610c4d565b60405180910390fd5b8273ffffffffffffffffffffffffffffffffffffffff16634f1ef2863484846040518463ffffffff1660e01b81526004016104f1929190610bdb565b6000604051808303818588803b15801561050a57600080fd5b505af115801561051e573d6000803e3d6000fd5b5050505050505050565b6105306107d8565b73ffffffffffffffffffffffffffffffffffffffff1661054e610410565b73ffffffffffffffffffffffffffffffffffffffff16146105a4576040517f08c379a000000000000000000000000000000000000000000000000000000000815260040161059b90610c4d565b60405180910390fd5b8173ffffffffffffffffffffffffffffffffffffffff16633659cfe6826040518263ffffffff1660e01b81526004016105dd9190610bc0565b600060405180830381600087803b1580156105f757600080fd5b505af115801561060b573d6000803e3d6000fd5b505050505050565b6040518060400160405280600d81526020017f52656e50726f787941646d696e0000000000000000000000000000000000000081525081565b6106546107d8565b73ffffffffffffffffffffffffffffffffffffffff16610672610410565b73ffffffffffffffffffffffffffffffffffffffff16146106c8576040517f08c379a00000000000000000000000000000000000000000000000000000000081526004016106bf90610c4d565b60405180910390fd5b600073ffffffffffffffffffffffffffffffffffffffff168173ffffffffffffffffffffffffffffffffffffffff161415610738576040517f08c379a000000000000000000000000000000000000000000000000000000000815260040161072f90610c2d565b60405180910390fd5b610741816107e0565b50565b60008060008373ffffffffffffffffffffffffffffffffffffffff1660405161076c90610bab565b600060405180830381855afa9150503d80600081146107a7576040519150601f19603f3d011682016040523d82523d6000602084013e6107ac565b606091505b5091509150816107bb57600080fd5b808060200190518101906107cf9190610980565b92505050919050565b600033905090565b60008060009054906101000a900473ffffffffffffffffffffffffffffffffffffffff169050816000806101000a81548173ffffffffffffffffffffffffffffffffffffffff021916908373ffffffffffffffffffffffffffffffffffffffff1602179055508173ffffffffffffffffffffffffffffffffffffffff168173ffffffffffffffffffffffffffffffffffffffff167f8be0079c531659141344cd1fd0a4f28419497f9722a3daafe3b4186f6b6457e060405160405180910390a35050565b60006108b76108b284610c92565b610c6d565b9050828152602081018484840111156108d3576108d2610e03565b5b6108de848285610d5c565b509392505050565b6000813590506108f581610eed565b92915050565b60008151905061090a81610f04565b92915050565b600082601f83011261092557610924610dfe565b5b81356109358482602086016108a4565b91505092915050565b60008135905061094d81610f1b565b92915050565b60006020828403121561096957610968610e0d565b5b6000610977848285016108e6565b91505092915050565b60006020828403121561099657610995610e0d565b5b60006109a4848285016108fb565b91505092915050565b6000602082840312156109c3576109c2610e0d565b5b60006109d18482850161093e565b91505092915050565b600080604083850312156109f1576109f0610e0d565b5b60006109ff8582860161093e565b9250506020610a10858286016108e6565b9150509250929050565b600080600060608486031215610a3357610a32610e0d565b5b6000610a418682870161093e565b9350506020610a52868287016108e6565b925050604084013567ffffffffffffffff811115610a7357610a72610e08565b5b610a7f86828701610910565b9150509250925092565b610a9281610d06565b82525050565b6000610aa382610cc3565b610aad8185610cd9565b9350610abd818560208601610d6b565b610ac681610e12565b840191505092915050565b6000610adc82610cce565b610ae68185610cf5565b9350610af6818560208601610d6b565b610aff81610e12565b840191505092915050565b6000610b17602683610cf5565b9150610b2282610e23565b604082019050919050565b6000610b3a600483610cea565b9150610b4582610e72565b600482019050919050565b6000610b5d602083610cf5565b9150610b6882610e9b565b602082019050919050565b6000610b80600483610cea565b9150610b8b82610ec4565b600482019050919050565b6000610ba182610b2d565b9150819050919050565b6000610bb682610b73565b9150819050919050565b6000602082019050610bd56000830184610a89565b92915050565b6000604082019050610bf06000830185610a89565b8181036020830152610c028184610a98565b90509392505050565b60006020820190508181036000830152610c258184610ad1565b905092915050565b60006020820190508181036000830152610c4681610b0a565b9050919050565b60006020820190508181036000830152610c6681610b50565b9050919050565b6000610c77610c88565b9050610c838282610d9e565b919050565b6000604051905090565b600067ffffffffffffffff821115610cad57610cac610dcf565b5b610cb682610e12565b9050602081019050919050565b600081519050919050565b600081519050919050565b600082825260208201905092915050565b600081905092915050565b600082825260208201905092915050565b6000610d1182610d3c565b9050919050565b6000610d2382610d3c565b9050919050565b6000610d3582610d18565b9050919050565b600073ffffffffffffffffffffffffffffffffffffffff82169050919050565b82818337600083830152505050565b60005b83811015610d89578082015181840152602081019050610d6e565b83811115610d98576000848401525b50505050565b610da782610e12565b810181811067ffffffffffffffff82111715610dc657610dc5610dcf565b5b80604052505050565b7f4e487b7100000000000000000000000000000000000000000000000000000000600052604160045260246000fd5b600080fd5b600080fd5b600080fd5b600080fd5b6000601f19601f8301169050919050565b7f4f776e61626c653a206e6577206f776e657220697320746865207a65726f206160008201527f6464726573730000000000000000000000000000000000000000000000000000602082015250565b7f5c60da1b00000000000000000000000000000000000000000000000000000000600082015250565b7f4f776e61626c653a2063616c6c6572206973206e6f7420746865206f776e6572600082015250565b7ff851a44000000000000000000000000000000000000000000000000000000000600082015250565b610ef681610d06565b8114610f0157600080fd5b50565b610f0d81610d18565b8114610f1857600080fd5b50565b610f2481610d2a565b8114610f2f57600080fd5b5056fea2646970667358221220aeb52e031272815c7f5eeb28956829608e8ab45709f952ed1da0f99434fe607d64736f6c63430008070033",
  "devdoc": {
    "kind": "dev",
    "methods": {
      "changeProxyAdmin(address,address)": {
        "details": "Changes the admin of `proxy` to `newAdmin`. Requirements: - This contract must be the current admin of `proxy`."
      },
      "getProxyAdmin(address)": {
        "details": "Returns the current admin of `proxy`. Requirements: - This contract must be the admin of `proxy`."
      },
      "getProxyImplementation(address)": {
        "details": "Returns the current implementation of `proxy`. Requirements: - This contract must be the admin of `proxy`."
      },
      "owner()": {
        "details": "Returns the address of the current owner."
      },
      "renounceOwnership()": {
        "details": "Leaves the contract without owner. It will not be possible to call `onlyOwner` functions anymore. Can only be called by the current owner. NOTE: Renouncing ownership will leave the contract without an owner, thereby removing any functionality that is only available to the owner."
      },
      "transferOwnership(address)": {
        "details": "Transfers ownership of the contract to a new account (`newOwner`). Can only be called by the current owner."
      },
      "upgrade(address,address)": {
        "details": "Upgrades `proxy` to `implementation`. See {TransparentUpgradeableProxy-upgradeTo}. Requirements: - This contract must be the admin of `proxy`."
      },
      "upgradeAndCall(address,address,bytes)": {
        "details": "Upgrades `proxy` to `implementation` and calls a function on the new implementation. See {TransparentUpgradeableProxy-upgradeToAndCall}. Requirements: - This contract must be the admin of `proxy`."
      }
    },
    "version": 1
  },
  "userdoc": {
    "kind": "user",
    "methods": {
      "constructor": {
        "notice": "An address to be set as the owner is passed in so that RenProxyAdmin can be deployed by the CREATE2 deployer contract."
      }
    },
    "notice": "See ProxyAdmin.",
    "version": 1
  },
  "storageLayout": {
    "storage": [
      {
        "astId": 3800,
        "contract": "src/RenProxyAdmin.sol:RenProxyAdmin",
        "label": "_owner",
        "offset": 0,
        "slot": "0",
        "type": "t_address"
      }
    ],
    "types": {
      "t_address": {
        "encoding": "inplace",
        "label": "address",
        "numberOfBytes": "20"
      }
    }
  }
}