{
  "address": "0xF6c6e5fF290D3f84613A1B09f47915CF2af909aB",
  "abi": [
    {
      "inputs": [
        {
          "internalType": "uint256",
          "name": "minDelay",
          "type": "uint256"
        },
        {
          "internalType": "address[]",
          "name": "proposers",
          "type": "address[]"
        },
        {
          "internalType": "address[]",
          "name": "executors",
          "type": "address[]"
        }
      ],
      "stateMutability": "nonpayable",
      "type": "constructor"
    },
    {
      "anonymous": false,
      "inputs": [
        {
          "indexed": true,
          "internalType": "bytes32",
          "name": "id",
          "type": "bytes32"
        },
        {
          "indexed": true,
          "internalType": "uint256",
          "name": "index",
          "type": "uint256"
        },
        {
          "indexed": false,
          "internalType": "address",
          "name": "target",
          "type": "address"
        },
        {
          "indexed": false,
          "internalType": "uint256",
          "name": "value",
          "type": "uint256"
        },
        {
          "indexed": false,
          "internalType": "bytes",
          "name": "data",
          "type": "bytes"
        }
      ],
      "name": "CallExecuted",
      "type": "event"
    },
    {
      "anonymous": false,
      "inputs": [
        {
          "indexed": true,
          "internalType": "bytes32",
          "name": "id",
          "type": "bytes32"
        },
        {
          "indexed": true,
          "internalType": "uint256",
          "name": "index",
          "type": "uint256"
        },
        {
          "indexed": false,
          "internalType": "address",
          "name": "target",
          "type": "address"
        },
        {
          "indexed": false,
          "internalType": "uint256",
          "name": "value",
          "type": "uint256"
        },
        {
          "indexed": false,
          "internalType": "bytes",
          "name": "data",
          "type": "bytes"
        },
        {
          "indexed": false,
          "internalType": "bytes32",
          "name": "predecessor",
          "type": "bytes32"
        },
        {
          "indexed": false,
          "internalType": "uint256",
          "name": "delay",
          "type": "uint256"
        }
      ],
      "name": "CallScheduled",
      "type": "event"
    },
    {
      "anonymous": false,
      "inputs": [
        {
          "indexed": true,
          "internalType": "bytes32",
          "name": "id",
          "type": "bytes32"
        }
      ],
      "name": "Cancelled",
      "type": "event"
    },
    {
      "anonymous": false,
      "inputs": [
        {
          "indexed": false,
          "internalType": "uint256",
          "name": "oldDuration",
          "type": "uint256"
        },
        {
          "indexed": false,
          "internalType": "uint256",
          "name": "newDuration",
          "type": "uint256"
        }
      ],
      "name": "MinDelayChange",
      "type": "event"
    },
    {
      "anonymous": false,
      "inputs": [
        {
          "indexed": true,
          "internalType": "bytes32",
          "name": "role",
          "type": "bytes32"
        },
        {
          "indexed": true,
          "internalType": "bytes32",
          "name": "previousAdminRole",
          "type": "bytes32"
        },
        {
          "indexed": true,
          "internalType": "bytes32",
          "name": "newAdminRole",
          "type": "bytes32"
        }
      ],
      "name": "RoleAdminChanged",
      "type": "event"
    },
    {
      "anonymous": false,
      "inputs": [
        {
          "indexed": true,
          "internalType": "bytes32",
          "name": "role",
          "type": "bytes32"
        },
        {
          "indexed": true,
          "internalType": "address",
          "name": "account",
          "type": "address"
        },
        {
          "indexed": true,
          "internalType": "address",
          "name": "sender",
          "type": "address"
        }
      ],
      "name": "RoleGranted",
      "type": "event"
    },
    {
      "anonymous": false,
      "inputs": [
        {
          "indexed": true,
          "internalType": "bytes32",
          "name": "role",
          "type": "bytes32"
        },
        {
          "indexed": true,
          "internalType": "address",
          "name": "account",
          "type": "address"
        },
        {
          "indexed": true,
          "internalType": "address",
          "name": "sender",
          "type": "address"
        }
      ],
      "name": "RoleRevoked",
      "type": "event"
    },
    {
      "inputs": [],
      "name": "DEFAULT_ADMIN_ROLE",
      "outputs": [
        {
          "internalType": "bytes32",
          "name": "",
          "type": "bytes32"
        }
      ],
      "stateMutability": "view",
      "type": "function"
    },
    {
      "inputs": [],
      "name": "EXECUTOR_ROLE",
      "outputs": [
        {
          "internalType": "bytes32",
          "name": "",
          "type": "bytes32"
        }
      ],
      "stateMutability": "view",
      "type": "function"
    },
    {
      "inputs": [],
      "name": "NAME",
      "outputs": [
        {
          "internalType": "string",
          "name": "",
          "type": "string"
        }
      ],
      "stateMutability": "view",
      "type": "function"
    },
    {
      "inputs": [],
      "name": "PROPOSER_ROLE",
      "outputs": [
        {
          "internalType": "bytes32",
          "name": "",
          "type": "bytes32"
        }
      ],
      "stateMutability": "view",
      "type": "function"
    },
    {
      "inputs": [],
      "name": "TIMELOCK_ADMIN_ROLE",
      "outputs": [
        {
          "internalType": "bytes32",
          "name": "",
          "type": "bytes32"
        }
      ],
      "stateMutability": "view",
      "type": "function"
    },
    {
      "inputs": [
        {
          "internalType": "bytes32",
          "name": "id",
          "type": "bytes32"
        }
      ],
      "name": "cancel",
      "outputs": [],
      "stateMutability": "nonpayable",
      "type": "function"
    },
    {
      "inputs": [
        {
          "internalType": "address",
          "name": "target",
          "type": "address"
        },
        {
          "internalType": "uint256",
          "name": "value",
          "type": "uint256"
        },
        {
          "internalType": "bytes",
          "name": "data",
          "type": "bytes"
        },
        {
          "internalType": "bytes32",
          "name": "predecessor",
          "type": "bytes32"
        },
        {
          "internalType": "bytes32",
          "name": "salt",
          "type": "bytes32"
        }
      ],
      "name": "execute",
      "outputs": [],
      "stateMutability": "payable",
      "type": "function"
    },
    {
      "inputs": [
        {
          "internalType": "address[]",
          "name": "targets",
          "type": "address[]"
        },
        {
          "internalType": "uint256[]",
          "name": "values",
          "type": "uint256[]"
        },
        {
          "internalType": "bytes[]",
          "name": "datas",
          "type": "bytes[]"
        },
        {
          "internalType": "bytes32",
          "name": "predecessor",
          "type": "bytes32"
        },
        {
          "internalType": "bytes32",
          "name": "salt",
          "type": "bytes32"
        }
      ],
      "name": "executeBatch",
      "outputs": [],
      "stateMutability": "payable",
      "type": "function"
    },
    {
      "inputs": [],
      "name": "getMinDelay",
      "outputs": [
        {
          "internalType": "uint256",
          "name": "duration",
          "type": "uint256"
        }
      ],
      "stateMutability": "view",
      "type": "function"
    },
    {
      "inputs": [
        {
          "internalType": "bytes32",
          "name": "role",
          "type": "bytes32"
        }
      ],
      "name": "getRoleAdmin",
      "outputs": [
        {
          "internalType": "bytes32",
          "name": "",
          "type": "bytes32"
        }
      ],
      "stateMutability": "view",
      "type": "function"
    },
    {
      "inputs": [
        {
          "internalType": "bytes32",
          "name": "id",
          "type": "bytes32"
        }
      ],
      "name": "getTimestamp",
      "outputs": [
        {
          "internalType": "uint256",
          "name": "timestamp",
          "type": "uint256"
        }
      ],
      "stateMutability": "view",
      "type": "function"
    },
    {
      "inputs": [
        {
          "internalType": "bytes32",
          "name": "role",
          "type": "bytes32"
        },
        {
          "internalType": "address",
          "name": "account",
          "type": "address"
        }
      ],
      "name": "grantRole",
      "outputs": [],
      "stateMutability": "nonpayable",
      "type": "function"
    },
    {
      "inputs": [
        {
          "internalType": "bytes32",
          "name": "role",
          "type": "bytes32"
        },
        {
          "internalType": "address",
          "name": "account",
          "type": "address"
        }
      ],
      "name": "hasRole",
      "outputs": [
        {
          "internalType": "bool",
          "name": "",
          "type": "bool"
        }
      ],
      "stateMutability": "view",
      "type": "function"
    },
    {
      "inputs": [
        {
          "internalType": "address",
          "name": "target",
          "type": "address"
        },
        {
          "internalType": "uint256",
          "name": "value",
          "type": "uint256"
        },
        {
          "internalType": "bytes",
          "name": "data",
          "type": "bytes"
        },
        {
          "internalType": "bytes32",
          "name": "predecessor",
          "type": "bytes32"
        },
        {
          "internalType": "bytes32",
          "name": "salt",
          "type": "bytes32"
        }
      ],
      "name": "hashOperation",
      "outputs": [
        {
          "internalType": "bytes32",
          "name": "hash",
          "type": "bytes32"
        }
      ],
      "stateMutability": "pure",
      "type": "function"
    },
    {
      "inputs": [
        {
          "internalType": "address[]",
          "name": "targets",
          "type": "address[]"
        },
        {
          "internalType": "uint256[]",
          "name": "values",
          "type": "uint256[]"
        },
        {
          "internalType": "bytes[]",
          "name": "datas",
          "type": "bytes[]"
        },
        {
          "internalType": "bytes32",
          "name": "predecessor",
          "type": "bytes32"
        },
        {
          "internalType": "bytes32",
          "name": "salt",
          "type": "bytes32"
        }
      ],
      "name": "hashOperationBatch",
      "outputs": [
        {
          "internalType": "bytes32",
          "name": "hash",
          "type": "bytes32"
        }
      ],
      "stateMutability": "pure",
      "type": "function"
    },
    {
      "inputs": [
        {
          "internalType": "bytes32",
          "name": "id",
          "type": "bytes32"
        }
      ],
      "name": "isOperation",
      "outputs": [
        {
          "internalType": "bool",
          "name": "pending",
          "type": "bool"
        }
      ],
      "stateMutability": "view",
      "type": "function"
    },
    {
      "inputs": [
        {
          "internalType": "bytes32",
          "name": "id",
          "type": "bytes32"
        }
      ],
      "name": "isOperationDone",
      "outputs": [
        {
          "internalType": "bool",
          "name": "done",
          "type": "bool"
        }
      ],
      "stateMutability": "view",
      "type": "function"
    },
    {
      "inputs": [
        {
          "internalType": "bytes32",
          "name": "id",
          "type": "bytes32"
        }
      ],
      "name": "isOperationPending",
      "outputs": [
        {
          "internalType": "bool",
          "name": "pending",
          "type": "bool"
        }
      ],
      "stateMutability": "view",
      "type": "function"
    },
    {
      "inputs": [
        {
          "internalType": "bytes32",
          "name": "id",
          "type": "bytes32"
        }
      ],
      "name": "isOperationReady",
      "outputs": [
        {
          "internalType": "bool",
          "name": "ready",
          "type": "bool"
        }
      ],
      "stateMutability": "view",
      "type": "function"
    },
    {
      "inputs": [
        {
          "internalType": "bytes32",
          "name": "role",
          "type": "bytes32"
        },
        {
          "internalType": "address",
          "name": "account",
          "type": "address"
        }
      ],
      "name": "renounceRole",
      "outputs": [],
      "stateMutability": "nonpayable",
      "type": "function"
    },
    {
      "inputs": [
        {
          "internalType": "bytes32",
          "name": "role",
          "type": "bytes32"
        },
        {
          "internalType": "address",
          "name": "account",
          "type": "address"
        }
      ],
      "name": "revokeRole",
      "outputs": [],
      "stateMutability": "nonpayable",
      "type": "function"
    },
    {
      "inputs": [
        {
          "internalType": "address",
          "name": "target",
          "type": "address"
        },
        {
          "internalType": "uint256",
          "name": "value",
          "type": "uint256"
        },
        {
          "internalType": "bytes",
          "name": "data",
          "type": "bytes"
        },
        {
          "internalType": "bytes32",
          "name": "predecessor",
          "type": "bytes32"
        },
        {
          "internalType": "bytes32",
          "name": "salt",
          "type": "bytes32"
        },
        {
          "internalType": "uint256",
          "name": "delay",
          "type": "uint256"
        }
      ],
      "name": "schedule",
      "outputs": [],
      "stateMutability": "nonpayable",
      "type": "function"
    },
    {
      "inputs": [
        {
          "internalType": "address[]",
          "name": "targets",
          "type": "address[]"
        },
        {
          "internalType": "uint256[]",
          "name": "values",
          "type": "uint256[]"
        },
        {
          "internalType": "bytes[]",
          "name": "datas",
          "type": "bytes[]"
        },
        {
          "internalType": "bytes32",
          "name": "predecessor",
          "type": "bytes32"
        },
        {
          "internalType": "bytes32",
          "name": "salt",
          "type": "bytes32"
        },
        {
          "internalType": "uint256",
          "name": "delay",
          "type": "uint256"
        }
      ],
      "name": "scheduleBatch",
      "outputs": [],
      "stateMutability": "nonpayable",
      "type": "function"
    },
    {
      "inputs": [
        {
          "internalType": "bytes4",
          "name": "interfaceId",
          "type": "bytes4"
        }
      ],
      "name": "supportsInterface",
      "outputs": [
        {
          "internalType": "bool",
          "name": "",
          "type": "bool"
        }
      ],
      "stateMutability": "view",
      "type": "function"
    },
    {
      "inputs": [
        {
          "internalType": "uint256",
          "name": "newDelay",
          "type": "uint256"
        }
      ],
      "name": "updateDelay",
      "outputs": [],
      "stateMutability": "nonpayable",
      "type": "function"
    },
    {
      "stateMutability": "payable",
      "type": "receive"
    }
  ],
  "transactionHash": "0xc13c85bfcfc3d7e60f8acb2fa6f075cdb38a19af8aac692540e8a136edb2617a",
  "args": [
    0,
    [
      "0xD5B5b26521665Cb37623DCA0E49c553b41dbF076"
    ],
    [
      "0xD5B5b26521665Cb37623DCA0E49c553b41dbF076"
    ]
  ],
  "solcInputHash": "66ae8ec2e3a53ed5763d125bba9ba96a",
  "bytecode": "0x60806040523480156200001157600080fd5b5060405162001e8138038062001e8183398101604081905262000034916200039a565b8282826200005260008051602062001e2183398151915280620001cf565b6200007c60008051602062001e4183398151915260008051602062001e21833981519152620001cf565b620000a660008051602062001e6183398151915260008051602062001e21833981519152620001cf565b620000c160008051602062001e21833981519152336200021a565b620000dc60008051602062001e21833981519152306200021a565b60005b825181101562000139576200012660008051602062001e4183398151915284838151811062000112576200011262000438565b60200260200101516200021a60201b60201c565b62000131816200040e565b9050620000df565b5060005b815181101562000183576200017060008051602062001e6183398151915283838151811062000112576200011262000438565b6200017b816200040e565b90506200013d565b5060028390556040805160008152602081018590527f11c24f4ead16507c69ac467fbd5e4eed5fb5c699626d2cc6d66421df253886d5910160405180910390a150505050505062000464565b600082815260208190526040808220600101805490849055905190918391839186917fbd79b86ffe0ab8e8776151514217cd7cacd52c909f66475c3af44e129f0b00ff9190a4505050565b6200022682826200022a565b5050565b6000828152602081815260408083206001600160a01b038516845290915290205460ff1662000226576000828152602081815260408083206001600160a01b03851684529091529020805460ff19166001179055620002863390565b6001600160a01b0316816001600160a01b0316837f2f8788117e7eff1d82e926ec794901d17c78024a50270940304540a733656f0d60405160405180910390a45050565b80516001600160a01b0381168114620002e257600080fd5b919050565b600082601f830112620002f957600080fd5b815160206001600160401b03808311156200031857620003186200044e565b8260051b604051601f19603f830116810181811084821117156200034057620003406200044e565b604052848152838101925086840182880185018910156200036057600080fd5b600092505b858310156200038e576200037981620002ca565b84529284019260019290920191840162000365565b50979650505050505050565b600080600060608486031215620003b057600080fd5b835160208501519093506001600160401b0380821115620003d057600080fd5b620003de87838801620002e7565b93506040860151915080821115620003f557600080fd5b506200040486828701620002e7565b9150509250925092565b60006000198214156200043157634e487b7160e01b600052601160045260246000fd5b5060010190565b634e487b7160e01b600052603260045260246000fd5b634e487b7160e01b600052604160045260246000fd5b6119ad80620004746000396000f3fe60806040526004361061016a5760003560e01c806364d62353116100d1578063a3f4df7e1161008a578063d45c443511610064578063d45c443514610492578063d547741f146104bf578063e38335e5146104df578063f27a0c92146104f257600080fd5b8063a3f4df7e1461040e578063b1c5f42714610452578063c4d252f51461047257600080fd5b806364d62353146103575780638065657f146103775780638f2a0bb0146103975780638f61f4f5146103b757806391d14854146103d9578063a217fddf146103f957600080fd5b8063248a9ca311610123578063248a9ca3146102765780632ab0f529146102a65780632f2ff15d146102d757806331d50750146102f757806336568abe14610317578063584b153e1461033757600080fd5b806301d5062a1461017657806301ffc9a71461019857806307bd0265146101cd5780630d3cf6fc1461020f578063134008d31461024357806313bc9f201461025657600080fd5b3661017157005b600080fd5b34801561018257600080fd5b506101966101913660046112e0565b610507565b005b3480156101a457600080fd5b506101b86101b33660046114f5565b61058b565b60405190151581526020015b60405180910390f35b3480156101d957600080fd5b506102017fd8aa0f3194971a2a116679f7c2090f6939c8d4e01a2a8d7e41d55e5351469e6381565b6040519081526020016101c4565b34801561021b57600080fd5b506102017f5f58e3a2316349923ce3780f8d587db2d72378aed66a8261c916544fa6846ca581565b610196610251366004611274565b6105c2565b34801561026257600080fd5b506101b86102713660046114b0565b61063a565b34801561028257600080fd5b506102016102913660046114b0565b60009081526020819052604090206001015490565b3480156102b257600080fd5b506101b86102c13660046114b0565b6000908152600160208190526040909120541490565b3480156102e357600080fd5b506101966102f23660046114c9565b610660565b34801561030357600080fd5b506101b86103123660046114b0565b61068b565b34801561032357600080fd5b506101966103323660046114c9565b6106a4565b34801561034357600080fd5b506101b86103523660046114b0565b610727565b34801561036357600080fd5b506101966103723660046114b0565b61073d565b34801561038357600080fd5b50610201610392366004611274565b6107e1565b3480156103a357600080fd5b506101966103b23660046113fe565b610820565b3480156103c357600080fd5b5061020160008051602061195883398151915281565b3480156103e557600080fd5b506101b86103f43660046114c9565b610961565b34801561040557600080fd5b50610201600081565b34801561041a57600080fd5b506104456040518060400160405280600b81526020016a52656e54696d656c6f636b60a81b81525081565b6040516101c49190611775565b34801561045e57600080fd5b5061020161046d366004611355565b61098a565b34801561047e57600080fd5b5061019661048d3660046114b0565b6109cf565b34801561049e57600080fd5b506102016104ad3660046114b0565b60009081526001602052604090205490565b3480156104cb57600080fd5b506101966104da3660046114c9565b610a93565b6101966104ed366004611355565b610ab9565b3480156104fe57600080fd5b50600254610201565b6000805160206119588339815191526105208133610bee565b60006105308989898989896107e1565b905061053c8184610c52565b6000817f4cf4410cc57040e44862ef0f45f3dd5a5e02db8eb8add648d4b0e236f1d07dca8b8b8b8b8b8a6040516105789695949392919061168d565b60405180910390a3505050505050505050565b60006001600160e01b03198216637965db0b60e01b14806105bc57506301ffc9a760e01b6001600160e01b03198316145b92915050565b7fd8aa0f3194971a2a116679f7c2090f6939c8d4e01a2a8d7e41d55e5351469e636105ee816000610961565b6105fc576105fc8133610bee565b600061060c8888888888886107e1565b90506106188185610d41565b6106278160008a8a8a8a610ddd565b61063081610ef1565b5050505050505050565b6000818152600160205260408120546001811180156106595750428111155b9392505050565b60008281526020819052604090206001015461067c8133610bee565b6106868383610f2a565b505050565b60008181526001602052604081205481905b1192915050565b6001600160a01b03811633146107195760405162461bcd60e51b815260206004820152602f60248201527f416363657373436f6e74726f6c3a2063616e206f6e6c792072656e6f756e636560448201526e103937b632b9903337b91039b2b63360891b60648201526084015b60405180910390fd5b6107238282610fae565b5050565b600081815260016020819052604082205461069d565b3330146107a05760405162461bcd60e51b815260206004820152602b60248201527f54696d656c6f636b436f6e74726f6c6c65723a2063616c6c6572206d7573742060448201526a62652074696d656c6f636b60a81b6064820152608401610710565b60025460408051918252602082018390527f11c24f4ead16507c69ac467fbd5e4eed5fb5c699626d2cc6d66421df253886d5910160405180910390a1600255565b60008686868686866040516020016107fe9695949392919061168d565b6040516020818303038152906040528051906020012090509695505050505050565b6000805160206119588339815191526108398133610bee565b8887146108585760405162461bcd60e51b8152600401610710906117a8565b8885146108775760405162461bcd60e51b8152600401610710906117a8565b60006108898b8b8b8b8b8b8b8b61098a565b90506108958184610c52565b60005b8a8110156109535780827f4cf4410cc57040e44862ef0f45f3dd5a5e02db8eb8add648d4b0e236f1d07dca8e8e858181106108d5576108d561192b565b90506020020160208101906108ea9190611259565b8d8d868181106108fc576108fc61192b565b905060200201358c8c878181106109155761091561192b565b90506020028101906109279190611835565b8c8b60405161093b9695949392919061168d565b60405180910390a361094c816118fa565b9050610898565b505050505050505050505050565b6000918252602082815260408084206001600160a01b0393909316845291905290205460ff1690565b600088888888888888886040516020016109ab9897969594939291906116ca565b60405160208183030381529060405280519060200120905098975050505050505050565b6000805160206119588339815191526109e88133610bee565b6109f182610727565b610a575760405162461bcd60e51b815260206004820152603160248201527f54696d656c6f636b436f6e74726f6c6c65723a206f7065726174696f6e2063616044820152701b9b9bdd0818994818d85b98d95b1b1959607a1b6064820152608401610710565b6000828152600160205260408082208290555183917fbaa1eb22f2a492ba1a5fea61b8df4d27c6c8b5f3971e63bb58fa14ff72eedb7091a25050565b600082815260208190526040902060010154610aaf8133610bee565b6106868383610fae565b7fd8aa0f3194971a2a116679f7c2090f6939c8d4e01a2a8d7e41d55e5351469e63610ae5816000610961565b610af357610af38133610bee565b878614610b125760405162461bcd60e51b8152600401610710906117a8565b878414610b315760405162461bcd60e51b8152600401610710906117a8565b6000610b438a8a8a8a8a8a8a8a61098a565b9050610b4f8185610d41565b60005b89811015610bd857610bc882828d8d85818110610b7157610b7161192b565b9050602002016020810190610b869190611259565b8c8c86818110610b9857610b9861192b565b905060200201358b8b87818110610bb157610bb161192b565b9050602002810190610bc39190611835565b610ddd565b610bd1816118fa565b9050610b52565b50610be281610ef1565b50505050505050505050565b610bf88282610961565b61072357610c10816001600160a01b03166014611013565b610c1b836020611013565b604051602001610c2c9291906115e6565b60408051601f198184030181529082905262461bcd60e51b825261071091600401611775565b610c5b8261068b565b15610cc05760405162461bcd60e51b815260206004820152602f60248201527f54696d656c6f636b436f6e74726f6c6c65723a206f7065726174696f6e20616c60448201526e1c9958591e481cd8da19591d5b1959608a1b6064820152608401610710565b600254811015610d215760405162461bcd60e51b815260206004820152602660248201527f54696d656c6f636b436f6e74726f6c6c65723a20696e73756666696369656e746044820152652064656c617960d01b6064820152608401610710565b610d2b814261187c565b6000928352600160205260409092209190915550565b610d4a8261063a565b610d665760405162461bcd60e51b8152600401610710906117eb565b801580610d825750600081815260016020819052604090912054145b6107235760405162461bcd60e51b815260206004820152602660248201527f54696d656c6f636b436f6e74726f6c6c65723a206d697373696e6720646570656044820152656e64656e637960d01b6064820152608401610710565b6000846001600160a01b0316848484604051610dfa9291906115d6565b60006040518083038185875af1925050503d8060008114610e37576040519150601f19603f3d011682016040523d82523d6000602084013e610e3c565b606091505b5050905080610ea95760405162461bcd60e51b815260206004820152603360248201527f54696d656c6f636b436f6e74726f6c6c65723a20756e6465726c79696e6720746044820152721c985b9cd858dd1a5bdb881c995d995c9d1959606a1b6064820152608401610710565b85877fc2617efa69bab66782fa219543714338489c4e9e178271560a91b82c3f612b5887878787604051610ee0949392919061165b565b60405180910390a350505050505050565b610efa8161063a565b610f165760405162461bcd60e51b8152600401610710906117eb565b600090815260016020819052604090912055565b610f348282610961565b610723576000828152602081815260408083206001600160a01b03851684529091529020805460ff19166001179055610f6a3390565b6001600160a01b0316816001600160a01b0316837f2f8788117e7eff1d82e926ec794901d17c78024a50270940304540a733656f0d60405160405180910390a45050565b610fb88282610961565b15610723576000828152602081815260408083206001600160a01b0385168085529252808320805460ff1916905551339285917ff6391f5c32d9c69d2a47ea670b442974b53935d1edc7fd64eb21e047a839171b9190a45050565b60606000611022836002611894565b61102d90600261187c565b67ffffffffffffffff81111561104557611045611941565b6040519080825280601f01601f19166020018201604052801561106f576020820181803683370190505b509050600360fc1b8160008151811061108a5761108a61192b565b60200101906001600160f81b031916908160001a905350600f60fb1b816001815181106110b9576110b961192b565b60200101906001600160f81b031916908160001a90535060006110dd846002611894565b6110e890600161187c565b90505b6001811115611160576f181899199a1a9b1b9c1cb0b131b232b360811b85600f166010811061111c5761111c61192b565b1a60f81b8282815181106111325761113261192b565b60200101906001600160f81b031916908160001a90535060049490941c93611159816118e3565b90506110eb565b5083156106595760405162461bcd60e51b815260206004820181905260248201527f537472696e67733a20686578206c656e67746820696e73756666696369656e746044820152606401610710565b80356001600160a01b03811681146111c657600080fd5b919050565b60008083601f8401126111dd57600080fd5b50813567ffffffffffffffff8111156111f557600080fd5b6020830191508360208260051b850101111561121057600080fd5b9250929050565b60008083601f84011261122957600080fd5b50813567ffffffffffffffff81111561124157600080fd5b60208301915083602082850101111561121057600080fd5b60006020828403121561126b57600080fd5b610659826111af565b60008060008060008060a0878903121561128d57600080fd5b611296876111af565b955060208701359450604087013567ffffffffffffffff8111156112b957600080fd5b6112c589828a01611217565b979a9699509760608101359660809091013595509350505050565b600080600080600080600060c0888a0312156112fb57600080fd5b611304886111af565b965060208801359550604088013567ffffffffffffffff81111561132757600080fd5b6113338a828b01611217565b989b979a50986060810135976080820135975060a09091013595509350505050565b60008060008060008060008060a0898b03121561137157600080fd5b883567ffffffffffffffff8082111561138957600080fd5b6113958c838d016111cb565b909a50985060208b01359150808211156113ae57600080fd5b6113ba8c838d016111cb565b909850965060408b01359150808211156113d357600080fd5b506113e08b828c016111cb565b999c989b509699959896976060870135966080013595509350505050565b600080600080600080600080600060c08a8c03121561141c57600080fd5b893567ffffffffffffffff8082111561143457600080fd5b6114408d838e016111cb565b909b50995060208c013591508082111561145957600080fd5b6114658d838e016111cb565b909950975060408c013591508082111561147e57600080fd5b5061148b8c828d016111cb565b9a9d999c50979a969997986060880135976080810135975060a0013595509350505050565b6000602082840312156114c257600080fd5b5035919050565b600080604083850312156114dc57600080fd5b823591506114ec602084016111af565b90509250929050565b60006020828403121561150757600080fd5b81356001600160e01b03198116811461065957600080fd5b818352600060208085019450848460051b86018460005b878110156115a05783830389528135601e1988360301811261155757600080fd5b8701803567ffffffffffffffff81111561157057600080fd5b80360389131561157f57600080fd5b61158c85828985016115ad565b9a87019a9450505090840190600101611536565b5090979650505050505050565b81835281816020850137506000828201602090810191909152601f909101601f19169091010190565b8183823760009101908152919050565b7f416363657373436f6e74726f6c3a206163636f756e742000000000000000000081526000835161161e8160178501602088016118b3565b7001034b99036b4b9b9b4b733903937b6329607d1b601791840191820152835161164f8160288401602088016118b3565b01602801949350505050565b60018060a01b03851681528360208201526060604082015260006116836060830184866115ad565b9695505050505050565b60018060a01b038716815285602082015260a0604082015260006116b560a0830186886115ad565b60608301949094525060800152949350505050565b60a0808252810188905260008960c08301825b8b81101561170b576001600160a01b036116f6846111af565b168252602092830192909101906001016116dd565b5083810360208501528881526001600160fb1b0389111561172b57600080fd5b8860051b9150818a60208301378181019150506020810160008152602084830301604085015261175c81888a61151f565b6060850196909652505050608001529695505050505050565b60208152600082518060208401526117948160408501602087016118b3565b601f01601f19169190910160400192915050565b60208082526023908201527f54696d656c6f636b436f6e74726f6c6c65723a206c656e677468206d69736d616040820152620e8c6d60eb1b606082015260800190565b6020808252602a908201527f54696d656c6f636b436f6e74726f6c6c65723a206f7065726174696f6e206973604082015269206e6f7420726561647960b01b606082015260800190565b6000808335601e1984360301811261184c57600080fd5b83018035915067ffffffffffffffff82111561186757600080fd5b60200191503681900382131561121057600080fd5b6000821982111561188f5761188f611915565b500190565b60008160001904831182151516156118ae576118ae611915565b500290565b60005b838110156118ce5781810151838201526020016118b6565b838111156118dd576000848401525b50505050565b6000816118f2576118f2611915565b506000190190565b600060001982141561190e5761190e611915565b5060010190565b634e487b7160e01b600052601160045260246000fd5b634e487b7160e01b600052603260045260246000fd5b634e487b7160e01b600052604160045260246000fdfeb09aa5aeb3702cfd50b6b62bc4532604938f21248a27a1d5ca736082b6819cc1a2646970667358221220f77711b28d4dee50602839fe886350c08ea7eb9cf0235e14462aadedcef5b9b764736f6c634300080700335f58e3a2316349923ce3780f8d587db2d72378aed66a8261c916544fa6846ca5b09aa5aeb3702cfd50b6b62bc4532604938f21248a27a1d5ca736082b6819cc1d8aa0f3194971a2a116679f7c2090f6939c8d4e01a2a8d7e41d55e5351469e63",
  "devdoc": {
    "kind": "dev",
    "methods": {
      "cancel(bytes32)": {
        "details": "Cancel an operation. Requirements: - the caller must have the 'proposer' role."
      },
      "execute(address,uint256,bytes,bytes32,bytes32)": {
        "details": "Execute an (ready) operation containing a single transaction. Emits a {CallExecuted} event. Requirements: - the caller must have the 'executor' role."
      },
      "executeBatch(address[],uint256[],bytes[],bytes32,bytes32)": {
        "details": "Execute an (ready) operation containing a batch of transactions. Emits one {CallExecuted} event per transaction in the batch. Requirements: - the caller must have the 'executor' role."
      },
      "getMinDelay()": {
        "details": "Returns the minimum delay for an operation to become valid. This value can be changed by executing an operation that calls `updateDelay`."
      },
      "getRoleAdmin(bytes32)": {
        "details": "Returns the admin role that controls `role`. See {grantRole} and {revokeRole}. To change a role's admin, use {_setRoleAdmin}."
      },
      "getTimestamp(bytes32)": {
        "details": "Returns the timestamp at with an operation becomes ready (0 for unset operations, 1 for done operations)."
      },
      "grantRole(bytes32,address)": {
        "details": "Grants `role` to `account`. If `account` had not been already granted `role`, emits a {RoleGranted} event. Requirements: - the caller must have ``role``'s admin role."
      },
      "hasRole(bytes32,address)": {
        "details": "Returns `true` if `account` has been granted `role`."
      },
      "hashOperation(address,uint256,bytes,bytes32,bytes32)": {
        "details": "Returns the identifier of an operation containing a single transaction."
      },
      "hashOperationBatch(address[],uint256[],bytes[],bytes32,bytes32)": {
        "details": "Returns the identifier of an operation containing a batch of transactions."
      },
      "isOperation(bytes32)": {
        "details": "Returns whether an id correspond to a registered operation. This includes both Pending, Ready and Done operations."
      },
      "isOperationDone(bytes32)": {
        "details": "Returns whether an operation is done or not."
      },
      "isOperationPending(bytes32)": {
        "details": "Returns whether an operation is pending or not."
      },
      "isOperationReady(bytes32)": {
        "details": "Returns whether an operation is ready or not."
      },
      "renounceRole(bytes32,address)": {
        "details": "Revokes `role` from the calling account. Roles are often managed via {grantRole} and {revokeRole}: this function's purpose is to provide a mechanism for accounts to lose their privileges if they are compromised (such as when a trusted device is misplaced). If the calling account had been granted `role`, emits a {RoleRevoked} event. Requirements: - the caller must be `account`."
      },
      "revokeRole(bytes32,address)": {
        "details": "Revokes `role` from `account`. If `account` had been granted `role`, emits a {RoleRevoked} event. Requirements: - the caller must have ``role``'s admin role."
      },
      "schedule(address,uint256,bytes,bytes32,bytes32,uint256)": {
        "details": "Schedule an operation containing a single transaction. Emits a {CallScheduled} event. Requirements: - the caller must have the 'proposer' role."
      },
      "scheduleBatch(address[],uint256[],bytes[],bytes32,bytes32,uint256)": {
        "details": "Schedule an operation containing a batch of transactions. Emits one {CallScheduled} event per transaction in the batch. Requirements: - the caller must have the 'proposer' role."
      },
      "supportsInterface(bytes4)": {
        "details": "See {IERC165-supportsInterface}."
      },
      "updateDelay(uint256)": {
        "details": "Changes the minimum timelock duration for future operations. Emits a {MinDelayChange} event. Requirements: - the caller must be the timelock itself. This can only be achieved by scheduling and later executing an operation where the timelock is the target and the data is the ABI-encoded call to this function."
      }
    },
    "version": 1
  },
  "userdoc": {
    "kind": "user",
    "methods": {},
    "notice": "See TimelockController.",
    "version": 1
  },
  "storageLayout": {
    "storage": [
      {
        "astId": 3437,
        "contract": "src/RenTimelock.sol:RenTimelock",
        "label": "_roles",
        "offset": 0,
        "slot": "0",
        "type": "t_mapping(t_bytes32,t_struct(RoleData)3432_storage)"
      },
      {
        "astId": 4131,
        "contract": "src/RenTimelock.sol:RenTimelock",
        "label": "_timestamps",
        "offset": 0,
        "slot": "1",
        "type": "t_mapping(t_bytes32,t_uint256)"
      },
      {
        "astId": 4133,
        "contract": "src/RenTimelock.sol:RenTimelock",
        "label": "_minDelay",
        "offset": 0,
        "slot": "2",
        "type": "t_uint256"
      }
    ],
    "types": {
      "t_address": {
        "encoding": "inplace",
        "label": "address",
        "numberOfBytes": "20"
      },
      "t_bool": {
        "encoding": "inplace",
        "label": "bool",
        "numberOfBytes": "1"
      },
      "t_bytes32": {
        "encoding": "inplace",
        "label": "bytes32",
        "numberOfBytes": "32"
      },
      "t_mapping(t_address,t_bool)": {
        "encoding": "mapping",
        "key": "t_address",
        "label": "mapping(address => bool)",
        "numberOfBytes": "32",
        "value": "t_bool"
      },
      "t_mapping(t_bytes32,t_struct(RoleData)3432_storage)": {
        "encoding": "mapping",
        "key": "t_bytes32",
        "label": "mapping(bytes32 => struct AccessControl.RoleData)",
        "numberOfBytes": "32",
        "value": "t_struct(RoleData)3432_storage"
      },
      "t_mapping(t_bytes32,t_uint256)": {
        "encoding": "mapping",
        "key": "t_bytes32",
        "label": "mapping(bytes32 => uint256)",
        "numberOfBytes": "32",
        "value": "t_uint256"
      },
      "t_struct(RoleData)3432_storage": {
        "encoding": "inplace",
        "label": "struct AccessControl.RoleData",
        "members": [
          {
            "astId": 3429,
            "contract": "src/RenTimelock.sol:RenTimelock",
            "label": "members",
            "offset": 0,
            "slot": "0",
            "type": "t_mapping(t_address,t_bool)"
          },
          {
            "astId": 3431,
            "contract": "src/RenTimelock.sol:RenTimelock",
            "label": "adminRole",
            "offset": 0,
            "slot": "1",
            "type": "t_bytes32"
          }
        ],
        "numberOfBytes": "64"
      },
      "t_uint256": {
        "encoding": "inplace",
        "label": "uint256",
        "numberOfBytes": "32"
      }
    }
  }
}