{
  "address": "0x3578dAA31CC36590313614a2a5F5D6A3Bf056ba6",
  "abi": [
    {
      "anonymous": false,
      "inputs": [
        {
          "indexed": true,
          "internalType": "address",
          "name": "_newMintAuthority",
          "type": "address"
        }
      ],
      "name": "LogMintAuthorityUpdated",
      "type": "event"
    },
    {
      "anonymous": false,
      "inputs": [
        {
          "indexed": true,
          "internalType": "address",
          "name": "previousOwner",
          "type": "address"
        },
        {
          "indexed": true,
          "internalType": "address",
          "name": "newOwner",
          "type": "address"
        }
      ],
      "name": "OwnershipTransferred",
      "type": "event"
    },
    {
      "inputs": [],
      "name": "CORRECT_SIGNATURE_RETURN_VALUE",
      "outputs": [
        {
          "internalType": "bytes4",
          "name": "",
          "type": "bytes4"
        }
      ],
      "stateMutability": "view",
      "type": "function"
    },
    {
      "inputs": [],
      "name": "INCORRECT_SIGNATURE_RETURN_VALUE",
      "outputs": [
        {
          "internalType": "bytes4",
          "name": "",
          "type": "bytes4"
        }
      ],
      "stateMutability": "view",
      "type": "function"
    },
    {
      "inputs": [],
      "name": "NAME",
      "outputs": [
        {
          "internalType": "string",
          "name": "",
          "type": "string"
        }
      ],
      "stateMutability": "view",
      "type": "function"
    },
    {
      "inputs": [
        {
          "internalType": "address",
          "name": "mintAuthority_",
          "type": "address"
        },
        {
          "internalType": "address",
          "name": "contractOwner",
          "type": "address"
        }
      ],
      "name": "__RenVMSignatureVerifier_init",
      "outputs": [],
      "stateMutability": "nonpayable",
      "type": "function"
    },
    {
      "inputs": [
        {
          "internalType": "bytes32",
          "name": "sigHash",
          "type": "bytes32"
        },
        {
          "internalType": "bytes",
          "name": "signature",
          "type": "bytes"
        }
      ],
      "name": "isValidSignature",
      "outputs": [
        {
          "internalType": "bytes4",
          "name": "",
          "type": "bytes4"
        }
      ],
      "stateMutability": "view",
      "type": "function"
    },
    {
      "inputs": [],
      "name": "mintAuthority",
      "outputs": [
        {
          "internalType": "address",
          "name": "",
          "type": "address"
        }
      ],
      "stateMutability": "view",
      "type": "function"
    },
    {
      "inputs": [],
      "name": "owner",
      "outputs": [
        {
          "internalType": "address",
          "name": "",
          "type": "address"
        }
      ],
      "stateMutability": "view",
      "type": "function"
    },
    {
      "inputs": [],
      "name": "renounceOwnership",
      "outputs": [],
      "stateMutability": "nonpayable",
      "type": "function"
    },
    {
      "inputs": [
        {
          "internalType": "address",
          "name": "newOwner",
          "type": "address"
        }
      ],
      "name": "transferOwnership",
      "outputs": [],
      "stateMutability": "nonpayable",
      "type": "function"
    },
    {
      "inputs": [
        {
          "internalType": "address",
          "name": "nextMintAuthority",
          "type": "address"
        }
      ],
      "name": "updateMintAuthority",
      "outputs": [],
      "stateMutability": "nonpayable",
      "type": "function"
    }
  ],
  "transactionHash": "0xe3025905dc6ffea892eb507a7c74e908c9507202a6b62cd4cdc596825980925a",
  "args": [],
  "solcInputHash": "28c8195c7642df595c510e6d4f107e0d",
  "bytecode": "0x608060405234801561001057600080fd5b5061196c806100206000396000f3fe608060405234801561001057600080fd5b506004361061009e5760003560e01c80637573cf5c116100665780637573cf5c146101335780638da5cb5b146101515780639340b21e1461016f578063a3f4df7e1461018d578063f2fde38b146101ab5761009e565b80630130a33b146100a35780631626ba7e146100bf5780631c5db5a8146100ef578063213e66521461010b578063715018a614610129575b600080fd5b6100bd60048036038101906100b891906110ca565b6101c7565b005b6100d960048036038101906100d49190611137565b6103a0565b6040516100e691906113ca565b60405180910390f35b610109600480360381019061010491906110f7565b6104be565b005b6101136105f6565b60405161012091906113ca565b60405180910390f35b610131610601565b005b61013b610689565b60405161014891906113ca565b60405180910390f35b610159610691565b604051610166919061136a565b60405180910390f35b6101776106bb565b604051610184919061136a565b60405180910390f35b6101956106e5565b6040516101a291906113e5565b60405180910390f35b6101c560048036038101906101c091906110ca565b61071e565b005b6101cf610691565b73ffffffffffffffffffffffffffffffffffffffff166101ed610816565b73ffffffffffffffffffffffffffffffffffffffff16148061024857506102126106bb565b73ffffffffffffffffffffffffffffffffffffffff16610230610816565b73ffffffffffffffffffffffffffffffffffffffff16145b610287576040517f08c379a000000000000000000000000000000000000000000000000000000000815260040161027e90611527565b60405180910390fd5b600073ffffffffffffffffffffffffffffffffffffffff168173ffffffffffffffffffffffffffffffffffffffff1614156102f7576040517f08c379a00000000000000000000000000000000000000000000000000000000081526004016102ee90611467565b60405180910390fd5b80606560006101000a81548173ffffffffffffffffffffffffffffffffffffffff021916908373ffffffffffffffffffffffffffffffffffffffff160217905550606560009054906101000a900473ffffffffffffffffffffffffffffffffffffffff1673ffffffffffffffffffffffffffffffffffffffff167ff0f08e606c1dd3a2c220ada53422fd9fe0aa75614b27db0549f649de3ad2072a60405160405180910390a250565b6000806103ab6106bb565b9050600073ffffffffffffffffffffffffffffffffffffffff168173ffffffffffffffffffffffffffffffffffffffff16141561041d576040517f08c379a000000000000000000000000000000000000000000000000000000000815260040161041490611507565b60405180910390fd5b61046b8585858080601f016020809104026020016040519081016040528093929190818152602001838380828437600081840152601f19601f8201169050808301925050505050505061081e565b73ffffffffffffffffffffffffffffffffffffffff168173ffffffffffffffffffffffffffffffffffffffff1614156104ae57631626ba7e60e01b9150506104b7565b600060e01b9150505b9392505050565b600060019054906101000a900460ff16806104e4575060008054906101000a900460ff16155b610523576040517f08c379a000000000000000000000000000000000000000000000000000000000815260040161051a906114a7565b60405180910390fd5b60008060019054906101000a900460ff161590508015610573576001600060016101000a81548160ff02191690831515021790555060016000806101000a81548160ff0219169083151502179055505b61057b610845565b610583610926565b61058c836101c7565b8173ffffffffffffffffffffffffffffffffffffffff166105ab610691565b73ffffffffffffffffffffffffffffffffffffffff16146105d0576105cf8261071e565b5b80156105f15760008060016101000a81548160ff0219169083151502179055505b505050565b631626ba7e60e01b81565b610609610816565b73ffffffffffffffffffffffffffffffffffffffff16610627610691565b73ffffffffffffffffffffffffffffffffffffffff161461067d576040517f08c379a0000000000000000000000000000000000000000000000000000000008152600401610674906114e7565b60405180910390fd5b6106876000610a0f565b565b600060e01b81565b6000603360009054906101000a900473ffffffffffffffffffffffffffffffffffffffff16905090565b6000606560009054906101000a900473ffffffffffffffffffffffffffffffffffffffff16905090565b6040518060400160405280601681526020017f52656e564d5369676e617475726556657269666965720000000000000000000081525081565b610726610816565b73ffffffffffffffffffffffffffffffffffffffff16610744610691565b73ffffffffffffffffffffffffffffffffffffffff161461079a576040517f08c379a0000000000000000000000000000000000000000000000000000000008152600401610791906114e7565b60405180910390fd5b600073ffffffffffffffffffffffffffffffffffffffff168173ffffffffffffffffffffffffffffffffffffffff16141561080a576040517f08c379a000000000000000000000000000000000000000000000000000000000815260040161080190611447565b60405180910390fd5b61081381610a0f565b50565b600033905090565b600080600061082d8585610ad5565b9150915061083a81610b58565b819250505092915050565b600060019054906101000a900460ff168061086b575060008054906101000a900460ff16155b6108aa576040517f08c379a00000000000000000000000000000000000000000000000000000000081526004016108a1906114a7565b60405180910390fd5b60008060019054906101000a900460ff1615905080156108fa576001600060016101000a81548160ff02191690831515021790555060016000806101000a81548160ff0219169083151502179055505b610902610d2d565b80156109235760008060016101000a81548160ff0219169083151502179055505b50565b600060019054906101000a900460ff168061094c575060008054906101000a900460ff16155b61098b576040517f08c379a0000000000000000000000000000000000000000000000000000000008152600401610982906114a7565b60405180910390fd5b60008060019054906101000a900460ff1615905080156109db576001600060016101000a81548160ff02191690831515021790555060016000806101000a81548160ff0219169083151502179055505b6109e3610d2d565b6109eb610e06565b8015610a0c5760008060016101000a81548160ff0219169083151502179055505b50565b6000603360009054906101000a900473ffffffffffffffffffffffffffffffffffffffff16905081603360006101000a81548173ffffffffffffffffffffffffffffffffffffffff021916908373ffffffffffffffffffffffffffffffffffffffff1602179055508173ffffffffffffffffffffffffffffffffffffffff168173ffffffffffffffffffffffffffffffffffffffff167f8be0079c531659141344cd1fd0a4f28419497f9722a3daafe3b4186f6b6457e060405160405180910390a35050565b600080604183511415610b175760008060006020860151925060408601519150606086015160001a9050610b0b87828585610eef565b94509450505050610b51565b604083511415610b48576000806020850151915060408501519050610b3d868383610ffc565b935093505050610b51565b60006002915091505b9250929050565b60006004811115610b6c57610b6b61160b565b5b816004811115610b7f57610b7e61160b565b5b1415610b8a57610d2a565b60016004811115610b9e57610b9d61160b565b5b816004811115610bb157610bb061160b565b5b1415610bf2576040517f08c379a0000000000000000000000000000000000000000000000000000000008152600401610be990611407565b60405180910390fd5b60026004811115610c0657610c0561160b565b5b816004811115610c1957610c1861160b565b5b1415610c5a576040517f08c379a0000000000000000000000000000000000000000000000000000000008152600401610c5190611427565b60405180910390fd5b60036004811115610c6e57610c6d61160b565b5b816004811115610c8157610c8061160b565b5b1415610cc2576040517f08c379a0000000000000000000000000000000000000000000000000000000008152600401610cb990611487565b60405180910390fd5b600480811115610cd557610cd461160b565b5b816004811115610ce857610ce761160b565b5b1415610d29576040517f08c379a0000000000000000000000000000000000000000000000000000000008152600401610d20906114c7565b60405180910390fd5b5b50565b600060019054906101000a900460ff1680610d53575060008054906101000a900460ff16155b610d92576040517f08c379a0000000000000000000000000000000000000000000000000000000008152600401610d89906114a7565b60405180910390fd5b60008060019054906101000a900460ff161590508015610de2576001600060016101000a81548160ff02191690831515021790555060016000806101000a81548160ff0219169083151502179055505b8015610e035760008060016101000a81548160ff0219169083151502179055505b50565b600060019054906101000a900460ff1680610e2c575060008054906101000a900460ff16155b610e6b576040517f08c379a0000000000000000000000000000000000000000000000000000000008152600401610e62906114a7565b60405180910390fd5b60008060019054906101000a900460ff161590508015610ebb576001600060016101000a81548160ff02191690831515021790555060016000806101000a81548160ff0219169083151502179055505b610ecb610ec6610816565b610a0f565b8015610eec5760008060016101000a81548160ff0219169083151502179055505b50565b6000807f7fffffffffffffffffffffffffffffff5d576e7357a4501ddfe92f46681b20a08360001c1115610f2a576000600391509150610ff3565b601b8560ff1614158015610f425750601c8560ff1614155b15610f54576000600491509150610ff3565b600060018787878760405160008152602001604052604051610f799493929190611385565b6020604051602081039080840390855afa158015610f9b573d6000803e3d6000fd5b505050602060405103519050600073ffffffffffffffffffffffffffffffffffffffff168173ffffffffffffffffffffffffffffffffffffffff161415610fea57600060019250925050610ff3565b80600092509250505b94509492505050565b6000806000807f7fffffffffffffffffffffffffffffffffffffffffffffffffffffffffffffff85169150601b8560ff1c01905061103c87828885610eef565b935093505050935093915050565b60008135905061105981611908565b92915050565b60008135905061106e8161191f565b92915050565b60008083601f84011261108a5761108961163f565b5b8235905067ffffffffffffffff8111156110a7576110a661163a565b5b6020830191508360018202830111156110c3576110c2611644565b5b9250929050565b6000602082840312156110e0576110df61164e565b5b60006110ee8482850161104a565b91505092915050565b6000806040838503121561110e5761110d61164e565b5b600061111c8582860161104a565b925050602061112d8582860161104a565b9150509250929050565b6000806000604084860312156111505761114f61164e565b5b600061115e8682870161105f565b935050602084013567ffffffffffffffff81111561117f5761117e611649565b5b61118b86828701611074565b92509250509250925092565b6111a081611563565b82525050565b6111af81611575565b82525050565b6111be8161157f565b82525050565b60006111cf82611547565b6111d98185611552565b93506111e98185602086016115d8565b6111f281611653565b840191505092915050565b600061120a601883611552565b915061121582611664565b602082019050919050565b600061122d601f83611552565b91506112388261168d565b602082019050919050565b6000611250602683611552565b915061125b826116b6565b604082019050919050565b6000611273603e83611552565b915061127e82611705565b604082019050919050565b6000611296602283611552565b91506112a182611754565b604082019050919050565b60006112b9602e83611552565b91506112c4826117a3565b604082019050919050565b60006112dc602283611552565b91506112e7826117f2565b604082019050919050565b60006112ff602083611552565b915061130a82611841565b602082019050919050565b6000611322603083611552565b915061132d8261186a565b604082019050919050565b6000611345602183611552565b9150611350826118b9565b604082019050919050565b611364816115cb565b82525050565b600060208201905061137f6000830184611197565b92915050565b600060808201905061139a60008301876111a6565b6113a7602083018661135b565b6113b460408301856111a6565b6113c160608301846111a6565b95945050505050565b60006020820190506113df60008301846111b5565b92915050565b600060208201905081810360008301526113ff81846111c4565b905092915050565b60006020820190508181036000830152611420816111fd565b9050919050565b6000602082019050818103600083015261144081611220565b9050919050565b6000602082019050818103600083015261146081611243565b9050919050565b6000602082019050818103600083015261148081611266565b9050919050565b600060208201905081810360008301526114a081611289565b9050919050565b600060208201905081810360008301526114c0816112ac565b9050919050565b600060208201905081810360008301526114e0816112cf565b9050919050565b60006020820190508181036000830152611500816112f2565b9050919050565b6000602082019050818103600083015261152081611315565b9050919050565b6000602082019050818103600083015261154081611338565b9050919050565b600081519050919050565b600082825260208201905092915050565b600061156e826115ab565b9050919050565b6000819050919050565b60007fffffffff0000000000000000000000000000000000000000000000000000000082169050919050565b600073ffffffffffffffffffffffffffffffffffffffff82169050919050565b600060ff82169050919050565b60005b838110156115f65780820151818401526020810190506115db565b83811115611605576000848401525b50505050565b7f4e487b7100000000000000000000000000000000000000000000000000000000600052602160045260246000fd5b600080fd5b600080fd5b600080fd5b600080fd5b600080fd5b6000601f19601f8301169050919050565b7f45434453413a20696e76616c6964207369676e61747572650000000000000000600082015250565b7f45434453413a20696e76616c6964207369676e6174757265206c656e67746800600082015250565b7f4f776e61626c653a206e6577206f776e657220697320746865207a65726f206160008201527f6464726573730000000000000000000000000000000000000000000000000000602082015250565b7f5369676e617475726556657269666965723a206d696e74417574686f7269747960008201527f2063616e6e6f742062652073657420746f2061646472657373207a65726f0000602082015250565b7f45434453413a20696e76616c6964207369676e6174757265202773272076616c60008201527f7565000000000000000000000000000000000000000000000000000000000000602082015250565b7f496e697469616c697a61626c653a20636f6e747261637420697320616c72656160008201527f647920696e697469616c697a6564000000000000000000000000000000000000602082015250565b7f45434453413a20696e76616c6964207369676e6174757265202776272076616c60008201527f7565000000000000000000000000000000000000000000000000000000000000602082015250565b7f4f776e61626c653a2063616c6c6572206973206e6f7420746865206f776e6572600082015250565b7f5369676e617475726556657269666965723a206d696e74417574686f7269747960008201527f206e6f7420696e697469616c697a656400000000000000000000000000000000602082015250565b7f5369676e617475726556657269666965723a206e6f7420617574686f72697a6560008201527f6400000000000000000000000000000000000000000000000000000000000000602082015250565b61191181611563565b811461191c57600080fd5b50565b61192881611575565b811461193357600080fd5b5056fea2646970667358221220454d79e1443abbb9fb69c948cad7f1e2b33260ab7dd5483aa56a9b066ce3d3dd64736f6c63430008070033",
  "devdoc": {
    "kind": "dev",
    "methods": {
      "owner()": {
        "details": "Returns the address of the current owner."
      },
      "renounceOwnership()": {
        "details": "Leaves the contract without owner. It will not be possible to call `onlyOwner` functions anymore. Can only be called by the current owner. NOTE: Renouncing ownership will leave the contract without an owner, thereby removing any functionality that is only available to the owner."
      },
      "transferOwnership(address)": {
        "details": "Transfers ownership of the contract to a new account (`newOwner`). Can only be called by the current owner."
      },
      "updateMintAuthority(address)": {
        "params": {
          "nextMintAuthority": "The new mint authority address."
        }
      }
    },
    "version": 1
  },
  "userdoc": {
    "kind": "user",
    "methods": {
      "isValidSignature(bytes32,bytes)": {
        "notice": "verifySignature checks the the provided signature matches the provided parameters. Returns a 4-byte value as defined by ERC1271."
      },
      "updateMintAuthority(address)": {
        "notice": "Allow the owner or mint authority to update the mint authority."
      }
    },
    "version": 1
  },
  "storageLayout": {
    "storage": [
      {
        "astId": 773,
        "contract": "src/Gateways/RenVMSignatureVerifier.sol:RenVMSignatureVerifierV1",
        "label": "_initialized",
        "offset": 0,
        "slot": "0",
        "type": "t_bool"
      },
      {
        "astId": 776,
        "contract": "src/Gateways/RenVMSignatureVerifier.sol:RenVMSignatureVerifierV1",
        "label": "_initializing",
        "offset": 1,
        "slot": "0",
        "type": "t_bool"
      },
      {
        "astId": 2463,
        "contract": "src/Gateways/RenVMSignatureVerifier.sol:RenVMSignatureVerifierV1",
        "label": "__gap",
        "offset": 0,
        "slot": "1",
        "type": "t_array(t_uint256)50_storage"
      },
      {
        "astId": 653,
        "contract": "src/Gateways/RenVMSignatureVerifier.sol:RenVMSignatureVerifierV1",
        "label": "_owner",
        "offset": 0,
        "slot": "51",
        "type": "t_address"
      },
      {
        "astId": 766,
        "contract": "src/Gateways/RenVMSignatureVerifier.sol:RenVMSignatureVerifierV1",
        "label": "__gap",
        "offset": 0,
        "slot": "52",
        "type": "t_array(t_uint256)49_storage"
      },
      {
        "astId": 9651,
        "contract": "src/Gateways/RenVMSignatureVerifier.sol:RenVMSignatureVerifierV1",
        "label": "_mintAuthority",
        "offset": 0,
        "slot": "101",
        "type": "t_address"
      },
      {
        "astId": 9655,
        "contract": "src/Gateways/RenVMSignatureVerifier.sol:RenVMSignatureVerifierV1",
        "label": "__gap",
        "offset": 0,
        "slot": "102",
        "type": "t_array(t_uint256)49_storage"
      }
    ],
    "types": {
      "t_address": {
        "encoding": "inplace",
        "label": "address",
        "numberOfBytes": "20"
      },
      "t_array(t_uint256)49_storage": {
        "base": "t_uint256",
        "encoding": "inplace",
        "label": "uint256[49]",
        "numberOfBytes": "1568"
      },
      "t_array(t_uint256)50_storage": {
        "base": "t_uint256",
        "encoding": "inplace",
        "label": "uint256[50]",
        "numberOfBytes": "1600"
      },
      "t_bool": {
        "encoding": "inplace",
        "label": "bool",
        "numberOfBytes": "1"
      },
      "t_uint256": {
        "encoding": "inplace",
        "label": "uint256",
        "numberOfBytes": "32"
      }
    }
  }
}