{
  "address": "0xAaEd2E8ff0A116354ad015E9c6d9c299E3081271",
  "abi": [
    {
      "anonymous": false,
      "inputs": [
        {
          "indexed": true,
          "internalType": "address",
          "name": "from",
          "type": "address"
        },
        {
          "indexed": true,
          "internalType": "address",
          "name": "to",
          "type": "address"
        },
        {
          "indexed": false,
          "internalType": "uint256",
          "name": "amount",
          "type": "uint256"
        }
      ],
      "name": "LogTransferred",
      "type": "event"
    },
    {
      "inputs": [],
      "name": "NAME",
      "outputs": [
        {
          "internalType": "string",
          "name": "",
          "type": "string"
        }
      ],
      "stateMutability": "view",
      "type": "function"
    },
    {
      "inputs": [
        {
          "internalType": "address payable",
          "name": "to",
          "type": "address"
        }
      ],
      "name": "transferWithLog",
      "outputs": [],
      "stateMutability": "payable",
      "type": "function"
    }
  ],
  "transactionHash": "0x21c308743b4f31e0bbc8decfa8c20139d10321624535d27c07d4e9140601cb78",
  "args": [],
  "solcInputHash": "28c8195c7642df595c510e6d4f107e0d",
  "bytecode": "0x608060405234801561001057600080fd5b50610541806100206000396000f3fe6080604052600436106100295760003560e01c8063a3f4df7e1461002e578063f365949214610059575b600080fd5b34801561003a57600080fd5b50610043610075565b6040516100509190610350565b60405180910390f35b610073600480360381019061006e919061025d565b6100ae565b005b6040518060400160405280600f81526020017f5472616e73666572576974684c6f67000000000000000000000000000000000081525081565b600073ffffffffffffffffffffffffffffffffffffffff168173ffffffffffffffffffffffffffffffffffffffff16141561011e576040517f08c379a000000000000000000000000000000000000000000000000000000000815260040161011590610372565b60405180910390fd5b600034905060008273ffffffffffffffffffffffffffffffffffffffff16826040516101499061033b565b60006040518083038185875af1925050503d8060008114610186576040519150601f19603f3d011682016040523d82523d6000602084013e61018b565b606091505b50509050806101cf576040517f08c379a00000000000000000000000000000000000000000000000000000000081526004016101c690610392565b60405180910390fd5b8273ffffffffffffffffffffffffffffffffffffffff166101ee610240565b73ffffffffffffffffffffffffffffffffffffffff167f488b94843be4f0df500bd7d8c10ae80f778d8f4943c7a72df6a74b5b142a2ed98460405161023391906103b2565b60405180910390a3505050565b600033905090565b600081359050610257816104f4565b92915050565b60006020828403121561027357610272610463565b5b600061028184828501610248565b91505092915050565b6000610295826103cd565b61029f81856103e3565b93506102af818560208601610430565b6102b881610468565b840191505092915050565b60006102d06028836103e3565b91506102db82610479565b604082019050919050565b60006102f36020836103e3565b91506102fe826104c8565b602082019050919050565b60006103166000836103d8565b9150610321826104f1565b600082019050919050565b61033581610426565b82525050565b600061034682610309565b9150819050919050565b6000602082019050818103600083015261036a818461028a565b905092915050565b6000602082019050818103600083015261038b816102c3565b9050919050565b600060208201905081810360008301526103ab816102e6565b9050919050565b60006020820190506103c7600083018461032c565b92915050565b600081519050919050565b600081905092915050565b600082825260208201905092915050565b60006103ff82610406565b9050919050565b600073ffffffffffffffffffffffffffffffffffffffff82169050919050565b6000819050919050565b60005b8381101561044e578082015181840152602081019050610433565b8381111561045d576000848401525b50505050565b600080fd5b6000601f19601f8301169050919050565b7f5472616e73666572576974684c6f673a20696e76616c696420656d707479207260008201527f6563697069656e74000000000000000000000000000000000000000000000000602082015250565b7f5472616e73666572576974684c6f673a207472616e73666572206661696c6564600082015250565b50565b6104fd816103f4565b811461050857600080fd5b5056fea26469706673582212209957e4b5885dcbea83c05c4178661c6dce69f3888b93022a2f51da0f7b030dc864736f6c63430008070033",
  "devdoc": {
    "kind": "dev",
    "methods": {},
    "version": 1
  },
  "userdoc": {
    "kind": "user",
    "methods": {},
    "notice": "TransferWithLog is a replacement for a standard ETH transfer, with an added log to make it easily searchable.",
    "version": 1
  },
  "storageLayout": {
    "storage": [],
    "types": null
  }
}