{
  "address": "0x315f496C48e8028fe9FD7a8345160a377fdB29EB",
  "abi": [
    {
      "inputs": [
        {
          "internalType": "contract IGatewayRegistry",
          "name": "_registry",
          "type": "address"
        }
      ],
      "stateMutability": "nonpayable",
      "type": "constructor"
    },
    {
      "inputs": [
        {
          "internalType": "string",
          "name": "symbol_",
          "type": "string"
        },
        {
          "internalType": "string",
          "name": "to_",
          "type": "string"
        },
        {
          "internalType": "uint256",
          "name": "amount_",
          "type": "uint256"
        }
      ],
      "name": "burn",
      "outputs": [],
      "stateMutability": "nonpayable",
      "type": "function"
    },
    {
      "inputs": [
        {
          "internalType": "string",
          "name": "symbol_",
          "type": "string"
        },
        {
          "internalType": "string",
          "name": "recipientAddress_",
          "type": "string"
        },
        {
          "internalType": "string",
          "name": "recipientChain_",
          "type": "string"
        },
        {
          "internalType": "bytes",
          "name": "recipientPayload_",
          "type": "bytes"
        },
        {
          "internalType": "uint256",
          "name": "amount_",
          "type": "uint256"
        }
      ],
      "name": "lock",
      "outputs": [],
      "stateMutability": "nonpayable",
      "type": "function"
    },
    {
      "inputs": [
        {
          "internalType": "string",
          "name": "symbol_",
          "type": "string"
        },
        {
          "internalType": "address",
          "name": "recipient_",
          "type": "address"
        },
        {
          "internalType": "uint256",
          "name": "amount_",
          "type": "uint256"
        },
        {
          "internalType": "bytes32",
          "name": "nHash_",
          "type": "bytes32"
        },
        {
          "internalType": "bytes",
          "name": "sig_",
          "type": "bytes"
        }
      ],
      "name": "mint",
      "outputs": [],
      "stateMutability": "nonpayable",
      "type": "function"
    },
    {
      "inputs": [
        {
          "internalType": "string",
          "name": "symbol_",
          "type": "string"
        },
        {
          "internalType": "address",
          "name": "recipient_",
          "type": "address"
        },
        {
          "internalType": "uint256",
          "name": "amount_",
          "type": "uint256"
        },
        {
          "internalType": "bytes32",
          "name": "nHash_",
          "type": "bytes32"
        },
        {
          "internalType": "bytes",
          "name": "sig_",
          "type": "bytes"
        }
      ],
      "name": "release",
      "outputs": [],
      "stateMutability": "nonpayable",
      "type": "function"
    }
  ],
  "transactionHash": "0x58a7821d4169e74cbad5b5deaada25a6ae643c92f561b2571ed4b3a6ab28ee54",
  "args": [
    "0xC6F3D96D176E8978a57b1106132EF81eA80391F8"
  ],
  "solcInputHash": "cd16daf0061bcc045fc96aa81722133b",
  "bytecode": "0x60806040523480156200001157600080fd5b506040516200181438038062001814833981810160405281019062000037919062000095565b806000806101000a81548173ffffffffffffffffffffffffffffffffffffffff021916908373ffffffffffffffffffffffffffffffffffffffff160217905550506200012e565b6000815190506200008f8162000114565b92915050565b600060208284031215620000ae57620000ad6200010f565b5b6000620000be848285016200007e565b91505092915050565b6000620000d482620000ef565b9050919050565b6000620000e882620000c7565b9050919050565b600073ffffffffffffffffffffffffffffffffffffffff82169050919050565b600080fd5b6200011f81620000db565b81146200012b57600080fd5b50565b6116d6806200013e6000396000f3fe608060405234801561001057600080fd5b506004361061004c5760003560e01c806377f614031461005157806380a3c6331461006d578063bc7fac7d14610089578063cc3107a0146100a5575b600080fd5b61006b60048036038101906100669190610e86565b6100c1565b005b61008760048036038101906100829190610f42565b610375565b005b6100a3600480360381019061009e9190610fd7565b61062e565b005b6100bf60048036038101906100ba9190610e86565b6108ea565b005b60008787876040516020016100d893929190611312565b60405160208183030381529060405280519060200120905060008060009054906101000a900473ffffffffffffffffffffffffffffffffffffffff1673ffffffffffffffffffffffffffffffffffffffff16637b5c884f8a8a6040518363ffffffff1660e01b815260040161014e9291906112ee565b60206040518083038186803b15801561016657600080fd5b505afa15801561017a573d6000803e3d6000fd5b505050506040513d601f19601f8201168201806040525081019061019e9190610e59565b73ffffffffffffffffffffffffffffffffffffffff1663159ab14d83888888886040518663ffffffff1660e01b81526004016101de95949392919061126e565b602060405180830381600087803b1580156101f857600080fd5b505af115801561020c573d6000803e3d6000fd5b505050506040513d601f19601f8201168201806040525081019061023091906110c5565b905060008054906101000a900473ffffffffffffffffffffffffffffffffffffffff1673ffffffffffffffffffffffffffffffffffffffff166379c73a7a8a8a6040518363ffffffff1660e01b815260040161028d9291906112ee565b60206040518083038186803b1580156102a557600080fd5b505afa1580156102b9573d6000803e3d6000fd5b505050506040513d601f19601f820116820180604052508101906102dd9190610dff565b73ffffffffffffffffffffffffffffffffffffffff1663a9059cbb88836040518363ffffffff1660e01b8152600401610317929190611245565b602060405180830381600087803b15801561033157600080fd5b505af1158015610345573d6000803e3d6000fd5b505050506040513d601f19601f820116820180604052508101906103699190610dd2565b50505050505050505050565b60008054906101000a900473ffffffffffffffffffffffffffffffffffffffff1673ffffffffffffffffffffffffffffffffffffffff166379c73a7a86866040518363ffffffff1660e01b81526004016103d09291906112ee565b60206040518083038186803b1580156103e857600080fd5b505afa1580156103fc573d6000803e3d6000fd5b505050506040513d601f19601f820116820180604052508101906104209190610dff565b73ffffffffffffffffffffffffffffffffffffffff166323b872dd3330846040518463ffffffff1660e01b815260040161045c9392919061120e565b602060405180830381600087803b15801561047657600080fd5b505af115801561048a573d6000803e3d6000fd5b505050506040513d601f19601f820116820180604052508101906104ae9190610dd2565b6104ed576040517f08c379a00000000000000000000000000000000000000000000000000000000081526004016104e49061139e565b60405180910390fd5b60008054906101000a900473ffffffffffffffffffffffffffffffffffffffff1673ffffffffffffffffffffffffffffffffffffffff16637b5c884f86866040518363ffffffff1660e01b81526004016105489291906112ee565b60206040518083038186803b15801561056057600080fd5b505afa158015610574573d6000803e3d6000fd5b505050506040513d601f19601f820116820180604052508101906105989190610e59565b73ffffffffffffffffffffffffffffffffffffffff166338463cff8484846040518463ffffffff1660e01b81526004016105d4939291906112bc565b602060405180830381600087803b1580156105ee57600080fd5b505af1158015610602573d6000803e3d6000fd5b505050506040513d601f19601f8201168201806040525081019061062691906110c5565b505050505050565b60008054906101000a900473ffffffffffffffffffffffffffffffffffffffff1673ffffffffffffffffffffffffffffffffffffffff16639c789bb887876040518363ffffffff1660e01b81526004016106899291906112ee565b60206040518083038186803b1580156106a157600080fd5b505afa1580156106b5573d6000803e3d6000fd5b505050506040513d601f19601f820116820180604052508101906106d99190610dff565b73ffffffffffffffffffffffffffffffffffffffff166323b872dd3330846040518463ffffffff1660e01b81526004016107159392919061120e565b602060405180830381600087803b15801561072f57600080fd5b505af1158015610743573d6000803e3d6000fd5b505050506040513d601f19601f820116820180604052508101906107679190610dd2565b6107a6576040517f08c379a000000000000000000000000000000000000000000000000000000000815260040161079d9061139e565b60405180910390fd5b60008054906101000a900473ffffffffffffffffffffffffffffffffffffffff1673ffffffffffffffffffffffffffffffffffffffff16633922d13987876040518363ffffffff1660e01b81526004016108019291906112ee565b60206040518083038186803b15801561081957600080fd5b505afa15801561082d573d6000803e3d6000fd5b505050506040513d601f19601f820116820180604052508101906108519190610e2c565b73ffffffffffffffffffffffffffffffffffffffff1663ca9d9532858585856040518563ffffffff1660e01b815260040161088f9493929190611344565b602060405180830381600087803b1580156108a957600080fd5b505af11580156108bd573d6000803e3d6000fd5b505050506040513d601f19601f820116820180604052508101906108e191906110c5565b50505050505050565b600087878760405160200161090193929190611312565b60405160208183030381529060405280519060200120905060008060009054906101000a900473ffffffffffffffffffffffffffffffffffffffff1673ffffffffffffffffffffffffffffffffffffffff16633922d1398a8a6040518363ffffffff1660e01b81526004016109779291906112ee565b60206040518083038186803b15801561098f57600080fd5b505afa1580156109a3573d6000803e3d6000fd5b505050506040513d601f19601f820116820180604052508101906109c79190610e2c565b73ffffffffffffffffffffffffffffffffffffffff16639cffc71583888888886040518663ffffffff1660e01b8152600401610a0795949392919061126e565b602060405180830381600087803b158015610a2157600080fd5b505af1158015610a35573d6000803e3d6000fd5b505050506040513d601f19601f82011682018060405250810190610a5991906110c5565b905060008054906101000a900473ffffffffffffffffffffffffffffffffffffffff1673ffffffffffffffffffffffffffffffffffffffff166379c73a7a8a8a6040518363ffffffff1660e01b8152600401610ab69291906112ee565b60206040518083038186803b158015610ace57600080fd5b505afa158015610ae2573d6000803e3d6000fd5b505050506040513d601f19601f82011682018060405250810190610b069190610dff565b73ffffffffffffffffffffffffffffffffffffffff1663a9059cbb88836040518363ffffffff1660e01b8152600401610b40929190611245565b602060405180830381600087803b158015610b5a57600080fd5b505af1158015610b6e573d6000803e3d6000fd5b505050506040513d601f19601f82011682018060405250810190610b929190610dd2565b50505050505050505050565b6000610bb1610bac846113e3565b6113be565b905082815260208101848484011115610bcd57610bcc6115b6565b5b610bd8848285611505565b509392505050565b6000610bf3610bee84611414565b6113be565b905082815260208101848484011115610c0f57610c0e6115b6565b5b610c1a848285611505565b509392505050565b600081359050610c31816115ff565b92915050565b600081519050610c4681611616565b92915050565b600081359050610c5b8161162d565b92915050565b60008083601f840112610c7757610c766115ac565b5b8235905067ffffffffffffffff811115610c9457610c936115a7565b5b602083019150836001820283011115610cb057610caf6115b1565b5b9250929050565b600082601f830112610ccc57610ccb6115ac565b5b8135610cdc848260208601610b9e565b91505092915050565b600081519050610cf481611644565b92915050565b600081519050610d098161165b565b92915050565b600081519050610d1e81611672565b92915050565b60008083601f840112610d3a57610d396115ac565b5b8235905067ffffffffffffffff811115610d5757610d566115a7565b5b602083019150836001820283011115610d7357610d726115b1565b5b9250929050565b600082601f830112610d8f57610d8e6115ac565b5b8135610d9f848260208601610be0565b91505092915050565b600081359050610db781611689565b92915050565b600081519050610dcc81611689565b92915050565b600060208284031215610de857610de76115c0565b5b6000610df684828501610c37565b91505092915050565b600060208284031215610e1557610e146115c0565b5b6000610e2384828501610ce5565b91505092915050565b600060208284031215610e4257610e416115c0565b5b6000610e5084828501610cfa565b91505092915050565b600060208284031215610e6f57610e6e6115c0565b5b6000610e7d84828501610d0f565b91505092915050565b600080600080600080600060a0888a031215610ea557610ea46115c0565b5b600088013567ffffffffffffffff811115610ec357610ec26115bb565b5b610ecf8a828b01610d24565b97509750506020610ee28a828b01610c22565b9550506040610ef38a828b01610da8565b9450506060610f048a828b01610c4c565b935050608088013567ffffffffffffffff811115610f2557610f246115bb565b5b610f318a828b01610c61565b925092505092959891949750929550565b600080600080600060608688031215610f5e57610f5d6115c0565b5b600086013567ffffffffffffffff811115610f7c57610f7b6115bb565b5b610f8888828901610d24565b9550955050602086013567ffffffffffffffff811115610fab57610faa6115bb565b5b610fb788828901610d24565b93509350506040610fca88828901610da8565b9150509295509295909350565b60008060008060008060a08789031215610ff457610ff36115c0565b5b600087013567ffffffffffffffff811115611012576110116115bb565b5b61101e89828a01610d24565b9650965050602087013567ffffffffffffffff811115611041576110406115bb565b5b61104d89828a01610d7a565b945050604087013567ffffffffffffffff81111561106e5761106d6115bb565b5b61107a89828a01610d7a565b935050606087013567ffffffffffffffff81111561109b5761109a6115bb565b5b6110a789828a01610cb7565b92505060806110b889828a01610da8565b9150509295509295509295565b6000602082840312156110db576110da6115c0565b5b60006110e984828501610dbd565b91505092915050565b6110fb8161147d565b82525050565b61110a8161149b565b82525050565b600061111c838561145b565b9350611129838584611505565b611132836115c5565b840190509392505050565b600061114882611445565b611152818561145b565b9350611162818560208601611514565b61116b816115c5565b840191505092915050565b6000611182838561146c565b935061118f838584611505565b611198836115c5565b840190509392505050565b60006111ae82611450565b6111b8818561146c565b93506111c8818560208601611514565b6111d1816115c5565b840191505092915050565b60006111e960158361146c565b91506111f4826115d6565b602082019050919050565b611208816114fb565b82525050565b600060608201905061122360008301866110f2565b61123060208301856110f2565b61123d60408301846111ff565b949350505050565b600060408201905061125a60008301856110f2565b61126760208301846111ff565b9392505050565b60006080820190506112836000830188611101565b61129060208301876111ff565b61129d6040830186611101565b81810360608301526112b0818486611110565b90509695505050505050565b600060408201905081810360008301526112d7818587611110565b90506112e660208301846111ff565b949350505050565b60006020820190508181036000830152611309818486611176565b90509392505050565b6000604082019050818103600083015261132d818587611176565b905061133c60208301846110f2565b949350505050565b6000608082019050818103600083015261135e81876111a3565b9050818103602083015261137281866111a3565b90508181036040830152611386818561113d565b905061139560608301846111ff565b95945050505050565b600060208201905081810360008301526113b7816111dc565b9050919050565b60006113c86113d9565b90506113d48282611547565b919050565b6000604051905090565b600067ffffffffffffffff8211156113fe576113fd611578565b5b611407826115c5565b9050602081019050919050565b600067ffffffffffffffff82111561142f5761142e611578565b5b611438826115c5565b9050602081019050919050565b600081519050919050565b600081519050919050565b600082825260208201905092915050565b600082825260208201905092915050565b6000611488826114db565b9050919050565b60008115159050919050565b6000819050919050565b60006114b08261147d565b9050919050565b60006114c28261147d565b9050919050565b60006114d48261147d565b9050919050565b600073ffffffffffffffffffffffffffffffffffffffff82169050919050565b6000819050919050565b82818337600083830152505050565b60005b83811015611532578082015181840152602081019050611517565b83811115611541576000848401525b50505050565b611550826115c5565b810181811067ffffffffffffffff8211171561156f5761156e611578565b5b80604052505050565b7f4e487b7100000000000000000000000000000000000000000000000000000000600052604160045260246000fd5b600080fd5b600080fd5b600080fd5b600080fd5b600080fd5b600080fd5b6000601f19601f8301169050919050565b7f746f6b656e207472616e73666572206661696c65640000000000000000000000600082015250565b6116088161147d565b811461161357600080fd5b50565b61161f8161148f565b811461162a57600080fd5b50565b6116368161149b565b811461164157600080fd5b50565b61164d816114a5565b811461165857600080fd5b50565b611664816114b7565b811461166f57600080fd5b50565b61167b816114c9565b811461168657600080fd5b50565b611692816114fb565b811461169d57600080fd5b5056fea264697066735822122041a79abc797c1e3e44834e9936a104c14d58ab01a7ca599f8342df3d7a8ac0ad64736f6c63430008070033",
  "devdoc": {
    "kind": "dev",
    "methods": {},
    "version": 1
  },
  "userdoc": {
    "kind": "user",
    "methods": {},
    "version": 1
  },
  "storageLayout": {
    "storage": [
      {
        "astId": 6213,
        "contract": "src/BasicBridge.sol:BasicBridge",
        "label": "registry",
        "offset": 0,
        "slot": "0",
        "type": "t_contract(IGatewayRegistry)8073"
      }
    ],
    "types": {
      "t_contract(IGatewayRegistry)8073": {
        "encoding": "inplace",
        "label": "contract IGatewayRegistry",
        "numberOfBytes": "20"
      }
    }
  }
}