{
  "address": "0x7869aE8a85178eeD8e9e05B32b0c6a99365Cb355",
  "abi": [
    {
      "anonymous": false,
      "inputs": [
        {
          "indexed": true,
          "internalType": "uint256",
          "name": "claimNonce",
          "type": "uint256"
        },
        {
          "indexed": true,
          "internalType": "address",
          "name": "operatorAddress",
          "type": "address"
        },
        {
          "indexed": false,
          "internalType": "string",
          "name": "assetSymbol",
          "type": "string"
        },
        {
          "indexed": false,
          "internalType": "string",
          "name": "recipientAddress",
          "type": "string"
        },
        {
          "indexed": false,
          "internalType": "string",
          "name": "recipientChain",
          "type": "string"
        },
        {
          "indexed": false,
          "internalType": "bytes",
          "name": "recipientPayload",
          "type": "bytes"
        },
        {
          "indexed": false,
          "internalType": "uint256",
          "name": "fractionInBps",
          "type": "uint256"
        },
        {
          "indexed": true,
          "internalType": "string",
          "name": "assetSymbolIndexed",
          "type": "string"
        }
      ],
      "name": "LogClaimRewards",
      "type": "event"
    },
    {
      "inputs": [],
      "name": "BPS_DENOMINATOR",
      "outputs": [
        {
          "internalType": "uint256",
          "name": "",
          "type": "uint256"
        }
      ],
      "stateMutability": "view",
      "type": "function"
    },
    {
      "inputs": [],
      "name": "__ClaimRewards_init",
      "outputs": [],
      "stateMutability": "nonpayable",
      "type": "function"
    },
    {
      "inputs": [
        {
          "internalType": "string",
          "name": "assetSymbol",
          "type": "string"
        },
        {
          "internalType": "string",
          "name": "recipientAddress",
          "type": "string"
        },
        {
          "internalType": "string",
          "name": "recipientChain",
          "type": "string"
        },
        {
          "internalType": "bytes",
          "name": "recipientPayload",
          "type": "bytes"
        },
        {
          "internalType": "uint256",
          "name": "fractionInBps",
          "type": "uint256"
        }
      ],
      "name": "claimRewardsToChain",
      "outputs": [
        {
          "internalType": "uint256",
          "name": "",
          "type": "uint256"
        }
      ],
      "stateMutability": "nonpayable",
      "type": "function"
    },
    {
      "inputs": [
        {
          "internalType": "string",
          "name": "assetSymbol",
          "type": "string"
        },
        {
          "internalType": "address",
          "name": "recipientAddress",
          "type": "address"
        },
        {
          "internalType": "uint256",
          "name": "fractionInBps",
          "type": "uint256"
        }
      ],
      "name": "claimRewardsToEthereum",
      "outputs": [
        {
          "internalType": "uint256",
          "name": "",
          "type": "uint256"
        }
      ],
      "stateMutability": "nonpayable",
      "type": "function"
    },
    {
      "inputs": [],
      "name": "getNextClaimNonce",
      "outputs": [
        {
          "internalType": "uint256",
          "name": "",
          "type": "uint256"
        }
      ],
      "stateMutability": "view",
      "type": "function"
    }
  ],
  "transactionHash": "0xe72dcb4d3b3d834eb3f0c6fe0b9186e4772bad869911fc75a80bede6eed13b61",
  "args": [],
  "numDeployments": 1,
  "solcInputHash": "f487db171a77351c3dff3ebd5b31202a",
  "bytecode": "0x608060405234801561001057600080fd5b50610a77806100206000396000f3fe608060405234801561001057600080fd5b50600436106100575760003560e01c8063766256fa1461005c578063a430147f14610066578063aaf5689d1461008b578063ad42bdb014610093578063e1a45218146100a6575b600080fd5b6100646100af565b005b61007961007436600461078f565b610167565b60405190815260200160405180910390f35b600154610079565b6100796100a13660046107f5565b6101c0565b61007961271081565b600054610100900460ff16806100c8575060005460ff16155b6101305760405162461bcd60e51b815260206004820152602e60248201527f496e697469616c697a61626c653a20636f6e747261637420697320616c72656160448201526d191e481a5b9a5d1a585b1a5e995960921b60648201526084015b60405180910390fd5b600054610100900460ff16158015610152576000805461ffff19166101011790555b8015610164576000805461ff00191690555b50565b60006101b884610181856001600160a01b031660146104a2565b60405180604001604052806008815260200167457468657265756d60c01b81525060405180602001604052806000815250866101c0565b949350505050565b60006101cc8651151590565b6102225760405162461bcd60e51b815260206004820152602160248201527f436c61696d526577617264733a20696e76616c696420656d70747920617373656044820152601d60fa1b6064820152608401610127565b61022b86610645565b6102775760405162461bcd60e51b815260206004820152601b60248201527f436c61696d526577617264733a20696e76616c696420617373657400000000006044820152606401610127565b84516102db5760405162461bcd60e51b815260206004820152602d60248201527f436c61696d526577617264733a20696e76616c696420656d707479207265636960448201526c7069656e74206164647265737360981b6064820152608401610127565b6102e485610645565b6103405760405162461bcd60e51b815260206004820152602760248201527f436c61696d526577617264733a20696e76616c696420726563697069656e74206044820152666164647265737360c81b6064820152608401610127565b61034984610645565b6103a35760405162461bcd60e51b815260206004820152602560248201527f436c61696d526577617264733a20696e76616c696420726563697069656e742060448201526431b430b4b760d91b6064820152608401610127565b61271082111561041b5760405162461bcd60e51b815260206004820152603760248201527f436c61696d526577617264733a20696e76616c6964206672616374696f6e207660448201527f616c75652067726561746572207468616e2031303030300000000000000000006064820152608401610127565b33600061042760015490565b9050610434816001610966565b6001556040516104459089906108ea565b6040518091039020826001600160a01b0316827f508f7982abcc6a04638da6bf7685b4cbd566873be211123554e5b7a69fc519ef8b8b8b8b8b60405161048f959493929190610906565b60405180910390a4979650505050505050565b606060006104b183600261097e565b6104bc906002610966565b67ffffffffffffffff8111156104d4576104d4610a2b565b6040519080825280601f01601f1916602001820160405280156104fe576020820181803683370190505b509050600360fc1b8160008151811061051957610519610a15565b60200101906001600160f81b031916908160001a905350600f60fb1b8160018151811061054857610548610a15565b60200101906001600160f81b031916908160001a905350600061056c84600261097e565b610577906001610966565b90505b60018111156105ef576f181899199a1a9b1b9c1cb0b131b232b360811b85600f16601081106105ab576105ab610a15565b1a60f81b8282815181106105c1576105c1610a15565b60200101906001600160f81b031916908160001a90535060049490941c936105e8816109cd565b905061057a565b50831561063e5760405162461bcd60e51b815260206004820181905260248201527f537472696e67733a20686578206c656e67746820696e73756666696369656e746044820152606401610127565b9392505050565b6000805b82518110156106f057600083828151811061066657610666610a15565b016020015160f81c9050604181108015906106855750605a8160ff1611155b806106a3575060618160ff16101580156106a35750607a8160ff1611155b806106c1575060308160ff16101580156106c1575060398160ff1611155b806106cf57508060ff16605f145b6106dd575060009392505050565b50806106e8816109e4565b915050610649565b50600192915050565b600067ffffffffffffffff8084111561071457610714610a2b565b604051601f8501601f19908116603f0116810190828211818310171561073c5761073c610a2b565b8160405280935085815286868601111561075557600080fd5b858560208301376000602087830101525050509392505050565b600082601f83011261078057600080fd5b61063e838335602085016106f9565b6000806000606084860312156107a457600080fd5b833567ffffffffffffffff8111156107bb57600080fd5b6107c78682870161076f565b93505060208401356001600160a01b03811681146107e457600080fd5b929592945050506040919091013590565b600080600080600060a0868803121561080d57600080fd5b853567ffffffffffffffff8082111561082557600080fd5b61083189838a0161076f565b9650602088013591508082111561084757600080fd5b61085389838a0161076f565b9550604088013591508082111561086957600080fd5b61087589838a0161076f565b9450606088013591508082111561088b57600080fd5b508601601f8101881361089d57600080fd5b6108ac888235602084016106f9565b95989497509295608001359392505050565b600081518084526108d681602086016020860161099d565b601f01601f19169290920160200192915050565b600082516108fc81846020870161099d565b9190910192915050565b60a08152600061091960a08301886108be565b828103602084015261092b81886108be565b9050828103604084015261093f81876108be565b9050828103606084015261095381866108be565b9150508260808301529695505050505050565b60008219821115610979576109796109ff565b500190565b6000816000190483118215151615610998576109986109ff565b500290565b60005b838110156109b85781810151838201526020016109a0565b838111156109c7576000848401525b50505050565b6000816109dc576109dc6109ff565b506000190190565b60006000198214156109f8576109f86109ff565b5060010190565b634e487b7160e01b600052601160045260246000fd5b634e487b7160e01b600052603260045260246000fd5b634e487b7160e01b600052604160045260246000fdfea2646970667358221220c00fa7a86af3026bf0f9d561637277b8effb15084773ba56290cec2a78d0cc7564736f6c63430008070033",
  "devdoc": {
    "kind": "dev",
    "methods": {
      "claimRewardsToChain(string,string,string,bytes,uint256)": {
        "params": {
          "assetSymbol": "The token symbol being claimed (e.g. \"BTC\", \"DOGE\" or        \"FIL\").",
          "fractionInBps": "A value between 0 and 10000 (inclusive) that        indicates the percent to withdraw from each of the operator's        darknodes. The value should be in BPS (e.g. 10000 represents 100%,        and 5000 represents 50%).",
          "recipientAddress": "An address on the asset's native chain, for        receiving the withdrawn rewards. This should be a string as        provided by the user - no encoding or decoding required.        E.g.: \"miMi2VET41YV1j6SDNTeZoPBbmH8B4nEx6\" for BTC.",
          "recipientChain": "A string indicating which chain the rewards should        be withdrawn to. It should be the name of the chain as expected by        RenVM (e.g. \"Ethereum\" or \"Solana\"). Support for different chains        will be rolled out after this contract is deployed, starting with        \"Ethereum\", then other host chains (e.g. \"Polygon\" or \"Solana\")        and then lock chains (e.g. \"Bitcoin\" for \"BTC\"), also represented        by an empty string \"\".",
          "recipientPayload": "An associated payload that can be provided along        with the recipient chain and address. Should be empty if not        required."
        }
      }
    },
    "version": 1
  },
  "userdoc": {
    "kind": "user",
    "methods": {
      "claimRewardsToChain(string,string,string,bytes,uint256)": {
        "notice": "claimRewardsToChain allows darknode operators to withdraw darknode earnings, as an on-chain alternative to the JSON-RPC claim method. It will the operators total sum of rewards, for all of their nodes."
      },
      "claimRewardsToEthereum(string,address,uint256)": {
        "notice": "`claimRewardsToEthereum` calls `claimRewardsToChain` internally, converting the recipientAddress to a string and providing an empty payload."
      }
    },
    "version": 1
  },
  "storageLayout": {
    "storage": [
      {
        "astId": 773,
        "contract": "src/Protocol/ClaimRewards.sol:ClaimRewardsV1",
        "label": "_initialized",
        "offset": 0,
        "slot": "0",
        "type": "t_bool"
      },
      {
        "astId": 776,
        "contract": "src/Protocol/ClaimRewards.sol:ClaimRewardsV1",
        "label": "_initializing",
        "offset": 1,
        "slot": "0",
        "type": "t_bool"
      },
      {
        "astId": 12031,
        "contract": "src/Protocol/ClaimRewards.sol:ClaimRewardsV1",
        "label": "_nextClaimNonce",
        "offset": 0,
        "slot": "1",
        "type": "t_uint256"
      },
      {
        "astId": 12035,
        "contract": "src/Protocol/ClaimRewards.sol:ClaimRewardsV1",
        "label": "__gap",
        "offset": 0,
        "slot": "2",
        "type": "t_array(t_uint256)49_storage"
      }
    ],
    "types": {
      "t_array(t_uint256)49_storage": {
        "base": "t_uint256",
        "encoding": "inplace",
        "label": "uint256[49]",
        "numberOfBytes": "1568"
      },
      "t_bool": {
        "encoding": "inplace",
        "label": "bool",
        "numberOfBytes": "1"
      },
      "t_uint256": {
        "encoding": "inplace",
        "label": "uint256",
        "numberOfBytes": "32"
      }
    }
  }
}