{
  "address": "0x41493d32036f5bf0eFfE94f259B2B0dC1B086A6e",
  "abi": [
    {
      "anonymous": false,
      "inputs": [
        {
          "indexed": true,
          "internalType": "address",
          "name": "from",
          "type": "address"
        },
        {
          "indexed": true,
          "internalType": "address",
          "name": "to",
          "type": "address"
        },
        {
          "indexed": false,
          "internalType": "uint256",
          "name": "amount",
          "type": "uint256"
        }
      ],
      "name": "LogTransferred",
      "type": "event"
    },
    {
      "inputs": [],
      "name": "NAME",
      "outputs": [
        {
          "internalType": "string",
          "name": "",
          "type": "string"
        }
      ],
      "stateMutability": "view",
      "type": "function"
    },
    {
      "inputs": [
        {
          "internalType": "address payable",
          "name": "to",
          "type": "address"
        }
      ],
      "name": "transferWithLog",
      "outputs": [],
      "stateMutability": "payable",
      "type": "function"
    }
  ],
  "transactionHash": "0x5eaf358b90c5072da20e42160617ac3ee2198e038088353bd975693fdc169316",
  "args": [],
  "solcInputHash": "5b6b2689ed9e6b3172aee736600c5c8e",
  "bytecode": "0x608060405234801561001057600080fd5b506102a3806100206000396000f3fe6080604052600436106100295760003560e01c8063a3f4df7e1461002e578063f36594921461007f575b600080fd5b34801561003a57600080fd5b506100696040518060400160405280600f81526020016e5472616e73666572576974684c6f6760881b81525081565b6040516100769190610218565b60405180910390f35b61009261008d3660046101e8565b610094565b005b6001600160a01b0381166101005760405162461bcd60e51b815260206004820152602860248201527f5472616e73666572576974684c6f673a20696e76616c696420656d70747920726044820152671958da5c1a595b9d60c21b60648201526084015b60405180910390fd5b60405134906000906001600160a01b0384169083908381818185875af1925050503d806000811461014d576040519150601f19603f3d011682016040523d82523d6000602084013e610152565b606091505b50509050806101a35760405162461bcd60e51b815260206004820181905260248201527f5472616e73666572576974684c6f673a207472616e73666572206661696c656460448201526064016100f7565b6040518281526001600160a01b0384169033907f488b94843be4f0df500bd7d8c10ae80f778d8f4943c7a72df6a74b5b142a2ed99060200160405180910390a3505050565b6000602082840312156101fa57600080fd5b81356001600160a01b038116811461021157600080fd5b9392505050565b600060208083528351808285015260005b8181101561024557858101830151858201604001528201610229565b81811115610257576000604083870101525b50601f01601f191692909201604001939250505056fea26469706673582212201d683c5f406cbeba2b5c6500be9ecebcf3cefb4a65c19df64b683cf8a8a8fcd164736f6c63430008070033",
  "devdoc": {
    "kind": "dev",
    "methods": {},
    "version": 1
  },
  "userdoc": {
    "kind": "user",
    "methods": {},
    "notice": "TransferWithLog is a replacement for a standard ETH transfer, with an added log to make it easily searchable.",
    "version": 1
  },
  "storageLayout": {
    "storage": [],
    "types": null
  }
}