{
  "address": "0x49E3B2FfA2b068e143c2f5947aa601ae95768557",
  "abi": [
    {
      "anonymous": false,
      "inputs": [
        {
          "indexed": false,
          "internalType": "uint8",
          "name": "version",
          "type": "uint8"
        }
      ],
      "name": "Initialized",
      "type": "event"
    },
    {
      "anonymous": false,
      "inputs": [
        {
          "indexed": false,
          "internalType": "string",
          "name": "asset",
          "type": "string"
        },
        {
          "indexed": false,
          "internalType": "address",
          "name": "signatureVerifier",
          "type": "address"
        },
        {
          "indexed": false,
          "internalType": "address",
          "name": "token",
          "type": "address"
        },
        {
          "indexed": false,
          "internalType": "bool",
          "name": "isNFT",
          "type": "bool"
        },
        {
          "indexed": false,
          "internalType": "string",
          "name": "version",
          "type": "string"
        }
      ],
      "name": "LockGatewayProxyDeployed",
      "type": "event"
    },
    {
      "anonymous": false,
      "inputs": [
        {
          "indexed": false,
          "internalType": "string",
          "name": "symbol",
          "type": "string"
        },
        {
          "indexed": true,
          "internalType": "address",
          "name": "token",
          "type": "address"
        },
        {
          "indexed": true,
          "internalType": "address",
          "name": "gatewayContract",
          "type": "address"
        },
        {
          "indexed": true,
          "internalType": "string",
          "name": "indexedSymbol",
          "type": "string"
        }
      ],
      "name": "LogLockGatewayAdded",
      "type": "event"
    },
    {
      "anonymous": false,
      "inputs": [
        {
          "indexed": false,
          "internalType": "string",
          "name": "symbol",
          "type": "string"
        },
        {
          "indexed": true,
          "internalType": "string",
          "name": "indexedSymbol",
          "type": "string"
        }
      ],
      "name": "LogLockGatewayRemoved",
      "type": "event"
    },
    {
      "anonymous": false,
      "inputs": [
        {
          "indexed": false,
          "internalType": "string",
          "name": "symbol",
          "type": "string"
        },
        {
          "indexed": true,
          "internalType": "address",
          "name": "token",
          "type": "address"
        },
        {
          "indexed": true,
          "internalType": "address",
          "name": "gatewayContract",
          "type": "address"
        },
        {
          "indexed": true,
          "internalType": "string",
          "name": "indexedSymbol",
          "type": "string"
        }
      ],
      "name": "LogMintGatewayAdded",
      "type": "event"
    },
    {
      "anonymous": false,
      "inputs": [
        {
          "indexed": false,
          "internalType": "string",
          "name": "symbol",
          "type": "string"
        },
        {
          "indexed": true,
          "internalType": "string",
          "name": "indexedSymbol",
          "type": "string"
        }
      ],
      "name": "LogMintGatewayRemoved",
      "type": "event"
    },
    {
      "anonymous": false,
      "inputs": [
        {
          "indexed": true,
          "internalType": "address",
          "name": "oldSignatureVerifier",
          "type": "address"
        },
        {
          "indexed": true,
          "internalType": "address",
          "name": "newSignatureVerifier",
          "type": "address"
        }
      ],
      "name": "LogSignatureVerifierUpdated",
      "type": "event"
    },
    {
      "anonymous": false,
      "inputs": [
        {
          "indexed": true,
          "internalType": "address",
          "name": "oldTransferContract",
          "type": "address"
        },
        {
          "indexed": true,
          "internalType": "address",
          "name": "newTransferContract",
          "type": "address"
        }
      ],
      "name": "LogTransferContractUpdated",
      "type": "event"
    },
    {
      "anonymous": false,
      "inputs": [
        {
          "indexed": false,
          "internalType": "string",
          "name": "asset",
          "type": "string"
        },
        {
          "indexed": false,
          "internalType": "address",
          "name": "signatureVerifier",
          "type": "address"
        },
        {
          "indexed": false,
          "internalType": "address",
          "name": "token",
          "type": "address"
        },
        {
          "indexed": false,
          "internalType": "bool",
          "name": "isNFT",
          "type": "bool"
        },
        {
          "indexed": false,
          "internalType": "string",
          "name": "version",
          "type": "string"
        }
      ],
      "name": "MintGatewayProxyDeployed",
      "type": "event"
    },
    {
      "anonymous": false,
      "inputs": [
        {
          "indexed": false,
          "internalType": "uint256",
          "name": "chainId",
          "type": "uint256"
        },
        {
          "indexed": false,
          "internalType": "string",
          "name": "asset",
          "type": "string"
        },
        {
          "indexed": false,
          "internalType": "string",
          "name": "name",
          "type": "string"
        },
        {
          "indexed": false,
          "internalType": "string",
          "name": "symbol",
          "type": "string"
        },
        {
          "indexed": false,
          "internalType": "uint8",
          "name": "decimals",
          "type": "uint8"
        },
        {
          "indexed": false,
          "internalType": "bool",
          "name": "isNFT",
          "type": "bool"
        },
        {
          "indexed": false,
          "internalType": "string",
          "name": "version",
          "type": "string"
        }
      ],
      "name": "RenAssetProxyDeployed",
      "type": "event"
    },
    {
      "anonymous": false,
      "inputs": [
        {
          "indexed": true,
          "internalType": "bytes32",
          "name": "role",
          "type": "bytes32"
        },
        {
          "indexed": true,
          "internalType": "bytes32",
          "name": "previousAdminRole",
          "type": "bytes32"
        },
        {
          "indexed": true,
          "internalType": "bytes32",
          "name": "newAdminRole",
          "type": "bytes32"
        }
      ],
      "name": "RoleAdminChanged",
      "type": "event"
    },
    {
      "anonymous": false,
      "inputs": [
        {
          "indexed": true,
          "internalType": "bytes32",
          "name": "role",
          "type": "bytes32"
        },
        {
          "indexed": true,
          "internalType": "address",
          "name": "account",
          "type": "address"
        },
        {
          "indexed": true,
          "internalType": "address",
          "name": "sender",
          "type": "address"
        }
      ],
      "name": "RoleGranted",
      "type": "event"
    },
    {
      "anonymous": false,
      "inputs": [
        {
          "indexed": true,
          "internalType": "bytes32",
          "name": "role",
          "type": "bytes32"
        },
        {
          "indexed": true,
          "internalType": "address",
          "name": "account",
          "type": "address"
        },
        {
          "indexed": true,
          "internalType": "address",
          "name": "sender",
          "type": "address"
        }
      ],
      "name": "RoleRevoked",
      "type": "event"
    },
    {
      "inputs": [],
      "name": "CAN_ADD_GATEWAYS",
      "outputs": [
        {
          "internalType": "bytes32",
          "name": "",
          "type": "bytes32"
        }
      ],
      "stateMutability": "view",
      "type": "function"
    },
    {
      "inputs": [],
      "name": "CAN_UPDATE_GATEWAYS",
      "outputs": [
        {
          "internalType": "bytes32",
          "name": "",
          "type": "bytes32"
        }
      ],
      "stateMutability": "view",
      "type": "function"
    },
    {
      "inputs": [],
      "name": "DEFAULT_ADMIN_ROLE",
      "outputs": [
        {
          "internalType": "bytes32",
          "name": "",
          "type": "bytes32"
        }
      ],
      "stateMutability": "view",
      "type": "function"
    },
    {
      "inputs": [],
      "name": "NAME",
      "outputs": [
        {
          "internalType": "string",
          "name": "",
          "type": "string"
        }
      ],
      "stateMutability": "view",
      "type": "function"
    },
    {
      "inputs": [
        {
          "internalType": "uint256",
          "name": "chainId_",
          "type": "uint256"
        },
        {
          "internalType": "address",
          "name": "signatureVerifier_",
          "type": "address"
        },
        {
          "internalType": "address",
          "name": "transferContract",
          "type": "address"
        },
        {
          "internalType": "address",
          "name": "renERC20ProxyBeacon_",
          "type": "address"
        },
        {
          "internalType": "address",
          "name": "renERC721ProxyBeacon_",
          "type": "address"
        },
        {
          "internalType": "address",
          "name": "mintGatewayProxyBeacon_",
          "type": "address"
        },
        {
          "internalType": "address",
          "name": "lockGatewayProxyBeacon_",
          "type": "address"
        },
        {
          "internalType": "address",
          "name": "adminAddress",
          "type": "address"
        },
        {
          "internalType": "address[]",
          "name": "gatewayDeployers",
          "type": "address[]"
        }
      ],
      "name": "__GatewayRegistry_init",
      "outputs": [],
      "stateMutability": "nonpayable",
      "type": "function"
    },
    {
      "inputs": [
        {
          "internalType": "address",
          "name": "renERC20ProxyBeacon_",
          "type": "address"
        },
        {
          "internalType": "address",
          "name": "renERC721ProxyBeacon_",
          "type": "address"
        },
        {
          "internalType": "address",
          "name": "mintGatewayProxyBeacon_",
          "type": "address"
        },
        {
          "internalType": "address",
          "name": "lockGatewayProxyBeacon_",
          "type": "address"
        }
      ],
      "name": "__RenAssetFactory_init",
      "outputs": [],
      "stateMutability": "nonpayable",
      "type": "function"
    },
    {
      "inputs": [
        {
          "internalType": "string",
          "name": "symbol",
          "type": "string"
        },
        {
          "internalType": "address",
          "name": "lockAsset",
          "type": "address"
        },
        {
          "internalType": "address",
          "name": "lockGateway",
          "type": "address"
        }
      ],
      "name": "addLockGateway",
      "outputs": [],
      "stateMutability": "nonpayable",
      "type": "function"
    },
    {
      "inputs": [
        {
          "internalType": "string",
          "name": "symbol",
          "type": "string"
        },
        {
          "internalType": "address",
          "name": "renAsset",
          "type": "address"
        },
        {
          "internalType": "address",
          "name": "mintGateway",
          "type": "address"
        }
      ],
      "name": "addMintGateway",
      "outputs": [],
      "stateMutability": "nonpayable",
      "type": "function"
    },
    {
      "inputs": [
        {
          "internalType": "string",
          "name": "symbol",
          "type": "string"
        },
        {
          "internalType": "address",
          "name": "lockToken",
          "type": "address"
        },
        {
          "internalType": "bool",
          "name": "isNFT",
          "type": "bool"
        },
        {
          "internalType": "string",
          "name": "version",
          "type": "string"
        }
      ],
      "name": "deployLockGateway",
      "outputs": [],
      "stateMutability": "nonpayable",
      "type": "function"
    },
    {
      "inputs": [
        {
          "internalType": "string",
          "name": "symbol",
          "type": "string"
        },
        {
          "internalType": "address",
          "name": "renAsset",
          "type": "address"
        },
        {
          "internalType": "bool",
          "name": "isNFT",
          "type": "bool"
        },
        {
          "internalType": "string",
          "name": "version",
          "type": "string"
        }
      ],
      "name": "deployMintGateway",
      "outputs": [],
      "stateMutability": "nonpayable",
      "type": "function"
    },
    {
      "inputs": [
        {
          "internalType": "string",
          "name": "symbol",
          "type": "string"
        },
        {
          "internalType": "string",
          "name": "erc20Name",
          "type": "string"
        },
        {
          "internalType": "string",
          "name": "erc20Symbol",
          "type": "string"
        },
        {
          "internalType": "uint8",
          "name": "erc20Decimals",
          "type": "uint8"
        },
        {
          "internalType": "string",
          "name": "version",
          "type": "string"
        }
      ],
      "name": "deployMintGatewayAndRenERC20",
      "outputs": [],
      "stateMutability": "nonpayable",
      "type": "function"
    },
    {
      "inputs": [
        {
          "internalType": "string",
          "name": "symbol",
          "type": "string"
        },
        {
          "internalType": "string",
          "name": "erc721Name",
          "type": "string"
        },
        {
          "internalType": "string",
          "name": "erc721Symbol",
          "type": "string"
        },
        {
          "internalType": "string",
          "name": "version",
          "type": "string"
        }
      ],
      "name": "deployMintGatewayAndRenERC721",
      "outputs": [],
      "stateMutability": "nonpayable",
      "type": "function"
    },
    {
      "inputs": [],
      "name": "getChainId",
      "outputs": [
        {
          "internalType": "uint256",
          "name": "",
          "type": "uint256"
        }
      ],
      "stateMutability": "view",
      "type": "function"
    },
    {
      "inputs": [
        {
          "internalType": "string",
          "name": "tokenSymbol",
          "type": "string"
        }
      ],
      "name": "getGatewayBySymbol",
      "outputs": [
        {
          "internalType": "contract IMintGateway",
          "name": "",
          "type": "address"
        }
      ],
      "stateMutability": "view",
      "type": "function"
    },
    {
      "inputs": [
        {
          "internalType": "address",
          "name": "token",
          "type": "address"
        }
      ],
      "name": "getGatewayByToken",
      "outputs": [
        {
          "internalType": "contract IMintGateway",
          "name": "",
          "type": "address"
        }
      ],
      "stateMutability": "view",
      "type": "function"
    },
    {
      "inputs": [
        {
          "internalType": "string",
          "name": "tokenSymbol",
          "type": "string"
        }
      ],
      "name": "getLockAssetBySymbol",
      "outputs": [
        {
          "internalType": "contract IERC20",
          "name": "",
          "type": "address"
        }
      ],
      "stateMutability": "view",
      "type": "function"
    },
    {
      "inputs": [
        {
          "internalType": "string",
          "name": "tokenSymbol",
          "type": "string"
        }
      ],
      "name": "getLockGatewayBySymbol",
      "outputs": [
        {
          "internalType": "contract ILockGateway",
          "name": "",
          "type": "address"
        }
      ],
      "stateMutability": "view",
      "type": "function"
    },
    {
      "inputs": [
        {
          "internalType": "address",
          "name": "token_",
          "type": "address"
        }
      ],
      "name": "getLockGatewayByToken",
      "outputs": [
        {
          "internalType": "contract ILockGateway",
          "name": "",
          "type": "address"
        }
      ],
      "stateMutability": "view",
      "type": "function"
    },
    {
      "inputs": [],
      "name": "getLockGatewayProxyBeacon",
      "outputs": [
        {
          "internalType": "contract LockGatewayProxyBeacon",
          "name": "",
          "type": "address"
        }
      ],
      "stateMutability": "view",
      "type": "function"
    },
    {
      "inputs": [
        {
          "internalType": "uint256",
          "name": "from",
          "type": "uint256"
        },
        {
          "internalType": "uint256",
          "name": "count",
          "type": "uint256"
        }
      ],
      "name": "getLockGatewaySymbols",
      "outputs": [
        {
          "internalType": "string[]",
          "name": "",
          "type": "string[]"
        }
      ],
      "stateMutability": "view",
      "type": "function"
    },
    {
      "inputs": [
        {
          "internalType": "string",
          "name": "tokenSymbol",
          "type": "string"
        }
      ],
      "name": "getMintGatewayBySymbol",
      "outputs": [
        {
          "internalType": "contract IMintGateway",
          "name": "",
          "type": "address"
        }
      ],
      "stateMutability": "view",
      "type": "function"
    },
    {
      "inputs": [
        {
          "internalType": "address",
          "name": "token",
          "type": "address"
        }
      ],
      "name": "getMintGatewayByToken",
      "outputs": [
        {
          "internalType": "contract IMintGateway",
          "name": "",
          "type": "address"
        }
      ],
      "stateMutability": "view",
      "type": "function"
    },
    {
      "inputs": [],
      "name": "getMintGatewayProxyBeacon",
      "outputs": [
        {
          "internalType": "contract MintGatewayProxyBeacon",
          "name": "",
          "type": "address"
        }
      ],
      "stateMutability": "view",
      "type": "function"
    },
    {
      "inputs": [
        {
          "internalType": "uint256",
          "name": "from",
          "type": "uint256"
        },
        {
          "internalType": "uint256",
          "name": "count",
          "type": "uint256"
        }
      ],
      "name": "getMintGatewaySymbols",
      "outputs": [
        {
          "internalType": "string[]",
          "name": "",
          "type": "string[]"
        }
      ],
      "stateMutability": "view",
      "type": "function"
    },
    {
      "inputs": [
        {
          "internalType": "string",
          "name": "tokenSymbol",
          "type": "string"
        }
      ],
      "name": "getRenAssetBySymbol",
      "outputs": [
        {
          "internalType": "contract IERC20",
          "name": "",
          "type": "address"
        }
      ],
      "stateMutability": "view",
      "type": "function"
    },
    {
      "inputs": [],
      "name": "getRenERC20ProxyBeacon",
      "outputs": [
        {
          "internalType": "contract RenERC20ProxyBeacon",
          "name": "",
          "type": "address"
        }
      ],
      "stateMutability": "view",
      "type": "function"
    },
    {
      "inputs": [],
      "name": "getRenERC721ProxyBeacon",
      "outputs": [
        {
          "internalType": "contract RenERC721ProxyBeacon",
          "name": "",
          "type": "address"
        }
      ],
      "stateMutability": "view",
      "type": "function"
    },
    {
      "inputs": [
        {
          "internalType": "bytes32",
          "name": "role",
          "type": "bytes32"
        }
      ],
      "name": "getRoleAdmin",
      "outputs": [
        {
          "internalType": "bytes32",
          "name": "",
          "type": "bytes32"
        }
      ],
      "stateMutability": "view",
      "type": "function"
    },
    {
      "inputs": [
        {
          "internalType": "bytes32",
          "name": "role",
          "type": "bytes32"
        },
        {
          "internalType": "uint256",
          "name": "index",
          "type": "uint256"
        }
      ],
      "name": "getRoleMember",
      "outputs": [
        {
          "internalType": "address",
          "name": "",
          "type": "address"
        }
      ],
      "stateMutability": "view",
      "type": "function"
    },
    {
      "inputs": [
        {
          "internalType": "bytes32",
          "name": "role",
          "type": "bytes32"
        }
      ],
      "name": "getRoleMemberCount",
      "outputs": [
        {
          "internalType": "uint256",
          "name": "",
          "type": "uint256"
        }
      ],
      "stateMutability": "view",
      "type": "function"
    },
    {
      "inputs": [],
      "name": "getSignatureVerifier",
      "outputs": [
        {
          "internalType": "address",
          "name": "",
          "type": "address"
        }
      ],
      "stateMutability": "view",
      "type": "function"
    },
    {
      "inputs": [
        {
          "internalType": "string",
          "name": "tokenSymbol",
          "type": "string"
        }
      ],
      "name": "getTokenBySymbol",
      "outputs": [
        {
          "internalType": "contract IERC20",
          "name": "",
          "type": "address"
        }
      ],
      "stateMutability": "view",
      "type": "function"
    },
    {
      "inputs": [],
      "name": "getTransferContract",
      "outputs": [
        {
          "internalType": "address",
          "name": "",
          "type": "address"
        }
      ],
      "stateMutability": "view",
      "type": "function"
    },
    {
      "inputs": [
        {
          "internalType": "bytes32",
          "name": "role",
          "type": "bytes32"
        },
        {
          "internalType": "address",
          "name": "account",
          "type": "address"
        }
      ],
      "name": "grantRole",
      "outputs": [],
      "stateMutability": "nonpayable",
      "type": "function"
    },
    {
      "inputs": [
        {
          "internalType": "bytes32",
          "name": "role",
          "type": "bytes32"
        },
        {
          "internalType": "address",
          "name": "account",
          "type": "address"
        }
      ],
      "name": "hasRole",
      "outputs": [
        {
          "internalType": "bool",
          "name": "",
          "type": "bool"
        }
      ],
      "stateMutability": "view",
      "type": "function"
    },
    {
      "inputs": [
        {
          "internalType": "string",
          "name": "symbol",
          "type": "string"
        }
      ],
      "name": "removeLockGateway",
      "outputs": [],
      "stateMutability": "nonpayable",
      "type": "function"
    },
    {
      "inputs": [
        {
          "internalType": "string",
          "name": "symbol",
          "type": "string"
        }
      ],
      "name": "removeMintGateway",
      "outputs": [],
      "stateMutability": "nonpayable",
      "type": "function"
    },
    {
      "inputs": [
        {
          "internalType": "bytes32",
          "name": "role",
          "type": "bytes32"
        },
        {
          "internalType": "address",
          "name": "account",
          "type": "address"
        }
      ],
      "name": "renounceRole",
      "outputs": [],
      "stateMutability": "nonpayable",
      "type": "function"
    },
    {
      "inputs": [
        {
          "internalType": "bytes32",
          "name": "role",
          "type": "bytes32"
        },
        {
          "internalType": "address",
          "name": "account",
          "type": "address"
        }
      ],
      "name": "revokeRole",
      "outputs": [],
      "stateMutability": "nonpayable",
      "type": "function"
    },
    {
      "inputs": [
        {
          "internalType": "bytes4",
          "name": "interfaceId",
          "type": "bytes4"
        }
      ],
      "name": "supportsInterface",
      "outputs": [
        {
          "internalType": "bool",
          "name": "",
          "type": "bool"
        }
      ],
      "stateMutability": "view",
      "type": "function"
    },
    {
      "inputs": [
        {
          "internalType": "address",
          "name": "newSignatureVerifier",
          "type": "address"
        }
      ],
      "name": "updateSignatureVerifier",
      "outputs": [],
      "stateMutability": "nonpayable",
      "type": "function"
    },
    {
      "inputs": [
        {
          "internalType": "address",
          "name": "newTransferContract",
          "type": "address"
        }
      ],
      "name": "updateTransferContract",
      "outputs": [],
      "stateMutability": "nonpayable",
      "type": "function"
    }
  ],
  "args": [],
  "numDeployments": 1,
  "solcInputHash": "1fc24ec92d75e781452354b8332143e5",
  "bytecode": "0x608060405234801561001057600080fd5b506139b3806100206000396000f3fe608060405234801561001057600080fd5b506004361061025e5760003560e01c80637e60252f11610146578063c862c825116100c3578063d8a5372411610087578063d8a5372414610563578063e96f255014610574578063ead9570114610587578063efa74f1f1461059a578063f2af2b4b146105ad578063fc3212c0146105c057600080fd5b8063c862c82514610513578063c87d2a311461051b578063c9eae0b21461052c578063ca15c8731461053d578063d547741f1461055057600080fd5b8063a217fddf1161010a578063a217fddf14610495578063a30c50ba1461049d578063a3f4df7e146104b0578063aa1ab9e3146104eb578063ac701d211461050057600080fd5b80637e60252f14610429578063868b35411461043c5780639010d07c1461045c57806391d148541461046f5780639c789bb81461048257600080fd5b806336568abe116101df5780635667981b116101a35780635667981b146103b957806364936b1e146103cc57806379c73a7a146103df5780637ac6efa3146103f25780637b5c884f146104035780637ce8e7aa1461041657600080fd5b806336568abe1461035a5780633922d1391461036d5780633b8ce8b214610380578063475400ba146103935780634cb39177146103a657600080fd5b80632949c615116102265780632949c615146103115780632d2798ca146103245780632f2ff15d146103375780633408e4701461034a578063345763ad1461035257600080fd5b806301ffc9a7146102635780630b8e0b381461028b57806315267d97146102ae5780631b95e305146102c3578063248a9ca3146102ee575b600080fd5b610276610271366004612ddc565b6105d3565b60405190151581526020015b60405180910390f35b6102a060008051602061393e83398151915281565b604051908152602001610282565b6102c16102bc366004612e48565b6105fe565b005b6102d66102d1366004612cdb565b61094f565b6040516001600160a01b039091168152602001610282565b6102a06102fc366004612d71565b60009081526065602052604090206001015490565b6102d661031f366004612cdb565b610956565b6102c1610332366004612e06565b61099c565b6102c1610345366004612d8a565b610b26565b60d6546102a0565b6102d6610b50565b6102c1610368366004612d8a565b610bbb565b6102d661037b366004612e06565b610c39565b6102c161038e366004612cdb565b610c6e565b6102c16103a1366004612e48565b610d72565b6102c16103b4366004612e06565b610ff9565b6102c16103c7366004612cdb565b6111ae565b6102d66103da366004612e06565b6112b3565b6102d66103ed366004612e06565b6112c6565b60ca546001600160a01b03166102d6565b6102d6610411366004612e06565b6112fe565b6102c1610424366004612d15565b611312565b6102c16104373660046130e8565b611391565b61044f61044a366004612dba565b611582565b6040516102829190613484565b6102d661046a366004612dba565b611590565b61027661047d366004612d8a565b6115a8565b6102d6610490366004612e06565b6115d3565b6102a0600081565b61044f6104ab366004612dba565b6115e7565b6104de6040518060400160405280600f81526020016e47617465776179526567697374727960881b81525081565b60405161028291906135ac565b6102a060008051602061395e83398151915281565b6102c161050e366004612ea5565b6115f5565b6102d66116f7565b60c9546001600160a01b03166102d6565b60cc546001600160a01b03166102d6565b6102a061054b366004612d71565b611762565b6102c161055e366004612d8a565b611779565b60cb546001600160a01b03166102d6565b6102c1610582366004612f43565b61179e565b6102c1610595366004613007565b61191e565b6102d66105a8366004612e06565b611aa0565b6102c16105bb366004612ea5565b611aac565b6102d66105ce366004612cdb565b611ba3565b60006001600160e01b03198216635a05180f60e01b14806105f857506105f882611bca565b92915050565b838361063f82828080601f016020809104026020016040519081016040528093929190818152602001838380828437600092019190915250611bff92505050565b6106645760405162461bcd60e51b815260040161065b90613606565b60405180910390fd5b60008051602061395e8339815191526040518060400160405280601081526020016f43414e5f4144445f474154455741595360801b8152506106ad82826106a83390565b611c1b565b6106f088888080601f01602080910402602001604051908101604052809392919081815260200183838082843760009201919091525060cd93925050611c4f9050565b156106ff576106ff888861099c565b6001600160a01b038616600090815260d16020526040902080546107ab91906107279061387a565b80601f01602080910402602001604051908101604052809291908181526020018280546107539061387a565b80156107a05780601f10610775576101008083540402835291602001916107a0565b820191906000526020600020905b81548152906001019060200180831161078357829003601f168201915b505050505051151590565b15610802576001600160a01b038616600090815260d1602090815260409182902091516107dc928b928b9201613334565b60408051601f198184030181529082905262461bcd60e51b825261065b916004016135ac565b61084588888080601f01602080910402602001604051908101604052809392919081815260200183838082843760009201919091525060cd93925050611c7c9050565b506040518060400160405280866001600160a01b03168152602001876001600160a01b031681525060d2898960405161087f9291906132da565b9081526040805160209281900383019020835181546001600160a01b03199081166001600160a01b03928316178355948401516001909201805490951691811691909117909355918816600090815260d1909152206108df908989612b4b565b5087876040516108f09291906132da565b6040518091039020856001600160a01b0316876001600160a01b03167fcad7b468e68f9217d53eb40b3ec0388b654c5532f10ee1d074e6a4648d9132de8b8b60405161093d929190613507565b60405180910390a45050505050505050565b60006105f8825b6001600160a01b038116600090815260d16020526040808220905160d29161097d91613328565b908152604051908190036020019020546001600160a01b031692915050565b60008051602061393e8339815191526040518060400160405280601381526020017243414e5f5550444154455f474154455741595360681b8152506109e382826106a83390565b600060d285856040516109f79291906132da565b908152604051908190036020019020600101546001600160a01b0316905080610a325760405162461bcd60e51b815260040161065b906135bf565b6001600160a01b038116600090815260d160205260408120610a5391612bcf565b60d28585604051610a659291906132da565b908152604080516020928190038301812080546001600160a01b03199081168255600190910180549091169055601f8701839004830281018301909152858152610acd91879087908190840183828082843760009201919091525060cd93925050611ce89050565b508484604051610ade9291906132da565b60405180910390207fe866c85fe262d07b6c48d6ab63d88342a1aabdbc04edf4c26760b6ade7e9ab8f8686604051610b17929190613507565b60405180910390a25050505050565b600082815260656020526040902060010154610b4181611eae565b610b4b8383611ebb565b505050565b60d5546000906001600160a01b0316610bab5760405162461bcd60e51b815260206004820181905260248201527f4761746577617952656769737472793a206e6f7420696e697469616c697a6564604482015260640161065b565b5060d5546001600160a01b031690565b6001600160a01b0381163314610c2b5760405162461bcd60e51b815260206004820152602f60248201527f416363657373436f6e74726f6c3a2063616e206f6e6c792072656e6f756e636560448201526e103937b632b9903337b91039b2b63360891b606482015260840161065b565b610c358282611edd565b5050565b600060d48383604051610c4d9291906132da565b908152604051908190036020019020546001600160a01b0316905092915050565b60008051602061393e8339815191526040518060400160405280601381526020017243414e5f5550444154455f474154455741595360681b815250610cb582826106a83390565b6001600160a01b038316610d1e5760405162461bcd60e51b815260206004820152602a60248201527f4761746577617952656769737472793a20696e76616c6964207472616e736665604482015269722077697468206c6f6760b01b606482015260840161065b565b60d780546001600160a01b038581166001600160a01b0319831681179093556040519116919082907f0c08396a0cda5d6903e9ba4be3b9ba74edebb3a8b519957303bd05692829d95b90600090a350505050565b8383610db382828080601f016020809104026020016040519081016040528093929190818152602001838380828437600092019190915250611bff92505050565b610dcf5760405162461bcd60e51b815260040161065b90613606565b60008051602061395e8339815191526040518060400160405280601081526020016f43414e5f4144445f474154455741595360801b815250610e1382826106a83390565b610e5688888080601f01602080910402602001604051908101604052809392919081815260200183838082843760009201919091525060cf93925050611c4f9050565b15610e6557610e658888610ff9565b6001600160a01b038616600090815260d3602052604090208054610e8d91906107279061387a565b15610ebe576001600160a01b038616600090815260d3602090815260409182902091516107dc928b928b9201613334565b610f0188888080601f01602080910402602001604051908101604052809392919081815260200183838082843760009201919091525060cf93925050611c7c9050565b506040518060400160405280866001600160a01b03168152602001876001600160a01b031681525060d48989604051610f3b9291906132da565b9081526040805160209281900383019020835181546001600160a01b03199081166001600160a01b03928316178355948401516001909201805490951691811691909117909355918816600090815260d390915220610f9b908989612b4b565b508787604051610fac9291906132da565b6040518091039020856001600160a01b0316876001600160a01b03167fae2f49e1012259f6f5b76b5cd2bceda776aedbf9138362abec5f18171a4e89d48b8b60405161093d929190613507565b60008051602061393e8339815191526040518060400160405280601381526020017243414e5f5550444154455f474154455741595360681b81525061104082826106a83390565b61108384848080601f01602080910402602001604051908101604052809392919081815260200183838082843760009201919091525060cf93925050611c4f9050565b61109f5760405162461bcd60e51b815260040161065b906135bf565b600060d485856040516110b39291906132da565b9081526040805160209281900383019020600101546001600160a01b0316600081815260d39093529082209092506110ea91612bcf565b60d485856040516110fc9291906132da565b908152604080516020928190038301812080546001600160a01b03199081168255600190910180549091169055601f870183900483028101830190915285815261116491879087908190840183828082843760009201919091525060cf93925050611ce89050565b5084846040516111759291906132da565b60405180910390207f56eb2a9e05250090feccfe733b5711edd5fde92f05aab719e8097136311247838686604051610b17929190613507565b60008051602061393e8339815191526040518060400160405280601381526020017243414e5f5550444154455f474154455741595360681b8152506111f582826106a83390565b6001600160a01b03831661125f5760405162461bcd60e51b815260206004820152602b60248201527f4761746577617952656769737472793a20696e76616c6964207369676e61747560448201526a3932903b32b934b334b2b960a91b606482015260840161065b565b60d580546001600160a01b038581166001600160a01b0319831681179093556040519116919082907ff7dbe6f0a40adabc688e64fce7060ca2f466fbf846227fb5e4e05305553bae5e90600090a350505050565b60006112bf83836112fe565b9392505050565b600060d283836040516112da9291906132da565b908152604051908190036020019020600101546001600160a01b0316905092915050565b600060d28383604051610c4d9291906132da565b600054610100900460ff166113395760405162461bcd60e51b815260040161065b90613654565b611341611eff565b60c980546001600160a01b039586166001600160a01b03199182161790915560ca80549486169482169490941790935560cb80549285169284169290921790915560cc8054919093169116179055565b600054610100900460ff16158080156113b15750600054600160ff909116105b806113cb5750303b1580156113cb575060005460ff166001145b61142e5760405162461bcd60e51b815260206004820152602e60248201527f496e697469616c697a61626c653a20636f6e747261637420697320616c72656160448201526d191e481a5b9a5d1a585b1a5e995960921b606482015260840161065b565b6000805460ff191660011790558015611451576000805461ff0019166101001790555b611459611eff565b61146588888888611312565b60d68b905560d580546001600160a01b03808d166001600160a01b03199283161790925560d78054928c16929091169190911790556114a5600085611ebb565b6114bd60008051602061393e83398151915285611ebb565b6114d560008051602061395e83398151915285611ebb565b60005b8281101561152e5761151e60008051602061395e833981519152858584818110611504576115046138fc565b90506020020160208101906115199190612cdb565b611ebb565b611527816138b5565b90506114d8565b508015611575576000805461ff0019169055604051600181527f7f26b83ff96e1f2b6a682f133852f6798a09c465da95921460cefb38474024989060200160405180910390a15b5050505050505050505050565b60606112bf60cd8484611f28565b60008281526097602052604081206112bf9083612007565b60009182526065602090815260408084206001600160a01b0393909316845291905290205460ff1690565b600060d483836040516112da9291906132da565b60606112bf60cf8484611f28565b60008051602061395e8339815191526040518060400160405280601081526020016f43414e5f4144445f474154455741595360801b81525061163982826106a83390565b61167c88888080601f01602080910402602001604051908101604052809392919081815260200183838082843760009201919091525060cd93925050611c4f9050565b156116c6576116c660008051602061393e8339815191526040518060400160405280601381526020017243414e5f5550444154455f474154455741595360681b8152506106a83390565b60006116de89896116d5610b50565b8a8a8a8a612013565b90506116ec898989846105fe565b505050505050505050565b60d7546000906001600160a01b03166117525760405162461bcd60e51b815260206004820181905260248201527f4761746577617952656769737472793a206e6f7420696e697469616c697a6564604482015260640161065b565b5060d7546001600160a01b031690565b60008181526097602052604081206105f890612172565b60008281526065602052604090206001015461179481611eae565b610b4b8383611edd565b60008051602061395e8339815191526040518060400160405280601081526020016f43414e5f4144445f474154455741595360801b8152506117e282826106a83390565b6118258a8a8080601f01602080910402602001604051908101604052809392919081815260200183838082843760009201919091525060cd93925050611c4f9050565b1561186f5761186f60008051602061393e8339815191526040518060400160405280601381526020017243414e5f5550444154455f474154455741595360681b8152506106a83390565b600061188a61187d60d65490565b8c8c8c8c8c8c8c8c61217c565b905060006118a58c8c61189b610b50565b8560018b8b612013565b60405163f2fde38b60e01b81526001600160a01b0380831660048301529192509083169063f2fde38b90602401600060405180830381600087803b1580156118ec57600080fd5b505af1158015611900573d6000803e3d6000fd5b505050506119108c8c84846105fe565b505050505050505050505050565b60008051602061395e8339815191526040518060400160405280601081526020016f43414e5f4144445f474154455741595360801b81525061196282826106a83390565b6119a58b8b8080601f01602080910402602001604051908101604052809392919081815260200183838082843760009201919091525060cd93925050611c4f9050565b156119ef576119ef60008051602061393e8339815191526040518060400160405280601381526020017243414e5f5550444154455f474154455741595360681b8152506106a83390565b6000611a0b6119fd60d65490565b8d8d8d8d8d8d8d8d8d6122ec565b90506000611a268d8d611a1c610b50565b8560008b8b612013565b60405163f2fde38b60e01b81526001600160a01b0380831660048301529192509083169063f2fde38b90602401600060405180830381600087803b158015611a6d57600080fd5b505af1158015611a81573d6000803e3d6000fd5b50505050611a918d8d84846105fe565b50505050505050505050505050565b60006112bf83836112c6565b60008051602061395e8339815191526040518060400160405280601081526020016f43414e5f4144445f474154455741595360801b815250611af082826106a83390565b611b3388888080601f01602080910402602001604051908101604052809392919081815260200183838082843760009201919091525060cf93925050611c4f9050565b15611b7d57611b7d60008051602061393e8339815191526040518060400160405280601381526020017243414e5f5550444154455f474154455741595360681b8152506106a83390565b6000611b958989611b8c610b50565b8a8a8a8a61245f565b90506116ec89898984610d72565b6001600160a01b038116600090815260d36020526040808220905160d49161097d91613328565b60006001600160e01b03198216637965db0b60e01b14806105f857506301ffc9a760e01b6001600160e01b03198316146105f8565b6000611c0b8251151590565b80156105f857506105f8826125a8565b611c2583826115a8565b610b4b57611c3d816001600160a01b0316601461264e565b826040516020016107dc92919061339a565b60008260010182604051611c63919061330c565b9081526040519081900360200190205415159392505050565b6000611c888383611c4f565b611ce057825460018101845560008481526020908190208451611cb2939190910191850190612c09565b5082546040516001850190611cc890859061330c565b908152604051908190036020019020555060016105f8565b5060006105f8565b6000808360010183604051611cfd919061330c565b908152602001604051809103902054905080600014611ea4576000611d2360018361381c565b8554909150600090611d379060019061381c565b9050818114611e45576000866000018281548110611d5757611d576138fc565b906000526020600020018054611d6c9061387a565b80601f0160208091040260200160405190810160405280929190818152602001828054611d989061387a565b8015611de55780601f10611dba57610100808354040283529160200191611de5565b820191906000526020600020905b815481529060010190602001808311611dc857829003601f168201915b5050505050905080876000018481548110611e0257611e026138fc565b906000526020600020019080519060200190611e1f929190612c09565b50838760010182604051611e33919061330c565b90815260405190819003602001902055505b8554869080611e5657611e566138e6565b600190038181906000526020600020016000611e729190612bcf565b90558560010185604051611e86919061330c565b908152602001604051809103902060009055600193505050506105f8565b60009150506105f8565b611eb881336127ea565b50565b611ec58282612828565b6000828152609760205260409020610b4b90826128ae565b611ee782826128c3565b6000828152609760205260409020610b4b908261292a565b600054610100900460ff16611f265760405162461bcd60e51b815260040161065b90613654565b565b60606000611f34855490565b9050821580611f4b575080611f4984866137e5565b115b15611f5d57611f5a848261381c565b92505b60008367ffffffffffffffff811115611f7857611f78613912565b604051908082528060200260200182016040528015611fab57816020015b6060815260200190600190039081611f965790505b50905060005b84811015611ffd57611fcd611fc687836137e5565b889061293f565b828281518110611fdf57611fdf6138fc565b60200260200101819052508080611ff5906138b5565b915050611fb1565b5095945050505050565b60006112bf83836129f1565b600080888888888860405160240161202f95949392919061351b565b60408051601f19818403018152918152602080830180516001600160e01b03166392919ad760e01b1790529051919250600091612074918c918c9189918991016132ea565b60405160208183030381529060405280519060200120905060006120a060cb546001600160a01b031690565b6001600160a01b031663ec54d72f83856040518363ffffffff1660e01b81526004016120cd9291906134e6565b602060405180830381600087803b1580156120e757600080fd5b505af11580156120fb573d6000803e3d6000fd5b505050506040513d601f19601f8201168201806040525081019061211f9190612cf8565b90507f2b07f74804efddbb43ff2790526e7199b5554f19ccd5f4132c8040242158f6178b8b8b8b8b8b8b60405161215c9796959493929190613558565b60405180910390a19a9950505050505050505050565b60006105f8825490565b6000808a84848a8a8a8a3060405160240161219e98979695949392919061369f565b60408051601f19818403018152918152602080830180516001600160e01b0316635434d93d60e01b17905290519192506000916121e3918d918d9189918991016132ea565b604051602081830303815290604052805190602001209050600061220f60ca546001600160a01b031690565b6001600160a01b031663ec54d72f83856040518363ffffffff1660e01b815260040161223c9291906134e6565b602060405180830381600087803b15801561225657600080fd5b505af115801561226a573d6000803e3d6000fd5b505050506040513d601f19601f8201168201806040525081019061228e9190612cf8565b90507ff0a5d3fdcc1c6cc1976c36a9f774c8f9ea8b80df83bb48d38dbb4ffffecd003c8d8d8d8d8d8d8d6001808f8f6040516122d49b9a999897969594939291906136ff565b60405180910390a19c9b505050505050505050505050565b6000808b84848b8b8b8b8b3060405160240161231099989796959493929190613779565b60408051601f19818403018152918152602080830180516001600160e01b0316632010a33160e11b1790529051919250600091612355918e918e9189918991016132ea565b604051602081830303815290604052805190602001209050600061238160c9546001600160a01b031690565b6001600160a01b031663ec54d72f83856040518363ffffffff1660e01b81526004016123ae9291906134e6565b602060405180830381600087803b1580156123c857600080fd5b505af11580156123dc573d6000803e3d6000fd5b505050506040513d601f19601f820116820180604052508101906124009190612cf8565b90507ff0a5d3fdcc1c6cc1976c36a9f774c8f9ea8b80df83bb48d38dbb4ffffecd003c8e8e8e8e8e8e8e8e60008f8f6040516124469b9a999897969594939291906136ff565b60405180910390a19d9c50505050505050505050505050565b600080888888888860405160240161247b95949392919061351b565b60408051601f19818403018152918152602080830180516001600160e01b0316630d2ba28160e31b17905290519192506000916124c0918c918c9189918991016132ea565b60405160208183030381529060405280519060200120905060006124ec60cc546001600160a01b031690565b6001600160a01b031663ec54d72f83856040518363ffffffff1660e01b81526004016125199291906134e6565b602060405180830381600087803b15801561253357600080fd5b505af1158015612547573d6000803e3d6000fd5b505050506040513d601f19601f8201168201806040525081019061256b9190612cf8565b90507f77def06cde710bc99d9ec75ae15c4f455227433206a2d26ce4504d81beaa2a408b8b8b8b8b8b8b60405161215c9796959493929190613558565b6000805b82518110156126455760008382815181106125c9576125c96138fc565b016020015160f81c9050604181108015906125e85750605a8160ff1611155b80612606575060618160ff16101580156126065750607a8160ff1611155b80612624575060308160ff1610158015612624575060398160ff1611155b612632575060009392505050565b508061263d816138b5565b9150506125ac565b50600192915050565b6060600061265d8360026137fd565b6126689060026137e5565b67ffffffffffffffff81111561268057612680613912565b6040519080825280601f01601f1916602001820160405280156126aa576020820181803683370190505b509050600360fc1b816000815181106126c5576126c56138fc565b60200101906001600160f81b031916908160001a905350600f60fb1b816001815181106126f4576126f46138fc565b60200101906001600160f81b031916908160001a90535060006127188460026137fd565b6127239060016137e5565b90505b600181111561279b576f181899199a1a9b1b9c1cb0b131b232b360811b85600f1660108110612757576127576138fc565b1a60f81b82828151811061276d5761276d6138fc565b60200101906001600160f81b031916908160001a90535060049490941c9361279481613863565b9050612726565b5083156112bf5760405162461bcd60e51b815260206004820181905260248201527f537472696e67733a20686578206c656e67746820696e73756666696369656e74604482015260640161065b565b6127f482826115a8565b610c355761280c816001600160a01b0316601461264e565b61281783602061264e565b6040516020016107dc92919061340f565b61283282826115a8565b610c355760008281526065602090815260408083206001600160a01b03851684529091529020805460ff1916600117905561286a3390565b6001600160a01b0316816001600160a01b0316837f2f8788117e7eff1d82e926ec794901d17c78024a50270940304540a733656f0d60405160405180910390a45050565b60006112bf836001600160a01b038416612a1b565b6128cd82826115a8565b15610c355760008281526065602090815260408083206001600160a01b0385168085529252808320805460ff1916905551339285917ff6391f5c32d9c69d2a47ea670b442974b53935d1edc7fd64eb21e047a839171b9190a45050565b60006112bf836001600160a01b038416612a62565b6060826000018281548110612956576129566138fc565b90600052602060002001805461296b9061387a565b80601f01602080910402602001604051908101604052809291908181526020018280546129979061387a565b80156129e45780601f106129b9576101008083540402835291602001916129e4565b820191906000526020600020905b8154815290600101906020018083116129c757829003601f168201915b5050505050905092915050565b6000826000018281548110612a0857612a086138fc565b9060005260206000200154905092915050565b6000818152600183016020526040812054611ce0575081546001818101845560008481526020808220909301849055845484825282860190935260409020919091556105f8565b60008181526001830160205260408120548015611ea4576000612a8660018361381c565b8554909150600090612a9a9060019061381c565b9050818114612aff576000866000018281548110612aba57612aba6138fc565b9060005260206000200154905080876000018481548110612add57612add6138fc565b6000918252602080832090910192909255918252600188019052604090208390555b8554869080612b1057612b106138e6565b6001900381819060005260206000200160009055905585600101600086815260200190815260200160002060009055600193505050506105f8565b828054612b579061387a565b90600052602060002090601f016020900481019282612b795760008555612bbf565b82601f10612b925782800160ff19823516178555612bbf565b82800160010185558215612bbf579182015b82811115612bbf578235825591602001919060010190612ba4565b50612bcb929150612c7d565b5090565b508054612bdb9061387a565b6000825580601f10612beb575050565b601f016020900490600052602060002090810190611eb89190612c7d565b828054612c159061387a565b90600052602060002090601f016020900481019282612c375760008555612bbf565b82601f10612c5057805160ff1916838001178555612bbf565b82800160010185558215612bbf579182015b82811115612bbf578251825591602001919060010190612c62565b5b80821115612bcb5760008155600101612c7e565b60008083601f840112612ca457600080fd5b50813567ffffffffffffffff811115612cbc57600080fd5b602083019150836020828501011115612cd457600080fd5b9250929050565b600060208284031215612ced57600080fd5b81356112bf81613928565b600060208284031215612d0a57600080fd5b81516112bf81613928565b60008060008060808587031215612d2b57600080fd5b8435612d3681613928565b93506020850135612d4681613928565b92506040850135612d5681613928565b91506060850135612d6681613928565b939692955090935050565b600060208284031215612d8357600080fd5b5035919050565b60008060408385031215612d9d57600080fd5b823591506020830135612daf81613928565b809150509250929050565b60008060408385031215612dcd57600080fd5b50508035926020909101359150565b600060208284031215612dee57600080fd5b81356001600160e01b0319811681146112bf57600080fd5b60008060208385031215612e1957600080fd5b823567ffffffffffffffff811115612e3057600080fd5b612e3c85828601612c92565b90969095509350505050565b60008060008060608587031215612e5e57600080fd5b843567ffffffffffffffff811115612e7557600080fd5b612e8187828801612c92565b9095509350506020850135612e9581613928565b91506040850135612d6681613928565b60008060008060008060808789031215612ebe57600080fd5b863567ffffffffffffffff80821115612ed657600080fd5b612ee28a838b01612c92565b909850965060208901359150612ef782613928565b9094506040880135908115158214612f0e57600080fd5b90935060608801359080821115612f2457600080fd5b50612f3189828a01612c92565b979a9699509497509295939492505050565b6000806000806000806000806080898b031215612f5f57600080fd5b883567ffffffffffffffff80821115612f7757600080fd5b612f838c838d01612c92565b909a50985060208b0135915080821115612f9c57600080fd5b612fa88c838d01612c92565b909850965060408b0135915080821115612fc157600080fd5b612fcd8c838d01612c92565b909650945060608b0135915080821115612fe657600080fd5b50612ff38b828c01612c92565b999c989b5096995094979396929594505050565b600080600080600080600080600060a08a8c03121561302557600080fd5b893567ffffffffffffffff8082111561303d57600080fd5b6130498d838e01612c92565b909b50995060208c013591508082111561306257600080fd5b61306e8d838e01612c92565b909950975060408c013591508082111561308757600080fd5b6130938d838e01612c92565b909750955060608c0135915060ff821682146130ae57600080fd5b90935060808b013590808211156130c457600080fd5b506130d18c828d01612c92565b915080935050809150509295985092959850929598565b6000806000806000806000806000806101208b8d03121561310857600080fd5b8a35995060208b013561311a81613928565b985060408b013561312a81613928565b975060608b013561313a81613928565b965060808b013561314a81613928565b955060a08b013561315a81613928565b945060c08b013561316a81613928565b935060e08b013561317a81613928565b92506101008b013567ffffffffffffffff8082111561319857600080fd5b818d0191508d601f8301126131ac57600080fd5b8135818111156131bb57600080fd5b8e60208260051b85010111156131d057600080fd5b6020830194508093505050509295989b9194979a5092959850565b60008151808452613203816020860160208601613833565b601f01601f19169290920160200192915050565b81835281816020850137506000828201602090810191909152601f909101601f19169091010190565b8054600090600181811c908083168061325a57607f831692505b602080841082141561327c57634e487b7160e01b600052602260045260246000fd5b81801561329057600181146132a1576132ce565b60ff198616895284890196506132ce565b60008881526020902060005b868110156132c65781548b8201529085019083016132ad565b505084890196505b50505050505092915050565b8183823760009101908152919050565b8385823760008482016000815283858237600093019283525090949350505050565b6000825161331e818460208701613833565b9190910192915050565b60006112bf8284613240565b70023b0ba32bbb0bca932b3b4b9ba393c9d1607d1b815282846011830137600083820160118101600081527f20746f6b656e20616c7265616479207265676973746572656420617320000000815250613390602e820185613240565b9695505050505050565b7f4761746577617952656769737472793a206163636f756e7420000000000000008152600083516133d2816019850160208801613833565b7001034b99036b4b9b9b4b733903937b6329607d1b601991840191820152835161340381602a840160208801613833565b01602a01949350505050565b7f416363657373436f6e74726f6c3a206163636f756e7420000000000000000000815260008351613447816017850160208801613833565b7001034b99036b4b9b9b4b733903937b6329607d1b6017918401918201528351613478816028840160208801613833565b01602801949350505050565b6000602080830181845280855180835260408601915060408160051b870101925083870160005b828110156134d957603f198886030184526134c78583516131eb565b945092850192908501906001016134ab565b5092979650505050505050565b8281526040602082015260006134ff60408301846131eb565b949350505050565b6020815260006134ff602083018486613217565b60808152600061352f608083018789613217565b6001600160a01b0395861660208401529390941660408201529015156060909101529392505050565b60a08152600061356c60a08301898b613217565b6001600160a01b038881166020850152871660408401528515156060840152828103608084015261359e818587613217565b9a9950505050505050505050565b6020815260006112bf60208301846131eb565b60208082526027908201527f4761746577617952656769737472793a2067617465776179206e6f74207265676040820152661a5cdd195c995960ca1b606082015260800190565b6020808252602e908201527f4761746577617952656769737472793a20656d707479206f7220696e76616c6960408201526d19081cdd1c9a5b99c81a5b9c1d5d60921b606082015260800190565b6020808252602b908201527f496e697469616c697a61626c653a20636f6e7472616374206973206e6f74206960408201526a6e697469616c697a696e6760a81b606082015260800190565b88815260a0602082015260006136b960a08301898b613217565b82810360408401526136cc81888a613217565b905082810360608401526136e1818688613217565b91505060018060a01b03831660808301529998505050505050505050565b8b815260e06020820152600061371960e083018c8e613217565b828103604084015261372c818b8d613217565b9050828103606084015261374181898b613217565b905060ff8716608084015285151560a084015282810360c0840152613767818587613217565b9e9d5050505050505050505050505050565b89815260c06020820152600061379360c083018a8c613217565b82810360408401526137a681898b613217565b905082810360608401526137bb818789613217565b60ff95909516608084015250506001600160a01b039190911660a090910152979650505050505050565b600082198211156137f8576137f86138d0565b500190565b6000816000190483118215151615613817576138176138d0565b500290565b60008282101561382e5761382e6138d0565b500390565b60005b8381101561384e578181015183820152602001613836565b8381111561385d576000848401525b50505050565b600081613872576138726138d0565b506000190190565b600181811c9082168061388e57607f821691505b602082108114156138af57634e487b7160e01b600052602260045260246000fd5b50919050565b60006000198214156138c9576138c96138d0565b5060010190565b634e487b7160e01b600052601160045260246000fd5b634e487b7160e01b600052603160045260246000fd5b634e487b7160e01b600052603260045260246000fd5b634e487b7160e01b600052604160045260246000fd5b6001600160a01b0381168114611eb857600080fdfeffddc8bfa55e17b4d21e6c83e86327dfded4d7c9dd051c00ab7b11c8a387c14a906a1b6d8666ab930891bffd6f4ca7e6fa437b6e3a66b10e0206c563ed50772ba2646970667358221220f1f0bd18bc0875727b9e00be17149de93677ea5035f0c9e4381153c98baab11064736f6c63430008070033",
  "devdoc": {
    "events": {
      "LogMintGatewayAdded(string,address,address,string)": {
        "details": "The symbol is included twice because strings have to be hashed first in order to be used as a log index/topic."
      }
    },
    "kind": "dev",
    "methods": {
      "addLockGateway(string,address,address)": {
        "params": {
          "lockAsset": "The address of the RenERC20 token contract.",
          "lockGateway": "The address of the Gateway contract.",
          "symbol": "A string that identifies the token and gateway pair."
        }
      },
      "addMintGateway(string,address,address)": {
        "params": {
          "mintGateway": "The address of the Gateway contract.",
          "renAsset": "The address of the RenERC20 token contract.",
          "symbol": "A string that identifies the token and gateway pair."
        }
      },
      "getLockGatewaySymbols(uint256,uint256)": {
        "details": "To get all the registered tokens set count to `0`."
      },
      "getMintGatewayBySymbol(string)": {
        "params": {
          "tokenSymbol": "The symbol of the RenERC20 token contract."
        }
      },
      "getMintGatewayByToken(address)": {
        "params": {
          "token": "The address of the RenERC20 token contract."
        }
      },
      "getMintGatewaySymbols(uint256,uint256)": {
        "details": "To get all the registered Gateway contracts set count to `0`."
      },
      "getRenAssetBySymbol(string)": {
        "params": {
          "tokenSymbol": "The symbol of the RenERC20 token contract to        lookup."
        }
      },
      "getRoleAdmin(bytes32)": {
        "details": "Returns the admin role that controls `role`. See {grantRole} and {revokeRole}. To change a role's admin, use {_setRoleAdmin}."
      },
      "getRoleMember(bytes32,uint256)": {
        "details": "Returns one of the accounts that have `role`. `index` must be a value between 0 and {getRoleMemberCount}, non-inclusive. Role bearers are not sorted in any particular way, and their ordering may change at any point. WARNING: When using {getRoleMember} and {getRoleMemberCount}, make sure you perform all queries on the same block. See the following https://forum.openzeppelin.com/t/iterating-over-elements-on-enumerableset-in-openzeppelin-contracts/2296[forum post] for more information."
      },
      "getRoleMemberCount(bytes32)": {
        "details": "Returns the number of accounts that have `role`. Can be used together with {getRoleMember} to enumerate all bearers of a role."
      },
      "grantRole(bytes32,address)": {
        "details": "Grants `role` to `account`. If `account` had not been already granted `role`, emits a {RoleGranted} event. Requirements: - the caller must have ``role``'s admin role. May emit a {RoleGranted} event."
      },
      "hasRole(bytes32,address)": {
        "details": "Returns `true` if `account` has been granted `role`."
      },
      "removeLockGateway(string)": {
        "params": {
          "symbol": "The symbol of the token to deregister."
        }
      },
      "removeMintGateway(string)": {
        "params": {
          "symbol": "The symbol of the token to deregister."
        }
      },
      "renounceRole(bytes32,address)": {
        "details": "Revokes `role` from the calling account. Roles are often managed via {grantRole} and {revokeRole}: this function's purpose is to provide a mechanism for accounts to lose their privileges if they are compromised (such as when a trusted device is misplaced). If the calling account had been revoked `role`, emits a {RoleRevoked} event. Requirements: - the caller must be `account`. May emit a {RoleRevoked} event."
      },
      "revokeRole(bytes32,address)": {
        "details": "Revokes `role` from `account`. If `account` had been granted `role`, emits a {RoleRevoked} event. Requirements: - the caller must have ``role``'s admin role. May emit a {RoleRevoked} event."
      },
      "supportsInterface(bytes4)": {
        "details": "See {IERC165-supportsInterface}."
      },
      "updateSignatureVerifier(address)": {
        "params": {
          "newSignatureVerifier": "The new verifier contract address."
        }
      },
      "updateTransferContract(address)": {
        "params": {
          "newTransferContract": "The new TransferContract contract address."
        }
      }
    },
    "version": 1
  },
  "userdoc": {
    "kind": "user",
    "methods": {
      "addLockGateway(string,address,address)": {
        "notice": "Allow the owner to set the Gateway contract for a given         RenERC20 token contract."
      },
      "addMintGateway(string,address,address)": {
        "notice": "Allow the owner to set the Gateway contract for a given         RenERC20 token contract."
      },
      "getGatewayBySymbol(string)": {
        "notice": "Deprecated in favour of getMintGatewayBySymbol."
      },
      "getGatewayByToken(address)": {
        "notice": "Deprecated in favour of getMintGatewayByToken."
      },
      "getMintGatewayBySymbol(string)": {
        "notice": "Returns the Gateway contract for the given RenERC20 token         symbol."
      },
      "getMintGatewayByToken(address)": {
        "notice": "Returns the Gateway contract for the given RenERC20 token         address."
      },
      "getRenAssetBySymbol(string)": {
        "notice": "Returns the RenERC20 address for the given token symbol."
      },
      "getTokenBySymbol(string)": {
        "notice": "Deprecated in favour of getRenAssetBySymbol."
      },
      "removeLockGateway(string)": {
        "notice": "Allows the owner to remove the Gateway contract for a given         asset contract."
      },
      "removeMintGateway(string)": {
        "notice": "Allows the owner to remove the Gateway contract for a given         RenERC20 contract."
      },
      "updateSignatureVerifier(address)": {
        "notice": "Allow the owner to update the signature verifier contract."
      },
      "updateTransferContract(address)": {
        "notice": "Allow the owner to update the TransferContract contract."
      }
    },
    "notice": "GatewayRegistry is a mapping from assets to their associated RenERC20 and Gateway contracts.",
    "version": 1
  },
  "storageLayout": {
    "storage": [
      {
        "astId": 721,
        "contract": "src/GatewayRegistry/GatewayRegistry.sol:GatewayRegistryV3",
        "label": "_initialized",
        "offset": 0,
        "slot": "0",
        "type": "t_uint8"
      },
      {
        "astId": 724,
        "contract": "src/GatewayRegistry/GatewayRegistry.sol:GatewayRegistryV3",
        "label": "_initializing",
        "offset": 1,
        "slot": "0",
        "type": "t_bool"
      },
      {
        "astId": 3664,
        "contract": "src/GatewayRegistry/GatewayRegistry.sol:GatewayRegistryV3",
        "label": "__gap",
        "offset": 0,
        "slot": "1",
        "type": "t_array(t_uint256)50_storage"
      },
      {
        "astId": 3934,
        "contract": "src/GatewayRegistry/GatewayRegistry.sol:GatewayRegistryV3",
        "label": "__gap",
        "offset": 0,
        "slot": "51",
        "type": "t_array(t_uint256)50_storage"
      },
      {
        "astId": 184,
        "contract": "src/GatewayRegistry/GatewayRegistry.sol:GatewayRegistryV3",
        "label": "_roles",
        "offset": 0,
        "slot": "101",
        "type": "t_mapping(t_bytes32,t_struct(RoleData)179_storage)"
      },
      {
        "astId": 483,
        "contract": "src/GatewayRegistry/GatewayRegistry.sol:GatewayRegistryV3",
        "label": "__gap",
        "offset": 0,
        "slot": "102",
        "type": "t_array(t_uint256)49_storage"
      },
      {
        "astId": 33,
        "contract": "src/GatewayRegistry/GatewayRegistry.sol:GatewayRegistryV3",
        "label": "_roleMembers",
        "offset": 0,
        "slot": "151",
        "type": "t_mapping(t_bytes32,t_struct(AddressSet)4763_storage)"
      },
      {
        "astId": 143,
        "contract": "src/GatewayRegistry/GatewayRegistry.sol:GatewayRegistryV3",
        "label": "__gap",
        "offset": 0,
        "slot": "152",
        "type": "t_array(t_uint256)49_storage"
      },
      {
        "astId": 19789,
        "contract": "src/GatewayRegistry/GatewayRegistry.sol:GatewayRegistryV3",
        "label": "_renERC20ProxyBeacon",
        "offset": 0,
        "slot": "201",
        "type": "t_contract(RenERC20ProxyBeacon)19708"
      },
      {
        "astId": 19792,
        "contract": "src/GatewayRegistry/GatewayRegistry.sol:GatewayRegistryV3",
        "label": "_renERC721ProxyBeacon",
        "offset": 0,
        "slot": "202",
        "type": "t_contract(RenERC721ProxyBeacon)19726"
      },
      {
        "astId": 19795,
        "contract": "src/GatewayRegistry/GatewayRegistry.sol:GatewayRegistryV3",
        "label": "_mintGatewayProxyBeacon",
        "offset": 0,
        "slot": "203",
        "type": "t_contract(MintGatewayProxyBeacon)19744"
      },
      {
        "astId": 19798,
        "contract": "src/GatewayRegistry/GatewayRegistry.sol:GatewayRegistryV3",
        "label": "_lockGatewayProxyBeacon",
        "offset": 0,
        "slot": "204",
        "type": "t_contract(LockGatewayProxyBeacon)19762"
      },
      {
        "astId": 18398,
        "contract": "src/GatewayRegistry/GatewayRegistry.sol:GatewayRegistryV3",
        "label": "mintGatewaySymbols",
        "offset": 0,
        "slot": "205",
        "type": "t_struct(Set)24161_storage"
      },
      {
        "astId": 18401,
        "contract": "src/GatewayRegistry/GatewayRegistry.sol:GatewayRegistryV3",
        "label": "lockGatewaySymbols",
        "offset": 0,
        "slot": "207",
        "type": "t_struct(Set)24161_storage"
      },
      {
        "astId": 18405,
        "contract": "src/GatewayRegistry/GatewayRegistry.sol:GatewayRegistryV3",
        "label": "mintSymbolByToken",
        "offset": 0,
        "slot": "209",
        "type": "t_mapping(t_address,t_string_storage)"
      },
      {
        "astId": 18410,
        "contract": "src/GatewayRegistry/GatewayRegistry.sol:GatewayRegistryV3",
        "label": "mintGatewayDetailsBySymbol",
        "offset": 0,
        "slot": "210",
        "type": "t_mapping(t_string_memory_ptr,t_struct(GatewayDetails)18395_storage)"
      },
      {
        "astId": 18414,
        "contract": "src/GatewayRegistry/GatewayRegistry.sol:GatewayRegistryV3",
        "label": "lockSymbolByToken",
        "offset": 0,
        "slot": "211",
        "type": "t_mapping(t_address,t_string_storage)"
      },
      {
        "astId": 18419,
        "contract": "src/GatewayRegistry/GatewayRegistry.sol:GatewayRegistryV3",
        "label": "lockGatewayDetailsBySymbol",
        "offset": 0,
        "slot": "212",
        "type": "t_mapping(t_string_memory_ptr,t_struct(GatewayDetails)18395_storage)"
      },
      {
        "astId": 18421,
        "contract": "src/GatewayRegistry/GatewayRegistry.sol:GatewayRegistryV3",
        "label": "_signatureVerifier",
        "offset": 0,
        "slot": "213",
        "type": "t_address"
      },
      {
        "astId": 18423,
        "contract": "src/GatewayRegistry/GatewayRegistry.sol:GatewayRegistryV3",
        "label": "_chainId",
        "offset": 0,
        "slot": "214",
        "type": "t_uint256"
      },
      {
        "astId": 18425,
        "contract": "src/GatewayRegistry/GatewayRegistry.sol:GatewayRegistryV3",
        "label": "_transferContract",
        "offset": 0,
        "slot": "215",
        "type": "t_address"
      },
      {
        "astId": 18429,
        "contract": "src/GatewayRegistry/GatewayRegistry.sol:GatewayRegistryV3",
        "label": "__gap",
        "offset": 0,
        "slot": "216",
        "type": "t_array(t_uint256)39_storage"
      }
    ],
    "types": {
      "t_address": {
        "encoding": "inplace",
        "label": "address",
        "numberOfBytes": "20"
      },
      "t_array(t_bytes32)dyn_storage": {
        "base": "t_bytes32",
        "encoding": "dynamic_array",
        "label": "bytes32[]",
        "numberOfBytes": "32"
      },
      "t_array(t_string_storage)dyn_storage": {
        "base": "t_string_storage",
        "encoding": "dynamic_array",
        "label": "string[]",
        "numberOfBytes": "32"
      },
      "t_array(t_uint256)39_storage": {
        "base": "t_uint256",
        "encoding": "inplace",
        "label": "uint256[39]",
        "numberOfBytes": "1248"
      },
      "t_array(t_uint256)49_storage": {
        "base": "t_uint256",
        "encoding": "inplace",
        "label": "uint256[49]",
        "numberOfBytes": "1568"
      },
      "t_array(t_uint256)50_storage": {
        "base": "t_uint256",
        "encoding": "inplace",
        "label": "uint256[50]",
        "numberOfBytes": "1600"
      },
      "t_bool": {
        "encoding": "inplace",
        "label": "bool",
        "numberOfBytes": "1"
      },
      "t_bytes32": {
        "encoding": "inplace",
        "label": "bytes32",
        "numberOfBytes": "32"
      },
      "t_contract(LockGatewayProxyBeacon)19762": {
        "encoding": "inplace",
        "label": "contract LockGatewayProxyBeacon",
        "numberOfBytes": "20"
      },
      "t_contract(MintGatewayProxyBeacon)19744": {
        "encoding": "inplace",
        "label": "contract MintGatewayProxyBeacon",
        "numberOfBytes": "20"
      },
      "t_contract(RenERC20ProxyBeacon)19708": {
        "encoding": "inplace",
        "label": "contract RenERC20ProxyBeacon",
        "numberOfBytes": "20"
      },
      "t_contract(RenERC721ProxyBeacon)19726": {
        "encoding": "inplace",
        "label": "contract RenERC721ProxyBeacon",
        "numberOfBytes": "20"
      },
      "t_mapping(t_address,t_bool)": {
        "encoding": "mapping",
        "key": "t_address",
        "label": "mapping(address => bool)",
        "numberOfBytes": "32",
        "value": "t_bool"
      },
      "t_mapping(t_address,t_string_storage)": {
        "encoding": "mapping",
        "key": "t_address",
        "label": "mapping(address => string)",
        "numberOfBytes": "32",
        "value": "t_string_storage"
      },
      "t_mapping(t_bytes32,t_struct(AddressSet)4763_storage)": {
        "encoding": "mapping",
        "key": "t_bytes32",
        "label": "mapping(bytes32 => struct EnumerableSetUpgradeable.AddressSet)",
        "numberOfBytes": "32",
        "value": "t_struct(AddressSet)4763_storage"
      },
      "t_mapping(t_bytes32,t_struct(RoleData)179_storage)": {
        "encoding": "mapping",
        "key": "t_bytes32",
        "label": "mapping(bytes32 => struct AccessControlUpgradeable.RoleData)",
        "numberOfBytes": "32",
        "value": "t_struct(RoleData)179_storage"
      },
      "t_mapping(t_bytes32,t_uint256)": {
        "encoding": "mapping",
        "key": "t_bytes32",
        "label": "mapping(bytes32 => uint256)",
        "numberOfBytes": "32",
        "value": "t_uint256"
      },
      "t_mapping(t_string_memory_ptr,t_struct(GatewayDetails)18395_storage)": {
        "encoding": "mapping",
        "key": "t_string_memory_ptr",
        "label": "mapping(string => struct GatewayRegistryStateV2.GatewayDetails)",
        "numberOfBytes": "32",
        "value": "t_struct(GatewayDetails)18395_storage"
      },
      "t_mapping(t_string_memory_ptr,t_uint256)": {
        "encoding": "mapping",
        "key": "t_string_memory_ptr",
        "label": "mapping(string => uint256)",
        "numberOfBytes": "32",
        "value": "t_uint256"
      },
      "t_string_memory_ptr": {
        "encoding": "bytes",
        "label": "string",
        "numberOfBytes": "32"
      },
      "t_string_storage": {
        "encoding": "bytes",
        "label": "string",
        "numberOfBytes": "32"
      },
      "t_struct(AddressSet)4763_storage": {
        "encoding": "inplace",
        "label": "struct EnumerableSetUpgradeable.AddressSet",
        "members": [
          {
            "astId": 4762,
            "contract": "src/GatewayRegistry/GatewayRegistry.sol:GatewayRegistryV3",
            "label": "_inner",
            "offset": 0,
            "slot": "0",
            "type": "t_struct(Set)4462_storage"
          }
        ],
        "numberOfBytes": "64"
      },
      "t_struct(GatewayDetails)18395_storage": {
        "encoding": "inplace",
        "label": "struct GatewayRegistryStateV2.GatewayDetails",
        "members": [
          {
            "astId": 18392,
            "contract": "src/GatewayRegistry/GatewayRegistry.sol:GatewayRegistryV3",
            "label": "gateway",
            "offset": 0,
            "slot": "0",
            "type": "t_address"
          },
          {
            "astId": 18394,
            "contract": "src/GatewayRegistry/GatewayRegistry.sol:GatewayRegistryV3",
            "label": "token",
            "offset": 0,
            "slot": "1",
            "type": "t_address"
          }
        ],
        "numberOfBytes": "64"
      },
      "t_struct(RoleData)179_storage": {
        "encoding": "inplace",
        "label": "struct AccessControlUpgradeable.RoleData",
        "members": [
          {
            "astId": 176,
            "contract": "src/GatewayRegistry/GatewayRegistry.sol:GatewayRegistryV3",
            "label": "members",
            "offset": 0,
            "slot": "0",
            "type": "t_mapping(t_address,t_bool)"
          },
          {
            "astId": 178,
            "contract": "src/GatewayRegistry/GatewayRegistry.sol:GatewayRegistryV3",
            "label": "adminRole",
            "offset": 0,
            "slot": "1",
            "type": "t_bytes32"
          }
        ],
        "numberOfBytes": "64"
      },
      "t_struct(Set)24161_storage": {
        "encoding": "inplace",
        "label": "struct StringSet.Set",
        "members": [
          {
            "astId": 24156,
            "contract": "src/GatewayRegistry/GatewayRegistry.sol:GatewayRegistryV3",
            "label": "_values",
            "offset": 0,
            "slot": "0",
            "type": "t_array(t_string_storage)dyn_storage"
          },
          {
            "astId": 24160,
            "contract": "src/GatewayRegistry/GatewayRegistry.sol:GatewayRegistryV3",
            "label": "_indexes",
            "offset": 0,
            "slot": "1",
            "type": "t_mapping(t_string_memory_ptr,t_uint256)"
          }
        ],
        "numberOfBytes": "64"
      },
      "t_struct(Set)4462_storage": {
        "encoding": "inplace",
        "label": "struct EnumerableSetUpgradeable.Set",
        "members": [
          {
            "astId": 4457,
            "contract": "src/GatewayRegistry/GatewayRegistry.sol:GatewayRegistryV3",
            "label": "_values",
            "offset": 0,
            "slot": "0",
            "type": "t_array(t_bytes32)dyn_storage"
          },
          {
            "astId": 4461,
            "contract": "src/GatewayRegistry/GatewayRegistry.sol:GatewayRegistryV3",
            "label": "_indexes",
            "offset": 0,
            "slot": "1",
            "type": "t_mapping(t_bytes32,t_uint256)"
          }
        ],
        "numberOfBytes": "64"
      },
      "t_uint256": {
        "encoding": "inplace",
        "label": "uint256",
        "numberOfBytes": "32"
      },
      "t_uint8": {
        "encoding": "inplace",
        "label": "uint8",
        "numberOfBytes": "1"
      }
    }
  }
}