{
  "address": "0xFfac0613a8B54dF9db9F2F9695e8819871fDdE62",
  "abi": [
    {
      "anonymous": false,
      "inputs": [
        {
          "indexed": false,
          "internalType": "uint8",
          "name": "version",
          "type": "uint8"
        }
      ],
      "name": "Initialized",
      "type": "event"
    },
    {
      "anonymous": false,
      "inputs": [
        {
          "indexed": false,
          "internalType": "string",
          "name": "asset",
          "type": "string"
        },
        {
          "indexed": true,
          "internalType": "bytes32",
          "name": "selectorHash",
          "type": "bytes32"
        }
      ],
      "name": "LogAssetUpdated",
      "type": "event"
    },
    {
      "anonymous": false,
      "inputs": [
        {
          "indexed": false,
          "internalType": "string",
          "name": "recipientAddress",
          "type": "string"
        },
        {
          "indexed": false,
          "internalType": "string",
          "name": "recipientChain",
          "type": "string"
        },
        {
          "indexed": false,
          "internalType": "bytes",
          "name": "recipientPayload",
          "type": "bytes"
        },
        {
          "indexed": false,
          "internalType": "uint256",
          "name": "amount",
          "type": "uint256"
        },
        {
          "indexed": true,
          "internalType": "uint256",
          "name": "lockNonce",
          "type": "uint256"
        },
        {
          "indexed": true,
          "internalType": "string",
          "name": "recipientAddressIndexed",
          "type": "string"
        },
        {
          "indexed": true,
          "internalType": "string",
          "name": "recipientChainIndexed",
          "type": "string"
        }
      ],
      "name": "LogLockToChain",
      "type": "event"
    },
    {
      "anonymous": false,
      "inputs": [
        {
          "indexed": true,
          "internalType": "address",
          "name": "oldPreviousGateway",
          "type": "address"
        },
        {
          "indexed": true,
          "internalType": "address",
          "name": "newPreviousGateway",
          "type": "address"
        }
      ],
      "name": "LogPreviousGatewayUpdated",
      "type": "event"
    },
    {
      "anonymous": false,
      "inputs": [
        {
          "indexed": true,
          "internalType": "address",
          "name": "recipient",
          "type": "address"
        },
        {
          "indexed": false,
          "internalType": "uint256",
          "name": "amount",
          "type": "uint256"
        },
        {
          "indexed": true,
          "internalType": "bytes32",
          "name": "sigHash",
          "type": "bytes32"
        },
        {
          "indexed": true,
          "internalType": "bytes32",
          "name": "nHash",
          "type": "bytes32"
        }
      ],
      "name": "LogRelease",
      "type": "event"
    },
    {
      "anonymous": false,
      "inputs": [
        {
          "indexed": true,
          "internalType": "address",
          "name": "oldSignatureVerifier",
          "type": "address"
        },
        {
          "indexed": true,
          "internalType": "address",
          "name": "newSignatureVerifier",
          "type": "address"
        }
      ],
      "name": "LogSignatureVerifierUpdated",
      "type": "event"
    },
    {
      "anonymous": false,
      "inputs": [
        {
          "indexed": true,
          "internalType": "address",
          "name": "token",
          "type": "address"
        }
      ],
      "name": "LogTokenUpdated",
      "type": "event"
    },
    {
      "inputs": [],
      "name": "NAME",
      "outputs": [
        {
          "internalType": "string",
          "name": "",
          "type": "string"
        }
      ],
      "stateMutability": "view",
      "type": "function"
    },
    {
      "inputs": [
        {
          "internalType": "string",
          "name": "asset_",
          "type": "string"
        },
        {
          "internalType": "address",
          "name": "signatureVerifier_",
          "type": "address"
        },
        {
          "internalType": "address",
          "name": "token_",
          "type": "address"
        },
        {
          "internalType": "bool",
          "name": "isNFT_",
          "type": "bool"
        }
      ],
      "name": "__GatewayStateManager_init",
      "outputs": [],
      "stateMutability": "nonpayable",
      "type": "function"
    },
    {
      "inputs": [
        {
          "internalType": "string",
          "name": "asset_",
          "type": "string"
        },
        {
          "internalType": "address",
          "name": "signatureVerifier_",
          "type": "address"
        },
        {
          "internalType": "address",
          "name": "token_",
          "type": "address"
        },
        {
          "internalType": "bool",
          "name": "isNFT_",
          "type": "bool"
        }
      ],
      "name": "__LockGateway_init",
      "outputs": [],
      "stateMutability": "nonpayable",
      "type": "function"
    },
    {
      "inputs": [],
      "name": "getAsset",
      "outputs": [
        {
          "internalType": "string",
          "name": "",
          "type": "string"
        }
      ],
      "stateMutability": "view",
      "type": "function"
    },
    {
      "inputs": [],
      "name": "getEventNonce",
      "outputs": [
        {
          "internalType": "uint256",
          "name": "",
          "type": "uint256"
        }
      ],
      "stateMutability": "view",
      "type": "function"
    },
    {
      "inputs": [],
      "name": "getPreviousGateway",
      "outputs": [
        {
          "internalType": "address",
          "name": "",
          "type": "address"
        }
      ],
      "stateMutability": "view",
      "type": "function"
    },
    {
      "inputs": [],
      "name": "getSelectorHash",
      "outputs": [
        {
          "internalType": "bytes32",
          "name": "",
          "type": "bytes32"
        }
      ],
      "stateMutability": "view",
      "type": "function"
    },
    {
      "inputs": [],
      "name": "getSignatureVerifier",
      "outputs": [
        {
          "internalType": "contract IRenVMSignatureVerifier",
          "name": "",
          "type": "address"
        }
      ],
      "stateMutability": "view",
      "type": "function"
    },
    {
      "inputs": [],
      "name": "getToken",
      "outputs": [
        {
          "internalType": "address",
          "name": "",
          "type": "address"
        }
      ],
      "stateMutability": "view",
      "type": "function"
    },
    {
      "inputs": [
        {
          "internalType": "string",
          "name": "recipientAddress",
          "type": "string"
        },
        {
          "internalType": "string",
          "name": "recipientChain",
          "type": "string"
        },
        {
          "internalType": "bytes",
          "name": "recipientPayload",
          "type": "bytes"
        },
        {
          "internalType": "uint256",
          "name": "amountOrTokenId",
          "type": "uint256"
        }
      ],
      "name": "lock",
      "outputs": [
        {
          "internalType": "uint256",
          "name": "",
          "type": "uint256"
        }
      ],
      "stateMutability": "nonpayable",
      "type": "function"
    },
    {
      "inputs": [],
      "name": "owner",
      "outputs": [
        {
          "internalType": "address",
          "name": "",
          "type": "address"
        }
      ],
      "stateMutability": "view",
      "type": "function"
    },
    {
      "inputs": [
        {
          "internalType": "bytes32",
          "name": "pHash",
          "type": "bytes32"
        },
        {
          "internalType": "uint256",
          "name": "amountOrTokenId",
          "type": "uint256"
        },
        {
          "internalType": "bytes32",
          "name": "nHash",
          "type": "bytes32"
        },
        {
          "internalType": "bytes",
          "name": "sig",
          "type": "bytes"
        }
      ],
      "name": "release",
      "outputs": [
        {
          "internalType": "uint256",
          "name": "",
          "type": "uint256"
        }
      ],
      "stateMutability": "nonpayable",
      "type": "function"
    },
    {
      "inputs": [
        {
          "internalType": "bytes32",
          "name": "hash",
          "type": "bytes32"
        }
      ],
      "name": "status",
      "outputs": [
        {
          "internalType": "bool",
          "name": "",
          "type": "bool"
        }
      ],
      "stateMutability": "view",
      "type": "function"
    },
    {
      "inputs": [],
      "name": "token",
      "outputs": [
        {
          "internalType": "address",
          "name": "",
          "type": "address"
        }
      ],
      "stateMutability": "view",
      "type": "function"
    },
    {
      "inputs": [
        {
          "internalType": "string",
          "name": "nextAsset",
          "type": "string"
        }
      ],
      "name": "updateAsset",
      "outputs": [],
      "stateMutability": "nonpayable",
      "type": "function"
    },
    {
      "inputs": [
        {
          "internalType": "address",
          "name": "newPreviousGateway",
          "type": "address"
        }
      ],
      "name": "updatePreviousGateway",
      "outputs": [],
      "stateMutability": "nonpayable",
      "type": "function"
    },
    {
      "inputs": [
        {
          "internalType": "address",
          "name": "newSignatureVerifier",
          "type": "address"
        }
      ],
      "name": "updateSignatureVerifier",
      "outputs": [],
      "stateMutability": "nonpayable",
      "type": "function"
    },
    {
      "inputs": [
        {
          "internalType": "address",
          "name": "newToken",
          "type": "address"
        }
      ],
      "name": "updateToken",
      "outputs": [],
      "stateMutability": "nonpayable",
      "type": "function"
    }
  ],
  "transactionHash": "0x2f6950cff71906380c468f7dda4af55ea45867f5808d1efb62b025f9167ce0c1",
  "args": [],
  "numDeployments": 1,
  "solcInputHash": "1fc24ec92d75e781452354b8332143e5",
  "bytecode": "0x608060405234801561001057600080fd5b50612091806100206000396000f3fe608060405234801561001057600080fd5b50600436106101165760003560e01c80637ad3def2116100a2578063aed92d3511610071578063aed92d3514610244578063c54216b41461024c578063ca9d95321461025f578063cd0df36a14610272578063fc0c546a1461028557600080fd5b80637ad3def2146101ec5780638da5cb5b146101ff5780639cffc71514610207578063a3f4df7e1461021a57600080fd5b80635266ba0c116100e95780635266ba0c1461017957806352ad0d5e1461018e5780635667981b146101b15780635c222bad146101c4578063695d1408146101d957600080fd5b8063096981301461011b57806321df0da7146101455780632e21384d14610156578063345763ad14610168575b600080fd5b6038546001600160a01b03165b6040516001600160a01b0390911681526020015b60405180910390f35b6036546001600160a01b0316610128565b6039545b60405190815260200161013c565b6037546001600160a01b0316610128565b61018c6101873660046118c3565b61029c565b005b6101a161019c36600461191a565b61037c565b604051901515815260200161013c565b61018c6101bf3660046118c3565b610448565b6101cc610483565b60405161013c9190611e1e565b61018c6101e7366004611a00565b610515565b61018c6101fa3660046118c3565b610638565b610128610670565b61015a610215366004611933565b6106f9565b6101cc6040518060400160405280600b81526020016a4c6f636b4761746577617960a81b81525081565b61015a6109f8565b61018c61025a3660046119be565b610a51565b61015a61026d366004611a7d565b610a8e565b61018c610280366004611a00565b610c7e565b610128610cde565b6037546001600160a01b031690565b336102a5610670565b6001600160a01b0316146102d45760405162461bcd60e51b81526004016102cb90611e51565b60405180910390fd5b6001600160a01b03811661032a5760405162461bcd60e51b815260206004820152601860248201527f476174657761793a20696e76616c69642061646472657373000000000000000060448201526064016102cb565b603880546001600160a01b038381166001600160a01b0319831681179093556040519116919082907fd420320c6286dfd203f890abd5a2bbf75c64ef636ed72e192259fa1d133cd55b90600090a35050565b60008181526035602052604081205460ff161561039b57506001919050565b60006103af6038546001600160a01b031690565b90506001600160a01b0381161561043f5760405163295686af60e11b8152600481018490526001600160a01b038216906352ad0d5e9060240160206040518083038186803b15801561040057600080fd5b505afa158015610414573d6000803e3d6000fd5b505050506040513d601f19601f8201168201806040525081019061043891906118fd565b9392505050565b50600092915050565b33610451610670565b6001600160a01b0316146104775760405162461bcd60e51b81526004016102cb90611e51565b61048081610cf2565b50565b60606033805461049290611f76565b80601f01602080910402602001604051908101604052809291908181526020018280546104be90611f76565b801561050b5780601f106104e05761010080835404028352916020019161050b565b820191906000526020600020905b8154815290600101906020018083116104ee57829003601f168201915b5050505050905090565b600054610100900460ff16158080156105355750600054600160ff909116105b8061054f5750303b15801561054f575060005460ff166001145b6105b25760405162461bcd60e51b815260206004820152602e60248201527f496e697469616c697a61626c653a20636f6e747261637420697320616c72656160448201526d191e481a5b9a5d1a585b1a5e995960921b60648201526084016102cb565b6000805460ff1916600117905580156105d5576000805461ff0019166101001790555b6105dd610da6565b6105ea8686868686610c7e565b8015610630576000805461ff0019169055604051600181527f7f26b83ff96e1f2b6a682f133852f6798a09c465da95921460cefb38474024989060200160405180910390a15b505050505050565b33610641610670565b6001600160a01b0316146106675760405162461bcd60e51b81526004016102cb90611e51565b61048081610dcf565b60006106846037546001600160a01b031690565b6001600160a01b0316638da5cb5b6040518163ffffffff1660e01b815260040160206040518083038186803b1580156106bc57600080fd5b505afa1580156106d0573d6000803e3d6000fd5b505050506040513d601f19601f820116820180604052508101906106f491906118e0565b905090565b60003381610756888861070a6109f8565b604080516020808201959095528082019390935260608301919091526001600160a01b038616608083015260a08083018b90528151808403909101815260c09092019052805191012090565b90506107618161037c565b156107ba5760405162461bcd60e51b8152602060048201526024808201527f4c6f636b476174657761793a207369676e617475726520616c726561647920736044820152631c195b9d60e21b60648201526084016102cb565b630b135d3f60e11b6107d46037546001600160a01b031690565b6001600160a01b0316631626ba7e8388886040518463ffffffff1660e01b815260040161080393929190611d96565b60206040518083038186803b15801561081b57600080fd5b505afa15801561082f573d6000803e3d6000fd5b505050506040513d601f19601f820116820180604052508101906108539190611994565b6001600160e01b031916146108e15761086d886020610e68565b61087688611004565b6108886108816109f8565b6020610e68565b61089c856001600160a01b03166014610e68565b6108a78a6020610e68565b6040516020016108bb959493929190611c8a565b60408051601f198184030181529082905262461bcd60e51b82526102cb91600401611e1e565b6000818152603560205260409020805460ff19166001179055603a5460ff1615610980576036546001600160a01b0316604051632142170760e11b81523060048201526001600160a01b038481166024830152604482018a905291909116906342842e0e90606401600060405180830381600087803b15801561096357600080fd5b505af1158015610977573d6000803e3d6000fd5b505050506109a7565b6109a782886109976036546001600160a01b031690565b6001600160a01b0316919061110a565b8581836001600160a01b03167f9a0e734b1a87920f1af4cb8617268e9e5979afa7f36a620a4f90206f0ca57d4c8a6040516109e491815260200190565b60405180910390a450949695505050505050565b603454600090610a4a5760405162461bcd60e51b815260206004820152601860248201527f476174657761793a206e6f7420696e697469616c697a6564000000000000000060448201526064016102cb565b5060345490565b33610a5a610670565b6001600160a01b031614610a805760405162461bcd60e51b81526004016102cb90611e51565b610a8a8282611172565b5050565b6000610acf88888080601f01602080910402602001604051908101604052809392919081815260200183838082843760009201919091525061130992505050565b610b1b5760405162461bcd60e51b815260206004820181905260248201527f4c6f636b476174657761793a20746f206164647265737320697320656d70747960448201526064016102cb565b603a54829060ff1615610bb6575081610b3c6036546001600160a01b031690565b6001600160a01b03166342842e0e336040516001600160e01b031960e084901b1681526001600160a01b03909116600482015230602482015260448101869052606401600060405180830381600087803b158015610b9957600080fd5b505af1158015610bad573d6000803e3d6000fd5b50505050610be2565b610bdf333085610bce6036546001600160a01b031690565b6001600160a01b031692919061130f565b90505b6000610bed60395490565b90508787604051610bff929190611c3c565b60405180910390208a8a604051610c17929190611c3c565b6040518091039020827fc06237815e14163806cc5c2447bc785b639c2f8b1f3f23872f226e5c31adb9958d8d8d8d8d8d8b604051610c5b9796959493929190611dcd565b60405180910390a4610c6e816001611ed1565b6039555098975050505050505050565b600054610100900460ff16610ca55760405162461bcd60e51b81526004016102cb90611e86565b603a805460ff1916821515179055610cbb610da6565b610cc483610cf2565b610cce8585611172565b610cd782610dcf565b5050505050565b60006106f46036546001600160a01b031690565b6001600160a01b038116610d545760405162461bcd60e51b815260206004820152602360248201527f476174657761793a20696e76616c6964207369676e617475726520766572696660448201526234b2b960e91b60648201526084016102cb565b603780546001600160a01b038381166001600160a01b0319831681179093556040519116919082907ff7dbe6f0a40adabc688e64fce7060ca2f466fbf846227fb5e4e05305553bae5e90600090a35050565b600054610100900460ff16610dcd5760405162461bcd60e51b81526004016102cb90611e86565b565b6001600160a01b038116610e1e5760405162461bcd60e51b815260206004820152601660248201527523b0ba32bbb0bc9d1034b73b30b634b2103a37b5b2b760511b60448201526064016102cb565b603680546001600160a01b0319166001600160a01b0383169081179091556040517f02dec22a3d1e8f9cdc0c7cd17ecee187f635788c40755be0a72dcd86a05e564d90600090a250565b60606000610e77836002611efd565b610e82906002611ed1565b67ffffffffffffffff811115610e9a57610e9a612022565b6040519080825280601f01601f191660200182016040528015610ec4576020820181803683370190505b509050600360fc1b81600081518110610edf57610edf61200c565b60200101906001600160f81b031916908160001a905350600f60fb1b81600181518110610f0e57610f0e61200c565b60200101906001600160f81b031916908160001a9053506000610f32846002611efd565b610f3d906001611ed1565b90505b6001811115610fb5576f181899199a1a9b1b9c1cb0b131b232b360811b85600f1660108110610f7157610f7161200c565b1a60f81b828281518110610f8757610f8761200c565b60200101906001600160f81b031916908160001a90535060049490941c93610fae81611f5f565b9050610f40565b5083156104385760405162461bcd60e51b815260206004820181905260248201527f537472696e67733a20686578206c656e67746820696e73756666696369656e7460448201526064016102cb565b6060816110285750506040805180820190915260018152600360fc1b602082015290565b8160005b8115611052578061103c81611fb1565b915061104b9050600a83611ee9565b915061102c565b60008167ffffffffffffffff81111561106d5761106d612022565b6040519080825280601f01601f191660200182016040528015611097576020820181803683370190505b5090505b8415611102576110ac600183611f1c565b91506110b9600a86611fcc565b6110c4906030611ed1565b60f81b8183815181106110d9576110d961200c565b60200101906001600160f81b031916908160001a9053506110fb600a86611ee9565b945061109b565b949350505050565b6040516001600160a01b03831660248201526044810182905261116d90849063a9059cbb60e01b906064015b60408051601f198184030181529190526020810180516001600160e01b03166001600160e01b031990931692909217909152611447565b505050565b6111b182828080601f01602080910402602001604051908101604052809392919081815260200183838082843760009201919091525061151992505050565b6111f65760405162461bcd60e51b815260206004820152601660248201527511d85d195dd85e4e881a5b9d985b1a5908185cdcd95d60521b60448201526064016102cb565b611202603383836117e1565b5060006112c183838080601f016020809104026020016040519081016040528093929190818152602001838380828437600092019190915250611248925061028d915050565b6001600160a01b03166332e21ae76040518163ffffffff1660e01b815260040160006040518083038186803b15801561128057600080fd5b505afa158015611294573d6000803e3d6000fd5b505050506040513d6000823e601f3d908101601f191682016040526112bc9190810190611b20565b61153b565b905080603481905550807f2e7c1f9bcc3b09d8e05594ab5d17b6c9b15b24cd506c5212f051f22990d0813184846040516112fc929190611db9565b60405180910390a2505050565b51151590565b6040516370a0823160e01b81526001600160a01b03838116600483015260009182918716906370a082319060240160206040518083038186803b15801561135557600080fd5b505afa158015611369573d6000803e3d6000fd5b505050506040513d601f19601f8201168201806040525081019061138d9190611bc2565b90506113a46001600160a01b03871686868661156e565b6040516370a0823160e01b81526001600160a01b038581166004830152600091908816906370a082319060240160206040518083038186803b1580156113e957600080fd5b505afa1580156113fd573d6000803e3d6000fd5b505050506040513d601f19601f820116820180604052508101906114219190611bc2565b9050600061142f8383611f1c565b905061143b85826115ac565b98975050505050505050565b600061149c826040518060400160405280602081526020017f5361666545524332303a206c6f772d6c6576656c2063616c6c206661696c6564815250856001600160a01b03166115c29092919063ffffffff16565b80519091501561116d57808060200190518101906114ba91906118fd565b61116d5760405162461bcd60e51b815260206004820152602a60248201527f5361666545524332303a204552433230206f7065726174696f6e20646964206e6044820152691bdd081cdd58d8d9595960b21b60648201526084016102cb565b60006115258251151590565b80156115355750611535826115d1565b92915050565b60008282604051602001611550929190611c4c565b60405160208183030381529060405280519060200120905092915050565b6040516001600160a01b03808516602483015283166044820152606481018290526115a69085906323b872dd60e01b90608401611136565b50505050565b60008183106115bb5781610438565b5090919050565b60606111028484600085611677565b6000805b825181101561166e5760008382815181106115f2576115f261200c565b016020015160f81c9050604181108015906116115750605a8160ff1611155b8061162f575060618160ff161015801561162f5750607a8160ff1611155b8061164d575060308160ff161015801561164d575060398160ff1611155b61165b575060009392505050565b508061166681611fb1565b9150506115d5565b50600192915050565b6060824710156116d85760405162461bcd60e51b815260206004820152602660248201527f416464726573733a20696e73756666696369656e742062616c616e636520666f6044820152651c8818d85b1b60d21b60648201526084016102cb565b6001600160a01b0385163b61172f5760405162461bcd60e51b815260206004820152601d60248201527f416464726573733a2063616c6c20746f206e6f6e2d636f6e747261637400000060448201526064016102cb565b600080866001600160a01b0316858760405161174b9190611c20565b60006040518083038185875af1925050503d8060008114611788576040519150601f19603f3d011682016040523d82523d6000602084013e61178d565b606091505b509150915061179d8282866117a8565b979650505050505050565b606083156117b7575081610438565b8251156117c75782518084602001fd5b8160405162461bcd60e51b81526004016102cb9190611e1e565b8280546117ed90611f76565b90600052602060002090601f01602090048101928261180f5760008555611855565b82601f106118285782800160ff19823516178555611855565b82800160010185558215611855579182015b8281111561185557823582559160200191906001019061183a565b50611861929150611865565b5090565b5b808211156118615760008155600101611866565b60008083601f84011261188c57600080fd5b50813567ffffffffffffffff8111156118a457600080fd5b6020830191508360208285010111156118bc57600080fd5b9250929050565b6000602082840312156118d557600080fd5b813561043881612038565b6000602082840312156118f257600080fd5b815161043881612038565b60006020828403121561190f57600080fd5b81516104388161204d565b60006020828403121561192c57600080fd5b5035919050565b60008060008060006080868803121561194b57600080fd5b853594506020860135935060408601359250606086013567ffffffffffffffff81111561197757600080fd5b6119838882890161187a565b969995985093965092949392505050565b6000602082840312156119a657600080fd5b81516001600160e01b03198116811461043857600080fd5b600080602083850312156119d157600080fd5b823567ffffffffffffffff8111156119e857600080fd5b6119f48582860161187a565b90969095509350505050565b600080600080600060808688031215611a1857600080fd5b853567ffffffffffffffff811115611a2f57600080fd5b611a3b8882890161187a565b9096509450506020860135611a4f81612038565b92506040860135611a5f81612038565b91506060860135611a6f8161204d565b809150509295509295909350565b60008060008060008060006080888a031215611a9857600080fd5b873567ffffffffffffffff80821115611ab057600080fd5b611abc8b838c0161187a565b909950975060208a0135915080821115611ad557600080fd5b611ae18b838c0161187a565b909750955060408a0135915080821115611afa57600080fd5b50611b078a828b0161187a565b989b979a50959894979596606090950135949350505050565b600060208284031215611b3257600080fd5b815167ffffffffffffffff80821115611b4a57600080fd5b818401915084601f830112611b5e57600080fd5b815181811115611b7057611b70612022565b604051601f8201601f19908116603f01168101908382118183101715611b9857611b98612022565b81604052828152876020848701011115611bb157600080fd5b61179d836020830160208801611f33565b600060208284031215611bd457600080fd5b5051919050565b81835281816020850137506000828201602090810191909152601f909101601f19169091010190565b60008151611c16818560208601611f33565b9290920192915050565b60008251611c32818460208701611f33565b9190910192915050565b8183823760009101908152919050565b60008351611c5e818460208801611f33565b622f746f60e81b9083019081528351611c7e816003840160208801611f33565b01600301949350505050565b7f4c6f636b476174657761793a20696e76616c6964207369676e61747572652e208152660383430b9b41d160cd1b602082015260008651611cd2816027850160208b01611f33565b720161030b6b7bab73a27b92a37b5b2b724b21d1606d1b6027918401918201528651611d0581603a840160208b01611f33565b680161039b430b9b41d160bd1b603a92909101918201528551611d2f816043840160208a01611f33565b6027818301019150506d0161036b9b39739b2b73232b91d160951b601c8201528451611d6281602a840160208901611f33565b611d89611d83602a848401016801610373430b9b41d160bd1b815260090190565b86611c04565b9998505050505050505050565b838152604060208201526000611db0604083018486611bdb565b95945050505050565b602081526000611102602083018486611bdb565b608081526000611de160808301898b611bdb565b8281036020840152611df481888a611bdb565b90508281036040840152611e09818688611bdb565b91505082606083015298975050505050505050565b6020815260008251806020840152611e3d816040850160208701611f33565b601f01601f19169190910160400192915050565b6020808252818101527f476174657761793a2063616c6c6572206973206e6f7420746865206f776e6572604082015260600190565b6020808252602b908201527f496e697469616c697a61626c653a20636f6e7472616374206973206e6f74206960408201526a6e697469616c697a696e6760a81b606082015260800190565b60008219821115611ee457611ee4611fe0565b500190565b600082611ef857611ef8611ff6565b500490565b6000816000190483118215151615611f1757611f17611fe0565b500290565b600082821015611f2e57611f2e611fe0565b500390565b60005b83811015611f4e578181015183820152602001611f36565b838111156115a65750506000910152565b600081611f6e57611f6e611fe0565b506000190190565b600181811c90821680611f8a57607f821691505b60208210811415611fab57634e487b7160e01b600052602260045260246000fd5b50919050565b6000600019821415611fc557611fc5611fe0565b5060010190565b600082611fdb57611fdb611ff6565b500690565b634e487b7160e01b600052601160045260246000fd5b634e487b7160e01b600052601260045260246000fd5b634e487b7160e01b600052603260045260246000fd5b634e487b7160e01b600052604160045260246000fd5b6001600160a01b038116811461048057600080fd5b801515811461048057600080fdfea2646970667358221220ca7bfd6bbb6fc91676bc54c78cacfe3fdfaf06a460a6ff5c2bf3d32429799d1464736f6c63430008070033",
  "devdoc": {
    "kind": "dev",
    "methods": {
      "lock(string,string,bytes,uint256)": {
        "params": {
          "amountOrTokenId": "The amount of the token being locked, in the        asset's smallest unit or tokenId if it is an NFT. (e.g. satoshis        for BTC)",
          "recipientAddress": "The address to which the locked assets will be        minted to. The address should be a plain-text address, without        decoding to bytes first.",
          "recipientChain": "The target chain to which the assets are being        moved to.",
          "recipientPayload": "An optional payload to be passed to the        recipient chain along with the address."
        }
      },
      "release(bytes32,uint256,bytes32,bytes)": {
        "params": {
          "amountOrTokenId": "The amount of the token being released, in its        smallest value or the token id of the NFT.",
          "nHash": "(nonce hash) The hash of the nonce, amount and pHash.",
          "pHash": "(payload hash) The hash of the payload associated with the        release.",
          "sig": "The signature of the hash of the following values:        (pHash, amount, recipient, nHash), signed by the mintAuthority."
        }
      },
      "updateAsset(string)": {
        "params": {
          "nextAsset": "The new asset."
        }
      },
      "updatePreviousGateway(address)": {
        "params": {
          "newPreviousGateway": "The new gateway contract's address."
        }
      },
      "updateSignatureVerifier(address)": {
        "params": {
          "newSignatureVerifier": "The new verifier contract address."
        }
      },
      "updateToken(address)": {
        "params": {
          "newToken": "The new ERC20 token contract's address."
        }
      }
    },
    "version": 1
  },
  "userdoc": {
    "kind": "user",
    "methods": {
      "lock(string,string,bytes,uint256)": {
        "notice": "Transfers tokens into custody by this contract so that they         can be minted on another chain."
      },
      "owner()": {
        "notice": "The Gateway is controlled by the owner of the SignatureVerifier. This allows for the owner of every Gateway to be updated with a single update to the SignatureVerifier contract."
      },
      "release(bytes32,uint256,bytes32,bytes)": {
        "notice": "release verifies a release approval signature from RenVM and         transfers the asset out of custody and to the recipient."
      },
      "updateAsset(string)": {
        "notice": "Allow the owner to update the asset."
      },
      "updatePreviousGateway(address)": {
        "notice": "Allow the owner to update the previous gateway used for backwards compatibility."
      },
      "updateSignatureVerifier(address)": {
        "notice": "Allow the owner to update the signature verifier contract."
      },
      "updateToken(address)": {
        "notice": "Allow the owner to update the ERC20 token contract."
      }
    },
    "notice": "LockGatewayV4 handles verifying lock and release requests. A mint authority approves assets being released by providing a digital signature. The balance of assets is assumed not to change without a transfer, so rebasing assets and assets with a demurrage fee are not supported.",
    "version": 1
  },
  "storageLayout": {
    "storage": [
      {
        "astId": 721,
        "contract": "src/Gateways/LockGateway.sol:LockGatewayV4",
        "label": "_initialized",
        "offset": 0,
        "slot": "0",
        "type": "t_uint8"
      },
      {
        "astId": 724,
        "contract": "src/Gateways/LockGateway.sol:LockGatewayV4",
        "label": "_initializing",
        "offset": 1,
        "slot": "0",
        "type": "t_bool"
      },
      {
        "astId": 3664,
        "contract": "src/Gateways/LockGateway.sol:LockGatewayV4",
        "label": "__gap",
        "offset": 0,
        "slot": "1",
        "type": "t_array(t_uint256)50_storage"
      },
      {
        "astId": 21549,
        "contract": "src/Gateways/LockGateway.sol:LockGatewayV4",
        "label": "_asset",
        "offset": 0,
        "slot": "51",
        "type": "t_string_storage"
      },
      {
        "astId": 21551,
        "contract": "src/Gateways/LockGateway.sol:LockGatewayV4",
        "label": "_selectorHash",
        "offset": 0,
        "slot": "52",
        "type": "t_bytes32"
      },
      {
        "astId": 21556,
        "contract": "src/Gateways/LockGateway.sol:LockGatewayV4",
        "label": "_status",
        "offset": 0,
        "slot": "53",
        "type": "t_mapping(t_bytes32,t_bool)"
      },
      {
        "astId": 21559,
        "contract": "src/Gateways/LockGateway.sol:LockGatewayV4",
        "label": "_token",
        "offset": 0,
        "slot": "54",
        "type": "t_address"
      },
      {
        "astId": 21562,
        "contract": "src/Gateways/LockGateway.sol:LockGatewayV4",
        "label": "_signatureVerifier",
        "offset": 0,
        "slot": "55",
        "type": "t_contract(IRenVMSignatureVerifier)21338"
      },
      {
        "astId": 21564,
        "contract": "src/Gateways/LockGateway.sol:LockGatewayV4",
        "label": "_previousGateway",
        "offset": 0,
        "slot": "56",
        "type": "t_address"
      },
      {
        "astId": 21566,
        "contract": "src/Gateways/LockGateway.sol:LockGatewayV4",
        "label": "_eventNonce",
        "offset": 0,
        "slot": "57",
        "type": "t_uint256"
      },
      {
        "astId": 21568,
        "contract": "src/Gateways/LockGateway.sol:LockGatewayV4",
        "label": "_isNFT",
        "offset": 0,
        "slot": "58",
        "type": "t_bool"
      },
      {
        "astId": 21572,
        "contract": "src/Gateways/LockGateway.sol:LockGatewayV4",
        "label": "__gap",
        "offset": 0,
        "slot": "59",
        "type": "t_array(t_uint256)42_storage"
      }
    ],
    "types": {
      "t_address": {
        "encoding": "inplace",
        "label": "address",
        "numberOfBytes": "20"
      },
      "t_array(t_uint256)42_storage": {
        "base": "t_uint256",
        "encoding": "inplace",
        "label": "uint256[42]",
        "numberOfBytes": "1344"
      },
      "t_array(t_uint256)50_storage": {
        "base": "t_uint256",
        "encoding": "inplace",
        "label": "uint256[50]",
        "numberOfBytes": "1600"
      },
      "t_bool": {
        "encoding": "inplace",
        "label": "bool",
        "numberOfBytes": "1"
      },
      "t_bytes32": {
        "encoding": "inplace",
        "label": "bytes32",
        "numberOfBytes": "32"
      },
      "t_contract(IRenVMSignatureVerifier)21338": {
        "encoding": "inplace",
        "label": "contract IRenVMSignatureVerifier",
        "numberOfBytes": "20"
      },
      "t_mapping(t_bytes32,t_bool)": {
        "encoding": "mapping",
        "key": "t_bytes32",
        "label": "mapping(bytes32 => bool)",
        "numberOfBytes": "32",
        "value": "t_bool"
      },
      "t_string_storage": {
        "encoding": "bytes",
        "label": "string",
        "numberOfBytes": "32"
      },
      "t_uint256": {
        "encoding": "inplace",
        "label": "uint256",
        "numberOfBytes": "32"
      },
      "t_uint8": {
        "encoding": "inplace",
        "label": "uint8",
        "numberOfBytes": "1"
      }
    }
  }
}