{
  "address": "0xC420B6f231bF6C49101f91A16481600897390d99",
  "abi": [
    {
      "inputs": [
        {
          "internalType": "address",
          "name": "implementation",
          "type": "address"
        },
        {
          "internalType": "address",
          "name": "adminAddress",
          "type": "address"
        }
      ],
      "stateMutability": "nonpayable",
      "type": "constructor"
    },
    {
      "anonymous": false,
      "inputs": [
        {
          "indexed": true,
          "internalType": "address",
          "name": "oldProxyDeployer",
          "type": "address"
        },
        {
          "indexed": true,
          "internalType": "address",
          "name": "newProxyDeployer",
          "type": "address"
        }
      ],
      "name": "LogProxyDeployerUpdated",
      "type": "event"
    },
    {
      "anonymous": false,
      "inputs": [
        {
          "indexed": true,
          "internalType": "address",
          "name": "previousOwner",
          "type": "address"
        },
        {
          "indexed": true,
          "internalType": "address",
          "name": "newOwner",
          "type": "address"
        }
      ],
      "name": "OwnershipTransferred",
      "type": "event"
    },
    {
      "anonymous": false,
      "inputs": [
        {
          "indexed": true,
          "internalType": "address",
          "name": "implementation",
          "type": "address"
        }
      ],
      "name": "Upgraded",
      "type": "event"
    },
    {
      "inputs": [],
      "name": "NAME",
      "outputs": [
        {
          "internalType": "string",
          "name": "",
          "type": "string"
        }
      ],
      "stateMutability": "view",
      "type": "function"
    },
    {
      "inputs": [
        {
          "internalType": "bytes32",
          "name": "create2Salt",
          "type": "bytes32"
        },
        {
          "internalType": "bytes",
          "name": "encodedParameters",
          "type": "bytes"
        }
      ],
      "name": "deployProxy",
      "outputs": [
        {
          "internalType": "address",
          "name": "",
          "type": "address"
        }
      ],
      "stateMutability": "nonpayable",
      "type": "function"
    },
    {
      "inputs": [],
      "name": "getProxyDeployer",
      "outputs": [
        {
          "internalType": "address",
          "name": "",
          "type": "address"
        }
      ],
      "stateMutability": "view",
      "type": "function"
    },
    {
      "inputs": [],
      "name": "implementation",
      "outputs": [
        {
          "internalType": "address",
          "name": "",
          "type": "address"
        }
      ],
      "stateMutability": "view",
      "type": "function"
    },
    {
      "inputs": [],
      "name": "owner",
      "outputs": [
        {
          "internalType": "address",
          "name": "",
          "type": "address"
        }
      ],
      "stateMutability": "view",
      "type": "function"
    },
    {
      "inputs": [],
      "name": "renounceOwnership",
      "outputs": [],
      "stateMutability": "nonpayable",
      "type": "function"
    },
    {
      "inputs": [
        {
          "internalType": "address",
          "name": "newOwner",
          "type": "address"
        }
      ],
      "name": "transferOwnership",
      "outputs": [],
      "stateMutability": "nonpayable",
      "type": "function"
    },
    {
      "inputs": [
        {
          "internalType": "address",
          "name": "newProxyDeployer",
          "type": "address"
        }
      ],
      "name": "updateProxyDeployer",
      "outputs": [],
      "stateMutability": "nonpayable",
      "type": "function"
    },
    {
      "inputs": [
        {
          "internalType": "address",
          "name": "newImplementation",
          "type": "address"
        }
      ],
      "name": "upgradeTo",
      "outputs": [],
      "stateMutability": "nonpayable",
      "type": "function"
    }
  ],
  "transactionHash": "0xef55e2ea8553710ecd9c74b2eac1666bc4c49efd8af308b7528286226c20d57b",
  "args": [
    "0x2222229fb3318a6375fa78fd299a9a42ac6a8fbf",
    "0x8164f300DA804954E799F1C76367A33e3B7f2d78"
  ],
  "numDeployments": 1,
  "solcInputHash": "1fc24ec92d75e781452354b8332143e5",
  "bytecode": "0x60806040523480156200001157600080fd5b50604051620015013803806200150183398101604081905262000034916200026c565b818181620000423362000063565b6200004d81620000b3565b50620000598162000163565b50505050620002a4565b600080546001600160a01b038381166001600160a01b0319831681178455604051919092169283917f8be0079c531659141344cd1fd0a4f28419497f9722a3daafe3b4186f6b6457e09190a35050565b620000c981620001e260201b620004811760201c565b620001415760405162461bcd60e51b815260206004820152603360248201527f5570677261646561626c65426561636f6e3a20696d706c656d656e746174696f60448201527f6e206973206e6f74206120636f6e74726163740000000000000000000000000060648201526084015b60405180910390fd5b600180546001600160a01b0319166001600160a01b0392909216919091179055565b6200016d620001f1565b6001600160a01b038116620001d45760405162461bcd60e51b815260206004820152602660248201527f4f776e61626c653a206e6577206f776e657220697320746865207a65726f206160448201526564647265737360d01b606482015260840162000138565b620001df8162000063565b50565b6001600160a01b03163b151590565b6000546001600160a01b031633146200024d5760405162461bcd60e51b815260206004820181905260248201527f4f776e61626c653a2063616c6c6572206973206e6f7420746865206f776e6572604482015260640162000138565b565b80516001600160a01b03811681146200026757600080fd5b919050565b600080604083850312156200028057600080fd5b6200028b836200024f565b91506200029b602084016200024f565b90509250929050565b61124d80620002b46000396000f3fe60806040523480156200001157600080fd5b50600436106200009f5760003560e01c80638da5cb5b116200006e5780638da5cb5b14620001085780639c418ce3146200011a578063a3f4df7e146200012c578063ec54d72f146200016e578063f2fde38b146200018557600080fd5b806315d9a13d14620000a45780633659cfe614620000bd5780635c60da1b14620000d4578063715018a614620000fe575b600080fd5b620000bb620000b5366004620007be565b6200019c565b005b620000bb620000ce366004620007be565b62000260565b6001546001600160a01b03165b6040516001600160a01b0390911681526020015b60405180910390f35b620000bb620002ac565b6000546001600160a01b0316620000e1565b6002546001600160a01b0316620000e1565b6200015f604051806040016040528060138152602001722932b722a9219918283937bc3ca132b0b1b7b760691b81525081565b604051620000f5919062000888565b620000e16200017f366004620007e9565b620002c4565b620000bb62000196366004620007be565b62000402565b620001a662000490565b6001600160a01b0381166200020e5760405162461bcd60e51b815260206004820152602360248201527f50726f7879426561636f6e3a20696e76616c69642070726f7879206465706c6f6044820152623cb2b960e91b60648201526084015b60405180910390fd5b600280546001600160a01b038381166001600160a01b0319831681179093556040519116919082907f0e24fc826adfc940230947bf5a5182a6a5be927ae7c86cbf7ec22451bbe0412290600090a35050565b6200026a62000490565b6200027581620004ec565b6040516001600160a01b038216907fbc7cd75a20ee27fd9adebab32041f755214dbc6bffa90cc0225b39da2e5c2d3b90600090a250565b620002b662000490565b620002c2600062000583565b565b600080620002da6002546001600160a01b031690565b90506001600160a01b03811615801590620002fd5750336001600160a01b038216145b620003615760405162461bcd60e51b815260206004820152602d60248201527f50726f7879426561636f6e3a2063616c6c6572206973206e6f7420746865207060448201526c3937bc3c903232b83637bcb2b960991b606482015260840162000205565b600085306040516200037390620007b0565b6001600160a01b0390911681526040602082018190526000908201526060018190604051809103906000f5905080158015620003b3573d6000803e3d6000fd5b509050620003f88186868080601f016020809104026020016040519081016040528093929190818152602001838380828437600092019190915250620005d392505050565b5095945050505050565b6200040c62000490565b6001600160a01b038116620004735760405162461bcd60e51b815260206004820152602660248201527f4f776e61626c653a206e6577206f776e657220697320746865207a65726f206160448201526564647265737360d01b606482015260840162000205565b6200047e8162000583565b50565b6001600160a01b03163b151590565b6000546001600160a01b03163314620002c25760405162461bcd60e51b815260206004820181905260248201527f4f776e61626c653a2063616c6c6572206973206e6f7420746865206f776e6572604482015260640162000205565b6001600160a01b0381163b620005615760405162461bcd60e51b815260206004820152603360248201527f5570677261646561626c65426561636f6e3a20696d706c656d656e746174696f6044820152721b881a5cc81b9bdd08184818dbdb9d1c9858dd606a1b606482015260840162000205565b600180546001600160a01b0319166001600160a01b0392909216919091179055565b600080546001600160a01b038381166001600160a01b0319831681178455604051919092169283917f8be0079c531659141344cd1fd0a4f28419497f9722a3daafe3b4186f6b6457e09190a35050565b60606200061783836040518060400160405280601e81526020017f416464726573733a206c6f772d6c6576656c2063616c6c206661696c656400008152506200061e565b9392505050565b60606200062f848460008562000637565b949350505050565b6060824710156200069a5760405162461bcd60e51b815260206004820152602660248201527f416464726573733a20696e73756666696369656e742062616c616e636520666f6044820152651c8818d85b1b60d21b606482015260840162000205565b6001600160a01b0385163b620006f35760405162461bcd60e51b815260206004820152601d60248201527f416464726573733a2063616c6c20746f206e6f6e2d636f6e7472616374000000604482015260640162000205565b600080866001600160a01b031685876040516200071191906200086a565b60006040518083038185875af1925050503d806000811462000750576040519150601f19603f3d011682016040523d82523d6000602084013e62000755565b606091505b50915091506200076782828662000772565b979650505050505050565b606083156200078357508162000617565b825115620007945782518084602001fd5b8160405162461bcd60e51b815260040162000205919062000888565b61092780620008f183390190565b600060208284031215620007d157600080fd5b81356001600160a01b03811681146200061757600080fd5b600080600060408486031215620007ff57600080fd5b83359250602084013567ffffffffffffffff808211156200081f57600080fd5b818601915086601f8301126200083457600080fd5b8135818111156200084457600080fd5b8760208285010111156200085757600080fd5b6020830194508093505050509250925092565b600082516200087e818460208701620008bd565b9190910192915050565b6020815260008251806020840152620008a9816040850160208701620008bd565b601f01601f19169190910160400192915050565b60005b83811015620008da578181015183820152602001620008c0565b83811115620008ea576000848401525b5050505056fe60806040526040516109273803806109278339810160408190526100229161044d565b61002e82826000610035565b505061059e565b61003e8361010f565b6040516001600160a01b038416907f1cf3b03a6cf19fa2baba4df148e9dcabedea7f8a5c07840e207e5c089be95d3e90600090a260008251118061007f5750805b1561010a57610108836001600160a01b0316635c60da1b6040518163ffffffff1660e01b815260040160206040518083038186803b1580156100c057600080fd5b505afa1580156100d4573d6000803e3d6000fd5b505050506040513d601f19601f820116820180604052508101906100f89190610432565b836102c160201b6100291760201c565b505b505050565b610122816102ed60201b6100551760201c565b6101815760405162461bcd60e51b815260206004820152602560248201527f455243313936373a206e657720626561636f6e206973206e6f74206120636f6e6044820152641d1c9858dd60da1b60648201526084015b60405180910390fd5b610204816001600160a01b0316635c60da1b6040518163ffffffff1660e01b815260040160206040518083038186803b1580156101bd57600080fd5b505afa1580156101d1573d6000803e3d6000fd5b505050506040513d601f19601f820116820180604052508101906101f59190610432565b6102ed60201b6100551760201c565b6102695760405162461bcd60e51b815260206004820152603060248201527f455243313936373a20626561636f6e20696d706c656d656e746174696f6e206960448201526f1cc81b9bdd08184818dbdb9d1c9858dd60821b6064820152608401610178565b806102a07fa3f0ad74e5423aebfd80d3ef4346578335a9a72aeaee59ff6cb3582b35133d5060001b6102fc60201b6100641760201c565b80546001600160a01b0319166001600160a01b039290921691909117905550565b60606102e68383604051806060016040528060278152602001610900602791396102ff565b9392505050565b6001600160a01b03163b151590565b90565b60606001600160a01b0384163b6103675760405162461bcd60e51b815260206004820152602660248201527f416464726573733a2064656c65676174652063616c6c20746f206e6f6e2d636f6044820152651b9d1c9858dd60d21b6064820152608401610178565b600080856001600160a01b031685604051610382919061050d565b600060405180830381855af49150503d80600081146103bd576040519150601f19603f3d011682016040523d82523d6000602084013e6103c2565b606091505b5090925090506103d38282866103dd565b9695505050505050565b606083156103ec5750816102e6565b8251156103fc5782518084602001fd5b8160405162461bcd60e51b81526004016101789190610529565b80516001600160a01b038116811461042d57600080fd5b919050565b60006020828403121561044457600080fd5b6102e682610416565b6000806040838503121561046057600080fd5b61046983610416565b60208401519092506001600160401b038082111561048657600080fd5b818501915085601f83011261049a57600080fd5b8151818111156104ac576104ac610588565b604051601f8201601f19908116603f011681019083821181831017156104d4576104d4610588565b816040528281528860208487010111156104ed57600080fd5b6104fe83602083016020880161055c565b80955050505050509250929050565b6000825161051f81846020870161055c565b9190910192915050565b602081526000825180602084015261054881604085016020870161055c565b601f01601f19169190910160400192915050565b60005b8381101561057757818101518382015260200161055f565b838111156101085750506000910152565b634e487b7160e01b600052604160045260246000fd5b610353806105ad6000396000f3fe60806040523661001357610011610017565b005b6100115b610027610022610067565b61010f565b565b606061004e83836040518060600160405280602781526020016102f760279139610133565b9392505050565b6001600160a01b03163b151590565b90565b600061009a7fa3f0ad74e5423aebfd80d3ef4346578335a9a72aeaee59ff6cb3582b35133d50546001600160a01b031690565b6001600160a01b0316635c60da1b6040518163ffffffff1660e01b815260040160206040518083038186803b1580156100d257600080fd5b505afa1580156100e6573d6000803e3d6000fd5b505050506040513d601f19601f8201168201806040525081019061010a919061024e565b905090565b3660008037600080366000845af43d6000803e80801561012e573d6000f35b3d6000fd5b60606001600160a01b0384163b6101a05760405162461bcd60e51b815260206004820152602660248201527f416464726573733a2064656c65676174652063616c6c20746f206e6f6e2d636f6044820152651b9d1c9858dd60d21b60648201526084015b60405180910390fd5b600080856001600160a01b0316856040516101bb9190610277565b600060405180830381855af49150503d80600081146101f6576040519150601f19603f3d011682016040523d82523d6000602084013e6101fb565b606091505b509150915061020b828286610215565b9695505050505050565b6060831561022457508161004e565b8251156102345782518084602001fd5b8160405162461bcd60e51b81526004016101979190610293565b60006020828403121561026057600080fd5b81516001600160a01b038116811461004e57600080fd5b600082516102898184602087016102c6565b9190910192915050565b60208152600082518060208401526102b28160408501602087016102c6565b601f01601f19169190910160400192915050565b60005b838110156102e15781810151838201526020016102c9565b838111156102f0576000848401525b5050505056fe416464726573733a206c6f772d6c6576656c2064656c65676174652063616c6c206661696c6564a26469706673582212201f10ad4ba8a0330845a474d67a778aefe833e659994c0473c9ab1991ea8b194e64736f6c63430008070033416464726573733a206c6f772d6c6576656c2064656c65676174652063616c6c206661696c6564a2646970667358221220a191ae70d1a63bb6bd374356c5069788a87a21717d5ccc7dcc9377d28f2400eb64736f6c63430008070033",
  "devdoc": {
    "kind": "dev",
    "methods": {
      "implementation()": {
        "details": "Returns the current implementation address."
      },
      "owner()": {
        "details": "Returns the address of the current owner."
      },
      "renounceOwnership()": {
        "details": "Leaves the contract without owner. It will not be possible to call `onlyOwner` functions anymore. Can only be called by the current owner. NOTE: Renouncing ownership will leave the contract without an owner, thereby removing any functionality that is only available to the owner."
      },
      "transferOwnership(address)": {
        "details": "Transfers ownership of the contract to a new account (`newOwner`). Can only be called by the current owner."
      },
      "upgradeTo(address)": {
        "details": "Upgrades the beacon to a new implementation. Emits an {Upgraded} event. Requirements: - msg.sender must be the owner of the contract. - `newImplementation` must be a contract."
      }
    },
    "version": 1
  },
  "userdoc": {
    "kind": "user",
    "methods": {
      "deployProxy(bytes32,bytes)": {
        "notice": "Deploy a proxy that fetches its implementation from this ProxyBeacon."
      }
    },
    "version": 1
  },
  "storageLayout": {
    "storage": [
      {
        "astId": 5601,
        "contract": "src/GatewayRegistry/ProxyBeacon.sol:RenERC20ProxyBeacon",
        "label": "_owner",
        "offset": 0,
        "slot": "0",
        "type": "t_address"
      },
      {
        "astId": 7130,
        "contract": "src/GatewayRegistry/ProxyBeacon.sol:RenERC20ProxyBeacon",
        "label": "_implementation",
        "offset": 0,
        "slot": "1",
        "type": "t_address"
      },
      {
        "astId": 19569,
        "contract": "src/GatewayRegistry/ProxyBeacon.sol:RenERC20ProxyBeacon",
        "label": "_proxyDeployer",
        "offset": 0,
        "slot": "2",
        "type": "t_address"
      }
    ],
    "types": {
      "t_address": {
        "encoding": "inplace",
        "label": "address",
        "numberOfBytes": "20"
      }
    }
  }
}