{
  "address": "0x5B6bE4BAFb37E93736dAc42D9409B9986cB2AdA5",
  "abi": [
    {
      "inputs": [
        {
          "internalType": "uint256",
          "name": "minDelay",
          "type": "uint256"
        },
        {
          "internalType": "address[]",
          "name": "proposers",
          "type": "address[]"
        },
        {
          "internalType": "address[]",
          "name": "executors",
          "type": "address[]"
        }
      ],
      "stateMutability": "nonpayable",
      "type": "constructor"
    },
    {
      "anonymous": false,
      "inputs": [
        {
          "indexed": true,
          "internalType": "bytes32",
          "name": "id",
          "type": "bytes32"
        },
        {
          "indexed": true,
          "internalType": "uint256",
          "name": "index",
          "type": "uint256"
        },
        {
          "indexed": false,
          "internalType": "address",
          "name": "target",
          "type": "address"
        },
        {
          "indexed": false,
          "internalType": "uint256",
          "name": "value",
          "type": "uint256"
        },
        {
          "indexed": false,
          "internalType": "bytes",
          "name": "data",
          "type": "bytes"
        }
      ],
      "name": "CallExecuted",
      "type": "event"
    },
    {
      "anonymous": false,
      "inputs": [
        {
          "indexed": true,
          "internalType": "bytes32",
          "name": "id",
          "type": "bytes32"
        },
        {
          "indexed": true,
          "internalType": "uint256",
          "name": "index",
          "type": "uint256"
        },
        {
          "indexed": false,
          "internalType": "address",
          "name": "target",
          "type": "address"
        },
        {
          "indexed": false,
          "internalType": "uint256",
          "name": "value",
          "type": "uint256"
        },
        {
          "indexed": false,
          "internalType": "bytes",
          "name": "data",
          "type": "bytes"
        },
        {
          "indexed": false,
          "internalType": "bytes32",
          "name": "predecessor",
          "type": "bytes32"
        },
        {
          "indexed": false,
          "internalType": "uint256",
          "name": "delay",
          "type": "uint256"
        }
      ],
      "name": "CallScheduled",
      "type": "event"
    },
    {
      "anonymous": false,
      "inputs": [
        {
          "indexed": true,
          "internalType": "bytes32",
          "name": "id",
          "type": "bytes32"
        }
      ],
      "name": "Cancelled",
      "type": "event"
    },
    {
      "anonymous": false,
      "inputs": [
        {
          "indexed": false,
          "internalType": "uint256",
          "name": "oldDuration",
          "type": "uint256"
        },
        {
          "indexed": false,
          "internalType": "uint256",
          "name": "newDuration",
          "type": "uint256"
        }
      ],
      "name": "MinDelayChange",
      "type": "event"
    },
    {
      "anonymous": false,
      "inputs": [
        {
          "indexed": true,
          "internalType": "bytes32",
          "name": "role",
          "type": "bytes32"
        },
        {
          "indexed": true,
          "internalType": "bytes32",
          "name": "previousAdminRole",
          "type": "bytes32"
        },
        {
          "indexed": true,
          "internalType": "bytes32",
          "name": "newAdminRole",
          "type": "bytes32"
        }
      ],
      "name": "RoleAdminChanged",
      "type": "event"
    },
    {
      "anonymous": false,
      "inputs": [
        {
          "indexed": true,
          "internalType": "bytes32",
          "name": "role",
          "type": "bytes32"
        },
        {
          "indexed": true,
          "internalType": "address",
          "name": "account",
          "type": "address"
        },
        {
          "indexed": true,
          "internalType": "address",
          "name": "sender",
          "type": "address"
        }
      ],
      "name": "RoleGranted",
      "type": "event"
    },
    {
      "anonymous": false,
      "inputs": [
        {
          "indexed": true,
          "internalType": "bytes32",
          "name": "role",
          "type": "bytes32"
        },
        {
          "indexed": true,
          "internalType": "address",
          "name": "account",
          "type": "address"
        },
        {
          "indexed": true,
          "internalType": "address",
          "name": "sender",
          "type": "address"
        }
      ],
      "name": "RoleRevoked",
      "type": "event"
    },
    {
      "inputs": [],
      "name": "CANCELLER_ROLE",
      "outputs": [
        {
          "internalType": "bytes32",
          "name": "",
          "type": "bytes32"
        }
      ],
      "stateMutability": "view",
      "type": "function"
    },
    {
      "inputs": [],
      "name": "DEFAULT_ADMIN_ROLE",
      "outputs": [
        {
          "internalType": "bytes32",
          "name": "",
          "type": "bytes32"
        }
      ],
      "stateMutability": "view",
      "type": "function"
    },
    {
      "inputs": [],
      "name": "EXECUTOR_ROLE",
      "outputs": [
        {
          "internalType": "bytes32",
          "name": "",
          "type": "bytes32"
        }
      ],
      "stateMutability": "view",
      "type": "function"
    },
    {
      "inputs": [],
      "name": "NAME",
      "outputs": [
        {
          "internalType": "string",
          "name": "",
          "type": "string"
        }
      ],
      "stateMutability": "view",
      "type": "function"
    },
    {
      "inputs": [],
      "name": "PROPOSER_ROLE",
      "outputs": [
        {
          "internalType": "bytes32",
          "name": "",
          "type": "bytes32"
        }
      ],
      "stateMutability": "view",
      "type": "function"
    },
    {
      "inputs": [],
      "name": "TIMELOCK_ADMIN_ROLE",
      "outputs": [
        {
          "internalType": "bytes32",
          "name": "",
          "type": "bytes32"
        }
      ],
      "stateMutability": "view",
      "type": "function"
    },
    {
      "inputs": [
        {
          "internalType": "bytes32",
          "name": "id",
          "type": "bytes32"
        }
      ],
      "name": "cancel",
      "outputs": [],
      "stateMutability": "nonpayable",
      "type": "function"
    },
    {
      "inputs": [
        {
          "internalType": "address",
          "name": "target",
          "type": "address"
        },
        {
          "internalType": "uint256",
          "name": "value",
          "type": "uint256"
        },
        {
          "internalType": "bytes",
          "name": "payload",
          "type": "bytes"
        },
        {
          "internalType": "bytes32",
          "name": "predecessor",
          "type": "bytes32"
        },
        {
          "internalType": "bytes32",
          "name": "salt",
          "type": "bytes32"
        }
      ],
      "name": "execute",
      "outputs": [],
      "stateMutability": "payable",
      "type": "function"
    },
    {
      "inputs": [
        {
          "internalType": "address[]",
          "name": "targets",
          "type": "address[]"
        },
        {
          "internalType": "uint256[]",
          "name": "values",
          "type": "uint256[]"
        },
        {
          "internalType": "bytes[]",
          "name": "payloads",
          "type": "bytes[]"
        },
        {
          "internalType": "bytes32",
          "name": "predecessor",
          "type": "bytes32"
        },
        {
          "internalType": "bytes32",
          "name": "salt",
          "type": "bytes32"
        }
      ],
      "name": "executeBatch",
      "outputs": [],
      "stateMutability": "payable",
      "type": "function"
    },
    {
      "inputs": [],
      "name": "getMinDelay",
      "outputs": [
        {
          "internalType": "uint256",
          "name": "duration",
          "type": "uint256"
        }
      ],
      "stateMutability": "view",
      "type": "function"
    },
    {
      "inputs": [
        {
          "internalType": "bytes32",
          "name": "role",
          "type": "bytes32"
        }
      ],
      "name": "getRoleAdmin",
      "outputs": [
        {
          "internalType": "bytes32",
          "name": "",
          "type": "bytes32"
        }
      ],
      "stateMutability": "view",
      "type": "function"
    },
    {
      "inputs": [
        {
          "internalType": "bytes32",
          "name": "id",
          "type": "bytes32"
        }
      ],
      "name": "getTimestamp",
      "outputs": [
        {
          "internalType": "uint256",
          "name": "timestamp",
          "type": "uint256"
        }
      ],
      "stateMutability": "view",
      "type": "function"
    },
    {
      "inputs": [
        {
          "internalType": "bytes32",
          "name": "role",
          "type": "bytes32"
        },
        {
          "internalType": "address",
          "name": "account",
          "type": "address"
        }
      ],
      "name": "grantRole",
      "outputs": [],
      "stateMutability": "nonpayable",
      "type": "function"
    },
    {
      "inputs": [
        {
          "internalType": "bytes32",
          "name": "role",
          "type": "bytes32"
        },
        {
          "internalType": "address",
          "name": "account",
          "type": "address"
        }
      ],
      "name": "hasRole",
      "outputs": [
        {
          "internalType": "bool",
          "name": "",
          "type": "bool"
        }
      ],
      "stateMutability": "view",
      "type": "function"
    },
    {
      "inputs": [
        {
          "internalType": "address",
          "name": "target",
          "type": "address"
        },
        {
          "internalType": "uint256",
          "name": "value",
          "type": "uint256"
        },
        {
          "internalType": "bytes",
          "name": "data",
          "type": "bytes"
        },
        {
          "internalType": "bytes32",
          "name": "predecessor",
          "type": "bytes32"
        },
        {
          "internalType": "bytes32",
          "name": "salt",
          "type": "bytes32"
        }
      ],
      "name": "hashOperation",
      "outputs": [
        {
          "internalType": "bytes32",
          "name": "hash",
          "type": "bytes32"
        }
      ],
      "stateMutability": "pure",
      "type": "function"
    },
    {
      "inputs": [
        {
          "internalType": "address[]",
          "name": "targets",
          "type": "address[]"
        },
        {
          "internalType": "uint256[]",
          "name": "values",
          "type": "uint256[]"
        },
        {
          "internalType": "bytes[]",
          "name": "payloads",
          "type": "bytes[]"
        },
        {
          "internalType": "bytes32",
          "name": "predecessor",
          "type": "bytes32"
        },
        {
          "internalType": "bytes32",
          "name": "salt",
          "type": "bytes32"
        }
      ],
      "name": "hashOperationBatch",
      "outputs": [
        {
          "internalType": "bytes32",
          "name": "hash",
          "type": "bytes32"
        }
      ],
      "stateMutability": "pure",
      "type": "function"
    },
    {
      "inputs": [
        {
          "internalType": "bytes32",
          "name": "id",
          "type": "bytes32"
        }
      ],
      "name": "isOperation",
      "outputs": [
        {
          "internalType": "bool",
          "name": "registered",
          "type": "bool"
        }
      ],
      "stateMutability": "view",
      "type": "function"
    },
    {
      "inputs": [
        {
          "internalType": "bytes32",
          "name": "id",
          "type": "bytes32"
        }
      ],
      "name": "isOperationDone",
      "outputs": [
        {
          "internalType": "bool",
          "name": "done",
          "type": "bool"
        }
      ],
      "stateMutability": "view",
      "type": "function"
    },
    {
      "inputs": [
        {
          "internalType": "bytes32",
          "name": "id",
          "type": "bytes32"
        }
      ],
      "name": "isOperationPending",
      "outputs": [
        {
          "internalType": "bool",
          "name": "pending",
          "type": "bool"
        }
      ],
      "stateMutability": "view",
      "type": "function"
    },
    {
      "inputs": [
        {
          "internalType": "bytes32",
          "name": "id",
          "type": "bytes32"
        }
      ],
      "name": "isOperationReady",
      "outputs": [
        {
          "internalType": "bool",
          "name": "ready",
          "type": "bool"
        }
      ],
      "stateMutability": "view",
      "type": "function"
    },
    {
      "inputs": [
        {
          "internalType": "address",
          "name": "",
          "type": "address"
        },
        {
          "internalType": "address",
          "name": "",
          "type": "address"
        },
        {
          "internalType": "uint256[]",
          "name": "",
          "type": "uint256[]"
        },
        {
          "internalType": "uint256[]",
          "name": "",
          "type": "uint256[]"
        },
        {
          "internalType": "bytes",
          "name": "",
          "type": "bytes"
        }
      ],
      "name": "onERC1155BatchReceived",
      "outputs": [
        {
          "internalType": "bytes4",
          "name": "",
          "type": "bytes4"
        }
      ],
      "stateMutability": "nonpayable",
      "type": "function"
    },
    {
      "inputs": [
        {
          "internalType": "address",
          "name": "",
          "type": "address"
        },
        {
          "internalType": "address",
          "name": "",
          "type": "address"
        },
        {
          "internalType": "uint256",
          "name": "",
          "type": "uint256"
        },
        {
          "internalType": "uint256",
          "name": "",
          "type": "uint256"
        },
        {
          "internalType": "bytes",
          "name": "",
          "type": "bytes"
        }
      ],
      "name": "onERC1155Received",
      "outputs": [
        {
          "internalType": "bytes4",
          "name": "",
          "type": "bytes4"
        }
      ],
      "stateMutability": "nonpayable",
      "type": "function"
    },
    {
      "inputs": [
        {
          "internalType": "address",
          "name": "",
          "type": "address"
        },
        {
          "internalType": "address",
          "name": "",
          "type": "address"
        },
        {
          "internalType": "uint256",
          "name": "",
          "type": "uint256"
        },
        {
          "internalType": "bytes",
          "name": "",
          "type": "bytes"
        }
      ],
      "name": "onERC721Received",
      "outputs": [
        {
          "internalType": "bytes4",
          "name": "",
          "type": "bytes4"
        }
      ],
      "stateMutability": "nonpayable",
      "type": "function"
    },
    {
      "inputs": [
        {
          "internalType": "bytes32",
          "name": "role",
          "type": "bytes32"
        },
        {
          "internalType": "address",
          "name": "account",
          "type": "address"
        }
      ],
      "name": "renounceRole",
      "outputs": [],
      "stateMutability": "nonpayable",
      "type": "function"
    },
    {
      "inputs": [
        {
          "internalType": "bytes32",
          "name": "role",
          "type": "bytes32"
        },
        {
          "internalType": "address",
          "name": "account",
          "type": "address"
        }
      ],
      "name": "revokeRole",
      "outputs": [],
      "stateMutability": "nonpayable",
      "type": "function"
    },
    {
      "inputs": [
        {
          "internalType": "address",
          "name": "target",
          "type": "address"
        },
        {
          "internalType": "uint256",
          "name": "value",
          "type": "uint256"
        },
        {
          "internalType": "bytes",
          "name": "data",
          "type": "bytes"
        },
        {
          "internalType": "bytes32",
          "name": "predecessor",
          "type": "bytes32"
        },
        {
          "internalType": "bytes32",
          "name": "salt",
          "type": "bytes32"
        },
        {
          "internalType": "uint256",
          "name": "delay",
          "type": "uint256"
        }
      ],
      "name": "schedule",
      "outputs": [],
      "stateMutability": "nonpayable",
      "type": "function"
    },
    {
      "inputs": [
        {
          "internalType": "address[]",
          "name": "targets",
          "type": "address[]"
        },
        {
          "internalType": "uint256[]",
          "name": "values",
          "type": "uint256[]"
        },
        {
          "internalType": "bytes[]",
          "name": "payloads",
          "type": "bytes[]"
        },
        {
          "internalType": "bytes32",
          "name": "predecessor",
          "type": "bytes32"
        },
        {
          "internalType": "bytes32",
          "name": "salt",
          "type": "bytes32"
        },
        {
          "internalType": "uint256",
          "name": "delay",
          "type": "uint256"
        }
      ],
      "name": "scheduleBatch",
      "outputs": [],
      "stateMutability": "nonpayable",
      "type": "function"
    },
    {
      "inputs": [
        {
          "internalType": "bytes4",
          "name": "interfaceId",
          "type": "bytes4"
        }
      ],
      "name": "supportsInterface",
      "outputs": [
        {
          "internalType": "bool",
          "name": "",
          "type": "bool"
        }
      ],
      "stateMutability": "view",
      "type": "function"
    },
    {
      "inputs": [
        {
          "internalType": "uint256",
          "name": "newDelay",
          "type": "uint256"
        }
      ],
      "name": "updateDelay",
      "outputs": [],
      "stateMutability": "nonpayable",
      "type": "function"
    },
    {
      "stateMutability": "payable",
      "type": "receive"
    }
  ],
  "transactionHash": "0x732ee003c4f0585c44ab963bdd2b2896a515c2dc1488ffeb733b8fbbc6305bd0",
  "args": [
    0,
    [
      "0x8164f300DA804954E799F1C76367A33e3B7f2d78"
    ],
    [
      "0x8164f300DA804954E799F1C76367A33e3B7f2d78"
    ]
  ],
  "numDeployments": 1,
  "solcInputHash": "1fc24ec92d75e781452354b8332143e5",
  "bytecode": "0x60806040523480156200001157600080fd5b506040516200235c3803806200235c8339810160408190526200003491620003ed565b82828262000052600080516020620022dc8339815191528062000222565b6200007c600080516020620022fc833981519152600080516020620022dc83398151915262000222565b620000a66000805160206200231c833981519152600080516020620022dc83398151915262000222565b620000d06000805160206200233c833981519152600080516020620022dc83398151915262000222565b620000eb600080516020620022dc833981519152336200026d565b62000106600080516020620022dc833981519152306200026d565b60005b82518110156200018c5762000150600080516020620022fc8339815191528483815181106200013c576200013c6200048b565b60200260200101516200026d60201b60201c565b620001796000805160206200233c8339815191528483815181106200013c576200013c6200048b565b620001848162000461565b905062000109565b5060005b8151811015620001d657620001c36000805160206200231c8339815191528383815181106200013c576200013c6200048b565b620001ce8162000461565b905062000190565b5060028390556040805160008152602081018590527f11c24f4ead16507c69ac467fbd5e4eed5fb5c699626d2cc6d66421df253886d5910160405180910390a1505050505050620004b7565b600082815260208190526040808220600101805490849055905190918391839186917fbd79b86ffe0ab8e8776151514217cd7cacd52c909f66475c3af44e129f0b00ff9190a4505050565b6200027982826200027d565b5050565b6000828152602081815260408083206001600160a01b038516845290915290205460ff1662000279576000828152602081815260408083206001600160a01b03851684529091529020805460ff19166001179055620002d93390565b6001600160a01b0316816001600160a01b0316837f2f8788117e7eff1d82e926ec794901d17c78024a50270940304540a733656f0d60405160405180910390a45050565b80516001600160a01b03811681146200033557600080fd5b919050565b600082601f8301126200034c57600080fd5b815160206001600160401b03808311156200036b576200036b620004a1565b8260051b604051601f19603f83011681018181108482111715620003935762000393620004a1565b60405284815283810192508684018288018501891015620003b357600080fd5b600092505b85831015620003e157620003cc816200031d565b845292840192600192909201918401620003b8565b50979650505050505050565b6000806000606084860312156200040357600080fd5b835160208501519093506001600160401b03808211156200042357600080fd5b62000431878388016200033a565b935060408601519150808211156200044857600080fd5b5062000457868287016200033a565b9150509250925092565b60006000198214156200048457634e487b7160e01b600052601160045260246000fd5b5060010190565b634e487b7160e01b600052603260045260246000fd5b634e487b7160e01b600052604160045260246000fd5b611e1580620004c76000396000f3fe6080604052600436106101c65760003560e01c80638065657f116100f7578063b1c5f42711610095578063d547741f11610064578063d547741f146105d1578063e38335e5146105f1578063f23a6e6114610604578063f27a0c921461063057600080fd5b8063b1c5f42714610538578063bc197c8114610558578063c4d252f514610584578063d45c4435146105a457600080fd5b806391d14854116100d157806391d148541461048b578063a217fddf146104ab578063a3f4df7e146104c0578063b08e51c01461050457600080fd5b80638065657f146104175780638f2a0bb0146104375780638f61f4f51461045757600080fd5b8063248a9ca31161016457806331d507501161013e57806331d507501461039757806336568abe146103b7578063584b153e146103d757806364d62353146103f757600080fd5b8063248a9ca3146103165780632ab0f529146103465780632f2ff15d1461037757600080fd5b80630d3cf6fc116101a05780630d3cf6fc1461026b578063134008d31461029f57806313bc9f20146102b2578063150b7a02146102d257600080fd5b806301d5062a146101d257806301ffc9a7146101f457806307bd02651461022957600080fd5b366101cd57005b600080fd5b3480156101de57600080fd5b506101f26101ed36600461173a565b610645565b005b34801561020057600080fd5b5061021461020f36600461194c565b6106da565b60405190151581526020015b60405180910390f35b34801561023557600080fd5b5061025d7fd8aa0f3194971a2a116679f7c2090f6939c8d4e01a2a8d7e41d55e5351469e6381565b604051908152602001610220565b34801561027757600080fd5b5061025d7f5f58e3a2316349923ce3780f8d587db2d72378aed66a8261c916544fa6846ca581565b6101f26102ad3660046116cf565b610705565b3480156102be57600080fd5b506102146102cd366004611907565b6107ba565b3480156102de57600080fd5b506102fd6102ed366004611604565b630a85bd0160e11b949350505050565b6040516001600160e01b03199091168152602001610220565b34801561032257600080fd5b5061025d610331366004611907565b60009081526020819052604090206001015490565b34801561035257600080fd5b50610214610361366004611907565b6000908152600160208190526040909120541490565b34801561038357600080fd5b506101f2610392366004611920565b6107e0565b3480156103a357600080fd5b506102146103b2366004611907565b61080a565b3480156103c357600080fd5b506101f26103d2366004611920565b610823565b3480156103e357600080fd5b506102146103f2366004611907565b6108a6565b34801561040357600080fd5b506101f2610412366004611907565b6108bc565b34801561042357600080fd5b5061025d6104323660046116cf565b610960565b34801561044357600080fd5b506101f2610452366004611856565b61099f565b34801561046357600080fd5b5061025d7fb09aa5aeb3702cfd50b6b62bc4532604938f21248a27a1d5ca736082b6819cc181565b34801561049757600080fd5b506102146104a6366004611920565b610af1565b3480156104b757600080fd5b5061025d600081565b3480156104cc57600080fd5b506104f76040518060400160405280600b81526020016a52656e54696d656c6f636b60a81b81525081565b6040516102209190611bce565b34801561051057600080fd5b5061025d7ffd643c72710c63c0180259aba6b2d05451e3591a24e58b62239378085726f78381565b34801561054457600080fd5b5061025d6105533660046117ae565b610b1a565b34801561056457600080fd5b506102fd61057336600461155b565b63bc197c8160e01b95945050505050565b34801561059057600080fd5b506101f261059f366004611907565b610b5f565b3480156105b057600080fd5b5061025d6105bf366004611907565b60009081526001602052604090205490565b3480156105dd57600080fd5b506101f26105ec366004611920565b610c34565b6101f26105ff3660046117ae565b610c59565b34801561061057600080fd5b506102fd61061f36600461166b565b63f23a6e6160e01b95945050505050565b34801561063c57600080fd5b5060025461025d565b7fb09aa5aeb3702cfd50b6b62bc4532604938f21248a27a1d5ca736082b6819cc161066f81610de3565b600061067f898989898989610960565b905061068b8184610df0565b6000817f4cf4410cc57040e44862ef0f45f3dd5a5e02db8eb8add648d4b0e236f1d07dca8b8b8b8b8b8a6040516106c796959493929190611ae6565b60405180910390a3505050505050505050565b60006001600160e01b03198216630271189760e51b14806106ff57506106ff82610edf565b92915050565b7fd8aa0f3194971a2a116679f7c2090f6939c8d4e01a2a8d7e41d55e5351469e63610731816000610af1565b61073f5761073f8133610f14565b600061074f888888888888610960565b905061075b8185610f78565b61076788888888611014565b6000817fc2617efa69bab66782fa219543714338489c4e9e178271560a91b82c3f612b588a8a8a8a60405161079f9493929190611ab4565b60405180910390a36107b0816110e7565b5050505050505050565b6000818152600160205260408120546001811180156107d95750428111155b9392505050565b6000828152602081905260409020600101546107fb81610de3565b6108058383611120565b505050565b60008181526001602052604081205481905b1192915050565b6001600160a01b03811633146108985760405162461bcd60e51b815260206004820152602f60248201527f416363657373436f6e74726f6c3a2063616e206f6e6c792072656e6f756e636560448201526e103937b632b9903337b91039b2b63360891b60648201526084015b60405180910390fd5b6108a282826111a4565b5050565b600081815260016020819052604082205461081c565b33301461091f5760405162461bcd60e51b815260206004820152602b60248201527f54696d656c6f636b436f6e74726f6c6c65723a2063616c6c6572206d7573742060448201526a62652074696d656c6f636b60a81b606482015260840161088f565b60025460408051918252602082018390527f11c24f4ead16507c69ac467fbd5e4eed5fb5c699626d2cc6d66421df253886d5910160405180910390a1600255565b600086868686868660405160200161097d96959493929190611ae6565b6040516020818303038152906040528051906020012090509695505050505050565b7fb09aa5aeb3702cfd50b6b62bc4532604938f21248a27a1d5ca736082b6819cc16109c981610de3565b8887146109e85760405162461bcd60e51b815260040161088f90611c01565b888514610a075760405162461bcd60e51b815260040161088f90611c01565b6000610a198b8b8b8b8b8b8b8b610b1a565b9050610a258184610df0565b60005b8a811015610ae35780827f4cf4410cc57040e44862ef0f45f3dd5a5e02db8eb8add648d4b0e236f1d07dca8e8e85818110610a6557610a65611db3565b9050602002016020810190610a7a9190611540565b8d8d86818110610a8c57610a8c611db3565b905060200201358c8c87818110610aa557610aa5611db3565b9050602002810190610ab79190611c8e565b8c8b604051610acb96959493929190611ae6565b60405180910390a3610adc81611d82565b9050610a28565b505050505050505050505050565b6000918252602082815260408084206001600160a01b0393909316845291905290205460ff1690565b60008888888888888888604051602001610b3b989796959493929190611b23565b60405160208183030381529060405280519060200120905098975050505050505050565b7ffd643c72710c63c0180259aba6b2d05451e3591a24e58b62239378085726f783610b8981610de3565b610b92826108a6565b610bf85760405162461bcd60e51b815260206004820152603160248201527f54696d656c6f636b436f6e74726f6c6c65723a206f7065726174696f6e2063616044820152701b9b9bdd0818994818d85b98d95b1b1959607a1b606482015260840161088f565b6000828152600160205260408082208290555183917fbaa1eb22f2a492ba1a5fea61b8df4d27c6c8b5f3971e63bb58fa14ff72eedb7091a25050565b600082815260208190526040902060010154610c4f81610de3565b61080583836111a4565b7fd8aa0f3194971a2a116679f7c2090f6939c8d4e01a2a8d7e41d55e5351469e63610c85816000610af1565b610c9357610c938133610f14565b878614610cb25760405162461bcd60e51b815260040161088f90611c01565b878414610cd15760405162461bcd60e51b815260040161088f90611c01565b6000610ce38a8a8a8a8a8a8a8a610b1a565b9050610cef8185610f78565b60005b89811015610dcd5760008b8b83818110610d0e57610d0e611db3565b9050602002016020810190610d239190611540565b905060008a8a84818110610d3957610d39611db3565b9050602002013590503660008a8a86818110610d5757610d57611db3565b9050602002810190610d699190611c8e565b91509150610d7984848484611014565b84867fc2617efa69bab66782fa219543714338489c4e9e178271560a91b82c3f612b5886868686604051610db09493929190611ab4565b60405180910390a35050505080610dc690611d82565b9050610cf2565b50610dd7816110e7565b50505050505050505050565b610ded8133610f14565b50565b610df98261080a565b15610e5e5760405162461bcd60e51b815260206004820152602f60248201527f54696d656c6f636b436f6e74726f6c6c65723a206f7065726174696f6e20616c60448201526e1c9958591e481cd8da19591d5b1959608a1b606482015260840161088f565b600254811015610ebf5760405162461bcd60e51b815260206004820152602660248201527f54696d656c6f636b436f6e74726f6c6c65723a20696e73756666696369656e746044820152652064656c617960d01b606482015260840161088f565b610ec98142611d04565b6000928352600160205260409092209190915550565b60006001600160e01b03198216637965db0b60e01b14806106ff57506301ffc9a760e01b6001600160e01b03198316146106ff565b610f1e8282610af1565b6108a257610f36816001600160a01b03166014611209565b610f41836020611209565b604051602001610f52929190611a3f565b60408051601f198184030181529082905262461bcd60e51b825261088f91600401611bce565b610f81826107ba565b610f9d5760405162461bcd60e51b815260040161088f90611c44565b801580610fb95750600081815260016020819052604090912054145b6108a25760405162461bcd60e51b815260206004820152602660248201527f54696d656c6f636b436f6e74726f6c6c65723a206d697373696e6720646570656044820152656e64656e637960d01b606482015260840161088f565b6000846001600160a01b0316848484604051611031929190611a2f565b60006040518083038185875af1925050503d806000811461106e576040519150601f19603f3d011682016040523d82523d6000602084013e611073565b606091505b50509050806110e05760405162461bcd60e51b815260206004820152603360248201527f54696d656c6f636b436f6e74726f6c6c65723a20756e6465726c79696e6720746044820152721c985b9cd858dd1a5bdb881c995d995c9d1959606a1b606482015260840161088f565b5050505050565b6110f0816107ba565b61110c5760405162461bcd60e51b815260040161088f90611c44565b600090815260016020819052604090912055565b61112a8282610af1565b6108a2576000828152602081815260408083206001600160a01b03851684529091529020805460ff191660011790556111603390565b6001600160a01b0316816001600160a01b0316837f2f8788117e7eff1d82e926ec794901d17c78024a50270940304540a733656f0d60405160405180910390a45050565b6111ae8282610af1565b156108a2576000828152602081815260408083206001600160a01b0385168085529252808320805460ff1916905551339285917ff6391f5c32d9c69d2a47ea670b442974b53935d1edc7fd64eb21e047a839171b9190a45050565b60606000611218836002611d1c565b611223906002611d04565b6001600160401b0381111561123a5761123a611dc9565b6040519080825280601f01601f191660200182016040528015611264576020820181803683370190505b509050600360fc1b8160008151811061127f5761127f611db3565b60200101906001600160f81b031916908160001a905350600f60fb1b816001815181106112ae576112ae611db3565b60200101906001600160f81b031916908160001a90535060006112d2846002611d1c565b6112dd906001611d04565b90505b6001811115611355576f181899199a1a9b1b9c1cb0b131b232b360811b85600f166010811061131157611311611db3565b1a60f81b82828151811061132757611327611db3565b60200101906001600160f81b031916908160001a90535060049490941c9361134e81611d6b565b90506112e0565b5083156107d95760405162461bcd60e51b815260206004820181905260248201527f537472696e67733a20686578206c656e67746820696e73756666696369656e74604482015260640161088f565b80356001600160a01b03811681146113bb57600080fd5b919050565b60008083601f8401126113d257600080fd5b5081356001600160401b038111156113e957600080fd5b6020830191508360208260051b850101111561140457600080fd5b9250929050565b600082601f83011261141c57600080fd5b813560206001600160401b0382111561143757611437611dc9565b8160051b611446828201611cd4565b83815282810190868401838801850189101561146157600080fd5b600093505b85841015611484578035835260019390930192918401918401611466565b50979650505050505050565b60008083601f8401126114a257600080fd5b5081356001600160401b038111156114b957600080fd5b60208301915083602082850101111561140457600080fd5b600082601f8301126114e257600080fd5b81356001600160401b038111156114fb576114fb611dc9565b61150e601f8201601f1916602001611cd4565b81815284602083860101111561152357600080fd5b816020850160208301376000918101602001919091529392505050565b60006020828403121561155257600080fd5b6107d9826113a4565b600080600080600060a0868803121561157357600080fd5b61157c866113a4565b945061158a602087016113a4565b935060408601356001600160401b03808211156115a657600080fd5b6115b289838a0161140b565b945060608801359150808211156115c857600080fd5b6115d489838a0161140b565b935060808801359150808211156115ea57600080fd5b506115f7888289016114d1565b9150509295509295909350565b6000806000806080858703121561161a57600080fd5b611623856113a4565b9350611631602086016113a4565b92506040850135915060608501356001600160401b0381111561165357600080fd5b61165f878288016114d1565b91505092959194509250565b600080600080600060a0868803121561168357600080fd5b61168c866113a4565b945061169a602087016113a4565b9350604086013592506060860135915060808601356001600160401b038111156116c357600080fd5b6115f7888289016114d1565b60008060008060008060a087890312156116e857600080fd5b6116f1876113a4565b95506020870135945060408701356001600160401b0381111561171357600080fd5b61171f89828a01611490565b979a9699509760608101359660809091013595509350505050565b600080600080600080600060c0888a03121561175557600080fd5b61175e886113a4565b96506020880135955060408801356001600160401b0381111561178057600080fd5b61178c8a828b01611490565b989b979a50986060810135976080820135975060a09091013595509350505050565b60008060008060008060008060a0898b0312156117ca57600080fd5b88356001600160401b03808211156117e157600080fd5b6117ed8c838d016113c0565b909a50985060208b013591508082111561180657600080fd5b6118128c838d016113c0565b909850965060408b013591508082111561182b57600080fd5b506118388b828c016113c0565b999c989b509699959896976060870135966080013595509350505050565b600080600080600080600080600060c08a8c03121561187457600080fd5b89356001600160401b038082111561188b57600080fd5b6118978d838e016113c0565b909b50995060208c01359150808211156118b057600080fd5b6118bc8d838e016113c0565b909950975060408c01359150808211156118d557600080fd5b506118e28c828d016113c0565b9a9d999c50979a969997986060880135976080810135975060a0013595509350505050565b60006020828403121561191957600080fd5b5035919050565b6000806040838503121561193357600080fd5b82359150611943602084016113a4565b90509250929050565b60006020828403121561195e57600080fd5b81356001600160e01b0319811681146107d957600080fd5b81835260006020808501808196508560051b810191508460005b878110156119f95782840389528135601e198836030181126119b157600080fd5b870180356001600160401b038111156119c957600080fd5b8036038913156119d857600080fd5b6119e58682898501611a06565b9a87019a9550505090840190600101611990565b5091979650505050505050565b81835281816020850137506000828201602090810191909152601f909101601f19169091010190565b8183823760009101908152919050565b7f416363657373436f6e74726f6c3a206163636f756e7420000000000000000000815260008351611a77816017850160208801611d3b565b7001034b99036b4b9b9b4b733903937b6329607d1b6017918401918201528351611aa8816028840160208801611d3b565b01602801949350505050565b60018060a01b0385168152836020820152606060408201526000611adc606083018486611a06565b9695505050505050565b60018060a01b038716815285602082015260a060408201526000611b0e60a083018688611a06565b60608301949094525060800152949350505050565b60a0808252810188905260008960c08301825b8b811015611b64576001600160a01b03611b4f846113a4565b16825260209283019290910190600101611b36565b5083810360208501528881526001600160fb1b03891115611b8457600080fd5b8860051b9150818a602083013781810191505060208101600081526020848303016040850152611bb581888a611976565b6060850196909652505050608001529695505050505050565b6020815260008251806020840152611bed816040850160208701611d3b565b601f01601f19169190910160400192915050565b60208082526023908201527f54696d656c6f636b436f6e74726f6c6c65723a206c656e677468206d69736d616040820152620e8c6d60eb1b606082015260800190565b6020808252602a908201527f54696d656c6f636b436f6e74726f6c6c65723a206f7065726174696f6e206973604082015269206e6f7420726561647960b01b606082015260800190565b6000808335601e19843603018112611ca557600080fd5b8301803591506001600160401b03821115611cbf57600080fd5b60200191503681900382131561140457600080fd5b604051601f8201601f191681016001600160401b0381118282101715611cfc57611cfc611dc9565b604052919050565b60008219821115611d1757611d17611d9d565b500190565b6000816000190483118215151615611d3657611d36611d9d565b500290565b60005b83811015611d56578181015183820152602001611d3e565b83811115611d65576000848401525b50505050565b600081611d7a57611d7a611d9d565b506000190190565b6000600019821415611d9657611d96611d9d565b5060010190565b634e487b7160e01b600052601160045260246000fd5b634e487b7160e01b600052603260045260246000fd5b634e487b7160e01b600052604160045260246000fdfea2646970667358221220fb9a386c1b9fa1a37ef2d90611dc74dca3e1449ef4fadbe95be323431bb0afa264736f6c634300080700335f58e3a2316349923ce3780f8d587db2d72378aed66a8261c916544fa6846ca5b09aa5aeb3702cfd50b6b62bc4532604938f21248a27a1d5ca736082b6819cc1d8aa0f3194971a2a116679f7c2090f6939c8d4e01a2a8d7e41d55e5351469e63fd643c72710c63c0180259aba6b2d05451e3591a24e58b62239378085726f783",
  "devdoc": {
    "kind": "dev",
    "methods": {
      "cancel(bytes32)": {
        "details": "Cancel an operation. Requirements: - the caller must have the 'canceller' role."
      },
      "execute(address,uint256,bytes,bytes32,bytes32)": {
        "details": "Execute an (ready) operation containing a single transaction. Emits a {CallExecuted} event. Requirements: - the caller must have the 'executor' role."
      },
      "executeBatch(address[],uint256[],bytes[],bytes32,bytes32)": {
        "details": "Execute an (ready) operation containing a batch of transactions. Emits one {CallExecuted} event per transaction in the batch. Requirements: - the caller must have the 'executor' role."
      },
      "getMinDelay()": {
        "details": "Returns the minimum delay for an operation to become valid. This value can be changed by executing an operation that calls `updateDelay`."
      },
      "getRoleAdmin(bytes32)": {
        "details": "Returns the admin role that controls `role`. See {grantRole} and {revokeRole}. To change a role's admin, use {_setRoleAdmin}."
      },
      "getTimestamp(bytes32)": {
        "details": "Returns the timestamp at with an operation becomes ready (0 for unset operations, 1 for done operations)."
      },
      "grantRole(bytes32,address)": {
        "details": "Grants `role` to `account`. If `account` had not been already granted `role`, emits a {RoleGranted} event. Requirements: - the caller must have ``role``'s admin role. May emit a {RoleGranted} event."
      },
      "hasRole(bytes32,address)": {
        "details": "Returns `true` if `account` has been granted `role`."
      },
      "hashOperation(address,uint256,bytes,bytes32,bytes32)": {
        "details": "Returns the identifier of an operation containing a single transaction."
      },
      "hashOperationBatch(address[],uint256[],bytes[],bytes32,bytes32)": {
        "details": "Returns the identifier of an operation containing a batch of transactions."
      },
      "isOperation(bytes32)": {
        "details": "Returns whether an id correspond to a registered operation. This includes both Pending, Ready and Done operations."
      },
      "isOperationDone(bytes32)": {
        "details": "Returns whether an operation is done or not."
      },
      "isOperationPending(bytes32)": {
        "details": "Returns whether an operation is pending or not."
      },
      "isOperationReady(bytes32)": {
        "details": "Returns whether an operation is ready or not."
      },
      "onERC1155BatchReceived(address,address,uint256[],uint256[],bytes)": {
        "details": "See {IERC1155Receiver-onERC1155BatchReceived}."
      },
      "onERC1155Received(address,address,uint256,uint256,bytes)": {
        "details": "See {IERC1155Receiver-onERC1155Received}."
      },
      "onERC721Received(address,address,uint256,bytes)": {
        "details": "See {IERC721Receiver-onERC721Received}."
      },
      "renounceRole(bytes32,address)": {
        "details": "Revokes `role` from the calling account. Roles are often managed via {grantRole} and {revokeRole}: this function's purpose is to provide a mechanism for accounts to lose their privileges if they are compromised (such as when a trusted device is misplaced). If the calling account had been revoked `role`, emits a {RoleRevoked} event. Requirements: - the caller must be `account`. May emit a {RoleRevoked} event."
      },
      "revokeRole(bytes32,address)": {
        "details": "Revokes `role` from `account`. If `account` had been granted `role`, emits a {RoleRevoked} event. Requirements: - the caller must have ``role``'s admin role. May emit a {RoleRevoked} event."
      },
      "schedule(address,uint256,bytes,bytes32,bytes32,uint256)": {
        "details": "Schedule an operation containing a single transaction. Emits a {CallScheduled} event. Requirements: - the caller must have the 'proposer' role."
      },
      "scheduleBatch(address[],uint256[],bytes[],bytes32,bytes32,uint256)": {
        "details": "Schedule an operation containing a batch of transactions. Emits one {CallScheduled} event per transaction in the batch. Requirements: - the caller must have the 'proposer' role."
      },
      "supportsInterface(bytes4)": {
        "details": "See {IERC165-supportsInterface}."
      },
      "updateDelay(uint256)": {
        "details": "Changes the minimum timelock duration for future operations. Emits a {MinDelayChange} event. Requirements: - the caller must be the timelock itself. This can only be achieved by scheduling and later executing an operation where the timelock is the target and the data is the ABI-encoded call to this function."
      }
    },
    "version": 1
  },
  "userdoc": {
    "kind": "user",
    "methods": {},
    "notice": "See TimelockController.",
    "version": 1
  },
  "storageLayout": {
    "storage": [
      {
        "astId": 5075,
        "contract": "src/RenTimelock.sol:RenTimelock",
        "label": "_roles",
        "offset": 0,
        "slot": "0",
        "type": "t_mapping(t_bytes32,t_struct(RoleData)5070_storage)"
      },
      {
        "astId": 5749,
        "contract": "src/RenTimelock.sol:RenTimelock",
        "label": "_timestamps",
        "offset": 0,
        "slot": "1",
        "type": "t_mapping(t_bytes32,t_uint256)"
      },
      {
        "astId": 5751,
        "contract": "src/RenTimelock.sol:RenTimelock",
        "label": "_minDelay",
        "offset": 0,
        "slot": "2",
        "type": "t_uint256"
      }
    ],
    "types": {
      "t_address": {
        "encoding": "inplace",
        "label": "address",
        "numberOfBytes": "20"
      },
      "t_bool": {
        "encoding": "inplace",
        "label": "bool",
        "numberOfBytes": "1"
      },
      "t_bytes32": {
        "encoding": "inplace",
        "label": "bytes32",
        "numberOfBytes": "32"
      },
      "t_mapping(t_address,t_bool)": {
        "encoding": "mapping",
        "key": "t_address",
        "label": "mapping(address => bool)",
        "numberOfBytes": "32",
        "value": "t_bool"
      },
      "t_mapping(t_bytes32,t_struct(RoleData)5070_storage)": {
        "encoding": "mapping",
        "key": "t_bytes32",
        "label": "mapping(bytes32 => struct AccessControl.RoleData)",
        "numberOfBytes": "32",
        "value": "t_struct(RoleData)5070_storage"
      },
      "t_mapping(t_bytes32,t_uint256)": {
        "encoding": "mapping",
        "key": "t_bytes32",
        "label": "mapping(bytes32 => uint256)",
        "numberOfBytes": "32",
        "value": "t_uint256"
      },
      "t_struct(RoleData)5070_storage": {
        "encoding": "inplace",
        "label": "struct AccessControl.RoleData",
        "members": [
          {
            "astId": 5067,
            "contract": "src/RenTimelock.sol:RenTimelock",
            "label": "members",
            "offset": 0,
            "slot": "0",
            "type": "t_mapping(t_address,t_bool)"
          },
          {
            "astId": 5069,
            "contract": "src/RenTimelock.sol:RenTimelock",
            "label": "adminRole",
            "offset": 0,
            "slot": "1",
            "type": "t_bytes32"
          }
        ],
        "numberOfBytes": "64"
      },
      "t_uint256": {
        "encoding": "inplace",
        "label": "uint256",
        "numberOfBytes": "32"
      }
    }
  }
}