{
  "address": "0x9D0Bb99e1CB61185a7bFC95206Cc5f81496a41Dc",
  "abi": [
    {
      "anonymous": false,
      "inputs": [
        {
          "indexed": false,
          "internalType": "uint8",
          "name": "version",
          "type": "uint8"
        }
      ],
      "name": "Initialized",
      "type": "event"
    },
    {
      "anonymous": false,
      "inputs": [
        {
          "indexed": true,
          "internalType": "bytes",
          "name": "oldPubKey",
          "type": "bytes"
        },
        {
          "indexed": true,
          "internalType": "bytes",
          "name": "newPubKey",
          "type": "bytes"
        }
      ],
      "name": "LogMintAuthorityUpdated",
      "type": "event"
    },
    {
      "anonymous": false,
      "inputs": [
        {
          "indexed": true,
          "internalType": "address",
          "name": "previousOwner",
          "type": "address"
        },
        {
          "indexed": true,
          "internalType": "address",
          "name": "newOwner",
          "type": "address"
        }
      ],
      "name": "OwnershipTransferred",
      "type": "event"
    },
    {
      "inputs": [],
      "name": "CORRECT_SIGNATURE_RETURN_VALUE",
      "outputs": [
        {
          "internalType": "bytes4",
          "name": "",
          "type": "bytes4"
        }
      ],
      "stateMutability": "view",
      "type": "function"
    },
    {
      "inputs": [],
      "name": "INCORRECT_SIGNATURE_RETURN_VALUE",
      "outputs": [
        {
          "internalType": "bytes4",
          "name": "",
          "type": "bytes4"
        }
      ],
      "stateMutability": "view",
      "type": "function"
    },
    {
      "inputs": [],
      "name": "NAME",
      "outputs": [
        {
          "internalType": "string",
          "name": "",
          "type": "string"
        }
      ],
      "stateMutability": "view",
      "type": "function"
    },
    {
      "inputs": [
        {
          "internalType": "string",
          "name": "chain_",
          "type": "string"
        },
        {
          "internalType": "uint256",
          "name": "x_",
          "type": "uint256"
        },
        {
          "internalType": "uint8",
          "name": "parity_",
          "type": "uint8"
        },
        {
          "internalType": "address",
          "name": "contractOwner",
          "type": "address"
        }
      ],
      "name": "__RenVMSignatureVerifier_init",
      "outputs": [],
      "stateMutability": "nonpayable",
      "type": "function"
    },
    {
      "inputs": [],
      "name": "getChain",
      "outputs": [
        {
          "internalType": "string",
          "name": "",
          "type": "string"
        }
      ],
      "stateMutability": "view",
      "type": "function"
    },
    {
      "inputs": [],
      "name": "getMintAuthority",
      "outputs": [
        {
          "internalType": "bytes",
          "name": "",
          "type": "bytes"
        }
      ],
      "stateMutability": "view",
      "type": "function"
    },
    {
      "inputs": [
        {
          "internalType": "bytes32",
          "name": "sigHash",
          "type": "bytes32"
        },
        {
          "internalType": "bytes",
          "name": "signature",
          "type": "bytes"
        }
      ],
      "name": "isValidSignature",
      "outputs": [
        {
          "internalType": "bytes4",
          "name": "",
          "type": "bytes4"
        }
      ],
      "stateMutability": "view",
      "type": "function"
    },
    {
      "inputs": [],
      "name": "owner",
      "outputs": [
        {
          "internalType": "address",
          "name": "",
          "type": "address"
        }
      ],
      "stateMutability": "view",
      "type": "function"
    },
    {
      "inputs": [],
      "name": "renounceOwnership",
      "outputs": [],
      "stateMutability": "nonpayable",
      "type": "function"
    },
    {
      "inputs": [
        {
          "internalType": "address",
          "name": "newOwner",
          "type": "address"
        }
      ],
      "name": "transferOwnership",
      "outputs": [],
      "stateMutability": "nonpayable",
      "type": "function"
    },
    {
      "inputs": [
        {
          "internalType": "bytes",
          "name": "_nextMintAuthority",
          "type": "bytes"
        }
      ],
      "name": "updateMintAuthority",
      "outputs": [],
      "stateMutability": "nonpayable",
      "type": "function"
    }
  ],
  "transactionHash": "0x7fff054df96228e8587882a8a8d784e4367853a8ee09f8133b532ed4f356a98e",
  "args": [],
  "numDeployments": 1,
  "solcInputHash": "1fc24ec92d75e781452354b8332143e5",
  "bytecode": "0x608060405234801561001057600080fd5b506112ce806100206000396000f3fe608060405234801561001057600080fd5b50600436106100a95760003560e01c80637573cf5c116100715780637573cf5c146101145780638da5cb5b1461011c57806392ff3a7e14610137578063a3f4df7e1461014a578063acc592c91461017f578063f2fde38b1461019257600080fd5b80631626ba7e146100ae578063213e6652146100df57806332e21ae7146100ed5780633d8a43bf14610102578063715018a61461010a575b600080fd5b6100c16100bc366004610e99565b6101a5565b6040516001600160e01b031990911681526020015b60405180910390f35b6100c1630b135d3f60e11b81565b6100f5610285565b6040516100d69190611145565b6100f5610317565b610112610326565b005b6100c1600081565b6033546040516001600160a01b0390911681526020016100d6565b610112610145366004610ee5565b61033a565b6100f5604051806040016040528060168152602001752932b72b26a9b4b3b730ba3ab932ab32b934b334b2b960511b81525081565b61011261018d366004610f96565b6103b7565b6101126101a0366004610e65565b6105a1565b6000806101b0610317565b90508051600014156102225760405162461bcd60e51b815260206004820152603060248201527f5369676e617475726556657269666965723a206d696e74417574686f7269747960448201526f081b9bdd081a5b9a5d1a585b1a5e995960821b60648201526084015b60405180910390fd5b610263818686868080601f01602080910402602001604051908101604052809392919081815260200183838082843760009201919091525061061a92505050565b156102785750630b135d3f60e11b905061027e565b50600090505b9392505050565b60606065805461029490611231565b80601f01602080910402602001604051908101604052809291908181526020018280546102c090611231565b801561030d5780601f106102e25761010080835404028352916020019161030d565b820191906000526020600020905b8154815290600101906020018083116102f057829003601f168201915b5050505050905090565b60606066805461029490611231565b61032e6109a4565b61033860006109fe565b565b6103426109a4565b61034b81610a50565b80604051610359919061108d565b6040518091039020606660405161037091906110a9565b604051908190038120907faa27bac8db70bec92dbcaa680f5f48f84cd4d3edf35117216c52803fee093e3c90600090a380516103b3906066906020840190610cf3565b5050565b600054610100900460ff16158080156103d75750600054600160ff909116105b806103f15750303b1580156103f1575060005460ff166001145b6104545760405162461bcd60e51b815260206004820152602e60248201527f496e697469616c697a61626c653a20636f6e747261637420697320616c72656160448201526d191e481a5b9a5d1a585b1a5e995960921b6064820152608401610219565b6000805460ff191660011790558015610477576000805461ff0019166101001790555b61047f610bdb565b610487610c02565b61049360658787610d77565b50600084846040516020016104bf92919091825260f81b6001600160f81b031916602082015260210190565b60405160208183030381529060405290506104d98161033a565b61051f6040518060400160405280601681526020017575706461746564206d696e7420617574686f7269747960501b8152506066805461051890611231565b9050610c31565b826001600160a01b031661053b6033546001600160a01b031690565b6001600160a01b03161461055257610552836105a1565b508015610599576000805461ff0019169055604051600181527f7f26b83ff96e1f2b6a682f133852f6798a09c465da95921460cefb38474024989060200160405180910390a15b505050505050565b6105a96109a4565b6001600160a01b03811661060e5760405162461bcd60e51b815260206004820152602660248201527f4f776e61626c653a206e6577206f776e657220697320746865207a65726f206160448201526564647265737360d01b6064820152608401610219565b610617816109fe565b50565b6000815160601461066d5760405162461bcd60e51b815260206004820152601f60248201527f45444453413a20496e76616c6964207369676e6174757265206c656e677468006044820152606401610219565b60208481015160408087015192850151908501516060860151929360001a9261069583610c76565b6106d55760405162461bcd60e51b815260206004820152601160248201527008a8888a682744092dcecc2d8d2c840a4b607b1b6044820152606401610219565b6106de82610c76565b61071e5760405162461bcd60e51b815260206004820152601160248201527045444453413a20496e76616c696420525960781b6044820152606401610219565b61072781610c88565b6107665760405162461bcd60e51b815260206004820152601060248201526f45444453413a20496e76616c6964205360801b6044820152606401610219565b600082600116905060008160f81b8560405160200161078791815260200190565b6040516020818303038152906040528760f81b896040516020016107ad91815260200190565b60408051601f19818403018152908290526107cf949392918f90602001611038565b604051602081830303815290604052905060006002826040516107f2919061108d565b602060405180830381855afa15801561080f573d6000803e3d6000fd5b5050506040513d601f19601f820116820180604052508101906108329190610e80565b60405160200161084491815260200190565b6040516020818303038152906040528060200190518101906108669190610e80565b90506000600170014551231950b75fc4402da1732fc9bebe198a870961089e9070014551231950b75fc4402da1732fc9bebe196111ea565b6108a98a601b6111c5565b8b70014551231950b75fc4402da1732fc9bebe198d87096108dc9070014551231950b75fc4402da1732fc9bebe196111ea565b6040805160008152602081018083529590955260ff909316928401929092526060830152608082015260a0016020604051602081039080840390855afa15801561092a573d6000803e3d6000fd5b5050604051601f198101519250610951915088908890602001918252602082015260400190565b60408051601f198184030181529082905261096e9160200161108d565b60408051601f1981840301815291905280516020909101206001600160a01b039182169116149c9b505050505050505050505050565b6033546001600160a01b031633146103385760405162461bcd60e51b815260206004820181905260248201527f4f776e61626c653a2063616c6c6572206973206e6f7420746865206f776e65726044820152606401610219565b603380546001600160a01b038381166001600160a01b0319831681179093556040519116919082907f8be0079c531659141344cd1fd0a4f28419497f9722a3daafe3b4186f6b6457e090600090a35050565b60008060208301519150606083015160001a9050610a87604051806040016040528060018152602001600f60fb1b81525083610c31565b610ab26040518060400160405280600681526020016570617269747960d01b8152508260ff16610c31565b81610b135760405162461bcd60e51b815260206004820152602b60248201527f45444453413a207075624b65792063616e6e6f742062652073657420746f206160448201526a646472657373207a65726f60a81b6064820152608401610219565b610b1c82610c76565b610b775760405162461bcd60e51b815260206004820152602660248201527f45444453413a207075624b65792063616e6e6f7420626520677265617465722060448201526507468616e20760d41b6064820152608401610219565b60ff81161580610b8a57508060ff166001145b610bd65760405162461bcd60e51b815260206004820181905260248201527f45444453413a207061726974792063616e206f6e6c792062652030206f7220316044820152606401610219565b505050565b600054610100900460ff166103385760405162461bcd60e51b81526004016102199061117a565b600054610100900460ff16610c295760405162461bcd60e51b81526004016102199061117a565b610338610ca2565b6103b38282604051602401610c47929190611158565b60408051601f198184030181529190526020810180516001600160e01b03166309710a9d60e41b179052610cd2565b60006401000003d0195b909110919050565b600070014551231950b75fc4402da1732fc9bebe19610c80565b600054610100900460ff16610cc95760405162461bcd60e51b81526004016102199061117a565b610338336109fe565b80516a636f6e736f6c652e6c6f67602083016000808483855afa5050505050565b828054610cff90611231565b90600052602060002090601f016020900481019282610d215760008555610d67565b82601f10610d3a57805160ff1916838001178555610d67565b82800160010185558215610d67579182015b82811115610d67578251825591602001919060010190610d4c565b50610d73929150610deb565b5090565b828054610d8390611231565b90600052602060002090601f016020900481019282610da55760008555610d67565b82601f10610dbe5782800160ff19823516178555610d67565b82800160010185558215610d67579182015b82811115610d67578235825591602001919060010190610dd0565b5b80821115610d735760008155600101610dec565b80356001600160a01b0381168114610e1757600080fd5b919050565b60008083601f840112610e2e57600080fd5b50813567ffffffffffffffff811115610e4657600080fd5b602083019150836020828501011115610e5e57600080fd5b9250929050565b600060208284031215610e7757600080fd5b61027e82610e00565b600060208284031215610e9257600080fd5b5051919050565b600080600060408486031215610eae57600080fd5b83359250602084013567ffffffffffffffff811115610ecc57600080fd5b610ed886828701610e1c565b9497909650939450505050565b600060208284031215610ef757600080fd5b813567ffffffffffffffff80821115610f0f57600080fd5b818401915084601f830112610f2357600080fd5b813581811115610f3557610f35611282565b604051601f8201601f19908116603f01168101908382118183101715610f5d57610f5d611282565b81604052828152876020848701011115610f7657600080fd5b826020860160208301376000928101602001929092525095945050505050565b600080600080600060808688031215610fae57600080fd5b853567ffffffffffffffff811115610fc557600080fd5b610fd188828901610e1c565b90965094505060208601359250604086013560ff81168114610ff257600080fd5b915061100060608701610e00565b90509295509295909350565b60008151808452611024816020860160208601611201565b601f01601f19169290920160200192915050565b600060ff60f81b80881683528651611057816001860160208b01611201565b908616600191840191820152845190611077826002830160208901611201565b0160028101939093525050602201949350505050565b6000825161109f818460208701611201565b9190910192915050565b600080835481600182811c9150808316806110c557607f831692505b60208084108214156110e557634e487b7160e01b86526022600452602486fd5b8180156110f9576001811461110a57611137565b60ff19861689528489019650611137565b60008a81526020902060005b8681101561112f5781548b820152908501908301611116565b505084890196505b509498975050505050505050565b60208152600061027e602083018461100c565b60408152600061116b604083018561100c565b90508260208301529392505050565b6020808252602b908201527f496e697469616c697a61626c653a20636f6e7472616374206973206e6f74206960408201526a6e697469616c697a696e6760a81b606082015260800190565b600060ff821660ff84168060ff038211156111e2576111e261126c565b019392505050565b6000828210156111fc576111fc61126c565b500390565b60005b8381101561121c578181015183820152602001611204565b8381111561122b576000848401525b50505050565b600181811c9082168061124557607f821691505b6020821081141561126657634e487b7160e01b600052602260045260246000fd5b50919050565b634e487b7160e01b600052601160045260246000fd5b634e487b7160e01b600052604160045260246000fdfea26469706673582212201f00fb6a084953a80956e85aa2f496030245cf0c8e9e3427a8d5fb29ed48900b64736f6c63430008070033",
  "devdoc": {
    "kind": "dev",
    "methods": {
      "owner()": {
        "details": "Returns the address of the current owner."
      },
      "renounceOwnership()": {
        "details": "Leaves the contract without owner. It will not be possible to call `onlyOwner` functions anymore. Can only be called by the current owner. NOTE: Renouncing ownership will leave the contract without an owner, thereby removing any functionality that is only available to the owner."
      },
      "transferOwnership(address)": {
        "details": "Transfers ownership of the contract to a new account (`newOwner`). Can only be called by the current owner."
      },
      "updateMintAuthority(bytes)": {
        "params": {
          "_nextMintAuthority": "The new mint mint authority."
        }
      }
    },
    "version": 1
  },
  "userdoc": {
    "kind": "user",
    "methods": {
      "isValidSignature(bytes32,bytes)": {
        "notice": "verifySignature checks the the provided signature matches the provided parameters. Returns a 4-byte value as defined by ERC1271."
      },
      "updateMintAuthority(bytes)": {
        "notice": "Allow the owner to update the mint authority."
      }
    },
    "version": 1
  },
  "storageLayout": {
    "storage": [
      {
        "astId": 721,
        "contract": "src/Gateways/RenVMSignatureVerifier.sol:RenVMSignatureVerifierV2",
        "label": "_initialized",
        "offset": 0,
        "slot": "0",
        "type": "t_uint8"
      },
      {
        "astId": 724,
        "contract": "src/Gateways/RenVMSignatureVerifier.sol:RenVMSignatureVerifierV2",
        "label": "_initializing",
        "offset": 1,
        "slot": "0",
        "type": "t_bool"
      },
      {
        "astId": 3664,
        "contract": "src/Gateways/RenVMSignatureVerifier.sol:RenVMSignatureVerifierV2",
        "label": "__gap",
        "offset": 0,
        "slot": "1",
        "type": "t_array(t_uint256)50_storage"
      },
      {
        "astId": 593,
        "contract": "src/Gateways/RenVMSignatureVerifier.sol:RenVMSignatureVerifierV2",
        "label": "_owner",
        "offset": 0,
        "slot": "51",
        "type": "t_address"
      },
      {
        "astId": 713,
        "contract": "src/Gateways/RenVMSignatureVerifier.sol:RenVMSignatureVerifierV2",
        "label": "__gap",
        "offset": 0,
        "slot": "52",
        "type": "t_array(t_uint256)49_storage"
      },
      {
        "astId": 21340,
        "contract": "src/Gateways/RenVMSignatureVerifier.sol:RenVMSignatureVerifierV2",
        "label": "_chain",
        "offset": 0,
        "slot": "101",
        "type": "t_string_storage"
      },
      {
        "astId": 21342,
        "contract": "src/Gateways/RenVMSignatureVerifier.sol:RenVMSignatureVerifierV2",
        "label": "_mintAuthority",
        "offset": 0,
        "slot": "102",
        "type": "t_bytes_storage"
      },
      {
        "astId": 21346,
        "contract": "src/Gateways/RenVMSignatureVerifier.sol:RenVMSignatureVerifierV2",
        "label": "__gap",
        "offset": 0,
        "slot": "103",
        "type": "t_array(t_uint256)48_storage"
      }
    ],
    "types": {
      "t_address": {
        "encoding": "inplace",
        "label": "address",
        "numberOfBytes": "20"
      },
      "t_array(t_uint256)48_storage": {
        "base": "t_uint256",
        "encoding": "inplace",
        "label": "uint256[48]",
        "numberOfBytes": "1536"
      },
      "t_array(t_uint256)49_storage": {
        "base": "t_uint256",
        "encoding": "inplace",
        "label": "uint256[49]",
        "numberOfBytes": "1568"
      },
      "t_array(t_uint256)50_storage": {
        "base": "t_uint256",
        "encoding": "inplace",
        "label": "uint256[50]",
        "numberOfBytes": "1600"
      },
      "t_bool": {
        "encoding": "inplace",
        "label": "bool",
        "numberOfBytes": "1"
      },
      "t_bytes_storage": {
        "encoding": "bytes",
        "label": "bytes",
        "numberOfBytes": "32"
      },
      "t_string_storage": {
        "encoding": "bytes",
        "label": "string",
        "numberOfBytes": "32"
      },
      "t_uint256": {
        "encoding": "inplace",
        "label": "uint256",
        "numberOfBytes": "32"
      },
      "t_uint8": {
        "encoding": "inplace",
        "label": "uint8",
        "numberOfBytes": "1"
      }
    }
  }
}