{
  "address": "0xeD417e075aFB39C6A89419F7ba13ebd6D7aC6fAe",
  "abi": [
    {
      "inputs": [
        {
          "internalType": "address",
          "name": "initialOwner",
          "type": "address"
        }
      ],
      "stateMutability": "nonpayable",
      "type": "constructor"
    },
    {
      "anonymous": false,
      "inputs": [
        {
          "indexed": true,
          "internalType": "address",
          "name": "previousOwner",
          "type": "address"
        },
        {
          "indexed": true,
          "internalType": "address",
          "name": "newOwner",
          "type": "address"
        }
      ],
      "name": "OwnershipTransferred",
      "type": "event"
    },
    {
      "inputs": [],
      "name": "NAME",
      "outputs": [
        {
          "internalType": "string",
          "name": "",
          "type": "string"
        }
      ],
      "stateMutability": "view",
      "type": "function"
    },
    {
      "inputs": [
        {
          "internalType": "contract TransparentUpgradeableProxy",
          "name": "proxy",
          "type": "address"
        },
        {
          "internalType": "address",
          "name": "newAdmin",
          "type": "address"
        }
      ],
      "name": "changeProxyAdmin",
      "outputs": [],
      "stateMutability": "nonpayable",
      "type": "function"
    },
    {
      "inputs": [
        {
          "internalType": "contract TransparentUpgradeableProxy",
          "name": "proxy",
          "type": "address"
        }
      ],
      "name": "getProxyAdmin",
      "outputs": [
        {
          "internalType": "address",
          "name": "",
          "type": "address"
        }
      ],
      "stateMutability": "view",
      "type": "function"
    },
    {
      "inputs": [
        {
          "internalType": "contract TransparentUpgradeableProxy",
          "name": "proxy",
          "type": "address"
        }
      ],
      "name": "getProxyImplementation",
      "outputs": [
        {
          "internalType": "address",
          "name": "",
          "type": "address"
        }
      ],
      "stateMutability": "view",
      "type": "function"
    },
    {
      "inputs": [],
      "name": "owner",
      "outputs": [
        {
          "internalType": "address",
          "name": "",
          "type": "address"
        }
      ],
      "stateMutability": "view",
      "type": "function"
    },
    {
      "inputs": [],
      "name": "renounceOwnership",
      "outputs": [],
      "stateMutability": "nonpayable",
      "type": "function"
    },
    {
      "inputs": [
        {
          "internalType": "address",
          "name": "newOwner",
          "type": "address"
        }
      ],
      "name": "transferOwnership",
      "outputs": [],
      "stateMutability": "nonpayable",
      "type": "function"
    },
    {
      "inputs": [
        {
          "internalType": "contract TransparentUpgradeableProxy",
          "name": "proxy",
          "type": "address"
        },
        {
          "internalType": "address",
          "name": "implementation",
          "type": "address"
        }
      ],
      "name": "upgrade",
      "outputs": [],
      "stateMutability": "nonpayable",
      "type": "function"
    },
    {
      "inputs": [
        {
          "internalType": "contract TransparentUpgradeableProxy",
          "name": "proxy",
          "type": "address"
        },
        {
          "internalType": "address",
          "name": "implementation",
          "type": "address"
        },
        {
          "internalType": "bytes",
          "name": "data",
          "type": "bytes"
        }
      ],
      "name": "upgradeAndCall",
      "outputs": [],
      "stateMutability": "payable",
      "type": "function"
    }
  ],
  "args": [
    "0xD8E6C7f593EcBc364463515693DE35C2B526B290"
  ],
  "numDeployments": 1,
  "solcInputHash": "9dfd975ef398dd4b1a44f92bf218726a",
  "bytecode": "0x608060405234801561001057600080fd5b5060405161093a38038061093a83398101604081905261002f91610167565b61003833610047565b61004181610097565b50610197565b600080546001600160a01b038381166001600160a01b0319831681178455604051919092169283917f8be0079c531659141344cd1fd0a4f28419497f9722a3daafe3b4186f6b6457e09190a35050565b6000546001600160a01b031633146100f65760405162461bcd60e51b815260206004820181905260248201527f4f776e61626c653a2063616c6c6572206973206e6f7420746865206f776e657260448201526064015b60405180910390fd5b6001600160a01b03811661015b5760405162461bcd60e51b815260206004820152602660248201527f4f776e61626c653a206e6577206f776e657220697320746865207a65726f206160448201526564647265737360d01b60648201526084016100ed565b61016481610047565b50565b60006020828403121561017957600080fd5b81516001600160a01b038116811461019057600080fd5b9392505050565b610794806101a66000396000f3fe6080604052600436106100865760003560e01c80639623609d116100595780639623609d1461011d57806399a88ec414610130578063a3f4df7e14610150578063f2fde38b14610196578063f3b7dead146101b657600080fd5b8063204e1c7a1461008b578063715018a6146100c85780637eff275e146100df5780638da5cb5b146100ff575b600080fd5b34801561009757600080fd5b506100ab6100a636600461052a565b6101d6565b6040516001600160a01b0390911681526020015b60405180910390f35b3480156100d457600080fd5b506100dd610267565b005b3480156100eb57600080fd5b506100dd6100fa36600461056b565b6102a6565b34801561010b57600080fd5b506000546001600160a01b03166100ab565b6100dd61012b3660046105a4565b610330565b34801561013c57600080fd5b506100dd61014b36600461056b565b6103c1565b34801561015c57600080fd5b506101896040518060400160405280600d81526020016c2932b7283937bc3ca0b236b4b760991b81525081565b6040516100bf91906106eb565b3480156101a257600080fd5b506100dd6101b136600461052a565b610419565b3480156101c257600080fd5b506100ab6101d136600461052a565b6104b4565b6000806000836001600160a01b03166040516101fc90635c60da1b60e01b815260040190565b600060405180830381855afa9150503d8060008114610237576040519150601f19603f3d011682016040523d82523d6000602084013e61023c565b606091505b50915091508161024b57600080fd5b8080602001905181019061025f919061054e565b949350505050565b6000546001600160a01b0316331461029a5760405162461bcd60e51b8152600401610291906106fe565b60405180910390fd5b6102a460006104da565b565b6000546001600160a01b031633146102d05760405162461bcd60e51b8152600401610291906106fe565b6040516308f2839760e41b81526001600160a01b038281166004830152831690638f283970906024015b600060405180830381600087803b15801561031457600080fd5b505af1158015610328573d6000803e3d6000fd5b505050505050565b6000546001600160a01b0316331461035a5760405162461bcd60e51b8152600401610291906106fe565b60405163278f794360e11b81526001600160a01b03841690634f1ef28690349061038a90869086906004016106c7565b6000604051808303818588803b1580156103a357600080fd5b505af11580156103b7573d6000803e3d6000fd5b5050505050505050565b6000546001600160a01b031633146103eb5760405162461bcd60e51b8152600401610291906106fe565b604051631b2ce7f360e11b81526001600160a01b038281166004830152831690633659cfe6906024016102fa565b6000546001600160a01b031633146104435760405162461bcd60e51b8152600401610291906106fe565b6001600160a01b0381166104a85760405162461bcd60e51b815260206004820152602660248201527f4f776e61626c653a206e6577206f776e657220697320746865207a65726f206160448201526564647265737360d01b6064820152608401610291565b6104b1816104da565b50565b6000806000836001600160a01b03166040516101fc906303e1469160e61b815260040190565b600080546001600160a01b038381166001600160a01b0319831681178455604051919092169283917f8be0079c531659141344cd1fd0a4f28419497f9722a3daafe3b4186f6b6457e09190a35050565b60006020828403121561053c57600080fd5b813561054781610749565b9392505050565b60006020828403121561056057600080fd5b815161054781610749565b6000806040838503121561057e57600080fd5b823561058981610749565b9150602083013561059981610749565b809150509250929050565b6000806000606084860312156105b957600080fd5b83356105c481610749565b925060208401356105d481610749565b9150604084013567ffffffffffffffff808211156105f157600080fd5b818601915086601f83011261060557600080fd5b81358181111561061757610617610733565b604051601f8201601f19908116603f0116810190838211818310171561063f5761063f610733565b8160405282815289602084870101111561065857600080fd5b8260208601602083013760006020848301015280955050505050509250925092565b6000815180845260005b818110156106a057602081850181015186830182015201610684565b818111156106b2576000602083870101525b50601f01601f19169290920160200192915050565b6001600160a01b038316815260406020820181905260009061025f9083018461067a565b602081526000610547602083018461067a565b6020808252818101527f4f776e61626c653a2063616c6c6572206973206e6f7420746865206f776e6572604082015260600190565b634e487b7160e01b600052604160045260246000fd5b6001600160a01b03811681146104b157600080fdfea2646970667358221220a439ccda2ab6d19ef93ee6f5a04adb1b45e6c4cf4e746c491185cc60bd51ba8264736f6c63430008070033",
  "devdoc": {
    "kind": "dev",
    "methods": {
      "changeProxyAdmin(address,address)": {
        "details": "Changes the admin of `proxy` to `newAdmin`. Requirements: - This contract must be the current admin of `proxy`."
      },
      "getProxyAdmin(address)": {
        "details": "Returns the current admin of `proxy`. Requirements: - This contract must be the admin of `proxy`."
      },
      "getProxyImplementation(address)": {
        "details": "Returns the current implementation of `proxy`. Requirements: - This contract must be the admin of `proxy`."
      },
      "owner()": {
        "details": "Returns the address of the current owner."
      },
      "renounceOwnership()": {
        "details": "Leaves the contract without owner. It will not be possible to call `onlyOwner` functions anymore. Can only be called by the current owner. NOTE: Renouncing ownership will leave the contract without an owner, thereby removing any functionality that is only available to the owner."
      },
      "transferOwnership(address)": {
        "details": "Transfers ownership of the contract to a new account (`newOwner`). Can only be called by the current owner."
      },
      "upgrade(address,address)": {
        "details": "Upgrades `proxy` to `implementation`. See {TransparentUpgradeableProxy-upgradeTo}. Requirements: - This contract must be the admin of `proxy`."
      },
      "upgradeAndCall(address,address,bytes)": {
        "details": "Upgrades `proxy` to `implementation` and calls a function on the new implementation. See {TransparentUpgradeableProxy-upgradeToAndCall}. Requirements: - This contract must be the admin of `proxy`."
      }
    },
    "version": 1
  },
  "userdoc": {
    "kind": "user",
    "methods": {
      "constructor": {
        "notice": "An address to be set as the owner is passed in so that RenProxyAdmin can be deployed by the CREATE2 deployer contract."
      }
    },
    "notice": "See ProxyAdmin.",
    "version": 1
  },
  "storageLayout": {
    "storage": [
      {
        "astId": 4004,
        "contract": "src/RenProxyAdmin.sol:RenProxyAdmin",
        "label": "_owner",
        "offset": 0,
        "slot": "0",
        "type": "t_address"
      }
    ],
    "types": {
      "t_address": {
        "encoding": "inplace",
        "label": "address",
        "numberOfBytes": "20"
      }
    }
  }
}